{
	"Contracts/AcutalUse.sol": {
		"C": {
			"abi": [
				{
					"inputs": [
						{
							"internalType": "bytes32",
							"name": "salt",
							"type": "bytes32"
						},
						{
							"internalType": "uint256",
							"name": "arg",
							"type": "uint256"
						}
					],
					"name": "createDSalted",
					"outputs": [],
					"stateMutability": "nonpayable",
					"type": "function"
				}
			],
			"devdoc": {
				"kind": "dev",
				"methods": {},
				"version": 1
			},
			"evm": {
				"assembly": "    /* \"Contracts/AcutalUse.sol\":150:812  contract C {... */\n  mstore(0x40, 0x80)\n  callvalue\n  dup1\n  iszero\n  tag_1\n  jumpi\n  0x00\n  dup1\n  revert\ntag_1:\n  pop\n  dataSize(sub_0)\n  dup1\n  dataOffset(sub_0)\n  0x00\n  codecopy\n  0x00\n  return\nstop\n\nsub_0: assembly {\n        /* \"Contracts/AcutalUse.sol\":150:812  contract C {... */\n      mstore(0x40, 0x80)\n      callvalue\n      dup1\n      iszero\n      tag_1\n      jumpi\n      0x00\n      dup1\n      revert\n    tag_1:\n      pop\n      jumpi(tag_2, lt(calldatasize, 0x04))\n      shr(0xe0, calldataload(0x00))\n      dup1\n      0x0bd38f2f\n      eq\n      tag_3\n      jumpi\n    tag_2:\n      0x00\n      dup1\n      revert\n        /* \"Contracts/AcutalUse.sol\":167:810  function createDSalted(bytes32 salt, uint arg) public {... */\n    tag_3:\n      tag_4\n      0x04\n      dup1\n      calldatasize\n      sub\n      dup2\n      add\n      swap1\n      tag_5\n      swap2\n      swap1\n      tag_6\n      jump\t// in\n    tag_5:\n      tag_7\n      jump\t// in\n    tag_4:\n      stop\n    tag_7:\n        /* \"Contracts/AcutalUse.sol\":430:454  address predictedAddress */\n      0x00\n        /* \"Contracts/AcutalUse.sol\":525:529  0xff */\n      0xff\n        /* \"Contracts/AcutalUse.sol\":518:530  bytes1(0xff) */\n      0xf8\n      shl\n        /* \"Contracts/AcutalUse.sol\":552:556  this */\n      address\n        /* \"Contracts/AcutalUse.sol\":571:575  salt */\n      dup5\n        /* \"Contracts/AcutalUse.sol\":633:653  type(D).creationCode */\n      mload(0x40)\n      dup1\n      0x20\n      add\n      tag_9\n      swap1\n      tag_10\n      jump\t// in\n    tag_9:\n      0x20\n      dup3\n      add\n      dup2\n      sub\n      dup3\n      mstore\n      not(0x1f)\n      0x1f\n      dup3\n      add\n      and\n      0x40\n      mstore\n      pop\n        /* \"Contracts/AcutalUse.sol\":682:685  arg */\n      dup6\n        /* \"Contracts/AcutalUse.sol\":671:686  abi.encode(arg) */\n      add(0x20, mload(0x40))\n      tag_11\n      swap2\n      swap1\n      tag_12\n      jump\t// in\n    tag_11:\n      mload(0x40)\n      0x20\n      dup2\n      dup4\n      sub\n      sub\n      dup2\n      mstore\n      swap1\n      0x40\n      mstore\n        /* \"Contracts/AcutalUse.sol\":599:700  abi.encodePacked(... */\n      add(0x20, mload(0x40))\n      tag_13\n      swap3\n      swap2\n      swap1\n      tag_14\n      jump\t// in\n    tag_13:\n      mload(0x40)\n      0x20\n      dup2\n      dup4\n      sub\n      sub\n      dup2\n      mstore\n      swap1\n      0x40\n      mstore\n        /* \"Contracts/AcutalUse.sol\":589:701  keccak256(abi.encodePacked(... */\n      dup1\n      mload\n      swap1\n      0x20\n      add\n      keccak256\n        /* \"Contracts/AcutalUse.sol\":488:711  abi.encodePacked(... */\n      add(0x20, mload(0x40))\n      tag_15\n      swap5\n      swap4\n      swap3\n      swap2\n      swap1\n      tag_16\n      jump\t// in\n    tag_15:\n      mload(0x40)\n      0x20\n      dup2\n      dup4\n      sub\n      sub\n      dup2\n      mstore\n      swap1\n      0x40\n      mstore\n        /* \"Contracts/AcutalUse.sol\":478:712  keccak256(abi.encodePacked(... */\n      dup1\n      mload\n      swap1\n      0x20\n      add\n      keccak256\n        /* \"Contracts/AcutalUse.sol\":473:713  uint(keccak256(abi.encodePacked(... */\n      0x00\n      shr\n        /* \"Contracts/AcutalUse.sol\":430:715  address predictedAddress = address(uint160(uint(keccak256(abi.encodePacked(... */\n      swap1\n      pop\n        /* \"Contracts/AcutalUse.sol\":726:729  D d */\n      0x00\n        /* \"Contracts/AcutalUse.sol\":744:748  salt */\n      dup4\n        /* \"Contracts/AcutalUse.sol\":750:753  arg */\n      dup4\n        /* \"Contracts/AcutalUse.sol\":732:754  new D{salt: salt}(arg) */\n      mload(0x40)\n      tag_17\n      swap1\n      tag_10\n      jump\t// in\n    tag_17:\n      tag_18\n      swap2\n      swap1\n      tag_12\n      jump\t// in\n    tag_18:\n      dup2\n      swap1\n      mload(0x40)\n      dup1\n      swap2\n      sub\n      swap1\n      0x00\n      create2\n      swap1\n      pop\n      dup1\n      iszero\n      dup1\n      iszero\n      tag_19\n      jumpi\n      returndatasize\n      0x00\n      dup1\n      returndatacopy\n      revert(0x00, returndatasize)\n    tag_19:\n      pop\n        /* \"Contracts/AcutalUse.sol\":726:754  D d = new D{salt: salt}(arg) */\n      swap1\n      pop\n        /* \"Contracts/AcutalUse.sol\":786:802  predictedAddress */\n      dup2\n        /* \"Contracts/AcutalUse.sol\":772:802  address(d) == predictedAddress */\n      0xffffffffffffffffffffffffffffffffffffffff\n      and\n        /* \"Contracts/AcutalUse.sol\":780:781  d */\n      dup2\n        /* \"Contracts/AcutalUse.sol\":772:802  address(d) == predictedAddress */\n      0xffffffffffffffffffffffffffffffffffffffff\n      and\n      eq\n        /* \"Contracts/AcutalUse.sol\":764:803  require(address(d) == predictedAddress) */\n      tag_20\n      jumpi\n      0x00\n      dup1\n      revert\n    tag_20:\n        /* \"Contracts/AcutalUse.sol\":221:810  {... */\n      pop\n      pop\n        /* \"Contracts/AcutalUse.sol\":167:810  function createDSalted(bytes32 salt, uint arg) public {... */\n      pop\n      pop\n      jump\t// out\n    tag_10:\n      dataSize(sub_0)\n      dup1\n      dataOffset(sub_0)\n      dup4\n      codecopy\n      add\n      swap1\n      jump\t// out\n        /* \"#utility.yul\":88:205   */\n    tag_22:\n        /* \"#utility.yul\":197:198   */\n      0x00\n        /* \"#utility.yul\":194:195   */\n      dup1\n        /* \"#utility.yul\":187:199   */\n      revert\n        /* \"#utility.yul\":334:411   */\n    tag_24:\n        /* \"#utility.yul\":371:378   */\n      0x00\n        /* \"#utility.yul\":400:405   */\n      dup2\n        /* \"#utility.yul\":389:405   */\n      swap1\n      pop\n        /* \"#utility.yul\":334:411   */\n      swap2\n      swap1\n      pop\n      jump\t// out\n        /* \"#utility.yul\":417:539   */\n    tag_25:\n        /* \"#utility.yul\":490:514   */\n      tag_52\n        /* \"#utility.yul\":508:513   */\n      dup2\n        /* \"#utility.yul\":490:514   */\n      tag_24\n      jump\t// in\n    tag_52:\n        /* \"#utility.yul\":483:488   */\n      dup2\n        /* \"#utility.yul\":480:515   */\n      eq\n        /* \"#utility.yul\":470:533   */\n      tag_53\n      jumpi\n        /* \"#utility.yul\":529:530   */\n      0x00\n        /* \"#utility.yul\":526:527   */\n      dup1\n        /* \"#utility.yul\":519:531   */\n      revert\n        /* \"#utility.yul\":470:533   */\n    tag_53:\n        /* \"#utility.yul\":417:539   */\n      pop\n      jump\t// out\n        /* \"#utility.yul\":545:684   */\n    tag_26:\n        /* \"#utility.yul\":591:596   */\n      0x00\n        /* \"#utility.yul\":629:635   */\n      dup2\n        /* \"#utility.yul\":616:636   */\n      calldataload\n        /* \"#utility.yul\":607:636   */\n      swap1\n      pop\n        /* \"#utility.yul\":645:678   */\n      tag_55\n        /* \"#utility.yul\":672:677   */\n      dup2\n        /* \"#utility.yul\":645:678   */\n      tag_25\n      jump\t// in\n    tag_55:\n        /* \"#utility.yul\":545:684   */\n      swap3\n      swap2\n      pop\n      pop\n      jump\t// out\n        /* \"#utility.yul\":690:767   */\n    tag_27:\n        /* \"#utility.yul\":727:734   */\n      0x00\n        /* \"#utility.yul\":756:761   */\n      dup2\n        /* \"#utility.yul\":745:761   */\n      swap1\n      pop\n        /* \"#utility.yul\":690:767   */\n      swap2\n      swap1\n      pop\n      jump\t// out\n        /* \"#utility.yul\":773:895   */\n    tag_28:\n        /* \"#utility.yul\":846:870   */\n      tag_58\n        /* \"#utility.yul\":864:869   */\n      dup2\n        /* \"#utility.yul\":846:870   */\n      tag_27\n      jump\t// in\n    tag_58:\n        /* \"#utility.yul\":839:844   */\n      dup2\n        /* \"#utility.yul\":836:871   */\n      eq\n        /* \"#utility.yul\":826:889   */\n      tag_59\n      jumpi\n        /* \"#utility.yul\":885:886   */\n      0x00\n        /* \"#utility.yul\":882:883   */\n      dup1\n        /* \"#utility.yul\":875:887   */\n      revert\n        /* \"#utility.yul\":826:889   */\n    tag_59:\n        /* \"#utility.yul\":773:895   */\n      pop\n      jump\t// out\n        /* \"#utility.yul\":901:1040   */\n    tag_29:\n        /* \"#utility.yul\":947:952   */\n      0x00\n        /* \"#utility.yul\":985:991   */\n      dup2\n        /* \"#utility.yul\":972:992   */\n      calldataload\n        /* \"#utility.yul\":963:992   */\n      swap1\n      pop\n        /* \"#utility.yul\":1001:1034   */\n      tag_61\n        /* \"#utility.yul\":1028:1033   */\n      dup2\n        /* \"#utility.yul\":1001:1034   */\n      tag_28\n      jump\t// in\n    tag_61:\n        /* \"#utility.yul\":901:1040   */\n      swap3\n      swap2\n      pop\n      pop\n      jump\t// out\n        /* \"#utility.yul\":1046:1520   */\n    tag_6:\n        /* \"#utility.yul\":1114:1120   */\n      0x00\n        /* \"#utility.yul\":1122:1128   */\n      dup1\n        /* \"#utility.yul\":1171:1173   */\n      0x40\n        /* \"#utility.yul\":1159:1168   */\n      dup4\n        /* \"#utility.yul\":1150:1157   */\n      dup6\n        /* \"#utility.yul\":1146:1169   */\n      sub\n        /* \"#utility.yul\":1142:1174   */\n      slt\n        /* \"#utility.yul\":1139:1258   */\n      iszero\n      tag_63\n      jumpi\n        /* \"#utility.yul\":1177:1256   */\n      tag_64\n      tag_22\n      jump\t// in\n    tag_64:\n        /* \"#utility.yul\":1139:1258   */\n    tag_63:\n        /* \"#utility.yul\":1297:1298   */\n      0x00\n        /* \"#utility.yul\":1322:1375   */\n      tag_65\n        /* \"#utility.yul\":1367:1374   */\n      dup6\n        /* \"#utility.yul\":1358:1364   */\n      dup3\n        /* \"#utility.yul\":1347:1356   */\n      dup7\n        /* \"#utility.yul\":1343:1365   */\n      add\n        /* \"#utility.yul\":1322:1375   */\n      tag_26\n      jump\t// in\n    tag_65:\n        /* \"#utility.yul\":1312:1375   */\n      swap3\n      pop\n        /* \"#utility.yul\":1268:1385   */\n      pop\n        /* \"#utility.yul\":1424:1426   */\n      0x20\n        /* \"#utility.yul\":1450:1503   */\n      tag_66\n        /* \"#utility.yul\":1495:1502   */\n      dup6\n        /* \"#utility.yul\":1486:1492   */\n      dup3\n        /* \"#utility.yul\":1475:1484   */\n      dup7\n        /* \"#utility.yul\":1471:1493   */\n      add\n        /* \"#utility.yul\":1450:1503   */\n      tag_29\n      jump\t// in\n    tag_66:\n        /* \"#utility.yul\":1440:1503   */\n      swap2\n      pop\n        /* \"#utility.yul\":1395:1513   */\n      pop\n        /* \"#utility.yul\":1046:1520   */\n      swap3\n      pop\n      swap3\n      swap1\n      pop\n      jump\t// out\n        /* \"#utility.yul\":1526:1644   */\n    tag_30:\n        /* \"#utility.yul\":1613:1637   */\n      tag_68\n        /* \"#utility.yul\":1631:1636   */\n      dup2\n        /* \"#utility.yul\":1613:1637   */\n      tag_27\n      jump\t// in\n    tag_68:\n        /* \"#utility.yul\":1608:1611   */\n      dup3\n        /* \"#utility.yul\":1601:1638   */\n      mstore\n        /* \"#utility.yul\":1526:1644   */\n      pop\n      pop\n      jump\t// out\n        /* \"#utility.yul\":1650:1872   */\n    tag_12:\n        /* \"#utility.yul\":1743:1747   */\n      0x00\n        /* \"#utility.yul\":1781:1783   */\n      0x20\n        /* \"#utility.yul\":1770:1779   */\n      dup3\n        /* \"#utility.yul\":1766:1784   */\n      add\n        /* \"#utility.yul\":1758:1784   */\n      swap1\n      pop\n        /* \"#utility.yul\":1794:1865   */\n      tag_70\n        /* \"#utility.yul\":1862:1863   */\n      0x00\n        /* \"#utility.yul\":1851:1860   */\n      dup4\n        /* \"#utility.yul\":1847:1864   */\n      add\n        /* \"#utility.yul\":1838:1844   */\n      dup5\n        /* \"#utility.yul\":1794:1865   */\n      tag_30\n      jump\t// in\n    tag_70:\n        /* \"#utility.yul\":1650:1872   */\n      swap3\n      swap2\n      pop\n      pop\n      jump\t// out\n        /* \"#utility.yul\":1878:1976   */\n    tag_31:\n        /* \"#utility.yul\":1929:1935   */\n      0x00\n        /* \"#utility.yul\":1963:1968   */\n      dup2\n        /* \"#utility.yul\":1957:1969   */\n      mload\n        /* \"#utility.yul\":1947:1969   */\n      swap1\n      pop\n        /* \"#utility.yul\":1878:1976   */\n      swap2\n      swap1\n      pop\n      jump\t// out\n        /* \"#utility.yul\":1982:2129   */\n    tag_32:\n        /* \"#utility.yul\":2083:2094   */\n      0x00\n        /* \"#utility.yul\":2120:2123   */\n      dup2\n        /* \"#utility.yul\":2105:2123   */\n      swap1\n      pop\n        /* \"#utility.yul\":1982:2129   */\n      swap3\n      swap2\n      pop\n      pop\n      jump\t// out\n        /* \"#utility.yul\":2135:2274   */\n    tag_33:\n        /* \"#utility.yul\":2224:2230   */\n      dup3\n        /* \"#utility.yul\":2219:2222   */\n      dup2\n        /* \"#utility.yul\":2214:2217   */\n      dup4\n        /* \"#utility.yul\":2208:2231   */\n      mcopy\n        /* \"#utility.yul\":2265:2266   */\n      0x00\n        /* \"#utility.yul\":2256:2262   */\n      dup4\n        /* \"#utility.yul\":2251:2254   */\n      dup4\n        /* \"#utility.yul\":2247:2263   */\n      add\n        /* \"#utility.yul\":2240:2267   */\n      mstore\n        /* \"#utility.yul\":2135:2274   */\n      pop\n      pop\n      pop\n      jump\t// out\n        /* \"#utility.yul\":2280:2666   */\n    tag_34:\n        /* \"#utility.yul\":2384:2387   */\n      0x00\n        /* \"#utility.yul\":2412:2450   */\n      tag_75\n        /* \"#utility.yul\":2444:2449   */\n      dup3\n        /* \"#utility.yul\":2412:2450   */\n      tag_31\n      jump\t// in\n    tag_75:\n        /* \"#utility.yul\":2466:2554   */\n      tag_76\n        /* \"#utility.yul\":2547:2553   */\n      dup2\n        /* \"#utility.yul\":2542:2545   */\n      dup6\n        /* \"#utility.yul\":2466:2554   */\n      tag_32\n      jump\t// in\n    tag_76:\n        /* \"#utility.yul\":2459:2554   */\n      swap4\n      pop\n        /* \"#utility.yul\":2563:2628   */\n      tag_77\n        /* \"#utility.yul\":2621:2627   */\n      dup2\n        /* \"#utility.yul\":2616:2619   */\n      dup6\n        /* \"#utility.yul\":2609:2613   */\n      0x20\n        /* \"#utility.yul\":2602:2607   */\n      dup7\n        /* \"#utility.yul\":2598:2614   */\n      add\n        /* \"#utility.yul\":2563:2628   */\n      tag_33\n      jump\t// in\n    tag_77:\n        /* \"#utility.yul\":2653:2659   */\n      dup1\n        /* \"#utility.yul\":2648:2651   */\n      dup5\n        /* \"#utility.yul\":2644:2660   */\n      add\n        /* \"#utility.yul\":2637:2660   */\n      swap2\n      pop\n        /* \"#utility.yul\":2388:2666   */\n      pop\n        /* \"#utility.yul\":2280:2666   */\n      swap3\n      swap2\n      pop\n      pop\n      jump\t// out\n        /* \"#utility.yul\":2672:3099   */\n    tag_14:\n        /* \"#utility.yul\":2848:2851   */\n      0x00\n        /* \"#utility.yul\":2870:2963   */\n      tag_79\n        /* \"#utility.yul\":2959:2962   */\n      dup3\n        /* \"#utility.yul\":2950:2956   */\n      dup6\n        /* \"#utility.yul\":2870:2963   */\n      tag_34\n      jump\t// in\n    tag_79:\n        /* \"#utility.yul\":2863:2963   */\n      swap2\n      pop\n        /* \"#utility.yul\":2980:3073   */\n      tag_80\n        /* \"#utility.yul\":3069:3072   */\n      dup3\n        /* \"#utility.yul\":3060:3066   */\n      dup5\n        /* \"#utility.yul\":2980:3073   */\n      tag_34\n      jump\t// in\n    tag_80:\n        /* \"#utility.yul\":2973:3073   */\n      swap2\n      pop\n        /* \"#utility.yul\":3090:3093   */\n      dup2\n        /* \"#utility.yul\":3083:3093   */\n      swap1\n      pop\n        /* \"#utility.yul\":2672:3099   */\n      swap4\n      swap3\n      pop\n      pop\n      pop\n      jump\t// out\n        /* \"#utility.yul\":3105:3254   */\n    tag_35:\n        /* \"#utility.yul\":3141:3148   */\n      0x00\n        /* \"#utility.yul\":3181:3247   */\n      0xff00000000000000000000000000000000000000000000000000000000000000\n        /* \"#utility.yul\":3174:3179   */\n      dup3\n        /* \"#utility.yul\":3170:3248   */\n      and\n        /* \"#utility.yul\":3159:3248   */\n      swap1\n      pop\n        /* \"#utility.yul\":3105:3254   */\n      swap2\n      swap1\n      pop\n      jump\t// out\n        /* \"#utility.yul\":3260:3338   */\n    tag_36:\n        /* \"#utility.yul\":3298:3305   */\n      0x00\n        /* \"#utility.yul\":3327:3332   */\n      dup2\n        /* \"#utility.yul\":3316:3332   */\n      swap1\n      pop\n        /* \"#utility.yul\":3260:3338   */\n      swap2\n      swap1\n      pop\n      jump\t// out\n        /* \"#utility.yul\":3344:3497   */\n    tag_37:\n        /* \"#utility.yul\":3447:3490   */\n      tag_84\n        /* \"#utility.yul\":3466:3489   */\n      tag_85\n        /* \"#utility.yul\":3483:3488   */\n      dup3\n        /* \"#utility.yul\":3466:3489   */\n      tag_35\n      jump\t// in\n    tag_85:\n        /* \"#utility.yul\":3447:3490   */\n      tag_36\n      jump\t// in\n    tag_84:\n        /* \"#utility.yul\":3442:3445   */\n      dup3\n        /* \"#utility.yul\":3435:3491   */\n      mstore\n        /* \"#utility.yul\":3344:3497   */\n      pop\n      pop\n      jump\t// out\n        /* \"#utility.yul\":3503:3629   */\n    tag_38:\n        /* \"#utility.yul\":3540:3547   */\n      0x00\n        /* \"#utility.yul\":3580:3622   */\n      0xffffffffffffffffffffffffffffffffffffffff\n        /* \"#utility.yul\":3573:3578   */\n      dup3\n        /* \"#utility.yul\":3569:3623   */\n      and\n        /* \"#utility.yul\":3558:3623   */\n      swap1\n      pop\n        /* \"#utility.yul\":3503:3629   */\n      swap2\n      swap1\n      pop\n      jump\t// out\n        /* \"#utility.yul\":3635:3731   */\n    tag_39:\n        /* \"#utility.yul\":3672:3679   */\n      0x00\n        /* \"#utility.yul\":3701:3725   */\n      tag_88\n        /* \"#utility.yul\":3719:3724   */\n      dup3\n        /* \"#utility.yul\":3701:3725   */\n      tag_38\n      jump\t// in\n    tag_88:\n        /* \"#utility.yul\":3690:3725   */\n      swap1\n      pop\n        /* \"#utility.yul\":3635:3731   */\n      swap2\n      swap1\n      pop\n      jump\t// out\n        /* \"#utility.yul\":3737:3831   */\n    tag_40:\n        /* \"#utility.yul\":3770:3778   */\n      0x00\n        /* \"#utility.yul\":3818:3823   */\n      dup2\n        /* \"#utility.yul\":3814:3816   */\n      0x60\n        /* \"#utility.yul\":3810:3824   */\n      shl\n        /* \"#utility.yul\":3789:3824   */\n      swap1\n      pop\n        /* \"#utility.yul\":3737:3831   */\n      swap2\n      swap1\n      pop\n      jump\t// out\n        /* \"#utility.yul\":3837:3931   */\n    tag_41:\n        /* \"#utility.yul\":3876:3883   */\n      0x00\n        /* \"#utility.yul\":3905:3925   */\n      tag_91\n        /* \"#utility.yul\":3919:3924   */\n      dup3\n        /* \"#utility.yul\":3905:3925   */\n      tag_40\n      jump\t// in\n    tag_91:\n        /* \"#utility.yul\":3894:3925   */\n      swap1\n      pop\n        /* \"#utility.yul\":3837:3931   */\n      swap2\n      swap1\n      pop\n      jump\t// out\n        /* \"#utility.yul\":3937:4037   */\n    tag_42:\n        /* \"#utility.yul\":3976:3983   */\n      0x00\n        /* \"#utility.yul\":4005:4031   */\n      tag_93\n        /* \"#utility.yul\":4025:4030   */\n      dup3\n        /* \"#utility.yul\":4005:4031   */\n      tag_41\n      jump\t// in\n    tag_93:\n        /* \"#utility.yul\":3994:4031   */\n      swap1\n      pop\n        /* \"#utility.yul\":3937:4037   */\n      swap2\n      swap1\n      pop\n      jump\t// out\n        /* \"#utility.yul\":4043:4200   */\n    tag_43:\n        /* \"#utility.yul\":4148:4193   */\n      tag_95\n        /* \"#utility.yul\":4168:4192   */\n      tag_96\n        /* \"#utility.yul\":4186:4191   */\n      dup3\n        /* \"#utility.yul\":4168:4192   */\n      tag_39\n      jump\t// in\n    tag_96:\n        /* \"#utility.yul\":4148:4193   */\n      tag_42\n      jump\t// in\n    tag_95:\n        /* \"#utility.yul\":4143:4146   */\n      dup3\n        /* \"#utility.yul\":4136:4194   */\n      mstore\n        /* \"#utility.yul\":4043:4200   */\n      pop\n      pop\n      jump\t// out\n        /* \"#utility.yul\":4206:4285   */\n    tag_44:\n        /* \"#utility.yul\":4245:4252   */\n      0x00\n        /* \"#utility.yul\":4274:4279   */\n      dup2\n        /* \"#utility.yul\":4263:4279   */\n      swap1\n      pop\n        /* \"#utility.yul\":4206:4285   */\n      swap2\n      swap1\n      pop\n      jump\t// out\n        /* \"#utility.yul\":4291:4448   */\n    tag_45:\n        /* \"#utility.yul\":4396:4441   */\n      tag_99\n        /* \"#utility.yul\":4416:4440   */\n      tag_100\n        /* \"#utility.yul\":4434:4439   */\n      dup3\n        /* \"#utility.yul\":4416:4440   */\n      tag_24\n      jump\t// in\n    tag_100:\n        /* \"#utility.yul\":4396:4441   */\n      tag_44\n      jump\t// in\n    tag_99:\n        /* \"#utility.yul\":4391:4394   */\n      dup3\n        /* \"#utility.yul\":4384:4442   */\n      mstore\n        /* \"#utility.yul\":4291:4448   */\n      pop\n      pop\n      jump\t// out\n        /* \"#utility.yul\":4454:5128   */\n    tag_16:\n        /* \"#utility.yul\":4648:4651   */\n      0x00\n        /* \"#utility.yul\":4663:4736   */\n      tag_102\n        /* \"#utility.yul\":4732:4735   */\n      dup3\n        /* \"#utility.yul\":4723:4729   */\n      dup8\n        /* \"#utility.yul\":4663:4736   */\n      tag_37\n      jump\t// in\n    tag_102:\n        /* \"#utility.yul\":4761:4762   */\n      0x01\n        /* \"#utility.yul\":4756:4759   */\n      dup3\n        /* \"#utility.yul\":4752:4763   */\n      add\n        /* \"#utility.yul\":4745:4763   */\n      swap2\n      pop\n        /* \"#utility.yul\":4773:4848   */\n      tag_103\n        /* \"#utility.yul\":4844:4847   */\n      dup3\n        /* \"#utility.yul\":4835:4841   */\n      dup7\n        /* \"#utility.yul\":4773:4848   */\n      tag_43\n      jump\t// in\n    tag_103:\n        /* \"#utility.yul\":4873:4875   */\n      0x14\n        /* \"#utility.yul\":4868:4871   */\n      dup3\n        /* \"#utility.yul\":4864:4876   */\n      add\n        /* \"#utility.yul\":4857:4876   */\n      swap2\n      pop\n        /* \"#utility.yul\":4886:4961   */\n      tag_104\n        /* \"#utility.yul\":4957:4960   */\n      dup3\n        /* \"#utility.yul\":4948:4954   */\n      dup6\n        /* \"#utility.yul\":4886:4961   */\n      tag_45\n      jump\t// in\n    tag_104:\n        /* \"#utility.yul\":4986:4988   */\n      0x20\n        /* \"#utility.yul\":4981:4984   */\n      dup3\n        /* \"#utility.yul\":4977:4989   */\n      add\n        /* \"#utility.yul\":4970:4989   */\n      swap2\n      pop\n        /* \"#utility.yul\":4999:5074   */\n      tag_105\n        /* \"#utility.yul\":5070:5073   */\n      dup3\n        /* \"#utility.yul\":5061:5067   */\n      dup5\n        /* \"#utility.yul\":4999:5074   */\n      tag_45\n      jump\t// in\n    tag_105:\n        /* \"#utility.yul\":5099:5101   */\n      0x20\n        /* \"#utility.yul\":5094:5097   */\n      dup3\n        /* \"#utility.yul\":5090:5102   */\n      add\n        /* \"#utility.yul\":5083:5102   */\n      swap2\n      pop\n        /* \"#utility.yul\":5119:5122   */\n      dup2\n        /* \"#utility.yul\":5112:5122   */\n      swap1\n      pop\n        /* \"#utility.yul\":4454:5128   */\n      swap6\n      swap5\n      pop\n      pop\n      pop\n      pop\n      pop\n      jump\t// out\n    stop\n\n    sub_0: assembly {\n            /* \"Contracts/AcutalUse.sol\":68:148  contract D {... */\n          mstore(0x40, 0x80)\n            /* \"Contracts/AcutalUse.sol\":104:146  constructor(uint a) {... */\n          callvalue\n          dup1\n          iszero\n          tag_1\n          jumpi\n          0x00\n          dup1\n          revert\n        tag_1:\n          pop\n          mload(0x40)\n          sub(codesize, bytecodeSize)\n          dup1\n          bytecodeSize\n          dup4\n          codecopy\n          dup2\n          dup2\n          add\n          0x40\n          mstore\n          dup2\n          add\n          swap1\n          tag_2\n          swap2\n          swap1\n          tag_3\n          jump\t// in\n        tag_2:\n            /* \"Contracts/AcutalUse.sol\":138:139  a */\n          dup1\n            /* \"Contracts/AcutalUse.sol\":134:135  x */\n          0x00\n            /* \"Contracts/AcutalUse.sol\":134:139  x = a */\n          dup2\n          swap1\n          sstore\n          pop\n            /* \"Contracts/AcutalUse.sol\":104:146  constructor(uint a) {... */\n          pop\n            /* \"Contracts/AcutalUse.sol\":68:148  contract D {... */\n          jump(tag_6)\n            /* \"#utility.yul\":88:205   */\n        tag_8:\n            /* \"#utility.yul\":197:198   */\n          0x00\n            /* \"#utility.yul\":194:195   */\n          dup1\n            /* \"#utility.yul\":187:199   */\n          revert\n            /* \"#utility.yul\":334:411   */\n        tag_10:\n            /* \"#utility.yul\":371:378   */\n          0x00\n            /* \"#utility.yul\":400:405   */\n          dup2\n            /* \"#utility.yul\":389:405   */\n          swap1\n          pop\n            /* \"#utility.yul\":334:411   */\n          swap2\n          swap1\n          pop\n          jump\t// out\n            /* \"#utility.yul\":417:539   */\n        tag_11:\n            /* \"#utility.yul\":490:514   */\n          tag_19\n            /* \"#utility.yul\":508:513   */\n          dup2\n            /* \"#utility.yul\":490:514   */\n          tag_10\n          jump\t// in\n        tag_19:\n            /* \"#utility.yul\":483:488   */\n          dup2\n            /* \"#utility.yul\":480:515   */\n          eq\n            /* \"#utility.yul\":470:533   */\n          tag_20\n          jumpi\n            /* \"#utility.yul\":529:530   */\n          0x00\n            /* \"#utility.yul\":526:527   */\n          dup1\n            /* \"#utility.yul\":519:531   */\n          revert\n            /* \"#utility.yul\":470:533   */\n        tag_20:\n            /* \"#utility.yul\":417:539   */\n          pop\n          jump\t// out\n            /* \"#utility.yul\":545:688   */\n        tag_12:\n            /* \"#utility.yul\":602:607   */\n          0x00\n            /* \"#utility.yul\":633:639   */\n          dup2\n            /* \"#utility.yul\":627:640   */\n          mload\n            /* \"#utility.yul\":618:640   */\n          swap1\n          pop\n            /* \"#utility.yul\":649:682   */\n          tag_22\n            /* \"#utility.yul\":676:681   */\n          dup2\n            /* \"#utility.yul\":649:682   */\n          tag_11\n          jump\t// in\n        tag_22:\n            /* \"#utility.yul\":545:688   */\n          swap3\n          swap2\n          pop\n          pop\n          jump\t// out\n            /* \"#utility.yul\":694:1045   */\n        tag_3:\n            /* \"#utility.yul\":764:770   */\n          0x00\n            /* \"#utility.yul\":813:815   */\n          0x20\n            /* \"#utility.yul\":801:810   */\n          dup3\n            /* \"#utility.yul\":792:799   */\n          dup5\n            /* \"#utility.yul\":788:811   */\n          sub\n            /* \"#utility.yul\":784:816   */\n          slt\n            /* \"#utility.yul\":781:900   */\n          iszero\n          tag_24\n          jumpi\n            /* \"#utility.yul\":819:898   */\n          tag_25\n          tag_8\n          jump\t// in\n        tag_25:\n            /* \"#utility.yul\":781:900   */\n        tag_24:\n            /* \"#utility.yul\":939:940   */\n          0x00\n            /* \"#utility.yul\":964:1028   */\n          tag_26\n            /* \"#utility.yul\":1020:1027   */\n          dup5\n            /* \"#utility.yul\":1011:1017   */\n          dup3\n            /* \"#utility.yul\":1000:1009   */\n          dup6\n            /* \"#utility.yul\":996:1018   */\n          add\n            /* \"#utility.yul\":964:1028   */\n          tag_12\n          jump\t// in\n        tag_26:\n            /* \"#utility.yul\":954:1028   */\n          swap2\n          pop\n            /* \"#utility.yul\":910:1038   */\n          pop\n            /* \"#utility.yul\":694:1045   */\n          swap3\n          swap2\n          pop\n          pop\n          jump\t// out\n            /* \"Contracts/AcutalUse.sol\":68:148  contract D {... */\n        tag_6:\n          dataSize(sub_0)\n          dup1\n          dataOffset(sub_0)\n          0x00\n          codecopy\n          0x00\n          return\n        stop\n\n        sub_0: assembly {\n                /* \"Contracts/AcutalUse.sol\":68:148  contract D {... */\n              mstore(0x40, 0x80)\n              callvalue\n              dup1\n              iszero\n              tag_1\n              jumpi\n              0x00\n              dup1\n              revert\n            tag_1:\n              pop\n              jumpi(tag_2, lt(calldatasize, 0x04))\n              shr(0xe0, calldataload(0x00))\n              dup1\n              0x0c55699c\n              eq\n              tag_3\n              jumpi\n            tag_2:\n              0x00\n              dup1\n              revert\n                /* \"Contracts/AcutalUse.sol\":85:98  uint public x */\n            tag_3:\n              tag_4\n              tag_5\n              jump\t// in\n            tag_4:\n              mload(0x40)\n              tag_6\n              swap2\n              swap1\n              tag_7\n              jump\t// in\n            tag_6:\n              mload(0x40)\n              dup1\n              swap2\n              sub\n              swap1\n              return\n            tag_5:\n              sload(0x00)\n              dup2\n              jump\t// out\n                /* \"#utility.yul\":7:84   */\n            tag_8:\n                /* \"#utility.yul\":44:51   */\n              0x00\n                /* \"#utility.yul\":73:78   */\n              dup2\n                /* \"#utility.yul\":62:78   */\n              swap1\n              pop\n                /* \"#utility.yul\":7:84   */\n              swap2\n              swap1\n              pop\n              jump\t// out\n                /* \"#utility.yul\":90:208   */\n            tag_9:\n                /* \"#utility.yul\":177:201   */\n              tag_13\n                /* \"#utility.yul\":195:200   */\n              dup2\n                /* \"#utility.yul\":177:201   */\n              tag_8\n              jump\t// in\n            tag_13:\n                /* \"#utility.yul\":172:175   */\n              dup3\n                /* \"#utility.yul\":165:202   */\n              mstore\n                /* \"#utility.yul\":90:208   */\n              pop\n              pop\n              jump\t// out\n                /* \"#utility.yul\":214:436   */\n            tag_7:\n                /* \"#utility.yul\":307:311   */\n              0x00\n                /* \"#utility.yul\":345:347   */\n              0x20\n                /* \"#utility.yul\":334:343   */\n              dup3\n                /* \"#utility.yul\":330:348   */\n              add\n                /* \"#utility.yul\":322:348   */\n              swap1\n              pop\n                /* \"#utility.yul\":358:429   */\n              tag_15\n                /* \"#utility.yul\":426:427   */\n              0x00\n                /* \"#utility.yul\":415:424   */\n              dup4\n                /* \"#utility.yul\":411:428   */\n              add\n                /* \"#utility.yul\":402:408   */\n              dup5\n                /* \"#utility.yul\":358:429   */\n              tag_9\n              jump\t// in\n            tag_15:\n                /* \"#utility.yul\":214:436   */\n              swap3\n              swap2\n              pop\n              pop\n              jump\t// out\n\n            auxdata: 0xa264697066735822122021ec11fc9d211171f4c3a313106db3db2943215a97a281267bb494fe7051762e64736f6c634300081a0033\n        }\n    }\n\n    auxdata: 0xa2646970667358221220933699ed379e6500042b6ce42b389aaaf6b05024507a670ee2616d6ca6bd239b64736f6c634300081a0033\n}\n",
				"bytecode": {
					"linkReferences": {},
					"object": "6080604052348015600e575f80fd5b5061055d8061001c5f395ff3fe608060405234801561000f575f80fd5b5060043610610029575f3560e01c80630bd38f2f1461002d575b5f80fd5b610047600480360381019061004291906101d6565b610049565b005b5f60ff60f81b3084604051806020016100619061015f565b6020820181038252601f19601f82011660405250856040516020016100869190610223565b6040516020818303038152906040526040516020016100a692919061028e565b604051602081830303815290604052805190602001206040516020016100cf9493929190610391565b604051602081830303815290604052805190602001205f1c90505f83836040516100f89061015f565b6101029190610223565b8190604051809103905ff590508015801561011f573d5f803e3d5ffd5b5090508173ffffffffffffffffffffffffffffffffffffffff168173ffffffffffffffffffffffffffffffffffffffff1614610159575f80fd5b50505050565b610149806103df83390190565b5f80fd5b5f819050919050565b61018281610170565b811461018c575f80fd5b50565b5f8135905061019d81610179565b92915050565b5f819050919050565b6101b5816101a3565b81146101bf575f80fd5b50565b5f813590506101d0816101ac565b92915050565b5f80604083850312156101ec576101eb61016c565b5b5f6101f98582860161018f565b925050602061020a858286016101c2565b9150509250929050565b61021d816101a3565b82525050565b5f6020820190506102365f830184610214565b92915050565b5f81519050919050565b5f81905092915050565b8281835e5f83830152505050565b5f6102688261023c565b6102728185610246565b9350610282818560208601610250565b80840191505092915050565b5f610299828561025e565b91506102a5828461025e565b91508190509392505050565b5f7fff0000000000000000000000000000000000000000000000000000000000000082169050919050565b5f819050919050565b6102f66102f1826102b1565b6102dc565b82525050565b5f73ffffffffffffffffffffffffffffffffffffffff82169050919050565b5f610325826102fc565b9050919050565b5f8160601b9050919050565b5f6103428261032c565b9050919050565b5f61035382610338565b9050919050565b61036b6103668261031b565b610349565b82525050565b5f819050919050565b61038b61038682610170565b610371565b82525050565b5f61039c82876102e5565b6001820191506103ac828661035a565b6014820191506103bc828561037a565b6020820191506103cc828461037a565b6020820191508190509594505050505056fe6080604052348015600e575f80fd5b506040516101493803806101498339818101604052810190602e9190606b565b805f81905550506091565b5f80fd5b5f819050919050565b604d81603d565b81146056575f80fd5b50565b5f815190506065816046565b92915050565b5f60208284031215607d57607c6039565b5b5f6088848285016059565b91505092915050565b60ac8061009d5f395ff3fe6080604052348015600e575f80fd5b50600436106026575f3560e01c80630c55699c14602a575b5f80fd5b60306044565b604051603b9190605f565b60405180910390f35b5f5481565b5f819050919050565b6059816049565b82525050565b5f60208201905060705f8301846052565b9291505056fea264697066735822122021ec11fc9d211171f4c3a313106db3db2943215a97a281267bb494fe7051762e64736f6c634300081a0033a2646970667358221220933699ed379e6500042b6ce42b389aaaf6b05024507a670ee2616d6ca6bd239b64736f6c634300081a0033",
					"opcodes": "PUSH1 0x80 PUSH1 0x40 MSTORE CALLVALUE DUP1 ISZERO PUSH1 0xE JUMPI PUSH0 DUP1 REVERT JUMPDEST POP PUSH2 0x55D DUP1 PUSH2 0x1C PUSH0 CODECOPY PUSH0 RETURN INVALID PUSH1 0x80 PUSH1 0x40 MSTORE CALLVALUE DUP1 ISZERO PUSH2 0xF JUMPI PUSH0 DUP1 REVERT JUMPDEST POP PUSH1 0x4 CALLDATASIZE LT PUSH2 0x29 JUMPI PUSH0 CALLDATALOAD PUSH1 0xE0 SHR DUP1 PUSH4 0xBD38F2F EQ PUSH2 0x2D JUMPI JUMPDEST PUSH0 DUP1 REVERT JUMPDEST PUSH2 0x47 PUSH1 0x4 DUP1 CALLDATASIZE SUB DUP2 ADD SWAP1 PUSH2 0x42 SWAP2 SWAP1 PUSH2 0x1D6 JUMP JUMPDEST PUSH2 0x49 JUMP JUMPDEST STOP JUMPDEST PUSH0 PUSH1 0xFF PUSH1 0xF8 SHL ADDRESS DUP5 PUSH1 0x40 MLOAD DUP1 PUSH1 0x20 ADD PUSH2 0x61 SWAP1 PUSH2 0x15F JUMP JUMPDEST PUSH1 0x20 DUP3 ADD DUP2 SUB DUP3 MSTORE PUSH1 0x1F NOT PUSH1 0x1F DUP3 ADD AND PUSH1 0x40 MSTORE POP DUP6 PUSH1 0x40 MLOAD PUSH1 0x20 ADD PUSH2 0x86 SWAP2 SWAP1 PUSH2 0x223 JUMP JUMPDEST PUSH1 0x40 MLOAD PUSH1 0x20 DUP2 DUP4 SUB SUB DUP2 MSTORE SWAP1 PUSH1 0x40 MSTORE PUSH1 0x40 MLOAD PUSH1 0x20 ADD PUSH2 0xA6 SWAP3 SWAP2 SWAP1 PUSH2 0x28E JUMP JUMPDEST PUSH1 0x40 MLOAD PUSH1 0x20 DUP2 DUP4 SUB SUB DUP2 MSTORE SWAP1 PUSH1 0x40 MSTORE DUP1 MLOAD SWAP1 PUSH1 0x20 ADD KECCAK256 PUSH1 0x40 MLOAD PUSH1 0x20 ADD PUSH2 0xCF SWAP5 SWAP4 SWAP3 SWAP2 SWAP1 PUSH2 0x391 JUMP JUMPDEST PUSH1 0x40 MLOAD PUSH1 0x20 DUP2 DUP4 SUB SUB DUP2 MSTORE SWAP1 PUSH1 0x40 MSTORE DUP1 MLOAD SWAP1 PUSH1 0x20 ADD KECCAK256 PUSH0 SHR SWAP1 POP PUSH0 DUP4 DUP4 PUSH1 0x40 MLOAD PUSH2 0xF8 SWAP1 PUSH2 0x15F JUMP JUMPDEST PUSH2 0x102 SWAP2 SWAP1 PUSH2 0x223 JUMP JUMPDEST DUP2 SWAP1 PUSH1 0x40 MLOAD DUP1 SWAP2 SUB SWAP1 PUSH0 CREATE2 SWAP1 POP DUP1 ISZERO DUP1 ISZERO PUSH2 0x11F JUMPI RETURNDATASIZE PUSH0 DUP1 RETURNDATACOPY RETURNDATASIZE PUSH0 REVERT JUMPDEST POP SWAP1 POP DUP2 PUSH20 0xFFFFFFFFFFFFFFFFFFFFFFFFFFFFFFFFFFFFFFFF AND DUP2 PUSH20 0xFFFFFFFFFFFFFFFFFFFFFFFFFFFFFFFFFFFFFFFF AND EQ PUSH2 0x159 JUMPI PUSH0 DUP1 REVERT JUMPDEST POP POP POP POP JUMP JUMPDEST PUSH2 0x149 DUP1 PUSH2 0x3DF DUP4 CODECOPY ADD SWAP1 JUMP JUMPDEST PUSH0 DUP1 REVERT JUMPDEST PUSH0 DUP2 SWAP1 POP SWAP2 SWAP1 POP JUMP JUMPDEST PUSH2 0x182 DUP2 PUSH2 0x170 JUMP JUMPDEST DUP2 EQ PUSH2 0x18C JUMPI PUSH0 DUP1 REVERT JUMPDEST POP JUMP JUMPDEST PUSH0 DUP2 CALLDATALOAD SWAP1 POP PUSH2 0x19D DUP2 PUSH2 0x179 JUMP JUMPDEST SWAP3 SWAP2 POP POP JUMP JUMPDEST PUSH0 DUP2 SWAP1 POP SWAP2 SWAP1 POP JUMP JUMPDEST PUSH2 0x1B5 DUP2 PUSH2 0x1A3 JUMP JUMPDEST DUP2 EQ PUSH2 0x1BF JUMPI PUSH0 DUP1 REVERT JUMPDEST POP JUMP JUMPDEST PUSH0 DUP2 CALLDATALOAD SWAP1 POP PUSH2 0x1D0 DUP2 PUSH2 0x1AC JUMP JUMPDEST SWAP3 SWAP2 POP POP JUMP JUMPDEST PUSH0 DUP1 PUSH1 0x40 DUP4 DUP6 SUB SLT ISZERO PUSH2 0x1EC JUMPI PUSH2 0x1EB PUSH2 0x16C JUMP JUMPDEST JUMPDEST PUSH0 PUSH2 0x1F9 DUP6 DUP3 DUP7 ADD PUSH2 0x18F JUMP JUMPDEST SWAP3 POP POP PUSH1 0x20 PUSH2 0x20A DUP6 DUP3 DUP7 ADD PUSH2 0x1C2 JUMP JUMPDEST SWAP2 POP POP SWAP3 POP SWAP3 SWAP1 POP JUMP JUMPDEST PUSH2 0x21D DUP2 PUSH2 0x1A3 JUMP JUMPDEST DUP3 MSTORE POP POP JUMP JUMPDEST PUSH0 PUSH1 0x20 DUP3 ADD SWAP1 POP PUSH2 0x236 PUSH0 DUP4 ADD DUP5 PUSH2 0x214 JUMP JUMPDEST SWAP3 SWAP2 POP POP JUMP JUMPDEST PUSH0 DUP2 MLOAD SWAP1 POP SWAP2 SWAP1 POP JUMP JUMPDEST PUSH0 DUP2 SWAP1 POP SWAP3 SWAP2 POP POP JUMP JUMPDEST DUP3 DUP2 DUP4 MCOPY PUSH0 DUP4 DUP4 ADD MSTORE POP POP POP JUMP JUMPDEST PUSH0 PUSH2 0x268 DUP3 PUSH2 0x23C JUMP JUMPDEST PUSH2 0x272 DUP2 DUP6 PUSH2 0x246 JUMP JUMPDEST SWAP4 POP PUSH2 0x282 DUP2 DUP6 PUSH1 0x20 DUP7 ADD PUSH2 0x250 JUMP JUMPDEST DUP1 DUP5 ADD SWAP2 POP POP SWAP3 SWAP2 POP POP JUMP JUMPDEST PUSH0 PUSH2 0x299 DUP3 DUP6 PUSH2 0x25E JUMP JUMPDEST SWAP2 POP PUSH2 0x2A5 DUP3 DUP5 PUSH2 0x25E JUMP JUMPDEST SWAP2 POP DUP2 SWAP1 POP SWAP4 SWAP3 POP POP POP JUMP JUMPDEST PUSH0 PUSH32 0xFF00000000000000000000000000000000000000000000000000000000000000 DUP3 AND SWAP1 POP SWAP2 SWAP1 POP JUMP JUMPDEST PUSH0 DUP2 SWAP1 POP SWAP2 SWAP1 POP JUMP JUMPDEST PUSH2 0x2F6 PUSH2 0x2F1 DUP3 PUSH2 0x2B1 JUMP JUMPDEST PUSH2 0x2DC JUMP JUMPDEST DUP3 MSTORE POP POP JUMP JUMPDEST PUSH0 PUSH20 0xFFFFFFFFFFFFFFFFFFFFFFFFFFFFFFFFFFFFFFFF DUP3 AND SWAP1 POP SWAP2 SWAP1 POP JUMP JUMPDEST PUSH0 PUSH2 0x325 DUP3 PUSH2 0x2FC JUMP JUMPDEST SWAP1 POP SWAP2 SWAP1 POP JUMP JUMPDEST PUSH0 DUP2 PUSH1 0x60 SHL SWAP1 POP SWAP2 SWAP1 POP JUMP JUMPDEST PUSH0 PUSH2 0x342 DUP3 PUSH2 0x32C JUMP JUMPDEST SWAP1 POP SWAP2 SWAP1 POP JUMP JUMPDEST PUSH0 PUSH2 0x353 DUP3 PUSH2 0x338 JUMP JUMPDEST SWAP1 POP SWAP2 SWAP1 POP JUMP JUMPDEST PUSH2 0x36B PUSH2 0x366 DUP3 PUSH2 0x31B JUMP JUMPDEST PUSH2 0x349 JUMP JUMPDEST DUP3 MSTORE POP POP JUMP JUMPDEST PUSH0 DUP2 SWAP1 POP SWAP2 SWAP1 POP JUMP JUMPDEST PUSH2 0x38B PUSH2 0x386 DUP3 PUSH2 0x170 JUMP JUMPDEST PUSH2 0x371 JUMP JUMPDEST DUP3 MSTORE POP POP JUMP JUMPDEST PUSH0 PUSH2 0x39C DUP3 DUP8 PUSH2 0x2E5 JUMP JUMPDEST PUSH1 0x1 DUP3 ADD SWAP2 POP PUSH2 0x3AC DUP3 DUP7 PUSH2 0x35A JUMP JUMPDEST PUSH1 0x14 DUP3 ADD SWAP2 POP PUSH2 0x3BC DUP3 DUP6 PUSH2 0x37A JUMP JUMPDEST PUSH1 0x20 DUP3 ADD SWAP2 POP PUSH2 0x3CC DUP3 DUP5 PUSH2 0x37A JUMP JUMPDEST PUSH1 0x20 DUP3 ADD SWAP2 POP DUP2 SWAP1 POP SWAP6 SWAP5 POP POP POP POP POP JUMP INVALID PUSH1 0x80 PUSH1 0x40 MSTORE CALLVALUE DUP1 ISZERO PUSH1 0xE JUMPI PUSH0 DUP1 REVERT JUMPDEST POP PUSH1 0x40 MLOAD PUSH2 0x149 CODESIZE SUB DUP1 PUSH2 0x149 DUP4 CODECOPY DUP2 DUP2 ADD PUSH1 0x40 MSTORE DUP2 ADD SWAP1 PUSH1 0x2E SWAP2 SWAP1 PUSH1 0x6B JUMP JUMPDEST DUP1 PUSH0 DUP2 SWAP1 SSTORE POP POP PUSH1 0x91 JUMP JUMPDEST PUSH0 DUP1 REVERT JUMPDEST PUSH0 DUP2 SWAP1 POP SWAP2 SWAP1 POP JUMP JUMPDEST PUSH1 0x4D DUP2 PUSH1 0x3D JUMP JUMPDEST DUP2 EQ PUSH1 0x56 JUMPI PUSH0 DUP1 REVERT JUMPDEST POP JUMP JUMPDEST PUSH0 DUP2 MLOAD SWAP1 POP PUSH1 0x65 DUP2 PUSH1 0x46 JUMP JUMPDEST SWAP3 SWAP2 POP POP JUMP JUMPDEST PUSH0 PUSH1 0x20 DUP3 DUP5 SUB SLT ISZERO PUSH1 0x7D JUMPI PUSH1 0x7C PUSH1 0x39 JUMP JUMPDEST JUMPDEST PUSH0 PUSH1 0x88 DUP5 DUP3 DUP6 ADD PUSH1 0x59 JUMP JUMPDEST SWAP2 POP POP SWAP3 SWAP2 POP POP JUMP JUMPDEST PUSH1 0xAC DUP1 PUSH2 0x9D PUSH0 CODECOPY PUSH0 RETURN INVALID PUSH1 0x80 PUSH1 0x40 MSTORE CALLVALUE DUP1 ISZERO PUSH1 0xE JUMPI PUSH0 DUP1 REVERT JUMPDEST POP PUSH1 0x4 CALLDATASIZE LT PUSH1 0x26 JUMPI PUSH0 CALLDATALOAD PUSH1 0xE0 SHR DUP1 PUSH4 0xC55699C EQ PUSH1 0x2A JUMPI JUMPDEST PUSH0 DUP1 REVERT JUMPDEST PUSH1 0x30 PUSH1 0x44 JUMP JUMPDEST PUSH1 0x40 MLOAD PUSH1 0x3B SWAP2 SWAP1 PUSH1 0x5F JUMP JUMPDEST PUSH1 0x40 MLOAD DUP1 SWAP2 SUB SWAP1 RETURN JUMPDEST PUSH0 SLOAD DUP2 JUMP JUMPDEST PUSH0 DUP2 SWAP1 POP SWAP2 SWAP1 POP JUMP JUMPDEST PUSH1 0x59 DUP2 PUSH1 0x49 JUMP JUMPDEST DUP3 MSTORE POP POP JUMP JUMPDEST PUSH0 PUSH1 0x20 DUP3 ADD SWAP1 POP PUSH1 0x70 PUSH0 DUP4 ADD DUP5 PUSH1 0x52 JUMP JUMPDEST SWAP3 SWAP2 POP POP JUMP INVALID LOG2 PUSH5 0x6970667358 0x22 SLT KECCAK256 0x21 0xEC GT 0xFC SWAP14 0x21 GT PUSH18 0xF4C3A313106DB3DB2943215A97A281267BB4 SWAP5 INVALID PUSH17 0x51762E64736F6C634300081A0033A26469 PUSH17 0x667358221220933699ED379E6500042B6C 0xE4 0x2B CODESIZE SWAP11 0xAA 0xF6 0xB0 POP 0x24 POP PUSH27 0x670EE2616D6CA6BD239B64736F6C634300081A0033000000000000 "
				},
				"gasEstimates": {
					"creation": {
						"codeDepositCost": "274600",
						"executionCost": "310",
						"totalCost": "274910"
					},
					"external": {
						"createDSalted(bytes32,uint256)": "infinite"
					}
				},
				"methodIdentifiers": {
					"createDSalted(bytes32,uint256)": "0bd38f2f"
				}
			},
			"storageLayout": {
				"storage": [],
				"types": null
			},
			"userdoc": {
				"kind": "user",
				"methods": {},
				"version": 1
			}
		}
	}
}