{
	"Contracts/VaultFactory.sol": {
		"VaultFactory": {
			"abi": [
				{
					"inputs": [],
					"stateMutability": "nonpayable",
					"type": "constructor"
				},
				{
					"inputs": [],
					"name": "FailedDeployment",
					"type": "error"
				},
				{
					"inputs": [
						{
							"internalType": "uint256",
							"name": "balance",
							"type": "uint256"
						},
						{
							"internalType": "uint256",
							"name": "needed",
							"type": "uint256"
						}
					],
					"name": "InsufficientBalance",
					"type": "error"
				},
				{
					"anonymous": false,
					"inputs": [
						{
							"indexed": false,
							"internalType": "address",
							"name": "newVault",
							"type": "address"
						},
						{
							"indexed": false,
							"internalType": "address",
							"name": "owner",
							"type": "address"
						}
					],
					"name": "VaultCreated",
					"type": "event"
				},
				{
					"inputs": [],
					"name": "createVault",
					"outputs": [
						{
							"internalType": "address",
							"name": "",
							"type": "address"
						}
					],
					"stateMutability": "nonpayable",
					"type": "function"
				},
				{
					"inputs": [],
					"name": "implementation",
					"outputs": [
						{
							"internalType": "address",
							"name": "",
							"type": "address"
						}
					],
					"stateMutability": "view",
					"type": "function"
				}
			],
			"devdoc": {
				"errors": {
					"FailedDeployment()": [
						{
							"details": "The deployment failed."
						}
					],
					"InsufficientBalance(uint256,uint256)": [
						{
							"details": "The ETH balance of the account is not enough to perform the operation."
						}
					]
				},
				"kind": "dev",
				"methods": {},
				"version": 1
			},
			"evm": {
				"assembly": "    /* \"Contracts/VaultFactory.sol\":132:680  contract VaultFactory {... */\n  mstore(0x40, 0xa0)\n    /* \"Contracts/VaultFactory.sol\":264:358  constructor() {... */\n  callvalue\n  dup1\n  iszero\n  tag_1\n  jumpi\n  0x00\n  dup1\n  revert\ntag_1:\n  pop\n    /* \"Contracts/VaultFactory.sol\":313:324  new Vault() */\n  mload(0x40)\n  tag_4\n  swap1\n  tag_5\n  jump\t// in\ntag_4:\n  mload(0x40)\n  dup1\n  swap2\n  sub\n  swap1\n  0x00\n  create\n  dup1\n  iszero\n  dup1\n  iszero\n  tag_6\n  jumpi\n  returndatasize\n  0x00\n  dup1\n  returndatacopy\n  revert(0x00, returndatasize)\ntag_6:\n  pop\n    /* \"Contracts/VaultFactory.sol\":288:325  implementation = address(new Vault()) */\n  0xffffffffffffffffffffffffffffffffffffffff\n  and\n  0x80\n  dup2\n  0xffffffffffffffffffffffffffffffffffffffff\n  and\n  dup2\n  mstore\n  pop\n  pop\n    /* \"Contracts/VaultFactory.sol\":132:680  contract VaultFactory {... */\n  jump(tag_7)\ntag_5:\n  dataSize(sub_1)\n  dup1\n  dataOffset(sub_1)\n  dup4\n  codecopy\n  add\n  swap1\n  jump\t// out\ntag_7:\n  mload(0x80)\n  codecopy(0x00, dataOffset(sub_0), dataSize(sub_0))\n  0x00\n  assignImmutable(\"0x253f1b147b4889852e9b1c570dd9d3e9c39aab5859e44f2ec74d7528f2f54a9d\")\n  return(0x00, dataSize(sub_0))\nstop\n\nsub_0: assembly {\n        /* \"Contracts/VaultFactory.sol\":132:680  contract VaultFactory {... */\n      mstore(0x40, 0x80)\n      callvalue\n      dup1\n      iszero\n      tag_1\n      jumpi\n      0x00\n      dup1\n      revert\n    tag_1:\n      pop\n      jumpi(tag_2, lt(calldatasize, 0x04))\n      shr(0xe0, calldataload(0x00))\n      dup1\n      0x5c60da1b\n      eq\n      tag_3\n      jumpi\n      dup1\n      0x5d12928b\n      eq\n      tag_4\n      jumpi\n    tag_2:\n      0x00\n      dup1\n      revert\n        /* \"Contracts/VaultFactory.sol\":160:199  address public immutable implementation */\n    tag_3:\n      tag_5\n      tag_6\n      jump\t// in\n    tag_5:\n      mload(0x40)\n      tag_7\n      swap2\n      swap1\n      tag_8\n      jump\t// in\n    tag_7:\n      mload(0x40)\n      dup1\n      swap2\n      sub\n      swap1\n      return\n        /* \"Contracts/VaultFactory.sol\":364:673  function createVault() external returns (address) {... */\n    tag_4:\n      tag_9\n      tag_10\n      jump\t// in\n    tag_9:\n      mload(0x40)\n      tag_11\n      swap2\n      swap1\n      tag_8\n      jump\t// in\n    tag_11:\n      mload(0x40)\n      dup1\n      swap2\n      sub\n      swap1\n      return\n        /* \"Contracts/VaultFactory.sol\":160:199  address public immutable implementation */\n    tag_6:\n      immutable(\"0x253f1b147b4889852e9b1c570dd9d3e9c39aab5859e44f2ec74d7528f2f54a9d\")\n      dup2\n      jump\t// out\n        /* \"Contracts/VaultFactory.sol\":364:673  function createVault() external returns (address) {... */\n    tag_10:\n        /* \"Contracts/VaultFactory.sol\":405:412  address */\n      0x00\n        /* \"Contracts/VaultFactory.sol\":424:437  address clone */\n      dup1\n        /* \"Contracts/VaultFactory.sol\":440:468  Clones.clone(implementation) */\n      tag_13\n        /* \"Contracts/VaultFactory.sol\":453:467  implementation */\n      immutable(\"0x253f1b147b4889852e9b1c570dd9d3e9c39aab5859e44f2ec74d7528f2f54a9d\")\n        /* \"Contracts/VaultFactory.sol\":440:452  Clones.clone */\n      tag_14\n        /* \"Contracts/VaultFactory.sol\":440:468  Clones.clone(implementation) */\n      jump\t// in\n    tag_13:\n        /* \"Contracts/VaultFactory.sol\":424:468  address clone = Clones.clone(implementation) */\n      swap1\n      pop\n        /* \"Contracts/VaultFactory.sol\":508:513  clone */\n      dup1\n        /* \"Contracts/VaultFactory.sol\":502:525  Vault(clone).initialize */\n      0xffffffffffffffffffffffffffffffffffffffff\n      and\n      0xc4d66de8\n        /* \"Contracts/VaultFactory.sol\":534:576  0xAb8483F64d9C6d1EcF9b849Ae677dD3315835cb2 */\n      0xab8483f64d9c6d1ecf9b849ae677dd3315835cb2\n        /* \"Contracts/VaultFactory.sol\":502:578  Vault(clone).initialize(address(0xAb8483F64d9C6d1EcF9b849Ae677dD3315835cb2)) */\n      mload(0x40)\n      dup3\n      0xffffffff\n      and\n      0xe0\n      shl\n      dup2\n      mstore\n      0x04\n      add\n      tag_15\n      swap2\n      swap1\n      tag_8\n      jump\t// in\n    tag_15:\n      0x00\n      mload(0x40)\n      dup1\n      dup4\n      sub\n      dup2\n      0x00\n      dup8\n      dup1\n      extcodesize\n      iszero\n      dup1\n      iszero\n      tag_16\n      jumpi\n      0x00\n      dup1\n      revert\n    tag_16:\n      pop\n      gas\n      call\n      iszero\n      dup1\n      iszero\n      tag_18\n      jumpi\n      returndatasize\n      0x00\n      dup1\n      returndatacopy\n      revert(0x00, returndatasize)\n    tag_18:\n      pop\n      pop\n      pop\n      pop\n        /* \"Contracts/VaultFactory.sol\":613:644  VaultCreated(clone, msg.sender) */\n      0x5d9c31ffa0fecffd7cf379989a3c7af252f0335e0d2a1320b55245912c781f53\n        /* \"Contracts/VaultFactory.sol\":626:631  clone */\n      dup2\n        /* \"Contracts/VaultFactory.sol\":633:643  msg.sender */\n      caller\n        /* \"Contracts/VaultFactory.sol\":613:644  VaultCreated(clone, msg.sender) */\n      mload(0x40)\n      tag_19\n      swap3\n      swap2\n      swap1\n      tag_20\n      jump\t// in\n    tag_19:\n      mload(0x40)\n      dup1\n      swap2\n      sub\n      swap1\n      log1\n        /* \"Contracts/VaultFactory.sol\":661:666  clone */\n      dup1\n        /* \"Contracts/VaultFactory.sol\":654:666  return clone */\n      swap2\n      pop\n      pop\n        /* \"Contracts/VaultFactory.sol\":364:673  function createVault() external returns (address) {... */\n      swap1\n      jump\t// out\n        /* \"@openzeppelin/contracts/proxy/Clones.sol\":1070:1193  function clone(address implementation) internal returns (address instance) {... */\n    tag_14:\n        /* \"@openzeppelin/contracts/proxy/Clones.sol\":1127:1143  address instance */\n      0x00\n        /* \"@openzeppelin/contracts/proxy/Clones.sol\":1162:1186  clone(implementation, 0) */\n      tag_22\n        /* \"@openzeppelin/contracts/proxy/Clones.sol\":1168:1182  implementation */\n      dup3\n        /* \"@openzeppelin/contracts/proxy/Clones.sol\":1184:1185  0 */\n      0x00\n        /* \"@openzeppelin/contracts/proxy/Clones.sol\":1162:1167  clone */\n      tag_23\n        /* \"@openzeppelin/contracts/proxy/Clones.sol\":1162:1186  clone(implementation, 0) */\n      jump\t// in\n    tag_22:\n        /* \"@openzeppelin/contracts/proxy/Clones.sol\":1155:1186  return clone(implementation, 0) */\n      swap1\n      pop\n        /* \"@openzeppelin/contracts/proxy/Clones.sol\":1070:1193  function clone(address implementation) internal returns (address instance) {... */\n      swap2\n      swap1\n      pop\n      jump\t// out\n        /* \"@openzeppelin/contracts/proxy/Clones.sol\":1585:2495  function clone(address implementation, uint256 value) internal returns (address instance) {... */\n    tag_23:\n        /* \"@openzeppelin/contracts/proxy/Clones.sol\":1657:1673  address instance */\n      0x00\n        /* \"@openzeppelin/contracts/proxy/Clones.sol\":1713:1718  value */\n      dup2\n        /* \"@openzeppelin/contracts/proxy/Clones.sol\":1689:1710  address(this).balance */\n      selfbalance\n        /* \"@openzeppelin/contracts/proxy/Clones.sol\":1689:1718  address(this).balance < value */\n      lt\n        /* \"@openzeppelin/contracts/proxy/Clones.sol\":1685:1808  if (address(this).balance < value) {... */\n      iszero\n      tag_25\n      jumpi\n        /* \"@openzeppelin/contracts/proxy/Clones.sol\":1768:1789  address(this).balance */\n      selfbalance\n        /* \"@openzeppelin/contracts/proxy/Clones.sol\":1791:1796  value */\n      dup3\n        /* \"@openzeppelin/contracts/proxy/Clones.sol\":1741:1797  Errors.InsufficientBalance(address(this).balance, value) */\n      mload(0x40)\n      0xcf47918100000000000000000000000000000000000000000000000000000000\n      dup2\n      mstore\n      0x04\n      add\n      tag_26\n      swap3\n      swap2\n      swap1\n      tag_27\n      jump\t// in\n    tag_26:\n      mload(0x40)\n      dup1\n      swap2\n      sub\n      swap1\n      revert\n        /* \"@openzeppelin/contracts/proxy/Clones.sol\":1685:1808  if (address(this).balance < value) {... */\n    tag_25:\n        /* \"@openzeppelin/contracts/proxy/Clones.sol\":2094:2142  0x3d602d80600a3d3981f3363d3d373d3d3d363d73000000 */\n      0x3d602d80600a3d3981f3363d3d373d3d3d363d73000000\n        /* \"@openzeppelin/contracts/proxy/Clones.sol\":2076:2090  implementation */\n      dup4\n        /* \"@openzeppelin/contracts/proxy/Clones.sol\":2070:2074  0x60 */\n      0x60\n        /* \"@openzeppelin/contracts/proxy/Clones.sol\":2066:2091  shl(0x60, implementation) */\n      shl\n        /* \"@openzeppelin/contracts/proxy/Clones.sol\":2060:2064  0xe8 */\n      0xe8\n        /* \"@openzeppelin/contracts/proxy/Clones.sol\":2056:2092  shr(0xe8, shl(0x60, implementation)) */\n      shr\n        /* \"@openzeppelin/contracts/proxy/Clones.sol\":2053:2143  or(shr(0xe8, shl(0x60, implementation)), 0x3d602d80600a3d3981f3363d3d373d3d3d363d73000000) */\n      or\n        /* \"@openzeppelin/contracts/proxy/Clones.sol\":2047:2051  0x00 */\n      0x00\n        /* \"@openzeppelin/contracts/proxy/Clones.sol\":2040:2144  mstore(0x00, or(shr(0xe8, shl(0x60, implementation)), 0x3d602d80600a3d3981f3363d3d373d3d3d363d73000000)) */\n      mstore\n        /* \"@openzeppelin/contracts/proxy/Clones.sol\":2301:2333  0x5af43d82803e903d91602b57fd5bf3 */\n      0x5af43d82803e903d91602b57fd5bf3\n        /* \"@openzeppelin/contracts/proxy/Clones.sol\":2284:2298  implementation */\n      dup4\n        /* \"@openzeppelin/contracts/proxy/Clones.sol\":2278:2282  0x78 */\n      0x78\n        /* \"@openzeppelin/contracts/proxy/Clones.sol\":2274:2299  shl(0x78, implementation) */\n      shl\n        /* \"@openzeppelin/contracts/proxy/Clones.sol\":2271:2334  or(shl(0x78, implementation), 0x5af43d82803e903d91602b57fd5bf3) */\n      or\n        /* \"@openzeppelin/contracts/proxy/Clones.sol\":2265:2269  0x20 */\n      0x20\n        /* \"@openzeppelin/contracts/proxy/Clones.sol\":2258:2335  mstore(0x20, or(shl(0x78, implementation), 0x5af43d82803e903d91602b57fd5bf3)) */\n      mstore\n        /* \"@openzeppelin/contracts/proxy/Clones.sol\":2380:2384  0x37 */\n      0x37\n        /* \"@openzeppelin/contracts/proxy/Clones.sol\":2374:2378  0x09 */\n      0x09\n        /* \"@openzeppelin/contracts/proxy/Clones.sol\":2367:2372  value */\n      dup4\n        /* \"@openzeppelin/contracts/proxy/Clones.sol\":2360:2385  create(value, 0x09, 0x37) */\n      create\n        /* \"@openzeppelin/contracts/proxy/Clones.sol\":2348:2385  instance := create(value, 0x09, 0x37) */\n      swap1\n      pop\n        /* \"@openzeppelin/contracts/proxy/Clones.sol\":2428:2429  0 */\n      0x00\n        /* \"@openzeppelin/contracts/proxy/Clones.sol\":2408:2430  instance == address(0) */\n      0xffffffffffffffffffffffffffffffffffffffff\n      and\n        /* \"@openzeppelin/contracts/proxy/Clones.sol\":2408:2416  instance */\n      dup2\n        /* \"@openzeppelin/contracts/proxy/Clones.sol\":2408:2430  instance == address(0) */\n      0xffffffffffffffffffffffffffffffffffffffff\n      and\n      sub\n        /* \"@openzeppelin/contracts/proxy/Clones.sol\":2404:2489  if (instance == address(0)) {... */\n      tag_28\n      jumpi\n        /* \"@openzeppelin/contracts/proxy/Clones.sol\":2453:2478  Errors.FailedDeployment() */\n      mload(0x40)\n      0xb06ebf3d00000000000000000000000000000000000000000000000000000000\n      dup2\n      mstore\n      0x04\n      add\n      mload(0x40)\n      dup1\n      swap2\n      sub\n      swap1\n      revert\n        /* \"@openzeppelin/contracts/proxy/Clones.sol\":2404:2489  if (instance == address(0)) {... */\n    tag_28:\n        /* \"@openzeppelin/contracts/proxy/Clones.sol\":1585:2495  function clone(address implementation, uint256 value) internal returns (address instance) {... */\n      swap3\n      swap2\n      pop\n      pop\n      jump\t// out\n        /* \"#utility.yul\":7:133   */\n    tag_29:\n        /* \"#utility.yul\":44:51   */\n      0x00\n        /* \"#utility.yul\":84:126   */\n      0xffffffffffffffffffffffffffffffffffffffff\n        /* \"#utility.yul\":77:82   */\n      dup3\n        /* \"#utility.yul\":73:127   */\n      and\n        /* \"#utility.yul\":62:127   */\n      swap1\n      pop\n        /* \"#utility.yul\":7:133   */\n      swap2\n      swap1\n      pop\n      jump\t// out\n        /* \"#utility.yul\":139:235   */\n    tag_30:\n        /* \"#utility.yul\":176:183   */\n      0x00\n        /* \"#utility.yul\":205:229   */\n      tag_37\n        /* \"#utility.yul\":223:228   */\n      dup3\n        /* \"#utility.yul\":205:229   */\n      tag_29\n      jump\t// in\n    tag_37:\n        /* \"#utility.yul\":194:229   */\n      swap1\n      pop\n        /* \"#utility.yul\":139:235   */\n      swap2\n      swap1\n      pop\n      jump\t// out\n        /* \"#utility.yul\":241:359   */\n    tag_31:\n        /* \"#utility.yul\":328:352   */\n      tag_39\n        /* \"#utility.yul\":346:351   */\n      dup2\n        /* \"#utility.yul\":328:352   */\n      tag_30\n      jump\t// in\n    tag_39:\n        /* \"#utility.yul\":323:326   */\n      dup3\n        /* \"#utility.yul\":316:353   */\n      mstore\n        /* \"#utility.yul\":241:359   */\n      pop\n      pop\n      jump\t// out\n        /* \"#utility.yul\":365:587   */\n    tag_8:\n        /* \"#utility.yul\":458:462   */\n      0x00\n        /* \"#utility.yul\":496:498   */\n      0x20\n        /* \"#utility.yul\":485:494   */\n      dup3\n        /* \"#utility.yul\":481:499   */\n      add\n        /* \"#utility.yul\":473:499   */\n      swap1\n      pop\n        /* \"#utility.yul\":509:580   */\n      tag_41\n        /* \"#utility.yul\":577:578   */\n      0x00\n        /* \"#utility.yul\":566:575   */\n      dup4\n        /* \"#utility.yul\":562:579   */\n      add\n        /* \"#utility.yul\":553:559   */\n      dup5\n        /* \"#utility.yul\":509:580   */\n      tag_31\n      jump\t// in\n    tag_41:\n        /* \"#utility.yul\":365:587   */\n      swap3\n      swap2\n      pop\n      pop\n      jump\t// out\n        /* \"#utility.yul\":593:925   */\n    tag_20:\n        /* \"#utility.yul\":714:718   */\n      0x00\n        /* \"#utility.yul\":752:754   */\n      0x40\n        /* \"#utility.yul\":741:750   */\n      dup3\n        /* \"#utility.yul\":737:755   */\n      add\n        /* \"#utility.yul\":729:755   */\n      swap1\n      pop\n        /* \"#utility.yul\":765:836   */\n      tag_43\n        /* \"#utility.yul\":833:834   */\n      0x00\n        /* \"#utility.yul\":822:831   */\n      dup4\n        /* \"#utility.yul\":818:835   */\n      add\n        /* \"#utility.yul\":809:815   */\n      dup6\n        /* \"#utility.yul\":765:836   */\n      tag_31\n      jump\t// in\n    tag_43:\n        /* \"#utility.yul\":846:918   */\n      tag_44\n        /* \"#utility.yul\":914:916   */\n      0x20\n        /* \"#utility.yul\":903:912   */\n      dup4\n        /* \"#utility.yul\":899:917   */\n      add\n        /* \"#utility.yul\":890:896   */\n      dup5\n        /* \"#utility.yul\":846:918   */\n      tag_31\n      jump\t// in\n    tag_44:\n        /* \"#utility.yul\":593:925   */\n      swap4\n      swap3\n      pop\n      pop\n      pop\n      jump\t// out\n        /* \"#utility.yul\":931:1008   */\n    tag_32:\n        /* \"#utility.yul\":968:975   */\n      0x00\n        /* \"#utility.yul\":997:1002   */\n      dup2\n        /* \"#utility.yul\":986:1002   */\n      swap1\n      pop\n        /* \"#utility.yul\":931:1008   */\n      swap2\n      swap1\n      pop\n      jump\t// out\n        /* \"#utility.yul\":1014:1132   */\n    tag_33:\n        /* \"#utility.yul\":1101:1125   */\n      tag_47\n        /* \"#utility.yul\":1119:1124   */\n      dup2\n        /* \"#utility.yul\":1101:1125   */\n      tag_32\n      jump\t// in\n    tag_47:\n        /* \"#utility.yul\":1096:1099   */\n      dup3\n        /* \"#utility.yul\":1089:1126   */\n      mstore\n        /* \"#utility.yul\":1014:1132   */\n      pop\n      pop\n      jump\t// out\n        /* \"#utility.yul\":1138:1470   */\n    tag_27:\n        /* \"#utility.yul\":1259:1263   */\n      0x00\n        /* \"#utility.yul\":1297:1299   */\n      0x40\n        /* \"#utility.yul\":1286:1295   */\n      dup3\n        /* \"#utility.yul\":1282:1300   */\n      add\n        /* \"#utility.yul\":1274:1300   */\n      swap1\n      pop\n        /* \"#utility.yul\":1310:1381   */\n      tag_49\n        /* \"#utility.yul\":1378:1379   */\n      0x00\n        /* \"#utility.yul\":1367:1376   */\n      dup4\n        /* \"#utility.yul\":1363:1380   */\n      add\n        /* \"#utility.yul\":1354:1360   */\n      dup6\n        /* \"#utility.yul\":1310:1381   */\n      tag_33\n      jump\t// in\n    tag_49:\n        /* \"#utility.yul\":1391:1463   */\n      tag_50\n        /* \"#utility.yul\":1459:1461   */\n      0x20\n        /* \"#utility.yul\":1448:1457   */\n      dup4\n        /* \"#utility.yul\":1444:1462   */\n      add\n        /* \"#utility.yul\":1435:1441   */\n      dup5\n        /* \"#utility.yul\":1391:1463   */\n      tag_33\n      jump\t// in\n    tag_50:\n        /* \"#utility.yul\":1138:1470   */\n      swap4\n      swap3\n      pop\n      pop\n      pop\n      jump\t// out\n\n    auxdata: 0xa2646970667358221220a57e50634c1aeab73c5934050ed75fe22320fd9f925df45ca66b72b489fa4ca564736f6c634300081a0033\n}\n\nsub_1: assembly {\n        /* \"Contracts/Vault.sol\":58:612  contract Vault {... */\n      mstore(0x40, 0x80)\n      callvalue\n      dup1\n      iszero\n      tag_1\n      jumpi\n      0x00\n      dup1\n      revert\n    tag_1:\n      pop\n      dataSize(sub_0)\n      dup1\n      dataOffset(sub_0)\n      0x00\n      codecopy\n      0x00\n      return\n    stop\n\n    sub_0: assembly {\n            /* \"Contracts/Vault.sol\":58:612  contract Vault {... */\n          mstore(0x40, 0x80)\n          jumpi(tag_1, lt(calldatasize, 0x04))\n          shr(0xe0, calldataload(0x00))\n          dup1\n          0x12065fe0\n          eq\n          tag_2\n          jumpi\n          dup1\n          0x8da5cb5b\n          eq\n          tag_3\n          jumpi\n          dup1\n          0xb69ef8a8\n          eq\n          tag_4\n          jumpi\n          dup1\n          0xc4d66de8\n          eq\n          tag_5\n          jumpi\n          dup1\n          0xd0e30db0\n          eq\n          tag_6\n          jumpi\n        tag_1:\n          0x00\n          dup1\n          revert\n            /* \"Contracts/Vault.sol\":519:604  function getBalance() external view returns (uint256) {... */\n        tag_2:\n          callvalue\n          dup1\n          iszero\n          tag_7\n          jumpi\n          0x00\n          dup1\n          revert\n        tag_7:\n          pop\n          tag_8\n          tag_9\n          jump\t// in\n        tag_8:\n          mload(0x40)\n          tag_10\n          swap2\n          swap1\n          tag_11\n          jump\t// in\n        tag_10:\n          mload(0x40)\n          dup1\n          swap2\n          sub\n          swap1\n          return\n            /* \"Contracts/Vault.sol\":79:99  address public owner */\n        tag_3:\n          callvalue\n          dup1\n          iszero\n          tag_12\n          jumpi\n          0x00\n          dup1\n          revert\n        tag_12:\n          pop\n          tag_13\n          tag_14\n          jump\t// in\n        tag_13:\n          mload(0x40)\n          tag_15\n          swap2\n          swap1\n          tag_16\n          jump\t// in\n        tag_15:\n          mload(0x40)\n          dup1\n          swap2\n          sub\n          swap1\n          return\n            /* \"Contracts/Vault.sol\":105:127  uint256 public balance */\n        tag_4:\n          callvalue\n          dup1\n          iszero\n          tag_17\n          jumpi\n          0x00\n          dup1\n          revert\n        tag_17:\n          pop\n          tag_18\n          tag_19\n          jump\t// in\n        tag_18:\n          mload(0x40)\n          tag_20\n          swap2\n          swap1\n          tag_11\n          jump\t// in\n        tag_20:\n          mload(0x40)\n          dup1\n          swap2\n          sub\n          swap1\n          return\n            /* \"Contracts/Vault.sol\":186:323  function initialize(address _owner) external {... */\n        tag_5:\n          callvalue\n          dup1\n          iszero\n          tag_21\n          jumpi\n          0x00\n          dup1\n          revert\n        tag_21:\n          pop\n          tag_22\n          0x04\n          dup1\n          calldatasize\n          sub\n          dup2\n          add\n          swap1\n          tag_23\n          swap2\n          swap1\n          tag_24\n          jump\t// in\n        tag_23:\n          tag_25\n          jump\t// in\n        tag_22:\n          stop\n            /* \"Contracts/Vault.sol\":329:513  function deposit() external payable {... */\n        tag_6:\n          tag_26\n          tag_27\n          jump\t// in\n        tag_26:\n          stop\n            /* \"Contracts/Vault.sol\":519:604  function getBalance() external view returns (uint256) {... */\n        tag_9:\n            /* \"Contracts/Vault.sol\":564:571  uint256 */\n          0x00\n            /* \"Contracts/Vault.sol\":590:597  balance */\n          sload(0x01)\n            /* \"Contracts/Vault.sol\":583:597  return balance */\n          swap1\n          pop\n            /* \"Contracts/Vault.sol\":519:604  function getBalance() external view returns (uint256) {... */\n          swap1\n          jump\t// out\n            /* \"Contracts/Vault.sol\":79:99  address public owner */\n        tag_14:\n          0x00\n          dup1\n          sload\n          swap1\n          0x0100\n          exp\n          swap1\n          div\n          0xffffffffffffffffffffffffffffffffffffffff\n          and\n          dup2\n          jump\t// out\n            /* \"Contracts/Vault.sol\":105:127  uint256 public balance */\n        tag_19:\n          sload(0x01)\n          dup2\n          jump\t// out\n            /* \"Contracts/Vault.sol\":186:323  function initialize(address _owner) external {... */\n        tag_25:\n            /* \"Contracts/Vault.sol\":266:267  0 */\n          0x00\n            /* \"Contracts/Vault.sol\":249:268  owner == address(0) */\n          0xffffffffffffffffffffffffffffffffffffffff\n          and\n            /* \"Contracts/Vault.sol\":249:254  owner */\n          0x00\n          dup1\n          sload\n          swap1\n          0x0100\n          exp\n          swap1\n          div\n          0xffffffffffffffffffffffffffffffffffffffff\n          and\n            /* \"Contracts/Vault.sol\":249:268  owner == address(0) */\n          0xffffffffffffffffffffffffffffffffffffffff\n          and\n          eq\n            /* \"Contracts/Vault.sol\":241:292  require(owner == address(0), \"Already initialized\") */\n          tag_30\n          jumpi\n          mload(0x40)\n          0x08c379a000000000000000000000000000000000000000000000000000000000\n          dup2\n          mstore\n          0x04\n          add\n          tag_31\n          swap1\n          tag_32\n          jump\t// in\n        tag_31:\n          mload(0x40)\n          dup1\n          swap2\n          sub\n          swap1\n          revert\n        tag_30:\n            /* \"Contracts/Vault.sol\":310:316  _owner */\n          dup1\n            /* \"Contracts/Vault.sol\":302:307  owner */\n          0x00\n          dup1\n            /* \"Contracts/Vault.sol\":302:316  owner = _owner */\n          0x0100\n          exp\n          dup2\n          sload\n          dup2\n          0xffffffffffffffffffffffffffffffffffffffff\n          mul\n          not\n          and\n          swap1\n          dup4\n          0xffffffffffffffffffffffffffffffffffffffff\n          and\n          mul\n          or\n          swap1\n          sstore\n          pop\n            /* \"Contracts/Vault.sol\":186:323  function initialize(address _owner) external {... */\n          pop\n          jump\t// out\n            /* \"Contracts/Vault.sol\":329:513  function deposit() external payable {... */\n        tag_27:\n            /* \"Contracts/Vault.sol\":397:402  owner */\n          0x00\n          dup1\n          sload\n          swap1\n          0x0100\n          exp\n          swap1\n          div\n          0xffffffffffffffffffffffffffffffffffffffff\n          and\n            /* \"Contracts/Vault.sol\":383:402  msg.sender == owner */\n          0xffffffffffffffffffffffffffffffffffffffff\n          and\n            /* \"Contracts/Vault.sol\":383:393  msg.sender */\n          caller\n            /* \"Contracts/Vault.sol\":383:402  msg.sender == owner */\n          0xffffffffffffffffffffffffffffffffffffffff\n          and\n          eq\n            /* \"Contracts/Vault.sol\":375:429  require(msg.sender == owner, \"Only owner can deposit\") */\n          tag_34\n          jumpi\n          mload(0x40)\n          0x08c379a000000000000000000000000000000000000000000000000000000000\n          dup2\n          mstore\n          0x04\n          add\n          tag_35\n          swap1\n          tag_36\n          jump\t// in\n        tag_35:\n          mload(0x40)\n          dup1\n          swap2\n          sub\n          swap1\n          revert\n        tag_34:\n            /* \"Contracts/Vault.sol\":450:459  msg.value */\n          callvalue\n            /* \"Contracts/Vault.sol\":439:446  balance */\n          0x01\n          0x00\n            /* \"Contracts/Vault.sol\":439:459  balance += msg.value */\n          dup3\n          dup3\n          sload\n          tag_37\n          swap2\n          swap1\n          tag_38\n          jump\t// in\n        tag_37:\n          swap3\n          pop\n          pop\n          dup2\n          swap1\n          sstore\n          pop\n            /* \"Contracts/Vault.sol\":474:506  Deposited(msg.sender, msg.value) */\n          0x2da466a7b24304f47e87fa2e1e5a81b9831ce54fec19055ce277ca2f39ba42c4\n            /* \"Contracts/Vault.sol\":484:494  msg.sender */\n          caller\n            /* \"Contracts/Vault.sol\":496:505  msg.value */\n          callvalue\n            /* \"Contracts/Vault.sol\":474:506  Deposited(msg.sender, msg.value) */\n          mload(0x40)\n          tag_39\n          swap3\n          swap2\n          swap1\n          tag_40\n          jump\t// in\n        tag_39:\n          mload(0x40)\n          dup1\n          swap2\n          sub\n          swap1\n          log1\n            /* \"Contracts/Vault.sol\":329:513  function deposit() external payable {... */\n          jump\t// out\n            /* \"#utility.yul\":7:84   */\n        tag_41:\n            /* \"#utility.yul\":44:51   */\n          0x00\n            /* \"#utility.yul\":73:78   */\n          dup2\n            /* \"#utility.yul\":62:78   */\n          swap1\n          pop\n            /* \"#utility.yul\":7:84   */\n          swap2\n          swap1\n          pop\n          jump\t// out\n            /* \"#utility.yul\":90:208   */\n        tag_42:\n            /* \"#utility.yul\":177:201   */\n          tag_60\n            /* \"#utility.yul\":195:200   */\n          dup2\n            /* \"#utility.yul\":177:201   */\n          tag_41\n          jump\t// in\n        tag_60:\n            /* \"#utility.yul\":172:175   */\n          dup3\n            /* \"#utility.yul\":165:202   */\n          mstore\n            /* \"#utility.yul\":90:208   */\n          pop\n          pop\n          jump\t// out\n            /* \"#utility.yul\":214:436   */\n        tag_11:\n            /* \"#utility.yul\":307:311   */\n          0x00\n            /* \"#utility.yul\":345:347   */\n          0x20\n            /* \"#utility.yul\":334:343   */\n          dup3\n            /* \"#utility.yul\":330:348   */\n          add\n            /* \"#utility.yul\":322:348   */\n          swap1\n          pop\n            /* \"#utility.yul\":358:429   */\n          tag_62\n            /* \"#utility.yul\":426:427   */\n          0x00\n            /* \"#utility.yul\":415:424   */\n          dup4\n            /* \"#utility.yul\":411:428   */\n          add\n            /* \"#utility.yul\":402:408   */\n          dup5\n            /* \"#utility.yul\":358:429   */\n          tag_42\n          jump\t// in\n        tag_62:\n            /* \"#utility.yul\":214:436   */\n          swap3\n          swap2\n          pop\n          pop\n          jump\t// out\n            /* \"#utility.yul\":442:568   */\n        tag_43:\n            /* \"#utility.yul\":479:486   */\n          0x00\n            /* \"#utility.yul\":519:561   */\n          0xffffffffffffffffffffffffffffffffffffffff\n            /* \"#utility.yul\":512:517   */\n          dup3\n            /* \"#utility.yul\":508:562   */\n          and\n            /* \"#utility.yul\":497:562   */\n          swap1\n          pop\n            /* \"#utility.yul\":442:568   */\n          swap2\n          swap1\n          pop\n          jump\t// out\n            /* \"#utility.yul\":574:670   */\n        tag_44:\n            /* \"#utility.yul\":611:618   */\n          0x00\n            /* \"#utility.yul\":640:664   */\n          tag_65\n            /* \"#utility.yul\":658:663   */\n          dup3\n            /* \"#utility.yul\":640:664   */\n          tag_43\n          jump\t// in\n        tag_65:\n            /* \"#utility.yul\":629:664   */\n          swap1\n          pop\n            /* \"#utility.yul\":574:670   */\n          swap2\n          swap1\n          pop\n          jump\t// out\n            /* \"#utility.yul\":676:794   */\n        tag_45:\n            /* \"#utility.yul\":763:787   */\n          tag_67\n            /* \"#utility.yul\":781:786   */\n          dup2\n            /* \"#utility.yul\":763:787   */\n          tag_44\n          jump\t// in\n        tag_67:\n            /* \"#utility.yul\":758:761   */\n          dup3\n            /* \"#utility.yul\":751:788   */\n          mstore\n            /* \"#utility.yul\":676:794   */\n          pop\n          pop\n          jump\t// out\n            /* \"#utility.yul\":800:1022   */\n        tag_16:\n            /* \"#utility.yul\":893:897   */\n          0x00\n            /* \"#utility.yul\":931:933   */\n          0x20\n            /* \"#utility.yul\":920:929   */\n          dup3\n            /* \"#utility.yul\":916:934   */\n          add\n            /* \"#utility.yul\":908:934   */\n          swap1\n          pop\n            /* \"#utility.yul\":944:1015   */\n          tag_69\n            /* \"#utility.yul\":1012:1013   */\n          0x00\n            /* \"#utility.yul\":1001:1010   */\n          dup4\n            /* \"#utility.yul\":997:1014   */\n          add\n            /* \"#utility.yul\":988:994   */\n          dup5\n            /* \"#utility.yul\":944:1015   */\n          tag_45\n          jump\t// in\n        tag_69:\n            /* \"#utility.yul\":800:1022   */\n          swap3\n          swap2\n          pop\n          pop\n          jump\t// out\n            /* \"#utility.yul\":1109:1226   */\n        tag_47:\n            /* \"#utility.yul\":1218:1219   */\n          0x00\n            /* \"#utility.yul\":1215:1216   */\n          dup1\n            /* \"#utility.yul\":1208:1220   */\n          revert\n            /* \"#utility.yul\":1355:1477   */\n        tag_49:\n            /* \"#utility.yul\":1428:1452   */\n          tag_74\n            /* \"#utility.yul\":1446:1451   */\n          dup2\n            /* \"#utility.yul\":1428:1452   */\n          tag_44\n          jump\t// in\n        tag_74:\n            /* \"#utility.yul\":1421:1426   */\n          dup2\n            /* \"#utility.yul\":1418:1453   */\n          eq\n            /* \"#utility.yul\":1408:1471   */\n          tag_75\n          jumpi\n            /* \"#utility.yul\":1467:1468   */\n          0x00\n            /* \"#utility.yul\":1464:1465   */\n          dup1\n            /* \"#utility.yul\":1457:1469   */\n          revert\n            /* \"#utility.yul\":1408:1471   */\n        tag_75:\n            /* \"#utility.yul\":1355:1477   */\n          pop\n          jump\t// out\n            /* \"#utility.yul\":1483:1622   */\n        tag_50:\n            /* \"#utility.yul\":1529:1534   */\n          0x00\n            /* \"#utility.yul\":1567:1573   */\n          dup2\n            /* \"#utility.yul\":1554:1574   */\n          calldataload\n            /* \"#utility.yul\":1545:1574   */\n          swap1\n          pop\n            /* \"#utility.yul\":1583:1616   */\n          tag_77\n            /* \"#utility.yul\":1610:1615   */\n          dup2\n            /* \"#utility.yul\":1583:1616   */\n          tag_49\n          jump\t// in\n        tag_77:\n            /* \"#utility.yul\":1483:1622   */\n          swap3\n          swap2\n          pop\n          pop\n          jump\t// out\n            /* \"#utility.yul\":1628:1957   */\n        tag_24:\n            /* \"#utility.yul\":1687:1693   */\n          0x00\n            /* \"#utility.yul\":1736:1738   */\n          0x20\n            /* \"#utility.yul\":1724:1733   */\n          dup3\n            /* \"#utility.yul\":1715:1722   */\n          dup5\n            /* \"#utility.yul\":1711:1734   */\n          sub\n            /* \"#utility.yul\":1707:1739   */\n          slt\n            /* \"#utility.yul\":1704:1823   */\n          iszero\n          tag_79\n          jumpi\n            /* \"#utility.yul\":1742:1821   */\n          tag_80\n          tag_47\n          jump\t// in\n        tag_80:\n            /* \"#utility.yul\":1704:1823   */\n        tag_79:\n            /* \"#utility.yul\":1862:1863   */\n          0x00\n            /* \"#utility.yul\":1887:1940   */\n          tag_81\n            /* \"#utility.yul\":1932:1939   */\n          dup5\n            /* \"#utility.yul\":1923:1929   */\n          dup3\n            /* \"#utility.yul\":1912:1921   */\n          dup6\n            /* \"#utility.yul\":1908:1930   */\n          add\n            /* \"#utility.yul\":1887:1940   */\n          tag_50\n          jump\t// in\n        tag_81:\n            /* \"#utility.yul\":1877:1940   */\n          swap2\n          pop\n            /* \"#utility.yul\":1833:1950   */\n          pop\n            /* \"#utility.yul\":1628:1957   */\n          swap3\n          swap2\n          pop\n          pop\n          jump\t// out\n            /* \"#utility.yul\":1963:2132   */\n        tag_51:\n            /* \"#utility.yul\":2047:2058   */\n          0x00\n            /* \"#utility.yul\":2081:2087   */\n          dup3\n            /* \"#utility.yul\":2076:2079   */\n          dup3\n            /* \"#utility.yul\":2069:2088   */\n          mstore\n            /* \"#utility.yul\":2121:2125   */\n          0x20\n            /* \"#utility.yul\":2116:2119   */\n          dup3\n            /* \"#utility.yul\":2112:2126   */\n          add\n            /* \"#utility.yul\":2097:2126   */\n          swap1\n          pop\n            /* \"#utility.yul\":1963:2132   */\n          swap3\n          swap2\n          pop\n          pop\n          jump\t// out\n            /* \"#utility.yul\":2138:2307   */\n        tag_52:\n            /* \"#utility.yul\":2278:2299   */\n          0x416c726561647920696e697469616c697a656400000000000000000000000000\n            /* \"#utility.yul\":2274:2275   */\n          0x00\n            /* \"#utility.yul\":2266:2272   */\n          dup3\n            /* \"#utility.yul\":2262:2276   */\n          add\n            /* \"#utility.yul\":2255:2300   */\n          mstore\n            /* \"#utility.yul\":2138:2307   */\n          pop\n          jump\t// out\n            /* \"#utility.yul\":2313:2679   */\n        tag_53:\n            /* \"#utility.yul\":2455:2458   */\n          0x00\n            /* \"#utility.yul\":2476:2543   */\n          tag_85\n            /* \"#utility.yul\":2540:2542   */\n          0x13\n            /* \"#utility.yul\":2535:2538   */\n          dup4\n            /* \"#utility.yul\":2476:2543   */\n          tag_51\n          jump\t// in\n        tag_85:\n            /* \"#utility.yul\":2469:2543   */\n          swap2\n          pop\n            /* \"#utility.yul\":2552:2645   */\n          tag_86\n            /* \"#utility.yul\":2641:2644   */\n          dup3\n            /* \"#utility.yul\":2552:2645   */\n          tag_52\n          jump\t// in\n        tag_86:\n            /* \"#utility.yul\":2670:2672   */\n          0x20\n            /* \"#utility.yul\":2665:2668   */\n          dup3\n            /* \"#utility.yul\":2661:2673   */\n          add\n            /* \"#utility.yul\":2654:2673   */\n          swap1\n          pop\n            /* \"#utility.yul\":2313:2679   */\n          swap2\n          swap1\n          pop\n          jump\t// out\n            /* \"#utility.yul\":2685:3104   */\n        tag_32:\n            /* \"#utility.yul\":2851:2855   */\n          0x00\n            /* \"#utility.yul\":2889:2891   */\n          0x20\n            /* \"#utility.yul\":2878:2887   */\n          dup3\n            /* \"#utility.yul\":2874:2892   */\n          add\n            /* \"#utility.yul\":2866:2892   */\n          swap1\n          pop\n            /* \"#utility.yul\":2938:2947   */\n          dup2\n            /* \"#utility.yul\":2932:2936   */\n          dup2\n            /* \"#utility.yul\":2928:2948   */\n          sub\n            /* \"#utility.yul\":2924:2925   */\n          0x00\n            /* \"#utility.yul\":2913:2922   */\n          dup4\n            /* \"#utility.yul\":2909:2926   */\n          add\n            /* \"#utility.yul\":2902:2949   */\n          mstore\n            /* \"#utility.yul\":2966:3097   */\n          tag_88\n            /* \"#utility.yul\":3092:3096   */\n          dup2\n            /* \"#utility.yul\":2966:3097   */\n          tag_53\n          jump\t// in\n        tag_88:\n            /* \"#utility.yul\":2958:3097   */\n          swap1\n          pop\n            /* \"#utility.yul\":2685:3104   */\n          swap2\n          swap1\n          pop\n          jump\t// out\n            /* \"#utility.yul\":3110:3282   */\n        tag_54:\n            /* \"#utility.yul\":3250:3274   */\n          0x4f6e6c79206f776e65722063616e206465706f73697400000000000000000000\n            /* \"#utility.yul\":3246:3247   */\n          0x00\n            /* \"#utility.yul\":3238:3244   */\n          dup3\n            /* \"#utility.yul\":3234:3248   */\n          add\n            /* \"#utility.yul\":3227:3275   */\n          mstore\n            /* \"#utility.yul\":3110:3282   */\n          pop\n          jump\t// out\n            /* \"#utility.yul\":3288:3654   */\n        tag_55:\n            /* \"#utility.yul\":3430:3433   */\n          0x00\n            /* \"#utility.yul\":3451:3518   */\n          tag_91\n            /* \"#utility.yul\":3515:3517   */\n          0x16\n            /* \"#utility.yul\":3510:3513   */\n          dup4\n            /* \"#utility.yul\":3451:3518   */\n          tag_51\n          jump\t// in\n        tag_91:\n            /* \"#utility.yul\":3444:3518   */\n          swap2\n          pop\n            /* \"#utility.yul\":3527:3620   */\n          tag_92\n            /* \"#utility.yul\":3616:3619   */\n          dup3\n            /* \"#utility.yul\":3527:3620   */\n          tag_54\n          jump\t// in\n        tag_92:\n            /* \"#utility.yul\":3645:3647   */\n          0x20\n            /* \"#utility.yul\":3640:3643   */\n          dup3\n            /* \"#utility.yul\":3636:3648   */\n          add\n            /* \"#utility.yul\":3629:3648   */\n          swap1\n          pop\n            /* \"#utility.yul\":3288:3654   */\n          swap2\n          swap1\n          pop\n          jump\t// out\n            /* \"#utility.yul\":3660:4079   */\n        tag_36:\n            /* \"#utility.yul\":3826:3830   */\n          0x00\n            /* \"#utility.yul\":3864:3866   */\n          0x20\n            /* \"#utility.yul\":3853:3862   */\n          dup3\n            /* \"#utility.yul\":3849:3867   */\n          add\n            /* \"#utility.yul\":3841:3867   */\n          swap1\n          pop\n            /* \"#utility.yul\":3913:3922   */\n          dup2\n            /* \"#utility.yul\":3907:3911   */\n          dup2\n            /* \"#utility.yul\":3903:3923   */\n          sub\n            /* \"#utility.yul\":3899:3900   */\n          0x00\n            /* \"#utility.yul\":3888:3897   */\n          dup4\n            /* \"#utility.yul\":3884:3901   */\n          add\n            /* \"#utility.yul\":3877:3924   */\n          mstore\n            /* \"#utility.yul\":3941:4072   */\n          tag_94\n            /* \"#utility.yul\":4067:4071   */\n          dup2\n            /* \"#utility.yul\":3941:4072   */\n          tag_55\n          jump\t// in\n        tag_94:\n            /* \"#utility.yul\":3933:4072   */\n          swap1\n          pop\n            /* \"#utility.yul\":3660:4079   */\n          swap2\n          swap1\n          pop\n          jump\t// out\n            /* \"#utility.yul\":4085:4265   */\n        tag_56:\n            /* \"#utility.yul\":4133:4210   */\n          0x4e487b7100000000000000000000000000000000000000000000000000000000\n            /* \"#utility.yul\":4130:4131   */\n          0x00\n            /* \"#utility.yul\":4123:4211   */\n          mstore\n            /* \"#utility.yul\":4230:4234   */\n          0x11\n            /* \"#utility.yul\":4227:4228   */\n          0x04\n            /* \"#utility.yul\":4220:4235   */\n          mstore\n            /* \"#utility.yul\":4254:4258   */\n          0x24\n            /* \"#utility.yul\":4251:4252   */\n          0x00\n            /* \"#utility.yul\":4244:4259   */\n          revert\n            /* \"#utility.yul\":4271:4462   */\n        tag_38:\n            /* \"#utility.yul\":4311:4314   */\n          0x00\n            /* \"#utility.yul\":4330:4350   */\n          tag_97\n            /* \"#utility.yul\":4348:4349   */\n          dup3\n            /* \"#utility.yul\":4330:4350   */\n          tag_41\n          jump\t// in\n        tag_97:\n            /* \"#utility.yul\":4325:4350   */\n          swap2\n          pop\n            /* \"#utility.yul\":4364:4384   */\n          tag_98\n            /* \"#utility.yul\":4382:4383   */\n          dup4\n            /* \"#utility.yul\":4364:4384   */\n          tag_41\n          jump\t// in\n        tag_98:\n            /* \"#utility.yul\":4359:4384   */\n          swap3\n          pop\n            /* \"#utility.yul\":4407:4408   */\n          dup3\n            /* \"#utility.yul\":4404:4405   */\n          dup3\n            /* \"#utility.yul\":4400:4409   */\n          add\n            /* \"#utility.yul\":4393:4409   */\n          swap1\n          pop\n            /* \"#utility.yul\":4428:4431   */\n          dup1\n            /* \"#utility.yul\":4425:4426   */\n          dup3\n            /* \"#utility.yul\":4422:4432   */\n          gt\n            /* \"#utility.yul\":4419:4455   */\n          iszero\n          tag_99\n          jumpi\n            /* \"#utility.yul\":4435:4453   */\n          tag_100\n          tag_56\n          jump\t// in\n        tag_100:\n            /* \"#utility.yul\":4419:4455   */\n        tag_99:\n            /* \"#utility.yul\":4271:4462   */\n          swap3\n          swap2\n          pop\n          pop\n          jump\t// out\n            /* \"#utility.yul\":4468:4800   */\n        tag_40:\n            /* \"#utility.yul\":4589:4593   */\n          0x00\n            /* \"#utility.yul\":4627:4629   */\n          0x40\n            /* \"#utility.yul\":4616:4625   */\n          dup3\n            /* \"#utility.yul\":4612:4630   */\n          add\n            /* \"#utility.yul\":4604:4630   */\n          swap1\n          pop\n            /* \"#utility.yul\":4640:4711   */\n          tag_102\n            /* \"#utility.yul\":4708:4709   */\n          0x00\n            /* \"#utility.yul\":4697:4706   */\n          dup4\n            /* \"#utility.yul\":4693:4710   */\n          add\n            /* \"#utility.yul\":4684:4690   */\n          dup6\n            /* \"#utility.yul\":4640:4711   */\n          tag_45\n          jump\t// in\n        tag_102:\n            /* \"#utility.yul\":4721:4793   */\n          tag_103\n            /* \"#utility.yul\":4789:4791   */\n          0x20\n            /* \"#utility.yul\":4778:4787   */\n          dup4\n            /* \"#utility.yul\":4774:4792   */\n          add\n            /* \"#utility.yul\":4765:4771   */\n          dup5\n            /* \"#utility.yul\":4721:4793   */\n          tag_42\n          jump\t// in\n        tag_103:\n            /* \"#utility.yul\":4468:4800   */\n          swap4\n          swap3\n          pop\n          pop\n          pop\n          jump\t// out\n\n        auxdata: 0xa2646970667358221220cd684d7c73adb53c6e4bcf47c1202a304093b7072894771eea58aaa8813ff21064736f6c634300081a0033\n    }\n}\n",
				"bytecode": {
					"linkReferences": {},
					"object": "60a0604052348015600e575f80fd5b506040516019906069565b604051809103905ff0801580156031573d5f803e3d5ffd5b5073ffffffffffffffffffffffffffffffffffffffff1660808173ffffffffffffffffffffffffffffffffffffffff16815250506076565b6105798061040d83390190565b60805161037a6100935f395f818160760152609f015261037a5ff3fe608060405234801561000f575f80fd5b5060043610610034575f3560e01c80635c60da1b146100385780635d12928b14610056575b5f80fd5b610040610074565b60405161004d91906102c5565b60405180910390f35b61005e610098565b60405161006b91906102c5565b60405180910390f35b7f000000000000000000000000000000000000000000000000000000000000000081565b5f806100c37f000000000000000000000000000000000000000000000000000000000000000061017f565b90508073ffffffffffffffffffffffffffffffffffffffff1663c4d66de873ab8483f64d9c6d1ecf9b849ae677dd3315835cb26040518263ffffffff1660e01b815260040161011291906102c5565b5f604051808303815f87803b158015610129575f80fd5b505af115801561013b573d5f803e3d5ffd5b505050507f5d9c31ffa0fecffd7cf379989a3c7af252f0335e0d2a1320b55245912c781f5381336040516101709291906102de565b60405180910390a18091505090565b5f61018a825f610191565b9050919050565b5f814710156101d95747826040517fcf4791810000000000000000000000000000000000000000000000000000000081526004016101d092919061031d565b60405180910390fd5b763d602d80600a3d3981f3363d3d373d3d3d363d730000008360601b60e81c175f526e5af43d82803e903d91602b57fd5bf38360781b176020526037600983f090505f73ffffffffffffffffffffffffffffffffffffffff168173ffffffffffffffffffffffffffffffffffffffff1603610280576040517fb06ebf3d00000000000000000000000000000000000000000000000000000000815260040160405180910390fd5b92915050565b5f73ffffffffffffffffffffffffffffffffffffffff82169050919050565b5f6102af82610286565b9050919050565b6102bf816102a5565b82525050565b5f6020820190506102d85f8301846102b6565b92915050565b5f6040820190506102f15f8301856102b6565b6102fe60208301846102b6565b9392505050565b5f819050919050565b61031781610305565b82525050565b5f6040820190506103305f83018561030e565b61033d602083018461030e565b939250505056fea2646970667358221220a57e50634c1aeab73c5934050ed75fe22320fd9f925df45ca66b72b489fa4ca564736f6c634300081a00336080604052348015600e575f80fd5b5061055d8061001c5f395ff3fe608060405260043610610049575f3560e01c806312065fe01461004d5780638da5cb5b14610077578063b69ef8a8146100a1578063c4d66de8146100cb578063d0e30db0146100f3575b5f80fd5b348015610058575f80fd5b506100616100fd565b60405161006e91906102f6565b60405180910390f35b348015610082575f80fd5b5061008b610106565b604051610098919061034e565b60405180910390f35b3480156100ac575f80fd5b506100b5610129565b6040516100c291906102f6565b60405180910390f35b3480156100d6575f80fd5b506100f160048036038101906100ec9190610395565b61012f565b005b6100fb6101fe565b005b5f600154905090565b5f8054906101000a900473ffffffffffffffffffffffffffffffffffffffff1681565b60015481565b5f73ffffffffffffffffffffffffffffffffffffffff165f8054906101000a900473ffffffffffffffffffffffffffffffffffffffff1673ffffffffffffffffffffffffffffffffffffffff16146101bc576040517f08c379a00000000000000000000000000000000000000000000000000000000081526004016101b39061041a565b60405180910390fd5b805f806101000a81548173ffffffffffffffffffffffffffffffffffffffff021916908373ffffffffffffffffffffffffffffffffffffffff16021790555050565b5f8054906101000a900473ffffffffffffffffffffffffffffffffffffffff1673ffffffffffffffffffffffffffffffffffffffff163373ffffffffffffffffffffffffffffffffffffffff161461028b576040517f08c379a000000000000000000000000000000000000000000000000000000000815260040161028290610482565b60405180910390fd5b3460015f82825461029c91906104cd565b925050819055507f2da466a7b24304f47e87fa2e1e5a81b9831ce54fec19055ce277ca2f39ba42c433346040516102d4929190610500565b60405180910390a1565b5f819050919050565b6102f0816102de565b82525050565b5f6020820190506103095f8301846102e7565b92915050565b5f73ffffffffffffffffffffffffffffffffffffffff82169050919050565b5f6103388261030f565b9050919050565b6103488161032e565b82525050565b5f6020820190506103615f83018461033f565b92915050565b5f80fd5b6103748161032e565b811461037e575f80fd5b50565b5f8135905061038f8161036b565b92915050565b5f602082840312156103aa576103a9610367565b5b5f6103b784828501610381565b91505092915050565b5f82825260208201905092915050565b7f416c726561647920696e697469616c697a6564000000000000000000000000005f82015250565b5f6104046013836103c0565b915061040f826103d0565b602082019050919050565b5f6020820190508181035f830152610431816103f8565b9050919050565b7f4f6e6c79206f776e65722063616e206465706f736974000000000000000000005f82015250565b5f61046c6016836103c0565b915061047782610438565b602082019050919050565b5f6020820190508181035f83015261049981610460565b9050919050565b7f4e487b71000000000000000000000000000000000000000000000000000000005f52601160045260245ffd5b5f6104d7826102de565b91506104e2836102de565b92508282019050808211156104fa576104f96104a0565b5b92915050565b5f6040820190506105135f83018561033f565b61052060208301846102e7565b939250505056fea2646970667358221220cd684d7c73adb53c6e4bcf47c1202a304093b7072894771eea58aaa8813ff21064736f6c634300081a0033",
					"opcodes": "PUSH1 0xA0 PUSH1 0x40 MSTORE CALLVALUE DUP1 ISZERO PUSH1 0xE JUMPI PUSH0 DUP1 REVERT JUMPDEST POP PUSH1 0x40 MLOAD PUSH1 0x19 SWAP1 PUSH1 0x69 JUMP JUMPDEST PUSH1 0x40 MLOAD DUP1 SWAP2 SUB SWAP1 PUSH0 CREATE DUP1 ISZERO DUP1 ISZERO PUSH1 0x31 JUMPI RETURNDATASIZE PUSH0 DUP1 RETURNDATACOPY RETURNDATASIZE PUSH0 REVERT JUMPDEST POP PUSH20 0xFFFFFFFFFFFFFFFFFFFFFFFFFFFFFFFFFFFFFFFF AND PUSH1 0x80 DUP2 PUSH20 0xFFFFFFFFFFFFFFFFFFFFFFFFFFFFFFFFFFFFFFFF AND DUP2 MSTORE POP POP PUSH1 0x76 JUMP JUMPDEST PUSH2 0x579 DUP1 PUSH2 0x40D DUP4 CODECOPY ADD SWAP1 JUMP JUMPDEST PUSH1 0x80 MLOAD PUSH2 0x37A PUSH2 0x93 PUSH0 CODECOPY PUSH0 DUP2 DUP2 PUSH1 0x76 ADD MSTORE PUSH1 0x9F ADD MSTORE PUSH2 0x37A PUSH0 RETURN INVALID PUSH1 0x80 PUSH1 0x40 MSTORE CALLVALUE DUP1 ISZERO PUSH2 0xF JUMPI PUSH0 DUP1 REVERT JUMPDEST POP PUSH1 0x4 CALLDATASIZE LT PUSH2 0x34 JUMPI PUSH0 CALLDATALOAD PUSH1 0xE0 SHR DUP1 PUSH4 0x5C60DA1B EQ PUSH2 0x38 JUMPI DUP1 PUSH4 0x5D12928B EQ PUSH2 0x56 JUMPI JUMPDEST PUSH0 DUP1 REVERT JUMPDEST PUSH2 0x40 PUSH2 0x74 JUMP JUMPDEST PUSH1 0x40 MLOAD PUSH2 0x4D SWAP2 SWAP1 PUSH2 0x2C5 JUMP JUMPDEST PUSH1 0x40 MLOAD DUP1 SWAP2 SUB SWAP1 RETURN JUMPDEST PUSH2 0x5E PUSH2 0x98 JUMP JUMPDEST PUSH1 0x40 MLOAD PUSH2 0x6B SWAP2 SWAP1 PUSH2 0x2C5 JUMP JUMPDEST PUSH1 0x40 MLOAD DUP1 SWAP2 SUB SWAP1 RETURN JUMPDEST PUSH32 0x0 DUP2 JUMP JUMPDEST PUSH0 DUP1 PUSH2 0xC3 PUSH32 0x0 PUSH2 0x17F JUMP JUMPDEST SWAP1 POP DUP1 PUSH20 0xFFFFFFFFFFFFFFFFFFFFFFFFFFFFFFFFFFFFFFFF AND PUSH4 0xC4D66DE8 PUSH20 0xAB8483F64D9C6D1ECF9B849AE677DD3315835CB2 PUSH1 0x40 MLOAD DUP3 PUSH4 0xFFFFFFFF AND PUSH1 0xE0 SHL DUP2 MSTORE PUSH1 0x4 ADD PUSH2 0x112 SWAP2 SWAP1 PUSH2 0x2C5 JUMP JUMPDEST PUSH0 PUSH1 0x40 MLOAD DUP1 DUP4 SUB DUP2 PUSH0 DUP8 DUP1 EXTCODESIZE ISZERO DUP1 ISZERO PUSH2 0x129 JUMPI PUSH0 DUP1 REVERT JUMPDEST POP GAS CALL ISZERO DUP1 ISZERO PUSH2 0x13B JUMPI RETURNDATASIZE PUSH0 DUP1 RETURNDATACOPY RETURNDATASIZE PUSH0 REVERT JUMPDEST POP POP POP POP PUSH32 0x5D9C31FFA0FECFFD7CF379989A3C7AF252F0335E0D2A1320B55245912C781F53 DUP2 CALLER PUSH1 0x40 MLOAD PUSH2 0x170 SWAP3 SWAP2 SWAP1 PUSH2 0x2DE JUMP JUMPDEST PUSH1 0x40 MLOAD DUP1 SWAP2 SUB SWAP1 LOG1 DUP1 SWAP2 POP POP SWAP1 JUMP JUMPDEST PUSH0 PUSH2 0x18A DUP3 PUSH0 PUSH2 0x191 JUMP JUMPDEST SWAP1 POP SWAP2 SWAP1 POP JUMP JUMPDEST PUSH0 DUP2 SELFBALANCE LT ISZERO PUSH2 0x1D9 JUMPI SELFBALANCE DUP3 PUSH1 0x40 MLOAD PUSH32 0xCF47918100000000000000000000000000000000000000000000000000000000 DUP2 MSTORE PUSH1 0x4 ADD PUSH2 0x1D0 SWAP3 SWAP2 SWAP1 PUSH2 0x31D JUMP JUMPDEST PUSH1 0x40 MLOAD DUP1 SWAP2 SUB SWAP1 REVERT JUMPDEST PUSH23 0x3D602D80600A3D3981F3363D3D373D3D3D363D73000000 DUP4 PUSH1 0x60 SHL PUSH1 0xE8 SHR OR PUSH0 MSTORE PUSH15 0x5AF43D82803E903D91602B57FD5BF3 DUP4 PUSH1 0x78 SHL OR PUSH1 0x20 MSTORE PUSH1 0x37 PUSH1 0x9 DUP4 CREATE SWAP1 POP PUSH0 PUSH20 0xFFFFFFFFFFFFFFFFFFFFFFFFFFFFFFFFFFFFFFFF AND DUP2 PUSH20 0xFFFFFFFFFFFFFFFFFFFFFFFFFFFFFFFFFFFFFFFF AND SUB PUSH2 0x280 JUMPI PUSH1 0x40 MLOAD PUSH32 0xB06EBF3D00000000000000000000000000000000000000000000000000000000 DUP2 MSTORE PUSH1 0x4 ADD PUSH1 0x40 MLOAD DUP1 SWAP2 SUB SWAP1 REVERT JUMPDEST SWAP3 SWAP2 POP POP JUMP JUMPDEST PUSH0 PUSH20 0xFFFFFFFFFFFFFFFFFFFFFFFFFFFFFFFFFFFFFFFF DUP3 AND SWAP1 POP SWAP2 SWAP1 POP JUMP JUMPDEST PUSH0 PUSH2 0x2AF DUP3 PUSH2 0x286 JUMP JUMPDEST SWAP1 POP SWAP2 SWAP1 POP JUMP JUMPDEST PUSH2 0x2BF DUP2 PUSH2 0x2A5 JUMP JUMPDEST DUP3 MSTORE POP POP JUMP JUMPDEST PUSH0 PUSH1 0x20 DUP3 ADD SWAP1 POP PUSH2 0x2D8 PUSH0 DUP4 ADD DUP5 PUSH2 0x2B6 JUMP JUMPDEST SWAP3 SWAP2 POP POP JUMP JUMPDEST PUSH0 PUSH1 0x40 DUP3 ADD SWAP1 POP PUSH2 0x2F1 PUSH0 DUP4 ADD DUP6 PUSH2 0x2B6 JUMP JUMPDEST PUSH2 0x2FE PUSH1 0x20 DUP4 ADD DUP5 PUSH2 0x2B6 JUMP JUMPDEST SWAP4 SWAP3 POP POP POP JUMP JUMPDEST PUSH0 DUP2 SWAP1 POP SWAP2 SWAP1 POP JUMP JUMPDEST PUSH2 0x317 DUP2 PUSH2 0x305 JUMP JUMPDEST DUP3 MSTORE POP POP JUMP JUMPDEST PUSH0 PUSH1 0x40 DUP3 ADD SWAP1 POP PUSH2 0x330 PUSH0 DUP4 ADD DUP6 PUSH2 0x30E JUMP JUMPDEST PUSH2 0x33D PUSH1 0x20 DUP4 ADD DUP5 PUSH2 0x30E JUMP JUMPDEST SWAP4 SWAP3 POP POP POP JUMP INVALID LOG2 PUSH5 0x6970667358 0x22 SLT KECCAK256 0xA5 PUSH31 0x50634C1AEAB73C5934050ED75FE22320FD9F925DF45CA66B72B489FA4CA564 PUSH20 0x6F6C634300081A00336080604052348015600E57 PUSH0 DUP1 REVERT JUMPDEST POP PUSH2 0x55D DUP1 PUSH2 0x1C PUSH0 CODECOPY PUSH0 RETURN INVALID PUSH1 0x80 PUSH1 0x40 MSTORE PUSH1 0x4 CALLDATASIZE LT PUSH2 0x49 JUMPI PUSH0 CALLDATALOAD PUSH1 0xE0 SHR DUP1 PUSH4 0x12065FE0 EQ PUSH2 0x4D JUMPI DUP1 PUSH4 0x8DA5CB5B EQ PUSH2 0x77 JUMPI DUP1 PUSH4 0xB69EF8A8 EQ PUSH2 0xA1 JUMPI DUP1 PUSH4 0xC4D66DE8 EQ PUSH2 0xCB JUMPI DUP1 PUSH4 0xD0E30DB0 EQ PUSH2 0xF3 JUMPI JUMPDEST PUSH0 DUP1 REVERT JUMPDEST CALLVALUE DUP1 ISZERO PUSH2 0x58 JUMPI PUSH0 DUP1 REVERT JUMPDEST POP PUSH2 0x61 PUSH2 0xFD JUMP JUMPDEST PUSH1 0x40 MLOAD PUSH2 0x6E SWAP2 SWAP1 PUSH2 0x2F6 JUMP JUMPDEST PUSH1 0x40 MLOAD DUP1 SWAP2 SUB SWAP1 RETURN JUMPDEST CALLVALUE DUP1 ISZERO PUSH2 0x82 JUMPI PUSH0 DUP1 REVERT JUMPDEST POP PUSH2 0x8B PUSH2 0x106 JUMP JUMPDEST PUSH1 0x40 MLOAD PUSH2 0x98 SWAP2 SWAP1 PUSH2 0x34E JUMP JUMPDEST PUSH1 0x40 MLOAD DUP1 SWAP2 SUB SWAP1 RETURN JUMPDEST CALLVALUE DUP1 ISZERO PUSH2 0xAC JUMPI PUSH0 DUP1 REVERT JUMPDEST POP PUSH2 0xB5 PUSH2 0x129 JUMP JUMPDEST PUSH1 0x40 MLOAD PUSH2 0xC2 SWAP2 SWAP1 PUSH2 0x2F6 JUMP JUMPDEST PUSH1 0x40 MLOAD DUP1 SWAP2 SUB SWAP1 RETURN JUMPDEST CALLVALUE DUP1 ISZERO PUSH2 0xD6 JUMPI PUSH0 DUP1 REVERT JUMPDEST POP PUSH2 0xF1 PUSH1 0x4 DUP1 CALLDATASIZE SUB DUP2 ADD SWAP1 PUSH2 0xEC SWAP2 SWAP1 PUSH2 0x395 JUMP JUMPDEST PUSH2 0x12F JUMP JUMPDEST STOP JUMPDEST PUSH2 0xFB PUSH2 0x1FE JUMP JUMPDEST STOP JUMPDEST PUSH0 PUSH1 0x1 SLOAD SWAP1 POP SWAP1 JUMP JUMPDEST PUSH0 DUP1 SLOAD SWAP1 PUSH2 0x100 EXP SWAP1 DIV PUSH20 0xFFFFFFFFFFFFFFFFFFFFFFFFFFFFFFFFFFFFFFFF AND DUP2 JUMP JUMPDEST PUSH1 0x1 SLOAD DUP2 JUMP JUMPDEST PUSH0 PUSH20 0xFFFFFFFFFFFFFFFFFFFFFFFFFFFFFFFFFFFFFFFF AND PUSH0 DUP1 SLOAD SWAP1 PUSH2 0x100 EXP SWAP1 DIV PUSH20 0xFFFFFFFFFFFFFFFFFFFFFFFFFFFFFFFFFFFFFFFF AND PUSH20 0xFFFFFFFFFFFFFFFFFFFFFFFFFFFFFFFFFFFFFFFF AND EQ PUSH2 0x1BC JUMPI PUSH1 0x40 MLOAD PUSH32 0x8C379A000000000000000000000000000000000000000000000000000000000 DUP2 MSTORE PUSH1 0x4 ADD PUSH2 0x1B3 SWAP1 PUSH2 0x41A JUMP JUMPDEST PUSH1 0x40 MLOAD DUP1 SWAP2 SUB SWAP1 REVERT JUMPDEST DUP1 PUSH0 DUP1 PUSH2 0x100 EXP DUP2 SLOAD DUP2 PUSH20 0xFFFFFFFFFFFFFFFFFFFFFFFFFFFFFFFFFFFFFFFF MUL NOT AND SWAP1 DUP4 PUSH20 0xFFFFFFFFFFFFFFFFFFFFFFFFFFFFFFFFFFFFFFFF AND MUL OR SWAP1 SSTORE POP POP JUMP JUMPDEST PUSH0 DUP1 SLOAD SWAP1 PUSH2 0x100 EXP SWAP1 DIV PUSH20 0xFFFFFFFFFFFFFFFFFFFFFFFFFFFFFFFFFFFFFFFF AND PUSH20 0xFFFFFFFFFFFFFFFFFFFFFFFFFFFFFFFFFFFFFFFF AND CALLER PUSH20 0xFFFFFFFFFFFFFFFFFFFFFFFFFFFFFFFFFFFFFFFF AND EQ PUSH2 0x28B JUMPI PUSH1 0x40 MLOAD PUSH32 0x8C379A000000000000000000000000000000000000000000000000000000000 DUP2 MSTORE PUSH1 0x4 ADD PUSH2 0x282 SWAP1 PUSH2 0x482 JUMP JUMPDEST PUSH1 0x40 MLOAD DUP1 SWAP2 SUB SWAP1 REVERT JUMPDEST CALLVALUE PUSH1 0x1 PUSH0 DUP3 DUP3 SLOAD PUSH2 0x29C SWAP2 SWAP1 PUSH2 0x4CD JUMP JUMPDEST SWAP3 POP POP DUP2 SWAP1 SSTORE POP PUSH32 0x2DA466A7B24304F47E87FA2E1E5A81B9831CE54FEC19055CE277CA2F39BA42C4 CALLER CALLVALUE PUSH1 0x40 MLOAD PUSH2 0x2D4 SWAP3 SWAP2 SWAP1 PUSH2 0x500 JUMP JUMPDEST PUSH1 0x40 MLOAD DUP1 SWAP2 SUB SWAP1 LOG1 JUMP JUMPDEST PUSH0 DUP2 SWAP1 POP SWAP2 SWAP1 POP JUMP JUMPDEST PUSH2 0x2F0 DUP2 PUSH2 0x2DE JUMP JUMPDEST DUP3 MSTORE POP POP JUMP JUMPDEST PUSH0 PUSH1 0x20 DUP3 ADD SWAP1 POP PUSH2 0x309 PUSH0 DUP4 ADD DUP5 PUSH2 0x2E7 JUMP JUMPDEST SWAP3 SWAP2 POP POP JUMP JUMPDEST PUSH0 PUSH20 0xFFFFFFFFFFFFFFFFFFFFFFFFFFFFFFFFFFFFFFFF DUP3 AND SWAP1 POP SWAP2 SWAP1 POP JUMP JUMPDEST PUSH0 PUSH2 0x338 DUP3 PUSH2 0x30F JUMP JUMPDEST SWAP1 POP SWAP2 SWAP1 POP JUMP JUMPDEST PUSH2 0x348 DUP2 PUSH2 0x32E JUMP JUMPDEST DUP3 MSTORE POP POP JUMP JUMPDEST PUSH0 PUSH1 0x20 DUP3 ADD SWAP1 POP PUSH2 0x361 PUSH0 DUP4 ADD DUP5 PUSH2 0x33F JUMP JUMPDEST SWAP3 SWAP2 POP POP JUMP JUMPDEST PUSH0 DUP1 REVERT JUMPDEST PUSH2 0x374 DUP2 PUSH2 0x32E JUMP JUMPDEST DUP2 EQ PUSH2 0x37E JUMPI PUSH0 DUP1 REVERT JUMPDEST POP JUMP JUMPDEST PUSH0 DUP2 CALLDATALOAD SWAP1 POP PUSH2 0x38F DUP2 PUSH2 0x36B JUMP JUMPDEST SWAP3 SWAP2 POP POP JUMP JUMPDEST PUSH0 PUSH1 0x20 DUP3 DUP5 SUB SLT ISZERO PUSH2 0x3AA JUMPI PUSH2 0x3A9 PUSH2 0x367 JUMP JUMPDEST JUMPDEST PUSH0 PUSH2 0x3B7 DUP5 DUP3 DUP6 ADD PUSH2 0x381 JUMP JUMPDEST SWAP2 POP POP SWAP3 SWAP2 POP POP JUMP JUMPDEST PUSH0 DUP3 DUP3 MSTORE PUSH1 0x20 DUP3 ADD SWAP1 POP SWAP3 SWAP2 POP POP JUMP JUMPDEST PUSH32 0x416C726561647920696E697469616C697A656400000000000000000000000000 PUSH0 DUP3 ADD MSTORE POP JUMP JUMPDEST PUSH0 PUSH2 0x404 PUSH1 0x13 DUP4 PUSH2 0x3C0 JUMP JUMPDEST SWAP2 POP PUSH2 0x40F DUP3 PUSH2 0x3D0 JUMP JUMPDEST PUSH1 0x20 DUP3 ADD SWAP1 POP SWAP2 SWAP1 POP JUMP JUMPDEST PUSH0 PUSH1 0x20 DUP3 ADD SWAP1 POP DUP2 DUP2 SUB PUSH0 DUP4 ADD MSTORE PUSH2 0x431 DUP2 PUSH2 0x3F8 JUMP JUMPDEST SWAP1 POP SWAP2 SWAP1 POP JUMP JUMPDEST PUSH32 0x4F6E6C79206F776E65722063616E206465706F73697400000000000000000000 PUSH0 DUP3 ADD MSTORE POP JUMP JUMPDEST PUSH0 PUSH2 0x46C PUSH1 0x16 DUP4 PUSH2 0x3C0 JUMP JUMPDEST SWAP2 POP PUSH2 0x477 DUP3 PUSH2 0x438 JUMP JUMPDEST PUSH1 0x20 DUP3 ADD SWAP1 POP SWAP2 SWAP1 POP JUMP JUMPDEST PUSH0 PUSH1 0x20 DUP3 ADD SWAP1 POP DUP2 DUP2 SUB PUSH0 DUP4 ADD MSTORE PUSH2 0x499 DUP2 PUSH2 0x460 JUMP JUMPDEST SWAP1 POP SWAP2 SWAP1 POP JUMP JUMPDEST PUSH32 0x4E487B7100000000000000000000000000000000000000000000000000000000 PUSH0 MSTORE PUSH1 0x11 PUSH1 0x4 MSTORE PUSH1 0x24 PUSH0 REVERT JUMPDEST PUSH0 PUSH2 0x4D7 DUP3 PUSH2 0x2DE JUMP JUMPDEST SWAP2 POP PUSH2 0x4E2 DUP4 PUSH2 0x2DE JUMP JUMPDEST SWAP3 POP DUP3 DUP3 ADD SWAP1 POP DUP1 DUP3 GT ISZERO PUSH2 0x4FA JUMPI PUSH2 0x4F9 PUSH2 0x4A0 JUMP JUMPDEST JUMPDEST SWAP3 SWAP2 POP POP JUMP JUMPDEST PUSH0 PUSH1 0x40 DUP3 ADD SWAP1 POP PUSH2 0x513 PUSH0 DUP4 ADD DUP6 PUSH2 0x33F JUMP JUMPDEST PUSH2 0x520 PUSH1 0x20 DUP4 ADD DUP5 PUSH2 0x2E7 JUMP JUMPDEST SWAP4 SWAP3 POP POP POP JUMP INVALID LOG2 PUSH5 0x6970667358 0x22 SLT KECCAK256 0xCD PUSH9 0x4D7C73ADB53C6E4BCF SELFBALANCE 0xC1 KECCAK256 0x2A ADDRESS BLOCKHASH SWAP4 0xB7 SMOD 0x28 SWAP5 PUSH24 0x1EEA58AAA8813FF21064736F6C634300081A003300000000 "
				},
				"gasEstimates": {
					"creation": {
						"codeDepositCost": "178000",
						"executionCost": "infinite",
						"totalCost": "infinite"
					},
					"external": {
						"createVault()": "infinite",
						"implementation()": "infinite"
					}
				},
				"methodIdentifiers": {
					"createVault()": "5d12928b",
					"implementation()": "5c60da1b"
				}
			},
			"storageLayout": {
				"storage": [],
				"types": null
			},
			"userdoc": {
				"kind": "user",
				"methods": {},
				"version": 1
			}
		}
	}
}