{
	"Contracts/ERC1155.sol": {
		"ERC1155": {
			"abi": [
				{
					"anonymous": false,
					"inputs": [
						{
							"indexed": true,
							"internalType": "address",
							"name": "owner",
							"type": "address"
						},
						{
							"indexed": true,
							"internalType": "address",
							"name": "operator",
							"type": "address"
						},
						{
							"indexed": false,
							"internalType": "bool",
							"name": "approved",
							"type": "bool"
						}
					],
					"name": "ApprovalForAll",
					"type": "event"
				},
				{
					"anonymous": false,
					"inputs": [
						{
							"indexed": true,
							"internalType": "address",
							"name": "operator",
							"type": "address"
						},
						{
							"indexed": true,
							"internalType": "address",
							"name": "from",
							"type": "address"
						},
						{
							"indexed": true,
							"internalType": "address",
							"name": "to",
							"type": "address"
						},
						{
							"indexed": false,
							"internalType": "uint256[]",
							"name": "ids",
							"type": "uint256[]"
						},
						{
							"indexed": false,
							"internalType": "uint256[]",
							"name": "values",
							"type": "uint256[]"
						}
					],
					"name": "TransferBatch",
					"type": "event"
				},
				{
					"anonymous": false,
					"inputs": [
						{
							"indexed": true,
							"internalType": "address",
							"name": "operator",
							"type": "address"
						},
						{
							"indexed": true,
							"internalType": "address",
							"name": "from",
							"type": "address"
						},
						{
							"indexed": true,
							"internalType": "address",
							"name": "to",
							"type": "address"
						},
						{
							"indexed": false,
							"internalType": "uint256",
							"name": "id",
							"type": "uint256"
						},
						{
							"indexed": false,
							"internalType": "uint256",
							"name": "value",
							"type": "uint256"
						}
					],
					"name": "TransferSingle",
					"type": "event"
				},
				{
					"anonymous": false,
					"inputs": [
						{
							"indexed": false,
							"internalType": "string",
							"name": "value",
							"type": "string"
						},
						{
							"indexed": true,
							"internalType": "uint256",
							"name": "id",
							"type": "uint256"
						}
					],
					"name": "URI",
					"type": "event"
				},
				{
					"inputs": [
						{
							"internalType": "address",
							"name": "",
							"type": "address"
						},
						{
							"internalType": "uint256",
							"name": "",
							"type": "uint256"
						}
					],
					"name": "balanceOf",
					"outputs": [
						{
							"internalType": "uint256",
							"name": "",
							"type": "uint256"
						}
					],
					"stateMutability": "view",
					"type": "function"
				},
				{
					"inputs": [
						{
							"internalType": "address[]",
							"name": "owners",
							"type": "address[]"
						},
						{
							"internalType": "uint256[]",
							"name": "ids",
							"type": "uint256[]"
						}
					],
					"name": "balanceOfBatch",
					"outputs": [
						{
							"internalType": "uint256[]",
							"name": "balances",
							"type": "uint256[]"
						}
					],
					"stateMutability": "view",
					"type": "function"
				},
				{
					"inputs": [
						{
							"internalType": "address",
							"name": "",
							"type": "address"
						},
						{
							"internalType": "address",
							"name": "",
							"type": "address"
						}
					],
					"name": "isApprovedForAll",
					"outputs": [
						{
							"internalType": "bool",
							"name": "",
							"type": "bool"
						}
					],
					"stateMutability": "view",
					"type": "function"
				},
				{
					"inputs": [
						{
							"internalType": "address",
							"name": "from",
							"type": "address"
						},
						{
							"internalType": "address",
							"name": "to",
							"type": "address"
						},
						{
							"internalType": "uint256[]",
							"name": "ids",
							"type": "uint256[]"
						},
						{
							"internalType": "uint256[]",
							"name": "values",
							"type": "uint256[]"
						},
						{
							"internalType": "bytes",
							"name": "data",
							"type": "bytes"
						}
					],
					"name": "safeBatchTransferFrom",
					"outputs": [],
					"stateMutability": "nonpayable",
					"type": "function"
				},
				{
					"inputs": [
						{
							"internalType": "address",
							"name": "from",
							"type": "address"
						},
						{
							"internalType": "address",
							"name": "to",
							"type": "address"
						},
						{
							"internalType": "uint256",
							"name": "id",
							"type": "uint256"
						},
						{
							"internalType": "uint256",
							"name": "value",
							"type": "uint256"
						},
						{
							"internalType": "bytes",
							"name": "data",
							"type": "bytes"
						}
					],
					"name": "safeTransferFrom",
					"outputs": [],
					"stateMutability": "nonpayable",
					"type": "function"
				},
				{
					"inputs": [
						{
							"internalType": "address",
							"name": "operator",
							"type": "address"
						},
						{
							"internalType": "bool",
							"name": "approved",
							"type": "bool"
						}
					],
					"name": "setApprovalForAll",
					"outputs": [],
					"stateMutability": "nonpayable",
					"type": "function"
				},
				{
					"inputs": [
						{
							"internalType": "bytes4",
							"name": "interfaceId",
							"type": "bytes4"
						}
					],
					"name": "supportsInterface",
					"outputs": [
						{
							"internalType": "bool",
							"name": "",
							"type": "bool"
						}
					],
					"stateMutability": "pure",
					"type": "function"
				},
				{
					"inputs": [
						{
							"internalType": "uint256",
							"name": "id",
							"type": "uint256"
						}
					],
					"name": "uri",
					"outputs": [
						{
							"internalType": "string",
							"name": "",
							"type": "string"
						}
					],
					"stateMutability": "view",
					"type": "function"
				}
			],
			"devdoc": {
				"kind": "dev",
				"methods": {},
				"version": 1
			},
			"evm": {
				"assembly": "    /* \"Contracts/ERC1155.sol\":1316:7251  contract ERC1155 is IERC1155 {... */\n  mstore(0x40, 0x80)\n  callvalue\n  dup1\n  iszero\n  tag_1\n  jumpi\n  0x00\n  dup1\n  revert\ntag_1:\n  pop\n  dataSize(sub_0)\n  dup1\n  dataOffset(sub_0)\n  0x00\n  codecopy\n  0x00\n  return\nstop\n\nsub_0: assembly {\n        /* \"Contracts/ERC1155.sol\":1316:7251  contract ERC1155 is IERC1155 {... */\n      mstore(0x40, 0x80)\n      callvalue\n      dup1\n      iszero\n      tag_1\n      jumpi\n      0x00\n      dup1\n      revert\n    tag_1:\n      pop\n      jumpi(tag_2, lt(calldatasize, 0x04))\n      shr(0xe0, calldataload(0x00))\n      dup1\n      0x4e1273f4\n      gt\n      tag_11\n      jumpi\n      dup1\n      0x4e1273f4\n      eq\n      tag_7\n      jumpi\n      dup1\n      0xa22cb465\n      eq\n      tag_8\n      jumpi\n      dup1\n      0xe985e9c5\n      eq\n      tag_9\n      jumpi\n      dup1\n      0xf242432a\n      eq\n      tag_10\n      jumpi\n      jump(tag_2)\n    tag_11:\n      dup1\n      0xfdd58e\n      eq\n      tag_3\n      jumpi\n      dup1\n      0x01ffc9a7\n      eq\n      tag_4\n      jumpi\n      dup1\n      0x0e89341c\n      eq\n      tag_5\n      jumpi\n      dup1\n      0x2eb2c2d6\n      eq\n      tag_6\n      jumpi\n    tag_2:\n      0x00\n      dup1\n      revert\n        /* \"Contracts/ERC1155.sol\":1874:1938  mapping(address => mapping(uint256 => uint256)) public balanceOf */\n    tag_3:\n      tag_12\n      0x04\n      dup1\n      calldatasize\n      sub\n      dup2\n      add\n      swap1\n      tag_13\n      swap2\n      swap1\n      tag_14\n      jump\t// in\n    tag_13:\n      tag_15\n      jump\t// in\n    tag_12:\n      mload(0x40)\n      tag_16\n      swap2\n      swap1\n      tag_17\n      jump\t// in\n    tag_16:\n      mload(0x40)\n      dup1\n      swap2\n      sub\n      swap1\n      return\n        /* \"Contracts/ERC1155.sol\":4704:5054  function supportsInterface(bytes4 interfaceId)... */\n    tag_4:\n      tag_18\n      0x04\n      dup1\n      calldatasize\n      sub\n      dup2\n      add\n      swap1\n      tag_19\n      swap2\n      swap1\n      tag_20\n      jump\t// in\n    tag_19:\n      tag_21\n      jump\t// in\n    tag_18:\n      mload(0x40)\n      tag_22\n      swap2\n      swap1\n      tag_23\n      jump\t// in\n    tag_22:\n      mload(0x40)\n      dup1\n      swap2\n      sub\n      swap1\n      return\n        /* \"Contracts/ERC1155.sol\":5088:5159  function uri(uint256 id) public view virtual returns (string memory) {} */\n    tag_5:\n      tag_24\n      0x04\n      dup1\n      calldatasize\n      sub\n      dup2\n      add\n      swap1\n      tag_25\n      swap2\n      swap1\n      tag_26\n      jump\t// in\n    tag_25:\n      tag_27\n      jump\t// in\n    tag_24:\n      mload(0x40)\n      tag_28\n      swap2\n      swap1\n      tag_29\n      jump\t// in\n    tag_28:\n      mload(0x40)\n      dup1\n      swap2\n      sub\n      swap1\n      return\n        /* \"Contracts/ERC1155.sol\":3701:4684  function safeBatchTransferFrom(... */\n    tag_6:\n      tag_30\n      0x04\n      dup1\n      calldatasize\n      sub\n      dup2\n      add\n      swap1\n      tag_31\n      swap2\n      swap1\n      tag_32\n      jump\t// in\n    tag_31:\n      tag_33\n      jump\t// in\n    tag_30:\n      stop\n        /* \"Contracts/ERC1155.sol\":2059:2509  function balanceOfBatch(address[] calldata owners, uint256[] calldata ids)... */\n    tag_7:\n      tag_34\n      0x04\n      dup1\n      calldatasize\n      sub\n      dup2\n      add\n      swap1\n      tag_35\n      swap2\n      swap1\n      tag_36\n      jump\t// in\n    tag_35:\n      tag_37\n      jump\t// in\n    tag_34:\n      mload(0x40)\n      tag_38\n      swap2\n      swap1\n      tag_39\n      jump\t// in\n    tag_38:\n      mload(0x40)\n      dup1\n      swap2\n      sub\n      swap1\n      return\n        /* \"Contracts/ERC1155.sol\":2714:2910  function setApprovalForAll(address operator, bool approved) external {... */\n    tag_8:\n      tag_40\n      0x04\n      dup1\n      calldatasize\n      sub\n      dup2\n      add\n      swap1\n      tag_41\n      swap2\n      swap1\n      tag_42\n      jump\t// in\n    tag_41:\n      tag_43\n      jump\t// in\n    tag_40:\n      stop\n        /* \"Contracts/ERC1155.sol\":1981:2049  mapping(address => mapping(address => bool)) public isApprovedForAll */\n    tag_9:\n      tag_44\n      0x04\n      dup1\n      calldatasize\n      sub\n      dup2\n      add\n      swap1\n      tag_45\n      swap2\n      swap1\n      tag_46\n      jump\t// in\n    tag_45:\n      tag_47\n      jump\t// in\n    tag_44:\n      mload(0x40)\n      tag_48\n      swap2\n      swap1\n      tag_23\n      jump\t// in\n    tag_48:\n      mload(0x40)\n      dup1\n      swap2\n      sub\n      swap1\n      return\n        /* \"Contracts/ERC1155.sol\":2916:3695  function safeTransferFrom(... */\n    tag_10:\n      tag_49\n      0x04\n      dup1\n      calldatasize\n      sub\n      dup2\n      add\n      swap1\n      tag_50\n      swap2\n      swap1\n      tag_51\n      jump\t// in\n    tag_50:\n      tag_52\n      jump\t// in\n    tag_49:\n      stop\n        /* \"Contracts/ERC1155.sol\":1874:1938  mapping(address => mapping(uint256 => uint256)) public balanceOf */\n    tag_15:\n      mstore(0x20, 0x00)\n      dup2\n      0x00\n      mstore\n      mstore(0x20, keccak256(0x00, 0x40))\n      dup1\n      0x00\n      mstore\n      keccak256(0x00, 0x40)\n      0x00\n      swap2\n      pop\n      swap2\n      pop\n      pop\n      sload\n      dup2\n      jump\t// out\n        /* \"Contracts/ERC1155.sol\":4704:5054  function supportsInterface(bytes4 interfaceId)... */\n    tag_21:\n        /* \"Contracts/ERC1155.sol\":4798:4802  bool */\n      0x00\n        /* \"Contracts/ERC1155.sol\":4840:4850  0x01ffc9a7 */\n      0x01ffc9a7\n        /* \"Contracts/ERC1155.sol\":4825:4850  interfaceId == 0x01ffc9a7 */\n      0xe0\n      shl\n        /* \"Contracts/ERC1155.sol\":4825:4836  interfaceId */\n      dup3\n        /* \"Contracts/ERC1155.sol\":4825:4850  interfaceId == 0x01ffc9a7 */\n      not(0xffffffffffffffffffffffffffffffffffffffffffffffffffffffff)\n      and\n      eq\n        /* \"Contracts/ERC1155.sol\":4825:4925  interfaceId == 0x01ffc9a7 // ERC165 Interface ID for ERC165... */\n      dup1\n      tag_54\n      jumpi\n      pop\n        /* \"Contracts/ERC1155.sol\":4915:4925  0xd9b67a26 */\n      0xd9b67a26\n        /* \"Contracts/ERC1155.sol\":4900:4925  interfaceId == 0xd9b67a26 */\n      0xe0\n      shl\n        /* \"Contracts/ERC1155.sol\":4900:4911  interfaceId */\n      dup3\n        /* \"Contracts/ERC1155.sol\":4900:4925  interfaceId == 0xd9b67a26 */\n      not(0xffffffffffffffffffffffffffffffffffffffffffffffffffffffff)\n      and\n      eq\n        /* \"Contracts/ERC1155.sol\":4825:4925  interfaceId == 0x01ffc9a7 // ERC165 Interface ID for ERC165... */\n    tag_54:\n        /* \"Contracts/ERC1155.sol\":4825:5001  interfaceId == 0x01ffc9a7 // ERC165 Interface ID for ERC165... */\n      dup1\n      tag_55\n      jumpi\n      pop\n        /* \"Contracts/ERC1155.sol\":4991:5001  0x0e89341c */\n      0x0e89341c\n        /* \"Contracts/ERC1155.sol\":4976:5001  interfaceId == 0x0e89341c */\n      0xe0\n      shl\n        /* \"Contracts/ERC1155.sol\":4976:4987  interfaceId */\n      dup3\n        /* \"Contracts/ERC1155.sol\":4976:5001  interfaceId == 0x0e89341c */\n      not(0xffffffffffffffffffffffffffffffffffffffffffffffffffffffff)\n      and\n      eq\n        /* \"Contracts/ERC1155.sol\":4825:5001  interfaceId == 0x01ffc9a7 // ERC165 Interface ID for ERC165... */\n    tag_55:\n        /* \"Contracts/ERC1155.sol\":4818:5001  return interfaceId == 0x01ffc9a7 // ERC165 Interface ID for ERC165... */\n      swap1\n      pop\n        /* \"Contracts/ERC1155.sol\":4704:5054  function supportsInterface(bytes4 interfaceId)... */\n      swap2\n      swap1\n      pop\n      jump\t// out\n        /* \"Contracts/ERC1155.sol\":5088:5159  function uri(uint256 id) public view virtual returns (string memory) {} */\n    tag_27:\n        /* \"Contracts/ERC1155.sol\":5142:5155  string memory */\n      0x60\n        /* \"Contracts/ERC1155.sol\":5088:5159  function uri(uint256 id) public view virtual returns (string memory) {} */\n      swap2\n      swap1\n      pop\n      jump\t// out\n        /* \"Contracts/ERC1155.sol\":3701:4684  function safeBatchTransferFrom(... */\n    tag_33:\n        /* \"Contracts/ERC1155.sol\":3930:3934  from */\n      dup8\n        /* \"Contracts/ERC1155.sol\":3916:3934  msg.sender == from */\n      0xffffffffffffffffffffffffffffffffffffffff\n      and\n        /* \"Contracts/ERC1155.sol\":3916:3926  msg.sender */\n      caller\n        /* \"Contracts/ERC1155.sol\":3916:3934  msg.sender == from */\n      0xffffffffffffffffffffffffffffffffffffffff\n      and\n      eq\n        /* \"Contracts/ERC1155.sol\":3916:3972  msg.sender == from || isApprovedForAll[from][msg.sender] */\n      dup1\n      tag_58\n      jumpi\n      pop\n        /* \"Contracts/ERC1155.sol\":3938:3954  isApprovedForAll */\n      0x01\n        /* \"Contracts/ERC1155.sol\":3938:3960  isApprovedForAll[from] */\n      0x00\n        /* \"Contracts/ERC1155.sol\":3955:3959  from */\n      dup10\n        /* \"Contracts/ERC1155.sol\":3938:3960  isApprovedForAll[from] */\n      0xffffffffffffffffffffffffffffffffffffffff\n      and\n      0xffffffffffffffffffffffffffffffffffffffff\n      and\n      dup2\n      mstore\n      0x20\n      add\n      swap1\n      dup2\n      mstore\n      0x20\n      add\n      0x00\n      keccak256\n        /* \"Contracts/ERC1155.sol\":3938:3972  isApprovedForAll[from][msg.sender] */\n      0x00\n        /* \"Contracts/ERC1155.sol\":3961:3971  msg.sender */\n      caller\n        /* \"Contracts/ERC1155.sol\":3938:3972  isApprovedForAll[from][msg.sender] */\n      0xffffffffffffffffffffffffffffffffffffffff\n      and\n      0xffffffffffffffffffffffffffffffffffffffff\n      and\n      dup2\n      mstore\n      0x20\n      add\n      swap1\n      dup2\n      mstore\n      0x20\n      add\n      0x00\n      keccak256\n      0x00\n      swap1\n      sload\n      swap1\n      0x0100\n      exp\n      swap1\n      div\n      0xff\n      and\n        /* \"Contracts/ERC1155.sol\":3916:3972  msg.sender == from || isApprovedForAll[from][msg.sender] */\n    tag_58:\n        /* \"Contracts/ERC1155.sol\":3895:4010  require(... */\n      tag_59\n      jumpi\n      mload(0x40)\n      0x08c379a000000000000000000000000000000000000000000000000000000000\n      dup2\n      mstore\n      0x04\n      add\n      tag_60\n      swap1\n      tag_61\n      jump\t// in\n    tag_60:\n      mload(0x40)\n      dup1\n      swap2\n      sub\n      swap1\n      revert\n    tag_59:\n        /* \"Contracts/ERC1155.sol\":4042:4043  0 */\n      0x00\n        /* \"Contracts/ERC1155.sol\":4028:4044  to != address(0) */\n      0xffffffffffffffffffffffffffffffffffffffff\n      and\n        /* \"Contracts/ERC1155.sol\":4028:4030  to */\n      dup8\n        /* \"Contracts/ERC1155.sol\":4028:4044  to != address(0) */\n      0xffffffffffffffffffffffffffffffffffffffff\n      and\n      sub\n        /* \"Contracts/ERC1155.sol\":4020:4063  require(to != address(0), \"to = 0 address\") */\n      tag_62\n      jumpi\n      mload(0x40)\n      0x08c379a000000000000000000000000000000000000000000000000000000000\n      dup2\n      mstore\n      0x04\n      add\n      tag_63\n      swap1\n      tag_64\n      jump\t// in\n    tag_63:\n      mload(0x40)\n      dup1\n      swap2\n      sub\n      swap1\n      revert\n    tag_62:\n        /* \"Contracts/ERC1155.sol\":4095:4101  values */\n      dup4\n      dup4\n        /* \"Contracts/ERC1155.sol\":4095:4108  values.length */\n      swap1\n      pop\n        /* \"Contracts/ERC1155.sol\":4081:4084  ids */\n      dup7\n      dup7\n        /* \"Contracts/ERC1155.sol\":4081:4091  ids.length */\n      swap1\n      pop\n        /* \"Contracts/ERC1155.sol\":4081:4108  ids.length == values.length */\n      eq\n        /* \"Contracts/ERC1155.sol\":4073:4140  require(ids.length == values.length, \"ids length != values length\") */\n      tag_65\n      jumpi\n      mload(0x40)\n      0x08c379a000000000000000000000000000000000000000000000000000000000\n      dup2\n      mstore\n      0x04\n      add\n      tag_66\n      swap1\n      tag_67\n      jump\t// in\n    tag_66:\n      mload(0x40)\n      dup1\n      swap2\n      sub\n      swap1\n      revert\n    tag_65:\n        /* \"Contracts/ERC1155.sol\":4156:4165  uint256 i */\n      0x00\n        /* \"Contracts/ERC1155.sol\":4151:4301  for (uint256 i = 0; i < ids.length; i++) {... */\n    tag_68:\n        /* \"Contracts/ERC1155.sol\":4175:4178  ids */\n      dup7\n      dup7\n        /* \"Contracts/ERC1155.sol\":4175:4185  ids.length */\n      swap1\n      pop\n        /* \"Contracts/ERC1155.sol\":4171:4172  i */\n      dup2\n        /* \"Contracts/ERC1155.sol\":4171:4185  i < ids.length */\n      lt\n        /* \"Contracts/ERC1155.sol\":4151:4301  for (uint256 i = 0; i < ids.length; i++) {... */\n      iszero\n      tag_69\n      jumpi\n        /* \"Contracts/ERC1155.sol\":4233:4239  values */\n      dup5\n      dup5\n        /* \"Contracts/ERC1155.sol\":4240:4241  i */\n      dup3\n        /* \"Contracts/ERC1155.sol\":4233:4242  values[i] */\n      dup2\n      dup2\n      lt\n      tag_71\n      jumpi\n      tag_72\n      tag_73\n      jump\t// in\n    tag_72:\n    tag_71:\n      swap1\n      pop\n      0x20\n      mul\n      add\n      calldataload\n        /* \"Contracts/ERC1155.sol\":4206:4215  balanceOf */\n      0x00\n        /* \"Contracts/ERC1155.sol\":4206:4221  balanceOf[from] */\n      dup1\n        /* \"Contracts/ERC1155.sol\":4216:4220  from */\n      dup12\n        /* \"Contracts/ERC1155.sol\":4206:4221  balanceOf[from] */\n      0xffffffffffffffffffffffffffffffffffffffff\n      and\n      0xffffffffffffffffffffffffffffffffffffffff\n      and\n      dup2\n      mstore\n      0x20\n      add\n      swap1\n      dup2\n      mstore\n      0x20\n      add\n      0x00\n      keccak256\n        /* \"Contracts/ERC1155.sol\":4206:4229  balanceOf[from][ids[i]] */\n      0x00\n        /* \"Contracts/ERC1155.sol\":4222:4225  ids */\n      dup10\n      dup10\n        /* \"Contracts/ERC1155.sol\":4226:4227  i */\n      dup6\n        /* \"Contracts/ERC1155.sol\":4222:4228  ids[i] */\n      dup2\n      dup2\n      lt\n      tag_74\n      jumpi\n      tag_75\n      tag_73\n      jump\t// in\n    tag_75:\n    tag_74:\n      swap1\n      pop\n      0x20\n      mul\n      add\n      calldataload\n        /* \"Contracts/ERC1155.sol\":4206:4229  balanceOf[from][ids[i]] */\n      dup2\n      mstore\n      0x20\n      add\n      swap1\n      dup2\n      mstore\n      0x20\n      add\n      0x00\n      keccak256\n      0x00\n        /* \"Contracts/ERC1155.sol\":4206:4242  balanceOf[from][ids[i]] -= values[i] */\n      dup3\n      dup3\n      sload\n      tag_76\n      swap2\n      swap1\n      tag_77\n      jump\t// in\n    tag_76:\n      swap3\n      pop\n      pop\n      dup2\n      swap1\n      sstore\n      pop\n        /* \"Contracts/ERC1155.sol\":4281:4287  values */\n      dup5\n      dup5\n        /* \"Contracts/ERC1155.sol\":4288:4289  i */\n      dup3\n        /* \"Contracts/ERC1155.sol\":4281:4290  values[i] */\n      dup2\n      dup2\n      lt\n      tag_78\n      jumpi\n      tag_79\n      tag_73\n      jump\t// in\n    tag_79:\n    tag_78:\n      swap1\n      pop\n      0x20\n      mul\n      add\n      calldataload\n        /* \"Contracts/ERC1155.sol\":4256:4265  balanceOf */\n      0x00\n        /* \"Contracts/ERC1155.sol\":4256:4269  balanceOf[to] */\n      dup1\n        /* \"Contracts/ERC1155.sol\":4266:4268  to */\n      dup11\n        /* \"Contracts/ERC1155.sol\":4256:4269  balanceOf[to] */\n      0xffffffffffffffffffffffffffffffffffffffff\n      and\n      0xffffffffffffffffffffffffffffffffffffffff\n      and\n      dup2\n      mstore\n      0x20\n      add\n      swap1\n      dup2\n      mstore\n      0x20\n      add\n      0x00\n      keccak256\n        /* \"Contracts/ERC1155.sol\":4256:4277  balanceOf[to][ids[i]] */\n      0x00\n        /* \"Contracts/ERC1155.sol\":4270:4273  ids */\n      dup10\n      dup10\n        /* \"Contracts/ERC1155.sol\":4274:4275  i */\n      dup6\n        /* \"Contracts/ERC1155.sol\":4270:4276  ids[i] */\n      dup2\n      dup2\n      lt\n      tag_80\n      jumpi\n      tag_81\n      tag_73\n      jump\t// in\n    tag_81:\n    tag_80:\n      swap1\n      pop\n      0x20\n      mul\n      add\n      calldataload\n        /* \"Contracts/ERC1155.sol\":4256:4277  balanceOf[to][ids[i]] */\n      dup2\n      mstore\n      0x20\n      add\n      swap1\n      dup2\n      mstore\n      0x20\n      add\n      0x00\n      keccak256\n      0x00\n        /* \"Contracts/ERC1155.sol\":4256:4290  balanceOf[to][ids[i]] += values[i] */\n      dup3\n      dup3\n      sload\n      tag_82\n      swap2\n      swap1\n      tag_83\n      jump\t// in\n    tag_82:\n      swap3\n      pop\n      pop\n      dup2\n      swap1\n      sstore\n      pop\n        /* \"Contracts/ERC1155.sol\":4187:4190  i++ */\n      dup1\n      dup1\n      0x01\n      add\n      swap2\n      pop\n      pop\n        /* \"Contracts/ERC1155.sol\":4151:4301  for (uint256 i = 0; i < ids.length; i++) {... */\n      jump(tag_68)\n    tag_69:\n      pop\n        /* \"Contracts/ERC1155.sol\":4348:4350  to */\n      dup7\n        /* \"Contracts/ERC1155.sol\":4316:4364  TransferBatch(msg.sender, from, to, ids, values) */\n      0xffffffffffffffffffffffffffffffffffffffff\n      and\n        /* \"Contracts/ERC1155.sol\":4342:4346  from */\n      dup9\n        /* \"Contracts/ERC1155.sol\":4316:4364  TransferBatch(msg.sender, from, to, ids, values) */\n      0xffffffffffffffffffffffffffffffffffffffff\n      and\n        /* \"Contracts/ERC1155.sol\":4330:4340  msg.sender */\n      caller\n        /* \"Contracts/ERC1155.sol\":4316:4364  TransferBatch(msg.sender, from, to, ids, values) */\n      0xffffffffffffffffffffffffffffffffffffffff\n      and\n      0x4a39dc06d4c0dbc64b70af90fd698a233a518aa5d07e595d983b8c0526c8f7fb\n        /* \"Contracts/ERC1155.sol\":4352:4355  ids */\n      dup10\n      dup10\n        /* \"Contracts/ERC1155.sol\":4357:4363  values */\n      dup10\n      dup10\n        /* \"Contracts/ERC1155.sol\":4316:4364  TransferBatch(msg.sender, from, to, ids, values) */\n      mload(0x40)\n      tag_84\n      swap5\n      swap4\n      swap3\n      swap2\n      swap1\n      tag_85\n      jump\t// in\n    tag_84:\n      mload(0x40)\n      dup1\n      swap2\n      sub\n      swap1\n      log4\n        /* \"Contracts/ERC1155.sol\":4396:4397  0 */\n      0x00\n        /* \"Contracts/ERC1155.sol\":4379:4381  to */\n      dup8\n        /* \"Contracts/ERC1155.sol\":4379:4393  to.code.length */\n      0xffffffffffffffffffffffffffffffffffffffff\n      and\n      extcodesize\n        /* \"Contracts/ERC1155.sol\":4379:4397  to.code.length > 0 */\n      gt\n        /* \"Contracts/ERC1155.sol\":4375:4678  if (to.code.length > 0) {... */\n      iszero\n      tag_86\n      jumpi\n        /* \"Contracts/ERC1155.sol\":4565:4618  IERC1155TokenReceiver.onERC1155BatchReceived.selector */\n      shl(0xe0, 0xbc197c81)\n        /* \"Contracts/ERC1155.sol\":4438:4618  IERC1155TokenReceiver(to).onERC1155BatchReceived(... */\n      not(0xffffffffffffffffffffffffffffffffffffffffffffffffffffffff)\n      and\n        /* \"Contracts/ERC1155.sol\":4460:4462  to */\n      dup8\n        /* \"Contracts/ERC1155.sol\":4438:4486  IERC1155TokenReceiver(to).onERC1155BatchReceived */\n      0xffffffffffffffffffffffffffffffffffffffff\n      and\n      0xbc197c81\n        /* \"Contracts/ERC1155.sol\":4508:4518  msg.sender */\n      caller\n        /* \"Contracts/ERC1155.sol\":4520:4524  from */\n      dup12\n        /* \"Contracts/ERC1155.sol\":4526:4529  ids */\n      dup11\n      dup11\n        /* \"Contracts/ERC1155.sol\":4531:4537  values */\n      dup11\n      dup11\n        /* \"Contracts/ERC1155.sol\":4539:4543  data */\n      dup11\n      dup11\n        /* \"Contracts/ERC1155.sol\":4438:4561  IERC1155TokenReceiver(to).onERC1155BatchReceived(... */\n      mload(0x40)\n      dup10\n      0xffffffff\n      and\n      0xe0\n      shl\n      dup2\n      mstore\n      0x04\n      add\n      tag_87\n      swap9\n      swap8\n      swap7\n      swap6\n      swap5\n      swap4\n      swap3\n      swap2\n      swap1\n      tag_88\n      jump\t// in\n    tag_87:\n      0x20\n      mload(0x40)\n      dup1\n      dup4\n      sub\n      dup2\n      0x00\n      dup8\n      gas\n      call\n      iszero\n      dup1\n      iszero\n      tag_90\n      jumpi\n      returndatasize\n      0x00\n      dup1\n      returndatacopy\n      revert(0x00, returndatasize)\n    tag_90:\n      pop\n      pop\n      pop\n      pop\n      mload(0x40)\n      returndatasize\n      not(0x1f)\n      0x1f\n      dup3\n      add\n      and\n      dup3\n      add\n      dup1\n      0x40\n      mstore\n      pop\n      dup2\n      add\n      swap1\n      tag_91\n      swap2\n      swap1\n      tag_92\n      jump\t// in\n    tag_91:\n        /* \"Contracts/ERC1155.sol\":4438:4618  IERC1155TokenReceiver(to).onERC1155BatchReceived(... */\n      not(0xffffffffffffffffffffffffffffffffffffffffffffffffffffffff)\n      and\n      eq\n        /* \"Contracts/ERC1155.sol\":4413:4667  require(... */\n      tag_93\n      jumpi\n      mload(0x40)\n      0x08c379a000000000000000000000000000000000000000000000000000000000\n      dup2\n      mstore\n      0x04\n      add\n      tag_94\n      swap1\n      tag_95\n      jump\t// in\n    tag_94:\n      mload(0x40)\n      dup1\n      swap2\n      sub\n      swap1\n      revert\n    tag_93:\n        /* \"Contracts/ERC1155.sol\":4375:4678  if (to.code.length > 0) {... */\n    tag_86:\n        /* \"Contracts/ERC1155.sol\":3701:4684  function safeBatchTransferFrom(... */\n      pop\n      pop\n      pop\n      pop\n      pop\n      pop\n      pop\n      pop\n      jump\t// out\n        /* \"Contracts/ERC1155.sol\":2059:2509  function balanceOfBatch(address[] calldata owners, uint256[] calldata ids)... */\n    tag_37:\n        /* \"Contracts/ERC1155.sol\":2181:2206  uint256[] memory balances */\n      0x60\n        /* \"Contracts/ERC1155.sol\":2247:2250  ids */\n      dup3\n      dup3\n        /* \"Contracts/ERC1155.sol\":2247:2257  ids.length */\n      swap1\n      pop\n        /* \"Contracts/ERC1155.sol\":2230:2236  owners */\n      dup6\n      dup6\n        /* \"Contracts/ERC1155.sol\":2230:2243  owners.length */\n      swap1\n      pop\n        /* \"Contracts/ERC1155.sol\":2230:2257  owners.length == ids.length */\n      eq\n        /* \"Contracts/ERC1155.sol\":2222:2289  require(owners.length == ids.length, \"owners length != ids length\") */\n      tag_97\n      jumpi\n      mload(0x40)\n      0x08c379a000000000000000000000000000000000000000000000000000000000\n      dup2\n      mstore\n      0x04\n      add\n      tag_98\n      swap1\n      tag_99\n      jump\t// in\n    tag_98:\n      mload(0x40)\n      dup1\n      swap2\n      sub\n      swap1\n      revert\n    tag_97:\n        /* \"Contracts/ERC1155.sol\":2325:2331  owners */\n      dup5\n      dup5\n        /* \"Contracts/ERC1155.sol\":2325:2338  owners.length */\n      swap1\n      pop\n        /* \"Contracts/ERC1155.sol\":2311:2339  new uint256[](owners.length) */\n      0xffffffffffffffff\n      dup2\n      gt\n      iszero\n      tag_100\n      jumpi\n      tag_101\n      tag_102\n      jump\t// in\n    tag_101:\n    tag_100:\n      mload(0x40)\n      swap1\n      dup1\n      dup3\n      mstore\n      dup1\n      0x20\n      mul\n      0x20\n      add\n      dup3\n      add\n      0x40\n      mstore\n      dup1\n      iszero\n      tag_103\n      jumpi\n      dup2\n      0x20\n      add\n      0x20\n      dup3\n      mul\n      dup1\n      calldatasize\n      dup4\n      calldatacopy\n      dup1\n      dup3\n      add\n      swap2\n      pop\n      pop\n      swap1\n      pop\n    tag_103:\n      pop\n        /* \"Contracts/ERC1155.sol\":2300:2339  balances = new uint256[](owners.length) */\n      swap1\n      pop\n        /* \"Contracts/ERC1155.sol\":2379:2388  uint256 i */\n      0x00\n        /* \"Contracts/ERC1155.sol\":2374:2493  for (uint256 i = 0; i < owners.length; i++) {... */\n    tag_104:\n        /* \"Contracts/ERC1155.sol\":2398:2404  owners */\n      dup6\n      dup6\n        /* \"Contracts/ERC1155.sol\":2398:2411  owners.length */\n      swap1\n      pop\n        /* \"Contracts/ERC1155.sol\":2394:2395  i */\n      dup2\n        /* \"Contracts/ERC1155.sol\":2394:2411  i < owners.length */\n      lt\n        /* \"Contracts/ERC1155.sol\":2374:2493  for (uint256 i = 0; i < owners.length; i++) {... */\n      iszero\n      tag_105\n      jumpi\n        /* \"Contracts/ERC1155.sol\":2450:2459  balanceOf */\n      0x00\n        /* \"Contracts/ERC1155.sol\":2450:2470  balanceOf[owners[i]] */\n      dup1\n        /* \"Contracts/ERC1155.sol\":2460:2466  owners */\n      dup8\n      dup8\n        /* \"Contracts/ERC1155.sol\":2467:2468  i */\n      dup5\n        /* \"Contracts/ERC1155.sol\":2460:2469  owners[i] */\n      dup2\n      dup2\n      lt\n      tag_107\n      jumpi\n      tag_108\n      tag_73\n      jump\t// in\n    tag_108:\n    tag_107:\n      swap1\n      pop\n      0x20\n      mul\n      add\n      0x20\n      dup2\n      add\n      swap1\n      tag_109\n      swap2\n      swap1\n      tag_110\n      jump\t// in\n    tag_109:\n        /* \"Contracts/ERC1155.sol\":2450:2470  balanceOf[owners[i]] */\n      0xffffffffffffffffffffffffffffffffffffffff\n      and\n      0xffffffffffffffffffffffffffffffffffffffff\n      and\n      dup2\n      mstore\n      0x20\n      add\n      swap1\n      dup2\n      mstore\n      0x20\n      add\n      0x00\n      keccak256\n        /* \"Contracts/ERC1155.sol\":2450:2478  balanceOf[owners[i]][ids[i]] */\n      0x00\n        /* \"Contracts/ERC1155.sol\":2471:2474  ids */\n      dup6\n      dup6\n        /* \"Contracts/ERC1155.sol\":2475:2476  i */\n      dup5\n        /* \"Contracts/ERC1155.sol\":2471:2477  ids[i] */\n      dup2\n      dup2\n      lt\n      tag_111\n      jumpi\n      tag_112\n      tag_73\n      jump\t// in\n    tag_112:\n    tag_111:\n      swap1\n      pop\n      0x20\n      mul\n      add\n      calldataload\n        /* \"Contracts/ERC1155.sol\":2450:2478  balanceOf[owners[i]][ids[i]] */\n      dup2\n      mstore\n      0x20\n      add\n      swap1\n      dup2\n      mstore\n      0x20\n      add\n      0x00\n      keccak256\n      sload\n        /* \"Contracts/ERC1155.sol\":2436:2444  balances */\n      dup3\n        /* \"Contracts/ERC1155.sol\":2445:2446  i */\n      dup3\n        /* \"Contracts/ERC1155.sol\":2436:2447  balances[i] */\n      dup2\n      mload\n      dup2\n      lt\n      tag_113\n      jumpi\n      tag_114\n      tag_73\n      jump\t// in\n    tag_114:\n    tag_113:\n      0x20\n      mul\n      0x20\n      add\n      add\n        /* \"Contracts/ERC1155.sol\":2436:2478  balances[i] = balanceOf[owners[i]][ids[i]] */\n      dup2\n      dup2\n      mstore\n      pop\n      pop\n        /* \"Contracts/ERC1155.sol\":2413:2416  i++ */\n      dup1\n      dup1\n      0x01\n      add\n      swap2\n      pop\n      pop\n        /* \"Contracts/ERC1155.sol\":2374:2493  for (uint256 i = 0; i < owners.length; i++) {... */\n      jump(tag_104)\n    tag_105:\n      pop\n        /* \"Contracts/ERC1155.sol\":2059:2509  function balanceOfBatch(address[] calldata owners, uint256[] calldata ids)... */\n      swap5\n      swap4\n      pop\n      pop\n      pop\n      pop\n      jump\t// out\n        /* \"Contracts/ERC1155.sol\":2714:2910  function setApprovalForAll(address operator, bool approved) external {... */\n    tag_43:\n        /* \"Contracts/ERC1155.sol\":2834:2842  approved */\n      dup1\n        /* \"Contracts/ERC1155.sol\":2793:2809  isApprovedForAll */\n      0x01\n        /* \"Contracts/ERC1155.sol\":2793:2821  isApprovedForAll[msg.sender] */\n      0x00\n        /* \"Contracts/ERC1155.sol\":2810:2820  msg.sender */\n      caller\n        /* \"Contracts/ERC1155.sol\":2793:2821  isApprovedForAll[msg.sender] */\n      0xffffffffffffffffffffffffffffffffffffffff\n      and\n      0xffffffffffffffffffffffffffffffffffffffff\n      and\n      dup2\n      mstore\n      0x20\n      add\n      swap1\n      dup2\n      mstore\n      0x20\n      add\n      0x00\n      keccak256\n        /* \"Contracts/ERC1155.sol\":2793:2831  isApprovedForAll[msg.sender][operator] */\n      0x00\n        /* \"Contracts/ERC1155.sol\":2822:2830  operator */\n      dup5\n        /* \"Contracts/ERC1155.sol\":2793:2831  isApprovedForAll[msg.sender][operator] */\n      0xffffffffffffffffffffffffffffffffffffffff\n      and\n      0xffffffffffffffffffffffffffffffffffffffff\n      and\n      dup2\n      mstore\n      0x20\n      add\n      swap1\n      dup2\n      mstore\n      0x20\n      add\n      0x00\n      keccak256\n      0x00\n        /* \"Contracts/ERC1155.sol\":2793:2842  isApprovedForAll[msg.sender][operator] = approved */\n      0x0100\n      exp\n      dup2\n      sload\n      dup2\n      0xff\n      mul\n      not\n      and\n      swap1\n      dup4\n      iszero\n      iszero\n      mul\n      or\n      swap1\n      sstore\n      pop\n        /* \"Contracts/ERC1155.sol\":2884:2892  operator */\n      dup2\n        /* \"Contracts/ERC1155.sol\":2857:2903  ApprovalForAll(msg.sender, operator, approved) */\n      0xffffffffffffffffffffffffffffffffffffffff\n      and\n        /* \"Contracts/ERC1155.sol\":2872:2882  msg.sender */\n      caller\n        /* \"Contracts/ERC1155.sol\":2857:2903  ApprovalForAll(msg.sender, operator, approved) */\n      0xffffffffffffffffffffffffffffffffffffffff\n      and\n      0x17307eab39ab6107e8899845ad3d59bd9653f200f220920489ca2b5937696c31\n        /* \"Contracts/ERC1155.sol\":2894:2902  approved */\n      dup4\n        /* \"Contracts/ERC1155.sol\":2857:2903  ApprovalForAll(msg.sender, operator, approved) */\n      mload(0x40)\n      tag_116\n      swap2\n      swap1\n      tag_23\n      jump\t// in\n    tag_116:\n      mload(0x40)\n      dup1\n      swap2\n      sub\n      swap1\n      log3\n        /* \"Contracts/ERC1155.sol\":2714:2910  function setApprovalForAll(address operator, bool approved) external {... */\n      pop\n      pop\n      jump\t// out\n        /* \"Contracts/ERC1155.sol\":1981:2049  mapping(address => mapping(address => bool)) public isApprovedForAll */\n    tag_47:\n      mstore(0x20, 0x01)\n      dup2\n      0x00\n      mstore\n      mstore(0x20, keccak256(0x00, 0x40))\n      dup1\n      0x00\n      mstore\n      keccak256(0x00, 0x40)\n      0x00\n      swap2\n      pop\n      swap2\n      pop\n      swap1\n      sload\n      swap1\n      0x0100\n      exp\n      swap1\n      div\n      0xff\n      and\n      dup2\n      jump\t// out\n        /* \"Contracts/ERC1155.sol\":2916:3695  function safeTransferFrom(... */\n    tag_52:\n        /* \"Contracts/ERC1155.sol\":3116:3120  from */\n      dup6\n        /* \"Contracts/ERC1155.sol\":3102:3120  msg.sender == from */\n      0xffffffffffffffffffffffffffffffffffffffff\n      and\n        /* \"Contracts/ERC1155.sol\":3102:3112  msg.sender */\n      caller\n        /* \"Contracts/ERC1155.sol\":3102:3120  msg.sender == from */\n      0xffffffffffffffffffffffffffffffffffffffff\n      and\n      eq\n        /* \"Contracts/ERC1155.sol\":3102:3158  msg.sender == from || isApprovedForAll[from][msg.sender] */\n      dup1\n      tag_118\n      jumpi\n      pop\n        /* \"Contracts/ERC1155.sol\":3124:3140  isApprovedForAll */\n      0x01\n        /* \"Contracts/ERC1155.sol\":3124:3146  isApprovedForAll[from] */\n      0x00\n        /* \"Contracts/ERC1155.sol\":3141:3145  from */\n      dup8\n        /* \"Contracts/ERC1155.sol\":3124:3146  isApprovedForAll[from] */\n      0xffffffffffffffffffffffffffffffffffffffff\n      and\n      0xffffffffffffffffffffffffffffffffffffffff\n      and\n      dup2\n      mstore\n      0x20\n      add\n      swap1\n      dup2\n      mstore\n      0x20\n      add\n      0x00\n      keccak256\n        /* \"Contracts/ERC1155.sol\":3124:3158  isApprovedForAll[from][msg.sender] */\n      0x00\n        /* \"Contracts/ERC1155.sol\":3147:3157  msg.sender */\n      caller\n        /* \"Contracts/ERC1155.sol\":3124:3158  isApprovedForAll[from][msg.sender] */\n      0xffffffffffffffffffffffffffffffffffffffff\n      and\n      0xffffffffffffffffffffffffffffffffffffffff\n      and\n      dup2\n      mstore\n      0x20\n      add\n      swap1\n      dup2\n      mstore\n      0x20\n      add\n      0x00\n      keccak256\n      0x00\n      swap1\n      sload\n      swap1\n      0x0100\n      exp\n      swap1\n      div\n      0xff\n      and\n        /* \"Contracts/ERC1155.sol\":3102:3158  msg.sender == from || isApprovedForAll[from][msg.sender] */\n    tag_118:\n        /* \"Contracts/ERC1155.sol\":3081:3196  require(... */\n      tag_119\n      jumpi\n      mload(0x40)\n      0x08c379a000000000000000000000000000000000000000000000000000000000\n      dup2\n      mstore\n      0x04\n      add\n      tag_120\n      swap1\n      tag_61\n      jump\t// in\n    tag_120:\n      mload(0x40)\n      dup1\n      swap2\n      sub\n      swap1\n      revert\n    tag_119:\n        /* \"Contracts/ERC1155.sol\":3228:3229  0 */\n      0x00\n        /* \"Contracts/ERC1155.sol\":3214:3230  to != address(0) */\n      0xffffffffffffffffffffffffffffffffffffffff\n      and\n        /* \"Contracts/ERC1155.sol\":3214:3216  to */\n      dup6\n        /* \"Contracts/ERC1155.sol\":3214:3230  to != address(0) */\n      0xffffffffffffffffffffffffffffffffffffffff\n      and\n      sub\n        /* \"Contracts/ERC1155.sol\":3206:3249  require(to != address(0), \"to = 0 address\") */\n      tag_121\n      jumpi\n      mload(0x40)\n      0x08c379a000000000000000000000000000000000000000000000000000000000\n      dup2\n      mstore\n      0x04\n      add\n      tag_122\n      swap1\n      tag_64\n      jump\t// in\n    tag_122:\n      mload(0x40)\n      dup1\n      swap2\n      sub\n      swap1\n      revert\n    tag_121:\n        /* \"Contracts/ERC1155.sol\":3283:3288  value */\n      dup3\n        /* \"Contracts/ERC1155.sol\":3260:3269  balanceOf */\n      0x00\n        /* \"Contracts/ERC1155.sol\":3260:3275  balanceOf[from] */\n      dup1\n        /* \"Contracts/ERC1155.sol\":3270:3274  from */\n      dup9\n        /* \"Contracts/ERC1155.sol\":3260:3275  balanceOf[from] */\n      0xffffffffffffffffffffffffffffffffffffffff\n      and\n      0xffffffffffffffffffffffffffffffffffffffff\n      and\n      dup2\n      mstore\n      0x20\n      add\n      swap1\n      dup2\n      mstore\n      0x20\n      add\n      0x00\n      keccak256\n        /* \"Contracts/ERC1155.sol\":3260:3279  balanceOf[from][id] */\n      0x00\n        /* \"Contracts/ERC1155.sol\":3276:3278  id */\n      dup7\n        /* \"Contracts/ERC1155.sol\":3260:3279  balanceOf[from][id] */\n      dup2\n      mstore\n      0x20\n      add\n      swap1\n      dup2\n      mstore\n      0x20\n      add\n      0x00\n      keccak256\n      0x00\n        /* \"Contracts/ERC1155.sol\":3260:3288  balanceOf[from][id] -= value */\n      dup3\n      dup3\n      sload\n      tag_123\n      swap2\n      swap1\n      tag_77\n      jump\t// in\n    tag_123:\n      swap3\n      pop\n      pop\n      dup2\n      swap1\n      sstore\n      pop\n        /* \"Contracts/ERC1155.sol\":3319:3324  value */\n      dup3\n        /* \"Contracts/ERC1155.sol\":3298:3307  balanceOf */\n      0x00\n        /* \"Contracts/ERC1155.sol\":3298:3311  balanceOf[to] */\n      dup1\n        /* \"Contracts/ERC1155.sol\":3308:3310  to */\n      dup8\n        /* \"Contracts/ERC1155.sol\":3298:3311  balanceOf[to] */\n      0xffffffffffffffffffffffffffffffffffffffff\n      and\n      0xffffffffffffffffffffffffffffffffffffffff\n      and\n      dup2\n      mstore\n      0x20\n      add\n      swap1\n      dup2\n      mstore\n      0x20\n      add\n      0x00\n      keccak256\n        /* \"Contracts/ERC1155.sol\":3298:3315  balanceOf[to][id] */\n      0x00\n        /* \"Contracts/ERC1155.sol\":3312:3314  id */\n      dup7\n        /* \"Contracts/ERC1155.sol\":3298:3315  balanceOf[to][id] */\n      dup2\n      mstore\n      0x20\n      add\n      swap1\n      dup2\n      mstore\n      0x20\n      add\n      0x00\n      keccak256\n      0x00\n        /* \"Contracts/ERC1155.sol\":3298:3324  balanceOf[to][id] += value */\n      dup3\n      dup3\n      sload\n      tag_124\n      swap2\n      swap1\n      tag_83\n      jump\t// in\n    tag_124:\n      swap3\n      pop\n      pop\n      dup2\n      swap1\n      sstore\n      pop\n        /* \"Contracts/ERC1155.sol\":3373:3375  to */\n      dup5\n        /* \"Contracts/ERC1155.sol\":3340:3387  TransferSingle(msg.sender, from, to, id, value) */\n      0xffffffffffffffffffffffffffffffffffffffff\n      and\n        /* \"Contracts/ERC1155.sol\":3367:3371  from */\n      dup7\n        /* \"Contracts/ERC1155.sol\":3340:3387  TransferSingle(msg.sender, from, to, id, value) */\n      0xffffffffffffffffffffffffffffffffffffffff\n      and\n        /* \"Contracts/ERC1155.sol\":3355:3365  msg.sender */\n      caller\n        /* \"Contracts/ERC1155.sol\":3340:3387  TransferSingle(msg.sender, from, to, id, value) */\n      0xffffffffffffffffffffffffffffffffffffffff\n      and\n      0xc3d58168c5ae7397731d063d5bbf3d657854427343f4c083240f7aacaa2d0f62\n        /* \"Contracts/ERC1155.sol\":3377:3379  id */\n      dup8\n        /* \"Contracts/ERC1155.sol\":3381:3386  value */\n      dup8\n        /* \"Contracts/ERC1155.sol\":3340:3387  TransferSingle(msg.sender, from, to, id, value) */\n      mload(0x40)\n      tag_125\n      swap3\n      swap2\n      swap1\n      tag_126\n      jump\t// in\n    tag_125:\n      mload(0x40)\n      dup1\n      swap2\n      sub\n      swap1\n      log4\n        /* \"Contracts/ERC1155.sol\":3419:3420  0 */\n      0x00\n        /* \"Contracts/ERC1155.sol\":3402:3404  to */\n      dup6\n        /* \"Contracts/ERC1155.sol\":3402:3416  to.code.length */\n      0xffffffffffffffffffffffffffffffffffffffff\n      and\n      extcodesize\n        /* \"Contracts/ERC1155.sol\":3402:3420  to.code.length > 0 */\n      gt\n        /* \"Contracts/ERC1155.sol\":3398:3689  if (to.code.length > 0) {... */\n      iszero\n      tag_127\n      jumpi\n        /* \"Contracts/ERC1155.sol\":3581:3629  IERC1155TokenReceiver.onERC1155Received.selector */\n      shl(0xe0, 0xf23a6e61)\n        /* \"Contracts/ERC1155.sol\":3461:3629  IERC1155TokenReceiver(to).onERC1155Received(... */\n      not(0xffffffffffffffffffffffffffffffffffffffffffffffffffffffff)\n      and\n        /* \"Contracts/ERC1155.sol\":3483:3485  to */\n      dup6\n        /* \"Contracts/ERC1155.sol\":3461:3504  IERC1155TokenReceiver(to).onERC1155Received */\n      0xffffffffffffffffffffffffffffffffffffffff\n      and\n      0xf23a6e61\n        /* \"Contracts/ERC1155.sol\":3526:3536  msg.sender */\n      caller\n        /* \"Contracts/ERC1155.sol\":3538:3542  from */\n      dup10\n        /* \"Contracts/ERC1155.sol\":3544:3546  id */\n      dup9\n        /* \"Contracts/ERC1155.sol\":3548:3553  value */\n      dup9\n        /* \"Contracts/ERC1155.sol\":3555:3559  data */\n      dup9\n      dup9\n        /* \"Contracts/ERC1155.sol\":3461:3577  IERC1155TokenReceiver(to).onERC1155Received(... */\n      mload(0x40)\n      dup8\n      0xffffffff\n      and\n      0xe0\n      shl\n      dup2\n      mstore\n      0x04\n      add\n      tag_128\n      swap7\n      swap6\n      swap5\n      swap4\n      swap3\n      swap2\n      swap1\n      tag_129\n      jump\t// in\n    tag_128:\n      0x20\n      mload(0x40)\n      dup1\n      dup4\n      sub\n      dup2\n      0x00\n      dup8\n      gas\n      call\n      iszero\n      dup1\n      iszero\n      tag_131\n      jumpi\n      returndatasize\n      0x00\n      dup1\n      returndatacopy\n      revert(0x00, returndatasize)\n    tag_131:\n      pop\n      pop\n      pop\n      pop\n      mload(0x40)\n      returndatasize\n      not(0x1f)\n      0x1f\n      dup3\n      add\n      and\n      dup3\n      add\n      dup1\n      0x40\n      mstore\n      pop\n      dup2\n      add\n      swap1\n      tag_132\n      swap2\n      swap1\n      tag_92\n      jump\t// in\n    tag_132:\n        /* \"Contracts/ERC1155.sol\":3461:3629  IERC1155TokenReceiver(to).onERC1155Received(... */\n      not(0xffffffffffffffffffffffffffffffffffffffffffffffffffffffff)\n      and\n      eq\n        /* \"Contracts/ERC1155.sol\":3436:3678  require(... */\n      tag_133\n      jumpi\n      mload(0x40)\n      0x08c379a000000000000000000000000000000000000000000000000000000000\n      dup2\n      mstore\n      0x04\n      add\n      tag_134\n      swap1\n      tag_95\n      jump\t// in\n    tag_134:\n      mload(0x40)\n      dup1\n      swap2\n      sub\n      swap1\n      revert\n    tag_133:\n        /* \"Contracts/ERC1155.sol\":3398:3689  if (to.code.length > 0) {... */\n    tag_127:\n        /* \"Contracts/ERC1155.sol\":2916:3695  function safeTransferFrom(... */\n      pop\n      pop\n      pop\n      pop\n      pop\n      pop\n      jump\t// out\n        /* \"#utility.yul\":88:205   */\n    tag_136:\n        /* \"#utility.yul\":197:198   */\n      0x00\n        /* \"#utility.yul\":194:195   */\n      dup1\n        /* \"#utility.yul\":187:199   */\n      revert\n        /* \"#utility.yul\":211:328   */\n    tag_137:\n        /* \"#utility.yul\":320:321   */\n      0x00\n        /* \"#utility.yul\":317:318   */\n      dup1\n        /* \"#utility.yul\":310:322   */\n      revert\n        /* \"#utility.yul\":334:460   */\n    tag_138:\n        /* \"#utility.yul\":371:378   */\n      0x00\n        /* \"#utility.yul\":411:453   */\n      0xffffffffffffffffffffffffffffffffffffffff\n        /* \"#utility.yul\":404:409   */\n      dup3\n        /* \"#utility.yul\":400:454   */\n      and\n        /* \"#utility.yul\":389:454   */\n      swap1\n      pop\n        /* \"#utility.yul\":334:460   */\n      swap2\n      swap1\n      pop\n      jump\t// out\n        /* \"#utility.yul\":466:562   */\n    tag_139:\n        /* \"#utility.yul\":503:510   */\n      0x00\n        /* \"#utility.yul\":532:556   */\n      tag_196\n        /* \"#utility.yul\":550:555   */\n      dup3\n        /* \"#utility.yul\":532:556   */\n      tag_138\n      jump\t// in\n    tag_196:\n        /* \"#utility.yul\":521:556   */\n      swap1\n      pop\n        /* \"#utility.yul\":466:562   */\n      swap2\n      swap1\n      pop\n      jump\t// out\n        /* \"#utility.yul\":568:690   */\n    tag_140:\n        /* \"#utility.yul\":641:665   */\n      tag_198\n        /* \"#utility.yul\":659:664   */\n      dup2\n        /* \"#utility.yul\":641:665   */\n      tag_139\n      jump\t// in\n    tag_198:\n        /* \"#utility.yul\":634:639   */\n      dup2\n        /* \"#utility.yul\":631:666   */\n      eq\n        /* \"#utility.yul\":621:684   */\n      tag_199\n      jumpi\n        /* \"#utility.yul\":680:681   */\n      0x00\n        /* \"#utility.yul\":677:678   */\n      dup1\n        /* \"#utility.yul\":670:682   */\n      revert\n        /* \"#utility.yul\":621:684   */\n    tag_199:\n        /* \"#utility.yul\":568:690   */\n      pop\n      jump\t// out\n        /* \"#utility.yul\":696:835   */\n    tag_141:\n        /* \"#utility.yul\":742:747   */\n      0x00\n        /* \"#utility.yul\":780:786   */\n      dup2\n        /* \"#utility.yul\":767:787   */\n      calldataload\n        /* \"#utility.yul\":758:787   */\n      swap1\n      pop\n        /* \"#utility.yul\":796:829   */\n      tag_201\n        /* \"#utility.yul\":823:828   */\n      dup2\n        /* \"#utility.yul\":796:829   */\n      tag_140\n      jump\t// in\n    tag_201:\n        /* \"#utility.yul\":696:835   */\n      swap3\n      swap2\n      pop\n      pop\n      jump\t// out\n        /* \"#utility.yul\":841:918   */\n    tag_142:\n        /* \"#utility.yul\":878:885   */\n      0x00\n        /* \"#utility.yul\":907:912   */\n      dup2\n        /* \"#utility.yul\":896:912   */\n      swap1\n      pop\n        /* \"#utility.yul\":841:918   */\n      swap2\n      swap1\n      pop\n      jump\t// out\n        /* \"#utility.yul\":924:1046   */\n    tag_143:\n        /* \"#utility.yul\":997:1021   */\n      tag_204\n        /* \"#utility.yul\":1015:1020   */\n      dup2\n        /* \"#utility.yul\":997:1021   */\n      tag_142\n      jump\t// in\n    tag_204:\n        /* \"#utility.yul\":990:995   */\n      dup2\n        /* \"#utility.yul\":987:1022   */\n      eq\n        /* \"#utility.yul\":977:1040   */\n      tag_205\n      jumpi\n        /* \"#utility.yul\":1036:1037   */\n      0x00\n        /* \"#utility.yul\":1033:1034   */\n      dup1\n        /* \"#utility.yul\":1026:1038   */\n      revert\n        /* \"#utility.yul\":977:1040   */\n    tag_205:\n        /* \"#utility.yul\":924:1046   */\n      pop\n      jump\t// out\n        /* \"#utility.yul\":1052:1191   */\n    tag_144:\n        /* \"#utility.yul\":1098:1103   */\n      0x00\n        /* \"#utility.yul\":1136:1142   */\n      dup2\n        /* \"#utility.yul\":1123:1143   */\n      calldataload\n        /* \"#utility.yul\":1114:1143   */\n      swap1\n      pop\n        /* \"#utility.yul\":1152:1185   */\n      tag_207\n        /* \"#utility.yul\":1179:1184   */\n      dup2\n        /* \"#utility.yul\":1152:1185   */\n      tag_143\n      jump\t// in\n    tag_207:\n        /* \"#utility.yul\":1052:1191   */\n      swap3\n      swap2\n      pop\n      pop\n      jump\t// out\n        /* \"#utility.yul\":1197:1671   */\n    tag_14:\n        /* \"#utility.yul\":1265:1271   */\n      0x00\n        /* \"#utility.yul\":1273:1279   */\n      dup1\n        /* \"#utility.yul\":1322:1324   */\n      0x40\n        /* \"#utility.yul\":1310:1319   */\n      dup4\n        /* \"#utility.yul\":1301:1308   */\n      dup6\n        /* \"#utility.yul\":1297:1320   */\n      sub\n        /* \"#utility.yul\":1293:1325   */\n      slt\n        /* \"#utility.yul\":1290:1409   */\n      iszero\n      tag_209\n      jumpi\n        /* \"#utility.yul\":1328:1407   */\n      tag_210\n      tag_136\n      jump\t// in\n    tag_210:\n        /* \"#utility.yul\":1290:1409   */\n    tag_209:\n        /* \"#utility.yul\":1448:1449   */\n      0x00\n        /* \"#utility.yul\":1473:1526   */\n      tag_211\n        /* \"#utility.yul\":1518:1525   */\n      dup6\n        /* \"#utility.yul\":1509:1515   */\n      dup3\n        /* \"#utility.yul\":1498:1507   */\n      dup7\n        /* \"#utility.yul\":1494:1516   */\n      add\n        /* \"#utility.yul\":1473:1526   */\n      tag_141\n      jump\t// in\n    tag_211:\n        /* \"#utility.yul\":1463:1526   */\n      swap3\n      pop\n        /* \"#utility.yul\":1419:1536   */\n      pop\n        /* \"#utility.yul\":1575:1577   */\n      0x20\n        /* \"#utility.yul\":1601:1654   */\n      tag_212\n        /* \"#utility.yul\":1646:1653   */\n      dup6\n        /* \"#utility.yul\":1637:1643   */\n      dup3\n        /* \"#utility.yul\":1626:1635   */\n      dup7\n        /* \"#utility.yul\":1622:1644   */\n      add\n        /* \"#utility.yul\":1601:1654   */\n      tag_144\n      jump\t// in\n    tag_212:\n        /* \"#utility.yul\":1591:1654   */\n      swap2\n      pop\n        /* \"#utility.yul\":1546:1664   */\n      pop\n        /* \"#utility.yul\":1197:1671   */\n      swap3\n      pop\n      swap3\n      swap1\n      pop\n      jump\t// out\n        /* \"#utility.yul\":1677:1795   */\n    tag_145:\n        /* \"#utility.yul\":1764:1788   */\n      tag_214\n        /* \"#utility.yul\":1782:1787   */\n      dup2\n        /* \"#utility.yul\":1764:1788   */\n      tag_142\n      jump\t// in\n    tag_214:\n        /* \"#utility.yul\":1759:1762   */\n      dup3\n        /* \"#utility.yul\":1752:1789   */\n      mstore\n        /* \"#utility.yul\":1677:1795   */\n      pop\n      pop\n      jump\t// out\n        /* \"#utility.yul\":1801:2023   */\n    tag_17:\n        /* \"#utility.yul\":1894:1898   */\n      0x00\n        /* \"#utility.yul\":1932:1934   */\n      0x20\n        /* \"#utility.yul\":1921:1930   */\n      dup3\n        /* \"#utility.yul\":1917:1935   */\n      add\n        /* \"#utility.yul\":1909:1935   */\n      swap1\n      pop\n        /* \"#utility.yul\":1945:2016   */\n      tag_216\n        /* \"#utility.yul\":2013:2014   */\n      0x00\n        /* \"#utility.yul\":2002:2011   */\n      dup4\n        /* \"#utility.yul\":1998:2015   */\n      add\n        /* \"#utility.yul\":1989:1995   */\n      dup5\n        /* \"#utility.yul\":1945:2016   */\n      tag_145\n      jump\t// in\n    tag_216:\n        /* \"#utility.yul\":1801:2023   */\n      swap3\n      swap2\n      pop\n      pop\n      jump\t// out\n        /* \"#utility.yul\":2029:2178   */\n    tag_146:\n        /* \"#utility.yul\":2065:2072   */\n      0x00\n        /* \"#utility.yul\":2105:2171   */\n      0xffffffff00000000000000000000000000000000000000000000000000000000\n        /* \"#utility.yul\":2098:2103   */\n      dup3\n        /* \"#utility.yul\":2094:2172   */\n      and\n        /* \"#utility.yul\":2083:2172   */\n      swap1\n      pop\n        /* \"#utility.yul\":2029:2178   */\n      swap2\n      swap1\n      pop\n      jump\t// out\n        /* \"#utility.yul\":2184:2304   */\n    tag_147:\n        /* \"#utility.yul\":2256:2279   */\n      tag_219\n        /* \"#utility.yul\":2273:2278   */\n      dup2\n        /* \"#utility.yul\":2256:2279   */\n      tag_146\n      jump\t// in\n    tag_219:\n        /* \"#utility.yul\":2249:2254   */\n      dup2\n        /* \"#utility.yul\":2246:2280   */\n      eq\n        /* \"#utility.yul\":2236:2298   */\n      tag_220\n      jumpi\n        /* \"#utility.yul\":2294:2295   */\n      0x00\n        /* \"#utility.yul\":2291:2292   */\n      dup1\n        /* \"#utility.yul\":2284:2296   */\n      revert\n        /* \"#utility.yul\":2236:2298   */\n    tag_220:\n        /* \"#utility.yul\":2184:2304   */\n      pop\n      jump\t// out\n        /* \"#utility.yul\":2310:2447   */\n    tag_148:\n        /* \"#utility.yul\":2355:2360   */\n      0x00\n        /* \"#utility.yul\":2393:2399   */\n      dup2\n        /* \"#utility.yul\":2380:2400   */\n      calldataload\n        /* \"#utility.yul\":2371:2400   */\n      swap1\n      pop\n        /* \"#utility.yul\":2409:2441   */\n      tag_222\n        /* \"#utility.yul\":2435:2440   */\n      dup2\n        /* \"#utility.yul\":2409:2441   */\n      tag_147\n      jump\t// in\n    tag_222:\n        /* \"#utility.yul\":2310:2447   */\n      swap3\n      swap2\n      pop\n      pop\n      jump\t// out\n        /* \"#utility.yul\":2453:2780   */\n    tag_20:\n        /* \"#utility.yul\":2511:2517   */\n      0x00\n        /* \"#utility.yul\":2560:2562   */\n      0x20\n        /* \"#utility.yul\":2548:2557   */\n      dup3\n        /* \"#utility.yul\":2539:2546   */\n      dup5\n        /* \"#utility.yul\":2535:2558   */\n      sub\n        /* \"#utility.yul\":2531:2563   */\n      slt\n        /* \"#utility.yul\":2528:2647   */\n      iszero\n      tag_224\n      jumpi\n        /* \"#utility.yul\":2566:2645   */\n      tag_225\n      tag_136\n      jump\t// in\n    tag_225:\n        /* \"#utility.yul\":2528:2647   */\n    tag_224:\n        /* \"#utility.yul\":2686:2687   */\n      0x00\n        /* \"#utility.yul\":2711:2763   */\n      tag_226\n        /* \"#utility.yul\":2755:2762   */\n      dup5\n        /* \"#utility.yul\":2746:2752   */\n      dup3\n        /* \"#utility.yul\":2735:2744   */\n      dup6\n        /* \"#utility.yul\":2731:2753   */\n      add\n        /* \"#utility.yul\":2711:2763   */\n      tag_148\n      jump\t// in\n    tag_226:\n        /* \"#utility.yul\":2701:2763   */\n      swap2\n      pop\n        /* \"#utility.yul\":2657:2773   */\n      pop\n        /* \"#utility.yul\":2453:2780   */\n      swap3\n      swap2\n      pop\n      pop\n      jump\t// out\n        /* \"#utility.yul\":2786:2876   */\n    tag_149:\n        /* \"#utility.yul\":2820:2827   */\n      0x00\n        /* \"#utility.yul\":2863:2868   */\n      dup2\n        /* \"#utility.yul\":2856:2869   */\n      iszero\n        /* \"#utility.yul\":2849:2870   */\n      iszero\n        /* \"#utility.yul\":2838:2870   */\n      swap1\n      pop\n        /* \"#utility.yul\":2786:2876   */\n      swap2\n      swap1\n      pop\n      jump\t// out\n        /* \"#utility.yul\":2882:2991   */\n    tag_150:\n        /* \"#utility.yul\":2963:2984   */\n      tag_229\n        /* \"#utility.yul\":2978:2983   */\n      dup2\n        /* \"#utility.yul\":2963:2984   */\n      tag_149\n      jump\t// in\n    tag_229:\n        /* \"#utility.yul\":2958:2961   */\n      dup3\n        /* \"#utility.yul\":2951:2985   */\n      mstore\n        /* \"#utility.yul\":2882:2991   */\n      pop\n      pop\n      jump\t// out\n        /* \"#utility.yul\":2997:3207   */\n    tag_23:\n        /* \"#utility.yul\":3084:3088   */\n      0x00\n        /* \"#utility.yul\":3122:3124   */\n      0x20\n        /* \"#utility.yul\":3111:3120   */\n      dup3\n        /* \"#utility.yul\":3107:3125   */\n      add\n        /* \"#utility.yul\":3099:3125   */\n      swap1\n      pop\n        /* \"#utility.yul\":3135:3200   */\n      tag_231\n        /* \"#utility.yul\":3197:3198   */\n      0x00\n        /* \"#utility.yul\":3186:3195   */\n      dup4\n        /* \"#utility.yul\":3182:3199   */\n      add\n        /* \"#utility.yul\":3173:3179   */\n      dup5\n        /* \"#utility.yul\":3135:3200   */\n      tag_150\n      jump\t// in\n    tag_231:\n        /* \"#utility.yul\":2997:3207   */\n      swap3\n      swap2\n      pop\n      pop\n      jump\t// out\n        /* \"#utility.yul\":3213:3542   */\n    tag_26:\n        /* \"#utility.yul\":3272:3278   */\n      0x00\n        /* \"#utility.yul\":3321:3323   */\n      0x20\n        /* \"#utility.yul\":3309:3318   */\n      dup3\n        /* \"#utility.yul\":3300:3307   */\n      dup5\n        /* \"#utility.yul\":3296:3319   */\n      sub\n        /* \"#utility.yul\":3292:3324   */\n      slt\n        /* \"#utility.yul\":3289:3408   */\n      iszero\n      tag_233\n      jumpi\n        /* \"#utility.yul\":3327:3406   */\n      tag_234\n      tag_136\n      jump\t// in\n    tag_234:\n        /* \"#utility.yul\":3289:3408   */\n    tag_233:\n        /* \"#utility.yul\":3447:3448   */\n      0x00\n        /* \"#utility.yul\":3472:3525   */\n      tag_235\n        /* \"#utility.yul\":3517:3524   */\n      dup5\n        /* \"#utility.yul\":3508:3514   */\n      dup3\n        /* \"#utility.yul\":3497:3506   */\n      dup6\n        /* \"#utility.yul\":3493:3515   */\n      add\n        /* \"#utility.yul\":3472:3525   */\n      tag_144\n      jump\t// in\n    tag_235:\n        /* \"#utility.yul\":3462:3525   */\n      swap2\n      pop\n        /* \"#utility.yul\":3418:3535   */\n      pop\n        /* \"#utility.yul\":3213:3542   */\n      swap3\n      swap2\n      pop\n      pop\n      jump\t// out\n        /* \"#utility.yul\":3548:3647   */\n    tag_151:\n        /* \"#utility.yul\":3600:3606   */\n      0x00\n        /* \"#utility.yul\":3634:3639   */\n      dup2\n        /* \"#utility.yul\":3628:3640   */\n      mload\n        /* \"#utility.yul\":3618:3640   */\n      swap1\n      pop\n        /* \"#utility.yul\":3548:3647   */\n      swap2\n      swap1\n      pop\n      jump\t// out\n        /* \"#utility.yul\":3653:3822   */\n    tag_152:\n        /* \"#utility.yul\":3737:3748   */\n      0x00\n        /* \"#utility.yul\":3771:3777   */\n      dup3\n        /* \"#utility.yul\":3766:3769   */\n      dup3\n        /* \"#utility.yul\":3759:3778   */\n      mstore\n        /* \"#utility.yul\":3811:3815   */\n      0x20\n        /* \"#utility.yul\":3806:3809   */\n      dup3\n        /* \"#utility.yul\":3802:3816   */\n      add\n        /* \"#utility.yul\":3787:3816   */\n      swap1\n      pop\n        /* \"#utility.yul\":3653:3822   */\n      swap3\n      swap2\n      pop\n      pop\n      jump\t// out\n        /* \"#utility.yul\":3828:3967   */\n    tag_153:\n        /* \"#utility.yul\":3917:3923   */\n      dup3\n        /* \"#utility.yul\":3912:3915   */\n      dup2\n        /* \"#utility.yul\":3907:3910   */\n      dup4\n        /* \"#utility.yul\":3901:3924   */\n      mcopy\n        /* \"#utility.yul\":3958:3959   */\n      0x00\n        /* \"#utility.yul\":3949:3955   */\n      dup4\n        /* \"#utility.yul\":3944:3947   */\n      dup4\n        /* \"#utility.yul\":3940:3956   */\n      add\n        /* \"#utility.yul\":3933:3960   */\n      mstore\n        /* \"#utility.yul\":3828:3967   */\n      pop\n      pop\n      pop\n      jump\t// out\n        /* \"#utility.yul\":3973:4075   */\n    tag_154:\n        /* \"#utility.yul\":4014:4020   */\n      0x00\n        /* \"#utility.yul\":4065:4067   */\n      0x1f\n        /* \"#utility.yul\":4061:4068   */\n      not\n        /* \"#utility.yul\":4056:4058   */\n      0x1f\n        /* \"#utility.yul\":4049:4054   */\n      dup4\n        /* \"#utility.yul\":4045:4059   */\n      add\n        /* \"#utility.yul\":4041:4069   */\n      and\n        /* \"#utility.yul\":4031:4069   */\n      swap1\n      pop\n        /* \"#utility.yul\":3973:4075   */\n      swap2\n      swap1\n      pop\n      jump\t// out\n        /* \"#utility.yul\":4081:4458   */\n    tag_155:\n        /* \"#utility.yul\":4169:4172   */\n      0x00\n        /* \"#utility.yul\":4197:4236   */\n      tag_241\n        /* \"#utility.yul\":4230:4235   */\n      dup3\n        /* \"#utility.yul\":4197:4236   */\n      tag_151\n      jump\t// in\n    tag_241:\n        /* \"#utility.yul\":4252:4323   */\n      tag_242\n        /* \"#utility.yul\":4316:4322   */\n      dup2\n        /* \"#utility.yul\":4311:4314   */\n      dup6\n        /* \"#utility.yul\":4252:4323   */\n      tag_152\n      jump\t// in\n    tag_242:\n        /* \"#utility.yul\":4245:4323   */\n      swap4\n      pop\n        /* \"#utility.yul\":4332:4397   */\n      tag_243\n        /* \"#utility.yul\":4390:4396   */\n      dup2\n        /* \"#utility.yul\":4385:4388   */\n      dup6\n        /* \"#utility.yul\":4378:4382   */\n      0x20\n        /* \"#utility.yul\":4371:4376   */\n      dup7\n        /* \"#utility.yul\":4367:4383   */\n      add\n        /* \"#utility.yul\":4332:4397   */\n      tag_153\n      jump\t// in\n    tag_243:\n        /* \"#utility.yul\":4422:4451   */\n      tag_244\n        /* \"#utility.yul\":4444:4450   */\n      dup2\n        /* \"#utility.yul\":4422:4451   */\n      tag_154\n      jump\t// in\n    tag_244:\n        /* \"#utility.yul\":4417:4420   */\n      dup5\n        /* \"#utility.yul\":4413:4452   */\n      add\n        /* \"#utility.yul\":4406:4452   */\n      swap2\n      pop\n        /* \"#utility.yul\":4173:4458   */\n      pop\n        /* \"#utility.yul\":4081:4458   */\n      swap3\n      swap2\n      pop\n      pop\n      jump\t// out\n        /* \"#utility.yul\":4464:4777   */\n    tag_29:\n        /* \"#utility.yul\":4577:4581   */\n      0x00\n        /* \"#utility.yul\":4615:4617   */\n      0x20\n        /* \"#utility.yul\":4604:4613   */\n      dup3\n        /* \"#utility.yul\":4600:4618   */\n      add\n        /* \"#utility.yul\":4592:4618   */\n      swap1\n      pop\n        /* \"#utility.yul\":4664:4673   */\n      dup2\n        /* \"#utility.yul\":4658:4662   */\n      dup2\n        /* \"#utility.yul\":4654:4674   */\n      sub\n        /* \"#utility.yul\":4650:4651   */\n      0x00\n        /* \"#utility.yul\":4639:4648   */\n      dup4\n        /* \"#utility.yul\":4635:4652   */\n      add\n        /* \"#utility.yul\":4628:4675   */\n      mstore\n        /* \"#utility.yul\":4692:4770   */\n      tag_246\n        /* \"#utility.yul\":4765:4769   */\n      dup2\n        /* \"#utility.yul\":4756:4762   */\n      dup5\n        /* \"#utility.yul\":4692:4770   */\n      tag_155\n      jump\t// in\n    tag_246:\n        /* \"#utility.yul\":4684:4770   */\n      swap1\n      pop\n        /* \"#utility.yul\":4464:4777   */\n      swap3\n      swap2\n      pop\n      pop\n      jump\t// out\n        /* \"#utility.yul\":4783:4900   */\n    tag_156:\n        /* \"#utility.yul\":4892:4893   */\n      0x00\n        /* \"#utility.yul\":4889:4890   */\n      dup1\n        /* \"#utility.yul\":4882:4894   */\n      revert\n        /* \"#utility.yul\":4906:5023   */\n    tag_157:\n        /* \"#utility.yul\":5015:5016   */\n      0x00\n        /* \"#utility.yul\":5012:5013   */\n      dup1\n        /* \"#utility.yul\":5005:5017   */\n      revert\n        /* \"#utility.yul\":5029:5146   */\n    tag_158:\n        /* \"#utility.yul\":5138:5139   */\n      0x00\n        /* \"#utility.yul\":5135:5136   */\n      dup1\n        /* \"#utility.yul\":5128:5140   */\n      revert\n        /* \"#utility.yul\":5169:5737   */\n    tag_159:\n        /* \"#utility.yul\":5242:5250   */\n      0x00\n        /* \"#utility.yul\":5252:5258   */\n      dup1\n        /* \"#utility.yul\":5302:5305   */\n      dup4\n        /* \"#utility.yul\":5295:5299   */\n      0x1f\n        /* \"#utility.yul\":5287:5293   */\n      dup5\n        /* \"#utility.yul\":5283:5300   */\n      add\n        /* \"#utility.yul\":5279:5306   */\n      slt\n        /* \"#utility.yul\":5269:5391   */\n      tag_251\n      jumpi\n        /* \"#utility.yul\":5310:5389   */\n      tag_252\n      tag_156\n      jump\t// in\n    tag_252:\n        /* \"#utility.yul\":5269:5391   */\n    tag_251:\n        /* \"#utility.yul\":5423:5429   */\n      dup3\n        /* \"#utility.yul\":5410:5430   */\n      calldataload\n        /* \"#utility.yul\":5400:5430   */\n      swap1\n      pop\n        /* \"#utility.yul\":5453:5471   */\n      0xffffffffffffffff\n        /* \"#utility.yul\":5445:5451   */\n      dup2\n        /* \"#utility.yul\":5442:5472   */\n      gt\n        /* \"#utility.yul\":5439:5556   */\n      iszero\n      tag_253\n      jumpi\n        /* \"#utility.yul\":5475:5554   */\n      tag_254\n      tag_157\n      jump\t// in\n    tag_254:\n        /* \"#utility.yul\":5439:5556   */\n    tag_253:\n        /* \"#utility.yul\":5589:5593   */\n      0x20\n        /* \"#utility.yul\":5581:5587   */\n      dup4\n        /* \"#utility.yul\":5577:5594   */\n      add\n        /* \"#utility.yul\":5565:5594   */\n      swap2\n      pop\n        /* \"#utility.yul\":5643:5646   */\n      dup4\n        /* \"#utility.yul\":5635:5639   */\n      0x20\n        /* \"#utility.yul\":5627:5633   */\n      dup3\n        /* \"#utility.yul\":5623:5640   */\n      mul\n        /* \"#utility.yul\":5613:5621   */\n      dup4\n        /* \"#utility.yul\":5609:5641   */\n      add\n        /* \"#utility.yul\":5606:5647   */\n      gt\n        /* \"#utility.yul\":5603:5731   */\n      iszero\n      tag_255\n      jumpi\n        /* \"#utility.yul\":5650:5729   */\n      tag_256\n      tag_158\n      jump\t// in\n    tag_256:\n        /* \"#utility.yul\":5603:5731   */\n    tag_255:\n        /* \"#utility.yul\":5169:5737   */\n      swap3\n      pop\n      swap3\n      swap1\n      pop\n      jump\t// out\n        /* \"#utility.yul\":5756:6308   */\n    tag_160:\n        /* \"#utility.yul\":5813:5821   */\n      0x00\n        /* \"#utility.yul\":5823:5829   */\n      dup1\n        /* \"#utility.yul\":5873:5876   */\n      dup4\n        /* \"#utility.yul\":5866:5870   */\n      0x1f\n        /* \"#utility.yul\":5858:5864   */\n      dup5\n        /* \"#utility.yul\":5854:5871   */\n      add\n        /* \"#utility.yul\":5850:5877   */\n      slt\n        /* \"#utility.yul\":5840:5962   */\n      tag_258\n      jumpi\n        /* \"#utility.yul\":5881:5960   */\n      tag_259\n      tag_156\n      jump\t// in\n    tag_259:\n        /* \"#utility.yul\":5840:5962   */\n    tag_258:\n        /* \"#utility.yul\":5994:6000   */\n      dup3\n        /* \"#utility.yul\":5981:6001   */\n      calldataload\n        /* \"#utility.yul\":5971:6001   */\n      swap1\n      pop\n        /* \"#utility.yul\":6024:6042   */\n      0xffffffffffffffff\n        /* \"#utility.yul\":6016:6022   */\n      dup2\n        /* \"#utility.yul\":6013:6043   */\n      gt\n        /* \"#utility.yul\":6010:6127   */\n      iszero\n      tag_260\n      jumpi\n        /* \"#utility.yul\":6046:6125   */\n      tag_261\n      tag_157\n      jump\t// in\n    tag_261:\n        /* \"#utility.yul\":6010:6127   */\n    tag_260:\n        /* \"#utility.yul\":6160:6164   */\n      0x20\n        /* \"#utility.yul\":6152:6158   */\n      dup4\n        /* \"#utility.yul\":6148:6165   */\n      add\n        /* \"#utility.yul\":6136:6165   */\n      swap2\n      pop\n        /* \"#utility.yul\":6214:6217   */\n      dup4\n        /* \"#utility.yul\":6206:6210   */\n      0x01\n        /* \"#utility.yul\":6198:6204   */\n      dup3\n        /* \"#utility.yul\":6194:6211   */\n      mul\n        /* \"#utility.yul\":6184:6192   */\n      dup4\n        /* \"#utility.yul\":6180:6212   */\n      add\n        /* \"#utility.yul\":6177:6218   */\n      gt\n        /* \"#utility.yul\":6174:6302   */\n      iszero\n      tag_262\n      jumpi\n        /* \"#utility.yul\":6221:6300   */\n      tag_263\n      tag_158\n      jump\t// in\n    tag_263:\n        /* \"#utility.yul\":6174:6302   */\n    tag_262:\n        /* \"#utility.yul\":5756:6308   */\n      swap3\n      pop\n      swap3\n      swap1\n      pop\n      jump\t// out\n        /* \"#utility.yul\":6314:7883   */\n    tag_32:\n        /* \"#utility.yul\":6474:6480   */\n      0x00\n        /* \"#utility.yul\":6482:6488   */\n      dup1\n        /* \"#utility.yul\":6490:6496   */\n      0x00\n        /* \"#utility.yul\":6498:6504   */\n      dup1\n        /* \"#utility.yul\":6506:6512   */\n      0x00\n        /* \"#utility.yul\":6514:6520   */\n      dup1\n        /* \"#utility.yul\":6522:6528   */\n      0x00\n        /* \"#utility.yul\":6530:6536   */\n      dup1\n        /* \"#utility.yul\":6579:6582   */\n      0xa0\n        /* \"#utility.yul\":6567:6576   */\n      dup10\n        /* \"#utility.yul\":6558:6565   */\n      dup12\n        /* \"#utility.yul\":6554:6577   */\n      sub\n        /* \"#utility.yul\":6550:6583   */\n      slt\n        /* \"#utility.yul\":6547:6667   */\n      iszero\n      tag_265\n      jumpi\n        /* \"#utility.yul\":6586:6665   */\n      tag_266\n      tag_136\n      jump\t// in\n    tag_266:\n        /* \"#utility.yul\":6547:6667   */\n    tag_265:\n        /* \"#utility.yul\":6706:6707   */\n      0x00\n        /* \"#utility.yul\":6731:6784   */\n      tag_267\n        /* \"#utility.yul\":6776:6783   */\n      dup12\n        /* \"#utility.yul\":6767:6773   */\n      dup3\n        /* \"#utility.yul\":6756:6765   */\n      dup13\n        /* \"#utility.yul\":6752:6774   */\n      add\n        /* \"#utility.yul\":6731:6784   */\n      tag_141\n      jump\t// in\n    tag_267:\n        /* \"#utility.yul\":6721:6784   */\n      swap9\n      pop\n        /* \"#utility.yul\":6677:6794   */\n      pop\n        /* \"#utility.yul\":6833:6835   */\n      0x20\n        /* \"#utility.yul\":6859:6912   */\n      tag_268\n        /* \"#utility.yul\":6904:6911   */\n      dup12\n        /* \"#utility.yul\":6895:6901   */\n      dup3\n        /* \"#utility.yul\":6884:6893   */\n      dup13\n        /* \"#utility.yul\":6880:6902   */\n      add\n        /* \"#utility.yul\":6859:6912   */\n      tag_141\n      jump\t// in\n    tag_268:\n        /* \"#utility.yul\":6849:6912   */\n      swap8\n      pop\n        /* \"#utility.yul\":6804:6922   */\n      pop\n        /* \"#utility.yul\":6989:6991   */\n      0x40\n        /* \"#utility.yul\":6978:6987   */\n      dup10\n        /* \"#utility.yul\":6974:6992   */\n      add\n        /* \"#utility.yul\":6961:6993   */\n      calldataload\n        /* \"#utility.yul\":7020:7038   */\n      0xffffffffffffffff\n        /* \"#utility.yul\":7012:7018   */\n      dup2\n        /* \"#utility.yul\":7009:7039   */\n      gt\n        /* \"#utility.yul\":7006:7123   */\n      iszero\n      tag_269\n      jumpi\n        /* \"#utility.yul\":7042:7121   */\n      tag_270\n      tag_137\n      jump\t// in\n    tag_270:\n        /* \"#utility.yul\":7006:7123   */\n    tag_269:\n        /* \"#utility.yul\":7155:7235   */\n      tag_271\n        /* \"#utility.yul\":7227:7234   */\n      dup12\n        /* \"#utility.yul\":7218:7224   */\n      dup3\n        /* \"#utility.yul\":7207:7216   */\n      dup13\n        /* \"#utility.yul\":7203:7225   */\n      add\n        /* \"#utility.yul\":7155:7235   */\n      tag_159\n      jump\t// in\n    tag_271:\n        /* \"#utility.yul\":7137:7235   */\n      swap7\n      pop\n      swap7\n      pop\n        /* \"#utility.yul\":6932:7245   */\n      pop\n        /* \"#utility.yul\":7312:7314   */\n      0x60\n        /* \"#utility.yul\":7301:7310   */\n      dup10\n        /* \"#utility.yul\":7297:7315   */\n      add\n        /* \"#utility.yul\":7284:7316   */\n      calldataload\n        /* \"#utility.yul\":7343:7361   */\n      0xffffffffffffffff\n        /* \"#utility.yul\":7335:7341   */\n      dup2\n        /* \"#utility.yul\":7332:7362   */\n      gt\n        /* \"#utility.yul\":7329:7446   */\n      iszero\n      tag_272\n      jumpi\n        /* \"#utility.yul\":7365:7444   */\n      tag_273\n      tag_137\n      jump\t// in\n    tag_273:\n        /* \"#utility.yul\":7329:7446   */\n    tag_272:\n        /* \"#utility.yul\":7478:7558   */\n      tag_274\n        /* \"#utility.yul\":7550:7557   */\n      dup12\n        /* \"#utility.yul\":7541:7547   */\n      dup3\n        /* \"#utility.yul\":7530:7539   */\n      dup13\n        /* \"#utility.yul\":7526:7548   */\n      add\n        /* \"#utility.yul\":7478:7558   */\n      tag_159\n      jump\t// in\n    tag_274:\n        /* \"#utility.yul\":7460:7558   */\n      swap5\n      pop\n      swap5\n      pop\n        /* \"#utility.yul\":7255:7568   */\n      pop\n        /* \"#utility.yul\":7635:7638   */\n      0x80\n        /* \"#utility.yul\":7624:7633   */\n      dup10\n        /* \"#utility.yul\":7620:7639   */\n      add\n        /* \"#utility.yul\":7607:7640   */\n      calldataload\n        /* \"#utility.yul\":7667:7685   */\n      0xffffffffffffffff\n        /* \"#utility.yul\":7659:7665   */\n      dup2\n        /* \"#utility.yul\":7656:7686   */\n      gt\n        /* \"#utility.yul\":7653:7770   */\n      iszero\n      tag_275\n      jumpi\n        /* \"#utility.yul\":7689:7768   */\n      tag_276\n      tag_137\n      jump\t// in\n    tag_276:\n        /* \"#utility.yul\":7653:7770   */\n    tag_275:\n        /* \"#utility.yul\":7802:7866   */\n      tag_277\n        /* \"#utility.yul\":7858:7865   */\n      dup12\n        /* \"#utility.yul\":7849:7855   */\n      dup3\n        /* \"#utility.yul\":7838:7847   */\n      dup13\n        /* \"#utility.yul\":7834:7856   */\n      add\n        /* \"#utility.yul\":7802:7866   */\n      tag_160\n      jump\t// in\n    tag_277:\n        /* \"#utility.yul\":7784:7866   */\n      swap3\n      pop\n      swap3\n      pop\n        /* \"#utility.yul\":7578:7876   */\n      pop\n        /* \"#utility.yul\":6314:7883   */\n      swap3\n      swap6\n      swap9\n      pop\n      swap3\n      swap6\n      swap9\n      swap1\n      swap4\n      swap7\n      pop\n      jump\t// out\n        /* \"#utility.yul\":7906:8474   */\n    tag_161:\n        /* \"#utility.yul\":7979:7987   */\n      0x00\n        /* \"#utility.yul\":7989:7995   */\n      dup1\n        /* \"#utility.yul\":8039:8042   */\n      dup4\n        /* \"#utility.yul\":8032:8036   */\n      0x1f\n        /* \"#utility.yul\":8024:8030   */\n      dup5\n        /* \"#utility.yul\":8020:8037   */\n      add\n        /* \"#utility.yul\":8016:8043   */\n      slt\n        /* \"#utility.yul\":8006:8128   */\n      tag_279\n      jumpi\n        /* \"#utility.yul\":8047:8126   */\n      tag_280\n      tag_156\n      jump\t// in\n    tag_280:\n        /* \"#utility.yul\":8006:8128   */\n    tag_279:\n        /* \"#utility.yul\":8160:8166   */\n      dup3\n        /* \"#utility.yul\":8147:8167   */\n      calldataload\n        /* \"#utility.yul\":8137:8167   */\n      swap1\n      pop\n        /* \"#utility.yul\":8190:8208   */\n      0xffffffffffffffff\n        /* \"#utility.yul\":8182:8188   */\n      dup2\n        /* \"#utility.yul\":8179:8209   */\n      gt\n        /* \"#utility.yul\":8176:8293   */\n      iszero\n      tag_281\n      jumpi\n        /* \"#utility.yul\":8212:8291   */\n      tag_282\n      tag_157\n      jump\t// in\n    tag_282:\n        /* \"#utility.yul\":8176:8293   */\n    tag_281:\n        /* \"#utility.yul\":8326:8330   */\n      0x20\n        /* \"#utility.yul\":8318:8324   */\n      dup4\n        /* \"#utility.yul\":8314:8331   */\n      add\n        /* \"#utility.yul\":8302:8331   */\n      swap2\n      pop\n        /* \"#utility.yul\":8380:8383   */\n      dup4\n        /* \"#utility.yul\":8372:8376   */\n      0x20\n        /* \"#utility.yul\":8364:8370   */\n      dup3\n        /* \"#utility.yul\":8360:8377   */\n      mul\n        /* \"#utility.yul\":8350:8358   */\n      dup4\n        /* \"#utility.yul\":8346:8378   */\n      add\n        /* \"#utility.yul\":8343:8384   */\n      gt\n        /* \"#utility.yul\":8340:8468   */\n      iszero\n      tag_283\n      jumpi\n        /* \"#utility.yul\":8387:8466   */\n      tag_284\n      tag_158\n      jump\t// in\n    tag_284:\n        /* \"#utility.yul\":8340:8468   */\n    tag_283:\n        /* \"#utility.yul\":7906:8474   */\n      swap3\n      pop\n      swap3\n      swap1\n      pop\n      jump\t// out\n        /* \"#utility.yul\":8480:9414   */\n    tag_36:\n        /* \"#utility.yul\":8602:8608   */\n      0x00\n        /* \"#utility.yul\":8610:8616   */\n      dup1\n        /* \"#utility.yul\":8618:8624   */\n      0x00\n        /* \"#utility.yul\":8626:8632   */\n      dup1\n        /* \"#utility.yul\":8675:8677   */\n      0x40\n        /* \"#utility.yul\":8663:8672   */\n      dup6\n        /* \"#utility.yul\":8654:8661   */\n      dup8\n        /* \"#utility.yul\":8650:8673   */\n      sub\n        /* \"#utility.yul\":8646:8678   */\n      slt\n        /* \"#utility.yul\":8643:8762   */\n      iszero\n      tag_286\n      jumpi\n        /* \"#utility.yul\":8681:8760   */\n      tag_287\n      tag_136\n      jump\t// in\n    tag_287:\n        /* \"#utility.yul\":8643:8762   */\n    tag_286:\n        /* \"#utility.yul\":8829:8830   */\n      0x00\n        /* \"#utility.yul\":8818:8827   */\n      dup6\n        /* \"#utility.yul\":8814:8831   */\n      add\n        /* \"#utility.yul\":8801:8832   */\n      calldataload\n        /* \"#utility.yul\":8859:8877   */\n      0xffffffffffffffff\n        /* \"#utility.yul\":8851:8857   */\n      dup2\n        /* \"#utility.yul\":8848:8878   */\n      gt\n        /* \"#utility.yul\":8845:8962   */\n      iszero\n      tag_288\n      jumpi\n        /* \"#utility.yul\":8881:8960   */\n      tag_289\n      tag_137\n      jump\t// in\n    tag_289:\n        /* \"#utility.yul\":8845:8962   */\n    tag_288:\n        /* \"#utility.yul\":8994:9074   */\n      tag_290\n        /* \"#utility.yul\":9066:9073   */\n      dup8\n        /* \"#utility.yul\":9057:9063   */\n      dup3\n        /* \"#utility.yul\":9046:9055   */\n      dup9\n        /* \"#utility.yul\":9042:9064   */\n      add\n        /* \"#utility.yul\":8994:9074   */\n      tag_161\n      jump\t// in\n    tag_290:\n        /* \"#utility.yul\":8976:9074   */\n      swap5\n      pop\n      swap5\n      pop\n        /* \"#utility.yul\":8772:9084   */\n      pop\n        /* \"#utility.yul\":9151:9153   */\n      0x20\n        /* \"#utility.yul\":9140:9149   */\n      dup6\n        /* \"#utility.yul\":9136:9154   */\n      add\n        /* \"#utility.yul\":9123:9155   */\n      calldataload\n        /* \"#utility.yul\":9182:9200   */\n      0xffffffffffffffff\n        /* \"#utility.yul\":9174:9180   */\n      dup2\n        /* \"#utility.yul\":9171:9201   */\n      gt\n        /* \"#utility.yul\":9168:9285   */\n      iszero\n      tag_291\n      jumpi\n        /* \"#utility.yul\":9204:9283   */\n      tag_292\n      tag_137\n      jump\t// in\n    tag_292:\n        /* \"#utility.yul\":9168:9285   */\n    tag_291:\n        /* \"#utility.yul\":9317:9397   */\n      tag_293\n        /* \"#utility.yul\":9389:9396   */\n      dup8\n        /* \"#utility.yul\":9380:9386   */\n      dup3\n        /* \"#utility.yul\":9369:9378   */\n      dup9\n        /* \"#utility.yul\":9365:9387   */\n      add\n        /* \"#utility.yul\":9317:9397   */\n      tag_159\n      jump\t// in\n    tag_293:\n        /* \"#utility.yul\":9299:9397   */\n      swap3\n      pop\n      swap3\n      pop\n        /* \"#utility.yul\":9094:9407   */\n      pop\n        /* \"#utility.yul\":8480:9414   */\n      swap3\n      swap6\n      swap2\n      swap5\n      pop\n      swap3\n      pop\n      jump\t// out\n        /* \"#utility.yul\":9420:9534   */\n    tag_162:\n        /* \"#utility.yul\":9487:9493   */\n      0x00\n        /* \"#utility.yul\":9521:9526   */\n      dup2\n        /* \"#utility.yul\":9515:9527   */\n      mload\n        /* \"#utility.yul\":9505:9527   */\n      swap1\n      pop\n        /* \"#utility.yul\":9420:9534   */\n      swap2\n      swap1\n      pop\n      jump\t// out\n        /* \"#utility.yul\":9540:9724   */\n    tag_163:\n        /* \"#utility.yul\":9639:9650   */\n      0x00\n        /* \"#utility.yul\":9673:9679   */\n      dup3\n        /* \"#utility.yul\":9668:9671   */\n      dup3\n        /* \"#utility.yul\":9661:9680   */\n      mstore\n        /* \"#utility.yul\":9713:9717   */\n      0x20\n        /* \"#utility.yul\":9708:9711   */\n      dup3\n        /* \"#utility.yul\":9704:9718   */\n      add\n        /* \"#utility.yul\":9689:9718   */\n      swap1\n      pop\n        /* \"#utility.yul\":9540:9724   */\n      swap3\n      swap2\n      pop\n      pop\n      jump\t// out\n        /* \"#utility.yul\":9730:9862   */\n    tag_164:\n        /* \"#utility.yul\":9797:9801   */\n      0x00\n        /* \"#utility.yul\":9820:9823   */\n      dup2\n        /* \"#utility.yul\":9812:9823   */\n      swap1\n      pop\n        /* \"#utility.yul\":9850:9854   */\n      0x20\n        /* \"#utility.yul\":9845:9848   */\n      dup3\n        /* \"#utility.yul\":9841:9855   */\n      add\n        /* \"#utility.yul\":9833:9855   */\n      swap1\n      pop\n        /* \"#utility.yul\":9730:9862   */\n      swap2\n      swap1\n      pop\n      jump\t// out\n        /* \"#utility.yul\":9868:9976   */\n    tag_165:\n        /* \"#utility.yul\":9945:9969   */\n      tag_298\n        /* \"#utility.yul\":9963:9968   */\n      dup2\n        /* \"#utility.yul\":9945:9969   */\n      tag_142\n      jump\t// in\n    tag_298:\n        /* \"#utility.yul\":9940:9943   */\n      dup3\n        /* \"#utility.yul\":9933:9970   */\n      mstore\n        /* \"#utility.yul\":9868:9976   */\n      pop\n      pop\n      jump\t// out\n        /* \"#utility.yul\":9982:10161   */\n    tag_166:\n        /* \"#utility.yul\":10051:10061   */\n      0x00\n        /* \"#utility.yul\":10072:10118   */\n      tag_300\n        /* \"#utility.yul\":10114:10117   */\n      dup4\n        /* \"#utility.yul\":10106:10112   */\n      dup4\n        /* \"#utility.yul\":10072:10118   */\n      tag_165\n      jump\t// in\n    tag_300:\n        /* \"#utility.yul\":10150:10154   */\n      0x20\n        /* \"#utility.yul\":10145:10148   */\n      dup4\n        /* \"#utility.yul\":10141:10155   */\n      add\n        /* \"#utility.yul\":10127:10155   */\n      swap1\n      pop\n        /* \"#utility.yul\":9982:10161   */\n      swap3\n      swap2\n      pop\n      pop\n      jump\t// out\n        /* \"#utility.yul\":10167:10280   */\n    tag_167:\n        /* \"#utility.yul\":10237:10241   */\n      0x00\n        /* \"#utility.yul\":10269:10273   */\n      0x20\n        /* \"#utility.yul\":10264:10267   */\n      dup3\n        /* \"#utility.yul\":10260:10274   */\n      add\n        /* \"#utility.yul\":10252:10274   */\n      swap1\n      pop\n        /* \"#utility.yul\":10167:10280   */\n      swap2\n      swap1\n      pop\n      jump\t// out\n        /* \"#utility.yul\":10316:11048   */\n    tag_168:\n        /* \"#utility.yul\":10435:10438   */\n      0x00\n        /* \"#utility.yul\":10464:10518   */\n      tag_303\n        /* \"#utility.yul\":10512:10517   */\n      dup3\n        /* \"#utility.yul\":10464:10518   */\n      tag_162\n      jump\t// in\n    tag_303:\n        /* \"#utility.yul\":10534:10620   */\n      tag_304\n        /* \"#utility.yul\":10613:10619   */\n      dup2\n        /* \"#utility.yul\":10608:10611   */\n      dup6\n        /* \"#utility.yul\":10534:10620   */\n      tag_163\n      jump\t// in\n    tag_304:\n        /* \"#utility.yul\":10527:10620   */\n      swap4\n      pop\n        /* \"#utility.yul\":10644:10700   */\n      tag_305\n        /* \"#utility.yul\":10694:10699   */\n      dup4\n        /* \"#utility.yul\":10644:10700   */\n      tag_164\n      jump\t// in\n    tag_305:\n        /* \"#utility.yul\":10723:10730   */\n      dup1\n        /* \"#utility.yul\":10754:10755   */\n      0x00\n        /* \"#utility.yul\":10739:11023   */\n    tag_306:\n        /* \"#utility.yul\":10764:10770   */\n      dup4\n        /* \"#utility.yul\":10761:10762   */\n      dup2\n        /* \"#utility.yul\":10758:10771   */\n      lt\n        /* \"#utility.yul\":10739:11023   */\n      iszero\n      tag_308\n      jumpi\n        /* \"#utility.yul\":10840:10846   */\n      dup2\n        /* \"#utility.yul\":10834:10847   */\n      mload\n        /* \"#utility.yul\":10867:10930   */\n      tag_309\n        /* \"#utility.yul\":10926:10929   */\n      dup9\n        /* \"#utility.yul\":10911:10924   */\n      dup3\n        /* \"#utility.yul\":10867:10930   */\n      tag_166\n      jump\t// in\n    tag_309:\n        /* \"#utility.yul\":10860:10930   */\n      swap8\n      pop\n        /* \"#utility.yul\":10953:11013   */\n      tag_310\n        /* \"#utility.yul\":11006:11012   */\n      dup4\n        /* \"#utility.yul\":10953:11013   */\n      tag_167\n      jump\t// in\n    tag_310:\n        /* \"#utility.yul\":10943:11013   */\n      swap3\n      pop\n        /* \"#utility.yul\":10799:11023   */\n      pop\n        /* \"#utility.yul\":10786:10787   */\n      0x01\n        /* \"#utility.yul\":10783:10784   */\n      dup2\n        /* \"#utility.yul\":10779:10788   */\n      add\n        /* \"#utility.yul\":10774:10788   */\n      swap1\n      pop\n        /* \"#utility.yul\":10739:11023   */\n      jump(tag_306)\n    tag_308:\n        /* \"#utility.yul\":10743:10757   */\n      pop\n        /* \"#utility.yul\":11039:11042   */\n      dup6\n        /* \"#utility.yul\":11032:11042   */\n      swap4\n      pop\n        /* \"#utility.yul\":10440:11048   */\n      pop\n      pop\n      pop\n        /* \"#utility.yul\":10316:11048   */\n      swap3\n      swap2\n      pop\n      pop\n      jump\t// out\n        /* \"#utility.yul\":11054:11427   */\n    tag_39:\n        /* \"#utility.yul\":11197:11201   */\n      0x00\n        /* \"#utility.yul\":11235:11237   */\n      0x20\n        /* \"#utility.yul\":11224:11233   */\n      dup3\n        /* \"#utility.yul\":11220:11238   */\n      add\n        /* \"#utility.yul\":11212:11238   */\n      swap1\n      pop\n        /* \"#utility.yul\":11284:11293   */\n      dup2\n        /* \"#utility.yul\":11278:11282   */\n      dup2\n        /* \"#utility.yul\":11274:11294   */\n      sub\n        /* \"#utility.yul\":11270:11271   */\n      0x00\n        /* \"#utility.yul\":11259:11268   */\n      dup4\n        /* \"#utility.yul\":11255:11272   */\n      add\n        /* \"#utility.yul\":11248:11295   */\n      mstore\n        /* \"#utility.yul\":11312:11420   */\n      tag_312\n        /* \"#utility.yul\":11415:11419   */\n      dup2\n        /* \"#utility.yul\":11406:11412   */\n      dup5\n        /* \"#utility.yul\":11312:11420   */\n      tag_168\n      jump\t// in\n    tag_312:\n        /* \"#utility.yul\":11304:11420   */\n      swap1\n      pop\n        /* \"#utility.yul\":11054:11427   */\n      swap3\n      swap2\n      pop\n      pop\n      jump\t// out\n        /* \"#utility.yul\":11433:11549   */\n    tag_169:\n        /* \"#utility.yul\":11503:11524   */\n      tag_314\n        /* \"#utility.yul\":11518:11523   */\n      dup2\n        /* \"#utility.yul\":11503:11524   */\n      tag_149\n      jump\t// in\n    tag_314:\n        /* \"#utility.yul\":11496:11501   */\n      dup2\n        /* \"#utility.yul\":11493:11525   */\n      eq\n        /* \"#utility.yul\":11483:11543   */\n      tag_315\n      jumpi\n        /* \"#utility.yul\":11539:11540   */\n      0x00\n        /* \"#utility.yul\":11536:11537   */\n      dup1\n        /* \"#utility.yul\":11529:11541   */\n      revert\n        /* \"#utility.yul\":11483:11543   */\n    tag_315:\n        /* \"#utility.yul\":11433:11549   */\n      pop\n      jump\t// out\n        /* \"#utility.yul\":11555:11688   */\n    tag_170:\n        /* \"#utility.yul\":11598:11603   */\n      0x00\n        /* \"#utility.yul\":11636:11642   */\n      dup2\n        /* \"#utility.yul\":11623:11643   */\n      calldataload\n        /* \"#utility.yul\":11614:11643   */\n      swap1\n      pop\n        /* \"#utility.yul\":11652:11682   */\n      tag_317\n        /* \"#utility.yul\":11676:11681   */\n      dup2\n        /* \"#utility.yul\":11652:11682   */\n      tag_169\n      jump\t// in\n    tag_317:\n        /* \"#utility.yul\":11555:11688   */\n      swap3\n      swap2\n      pop\n      pop\n      jump\t// out\n        /* \"#utility.yul\":11694:12162   */\n    tag_42:\n        /* \"#utility.yul\":11759:11765   */\n      0x00\n        /* \"#utility.yul\":11767:11773   */\n      dup1\n        /* \"#utility.yul\":11816:11818   */\n      0x40\n        /* \"#utility.yul\":11804:11813   */\n      dup4\n        /* \"#utility.yul\":11795:11802   */\n      dup6\n        /* \"#utility.yul\":11791:11814   */\n      sub\n        /* \"#utility.yul\":11787:11819   */\n      slt\n        /* \"#utility.yul\":11784:11903   */\n      iszero\n      tag_319\n      jumpi\n        /* \"#utility.yul\":11822:11901   */\n      tag_320\n      tag_136\n      jump\t// in\n    tag_320:\n        /* \"#utility.yul\":11784:11903   */\n    tag_319:\n        /* \"#utility.yul\":11942:11943   */\n      0x00\n        /* \"#utility.yul\":11967:12020   */\n      tag_321\n        /* \"#utility.yul\":12012:12019   */\n      dup6\n        /* \"#utility.yul\":12003:12009   */\n      dup3\n        /* \"#utility.yul\":11992:12001   */\n      dup7\n        /* \"#utility.yul\":11988:12010   */\n      add\n        /* \"#utility.yul\":11967:12020   */\n      tag_141\n      jump\t// in\n    tag_321:\n        /* \"#utility.yul\":11957:12020   */\n      swap3\n      pop\n        /* \"#utility.yul\":11913:12030   */\n      pop\n        /* \"#utility.yul\":12069:12071   */\n      0x20\n        /* \"#utility.yul\":12095:12145   */\n      tag_322\n        /* \"#utility.yul\":12137:12144   */\n      dup6\n        /* \"#utility.yul\":12128:12134   */\n      dup3\n        /* \"#utility.yul\":12117:12126   */\n      dup7\n        /* \"#utility.yul\":12113:12135   */\n      add\n        /* \"#utility.yul\":12095:12145   */\n      tag_170\n      jump\t// in\n    tag_322:\n        /* \"#utility.yul\":12085:12145   */\n      swap2\n      pop\n        /* \"#utility.yul\":12040:12155   */\n      pop\n        /* \"#utility.yul\":11694:12162   */\n      swap3\n      pop\n      swap3\n      swap1\n      pop\n      jump\t// out\n        /* \"#utility.yul\":12168:12642   */\n    tag_46:\n        /* \"#utility.yul\":12236:12242   */\n      0x00\n        /* \"#utility.yul\":12244:12250   */\n      dup1\n        /* \"#utility.yul\":12293:12295   */\n      0x40\n        /* \"#utility.yul\":12281:12290   */\n      dup4\n        /* \"#utility.yul\":12272:12279   */\n      dup6\n        /* \"#utility.yul\":12268:12291   */\n      sub\n        /* \"#utility.yul\":12264:12296   */\n      slt\n        /* \"#utility.yul\":12261:12380   */\n      iszero\n      tag_324\n      jumpi\n        /* \"#utility.yul\":12299:12378   */\n      tag_325\n      tag_136\n      jump\t// in\n    tag_325:\n        /* \"#utility.yul\":12261:12380   */\n    tag_324:\n        /* \"#utility.yul\":12419:12420   */\n      0x00\n        /* \"#utility.yul\":12444:12497   */\n      tag_326\n        /* \"#utility.yul\":12489:12496   */\n      dup6\n        /* \"#utility.yul\":12480:12486   */\n      dup3\n        /* \"#utility.yul\":12469:12478   */\n      dup7\n        /* \"#utility.yul\":12465:12487   */\n      add\n        /* \"#utility.yul\":12444:12497   */\n      tag_141\n      jump\t// in\n    tag_326:\n        /* \"#utility.yul\":12434:12497   */\n      swap3\n      pop\n        /* \"#utility.yul\":12390:12507   */\n      pop\n        /* \"#utility.yul\":12546:12548   */\n      0x20\n        /* \"#utility.yul\":12572:12625   */\n      tag_327\n        /* \"#utility.yul\":12617:12624   */\n      dup6\n        /* \"#utility.yul\":12608:12614   */\n      dup3\n        /* \"#utility.yul\":12597:12606   */\n      dup7\n        /* \"#utility.yul\":12593:12615   */\n      add\n        /* \"#utility.yul\":12572:12625   */\n      tag_141\n      jump\t// in\n    tag_327:\n        /* \"#utility.yul\":12562:12625   */\n      swap2\n      pop\n        /* \"#utility.yul\":12517:12635   */\n      pop\n        /* \"#utility.yul\":12168:12642   */\n      swap3\n      pop\n      swap3\n      swap1\n      pop\n      jump\t// out\n        /* \"#utility.yul\":12648:13757   */\n    tag_51:\n        /* \"#utility.yul\":12754:12760   */\n      0x00\n        /* \"#utility.yul\":12762:12768   */\n      dup1\n        /* \"#utility.yul\":12770:12776   */\n      0x00\n        /* \"#utility.yul\":12778:12784   */\n      dup1\n        /* \"#utility.yul\":12786:12792   */\n      0x00\n        /* \"#utility.yul\":12794:12800   */\n      dup1\n        /* \"#utility.yul\":12843:12846   */\n      0xa0\n        /* \"#utility.yul\":12831:12840   */\n      dup8\n        /* \"#utility.yul\":12822:12829   */\n      dup10\n        /* \"#utility.yul\":12818:12841   */\n      sub\n        /* \"#utility.yul\":12814:12847   */\n      slt\n        /* \"#utility.yul\":12811:12931   */\n      iszero\n      tag_329\n      jumpi\n        /* \"#utility.yul\":12850:12929   */\n      tag_330\n      tag_136\n      jump\t// in\n    tag_330:\n        /* \"#utility.yul\":12811:12931   */\n    tag_329:\n        /* \"#utility.yul\":12970:12971   */\n      0x00\n        /* \"#utility.yul\":12995:13048   */\n      tag_331\n        /* \"#utility.yul\":13040:13047   */\n      dup10\n        /* \"#utility.yul\":13031:13037   */\n      dup3\n        /* \"#utility.yul\":13020:13029   */\n      dup11\n        /* \"#utility.yul\":13016:13038   */\n      add\n        /* \"#utility.yul\":12995:13048   */\n      tag_141\n      jump\t// in\n    tag_331:\n        /* \"#utility.yul\":12985:13048   */\n      swap7\n      pop\n        /* \"#utility.yul\":12941:13058   */\n      pop\n        /* \"#utility.yul\":13097:13099   */\n      0x20\n        /* \"#utility.yul\":13123:13176   */\n      tag_332\n        /* \"#utility.yul\":13168:13175   */\n      dup10\n        /* \"#utility.yul\":13159:13165   */\n      dup3\n        /* \"#utility.yul\":13148:13157   */\n      dup11\n        /* \"#utility.yul\":13144:13166   */\n      add\n        /* \"#utility.yul\":13123:13176   */\n      tag_141\n      jump\t// in\n    tag_332:\n        /* \"#utility.yul\":13113:13176   */\n      swap6\n      pop\n        /* \"#utility.yul\":13068:13186   */\n      pop\n        /* \"#utility.yul\":13225:13227   */\n      0x40\n        /* \"#utility.yul\":13251:13304   */\n      tag_333\n        /* \"#utility.yul\":13296:13303   */\n      dup10\n        /* \"#utility.yul\":13287:13293   */\n      dup3\n        /* \"#utility.yul\":13276:13285   */\n      dup11\n        /* \"#utility.yul\":13272:13294   */\n      add\n        /* \"#utility.yul\":13251:13304   */\n      tag_144\n      jump\t// in\n    tag_333:\n        /* \"#utility.yul\":13241:13304   */\n      swap5\n      pop\n        /* \"#utility.yul\":13196:13314   */\n      pop\n        /* \"#utility.yul\":13353:13355   */\n      0x60\n        /* \"#utility.yul\":13379:13432   */\n      tag_334\n        /* \"#utility.yul\":13424:13431   */\n      dup10\n        /* \"#utility.yul\":13415:13421   */\n      dup3\n        /* \"#utility.yul\":13404:13413   */\n      dup11\n        /* \"#utility.yul\":13400:13422   */\n      add\n        /* \"#utility.yul\":13379:13432   */\n      tag_144\n      jump\t// in\n    tag_334:\n        /* \"#utility.yul\":13369:13432   */\n      swap4\n      pop\n        /* \"#utility.yul\":13324:13442   */\n      pop\n        /* \"#utility.yul\":13509:13512   */\n      0x80\n        /* \"#utility.yul\":13498:13507   */\n      dup8\n        /* \"#utility.yul\":13494:13513   */\n      add\n        /* \"#utility.yul\":13481:13514   */\n      calldataload\n        /* \"#utility.yul\":13541:13559   */\n      0xffffffffffffffff\n        /* \"#utility.yul\":13533:13539   */\n      dup2\n        /* \"#utility.yul\":13530:13560   */\n      gt\n        /* \"#utility.yul\":13527:13644   */\n      iszero\n      tag_335\n      jumpi\n        /* \"#utility.yul\":13563:13642   */\n      tag_336\n      tag_137\n      jump\t// in\n    tag_336:\n        /* \"#utility.yul\":13527:13644   */\n    tag_335:\n        /* \"#utility.yul\":13676:13740   */\n      tag_337\n        /* \"#utility.yul\":13732:13739   */\n      dup10\n        /* \"#utility.yul\":13723:13729   */\n      dup3\n        /* \"#utility.yul\":13712:13721   */\n      dup11\n        /* \"#utility.yul\":13708:13730   */\n      add\n        /* \"#utility.yul\":13676:13740   */\n      tag_160\n      jump\t// in\n    tag_337:\n        /* \"#utility.yul\":13658:13740   */\n      swap3\n      pop\n      swap3\n      pop\n        /* \"#utility.yul\":13452:13750   */\n      pop\n        /* \"#utility.yul\":12648:13757   */\n      swap3\n      swap6\n      pop\n      swap3\n      swap6\n      pop\n      swap3\n      swap6\n      jump\t// out\n        /* \"#utility.yul\":13763:13925   */\n    tag_171:\n        /* \"#utility.yul\":13903:13917   */\n      0x6e6f7420617070726f7665640000000000000000000000000000000000000000\n        /* \"#utility.yul\":13899:13900   */\n      0x00\n        /* \"#utility.yul\":13891:13897   */\n      dup3\n        /* \"#utility.yul\":13887:13901   */\n      add\n        /* \"#utility.yul\":13880:13918   */\n      mstore\n        /* \"#utility.yul\":13763:13925   */\n      pop\n      jump\t// out\n        /* \"#utility.yul\":13931:14297   */\n    tag_172:\n        /* \"#utility.yul\":14073:14076   */\n      0x00\n        /* \"#utility.yul\":14094:14161   */\n      tag_340\n        /* \"#utility.yul\":14158:14160   */\n      0x0c\n        /* \"#utility.yul\":14153:14156   */\n      dup4\n        /* \"#utility.yul\":14094:14161   */\n      tag_152\n      jump\t// in\n    tag_340:\n        /* \"#utility.yul\":14087:14161   */\n      swap2\n      pop\n        /* \"#utility.yul\":14170:14263   */\n      tag_341\n        /* \"#utility.yul\":14259:14262   */\n      dup3\n        /* \"#utility.yul\":14170:14263   */\n      tag_171\n      jump\t// in\n    tag_341:\n        /* \"#utility.yul\":14288:14290   */\n      0x20\n        /* \"#utility.yul\":14283:14286   */\n      dup3\n        /* \"#utility.yul\":14279:14291   */\n      add\n        /* \"#utility.yul\":14272:14291   */\n      swap1\n      pop\n        /* \"#utility.yul\":13931:14297   */\n      swap2\n      swap1\n      pop\n      jump\t// out\n        /* \"#utility.yul\":14303:14722   */\n    tag_61:\n        /* \"#utility.yul\":14469:14473   */\n      0x00\n        /* \"#utility.yul\":14507:14509   */\n      0x20\n        /* \"#utility.yul\":14496:14505   */\n      dup3\n        /* \"#utility.yul\":14492:14510   */\n      add\n        /* \"#utility.yul\":14484:14510   */\n      swap1\n      pop\n        /* \"#utility.yul\":14556:14565   */\n      dup2\n        /* \"#utility.yul\":14550:14554   */\n      dup2\n        /* \"#utility.yul\":14546:14566   */\n      sub\n        /* \"#utility.yul\":14542:14543   */\n      0x00\n        /* \"#utility.yul\":14531:14540   */\n      dup4\n        /* \"#utility.yul\":14527:14544   */\n      add\n        /* \"#utility.yul\":14520:14567   */\n      mstore\n        /* \"#utility.yul\":14584:14715   */\n      tag_343\n        /* \"#utility.yul\":14710:14714   */\n      dup2\n        /* \"#utility.yul\":14584:14715   */\n      tag_172\n      jump\t// in\n    tag_343:\n        /* \"#utility.yul\":14576:14715   */\n      swap1\n      pop\n        /* \"#utility.yul\":14303:14722   */\n      swap2\n      swap1\n      pop\n      jump\t// out\n        /* \"#utility.yul\":14728:14892   */\n    tag_173:\n        /* \"#utility.yul\":14868:14884   */\n      0x746f203d20302061646472657373000000000000000000000000000000000000\n        /* \"#utility.yul\":14864:14865   */\n      0x00\n        /* \"#utility.yul\":14856:14862   */\n      dup3\n        /* \"#utility.yul\":14852:14866   */\n      add\n        /* \"#utility.yul\":14845:14885   */\n      mstore\n        /* \"#utility.yul\":14728:14892   */\n      pop\n      jump\t// out\n        /* \"#utility.yul\":14898:15264   */\n    tag_174:\n        /* \"#utility.yul\":15040:15043   */\n      0x00\n        /* \"#utility.yul\":15061:15128   */\n      tag_346\n        /* \"#utility.yul\":15125:15127   */\n      0x0e\n        /* \"#utility.yul\":15120:15123   */\n      dup4\n        /* \"#utility.yul\":15061:15128   */\n      tag_152\n      jump\t// in\n    tag_346:\n        /* \"#utility.yul\":15054:15128   */\n      swap2\n      pop\n        /* \"#utility.yul\":15137:15230   */\n      tag_347\n        /* \"#utility.yul\":15226:15229   */\n      dup3\n        /* \"#utility.yul\":15137:15230   */\n      tag_173\n      jump\t// in\n    tag_347:\n        /* \"#utility.yul\":15255:15257   */\n      0x20\n        /* \"#utility.yul\":15250:15253   */\n      dup3\n        /* \"#utility.yul\":15246:15258   */\n      add\n        /* \"#utility.yul\":15239:15258   */\n      swap1\n      pop\n        /* \"#utility.yul\":14898:15264   */\n      swap2\n      swap1\n      pop\n      jump\t// out\n        /* \"#utility.yul\":15270:15689   */\n    tag_64:\n        /* \"#utility.yul\":15436:15440   */\n      0x00\n        /* \"#utility.yul\":15474:15476   */\n      0x20\n        /* \"#utility.yul\":15463:15472   */\n      dup3\n        /* \"#utility.yul\":15459:15477   */\n      add\n        /* \"#utility.yul\":15451:15477   */\n      swap1\n      pop\n        /* \"#utility.yul\":15523:15532   */\n      dup2\n        /* \"#utility.yul\":15517:15521   */\n      dup2\n        /* \"#utility.yul\":15513:15533   */\n      sub\n        /* \"#utility.yul\":15509:15510   */\n      0x00\n        /* \"#utility.yul\":15498:15507   */\n      dup4\n        /* \"#utility.yul\":15494:15511   */\n      add\n        /* \"#utility.yul\":15487:15534   */\n      mstore\n        /* \"#utility.yul\":15551:15682   */\n      tag_349\n        /* \"#utility.yul\":15677:15681   */\n      dup2\n        /* \"#utility.yul\":15551:15682   */\n      tag_174\n      jump\t// in\n    tag_349:\n        /* \"#utility.yul\":15543:15682   */\n      swap1\n      pop\n        /* \"#utility.yul\":15270:15689   */\n      swap2\n      swap1\n      pop\n      jump\t// out\n        /* \"#utility.yul\":15695:15872   */\n    tag_175:\n        /* \"#utility.yul\":15835:15864   */\n      0x696473206c656e67746820213d2076616c756573206c656e6774680000000000\n        /* \"#utility.yul\":15831:15832   */\n      0x00\n        /* \"#utility.yul\":15823:15829   */\n      dup3\n        /* \"#utility.yul\":15819:15833   */\n      add\n        /* \"#utility.yul\":15812:15865   */\n      mstore\n        /* \"#utility.yul\":15695:15872   */\n      pop\n      jump\t// out\n        /* \"#utility.yul\":15878:16244   */\n    tag_176:\n        /* \"#utility.yul\":16020:16023   */\n      0x00\n        /* \"#utility.yul\":16041:16108   */\n      tag_352\n        /* \"#utility.yul\":16105:16107   */\n      0x1b\n        /* \"#utility.yul\":16100:16103   */\n      dup4\n        /* \"#utility.yul\":16041:16108   */\n      tag_152\n      jump\t// in\n    tag_352:\n        /* \"#utility.yul\":16034:16108   */\n      swap2\n      pop\n        /* \"#utility.yul\":16117:16210   */\n      tag_353\n        /* \"#utility.yul\":16206:16209   */\n      dup3\n        /* \"#utility.yul\":16117:16210   */\n      tag_175\n      jump\t// in\n    tag_353:\n        /* \"#utility.yul\":16235:16237   */\n      0x20\n        /* \"#utility.yul\":16230:16233   */\n      dup3\n        /* \"#utility.yul\":16226:16238   */\n      add\n        /* \"#utility.yul\":16219:16238   */\n      swap1\n      pop\n        /* \"#utility.yul\":15878:16244   */\n      swap2\n      swap1\n      pop\n      jump\t// out\n        /* \"#utility.yul\":16250:16669   */\n    tag_67:\n        /* \"#utility.yul\":16416:16420   */\n      0x00\n        /* \"#utility.yul\":16454:16456   */\n      0x20\n        /* \"#utility.yul\":16443:16452   */\n      dup3\n        /* \"#utility.yul\":16439:16457   */\n      add\n        /* \"#utility.yul\":16431:16457   */\n      swap1\n      pop\n        /* \"#utility.yul\":16503:16512   */\n      dup2\n        /* \"#utility.yul\":16497:16501   */\n      dup2\n        /* \"#utility.yul\":16493:16513   */\n      sub\n        /* \"#utility.yul\":16489:16490   */\n      0x00\n        /* \"#utility.yul\":16478:16487   */\n      dup4\n        /* \"#utility.yul\":16474:16491   */\n      add\n        /* \"#utility.yul\":16467:16514   */\n      mstore\n        /* \"#utility.yul\":16531:16662   */\n      tag_355\n        /* \"#utility.yul\":16657:16661   */\n      dup2\n        /* \"#utility.yul\":16531:16662   */\n      tag_176\n      jump\t// in\n    tag_355:\n        /* \"#utility.yul\":16523:16662   */\n      swap1\n      pop\n        /* \"#utility.yul\":16250:16669   */\n      swap2\n      swap1\n      pop\n      jump\t// out\n        /* \"#utility.yul\":16675:16855   */\n    tag_73:\n        /* \"#utility.yul\":16723:16800   */\n      0x4e487b7100000000000000000000000000000000000000000000000000000000\n        /* \"#utility.yul\":16720:16721   */\n      0x00\n        /* \"#utility.yul\":16713:16801   */\n      mstore\n        /* \"#utility.yul\":16820:16824   */\n      0x32\n        /* \"#utility.yul\":16817:16818   */\n      0x04\n        /* \"#utility.yul\":16810:16825   */\n      mstore\n        /* \"#utility.yul\":16844:16848   */\n      0x24\n        /* \"#utility.yul\":16841:16842   */\n      0x00\n        /* \"#utility.yul\":16834:16849   */\n      revert\n        /* \"#utility.yul\":16861:17041   */\n    tag_177:\n        /* \"#utility.yul\":16909:16986   */\n      0x4e487b7100000000000000000000000000000000000000000000000000000000\n        /* \"#utility.yul\":16906:16907   */\n      0x00\n        /* \"#utility.yul\":16899:16987   */\n      mstore\n        /* \"#utility.yul\":17006:17010   */\n      0x11\n        /* \"#utility.yul\":17003:17004   */\n      0x04\n        /* \"#utility.yul\":16996:17011   */\n      mstore\n        /* \"#utility.yul\":17030:17034   */\n      0x24\n        /* \"#utility.yul\":17027:17028   */\n      0x00\n        /* \"#utility.yul\":17020:17035   */\n      revert\n        /* \"#utility.yul\":17047:17241   */\n    tag_77:\n        /* \"#utility.yul\":17087:17091   */\n      0x00\n        /* \"#utility.yul\":17107:17127   */\n      tag_359\n        /* \"#utility.yul\":17125:17126   */\n      dup3\n        /* \"#utility.yul\":17107:17127   */\n      tag_142\n      jump\t// in\n    tag_359:\n        /* \"#utility.yul\":17102:17127   */\n      swap2\n      pop\n        /* \"#utility.yul\":17141:17161   */\n      tag_360\n        /* \"#utility.yul\":17159:17160   */\n      dup4\n        /* \"#utility.yul\":17141:17161   */\n      tag_142\n      jump\t// in\n    tag_360:\n        /* \"#utility.yul\":17136:17161   */\n      swap3\n      pop\n        /* \"#utility.yul\":17185:17186   */\n      dup3\n        /* \"#utility.yul\":17182:17183   */\n      dup3\n        /* \"#utility.yul\":17178:17187   */\n      sub\n        /* \"#utility.yul\":17170:17187   */\n      swap1\n      pop\n        /* \"#utility.yul\":17209:17210   */\n      dup2\n        /* \"#utility.yul\":17203:17207   */\n      dup2\n        /* \"#utility.yul\":17200:17211   */\n      gt\n        /* \"#utility.yul\":17197:17234   */\n      iszero\n      tag_361\n      jumpi\n        /* \"#utility.yul\":17214:17232   */\n      tag_362\n      tag_177\n      jump\t// in\n    tag_362:\n        /* \"#utility.yul\":17197:17234   */\n    tag_361:\n        /* \"#utility.yul\":17047:17241   */\n      swap3\n      swap2\n      pop\n      pop\n      jump\t// out\n        /* \"#utility.yul\":17247:17438   */\n    tag_83:\n        /* \"#utility.yul\":17287:17290   */\n      0x00\n        /* \"#utility.yul\":17306:17326   */\n      tag_364\n        /* \"#utility.yul\":17324:17325   */\n      dup3\n        /* \"#utility.yul\":17306:17326   */\n      tag_142\n      jump\t// in\n    tag_364:\n        /* \"#utility.yul\":17301:17326   */\n      swap2\n      pop\n        /* \"#utility.yul\":17340:17360   */\n      tag_365\n        /* \"#utility.yul\":17358:17359   */\n      dup4\n        /* \"#utility.yul\":17340:17360   */\n      tag_142\n      jump\t// in\n    tag_365:\n        /* \"#utility.yul\":17335:17360   */\n      swap3\n      pop\n        /* \"#utility.yul\":17383:17384   */\n      dup3\n        /* \"#utility.yul\":17380:17381   */\n      dup3\n        /* \"#utility.yul\":17376:17385   */\n      add\n        /* \"#utility.yul\":17369:17385   */\n      swap1\n      pop\n        /* \"#utility.yul\":17404:17407   */\n      dup1\n        /* \"#utility.yul\":17401:17402   */\n      dup3\n        /* \"#utility.yul\":17398:17408   */\n      gt\n        /* \"#utility.yul\":17395:17431   */\n      iszero\n      tag_366\n      jumpi\n        /* \"#utility.yul\":17411:17429   */\n      tag_367\n      tag_177\n      jump\t// in\n    tag_367:\n        /* \"#utility.yul\":17395:17431   */\n    tag_366:\n        /* \"#utility.yul\":17247:17438   */\n      swap3\n      swap2\n      pop\n      pop\n      jump\t// out\n        /* \"#utility.yul\":17444:17561   */\n    tag_178:\n        /* \"#utility.yul\":17553:17554   */\n      0x00\n        /* \"#utility.yul\":17550:17551   */\n      dup1\n        /* \"#utility.yul\":17543:17555   */\n      revert\n        /* \"#utility.yul\":17567:17666   */\n    tag_179:\n        /* \"#utility.yul\":17652:17658   */\n      dup3\n        /* \"#utility.yul\":17647:17650   */\n      dup2\n        /* \"#utility.yul\":17642:17645   */\n      dup4\n        /* \"#utility.yul\":17629:17659   */\n      calldatacopy\n        /* \"#utility.yul\":17567:17666   */\n      pop\n      pop\n      pop\n      jump\t// out\n        /* \"#utility.yul\":17702:18239   */\n    tag_180:\n        /* \"#utility.yul\":17830:17833   */\n      0x00\n        /* \"#utility.yul\":17851:17937   */\n      tag_371\n        /* \"#utility.yul\":17930:17936   */\n      dup4\n        /* \"#utility.yul\":17925:17928   */\n      dup6\n        /* \"#utility.yul\":17851:17937   */\n      tag_163\n      jump\t// in\n    tag_371:\n        /* \"#utility.yul\":17844:17937   */\n      swap4\n      pop\n        /* \"#utility.yul\":17961:18027   */\n      0x07ffffffffffffffffffffffffffffffffffffffffffffffffffffffffffffff\n        /* \"#utility.yul\":17953:17959   */\n      dup4\n        /* \"#utility.yul\":17950:18028   */\n      gt\n        /* \"#utility.yul\":17947:18112   */\n      iszero\n      tag_372\n      jumpi\n        /* \"#utility.yul\":18031:18110   */\n      tag_373\n      tag_178\n      jump\t// in\n    tag_373:\n        /* \"#utility.yul\":17947:18112   */\n    tag_372:\n        /* \"#utility.yul\":18143:18147   */\n      0x20\n        /* \"#utility.yul\":18135:18141   */\n      dup4\n        /* \"#utility.yul\":18131:18148   */\n      mul\n        /* \"#utility.yul\":18121:18148   */\n      swap3\n      pop\n        /* \"#utility.yul\":18158:18201   */\n      tag_374\n        /* \"#utility.yul\":18194:18200   */\n      dup4\n        /* \"#utility.yul\":18189:18192   */\n      dup6\n        /* \"#utility.yul\":18182:18187   */\n      dup5\n        /* \"#utility.yul\":18158:18201   */\n      tag_179\n      jump\t// in\n    tag_374:\n        /* \"#utility.yul\":18226:18232   */\n      dup3\n        /* \"#utility.yul\":18221:18224   */\n      dup5\n        /* \"#utility.yul\":18217:18233   */\n      add\n        /* \"#utility.yul\":18210:18233   */\n      swap1\n      pop\n        /* \"#utility.yul\":17702:18239   */\n      swap4\n      swap3\n      pop\n      pop\n      pop\n      jump\t// out\n        /* \"#utility.yul\":18245:18919   */\n    tag_85:\n        /* \"#utility.yul\":18486:18490   */\n      0x00\n        /* \"#utility.yul\":18524:18526   */\n      0x40\n        /* \"#utility.yul\":18513:18522   */\n      dup3\n        /* \"#utility.yul\":18509:18527   */\n      add\n        /* \"#utility.yul\":18501:18527   */\n      swap1\n      pop\n        /* \"#utility.yul\":18573:18582   */\n      dup2\n        /* \"#utility.yul\":18567:18571   */\n      dup2\n        /* \"#utility.yul\":18563:18583   */\n      sub\n        /* \"#utility.yul\":18559:18560   */\n      0x00\n        /* \"#utility.yul\":18548:18557   */\n      dup4\n        /* \"#utility.yul\":18544:18561   */\n      add\n        /* \"#utility.yul\":18537:18584   */\n      mstore\n        /* \"#utility.yul\":18601:18719   */\n      tag_376\n        /* \"#utility.yul\":18714:18718   */\n      dup2\n        /* \"#utility.yul\":18705:18711   */\n      dup7\n        /* \"#utility.yul\":18697:18703   */\n      dup9\n        /* \"#utility.yul\":18601:18719   */\n      tag_180\n      jump\t// in\n    tag_376:\n        /* \"#utility.yul\":18593:18719   */\n      swap1\n      pop\n        /* \"#utility.yul\":18766:18775   */\n      dup2\n        /* \"#utility.yul\":18760:18764   */\n      dup2\n        /* \"#utility.yul\":18756:18776   */\n      sub\n        /* \"#utility.yul\":18751:18753   */\n      0x20\n        /* \"#utility.yul\":18740:18749   */\n      dup4\n        /* \"#utility.yul\":18736:18754   */\n      add\n        /* \"#utility.yul\":18729:18777   */\n      mstore\n        /* \"#utility.yul\":18794:18912   */\n      tag_377\n        /* \"#utility.yul\":18907:18911   */\n      dup2\n        /* \"#utility.yul\":18898:18904   */\n      dup5\n        /* \"#utility.yul\":18890:18896   */\n      dup7\n        /* \"#utility.yul\":18794:18912   */\n      tag_180\n      jump\t// in\n    tag_377:\n        /* \"#utility.yul\":18786:18912   */\n      swap1\n      pop\n        /* \"#utility.yul\":18245:18919   */\n      swap6\n      swap5\n      pop\n      pop\n      pop\n      pop\n      pop\n      jump\t// out\n        /* \"#utility.yul\":18925:19043   */\n    tag_181:\n        /* \"#utility.yul\":19012:19036   */\n      tag_379\n        /* \"#utility.yul\":19030:19035   */\n      dup2\n        /* \"#utility.yul\":19012:19036   */\n      tag_139\n      jump\t// in\n    tag_379:\n        /* \"#utility.yul\":19007:19010   */\n      dup3\n        /* \"#utility.yul\":19000:19037   */\n      mstore\n        /* \"#utility.yul\":18925:19043   */\n      pop\n      pop\n      jump\t// out\n        /* \"#utility.yul\":19049:19217   */\n    tag_182:\n        /* \"#utility.yul\":19132:19143   */\n      0x00\n        /* \"#utility.yul\":19166:19172   */\n      dup3\n        /* \"#utility.yul\":19161:19164   */\n      dup3\n        /* \"#utility.yul\":19154:19173   */\n      mstore\n        /* \"#utility.yul\":19206:19210   */\n      0x20\n        /* \"#utility.yul\":19201:19204   */\n      dup3\n        /* \"#utility.yul\":19197:19211   */\n      add\n        /* \"#utility.yul\":19182:19211   */\n      swap1\n      pop\n        /* \"#utility.yul\":19049:19217   */\n      swap3\n      swap2\n      pop\n      pop\n      jump\t// out\n        /* \"#utility.yul\":19223:19371   */\n    tag_183:\n        /* \"#utility.yul\":19321:19327   */\n      dup3\n        /* \"#utility.yul\":19316:19319   */\n      dup2\n        /* \"#utility.yul\":19311:19314   */\n      dup4\n        /* \"#utility.yul\":19298:19328   */\n      calldatacopy\n        /* \"#utility.yul\":19362:19363   */\n      0x00\n        /* \"#utility.yul\":19353:19359   */\n      dup4\n        /* \"#utility.yul\":19348:19351   */\n      dup4\n        /* \"#utility.yul\":19344:19360   */\n      add\n        /* \"#utility.yul\":19337:19364   */\n      mstore\n        /* \"#utility.yul\":19223:19371   */\n      pop\n      pop\n      pop\n      jump\t// out\n        /* \"#utility.yul\":19399:19713   */\n    tag_184:\n        /* \"#utility.yul\":19495:19498   */\n      0x00\n        /* \"#utility.yul\":19516:19586   */\n      tag_383\n        /* \"#utility.yul\":19579:19585   */\n      dup4\n        /* \"#utility.yul\":19574:19577   */\n      dup6\n        /* \"#utility.yul\":19516:19586   */\n      tag_182\n      jump\t// in\n    tag_383:\n        /* \"#utility.yul\":19509:19586   */\n      swap4\n      pop\n        /* \"#utility.yul\":19596:19652   */\n      tag_384\n        /* \"#utility.yul\":19645:19651   */\n      dup4\n        /* \"#utility.yul\":19640:19643   */\n      dup6\n        /* \"#utility.yul\":19633:19638   */\n      dup5\n        /* \"#utility.yul\":19596:19652   */\n      tag_183\n      jump\t// in\n    tag_384:\n        /* \"#utility.yul\":19677:19706   */\n      tag_385\n        /* \"#utility.yul\":19699:19705   */\n      dup4\n        /* \"#utility.yul\":19677:19706   */\n      tag_154\n      jump\t// in\n    tag_385:\n        /* \"#utility.yul\":19672:19675   */\n      dup5\n        /* \"#utility.yul\":19668:19707   */\n      add\n        /* \"#utility.yul\":19661:19707   */\n      swap1\n      pop\n        /* \"#utility.yul\":19399:19713   */\n      swap4\n      swap3\n      pop\n      pop\n      pop\n      jump\t// out\n        /* \"#utility.yul\":19719:20832   */\n    tag_88:\n        /* \"#utility.yul\":20072:20076   */\n      0x00\n        /* \"#utility.yul\":20110:20113   */\n      0xa0\n        /* \"#utility.yul\":20099:20108   */\n      dup3\n        /* \"#utility.yul\":20095:20114   */\n      add\n        /* \"#utility.yul\":20087:20114   */\n      swap1\n      pop\n        /* \"#utility.yul\":20124:20195   */\n      tag_387\n        /* \"#utility.yul\":20192:20193   */\n      0x00\n        /* \"#utility.yul\":20181:20190   */\n      dup4\n        /* \"#utility.yul\":20177:20194   */\n      add\n        /* \"#utility.yul\":20168:20174   */\n      dup12\n        /* \"#utility.yul\":20124:20195   */\n      tag_181\n      jump\t// in\n    tag_387:\n        /* \"#utility.yul\":20205:20277   */\n      tag_388\n        /* \"#utility.yul\":20273:20275   */\n      0x20\n        /* \"#utility.yul\":20262:20271   */\n      dup4\n        /* \"#utility.yul\":20258:20276   */\n      add\n        /* \"#utility.yul\":20249:20255   */\n      dup11\n        /* \"#utility.yul\":20205:20277   */\n      tag_181\n      jump\t// in\n    tag_388:\n        /* \"#utility.yul\":20324:20333   */\n      dup2\n        /* \"#utility.yul\":20318:20322   */\n      dup2\n        /* \"#utility.yul\":20314:20334   */\n      sub\n        /* \"#utility.yul\":20309:20311   */\n      0x40\n        /* \"#utility.yul\":20298:20307   */\n      dup4\n        /* \"#utility.yul\":20294:20312   */\n      add\n        /* \"#utility.yul\":20287:20335   */\n      mstore\n        /* \"#utility.yul\":20352:20470   */\n      tag_389\n        /* \"#utility.yul\":20465:20469   */\n      dup2\n        /* \"#utility.yul\":20456:20462   */\n      dup9\n        /* \"#utility.yul\":20448:20454   */\n      dup11\n        /* \"#utility.yul\":20352:20470   */\n      tag_180\n      jump\t// in\n    tag_389:\n        /* \"#utility.yul\":20344:20470   */\n      swap1\n      pop\n        /* \"#utility.yul\":20517:20526   */\n      dup2\n        /* \"#utility.yul\":20511:20515   */\n      dup2\n        /* \"#utility.yul\":20507:20527   */\n      sub\n        /* \"#utility.yul\":20502:20504   */\n      0x60\n        /* \"#utility.yul\":20491:20500   */\n      dup4\n        /* \"#utility.yul\":20487:20505   */\n      add\n        /* \"#utility.yul\":20480:20528   */\n      mstore\n        /* \"#utility.yul\":20545:20663   */\n      tag_390\n        /* \"#utility.yul\":20658:20662   */\n      dup2\n        /* \"#utility.yul\":20649:20655   */\n      dup7\n        /* \"#utility.yul\":20641:20647   */\n      dup9\n        /* \"#utility.yul\":20545:20663   */\n      tag_180\n      jump\t// in\n    tag_390:\n        /* \"#utility.yul\":20537:20663   */\n      swap1\n      pop\n        /* \"#utility.yul\":20711:20720   */\n      dup2\n        /* \"#utility.yul\":20705:20709   */\n      dup2\n        /* \"#utility.yul\":20701:20721   */\n      sub\n        /* \"#utility.yul\":20695:20698   */\n      0x80\n        /* \"#utility.yul\":20684:20693   */\n      dup4\n        /* \"#utility.yul\":20680:20699   */\n      add\n        /* \"#utility.yul\":20673:20722   */\n      mstore\n        /* \"#utility.yul\":20739:20825   */\n      tag_391\n        /* \"#utility.yul\":20820:20824   */\n      dup2\n        /* \"#utility.yul\":20811:20817   */\n      dup5\n        /* \"#utility.yul\":20803:20809   */\n      dup7\n        /* \"#utility.yul\":20739:20825   */\n      tag_184\n      jump\t// in\n    tag_391:\n        /* \"#utility.yul\":20731:20825   */\n      swap1\n      pop\n        /* \"#utility.yul\":19719:20832   */\n      swap10\n      swap9\n      pop\n      pop\n      pop\n      pop\n      pop\n      pop\n      pop\n      pop\n      pop\n      jump\t// out\n        /* \"#utility.yul\":20838:20979   */\n    tag_185:\n        /* \"#utility.yul\":20894:20899   */\n      0x00\n        /* \"#utility.yul\":20925:20931   */\n      dup2\n        /* \"#utility.yul\":20919:20932   */\n      mload\n        /* \"#utility.yul\":20910:20932   */\n      swap1\n      pop\n        /* \"#utility.yul\":20941:20973   */\n      tag_393\n        /* \"#utility.yul\":20967:20972   */\n      dup2\n        /* \"#utility.yul\":20941:20973   */\n      tag_147\n      jump\t// in\n    tag_393:\n        /* \"#utility.yul\":20838:20979   */\n      swap3\n      swap2\n      pop\n      pop\n      jump\t// out\n        /* \"#utility.yul\":20985:21334   */\n    tag_92:\n        /* \"#utility.yul\":21054:21060   */\n      0x00\n        /* \"#utility.yul\":21103:21105   */\n      0x20\n        /* \"#utility.yul\":21091:21100   */\n      dup3\n        /* \"#utility.yul\":21082:21089   */\n      dup5\n        /* \"#utility.yul\":21078:21101   */\n      sub\n        /* \"#utility.yul\":21074:21106   */\n      slt\n        /* \"#utility.yul\":21071:21190   */\n      iszero\n      tag_395\n      jumpi\n        /* \"#utility.yul\":21109:21188   */\n      tag_396\n      tag_136\n      jump\t// in\n    tag_396:\n        /* \"#utility.yul\":21071:21190   */\n    tag_395:\n        /* \"#utility.yul\":21229:21230   */\n      0x00\n        /* \"#utility.yul\":21254:21317   */\n      tag_397\n        /* \"#utility.yul\":21309:21316   */\n      dup5\n        /* \"#utility.yul\":21300:21306   */\n      dup3\n        /* \"#utility.yul\":21289:21298   */\n      dup6\n        /* \"#utility.yul\":21285:21307   */\n      add\n        /* \"#utility.yul\":21254:21317   */\n      tag_185\n      jump\t// in\n    tag_397:\n        /* \"#utility.yul\":21244:21317   */\n      swap2\n      pop\n        /* \"#utility.yul\":21200:21327   */\n      pop\n        /* \"#utility.yul\":20985:21334   */\n      swap3\n      swap2\n      pop\n      pop\n      jump\t// out\n        /* \"#utility.yul\":21340:21505   */\n    tag_186:\n        /* \"#utility.yul\":21480:21497   */\n      0x756e73616665207472616e736665720000000000000000000000000000000000\n        /* \"#utility.yul\":21476:21477   */\n      0x00\n        /* \"#utility.yul\":21468:21474   */\n      dup3\n        /* \"#utility.yul\":21464:21478   */\n      add\n        /* \"#utility.yul\":21457:21498   */\n      mstore\n        /* \"#utility.yul\":21340:21505   */\n      pop\n      jump\t// out\n        /* \"#utility.yul\":21511:21877   */\n    tag_187:\n        /* \"#utility.yul\":21653:21656   */\n      0x00\n        /* \"#utility.yul\":21674:21741   */\n      tag_400\n        /* \"#utility.yul\":21738:21740   */\n      0x0f\n        /* \"#utility.yul\":21733:21736   */\n      dup4\n        /* \"#utility.yul\":21674:21741   */\n      tag_152\n      jump\t// in\n    tag_400:\n        /* \"#utility.yul\":21667:21741   */\n      swap2\n      pop\n        /* \"#utility.yul\":21750:21843   */\n      tag_401\n        /* \"#utility.yul\":21839:21842   */\n      dup3\n        /* \"#utility.yul\":21750:21843   */\n      tag_186\n      jump\t// in\n    tag_401:\n        /* \"#utility.yul\":21868:21870   */\n      0x20\n        /* \"#utility.yul\":21863:21866   */\n      dup3\n        /* \"#utility.yul\":21859:21871   */\n      add\n        /* \"#utility.yul\":21852:21871   */\n      swap1\n      pop\n        /* \"#utility.yul\":21511:21877   */\n      swap2\n      swap1\n      pop\n      jump\t// out\n        /* \"#utility.yul\":21883:22302   */\n    tag_95:\n        /* \"#utility.yul\":22049:22053   */\n      0x00\n        /* \"#utility.yul\":22087:22089   */\n      0x20\n        /* \"#utility.yul\":22076:22085   */\n      dup3\n        /* \"#utility.yul\":22072:22090   */\n      add\n        /* \"#utility.yul\":22064:22090   */\n      swap1\n      pop\n        /* \"#utility.yul\":22136:22145   */\n      dup2\n        /* \"#utility.yul\":22130:22134   */\n      dup2\n        /* \"#utility.yul\":22126:22146   */\n      sub\n        /* \"#utility.yul\":22122:22123   */\n      0x00\n        /* \"#utility.yul\":22111:22120   */\n      dup4\n        /* \"#utility.yul\":22107:22124   */\n      add\n        /* \"#utility.yul\":22100:22147   */\n      mstore\n        /* \"#utility.yul\":22164:22295   */\n      tag_403\n        /* \"#utility.yul\":22290:22294   */\n      dup2\n        /* \"#utility.yul\":22164:22295   */\n      tag_187\n      jump\t// in\n    tag_403:\n        /* \"#utility.yul\":22156:22295   */\n      swap1\n      pop\n        /* \"#utility.yul\":21883:22302   */\n      swap2\n      swap1\n      pop\n      jump\t// out\n        /* \"#utility.yul\":22308:22485   */\n    tag_188:\n        /* \"#utility.yul\":22448:22477   */\n      0x6f776e657273206c656e67746820213d20696473206c656e6774680000000000\n        /* \"#utility.yul\":22444:22445   */\n      0x00\n        /* \"#utility.yul\":22436:22442   */\n      dup3\n        /* \"#utility.yul\":22432:22446   */\n      add\n        /* \"#utility.yul\":22425:22478   */\n      mstore\n        /* \"#utility.yul\":22308:22485   */\n      pop\n      jump\t// out\n        /* \"#utility.yul\":22491:22857   */\n    tag_189:\n        /* \"#utility.yul\":22633:22636   */\n      0x00\n        /* \"#utility.yul\":22654:22721   */\n      tag_406\n        /* \"#utility.yul\":22718:22720   */\n      0x1b\n        /* \"#utility.yul\":22713:22716   */\n      dup4\n        /* \"#utility.yul\":22654:22721   */\n      tag_152\n      jump\t// in\n    tag_406:\n        /* \"#utility.yul\":22647:22721   */\n      swap2\n      pop\n        /* \"#utility.yul\":22730:22823   */\n      tag_407\n        /* \"#utility.yul\":22819:22822   */\n      dup3\n        /* \"#utility.yul\":22730:22823   */\n      tag_188\n      jump\t// in\n    tag_407:\n        /* \"#utility.yul\":22848:22850   */\n      0x20\n        /* \"#utility.yul\":22843:22846   */\n      dup3\n        /* \"#utility.yul\":22839:22851   */\n      add\n        /* \"#utility.yul\":22832:22851   */\n      swap1\n      pop\n        /* \"#utility.yul\":22491:22857   */\n      swap2\n      swap1\n      pop\n      jump\t// out\n        /* \"#utility.yul\":22863:23282   */\n    tag_99:\n        /* \"#utility.yul\":23029:23033   */\n      0x00\n        /* \"#utility.yul\":23067:23069   */\n      0x20\n        /* \"#utility.yul\":23056:23065   */\n      dup3\n        /* \"#utility.yul\":23052:23070   */\n      add\n        /* \"#utility.yul\":23044:23070   */\n      swap1\n      pop\n        /* \"#utility.yul\":23116:23125   */\n      dup2\n        /* \"#utility.yul\":23110:23114   */\n      dup2\n        /* \"#utility.yul\":23106:23126   */\n      sub\n        /* \"#utility.yul\":23102:23103   */\n      0x00\n        /* \"#utility.yul\":23091:23100   */\n      dup4\n        /* \"#utility.yul\":23087:23104   */\n      add\n        /* \"#utility.yul\":23080:23127   */\n      mstore\n        /* \"#utility.yul\":23144:23275   */\n      tag_409\n        /* \"#utility.yul\":23270:23274   */\n      dup2\n        /* \"#utility.yul\":23144:23275   */\n      tag_189\n      jump\t// in\n    tag_409:\n        /* \"#utility.yul\":23136:23275   */\n      swap1\n      pop\n        /* \"#utility.yul\":22863:23282   */\n      swap2\n      swap1\n      pop\n      jump\t// out\n        /* \"#utility.yul\":23288:23468   */\n    tag_102:\n        /* \"#utility.yul\":23336:23413   */\n      0x4e487b7100000000000000000000000000000000000000000000000000000000\n        /* \"#utility.yul\":23333:23334   */\n      0x00\n        /* \"#utility.yul\":23326:23414   */\n      mstore\n        /* \"#utility.yul\":23433:23437   */\n      0x41\n        /* \"#utility.yul\":23430:23431   */\n      0x04\n        /* \"#utility.yul\":23423:23438   */\n      mstore\n        /* \"#utility.yul\":23457:23461   */\n      0x24\n        /* \"#utility.yul\":23454:23455   */\n      0x00\n        /* \"#utility.yul\":23447:23462   */\n      revert\n        /* \"#utility.yul\":23474:23803   */\n    tag_110:\n        /* \"#utility.yul\":23533:23539   */\n      0x00\n        /* \"#utility.yul\":23582:23584   */\n      0x20\n        /* \"#utility.yul\":23570:23579   */\n      dup3\n        /* \"#utility.yul\":23561:23568   */\n      dup5\n        /* \"#utility.yul\":23557:23580   */\n      sub\n        /* \"#utility.yul\":23553:23585   */\n      slt\n        /* \"#utility.yul\":23550:23669   */\n      iszero\n      tag_412\n      jumpi\n        /* \"#utility.yul\":23588:23667   */\n      tag_413\n      tag_136\n      jump\t// in\n    tag_413:\n        /* \"#utility.yul\":23550:23669   */\n    tag_412:\n        /* \"#utility.yul\":23708:23709   */\n      0x00\n        /* \"#utility.yul\":23733:23786   */\n      tag_414\n        /* \"#utility.yul\":23778:23785   */\n      dup5\n        /* \"#utility.yul\":23769:23775   */\n      dup3\n        /* \"#utility.yul\":23758:23767   */\n      dup6\n        /* \"#utility.yul\":23754:23776   */\n      add\n        /* \"#utility.yul\":23733:23786   */\n      tag_141\n      jump\t// in\n    tag_414:\n        /* \"#utility.yul\":23723:23786   */\n      swap2\n      pop\n        /* \"#utility.yul\":23679:23796   */\n      pop\n        /* \"#utility.yul\":23474:23803   */\n      swap3\n      swap2\n      pop\n      pop\n      jump\t// out\n        /* \"#utility.yul\":23809:24141   */\n    tag_126:\n        /* \"#utility.yul\":23930:23934   */\n      0x00\n        /* \"#utility.yul\":23968:23970   */\n      0x40\n        /* \"#utility.yul\":23957:23966   */\n      dup3\n        /* \"#utility.yul\":23953:23971   */\n      add\n        /* \"#utility.yul\":23945:23971   */\n      swap1\n      pop\n        /* \"#utility.yul\":23981:24052   */\n      tag_416\n        /* \"#utility.yul\":24049:24050   */\n      0x00\n        /* \"#utility.yul\":24038:24047   */\n      dup4\n        /* \"#utility.yul\":24034:24051   */\n      add\n        /* \"#utility.yul\":24025:24031   */\n      dup6\n        /* \"#utility.yul\":23981:24052   */\n      tag_145\n      jump\t// in\n    tag_416:\n        /* \"#utility.yul\":24062:24134   */\n      tag_417\n        /* \"#utility.yul\":24130:24132   */\n      0x20\n        /* \"#utility.yul\":24119:24128   */\n      dup4\n        /* \"#utility.yul\":24115:24133   */\n      add\n        /* \"#utility.yul\":24106:24112   */\n      dup5\n        /* \"#utility.yul\":24062:24134   */\n      tag_145\n      jump\t// in\n    tag_417:\n        /* \"#utility.yul\":23809:24141   */\n      swap4\n      swap3\n      pop\n      pop\n      pop\n      jump\t// out\n        /* \"#utility.yul\":24147:24918   */\n    tag_129:\n        /* \"#utility.yul\":24380:24384   */\n      0x00\n        /* \"#utility.yul\":24418:24421   */\n      0xa0\n        /* \"#utility.yul\":24407:24416   */\n      dup3\n        /* \"#utility.yul\":24403:24422   */\n      add\n        /* \"#utility.yul\":24395:24422   */\n      swap1\n      pop\n        /* \"#utility.yul\":24432:24503   */\n      tag_419\n        /* \"#utility.yul\":24500:24501   */\n      0x00\n        /* \"#utility.yul\":24489:24498   */\n      dup4\n        /* \"#utility.yul\":24485:24502   */\n      add\n        /* \"#utility.yul\":24476:24482   */\n      dup10\n        /* \"#utility.yul\":24432:24503   */\n      tag_181\n      jump\t// in\n    tag_419:\n        /* \"#utility.yul\":24513:24585   */\n      tag_420\n        /* \"#utility.yul\":24581:24583   */\n      0x20\n        /* \"#utility.yul\":24570:24579   */\n      dup4\n        /* \"#utility.yul\":24566:24584   */\n      add\n        /* \"#utility.yul\":24557:24563   */\n      dup9\n        /* \"#utility.yul\":24513:24585   */\n      tag_181\n      jump\t// in\n    tag_420:\n        /* \"#utility.yul\":24595:24667   */\n      tag_421\n        /* \"#utility.yul\":24663:24665   */\n      0x40\n        /* \"#utility.yul\":24652:24661   */\n      dup4\n        /* \"#utility.yul\":24648:24666   */\n      add\n        /* \"#utility.yul\":24639:24645   */\n      dup8\n        /* \"#utility.yul\":24595:24667   */\n      tag_145\n      jump\t// in\n    tag_421:\n        /* \"#utility.yul\":24677:24749   */\n      tag_422\n        /* \"#utility.yul\":24745:24747   */\n      0x60\n        /* \"#utility.yul\":24734:24743   */\n      dup4\n        /* \"#utility.yul\":24730:24748   */\n      add\n        /* \"#utility.yul\":24721:24727   */\n      dup7\n        /* \"#utility.yul\":24677:24749   */\n      tag_145\n      jump\t// in\n    tag_422:\n        /* \"#utility.yul\":24797:24806   */\n      dup2\n        /* \"#utility.yul\":24791:24795   */\n      dup2\n        /* \"#utility.yul\":24787:24807   */\n      sub\n        /* \"#utility.yul\":24781:24784   */\n      0x80\n        /* \"#utility.yul\":24770:24779   */\n      dup4\n        /* \"#utility.yul\":24766:24785   */\n      add\n        /* \"#utility.yul\":24759:24808   */\n      mstore\n        /* \"#utility.yul\":24825:24911   */\n      tag_423\n        /* \"#utility.yul\":24906:24910   */\n      dup2\n        /* \"#utility.yul\":24897:24903   */\n      dup5\n        /* \"#utility.yul\":24889:24895   */\n      dup7\n        /* \"#utility.yul\":24825:24911   */\n      tag_184\n      jump\t// in\n    tag_423:\n        /* \"#utility.yul\":24817:24911   */\n      swap1\n      pop\n        /* \"#utility.yul\":24147:24918   */\n      swap8\n      swap7\n      pop\n      pop\n      pop\n      pop\n      pop\n      pop\n      pop\n      jump\t// out\n\n    auxdata: 0xa2646970667358221220248d4a5d60d7e70f8c1622a25ed02f5912d4f017b5c575f38cbb44ebe9229cd664736f6c634300081a0033\n}\n",
				"bytecode": {
					"linkReferences": {},
					"object": "6080604052348015600e575f80fd5b506119e78061001c5f395ff3fe608060405234801561000f575f80fd5b5060043610610085575f3560e01c80634e1273f4116100595780634e1273f414610135578063a22cb46514610165578063e985e9c514610181578063f242432a146101b157610085565b8062fdd58e1461008957806301ffc9a7146100b95780630e89341c146100e95780632eb2c2d614610119575b5f80fd5b6100a3600480360381019061009e9190610e24565b6101cd565b6040516100b09190610e71565b60405180910390f35b6100d360048036038101906100ce9190610edf565b6101ec565b6040516100e09190610f24565b60405180910390f35b61010360048036038101906100fe9190610f3d565b61027d565b6040516101109190610fd8565b60405180910390f35b610133600480360381019061012e91906110ae565b610284565b005b61014f600480360381019061014a91906111da565b61072e565b60405161015c919061130f565b60405180910390f35b61017f600480360381019061017a9190611359565b610894565b005b61019b60048036038101906101969190611397565b61098c565b6040516101a89190610f24565b60405180910390f35b6101cb60048036038101906101c691906113d5565b6109b6565b005b5f602052815f5260405f20602052805f5260405f205f91509150505481565b5f6301ffc9a760e01b827bffffffffffffffffffffffffffffffffffffffffffffffffffffffff19161480610246575063d9b67a2660e01b827bffffffffffffffffffffffffffffffffffffffffffffffffffffffff1916145b806102765750630e89341c60e01b827bffffffffffffffffffffffffffffffffffffffffffffffffffffffff1916145b9050919050565b6060919050565b8773ffffffffffffffffffffffffffffffffffffffff163373ffffffffffffffffffffffffffffffffffffffff16148061033f575060015f8973ffffffffffffffffffffffffffffffffffffffff1673ffffffffffffffffffffffffffffffffffffffff1681526020019081526020015f205f3373ffffffffffffffffffffffffffffffffffffffff1673ffffffffffffffffffffffffffffffffffffffff1681526020019081526020015f205f9054906101000a900460ff165b61037e576040517f08c379a0000000000000000000000000000000000000000000000000000000008152600401610375906114b5565b60405180910390fd5b5f73ffffffffffffffffffffffffffffffffffffffff168773ffffffffffffffffffffffffffffffffffffffff16036103ec576040517f08c379a00000000000000000000000000000000000000000000000000000000081526004016103e39061151d565b60405180910390fd5b838390508686905014610434576040517f08c379a000000000000000000000000000000000000000000000000000000000815260040161042b90611585565b60405180910390fd5b5f5b8686905081101561057457848482818110610454576104536115a3565b5b905060200201355f808b73ffffffffffffffffffffffffffffffffffffffff1673ffffffffffffffffffffffffffffffffffffffff1681526020019081526020015f205f8989858181106104ab576104aa6115a3565b5b9050602002013581526020019081526020015f205f8282546104cd91906115fd565b925050819055508484828181106104e7576104e66115a3565b5b905060200201355f808a73ffffffffffffffffffffffffffffffffffffffff1673ffffffffffffffffffffffffffffffffffffffff1681526020019081526020015f205f89898581811061053e5761053d6115a3565b5b9050602002013581526020019081526020015f205f8282546105609190611630565b925050819055508080600101915050610436565b508673ffffffffffffffffffffffffffffffffffffffff168873ffffffffffffffffffffffffffffffffffffffff163373ffffffffffffffffffffffffffffffffffffffff167f4a39dc06d4c0dbc64b70af90fd698a233a518aa5d07e595d983b8c0526c8f7fb898989896040516105ef94939291906116cb565b60405180910390a45f8773ffffffffffffffffffffffffffffffffffffffff163b11156107245763bc197c8160e01b7bffffffffffffffffffffffffffffffffffffffffffffffffffffffff19168773ffffffffffffffffffffffffffffffffffffffff1663bc197c81338b8a8a8a8a8a8a6040518963ffffffff1660e01b815260040161068498979695949392919061175d565b6020604051808303815f875af11580156106a0573d5f803e3d5ffd5b505050506040513d601f19601f820116820180604052508101906106c491906117dd565b7bffffffffffffffffffffffffffffffffffffffffffffffffffffffff191614610723576040517f08c379a000000000000000000000000000000000000000000000000000000000815260040161071a90611852565b60405180910390fd5b5b5050505050505050565b6060828290508585905014610778576040517f08c379a000000000000000000000000000000000000000000000000000000000815260040161076f906118ba565b60405180910390fd5b8484905067ffffffffffffffff811115610795576107946118d8565b5b6040519080825280602002602001820160405280156107c35781602001602082028036833780820191505090505b5090505f5b8585905081101561088b575f808787848181106107e8576107e76115a3565b5b90506020020160208101906107fd9190611905565b73ffffffffffffffffffffffffffffffffffffffff1673ffffffffffffffffffffffffffffffffffffffff1681526020019081526020015f205f85858481811061084a576108496115a3565b5b9050602002013581526020019081526020015f2054828281518110610872576108716115a3565b5b60200260200101818152505080806001019150506107c8565b50949350505050565b8060015f3373ffffffffffffffffffffffffffffffffffffffff1673ffffffffffffffffffffffffffffffffffffffff1681526020019081526020015f205f8473ffffffffffffffffffffffffffffffffffffffff1673ffffffffffffffffffffffffffffffffffffffff1681526020019081526020015f205f6101000a81548160ff0219169083151502179055508173ffffffffffffffffffffffffffffffffffffffff163373ffffffffffffffffffffffffffffffffffffffff167f17307eab39ab6107e8899845ad3d59bd9653f200f220920489ca2b5937696c31836040516109809190610f24565b60405180910390a35050565b6001602052815f5260405f20602052805f5260405f205f915091509054906101000a900460ff1681565b8573ffffffffffffffffffffffffffffffffffffffff163373ffffffffffffffffffffffffffffffffffffffff161480610a71575060015f8773ffffffffffffffffffffffffffffffffffffffff1673ffffffffffffffffffffffffffffffffffffffff1681526020019081526020015f205f3373ffffffffffffffffffffffffffffffffffffffff1673ffffffffffffffffffffffffffffffffffffffff1681526020019081526020015f205f9054906101000a900460ff165b610ab0576040517f08c379a0000000000000000000000000000000000000000000000000000000008152600401610aa7906114b5565b60405180910390fd5b5f73ffffffffffffffffffffffffffffffffffffffff168573ffffffffffffffffffffffffffffffffffffffff1603610b1e576040517f08c379a0000000000000000000000000000000000000000000000000000000008152600401610b159061151d565b60405180910390fd5b825f808873ffffffffffffffffffffffffffffffffffffffff1673ffffffffffffffffffffffffffffffffffffffff1681526020019081526020015f205f8681526020019081526020015f205f828254610b7891906115fd565b92505081905550825f808773ffffffffffffffffffffffffffffffffffffffff1673ffffffffffffffffffffffffffffffffffffffff1681526020019081526020015f205f8681526020019081526020015f205f828254610bd99190611630565b925050819055508473ffffffffffffffffffffffffffffffffffffffff168673ffffffffffffffffffffffffffffffffffffffff163373ffffffffffffffffffffffffffffffffffffffff167fc3d58168c5ae7397731d063d5bbf3d657854427343f4c083240f7aacaa2d0f628787604051610c56929190611930565b60405180910390a45f8573ffffffffffffffffffffffffffffffffffffffff163b1115610d875763f23a6e6160e01b7bffffffffffffffffffffffffffffffffffffffffffffffffffffffff19168573ffffffffffffffffffffffffffffffffffffffff1663f23a6e613389888888886040518763ffffffff1660e01b8152600401610ce796959493929190611957565b6020604051808303815f875af1158015610d03573d5f803e3d5ffd5b505050506040513d601f19601f82011682018060405250810190610d2791906117dd565b7bffffffffffffffffffffffffffffffffffffffffffffffffffffffff191614610d86576040517f08c379a0000000000000000000000000000000000000000000000000000000008152600401610d7d90611852565b60405180910390fd5b5b505050505050565b5f80fd5b5f80fd5b5f73ffffffffffffffffffffffffffffffffffffffff82169050919050565b5f610dc082610d97565b9050919050565b610dd081610db6565b8114610dda575f80fd5b50565b5f81359050610deb81610dc7565b92915050565b5f819050919050565b610e0381610df1565b8114610e0d575f80fd5b50565b5f81359050610e1e81610dfa565b92915050565b5f8060408385031215610e3a57610e39610d8f565b5b5f610e4785828601610ddd565b9250506020610e5885828601610e10565b9150509250929050565b610e6b81610df1565b82525050565b5f602082019050610e845f830184610e62565b92915050565b5f7fffffffff0000000000000000000000000000000000000000000000000000000082169050919050565b610ebe81610e8a565b8114610ec8575f80fd5b50565b5f81359050610ed981610eb5565b92915050565b5f60208284031215610ef457610ef3610d8f565b5b5f610f0184828501610ecb565b91505092915050565b5f8115159050919050565b610f1e81610f0a565b82525050565b5f602082019050610f375f830184610f15565b92915050565b5f60208284031215610f5257610f51610d8f565b5b5f610f5f84828501610e10565b91505092915050565b5f81519050919050565b5f82825260208201905092915050565b8281835e5f83830152505050565b5f601f19601f8301169050919050565b5f610faa82610f68565b610fb48185610f72565b9350610fc4818560208601610f82565b610fcd81610f90565b840191505092915050565b5f6020820190508181035f830152610ff08184610fa0565b905092915050565b5f80fd5b5f80fd5b5f80fd5b5f8083601f84011261101957611018610ff8565b5b8235905067ffffffffffffffff81111561103657611035610ffc565b5b60208301915083602082028301111561105257611051611000565b5b9250929050565b5f8083601f84011261106e5761106d610ff8565b5b8235905067ffffffffffffffff81111561108b5761108a610ffc565b5b6020830191508360018202830111156110a7576110a6611000565b5b9250929050565b5f805f805f805f8060a0898b0312156110ca576110c9610d8f565b5b5f6110d78b828c01610ddd565b98505060206110e88b828c01610ddd565b975050604089013567ffffffffffffffff81111561110957611108610d93565b5b6111158b828c01611004565b9650965050606089013567ffffffffffffffff81111561113857611137610d93565b5b6111448b828c01611004565b9450945050608089013567ffffffffffffffff81111561116757611166610d93565b5b6111738b828c01611059565b92509250509295985092959890939650565b5f8083601f84011261119a57611199610ff8565b5b8235905067ffffffffffffffff8111156111b7576111b6610ffc565b5b6020830191508360208202830111156111d3576111d2611000565b5b9250929050565b5f805f80604085870312156111f2576111f1610d8f565b5b5f85013567ffffffffffffffff81111561120f5761120e610d93565b5b61121b87828801611185565b9450945050602085013567ffffffffffffffff81111561123e5761123d610d93565b5b61124a87828801611004565b925092505092959194509250565b5f81519050919050565b5f82825260208201905092915050565b5f819050602082019050919050565b61128a81610df1565b82525050565b5f61129b8383611281565b60208301905092915050565b5f602082019050919050565b5f6112bd82611258565b6112c78185611262565b93506112d283611272565b805f5b838110156113025781516112e98882611290565b97506112f4836112a7565b9250506001810190506112d5565b5085935050505092915050565b5f6020820190508181035f83015261132781846112b3565b905092915050565b61133881610f0a565b8114611342575f80fd5b50565b5f813590506113538161132f565b92915050565b5f806040838503121561136f5761136e610d8f565b5b5f61137c85828601610ddd565b925050602061138d85828601611345565b9150509250929050565b5f80604083850312156113ad576113ac610d8f565b5b5f6113ba85828601610ddd565b92505060206113cb85828601610ddd565b9150509250929050565b5f805f805f8060a087890312156113ef576113ee610d8f565b5b5f6113fc89828a01610ddd565b965050602061140d89828a01610ddd565b955050604061141e89828a01610e10565b945050606061142f89828a01610e10565b935050608087013567ffffffffffffffff8111156114505761144f610d93565b5b61145c89828a01611059565b92509250509295509295509295565b7f6e6f7420617070726f76656400000000000000000000000000000000000000005f82015250565b5f61149f600c83610f72565b91506114aa8261146b565b602082019050919050565b5f6020820190508181035f8301526114cc81611493565b9050919050565b7f746f203d203020616464726573730000000000000000000000000000000000005f82015250565b5f611507600e83610f72565b9150611512826114d3565b602082019050919050565b5f6020820190508181035f830152611534816114fb565b9050919050565b7f696473206c656e67746820213d2076616c756573206c656e67746800000000005f82015250565b5f61156f601b83610f72565b915061157a8261153b565b602082019050919050565b5f6020820190508181035f83015261159c81611563565b9050919050565b7f4e487b71000000000000000000000000000000000000000000000000000000005f52603260045260245ffd5b7f4e487b71000000000000000000000000000000000000000000000000000000005f52601160045260245ffd5b5f61160782610df1565b915061161283610df1565b925082820390508181111561162a576116296115d0565b5b92915050565b5f61163a82610df1565b915061164583610df1565b925082820190508082111561165d5761165c6115d0565b5b92915050565b5f80fd5b82818337505050565b5f61167b8385611262565b93507f07ffffffffffffffffffffffffffffffffffffffffffffffffffffffffffffff8311156116ae576116ad611663565b5b6020830292506116bf838584611667565b82840190509392505050565b5f6040820190508181035f8301526116e4818688611670565b905081810360208301526116f9818486611670565b905095945050505050565b61170d81610db6565b82525050565b5f82825260208201905092915050565b828183375f83830152505050565b5f61173c8385611713565b9350611749838584611723565b61175283610f90565b840190509392505050565b5f60a0820190506117705f83018b611704565b61177d602083018a611704565b818103604083015261179081888a611670565b905081810360608301526117a5818688611670565b905081810360808301526117ba818486611731565b90509998505050505050505050565b5f815190506117d781610eb5565b92915050565b5f602082840312156117f2576117f1610d8f565b5b5f6117ff848285016117c9565b91505092915050565b7f756e73616665207472616e7366657200000000000000000000000000000000005f82015250565b5f61183c600f83610f72565b915061184782611808565b602082019050919050565b5f6020820190508181035f83015261186981611830565b9050919050565b7f6f776e657273206c656e67746820213d20696473206c656e67746800000000005f82015250565b5f6118a4601b83610f72565b91506118af82611870565b602082019050919050565b5f6020820190508181035f8301526118d181611898565b9050919050565b7f4e487b71000000000000000000000000000000000000000000000000000000005f52604160045260245ffd5b5f6020828403121561191a57611919610d8f565b5b5f61192784828501610ddd565b91505092915050565b5f6040820190506119435f830185610e62565b6119506020830184610e62565b9392505050565b5f60a08201905061196a5f830189611704565b6119776020830188611704565b6119846040830187610e62565b6119916060830186610e62565b81810360808301526119a4818486611731565b905097965050505050505056fea2646970667358221220248d4a5d60d7e70f8c1622a25ed02f5912d4f017b5c575f38cbb44ebe9229cd664736f6c634300081a0033",
					"opcodes": "PUSH1 0x80 PUSH1 0x40 MSTORE CALLVALUE DUP1 ISZERO PUSH1 0xE JUMPI PUSH0 DUP1 REVERT JUMPDEST POP PUSH2 0x19E7 DUP1 PUSH2 0x1C PUSH0 CODECOPY PUSH0 RETURN INVALID PUSH1 0x80 PUSH1 0x40 MSTORE CALLVALUE DUP1 ISZERO PUSH2 0xF JUMPI PUSH0 DUP1 REVERT JUMPDEST POP PUSH1 0x4 CALLDATASIZE LT PUSH2 0x85 JUMPI PUSH0 CALLDATALOAD PUSH1 0xE0 SHR DUP1 PUSH4 0x4E1273F4 GT PUSH2 0x59 JUMPI DUP1 PUSH4 0x4E1273F4 EQ PUSH2 0x135 JUMPI DUP1 PUSH4 0xA22CB465 EQ PUSH2 0x165 JUMPI DUP1 PUSH4 0xE985E9C5 EQ PUSH2 0x181 JUMPI DUP1 PUSH4 0xF242432A EQ PUSH2 0x1B1 JUMPI PUSH2 0x85 JUMP JUMPDEST DUP1 PUSH3 0xFDD58E EQ PUSH2 0x89 JUMPI DUP1 PUSH4 0x1FFC9A7 EQ PUSH2 0xB9 JUMPI DUP1 PUSH4 0xE89341C EQ PUSH2 0xE9 JUMPI DUP1 PUSH4 0x2EB2C2D6 EQ PUSH2 0x119 JUMPI JUMPDEST PUSH0 DUP1 REVERT JUMPDEST PUSH2 0xA3 PUSH1 0x4 DUP1 CALLDATASIZE SUB DUP2 ADD SWAP1 PUSH2 0x9E SWAP2 SWAP1 PUSH2 0xE24 JUMP JUMPDEST PUSH2 0x1CD JUMP JUMPDEST PUSH1 0x40 MLOAD PUSH2 0xB0 SWAP2 SWAP1 PUSH2 0xE71 JUMP JUMPDEST PUSH1 0x40 MLOAD DUP1 SWAP2 SUB SWAP1 RETURN JUMPDEST PUSH2 0xD3 PUSH1 0x4 DUP1 CALLDATASIZE SUB DUP2 ADD SWAP1 PUSH2 0xCE SWAP2 SWAP1 PUSH2 0xEDF JUMP JUMPDEST PUSH2 0x1EC JUMP JUMPDEST PUSH1 0x40 MLOAD PUSH2 0xE0 SWAP2 SWAP1 PUSH2 0xF24 JUMP JUMPDEST PUSH1 0x40 MLOAD DUP1 SWAP2 SUB SWAP1 RETURN JUMPDEST PUSH2 0x103 PUSH1 0x4 DUP1 CALLDATASIZE SUB DUP2 ADD SWAP1 PUSH2 0xFE SWAP2 SWAP1 PUSH2 0xF3D JUMP JUMPDEST PUSH2 0x27D JUMP JUMPDEST PUSH1 0x40 MLOAD PUSH2 0x110 SWAP2 SWAP1 PUSH2 0xFD8 JUMP JUMPDEST PUSH1 0x40 MLOAD DUP1 SWAP2 SUB SWAP1 RETURN JUMPDEST PUSH2 0x133 PUSH1 0x4 DUP1 CALLDATASIZE SUB DUP2 ADD SWAP1 PUSH2 0x12E SWAP2 SWAP1 PUSH2 0x10AE JUMP JUMPDEST PUSH2 0x284 JUMP JUMPDEST STOP JUMPDEST PUSH2 0x14F PUSH1 0x4 DUP1 CALLDATASIZE SUB DUP2 ADD SWAP1 PUSH2 0x14A SWAP2 SWAP1 PUSH2 0x11DA JUMP JUMPDEST PUSH2 0x72E JUMP JUMPDEST PUSH1 0x40 MLOAD PUSH2 0x15C SWAP2 SWAP1 PUSH2 0x130F JUMP JUMPDEST PUSH1 0x40 MLOAD DUP1 SWAP2 SUB SWAP1 RETURN JUMPDEST PUSH2 0x17F PUSH1 0x4 DUP1 CALLDATASIZE SUB DUP2 ADD SWAP1 PUSH2 0x17A SWAP2 SWAP1 PUSH2 0x1359 JUMP JUMPDEST PUSH2 0x894 JUMP JUMPDEST STOP JUMPDEST PUSH2 0x19B PUSH1 0x4 DUP1 CALLDATASIZE SUB DUP2 ADD SWAP1 PUSH2 0x196 SWAP2 SWAP1 PUSH2 0x1397 JUMP JUMPDEST PUSH2 0x98C JUMP JUMPDEST PUSH1 0x40 MLOAD PUSH2 0x1A8 SWAP2 SWAP1 PUSH2 0xF24 JUMP JUMPDEST PUSH1 0x40 MLOAD DUP1 SWAP2 SUB SWAP1 RETURN JUMPDEST PUSH2 0x1CB PUSH1 0x4 DUP1 CALLDATASIZE SUB DUP2 ADD SWAP1 PUSH2 0x1C6 SWAP2 SWAP1 PUSH2 0x13D5 JUMP JUMPDEST PUSH2 0x9B6 JUMP JUMPDEST STOP JUMPDEST PUSH0 PUSH1 0x20 MSTORE DUP2 PUSH0 MSTORE PUSH1 0x40 PUSH0 KECCAK256 PUSH1 0x20 MSTORE DUP1 PUSH0 MSTORE PUSH1 0x40 PUSH0 KECCAK256 PUSH0 SWAP2 POP SWAP2 POP POP SLOAD DUP2 JUMP JUMPDEST PUSH0 PUSH4 0x1FFC9A7 PUSH1 0xE0 SHL DUP3 PUSH28 0xFFFFFFFFFFFFFFFFFFFFFFFFFFFFFFFFFFFFFFFFFFFFFFFFFFFFFFFF NOT AND EQ DUP1 PUSH2 0x246 JUMPI POP PUSH4 0xD9B67A26 PUSH1 0xE0 SHL DUP3 PUSH28 0xFFFFFFFFFFFFFFFFFFFFFFFFFFFFFFFFFFFFFFFFFFFFFFFFFFFFFFFF NOT AND EQ JUMPDEST DUP1 PUSH2 0x276 JUMPI POP PUSH4 0xE89341C PUSH1 0xE0 SHL DUP3 PUSH28 0xFFFFFFFFFFFFFFFFFFFFFFFFFFFFFFFFFFFFFFFFFFFFFFFFFFFFFFFF NOT AND EQ JUMPDEST SWAP1 POP SWAP2 SWAP1 POP JUMP JUMPDEST PUSH1 0x60 SWAP2 SWAP1 POP JUMP JUMPDEST DUP8 PUSH20 0xFFFFFFFFFFFFFFFFFFFFFFFFFFFFFFFFFFFFFFFF AND CALLER PUSH20 0xFFFFFFFFFFFFFFFFFFFFFFFFFFFFFFFFFFFFFFFF AND EQ DUP1 PUSH2 0x33F JUMPI POP PUSH1 0x1 PUSH0 DUP10 PUSH20 0xFFFFFFFFFFFFFFFFFFFFFFFFFFFFFFFFFFFFFFFF AND PUSH20 0xFFFFFFFFFFFFFFFFFFFFFFFFFFFFFFFFFFFFFFFF AND DUP2 MSTORE PUSH1 0x20 ADD SWAP1 DUP2 MSTORE PUSH1 0x20 ADD PUSH0 KECCAK256 PUSH0 CALLER PUSH20 0xFFFFFFFFFFFFFFFFFFFFFFFFFFFFFFFFFFFFFFFF AND PUSH20 0xFFFFFFFFFFFFFFFFFFFFFFFFFFFFFFFFFFFFFFFF AND DUP2 MSTORE PUSH1 0x20 ADD SWAP1 DUP2 MSTORE PUSH1 0x20 ADD PUSH0 KECCAK256 PUSH0 SWAP1 SLOAD SWAP1 PUSH2 0x100 EXP SWAP1 DIV PUSH1 0xFF AND JUMPDEST PUSH2 0x37E JUMPI PUSH1 0x40 MLOAD PUSH32 0x8C379A000000000000000000000000000000000000000000000000000000000 DUP2 MSTORE PUSH1 0x4 ADD PUSH2 0x375 SWAP1 PUSH2 0x14B5 JUMP JUMPDEST PUSH1 0x40 MLOAD DUP1 SWAP2 SUB SWAP1 REVERT JUMPDEST PUSH0 PUSH20 0xFFFFFFFFFFFFFFFFFFFFFFFFFFFFFFFFFFFFFFFF AND DUP8 PUSH20 0xFFFFFFFFFFFFFFFFFFFFFFFFFFFFFFFFFFFFFFFF AND SUB PUSH2 0x3EC JUMPI PUSH1 0x40 MLOAD PUSH32 0x8C379A000000000000000000000000000000000000000000000000000000000 DUP2 MSTORE PUSH1 0x4 ADD PUSH2 0x3E3 SWAP1 PUSH2 0x151D JUMP JUMPDEST PUSH1 0x40 MLOAD DUP1 SWAP2 SUB SWAP1 REVERT JUMPDEST DUP4 DUP4 SWAP1 POP DUP7 DUP7 SWAP1 POP EQ PUSH2 0x434 JUMPI PUSH1 0x40 MLOAD PUSH32 0x8C379A000000000000000000000000000000000000000000000000000000000 DUP2 MSTORE PUSH1 0x4 ADD PUSH2 0x42B SWAP1 PUSH2 0x1585 JUMP JUMPDEST PUSH1 0x40 MLOAD DUP1 SWAP2 SUB SWAP1 REVERT JUMPDEST PUSH0 JUMPDEST DUP7 DUP7 SWAP1 POP DUP2 LT ISZERO PUSH2 0x574 JUMPI DUP5 DUP5 DUP3 DUP2 DUP2 LT PUSH2 0x454 JUMPI PUSH2 0x453 PUSH2 0x15A3 JUMP JUMPDEST JUMPDEST SWAP1 POP PUSH1 0x20 MUL ADD CALLDATALOAD PUSH0 DUP1 DUP12 PUSH20 0xFFFFFFFFFFFFFFFFFFFFFFFFFFFFFFFFFFFFFFFF AND PUSH20 0xFFFFFFFFFFFFFFFFFFFFFFFFFFFFFFFFFFFFFFFF AND DUP2 MSTORE PUSH1 0x20 ADD SWAP1 DUP2 MSTORE PUSH1 0x20 ADD PUSH0 KECCAK256 PUSH0 DUP10 DUP10 DUP6 DUP2 DUP2 LT PUSH2 0x4AB JUMPI PUSH2 0x4AA PUSH2 0x15A3 JUMP JUMPDEST JUMPDEST SWAP1 POP PUSH1 0x20 MUL ADD CALLDATALOAD DUP2 MSTORE PUSH1 0x20 ADD SWAP1 DUP2 MSTORE PUSH1 0x20 ADD PUSH0 KECCAK256 PUSH0 DUP3 DUP3 SLOAD PUSH2 0x4CD SWAP2 SWAP1 PUSH2 0x15FD JUMP JUMPDEST SWAP3 POP POP DUP2 SWAP1 SSTORE POP DUP5 DUP5 DUP3 DUP2 DUP2 LT PUSH2 0x4E7 JUMPI PUSH2 0x4E6 PUSH2 0x15A3 JUMP JUMPDEST JUMPDEST SWAP1 POP PUSH1 0x20 MUL ADD CALLDATALOAD PUSH0 DUP1 DUP11 PUSH20 0xFFFFFFFFFFFFFFFFFFFFFFFFFFFFFFFFFFFFFFFF AND PUSH20 0xFFFFFFFFFFFFFFFFFFFFFFFFFFFFFFFFFFFFFFFF AND DUP2 MSTORE PUSH1 0x20 ADD SWAP1 DUP2 MSTORE PUSH1 0x20 ADD PUSH0 KECCAK256 PUSH0 DUP10 DUP10 DUP6 DUP2 DUP2 LT PUSH2 0x53E JUMPI PUSH2 0x53D PUSH2 0x15A3 JUMP JUMPDEST JUMPDEST SWAP1 POP PUSH1 0x20 MUL ADD CALLDATALOAD DUP2 MSTORE PUSH1 0x20 ADD SWAP1 DUP2 MSTORE PUSH1 0x20 ADD PUSH0 KECCAK256 PUSH0 DUP3 DUP3 SLOAD PUSH2 0x560 SWAP2 SWAP1 PUSH2 0x1630 JUMP JUMPDEST SWAP3 POP POP DUP2 SWAP1 SSTORE POP DUP1 DUP1 PUSH1 0x1 ADD SWAP2 POP POP PUSH2 0x436 JUMP JUMPDEST POP DUP7 PUSH20 0xFFFFFFFFFFFFFFFFFFFFFFFFFFFFFFFFFFFFFFFF AND DUP9 PUSH20 0xFFFFFFFFFFFFFFFFFFFFFFFFFFFFFFFFFFFFFFFF AND CALLER PUSH20 0xFFFFFFFFFFFFFFFFFFFFFFFFFFFFFFFFFFFFFFFF AND PUSH32 0x4A39DC06D4C0DBC64B70AF90FD698A233A518AA5D07E595D983B8C0526C8F7FB DUP10 DUP10 DUP10 DUP10 PUSH1 0x40 MLOAD PUSH2 0x5EF SWAP5 SWAP4 SWAP3 SWAP2 SWAP1 PUSH2 0x16CB JUMP JUMPDEST PUSH1 0x40 MLOAD DUP1 SWAP2 SUB SWAP1 LOG4 PUSH0 DUP8 PUSH20 0xFFFFFFFFFFFFFFFFFFFFFFFFFFFFFFFFFFFFFFFF AND EXTCODESIZE GT ISZERO PUSH2 0x724 JUMPI PUSH4 0xBC197C81 PUSH1 0xE0 SHL PUSH28 0xFFFFFFFFFFFFFFFFFFFFFFFFFFFFFFFFFFFFFFFFFFFFFFFFFFFFFFFF NOT AND DUP8 PUSH20 0xFFFFFFFFFFFFFFFFFFFFFFFFFFFFFFFFFFFFFFFF AND PUSH4 0xBC197C81 CALLER DUP12 DUP11 DUP11 DUP11 DUP11 DUP11 DUP11 PUSH1 0x40 MLOAD DUP10 PUSH4 0xFFFFFFFF AND PUSH1 0xE0 SHL DUP2 MSTORE PUSH1 0x4 ADD PUSH2 0x684 SWAP9 SWAP8 SWAP7 SWAP6 SWAP5 SWAP4 SWAP3 SWAP2 SWAP1 PUSH2 0x175D JUMP JUMPDEST PUSH1 0x20 PUSH1 0x40 MLOAD DUP1 DUP4 SUB DUP2 PUSH0 DUP8 GAS CALL ISZERO DUP1 ISZERO PUSH2 0x6A0 JUMPI RETURNDATASIZE PUSH0 DUP1 RETURNDATACOPY RETURNDATASIZE PUSH0 REVERT JUMPDEST POP POP POP POP PUSH1 0x40 MLOAD RETURNDATASIZE PUSH1 0x1F NOT PUSH1 0x1F DUP3 ADD AND DUP3 ADD DUP1 PUSH1 0x40 MSTORE POP DUP2 ADD SWAP1 PUSH2 0x6C4 SWAP2 SWAP1 PUSH2 0x17DD JUMP JUMPDEST PUSH28 0xFFFFFFFFFFFFFFFFFFFFFFFFFFFFFFFFFFFFFFFFFFFFFFFFFFFFFFFF NOT AND EQ PUSH2 0x723 JUMPI PUSH1 0x40 MLOAD PUSH32 0x8C379A000000000000000000000000000000000000000000000000000000000 DUP2 MSTORE PUSH1 0x4 ADD PUSH2 0x71A SWAP1 PUSH2 0x1852 JUMP JUMPDEST PUSH1 0x40 MLOAD DUP1 SWAP2 SUB SWAP1 REVERT JUMPDEST JUMPDEST POP POP POP POP POP POP POP POP JUMP JUMPDEST PUSH1 0x60 DUP3 DUP3 SWAP1 POP DUP6 DUP6 SWAP1 POP EQ PUSH2 0x778 JUMPI PUSH1 0x40 MLOAD PUSH32 0x8C379A000000000000000000000000000000000000000000000000000000000 DUP2 MSTORE PUSH1 0x4 ADD PUSH2 0x76F SWAP1 PUSH2 0x18BA JUMP JUMPDEST PUSH1 0x40 MLOAD DUP1 SWAP2 SUB SWAP1 REVERT JUMPDEST DUP5 DUP5 SWAP1 POP PUSH8 0xFFFFFFFFFFFFFFFF DUP2 GT ISZERO PUSH2 0x795 JUMPI PUSH2 0x794 PUSH2 0x18D8 JUMP JUMPDEST JUMPDEST PUSH1 0x40 MLOAD SWAP1 DUP1 DUP3 MSTORE DUP1 PUSH1 0x20 MUL PUSH1 0x20 ADD DUP3 ADD PUSH1 0x40 MSTORE DUP1 ISZERO PUSH2 0x7C3 JUMPI DUP2 PUSH1 0x20 ADD PUSH1 0x20 DUP3 MUL DUP1 CALLDATASIZE DUP4 CALLDATACOPY DUP1 DUP3 ADD SWAP2 POP POP SWAP1 POP JUMPDEST POP SWAP1 POP PUSH0 JUMPDEST DUP6 DUP6 SWAP1 POP DUP2 LT ISZERO PUSH2 0x88B JUMPI PUSH0 DUP1 DUP8 DUP8 DUP5 DUP2 DUP2 LT PUSH2 0x7E8 JUMPI PUSH2 0x7E7 PUSH2 0x15A3 JUMP JUMPDEST JUMPDEST SWAP1 POP PUSH1 0x20 MUL ADD PUSH1 0x20 DUP2 ADD SWAP1 PUSH2 0x7FD SWAP2 SWAP1 PUSH2 0x1905 JUMP JUMPDEST PUSH20 0xFFFFFFFFFFFFFFFFFFFFFFFFFFFFFFFFFFFFFFFF AND PUSH20 0xFFFFFFFFFFFFFFFFFFFFFFFFFFFFFFFFFFFFFFFF AND DUP2 MSTORE PUSH1 0x20 ADD SWAP1 DUP2 MSTORE PUSH1 0x20 ADD PUSH0 KECCAK256 PUSH0 DUP6 DUP6 DUP5 DUP2 DUP2 LT PUSH2 0x84A JUMPI PUSH2 0x849 PUSH2 0x15A3 JUMP JUMPDEST JUMPDEST SWAP1 POP PUSH1 0x20 MUL ADD CALLDATALOAD DUP2 MSTORE PUSH1 0x20 ADD SWAP1 DUP2 MSTORE PUSH1 0x20 ADD PUSH0 KECCAK256 SLOAD DUP3 DUP3 DUP2 MLOAD DUP2 LT PUSH2 0x872 JUMPI PUSH2 0x871 PUSH2 0x15A3 JUMP JUMPDEST JUMPDEST PUSH1 0x20 MUL PUSH1 0x20 ADD ADD DUP2 DUP2 MSTORE POP POP DUP1 DUP1 PUSH1 0x1 ADD SWAP2 POP POP PUSH2 0x7C8 JUMP JUMPDEST POP SWAP5 SWAP4 POP POP POP POP JUMP JUMPDEST DUP1 PUSH1 0x1 PUSH0 CALLER PUSH20 0xFFFFFFFFFFFFFFFFFFFFFFFFFFFFFFFFFFFFFFFF AND PUSH20 0xFFFFFFFFFFFFFFFFFFFFFFFFFFFFFFFFFFFFFFFF AND DUP2 MSTORE PUSH1 0x20 ADD SWAP1 DUP2 MSTORE PUSH1 0x20 ADD PUSH0 KECCAK256 PUSH0 DUP5 PUSH20 0xFFFFFFFFFFFFFFFFFFFFFFFFFFFFFFFFFFFFFFFF AND PUSH20 0xFFFFFFFFFFFFFFFFFFFFFFFFFFFFFFFFFFFFFFFF AND DUP2 MSTORE PUSH1 0x20 ADD SWAP1 DUP2 MSTORE PUSH1 0x20 ADD PUSH0 KECCAK256 PUSH0 PUSH2 0x100 EXP DUP2 SLOAD DUP2 PUSH1 0xFF MUL NOT AND SWAP1 DUP4 ISZERO ISZERO MUL OR SWAP1 SSTORE POP DUP2 PUSH20 0xFFFFFFFFFFFFFFFFFFFFFFFFFFFFFFFFFFFFFFFF AND CALLER PUSH20 0xFFFFFFFFFFFFFFFFFFFFFFFFFFFFFFFFFFFFFFFF AND PUSH32 0x17307EAB39AB6107E8899845AD3D59BD9653F200F220920489CA2B5937696C31 DUP4 PUSH1 0x40 MLOAD PUSH2 0x980 SWAP2 SWAP1 PUSH2 0xF24 JUMP JUMPDEST PUSH1 0x40 MLOAD DUP1 SWAP2 SUB SWAP1 LOG3 POP POP JUMP JUMPDEST PUSH1 0x1 PUSH1 0x20 MSTORE DUP2 PUSH0 MSTORE PUSH1 0x40 PUSH0 KECCAK256 PUSH1 0x20 MSTORE DUP1 PUSH0 MSTORE PUSH1 0x40 PUSH0 KECCAK256 PUSH0 SWAP2 POP SWAP2 POP SWAP1 SLOAD SWAP1 PUSH2 0x100 EXP SWAP1 DIV PUSH1 0xFF AND DUP2 JUMP JUMPDEST DUP6 PUSH20 0xFFFFFFFFFFFFFFFFFFFFFFFFFFFFFFFFFFFFFFFF AND CALLER PUSH20 0xFFFFFFFFFFFFFFFFFFFFFFFFFFFFFFFFFFFFFFFF AND EQ DUP1 PUSH2 0xA71 JUMPI POP PUSH1 0x1 PUSH0 DUP8 PUSH20 0xFFFFFFFFFFFFFFFFFFFFFFFFFFFFFFFFFFFFFFFF AND PUSH20 0xFFFFFFFFFFFFFFFFFFFFFFFFFFFFFFFFFFFFFFFF AND DUP2 MSTORE PUSH1 0x20 ADD SWAP1 DUP2 MSTORE PUSH1 0x20 ADD PUSH0 KECCAK256 PUSH0 CALLER PUSH20 0xFFFFFFFFFFFFFFFFFFFFFFFFFFFFFFFFFFFFFFFF AND PUSH20 0xFFFFFFFFFFFFFFFFFFFFFFFFFFFFFFFFFFFFFFFF AND DUP2 MSTORE PUSH1 0x20 ADD SWAP1 DUP2 MSTORE PUSH1 0x20 ADD PUSH0 KECCAK256 PUSH0 SWAP1 SLOAD SWAP1 PUSH2 0x100 EXP SWAP1 DIV PUSH1 0xFF AND JUMPDEST PUSH2 0xAB0 JUMPI PUSH1 0x40 MLOAD PUSH32 0x8C379A000000000000000000000000000000000000000000000000000000000 DUP2 MSTORE PUSH1 0x4 ADD PUSH2 0xAA7 SWAP1 PUSH2 0x14B5 JUMP JUMPDEST PUSH1 0x40 MLOAD DUP1 SWAP2 SUB SWAP1 REVERT JUMPDEST PUSH0 PUSH20 0xFFFFFFFFFFFFFFFFFFFFFFFFFFFFFFFFFFFFFFFF AND DUP6 PUSH20 0xFFFFFFFFFFFFFFFFFFFFFFFFFFFFFFFFFFFFFFFF AND SUB PUSH2 0xB1E JUMPI PUSH1 0x40 MLOAD PUSH32 0x8C379A000000000000000000000000000000000000000000000000000000000 DUP2 MSTORE PUSH1 0x4 ADD PUSH2 0xB15 SWAP1 PUSH2 0x151D JUMP JUMPDEST PUSH1 0x40 MLOAD DUP1 SWAP2 SUB SWAP1 REVERT JUMPDEST DUP3 PUSH0 DUP1 DUP9 PUSH20 0xFFFFFFFFFFFFFFFFFFFFFFFFFFFFFFFFFFFFFFFF AND PUSH20 0xFFFFFFFFFFFFFFFFFFFFFFFFFFFFFFFFFFFFFFFF AND DUP2 MSTORE PUSH1 0x20 ADD SWAP1 DUP2 MSTORE PUSH1 0x20 ADD PUSH0 KECCAK256 PUSH0 DUP7 DUP2 MSTORE PUSH1 0x20 ADD SWAP1 DUP2 MSTORE PUSH1 0x20 ADD PUSH0 KECCAK256 PUSH0 DUP3 DUP3 SLOAD PUSH2 0xB78 SWAP2 SWAP1 PUSH2 0x15FD JUMP JUMPDEST SWAP3 POP POP DUP2 SWAP1 SSTORE POP DUP3 PUSH0 DUP1 DUP8 PUSH20 0xFFFFFFFFFFFFFFFFFFFFFFFFFFFFFFFFFFFFFFFF AND PUSH20 0xFFFFFFFFFFFFFFFFFFFFFFFFFFFFFFFFFFFFFFFF AND DUP2 MSTORE PUSH1 0x20 ADD SWAP1 DUP2 MSTORE PUSH1 0x20 ADD PUSH0 KECCAK256 PUSH0 DUP7 DUP2 MSTORE PUSH1 0x20 ADD SWAP1 DUP2 MSTORE PUSH1 0x20 ADD PUSH0 KECCAK256 PUSH0 DUP3 DUP3 SLOAD PUSH2 0xBD9 SWAP2 SWAP1 PUSH2 0x1630 JUMP JUMPDEST SWAP3 POP POP DUP2 SWAP1 SSTORE POP DUP5 PUSH20 0xFFFFFFFFFFFFFFFFFFFFFFFFFFFFFFFFFFFFFFFF AND DUP7 PUSH20 0xFFFFFFFFFFFFFFFFFFFFFFFFFFFFFFFFFFFFFFFF AND CALLER PUSH20 0xFFFFFFFFFFFFFFFFFFFFFFFFFFFFFFFFFFFFFFFF AND PUSH32 0xC3D58168C5AE7397731D063D5BBF3D657854427343F4C083240F7AACAA2D0F62 DUP8 DUP8 PUSH1 0x40 MLOAD PUSH2 0xC56 SWAP3 SWAP2 SWAP1 PUSH2 0x1930 JUMP JUMPDEST PUSH1 0x40 MLOAD DUP1 SWAP2 SUB SWAP1 LOG4 PUSH0 DUP6 PUSH20 0xFFFFFFFFFFFFFFFFFFFFFFFFFFFFFFFFFFFFFFFF AND EXTCODESIZE GT ISZERO PUSH2 0xD87 JUMPI PUSH4 0xF23A6E61 PUSH1 0xE0 SHL PUSH28 0xFFFFFFFFFFFFFFFFFFFFFFFFFFFFFFFFFFFFFFFFFFFFFFFFFFFFFFFF NOT AND DUP6 PUSH20 0xFFFFFFFFFFFFFFFFFFFFFFFFFFFFFFFFFFFFFFFF AND PUSH4 0xF23A6E61 CALLER DUP10 DUP9 DUP9 DUP9 DUP9 PUSH1 0x40 MLOAD DUP8 PUSH4 0xFFFFFFFF AND PUSH1 0xE0 SHL DUP2 MSTORE PUSH1 0x4 ADD PUSH2 0xCE7 SWAP7 SWAP6 SWAP5 SWAP4 SWAP3 SWAP2 SWAP1 PUSH2 0x1957 JUMP JUMPDEST PUSH1 0x20 PUSH1 0x40 MLOAD DUP1 DUP4 SUB DUP2 PUSH0 DUP8 GAS CALL ISZERO DUP1 ISZERO PUSH2 0xD03 JUMPI RETURNDATASIZE PUSH0 DUP1 RETURNDATACOPY RETURNDATASIZE PUSH0 REVERT JUMPDEST POP POP POP POP PUSH1 0x40 MLOAD RETURNDATASIZE PUSH1 0x1F NOT PUSH1 0x1F DUP3 ADD AND DUP3 ADD DUP1 PUSH1 0x40 MSTORE POP DUP2 ADD SWAP1 PUSH2 0xD27 SWAP2 SWAP1 PUSH2 0x17DD JUMP JUMPDEST PUSH28 0xFFFFFFFFFFFFFFFFFFFFFFFFFFFFFFFFFFFFFFFFFFFFFFFFFFFFFFFF NOT AND EQ PUSH2 0xD86 JUMPI PUSH1 0x40 MLOAD PUSH32 0x8C379A000000000000000000000000000000000000000000000000000000000 DUP2 MSTORE PUSH1 0x4 ADD PUSH2 0xD7D SWAP1 PUSH2 0x1852 JUMP JUMPDEST PUSH1 0x40 MLOAD DUP1 SWAP2 SUB SWAP1 REVERT JUMPDEST JUMPDEST POP POP POP POP POP POP JUMP JUMPDEST PUSH0 DUP1 REVERT JUMPDEST PUSH0 DUP1 REVERT JUMPDEST PUSH0 PUSH20 0xFFFFFFFFFFFFFFFFFFFFFFFFFFFFFFFFFFFFFFFF DUP3 AND SWAP1 POP SWAP2 SWAP1 POP JUMP JUMPDEST PUSH0 PUSH2 0xDC0 DUP3 PUSH2 0xD97 JUMP JUMPDEST SWAP1 POP SWAP2 SWAP1 POP JUMP JUMPDEST PUSH2 0xDD0 DUP2 PUSH2 0xDB6 JUMP JUMPDEST DUP2 EQ PUSH2 0xDDA JUMPI PUSH0 DUP1 REVERT JUMPDEST POP JUMP JUMPDEST PUSH0 DUP2 CALLDATALOAD SWAP1 POP PUSH2 0xDEB DUP2 PUSH2 0xDC7 JUMP JUMPDEST SWAP3 SWAP2 POP POP JUMP JUMPDEST PUSH0 DUP2 SWAP1 POP SWAP2 SWAP1 POP JUMP JUMPDEST PUSH2 0xE03 DUP2 PUSH2 0xDF1 JUMP JUMPDEST DUP2 EQ PUSH2 0xE0D JUMPI PUSH0 DUP1 REVERT JUMPDEST POP JUMP JUMPDEST PUSH0 DUP2 CALLDATALOAD SWAP1 POP PUSH2 0xE1E DUP2 PUSH2 0xDFA JUMP JUMPDEST SWAP3 SWAP2 POP POP JUMP JUMPDEST PUSH0 DUP1 PUSH1 0x40 DUP4 DUP6 SUB SLT ISZERO PUSH2 0xE3A JUMPI PUSH2 0xE39 PUSH2 0xD8F JUMP JUMPDEST JUMPDEST PUSH0 PUSH2 0xE47 DUP6 DUP3 DUP7 ADD PUSH2 0xDDD JUMP JUMPDEST SWAP3 POP POP PUSH1 0x20 PUSH2 0xE58 DUP6 DUP3 DUP7 ADD PUSH2 0xE10 JUMP JUMPDEST SWAP2 POP POP SWAP3 POP SWAP3 SWAP1 POP JUMP JUMPDEST PUSH2 0xE6B DUP2 PUSH2 0xDF1 JUMP JUMPDEST DUP3 MSTORE POP POP JUMP JUMPDEST PUSH0 PUSH1 0x20 DUP3 ADD SWAP1 POP PUSH2 0xE84 PUSH0 DUP4 ADD DUP5 PUSH2 0xE62 JUMP JUMPDEST SWAP3 SWAP2 POP POP JUMP JUMPDEST PUSH0 PUSH32 0xFFFFFFFF00000000000000000000000000000000000000000000000000000000 DUP3 AND SWAP1 POP SWAP2 SWAP1 POP JUMP JUMPDEST PUSH2 0xEBE DUP2 PUSH2 0xE8A JUMP JUMPDEST DUP2 EQ PUSH2 0xEC8 JUMPI PUSH0 DUP1 REVERT JUMPDEST POP JUMP JUMPDEST PUSH0 DUP2 CALLDATALOAD SWAP1 POP PUSH2 0xED9 DUP2 PUSH2 0xEB5 JUMP JUMPDEST SWAP3 SWAP2 POP POP JUMP JUMPDEST PUSH0 PUSH1 0x20 DUP3 DUP5 SUB SLT ISZERO PUSH2 0xEF4 JUMPI PUSH2 0xEF3 PUSH2 0xD8F JUMP JUMPDEST JUMPDEST PUSH0 PUSH2 0xF01 DUP5 DUP3 DUP6 ADD PUSH2 0xECB JUMP JUMPDEST SWAP2 POP POP SWAP3 SWAP2 POP POP JUMP JUMPDEST PUSH0 DUP2 ISZERO ISZERO SWAP1 POP SWAP2 SWAP1 POP JUMP JUMPDEST PUSH2 0xF1E DUP2 PUSH2 0xF0A JUMP JUMPDEST DUP3 MSTORE POP POP JUMP JUMPDEST PUSH0 PUSH1 0x20 DUP3 ADD SWAP1 POP PUSH2 0xF37 PUSH0 DUP4 ADD DUP5 PUSH2 0xF15 JUMP JUMPDEST SWAP3 SWAP2 POP POP JUMP JUMPDEST PUSH0 PUSH1 0x20 DUP3 DUP5 SUB SLT ISZERO PUSH2 0xF52 JUMPI PUSH2 0xF51 PUSH2 0xD8F JUMP JUMPDEST JUMPDEST PUSH0 PUSH2 0xF5F DUP5 DUP3 DUP6 ADD PUSH2 0xE10 JUMP JUMPDEST SWAP2 POP POP SWAP3 SWAP2 POP POP JUMP JUMPDEST PUSH0 DUP2 MLOAD SWAP1 POP SWAP2 SWAP1 POP JUMP JUMPDEST PUSH0 DUP3 DUP3 MSTORE PUSH1 0x20 DUP3 ADD SWAP1 POP SWAP3 SWAP2 POP POP JUMP JUMPDEST DUP3 DUP2 DUP4 MCOPY PUSH0 DUP4 DUP4 ADD MSTORE POP POP POP JUMP JUMPDEST PUSH0 PUSH1 0x1F NOT PUSH1 0x1F DUP4 ADD AND SWAP1 POP SWAP2 SWAP1 POP JUMP JUMPDEST PUSH0 PUSH2 0xFAA DUP3 PUSH2 0xF68 JUMP JUMPDEST PUSH2 0xFB4 DUP2 DUP6 PUSH2 0xF72 JUMP JUMPDEST SWAP4 POP PUSH2 0xFC4 DUP2 DUP6 PUSH1 0x20 DUP7 ADD PUSH2 0xF82 JUMP JUMPDEST PUSH2 0xFCD DUP2 PUSH2 0xF90 JUMP JUMPDEST DUP5 ADD SWAP2 POP POP SWAP3 SWAP2 POP POP JUMP JUMPDEST PUSH0 PUSH1 0x20 DUP3 ADD SWAP1 POP DUP2 DUP2 SUB PUSH0 DUP4 ADD MSTORE PUSH2 0xFF0 DUP2 DUP5 PUSH2 0xFA0 JUMP JUMPDEST SWAP1 POP SWAP3 SWAP2 POP POP JUMP JUMPDEST PUSH0 DUP1 REVERT JUMPDEST PUSH0 DUP1 REVERT JUMPDEST PUSH0 DUP1 REVERT JUMPDEST PUSH0 DUP1 DUP4 PUSH1 0x1F DUP5 ADD SLT PUSH2 0x1019 JUMPI PUSH2 0x1018 PUSH2 0xFF8 JUMP JUMPDEST JUMPDEST DUP3 CALLDATALOAD SWAP1 POP PUSH8 0xFFFFFFFFFFFFFFFF DUP2 GT ISZERO PUSH2 0x1036 JUMPI PUSH2 0x1035 PUSH2 0xFFC JUMP JUMPDEST JUMPDEST PUSH1 0x20 DUP4 ADD SWAP2 POP DUP4 PUSH1 0x20 DUP3 MUL DUP4 ADD GT ISZERO PUSH2 0x1052 JUMPI PUSH2 0x1051 PUSH2 0x1000 JUMP JUMPDEST JUMPDEST SWAP3 POP SWAP3 SWAP1 POP JUMP JUMPDEST PUSH0 DUP1 DUP4 PUSH1 0x1F DUP5 ADD SLT PUSH2 0x106E JUMPI PUSH2 0x106D PUSH2 0xFF8 JUMP JUMPDEST JUMPDEST DUP3 CALLDATALOAD SWAP1 POP PUSH8 0xFFFFFFFFFFFFFFFF DUP2 GT ISZERO PUSH2 0x108B JUMPI PUSH2 0x108A PUSH2 0xFFC JUMP JUMPDEST JUMPDEST PUSH1 0x20 DUP4 ADD SWAP2 POP DUP4 PUSH1 0x1 DUP3 MUL DUP4 ADD GT ISZERO PUSH2 0x10A7 JUMPI PUSH2 0x10A6 PUSH2 0x1000 JUMP JUMPDEST JUMPDEST SWAP3 POP SWAP3 SWAP1 POP JUMP JUMPDEST PUSH0 DUP1 PUSH0 DUP1 PUSH0 DUP1 PUSH0 DUP1 PUSH1 0xA0 DUP10 DUP12 SUB SLT ISZERO PUSH2 0x10CA JUMPI PUSH2 0x10C9 PUSH2 0xD8F JUMP JUMPDEST JUMPDEST PUSH0 PUSH2 0x10D7 DUP12 DUP3 DUP13 ADD PUSH2 0xDDD JUMP JUMPDEST SWAP9 POP POP PUSH1 0x20 PUSH2 0x10E8 DUP12 DUP3 DUP13 ADD PUSH2 0xDDD JUMP JUMPDEST SWAP8 POP POP PUSH1 0x40 DUP10 ADD CALLDATALOAD PUSH8 0xFFFFFFFFFFFFFFFF DUP2 GT ISZERO PUSH2 0x1109 JUMPI PUSH2 0x1108 PUSH2 0xD93 JUMP JUMPDEST JUMPDEST PUSH2 0x1115 DUP12 DUP3 DUP13 ADD PUSH2 0x1004 JUMP JUMPDEST SWAP7 POP SWAP7 POP POP PUSH1 0x60 DUP10 ADD CALLDATALOAD PUSH8 0xFFFFFFFFFFFFFFFF DUP2 GT ISZERO PUSH2 0x1138 JUMPI PUSH2 0x1137 PUSH2 0xD93 JUMP JUMPDEST JUMPDEST PUSH2 0x1144 DUP12 DUP3 DUP13 ADD PUSH2 0x1004 JUMP JUMPDEST SWAP5 POP SWAP5 POP POP PUSH1 0x80 DUP10 ADD CALLDATALOAD PUSH8 0xFFFFFFFFFFFFFFFF DUP2 GT ISZERO PUSH2 0x1167 JUMPI PUSH2 0x1166 PUSH2 0xD93 JUMP JUMPDEST JUMPDEST PUSH2 0x1173 DUP12 DUP3 DUP13 ADD PUSH2 0x1059 JUMP JUMPDEST SWAP3 POP SWAP3 POP POP SWAP3 SWAP6 SWAP9 POP SWAP3 SWAP6 SWAP9 SWAP1 SWAP4 SWAP7 POP JUMP JUMPDEST PUSH0 DUP1 DUP4 PUSH1 0x1F DUP5 ADD SLT PUSH2 0x119A JUMPI PUSH2 0x1199 PUSH2 0xFF8 JUMP JUMPDEST JUMPDEST DUP3 CALLDATALOAD SWAP1 POP PUSH8 0xFFFFFFFFFFFFFFFF DUP2 GT ISZERO PUSH2 0x11B7 JUMPI PUSH2 0x11B6 PUSH2 0xFFC JUMP JUMPDEST JUMPDEST PUSH1 0x20 DUP4 ADD SWAP2 POP DUP4 PUSH1 0x20 DUP3 MUL DUP4 ADD GT ISZERO PUSH2 0x11D3 JUMPI PUSH2 0x11D2 PUSH2 0x1000 JUMP JUMPDEST JUMPDEST SWAP3 POP SWAP3 SWAP1 POP JUMP JUMPDEST PUSH0 DUP1 PUSH0 DUP1 PUSH1 0x40 DUP6 DUP8 SUB SLT ISZERO PUSH2 0x11F2 JUMPI PUSH2 0x11F1 PUSH2 0xD8F JUMP JUMPDEST JUMPDEST PUSH0 DUP6 ADD CALLDATALOAD PUSH8 0xFFFFFFFFFFFFFFFF DUP2 GT ISZERO PUSH2 0x120F JUMPI PUSH2 0x120E PUSH2 0xD93 JUMP JUMPDEST JUMPDEST PUSH2 0x121B DUP8 DUP3 DUP9 ADD PUSH2 0x1185 JUMP JUMPDEST SWAP5 POP SWAP5 POP POP PUSH1 0x20 DUP6 ADD CALLDATALOAD PUSH8 0xFFFFFFFFFFFFFFFF DUP2 GT ISZERO PUSH2 0x123E JUMPI PUSH2 0x123D PUSH2 0xD93 JUMP JUMPDEST JUMPDEST PUSH2 0x124A DUP8 DUP3 DUP9 ADD PUSH2 0x1004 JUMP JUMPDEST SWAP3 POP SWAP3 POP POP SWAP3 SWAP6 SWAP2 SWAP5 POP SWAP3 POP JUMP JUMPDEST PUSH0 DUP2 MLOAD SWAP1 POP SWAP2 SWAP1 POP JUMP JUMPDEST PUSH0 DUP3 DUP3 MSTORE PUSH1 0x20 DUP3 ADD SWAP1 POP SWAP3 SWAP2 POP POP JUMP JUMPDEST PUSH0 DUP2 SWAP1 POP PUSH1 0x20 DUP3 ADD SWAP1 POP SWAP2 SWAP1 POP JUMP JUMPDEST PUSH2 0x128A DUP2 PUSH2 0xDF1 JUMP JUMPDEST DUP3 MSTORE POP POP JUMP JUMPDEST PUSH0 PUSH2 0x129B DUP4 DUP4 PUSH2 0x1281 JUMP JUMPDEST PUSH1 0x20 DUP4 ADD SWAP1 POP SWAP3 SWAP2 POP POP JUMP JUMPDEST PUSH0 PUSH1 0x20 DUP3 ADD SWAP1 POP SWAP2 SWAP1 POP JUMP JUMPDEST PUSH0 PUSH2 0x12BD DUP3 PUSH2 0x1258 JUMP JUMPDEST PUSH2 0x12C7 DUP2 DUP6 PUSH2 0x1262 JUMP JUMPDEST SWAP4 POP PUSH2 0x12D2 DUP4 PUSH2 0x1272 JUMP JUMPDEST DUP1 PUSH0 JUMPDEST DUP4 DUP2 LT ISZERO PUSH2 0x1302 JUMPI DUP2 MLOAD PUSH2 0x12E9 DUP9 DUP3 PUSH2 0x1290 JUMP JUMPDEST SWAP8 POP PUSH2 0x12F4 DUP4 PUSH2 0x12A7 JUMP JUMPDEST SWAP3 POP POP PUSH1 0x1 DUP2 ADD SWAP1 POP PUSH2 0x12D5 JUMP JUMPDEST POP DUP6 SWAP4 POP POP POP POP SWAP3 SWAP2 POP POP JUMP JUMPDEST PUSH0 PUSH1 0x20 DUP3 ADD SWAP1 POP DUP2 DUP2 SUB PUSH0 DUP4 ADD MSTORE PUSH2 0x1327 DUP2 DUP5 PUSH2 0x12B3 JUMP JUMPDEST SWAP1 POP SWAP3 SWAP2 POP POP JUMP JUMPDEST PUSH2 0x1338 DUP2 PUSH2 0xF0A JUMP JUMPDEST DUP2 EQ PUSH2 0x1342 JUMPI PUSH0 DUP1 REVERT JUMPDEST POP JUMP JUMPDEST PUSH0 DUP2 CALLDATALOAD SWAP1 POP PUSH2 0x1353 DUP2 PUSH2 0x132F JUMP JUMPDEST SWAP3 SWAP2 POP POP JUMP JUMPDEST PUSH0 DUP1 PUSH1 0x40 DUP4 DUP6 SUB SLT ISZERO PUSH2 0x136F JUMPI PUSH2 0x136E PUSH2 0xD8F JUMP JUMPDEST JUMPDEST PUSH0 PUSH2 0x137C DUP6 DUP3 DUP7 ADD PUSH2 0xDDD JUMP JUMPDEST SWAP3 POP POP PUSH1 0x20 PUSH2 0x138D DUP6 DUP3 DUP7 ADD PUSH2 0x1345 JUMP JUMPDEST SWAP2 POP POP SWAP3 POP SWAP3 SWAP1 POP JUMP JUMPDEST PUSH0 DUP1 PUSH1 0x40 DUP4 DUP6 SUB SLT ISZERO PUSH2 0x13AD JUMPI PUSH2 0x13AC PUSH2 0xD8F JUMP JUMPDEST JUMPDEST PUSH0 PUSH2 0x13BA DUP6 DUP3 DUP7 ADD PUSH2 0xDDD JUMP JUMPDEST SWAP3 POP POP PUSH1 0x20 PUSH2 0x13CB DUP6 DUP3 DUP7 ADD PUSH2 0xDDD JUMP JUMPDEST SWAP2 POP POP SWAP3 POP SWAP3 SWAP1 POP JUMP JUMPDEST PUSH0 DUP1 PUSH0 DUP1 PUSH0 DUP1 PUSH1 0xA0 DUP8 DUP10 SUB SLT ISZERO PUSH2 0x13EF JUMPI PUSH2 0x13EE PUSH2 0xD8F JUMP JUMPDEST JUMPDEST PUSH0 PUSH2 0x13FC DUP10 DUP3 DUP11 ADD PUSH2 0xDDD JUMP JUMPDEST SWAP7 POP POP PUSH1 0x20 PUSH2 0x140D DUP10 DUP3 DUP11 ADD PUSH2 0xDDD JUMP JUMPDEST SWAP6 POP POP PUSH1 0x40 PUSH2 0x141E DUP10 DUP3 DUP11 ADD PUSH2 0xE10 JUMP JUMPDEST SWAP5 POP POP PUSH1 0x60 PUSH2 0x142F DUP10 DUP3 DUP11 ADD PUSH2 0xE10 JUMP JUMPDEST SWAP4 POP POP PUSH1 0x80 DUP8 ADD CALLDATALOAD PUSH8 0xFFFFFFFFFFFFFFFF DUP2 GT ISZERO PUSH2 0x1450 JUMPI PUSH2 0x144F PUSH2 0xD93 JUMP JUMPDEST JUMPDEST PUSH2 0x145C DUP10 DUP3 DUP11 ADD PUSH2 0x1059 JUMP JUMPDEST SWAP3 POP SWAP3 POP POP SWAP3 SWAP6 POP SWAP3 SWAP6 POP SWAP3 SWAP6 JUMP JUMPDEST PUSH32 0x6E6F7420617070726F7665640000000000000000000000000000000000000000 PUSH0 DUP3 ADD MSTORE POP JUMP JUMPDEST PUSH0 PUSH2 0x149F PUSH1 0xC DUP4 PUSH2 0xF72 JUMP JUMPDEST SWAP2 POP PUSH2 0x14AA DUP3 PUSH2 0x146B JUMP JUMPDEST PUSH1 0x20 DUP3 ADD SWAP1 POP SWAP2 SWAP1 POP JUMP JUMPDEST PUSH0 PUSH1 0x20 DUP3 ADD SWAP1 POP DUP2 DUP2 SUB PUSH0 DUP4 ADD MSTORE PUSH2 0x14CC DUP2 PUSH2 0x1493 JUMP JUMPDEST SWAP1 POP SWAP2 SWAP1 POP JUMP JUMPDEST PUSH32 0x746F203D20302061646472657373000000000000000000000000000000000000 PUSH0 DUP3 ADD MSTORE POP JUMP JUMPDEST PUSH0 PUSH2 0x1507 PUSH1 0xE DUP4 PUSH2 0xF72 JUMP JUMPDEST SWAP2 POP PUSH2 0x1512 DUP3 PUSH2 0x14D3 JUMP JUMPDEST PUSH1 0x20 DUP3 ADD SWAP1 POP SWAP2 SWAP1 POP JUMP JUMPDEST PUSH0 PUSH1 0x20 DUP3 ADD SWAP1 POP DUP2 DUP2 SUB PUSH0 DUP4 ADD MSTORE PUSH2 0x1534 DUP2 PUSH2 0x14FB JUMP JUMPDEST SWAP1 POP SWAP2 SWAP1 POP JUMP JUMPDEST PUSH32 0x696473206C656E67746820213D2076616C756573206C656E6774680000000000 PUSH0 DUP3 ADD MSTORE POP JUMP JUMPDEST PUSH0 PUSH2 0x156F PUSH1 0x1B DUP4 PUSH2 0xF72 JUMP JUMPDEST SWAP2 POP PUSH2 0x157A DUP3 PUSH2 0x153B JUMP JUMPDEST PUSH1 0x20 DUP3 ADD SWAP1 POP SWAP2 SWAP1 POP JUMP JUMPDEST PUSH0 PUSH1 0x20 DUP3 ADD SWAP1 POP DUP2 DUP2 SUB PUSH0 DUP4 ADD MSTORE PUSH2 0x159C DUP2 PUSH2 0x1563 JUMP JUMPDEST SWAP1 POP SWAP2 SWAP1 POP JUMP JUMPDEST PUSH32 0x4E487B7100000000000000000000000000000000000000000000000000000000 PUSH0 MSTORE PUSH1 0x32 PUSH1 0x4 MSTORE PUSH1 0x24 PUSH0 REVERT JUMPDEST PUSH32 0x4E487B7100000000000000000000000000000000000000000000000000000000 PUSH0 MSTORE PUSH1 0x11 PUSH1 0x4 MSTORE PUSH1 0x24 PUSH0 REVERT JUMPDEST PUSH0 PUSH2 0x1607 DUP3 PUSH2 0xDF1 JUMP JUMPDEST SWAP2 POP PUSH2 0x1612 DUP4 PUSH2 0xDF1 JUMP JUMPDEST SWAP3 POP DUP3 DUP3 SUB SWAP1 POP DUP2 DUP2 GT ISZERO PUSH2 0x162A JUMPI PUSH2 0x1629 PUSH2 0x15D0 JUMP JUMPDEST JUMPDEST SWAP3 SWAP2 POP POP JUMP JUMPDEST PUSH0 PUSH2 0x163A DUP3 PUSH2 0xDF1 JUMP JUMPDEST SWAP2 POP PUSH2 0x1645 DUP4 PUSH2 0xDF1 JUMP JUMPDEST SWAP3 POP DUP3 DUP3 ADD SWAP1 POP DUP1 DUP3 GT ISZERO PUSH2 0x165D JUMPI PUSH2 0x165C PUSH2 0x15D0 JUMP JUMPDEST JUMPDEST SWAP3 SWAP2 POP POP JUMP JUMPDEST PUSH0 DUP1 REVERT JUMPDEST DUP3 DUP2 DUP4 CALLDATACOPY POP POP POP JUMP JUMPDEST PUSH0 PUSH2 0x167B DUP4 DUP6 PUSH2 0x1262 JUMP JUMPDEST SWAP4 POP PUSH32 0x7FFFFFFFFFFFFFFFFFFFFFFFFFFFFFFFFFFFFFFFFFFFFFFFFFFFFFFFFFFFFFF DUP4 GT ISZERO PUSH2 0x16AE JUMPI PUSH2 0x16AD PUSH2 0x1663 JUMP JUMPDEST JUMPDEST PUSH1 0x20 DUP4 MUL SWAP3 POP PUSH2 0x16BF DUP4 DUP6 DUP5 PUSH2 0x1667 JUMP JUMPDEST DUP3 DUP5 ADD SWAP1 POP SWAP4 SWAP3 POP POP POP JUMP JUMPDEST PUSH0 PUSH1 0x40 DUP3 ADD SWAP1 POP DUP2 DUP2 SUB PUSH0 DUP4 ADD MSTORE PUSH2 0x16E4 DUP2 DUP7 DUP9 PUSH2 0x1670 JUMP JUMPDEST SWAP1 POP DUP2 DUP2 SUB PUSH1 0x20 DUP4 ADD MSTORE PUSH2 0x16F9 DUP2 DUP5 DUP7 PUSH2 0x1670 JUMP JUMPDEST SWAP1 POP SWAP6 SWAP5 POP POP POP POP POP JUMP JUMPDEST PUSH2 0x170D DUP2 PUSH2 0xDB6 JUMP JUMPDEST DUP3 MSTORE POP POP JUMP JUMPDEST PUSH0 DUP3 DUP3 MSTORE PUSH1 0x20 DUP3 ADD SWAP1 POP SWAP3 SWAP2 POP POP JUMP JUMPDEST DUP3 DUP2 DUP4 CALLDATACOPY PUSH0 DUP4 DUP4 ADD MSTORE POP POP POP JUMP JUMPDEST PUSH0 PUSH2 0x173C DUP4 DUP6 PUSH2 0x1713 JUMP JUMPDEST SWAP4 POP PUSH2 0x1749 DUP4 DUP6 DUP5 PUSH2 0x1723 JUMP JUMPDEST PUSH2 0x1752 DUP4 PUSH2 0xF90 JUMP JUMPDEST DUP5 ADD SWAP1 POP SWAP4 SWAP3 POP POP POP JUMP JUMPDEST PUSH0 PUSH1 0xA0 DUP3 ADD SWAP1 POP PUSH2 0x1770 PUSH0 DUP4 ADD DUP12 PUSH2 0x1704 JUMP JUMPDEST PUSH2 0x177D PUSH1 0x20 DUP4 ADD DUP11 PUSH2 0x1704 JUMP JUMPDEST DUP2 DUP2 SUB PUSH1 0x40 DUP4 ADD MSTORE PUSH2 0x1790 DUP2 DUP9 DUP11 PUSH2 0x1670 JUMP JUMPDEST SWAP1 POP DUP2 DUP2 SUB PUSH1 0x60 DUP4 ADD MSTORE PUSH2 0x17A5 DUP2 DUP7 DUP9 PUSH2 0x1670 JUMP JUMPDEST SWAP1 POP DUP2 DUP2 SUB PUSH1 0x80 DUP4 ADD MSTORE PUSH2 0x17BA DUP2 DUP5 DUP7 PUSH2 0x1731 JUMP JUMPDEST SWAP1 POP SWAP10 SWAP9 POP POP POP POP POP POP POP POP POP JUMP JUMPDEST PUSH0 DUP2 MLOAD SWAP1 POP PUSH2 0x17D7 DUP2 PUSH2 0xEB5 JUMP JUMPDEST SWAP3 SWAP2 POP POP JUMP JUMPDEST PUSH0 PUSH1 0x20 DUP3 DUP5 SUB SLT ISZERO PUSH2 0x17F2 JUMPI PUSH2 0x17F1 PUSH2 0xD8F JUMP JUMPDEST JUMPDEST PUSH0 PUSH2 0x17FF DUP5 DUP3 DUP6 ADD PUSH2 0x17C9 JUMP JUMPDEST SWAP2 POP POP SWAP3 SWAP2 POP POP JUMP JUMPDEST PUSH32 0x756E73616665207472616E736665720000000000000000000000000000000000 PUSH0 DUP3 ADD MSTORE POP JUMP JUMPDEST PUSH0 PUSH2 0x183C PUSH1 0xF DUP4 PUSH2 0xF72 JUMP JUMPDEST SWAP2 POP PUSH2 0x1847 DUP3 PUSH2 0x1808 JUMP JUMPDEST PUSH1 0x20 DUP3 ADD SWAP1 POP SWAP2 SWAP1 POP JUMP JUMPDEST PUSH0 PUSH1 0x20 DUP3 ADD SWAP1 POP DUP2 DUP2 SUB PUSH0 DUP4 ADD MSTORE PUSH2 0x1869 DUP2 PUSH2 0x1830 JUMP JUMPDEST SWAP1 POP SWAP2 SWAP1 POP JUMP JUMPDEST PUSH32 0x6F776E657273206C656E67746820213D20696473206C656E6774680000000000 PUSH0 DUP3 ADD MSTORE POP JUMP JUMPDEST PUSH0 PUSH2 0x18A4 PUSH1 0x1B DUP4 PUSH2 0xF72 JUMP JUMPDEST SWAP2 POP PUSH2 0x18AF DUP3 PUSH2 0x1870 JUMP JUMPDEST PUSH1 0x20 DUP3 ADD SWAP1 POP SWAP2 SWAP1 POP JUMP JUMPDEST PUSH0 PUSH1 0x20 DUP3 ADD SWAP1 POP DUP2 DUP2 SUB PUSH0 DUP4 ADD MSTORE PUSH2 0x18D1 DUP2 PUSH2 0x1898 JUMP JUMPDEST SWAP1 POP SWAP2 SWAP1 POP JUMP JUMPDEST PUSH32 0x4E487B7100000000000000000000000000000000000000000000000000000000 PUSH0 MSTORE PUSH1 0x41 PUSH1 0x4 MSTORE PUSH1 0x24 PUSH0 REVERT JUMPDEST PUSH0 PUSH1 0x20 DUP3 DUP5 SUB SLT ISZERO PUSH2 0x191A JUMPI PUSH2 0x1919 PUSH2 0xD8F JUMP JUMPDEST JUMPDEST PUSH0 PUSH2 0x1927 DUP5 DUP3 DUP6 ADD PUSH2 0xDDD JUMP JUMPDEST SWAP2 POP POP SWAP3 SWAP2 POP POP JUMP JUMPDEST PUSH0 PUSH1 0x40 DUP3 ADD SWAP1 POP PUSH2 0x1943 PUSH0 DUP4 ADD DUP6 PUSH2 0xE62 JUMP JUMPDEST PUSH2 0x1950 PUSH1 0x20 DUP4 ADD DUP5 PUSH2 0xE62 JUMP JUMPDEST SWAP4 SWAP3 POP POP POP JUMP JUMPDEST PUSH0 PUSH1 0xA0 DUP3 ADD SWAP1 POP PUSH2 0x196A PUSH0 DUP4 ADD DUP10 PUSH2 0x1704 JUMP JUMPDEST PUSH2 0x1977 PUSH1 0x20 DUP4 ADD DUP9 PUSH2 0x1704 JUMP JUMPDEST PUSH2 0x1984 PUSH1 0x40 DUP4 ADD DUP8 PUSH2 0xE62 JUMP JUMPDEST PUSH2 0x1991 PUSH1 0x60 DUP4 ADD DUP7 PUSH2 0xE62 JUMP JUMPDEST DUP2 DUP2 SUB PUSH1 0x80 DUP4 ADD MSTORE PUSH2 0x19A4 DUP2 DUP5 DUP7 PUSH2 0x1731 JUMP JUMPDEST SWAP1 POP SWAP8 SWAP7 POP POP POP POP POP POP POP JUMP INVALID LOG2 PUSH5 0x6970667358 0x22 SLT KECCAK256 0x24 DUP14 BLOBBASEFEE TSTORE PUSH1 0xD7 0xE7 0xF DUP13 AND 0x22 LOG2 MCOPY 0xD0 0x2F MSIZE SLT 0xD4 CREATE OR 0xB5 0xC5 PUSH22 0xF38CBB44EBE9229CD664736F6C634300081A00330000 "
				},
				"gasEstimates": {
					"creation": {
						"codeDepositCost": "1326200",
						"executionCost": "1381",
						"totalCost": "1327581"
					},
					"external": {
						"balanceOf(address,uint256)": "infinite",
						"balanceOfBatch(address[],uint256[])": "infinite",
						"isApprovedForAll(address,address)": "infinite",
						"safeBatchTransferFrom(address,address,uint256[],uint256[],bytes)": "infinite",
						"safeTransferFrom(address,address,uint256,uint256,bytes)": "infinite",
						"setApprovalForAll(address,bool)": "infinite",
						"supportsInterface(bytes4)": "735",
						"uri(uint256)": "infinite"
					},
					"internal": {
						"_batchBurn(address,uint256[] calldata,uint256[] calldata)": "infinite",
						"_batchMint(address,uint256[] calldata,uint256[] calldata,bytes calldata)": "infinite",
						"_burn(address,uint256,uint256)": "infinite",
						"_mint(address,uint256,uint256,bytes memory)": "infinite"
					}
				},
				"methodIdentifiers": {
					"balanceOf(address,uint256)": "00fdd58e",
					"balanceOfBatch(address[],uint256[])": "4e1273f4",
					"isApprovedForAll(address,address)": "e985e9c5",
					"safeBatchTransferFrom(address,address,uint256[],uint256[],bytes)": "2eb2c2d6",
					"safeTransferFrom(address,address,uint256,uint256,bytes)": "f242432a",
					"setApprovalForAll(address,bool)": "a22cb465",
					"supportsInterface(bytes4)": "01ffc9a7",
					"uri(uint256)": "0e89341c"
				}
			},
			"storageLayout": {
				"storage": [
					{
						"astId": 148,
						"contract": "Contracts/ERC1155.sol:ERC1155",
						"label": "balanceOf",
						"offset": 0,
						"slot": "0",
						"type": "t_mapping(t_address,t_mapping(t_uint256,t_uint256))"
					},
					{
						"astId": 154,
						"contract": "Contracts/ERC1155.sol:ERC1155",
						"label": "isApprovedForAll",
						"offset": 0,
						"slot": "1",
						"type": "t_mapping(t_address,t_mapping(t_address,t_bool))"
					}
				],
				"types": {
					"t_address": {
						"encoding": "inplace",
						"label": "address",
						"numberOfBytes": "20"
					},
					"t_bool": {
						"encoding": "inplace",
						"label": "bool",
						"numberOfBytes": "1"
					},
					"t_mapping(t_address,t_bool)": {
						"encoding": "mapping",
						"key": "t_address",
						"label": "mapping(address => bool)",
						"numberOfBytes": "32",
						"value": "t_bool"
					},
					"t_mapping(t_address,t_mapping(t_address,t_bool))": {
						"encoding": "mapping",
						"key": "t_address",
						"label": "mapping(address => mapping(address => bool))",
						"numberOfBytes": "32",
						"value": "t_mapping(t_address,t_bool)"
					},
					"t_mapping(t_address,t_mapping(t_uint256,t_uint256))": {
						"encoding": "mapping",
						"key": "t_address",
						"label": "mapping(address => mapping(uint256 => uint256))",
						"numberOfBytes": "32",
						"value": "t_mapping(t_uint256,t_uint256)"
					},
					"t_mapping(t_uint256,t_uint256)": {
						"encoding": "mapping",
						"key": "t_uint256",
						"label": "mapping(uint256 => uint256)",
						"numberOfBytes": "32",
						"value": "t_uint256"
					},
					"t_uint256": {
						"encoding": "inplace",
						"label": "uint256",
						"numberOfBytes": "32"
					}
				}
			},
			"userdoc": {
				"kind": "user",
				"methods": {},
				"version": 1
			}
		}
	}
}