{
	"Contracts/PrecomputAddress.sol": {
		"FactoryContract": {
			"abi": [
				{
					"anonymous": false,
					"inputs": [
						{
							"indexed": false,
							"internalType": "address",
							"name": "deployedAddress",
							"type": "address"
						}
					],
					"name": "CreatedContract",
					"type": "event"
				},
				{
					"inputs": [
						{
							"internalType": "uint256",
							"name": "_salt",
							"type": "uint256"
						}
					],
					"name": "deployContract",
					"outputs": [],
					"stateMutability": "nonpayable",
					"type": "function"
				},
				{
					"inputs": [
						{
							"internalType": "bytes",
							"name": "bytecode",
							"type": "bytes"
						},
						{
							"internalType": "uint256",
							"name": "_salt",
							"type": "uint256"
						}
					],
					"name": "getaddress",
					"outputs": [
						{
							"internalType": "address",
							"name": "",
							"type": "address"
						}
					],
					"stateMutability": "view",
					"type": "function"
				}
			],
			"devdoc": {
				"kind": "dev",
				"methods": {},
				"version": 1
			},
			"evm": {
				"assembly": "    /* \"Contracts/PrecomputAddress.sol\":180:844  contract FactoryContract {... */\n  mstore(0x40, 0x80)\n  callvalue\n  dup1\n  iszero\n  tag_1\n  jumpi\n  0x00\n  dup1\n  revert\ntag_1:\n  pop\n  dataSize(sub_0)\n  dup1\n  dataOffset(sub_0)\n  0x00\n  codecopy\n  0x00\n  return\nstop\n\nsub_0: assembly {\n        /* \"Contracts/PrecomputAddress.sol\":180:844  contract FactoryContract {... */\n      mstore(0x40, 0x80)\n      callvalue\n      dup1\n      iszero\n      tag_1\n      jumpi\n      0x00\n      dup1\n      revert\n    tag_1:\n      pop\n      jumpi(tag_2, lt(calldatasize, 0x04))\n      shr(0xe0, calldataload(0x00))\n      dup1\n      0x1cf41a81\n      eq\n      tag_3\n      jumpi\n      dup1\n      0xc7636c17\n      eq\n      tag_4\n      jumpi\n    tag_2:\n      0x00\n      dup1\n      revert\n        /* \"Contracts/PrecomputAddress.sol\":266:540  function deployContract(uint _salt) external {... */\n    tag_3:\n      tag_5\n      0x04\n      dup1\n      calldatasize\n      sub\n      dup2\n      add\n      swap1\n      tag_6\n      swap2\n      swap1\n      tag_7\n      jump\t// in\n    tag_6:\n      tag_8\n      jump\t// in\n    tag_5:\n      stop\n        /* \"Contracts/PrecomputAddress.sol\":546:842  function getaddress(bytes memory bytecode, uint _salt) public view returns(address){... */\n    tag_4:\n      tag_9\n      0x04\n      dup1\n      calldatasize\n      sub\n      dup2\n      add\n      swap1\n      tag_10\n      swap2\n      swap1\n      tag_11\n      jump\t// in\n    tag_10:\n      tag_12\n      jump\t// in\n    tag_9:\n      mload(0x40)\n      tag_13\n      swap2\n      swap1\n      tag_14\n      jump\t// in\n    tag_13:\n      mload(0x40)\n      dup1\n      swap2\n      sub\n      swap1\n      return\n        /* \"Contracts/PrecomputAddress.sol\":266:540  function deployContract(uint _salt) external {... */\n    tag_8:\n        /* \"Contracts/PrecomputAddress.sol\":321:348  DeployWithCreate2 contract1 */\n      0x00\n        /* \"Contracts/PrecomputAddress.sol\":387:392  _salt */\n      dup2\n        /* \"Contracts/PrecomputAddress.sol\":379:393  bytes32(_salt) */\n      0x00\n      shl\n        /* \"Contracts/PrecomputAddress.sol\":395:405  msg.sender */\n      caller\n        /* \"Contracts/PrecomputAddress.sol\":351:406  new DeployWithCreate2{salt: bytes32(_salt)}(msg.sender) */\n      mload(0x40)\n      tag_16\n      swap1\n      tag_17\n      jump\t// in\n    tag_16:\n      tag_18\n      swap2\n      swap1\n      tag_14\n      jump\t// in\n    tag_18:\n      dup2\n      swap1\n      mload(0x40)\n      dup1\n      swap2\n      sub\n      swap1\n      0x00\n      create2\n      swap1\n      pop\n      dup1\n      iszero\n      dup1\n      iszero\n      tag_19\n      jumpi\n      returndatasize\n      0x00\n      dup1\n      returndatacopy\n      revert(0x00, returndatasize)\n    tag_19:\n      pop\n        /* \"Contracts/PrecomputAddress.sol\":321:406  DeployWithCreate2 contract1 = new DeployWithCreate2{salt: bytes32(_salt)}(msg.sender) */\n      swap1\n      pop\n        /* \"Contracts/PrecomputAddress.sol\":448:483  CreatedContract(address(contract1)) */\n      0xa506ad4e7f05eceba62a023c3219e5bd98a615f4fa87e2afb08a2da5cf62bf0c\n        /* \"Contracts/PrecomputAddress.sol\":472:481  contract1 */\n      dup2\n        /* \"Contracts/PrecomputAddress.sol\":448:483  CreatedContract(address(contract1)) */\n      mload(0x40)\n      tag_20\n      swap2\n      swap1\n      tag_14\n      jump\t// in\n    tag_20:\n      mload(0x40)\n      dup1\n      swap2\n      sub\n      swap1\n      log1\n        /* \"Contracts/PrecomputAddress.sol\":311:540  {... */\n      pop\n        /* \"Contracts/PrecomputAddress.sol\":266:540  function deployContract(uint _salt) external {... */\n      pop\n      jump\t// out\n        /* \"Contracts/PrecomputAddress.sol\":546:842  function getaddress(bytes memory bytecode, uint _salt) public view returns(address){... */\n    tag_12:\n        /* \"Contracts/PrecomputAddress.sol\":621:628  address */\n      0x00\n        /* \"Contracts/PrecomputAddress.sol\":639:651  bytes32 hash */\n      dup1\n        /* \"Contracts/PrecomputAddress.sol\":718:722  0xff */\n      0xff\n        /* \"Contracts/PrecomputAddress.sol\":711:723  bytes1(0xff) */\n      0xf8\n      shl\n        /* \"Contracts/PrecomputAddress.sol\":733:737  this */\n      address\n        /* \"Contracts/PrecomputAddress.sol\":740:745  _salt */\n      dup5\n        /* \"Contracts/PrecomputAddress.sol\":757:765  bytecode */\n      dup7\n        /* \"Contracts/PrecomputAddress.sol\":747:766  keccak256(bytecode) */\n      dup1\n      mload\n      swap1\n      0x20\n      add\n      keccak256\n        /* \"Contracts/PrecomputAddress.sol\":677:780  abi.encodePacked(... */\n      add(0x20, mload(0x40))\n      tag_22\n      swap5\n      swap4\n      swap3\n      swap2\n      swap1\n      tag_23\n      jump\t// in\n    tag_22:\n      mload(0x40)\n      0x20\n      dup2\n      dup4\n      sub\n      sub\n      dup2\n      mstore\n      swap1\n      0x40\n      mstore\n        /* \"Contracts/PrecomputAddress.sol\":654:781  keccak256(... */\n      dup1\n      mload\n      swap1\n      0x20\n      add\n      keccak256\n        /* \"Contracts/PrecomputAddress.sol\":639:781  bytes32 hash = keccak256(... */\n      swap1\n      pop\n        /* \"Contracts/PrecomputAddress.sol\":827:831  hash */\n      dup1\n        /* \"Contracts/PrecomputAddress.sol\":819:832  uint256(hash) */\n      0x00\n      shr\n        /* \"Contracts/PrecomputAddress.sol\":796:834  return address(uint160(uint256(hash))) */\n      swap2\n      pop\n      pop\n        /* \"Contracts/PrecomputAddress.sol\":546:842  function getaddress(bytes memory bytecode, uint _salt) public view returns(address){... */\n      swap3\n      swap2\n      pop\n      pop\n      jump\t// out\n    tag_17:\n      dataSize(sub_0)\n      dup1\n      dataOffset(sub_0)\n      dup4\n      codecopy\n      add\n      swap1\n      jump\t// out\n        /* \"#utility.yul\":7:82   */\n    tag_24:\n        /* \"#utility.yul\":40:46   */\n      0x00\n        /* \"#utility.yul\":73:75   */\n      0x40\n        /* \"#utility.yul\":67:76   */\n      mload\n        /* \"#utility.yul\":57:76   */\n      swap1\n      pop\n        /* \"#utility.yul\":7:82   */\n      swap1\n      jump\t// out\n        /* \"#utility.yul\":88:205   */\n    tag_25:\n        /* \"#utility.yul\":197:198   */\n      0x00\n        /* \"#utility.yul\":194:195   */\n      dup1\n        /* \"#utility.yul\":187:199   */\n      revert\n        /* \"#utility.yul\":211:328   */\n    tag_26:\n        /* \"#utility.yul\":320:321   */\n      0x00\n        /* \"#utility.yul\":317:318   */\n      dup1\n        /* \"#utility.yul\":310:322   */\n      revert\n        /* \"#utility.yul\":334:411   */\n    tag_27:\n        /* \"#utility.yul\":371:378   */\n      0x00\n        /* \"#utility.yul\":400:405   */\n      dup2\n        /* \"#utility.yul\":389:405   */\n      swap1\n      pop\n        /* \"#utility.yul\":334:411   */\n      swap2\n      swap1\n      pop\n      jump\t// out\n        /* \"#utility.yul\":417:539   */\n    tag_28:\n        /* \"#utility.yul\":490:514   */\n      tag_61\n        /* \"#utility.yul\":508:513   */\n      dup2\n        /* \"#utility.yul\":490:514   */\n      tag_27\n      jump\t// in\n    tag_61:\n        /* \"#utility.yul\":483:488   */\n      dup2\n        /* \"#utility.yul\":480:515   */\n      eq\n        /* \"#utility.yul\":470:533   */\n      tag_62\n      jumpi\n        /* \"#utility.yul\":529:530   */\n      0x00\n        /* \"#utility.yul\":526:527   */\n      dup1\n        /* \"#utility.yul\":519:531   */\n      revert\n        /* \"#utility.yul\":470:533   */\n    tag_62:\n        /* \"#utility.yul\":417:539   */\n      pop\n      jump\t// out\n        /* \"#utility.yul\":545:684   */\n    tag_29:\n        /* \"#utility.yul\":591:596   */\n      0x00\n        /* \"#utility.yul\":629:635   */\n      dup2\n        /* \"#utility.yul\":616:636   */\n      calldataload\n        /* \"#utility.yul\":607:636   */\n      swap1\n      pop\n        /* \"#utility.yul\":645:678   */\n      tag_64\n        /* \"#utility.yul\":672:677   */\n      dup2\n        /* \"#utility.yul\":645:678   */\n      tag_28\n      jump\t// in\n    tag_64:\n        /* \"#utility.yul\":545:684   */\n      swap3\n      swap2\n      pop\n      pop\n      jump\t// out\n        /* \"#utility.yul\":690:1019   */\n    tag_7:\n        /* \"#utility.yul\":749:755   */\n      0x00\n        /* \"#utility.yul\":798:800   */\n      0x20\n        /* \"#utility.yul\":786:795   */\n      dup3\n        /* \"#utility.yul\":777:784   */\n      dup5\n        /* \"#utility.yul\":773:796   */\n      sub\n        /* \"#utility.yul\":769:801   */\n      slt\n        /* \"#utility.yul\":766:885   */\n      iszero\n      tag_66\n      jumpi\n        /* \"#utility.yul\":804:883   */\n      tag_67\n      tag_25\n      jump\t// in\n    tag_67:\n        /* \"#utility.yul\":766:885   */\n    tag_66:\n        /* \"#utility.yul\":924:925   */\n      0x00\n        /* \"#utility.yul\":949:1002   */\n      tag_68\n        /* \"#utility.yul\":994:1001   */\n      dup5\n        /* \"#utility.yul\":985:991   */\n      dup3\n        /* \"#utility.yul\":974:983   */\n      dup6\n        /* \"#utility.yul\":970:992   */\n      add\n        /* \"#utility.yul\":949:1002   */\n      tag_29\n      jump\t// in\n    tag_68:\n        /* \"#utility.yul\":939:1002   */\n      swap2\n      pop\n        /* \"#utility.yul\":895:1012   */\n      pop\n        /* \"#utility.yul\":690:1019   */\n      swap3\n      swap2\n      pop\n      pop\n      jump\t// out\n        /* \"#utility.yul\":1025:1142   */\n    tag_30:\n        /* \"#utility.yul\":1134:1135   */\n      0x00\n        /* \"#utility.yul\":1131:1132   */\n      dup1\n        /* \"#utility.yul\":1124:1136   */\n      revert\n        /* \"#utility.yul\":1148:1265   */\n    tag_31:\n        /* \"#utility.yul\":1257:1258   */\n      0x00\n        /* \"#utility.yul\":1254:1255   */\n      dup1\n        /* \"#utility.yul\":1247:1259   */\n      revert\n        /* \"#utility.yul\":1271:1373   */\n    tag_32:\n        /* \"#utility.yul\":1312:1318   */\n      0x00\n        /* \"#utility.yul\":1363:1365   */\n      0x1f\n        /* \"#utility.yul\":1359:1366   */\n      not\n        /* \"#utility.yul\":1354:1356   */\n      0x1f\n        /* \"#utility.yul\":1347:1352   */\n      dup4\n        /* \"#utility.yul\":1343:1357   */\n      add\n        /* \"#utility.yul\":1339:1367   */\n      and\n        /* \"#utility.yul\":1329:1367   */\n      swap1\n      pop\n        /* \"#utility.yul\":1271:1373   */\n      swap2\n      swap1\n      pop\n      jump\t// out\n        /* \"#utility.yul\":1379:1559   */\n    tag_33:\n        /* \"#utility.yul\":1427:1504   */\n      0x4e487b7100000000000000000000000000000000000000000000000000000000\n        /* \"#utility.yul\":1424:1425   */\n      0x00\n        /* \"#utility.yul\":1417:1505   */\n      mstore\n        /* \"#utility.yul\":1524:1528   */\n      0x41\n        /* \"#utility.yul\":1521:1522   */\n      0x04\n        /* \"#utility.yul\":1514:1529   */\n      mstore\n        /* \"#utility.yul\":1548:1552   */\n      0x24\n        /* \"#utility.yul\":1545:1546   */\n      0x00\n        /* \"#utility.yul\":1538:1553   */\n      revert\n        /* \"#utility.yul\":1565:1846   */\n    tag_34:\n        /* \"#utility.yul\":1648:1675   */\n      tag_74\n        /* \"#utility.yul\":1670:1674   */\n      dup3\n        /* \"#utility.yul\":1648:1675   */\n      tag_32\n      jump\t// in\n    tag_74:\n        /* \"#utility.yul\":1640:1646   */\n      dup2\n        /* \"#utility.yul\":1636:1676   */\n      add\n        /* \"#utility.yul\":1778:1784   */\n      dup2\n        /* \"#utility.yul\":1766:1776   */\n      dup2\n        /* \"#utility.yul\":1763:1785   */\n      lt\n        /* \"#utility.yul\":1742:1760   */\n      0xffffffffffffffff\n        /* \"#utility.yul\":1730:1740   */\n      dup3\n        /* \"#utility.yul\":1727:1761   */\n      gt\n        /* \"#utility.yul\":1724:1786   */\n      or\n        /* \"#utility.yul\":1721:1809   */\n      iszero\n      tag_75\n      jumpi\n        /* \"#utility.yul\":1789:1807   */\n      tag_76\n      tag_33\n      jump\t// in\n    tag_76:\n        /* \"#utility.yul\":1721:1809   */\n    tag_75:\n        /* \"#utility.yul\":1829:1839   */\n      dup1\n        /* \"#utility.yul\":1825:1827   */\n      0x40\n        /* \"#utility.yul\":1818:1840   */\n      mstore\n        /* \"#utility.yul\":1608:1846   */\n      pop\n        /* \"#utility.yul\":1565:1846   */\n      pop\n      pop\n      jump\t// out\n        /* \"#utility.yul\":1852:1981   */\n    tag_35:\n        /* \"#utility.yul\":1886:1892   */\n      0x00\n        /* \"#utility.yul\":1913:1933   */\n      tag_78\n      tag_24\n      jump\t// in\n    tag_78:\n        /* \"#utility.yul\":1903:1933   */\n      swap1\n      pop\n        /* \"#utility.yul\":1942:1975   */\n      tag_79\n        /* \"#utility.yul\":1970:1974   */\n      dup3\n        /* \"#utility.yul\":1962:1968   */\n      dup3\n        /* \"#utility.yul\":1942:1975   */\n      tag_34\n      jump\t// in\n    tag_79:\n        /* \"#utility.yul\":1852:1981   */\n      swap2\n      swap1\n      pop\n      jump\t// out\n        /* \"#utility.yul\":1987:2294   */\n    tag_36:\n        /* \"#utility.yul\":2048:2052   */\n      0x00\n        /* \"#utility.yul\":2138:2156   */\n      0xffffffffffffffff\n        /* \"#utility.yul\":2130:2136   */\n      dup3\n        /* \"#utility.yul\":2127:2157   */\n      gt\n        /* \"#utility.yul\":2124:2180   */\n      iszero\n      tag_81\n      jumpi\n        /* \"#utility.yul\":2160:2178   */\n      tag_82\n      tag_33\n      jump\t// in\n    tag_82:\n        /* \"#utility.yul\":2124:2180   */\n    tag_81:\n        /* \"#utility.yul\":2198:2227   */\n      tag_83\n        /* \"#utility.yul\":2220:2226   */\n      dup3\n        /* \"#utility.yul\":2198:2227   */\n      tag_32\n      jump\t// in\n    tag_83:\n        /* \"#utility.yul\":2190:2227   */\n      swap1\n      pop\n        /* \"#utility.yul\":2282:2286   */\n      0x20\n        /* \"#utility.yul\":2276:2280   */\n      dup2\n        /* \"#utility.yul\":2272:2287   */\n      add\n        /* \"#utility.yul\":2264:2287   */\n      swap1\n      pop\n        /* \"#utility.yul\":1987:2294   */\n      swap2\n      swap1\n      pop\n      jump\t// out\n        /* \"#utility.yul\":2300:2448   */\n    tag_37:\n        /* \"#utility.yul\":2398:2404   */\n      dup3\n        /* \"#utility.yul\":2393:2396   */\n      dup2\n        /* \"#utility.yul\":2388:2391   */\n      dup4\n        /* \"#utility.yul\":2375:2405   */\n      calldatacopy\n        /* \"#utility.yul\":2439:2440   */\n      0x00\n        /* \"#utility.yul\":2430:2436   */\n      dup4\n        /* \"#utility.yul\":2425:2428   */\n      dup4\n        /* \"#utility.yul\":2421:2437   */\n      add\n        /* \"#utility.yul\":2414:2441   */\n      mstore\n        /* \"#utility.yul\":2300:2448   */\n      pop\n      pop\n      pop\n      jump\t// out\n        /* \"#utility.yul\":2454:2877   */\n    tag_38:\n        /* \"#utility.yul\":2531:2536   */\n      0x00\n        /* \"#utility.yul\":2556:2621   */\n      tag_86\n        /* \"#utility.yul\":2572:2620   */\n      tag_87\n        /* \"#utility.yul\":2613:2619   */\n      dup5\n        /* \"#utility.yul\":2572:2620   */\n      tag_36\n      jump\t// in\n    tag_87:\n        /* \"#utility.yul\":2556:2621   */\n      tag_35\n      jump\t// in\n    tag_86:\n        /* \"#utility.yul\":2547:2621   */\n      swap1\n      pop\n        /* \"#utility.yul\":2644:2650   */\n      dup3\n        /* \"#utility.yul\":2637:2642   */\n      dup2\n        /* \"#utility.yul\":2630:2651   */\n      mstore\n        /* \"#utility.yul\":2682:2686   */\n      0x20\n        /* \"#utility.yul\":2675:2680   */\n      dup2\n        /* \"#utility.yul\":2671:2687   */\n      add\n        /* \"#utility.yul\":2720:2723   */\n      dup5\n        /* \"#utility.yul\":2711:2717   */\n      dup5\n        /* \"#utility.yul\":2706:2709   */\n      dup5\n        /* \"#utility.yul\":2702:2718   */\n      add\n        /* \"#utility.yul\":2699:2724   */\n      gt\n        /* \"#utility.yul\":2696:2808   */\n      iszero\n      tag_88\n      jumpi\n        /* \"#utility.yul\":2727:2806   */\n      tag_89\n      tag_31\n      jump\t// in\n    tag_89:\n        /* \"#utility.yul\":2696:2808   */\n    tag_88:\n        /* \"#utility.yul\":2817:2871   */\n      tag_90\n        /* \"#utility.yul\":2864:2870   */\n      dup5\n        /* \"#utility.yul\":2859:2862   */\n      dup3\n        /* \"#utility.yul\":2854:2857   */\n      dup6\n        /* \"#utility.yul\":2817:2871   */\n      tag_37\n      jump\t// in\n    tag_90:\n        /* \"#utility.yul\":2537:2877   */\n      pop\n        /* \"#utility.yul\":2454:2877   */\n      swap4\n      swap3\n      pop\n      pop\n      pop\n      jump\t// out\n        /* \"#utility.yul\":2896:3234   */\n    tag_39:\n        /* \"#utility.yul\":2951:2956   */\n      0x00\n        /* \"#utility.yul\":3000:3003   */\n      dup3\n        /* \"#utility.yul\":2993:2997   */\n      0x1f\n        /* \"#utility.yul\":2985:2991   */\n      dup4\n        /* \"#utility.yul\":2981:2998   */\n      add\n        /* \"#utility.yul\":2977:3004   */\n      slt\n        /* \"#utility.yul\":2967:3089   */\n      tag_92\n      jumpi\n        /* \"#utility.yul\":3008:3087   */\n      tag_93\n      tag_30\n      jump\t// in\n    tag_93:\n        /* \"#utility.yul\":2967:3089   */\n    tag_92:\n        /* \"#utility.yul\":3125:3131   */\n      dup2\n        /* \"#utility.yul\":3112:3132   */\n      calldataload\n        /* \"#utility.yul\":3150:3228   */\n      tag_94\n        /* \"#utility.yul\":3224:3227   */\n      dup5\n        /* \"#utility.yul\":3216:3222   */\n      dup3\n        /* \"#utility.yul\":3209:3213   */\n      0x20\n        /* \"#utility.yul\":3201:3207   */\n      dup7\n        /* \"#utility.yul\":3197:3214   */\n      add\n        /* \"#utility.yul\":3150:3228   */\n      tag_38\n      jump\t// in\n    tag_94:\n        /* \"#utility.yul\":3141:3228   */\n      swap2\n      pop\n        /* \"#utility.yul\":2957:3234   */\n      pop\n        /* \"#utility.yul\":2896:3234   */\n      swap3\n      swap2\n      pop\n      pop\n      jump\t// out\n        /* \"#utility.yul\":3240:3892   */\n    tag_11:\n        /* \"#utility.yul\":3317:3323   */\n      0x00\n        /* \"#utility.yul\":3325:3331   */\n      dup1\n        /* \"#utility.yul\":3374:3376   */\n      0x40\n        /* \"#utility.yul\":3362:3371   */\n      dup4\n        /* \"#utility.yul\":3353:3360   */\n      dup6\n        /* \"#utility.yul\":3349:3372   */\n      sub\n        /* \"#utility.yul\":3345:3377   */\n      slt\n        /* \"#utility.yul\":3342:3461   */\n      iszero\n      tag_96\n      jumpi\n        /* \"#utility.yul\":3380:3459   */\n      tag_97\n      tag_25\n      jump\t// in\n    tag_97:\n        /* \"#utility.yul\":3342:3461   */\n    tag_96:\n        /* \"#utility.yul\":3528:3529   */\n      0x00\n        /* \"#utility.yul\":3517:3526   */\n      dup4\n        /* \"#utility.yul\":3513:3530   */\n      add\n        /* \"#utility.yul\":3500:3531   */\n      calldataload\n        /* \"#utility.yul\":3558:3576   */\n      0xffffffffffffffff\n        /* \"#utility.yul\":3550:3556   */\n      dup2\n        /* \"#utility.yul\":3547:3577   */\n      gt\n        /* \"#utility.yul\":3544:3661   */\n      iszero\n      tag_98\n      jumpi\n        /* \"#utility.yul\":3580:3659   */\n      tag_99\n      tag_26\n      jump\t// in\n    tag_99:\n        /* \"#utility.yul\":3544:3661   */\n    tag_98:\n        /* \"#utility.yul\":3685:3747   */\n      tag_100\n        /* \"#utility.yul\":3739:3746   */\n      dup6\n        /* \"#utility.yul\":3730:3736   */\n      dup3\n        /* \"#utility.yul\":3719:3728   */\n      dup7\n        /* \"#utility.yul\":3715:3737   */\n      add\n        /* \"#utility.yul\":3685:3747   */\n      tag_39\n      jump\t// in\n    tag_100:\n        /* \"#utility.yul\":3675:3747   */\n      swap3\n      pop\n        /* \"#utility.yul\":3471:3757   */\n      pop\n        /* \"#utility.yul\":3796:3798   */\n      0x20\n        /* \"#utility.yul\":3822:3875   */\n      tag_101\n        /* \"#utility.yul\":3867:3874   */\n      dup6\n        /* \"#utility.yul\":3858:3864   */\n      dup3\n        /* \"#utility.yul\":3847:3856   */\n      dup7\n        /* \"#utility.yul\":3843:3865   */\n      add\n        /* \"#utility.yul\":3822:3875   */\n      tag_29\n      jump\t// in\n    tag_101:\n        /* \"#utility.yul\":3812:3875   */\n      swap2\n      pop\n        /* \"#utility.yul\":3767:3885   */\n      pop\n        /* \"#utility.yul\":3240:3892   */\n      swap3\n      pop\n      swap3\n      swap1\n      pop\n      jump\t// out\n        /* \"#utility.yul\":3898:4024   */\n    tag_40:\n        /* \"#utility.yul\":3935:3942   */\n      0x00\n        /* \"#utility.yul\":3975:4017   */\n      0xffffffffffffffffffffffffffffffffffffffff\n        /* \"#utility.yul\":3968:3973   */\n      dup3\n        /* \"#utility.yul\":3964:4018   */\n      and\n        /* \"#utility.yul\":3953:4018   */\n      swap1\n      pop\n        /* \"#utility.yul\":3898:4024   */\n      swap2\n      swap1\n      pop\n      jump\t// out\n        /* \"#utility.yul\":4030:4126   */\n    tag_41:\n        /* \"#utility.yul\":4067:4074   */\n      0x00\n        /* \"#utility.yul\":4096:4120   */\n      tag_104\n        /* \"#utility.yul\":4114:4119   */\n      dup3\n        /* \"#utility.yul\":4096:4120   */\n      tag_40\n      jump\t// in\n    tag_104:\n        /* \"#utility.yul\":4085:4120   */\n      swap1\n      pop\n        /* \"#utility.yul\":4030:4126   */\n      swap2\n      swap1\n      pop\n      jump\t// out\n        /* \"#utility.yul\":4132:4250   */\n    tag_42:\n        /* \"#utility.yul\":4219:4243   */\n      tag_106\n        /* \"#utility.yul\":4237:4242   */\n      dup2\n        /* \"#utility.yul\":4219:4243   */\n      tag_41\n      jump\t// in\n    tag_106:\n        /* \"#utility.yul\":4214:4217   */\n      dup3\n        /* \"#utility.yul\":4207:4244   */\n      mstore\n        /* \"#utility.yul\":4132:4250   */\n      pop\n      pop\n      jump\t// out\n        /* \"#utility.yul\":4256:4478   */\n    tag_14:\n        /* \"#utility.yul\":4349:4353   */\n      0x00\n        /* \"#utility.yul\":4387:4389   */\n      0x20\n        /* \"#utility.yul\":4376:4385   */\n      dup3\n        /* \"#utility.yul\":4372:4390   */\n      add\n        /* \"#utility.yul\":4364:4390   */\n      swap1\n      pop\n        /* \"#utility.yul\":4400:4471   */\n      tag_108\n        /* \"#utility.yul\":4468:4469   */\n      0x00\n        /* \"#utility.yul\":4457:4466   */\n      dup4\n        /* \"#utility.yul\":4453:4470   */\n      add\n        /* \"#utility.yul\":4444:4450   */\n      dup5\n        /* \"#utility.yul\":4400:4471   */\n      tag_42\n      jump\t// in\n    tag_108:\n        /* \"#utility.yul\":4256:4478   */\n      swap3\n      swap2\n      pop\n      pop\n      jump\t// out\n        /* \"#utility.yul\":4484:4633   */\n    tag_43:\n        /* \"#utility.yul\":4520:4527   */\n      0x00\n        /* \"#utility.yul\":4560:4626   */\n      0xff00000000000000000000000000000000000000000000000000000000000000\n        /* \"#utility.yul\":4553:4558   */\n      dup3\n        /* \"#utility.yul\":4549:4627   */\n      and\n        /* \"#utility.yul\":4538:4627   */\n      swap1\n      pop\n        /* \"#utility.yul\":4484:4633   */\n      swap2\n      swap1\n      pop\n      jump\t// out\n        /* \"#utility.yul\":4639:4717   */\n    tag_44:\n        /* \"#utility.yul\":4677:4684   */\n      0x00\n        /* \"#utility.yul\":4706:4711   */\n      dup2\n        /* \"#utility.yul\":4695:4711   */\n      swap1\n      pop\n        /* \"#utility.yul\":4639:4717   */\n      swap2\n      swap1\n      pop\n      jump\t// out\n        /* \"#utility.yul\":4723:4876   */\n    tag_45:\n        /* \"#utility.yul\":4826:4869   */\n      tag_112\n        /* \"#utility.yul\":4845:4868   */\n      tag_113\n        /* \"#utility.yul\":4862:4867   */\n      dup3\n        /* \"#utility.yul\":4845:4868   */\n      tag_43\n      jump\t// in\n    tag_113:\n        /* \"#utility.yul\":4826:4869   */\n      tag_44\n      jump\t// in\n    tag_112:\n        /* \"#utility.yul\":4821:4824   */\n      dup3\n        /* \"#utility.yul\":4814:4870   */\n      mstore\n        /* \"#utility.yul\":4723:4876   */\n      pop\n      pop\n      jump\t// out\n        /* \"#utility.yul\":4882:4976   */\n    tag_46:\n        /* \"#utility.yul\":4915:4923   */\n      0x00\n        /* \"#utility.yul\":4963:4968   */\n      dup2\n        /* \"#utility.yul\":4959:4961   */\n      0x60\n        /* \"#utility.yul\":4955:4969   */\n      shl\n        /* \"#utility.yul\":4934:4969   */\n      swap1\n      pop\n        /* \"#utility.yul\":4882:4976   */\n      swap2\n      swap1\n      pop\n      jump\t// out\n        /* \"#utility.yul\":4982:5076   */\n    tag_47:\n        /* \"#utility.yul\":5021:5028   */\n      0x00\n        /* \"#utility.yul\":5050:5070   */\n      tag_116\n        /* \"#utility.yul\":5064:5069   */\n      dup3\n        /* \"#utility.yul\":5050:5070   */\n      tag_46\n      jump\t// in\n    tag_116:\n        /* \"#utility.yul\":5039:5070   */\n      swap1\n      pop\n        /* \"#utility.yul\":4982:5076   */\n      swap2\n      swap1\n      pop\n      jump\t// out\n        /* \"#utility.yul\":5082:5182   */\n    tag_48:\n        /* \"#utility.yul\":5121:5128   */\n      0x00\n        /* \"#utility.yul\":5150:5176   */\n      tag_118\n        /* \"#utility.yul\":5170:5175   */\n      dup3\n        /* \"#utility.yul\":5150:5176   */\n      tag_47\n      jump\t// in\n    tag_118:\n        /* \"#utility.yul\":5139:5176   */\n      swap1\n      pop\n        /* \"#utility.yul\":5082:5182   */\n      swap2\n      swap1\n      pop\n      jump\t// out\n        /* \"#utility.yul\":5188:5345   */\n    tag_49:\n        /* \"#utility.yul\":5293:5338   */\n      tag_120\n        /* \"#utility.yul\":5313:5337   */\n      tag_121\n        /* \"#utility.yul\":5331:5336   */\n      dup3\n        /* \"#utility.yul\":5313:5337   */\n      tag_41\n      jump\t// in\n    tag_121:\n        /* \"#utility.yul\":5293:5338   */\n      tag_48\n      jump\t// in\n    tag_120:\n        /* \"#utility.yul\":5288:5291   */\n      dup3\n        /* \"#utility.yul\":5281:5339   */\n      mstore\n        /* \"#utility.yul\":5188:5345   */\n      pop\n      pop\n      jump\t// out\n        /* \"#utility.yul\":5351:5430   */\n    tag_50:\n        /* \"#utility.yul\":5390:5397   */\n      0x00\n        /* \"#utility.yul\":5419:5424   */\n      dup2\n        /* \"#utility.yul\":5408:5424   */\n      swap1\n      pop\n        /* \"#utility.yul\":5351:5430   */\n      swap2\n      swap1\n      pop\n      jump\t// out\n        /* \"#utility.yul\":5436:5593   */\n    tag_51:\n        /* \"#utility.yul\":5541:5586   */\n      tag_124\n        /* \"#utility.yul\":5561:5585   */\n      tag_125\n        /* \"#utility.yul\":5579:5584   */\n      dup3\n        /* \"#utility.yul\":5561:5585   */\n      tag_27\n      jump\t// in\n    tag_125:\n        /* \"#utility.yul\":5541:5586   */\n      tag_50\n      jump\t// in\n    tag_124:\n        /* \"#utility.yul\":5536:5539   */\n      dup3\n        /* \"#utility.yul\":5529:5587   */\n      mstore\n        /* \"#utility.yul\":5436:5593   */\n      pop\n      pop\n      jump\t// out\n        /* \"#utility.yul\":5599:5676   */\n    tag_52:\n        /* \"#utility.yul\":5636:5643   */\n      0x00\n        /* \"#utility.yul\":5665:5670   */\n      dup2\n        /* \"#utility.yul\":5654:5670   */\n      swap1\n      pop\n        /* \"#utility.yul\":5599:5676   */\n      swap2\n      swap1\n      pop\n      jump\t// out\n        /* \"#utility.yul\":5682:5761   */\n    tag_53:\n        /* \"#utility.yul\":5721:5728   */\n      0x00\n        /* \"#utility.yul\":5750:5755   */\n      dup2\n        /* \"#utility.yul\":5739:5755   */\n      swap1\n      pop\n        /* \"#utility.yul\":5682:5761   */\n      swap2\n      swap1\n      pop\n      jump\t// out\n        /* \"#utility.yul\":5767:5924   */\n    tag_54:\n        /* \"#utility.yul\":5872:5917   */\n      tag_129\n        /* \"#utility.yul\":5892:5916   */\n      tag_130\n        /* \"#utility.yul\":5910:5915   */\n      dup3\n        /* \"#utility.yul\":5892:5916   */\n      tag_52\n      jump\t// in\n    tag_130:\n        /* \"#utility.yul\":5872:5917   */\n      tag_53\n      jump\t// in\n    tag_129:\n        /* \"#utility.yul\":5867:5870   */\n      dup3\n        /* \"#utility.yul\":5860:5918   */\n      mstore\n        /* \"#utility.yul\":5767:5924   */\n      pop\n      pop\n      jump\t// out\n        /* \"#utility.yul\":5930:6604   */\n    tag_23:\n        /* \"#utility.yul\":6124:6127   */\n      0x00\n        /* \"#utility.yul\":6139:6212   */\n      tag_132\n        /* \"#utility.yul\":6208:6211   */\n      dup3\n        /* \"#utility.yul\":6199:6205   */\n      dup8\n        /* \"#utility.yul\":6139:6212   */\n      tag_45\n      jump\t// in\n    tag_132:\n        /* \"#utility.yul\":6237:6238   */\n      0x01\n        /* \"#utility.yul\":6232:6235   */\n      dup3\n        /* \"#utility.yul\":6228:6239   */\n      add\n        /* \"#utility.yul\":6221:6239   */\n      swap2\n      pop\n        /* \"#utility.yul\":6249:6324   */\n      tag_133\n        /* \"#utility.yul\":6320:6323   */\n      dup3\n        /* \"#utility.yul\":6311:6317   */\n      dup7\n        /* \"#utility.yul\":6249:6324   */\n      tag_49\n      jump\t// in\n    tag_133:\n        /* \"#utility.yul\":6349:6351   */\n      0x14\n        /* \"#utility.yul\":6344:6347   */\n      dup3\n        /* \"#utility.yul\":6340:6352   */\n      add\n        /* \"#utility.yul\":6333:6352   */\n      swap2\n      pop\n        /* \"#utility.yul\":6362:6437   */\n      tag_134\n        /* \"#utility.yul\":6433:6436   */\n      dup3\n        /* \"#utility.yul\":6424:6430   */\n      dup6\n        /* \"#utility.yul\":6362:6437   */\n      tag_51\n      jump\t// in\n    tag_134:\n        /* \"#utility.yul\":6462:6464   */\n      0x20\n        /* \"#utility.yul\":6457:6460   */\n      dup3\n        /* \"#utility.yul\":6453:6465   */\n      add\n        /* \"#utility.yul\":6446:6465   */\n      swap2\n      pop\n        /* \"#utility.yul\":6475:6550   */\n      tag_135\n        /* \"#utility.yul\":6546:6549   */\n      dup3\n        /* \"#utility.yul\":6537:6543   */\n      dup5\n        /* \"#utility.yul\":6475:6550   */\n      tag_54\n      jump\t// in\n    tag_135:\n        /* \"#utility.yul\":6575:6577   */\n      0x20\n        /* \"#utility.yul\":6570:6573   */\n      dup3\n        /* \"#utility.yul\":6566:6578   */\n      add\n        /* \"#utility.yul\":6559:6578   */\n      swap2\n      pop\n        /* \"#utility.yul\":6595:6598   */\n      dup2\n        /* \"#utility.yul\":6588:6598   */\n      swap1\n      pop\n        /* \"#utility.yul\":5930:6604   */\n      swap6\n      swap5\n      pop\n      pop\n      pop\n      pop\n      pop\n      jump\t// out\n    stop\n\n    sub_0: assembly {\n            /* \"Contracts/PrecomputAddress.sol\":58:178  contract DeployWithCreate2{... */\n          mstore(0x40, 0x80)\n            /* \"Contracts/PrecomputAddress.sol\":117:175  constructor(address _owner){... */\n          callvalue\n          dup1\n          iszero\n          tag_1\n          jumpi\n          0x00\n          dup1\n          revert\n        tag_1:\n          pop\n          mload(0x40)\n          sub(codesize, bytecodeSize)\n          dup1\n          bytecodeSize\n          dup4\n          codecopy\n          dup2\n          dup2\n          add\n          0x40\n          mstore\n          dup2\n          add\n          swap1\n          tag_2\n          swap2\n          swap1\n          tag_3\n          jump\t// in\n        tag_2:\n            /* \"Contracts/PrecomputAddress.sol\":162:168  _owner */\n          dup1\n            /* \"Contracts/PrecomputAddress.sol\":154:159  owner */\n          0x00\n          dup1\n            /* \"Contracts/PrecomputAddress.sol\":154:168  owner = _owner */\n          0x0100\n          exp\n          dup2\n          sload\n          dup2\n          0xffffffffffffffffffffffffffffffffffffffff\n          mul\n          not\n          and\n          swap1\n          dup4\n          0xffffffffffffffffffffffffffffffffffffffff\n          and\n          mul\n          or\n          swap1\n          sstore\n          pop\n            /* \"Contracts/PrecomputAddress.sol\":117:175  constructor(address _owner){... */\n          pop\n            /* \"Contracts/PrecomputAddress.sol\":58:178  contract DeployWithCreate2{... */\n          jump(tag_6)\n            /* \"#utility.yul\":88:205   */\n        tag_8:\n            /* \"#utility.yul\":197:198   */\n          0x00\n            /* \"#utility.yul\":194:195   */\n          dup1\n            /* \"#utility.yul\":187:199   */\n          revert\n            /* \"#utility.yul\":334:460   */\n        tag_10:\n            /* \"#utility.yul\":371:378   */\n          0x00\n            /* \"#utility.yul\":411:453   */\n          0xffffffffffffffffffffffffffffffffffffffff\n            /* \"#utility.yul\":404:409   */\n          dup3\n            /* \"#utility.yul\":400:454   */\n          and\n            /* \"#utility.yul\":389:454   */\n          swap1\n          pop\n            /* \"#utility.yul\":334:460   */\n          swap2\n          swap1\n          pop\n          jump\t// out\n            /* \"#utility.yul\":466:562   */\n        tag_11:\n            /* \"#utility.yul\":503:510   */\n          0x00\n            /* \"#utility.yul\":532:556   */\n          tag_20\n            /* \"#utility.yul\":550:555   */\n          dup3\n            /* \"#utility.yul\":532:556   */\n          tag_10\n          jump\t// in\n        tag_20:\n            /* \"#utility.yul\":521:556   */\n          swap1\n          pop\n            /* \"#utility.yul\":466:562   */\n          swap2\n          swap1\n          pop\n          jump\t// out\n            /* \"#utility.yul\":568:690   */\n        tag_12:\n            /* \"#utility.yul\":641:665   */\n          tag_22\n            /* \"#utility.yul\":659:664   */\n          dup2\n            /* \"#utility.yul\":641:665   */\n          tag_11\n          jump\t// in\n        tag_22:\n            /* \"#utility.yul\":634:639   */\n          dup2\n            /* \"#utility.yul\":631:666   */\n          eq\n            /* \"#utility.yul\":621:684   */\n          tag_23\n          jumpi\n            /* \"#utility.yul\":680:681   */\n          0x00\n            /* \"#utility.yul\":677:678   */\n          dup1\n            /* \"#utility.yul\":670:682   */\n          revert\n            /* \"#utility.yul\":621:684   */\n        tag_23:\n            /* \"#utility.yul\":568:690   */\n          pop\n          jump\t// out\n            /* \"#utility.yul\":696:839   */\n        tag_13:\n            /* \"#utility.yul\":753:758   */\n          0x00\n            /* \"#utility.yul\":784:790   */\n          dup2\n            /* \"#utility.yul\":778:791   */\n          mload\n            /* \"#utility.yul\":769:791   */\n          swap1\n          pop\n            /* \"#utility.yul\":800:833   */\n          tag_25\n            /* \"#utility.yul\":827:832   */\n          dup2\n            /* \"#utility.yul\":800:833   */\n          tag_12\n          jump\t// in\n        tag_25:\n            /* \"#utility.yul\":696:839   */\n          swap3\n          swap2\n          pop\n          pop\n          jump\t// out\n            /* \"#utility.yul\":845:1196   */\n        tag_3:\n            /* \"#utility.yul\":915:921   */\n          0x00\n            /* \"#utility.yul\":964:966   */\n          0x20\n            /* \"#utility.yul\":952:961   */\n          dup3\n            /* \"#utility.yul\":943:950   */\n          dup5\n            /* \"#utility.yul\":939:962   */\n          sub\n            /* \"#utility.yul\":935:967   */\n          slt\n            /* \"#utility.yul\":932:1051   */\n          iszero\n          tag_27\n          jumpi\n            /* \"#utility.yul\":970:1049   */\n          tag_28\n          tag_8\n          jump\t// in\n        tag_28:\n            /* \"#utility.yul\":932:1051   */\n        tag_27:\n            /* \"#utility.yul\":1090:1091   */\n          0x00\n            /* \"#utility.yul\":1115:1179   */\n          tag_29\n            /* \"#utility.yul\":1171:1178   */\n          dup5\n            /* \"#utility.yul\":1162:1168   */\n          dup3\n            /* \"#utility.yul\":1151:1160   */\n          dup6\n            /* \"#utility.yul\":1147:1169   */\n          add\n            /* \"#utility.yul\":1115:1179   */\n          tag_13\n          jump\t// in\n        tag_29:\n            /* \"#utility.yul\":1105:1179   */\n          swap2\n          pop\n            /* \"#utility.yul\":1061:1189   */\n          pop\n            /* \"#utility.yul\":845:1196   */\n          swap3\n          swap2\n          pop\n          pop\n          jump\t// out\n            /* \"Contracts/PrecomputAddress.sol\":58:178  contract DeployWithCreate2{... */\n        tag_6:\n          dataSize(sub_0)\n          dup1\n          dataOffset(sub_0)\n          0x00\n          codecopy\n          0x00\n          return\n        stop\n\n        sub_0: assembly {\n                /* \"Contracts/PrecomputAddress.sol\":58:178  contract DeployWithCreate2{... */\n              mstore(0x40, 0x80)\n              callvalue\n              dup1\n              iszero\n              tag_1\n              jumpi\n              0x00\n              dup1\n              revert\n            tag_1:\n              pop\n              jumpi(tag_2, lt(calldatasize, 0x04))\n              shr(0xe0, calldataload(0x00))\n              dup1\n              0x8da5cb5b\n              eq\n              tag_3\n              jumpi\n            tag_2:\n              0x00\n              dup1\n              revert\n                /* \"Contracts/PrecomputAddress.sol\":90:110  address public owner */\n            tag_3:\n              tag_4\n              tag_5\n              jump\t// in\n            tag_4:\n              mload(0x40)\n              tag_6\n              swap2\n              swap1\n              tag_7\n              jump\t// in\n            tag_6:\n              mload(0x40)\n              dup1\n              swap2\n              sub\n              swap1\n              return\n            tag_5:\n              0x00\n              dup1\n              sload\n              swap1\n              0x0100\n              exp\n              swap1\n              div\n              0xffffffffffffffffffffffffffffffffffffffff\n              and\n              dup2\n              jump\t// out\n                /* \"#utility.yul\":7:133   */\n            tag_8:\n                /* \"#utility.yul\":44:51   */\n              0x00\n                /* \"#utility.yul\":84:126   */\n              0xffffffffffffffffffffffffffffffffffffffff\n                /* \"#utility.yul\":77:82   */\n              dup3\n                /* \"#utility.yul\":73:127   */\n              and\n                /* \"#utility.yul\":62:127   */\n              swap1\n              pop\n                /* \"#utility.yul\":7:133   */\n              swap2\n              swap1\n              pop\n              jump\t// out\n                /* \"#utility.yul\":139:235   */\n            tag_9:\n                /* \"#utility.yul\":176:183   */\n              0x00\n                /* \"#utility.yul\":205:229   */\n              tag_14\n                /* \"#utility.yul\":223:228   */\n              dup3\n                /* \"#utility.yul\":205:229   */\n              tag_8\n              jump\t// in\n            tag_14:\n                /* \"#utility.yul\":194:229   */\n              swap1\n              pop\n                /* \"#utility.yul\":139:235   */\n              swap2\n              swap1\n              pop\n              jump\t// out\n                /* \"#utility.yul\":241:359   */\n            tag_10:\n                /* \"#utility.yul\":328:352   */\n              tag_16\n                /* \"#utility.yul\":346:351   */\n              dup2\n                /* \"#utility.yul\":328:352   */\n              tag_9\n              jump\t// in\n            tag_16:\n                /* \"#utility.yul\":323:326   */\n              dup3\n                /* \"#utility.yul\":316:353   */\n              mstore\n                /* \"#utility.yul\":241:359   */\n              pop\n              pop\n              jump\t// out\n                /* \"#utility.yul\":365:587   */\n            tag_7:\n                /* \"#utility.yul\":458:462   */\n              0x00\n                /* \"#utility.yul\":496:498   */\n              0x20\n                /* \"#utility.yul\":485:494   */\n              dup3\n                /* \"#utility.yul\":481:499   */\n              add\n                /* \"#utility.yul\":473:499   */\n              swap1\n              pop\n                /* \"#utility.yul\":509:580   */\n              tag_18\n                /* \"#utility.yul\":577:578   */\n              0x00\n                /* \"#utility.yul\":566:575   */\n              dup4\n                /* \"#utility.yul\":562:579   */\n              add\n                /* \"#utility.yul\":553:559   */\n              dup5\n                /* \"#utility.yul\":509:580   */\n              tag_10\n              jump\t// in\n            tag_18:\n                /* \"#utility.yul\":365:587   */\n              swap3\n              swap2\n              pop\n              pop\n              jump\t// out\n\n            auxdata: 0xa2646970667358221220a05491870bb4f23113e14de44ea0de7919f114794834650028b01b4ed1123d5a64736f6c634300081a0033\n        }\n    }\n\n    auxdata: 0xa264697066735822122028d87b3cd06864d5bbf5311cbf121cdd8971717216a79826819ca275c4a9e92964736f6c634300081a0033\n}\n",
				"bytecode": {
					"linkReferences": {},
					"object": "6080604052348015600e575f80fd5b506107028061001c5f395ff3fe608060405234801561000f575f80fd5b5060043610610034575f3560e01c80631cf41a8114610038578063c7636c1714610054575b5f80fd5b610052600480360381019061004d9190610193565b610084565b005b61006e600480360381019061006991906102fa565b6100fa565b60405161007b9190610393565b60405180910390f35b5f815f1b3360405161009590610142565b61009f9190610393565b8190604051809103905ff59050801580156100bc573d5f803e3d5ffd5b5090507fa506ad4e7f05eceba62a023c3219e5bd98a615f4fa87e2afb08a2da5cf62bf0c816040516100ee9190610393565b60405180910390a15050565b5f8060ff60f81b3084868051906020012060405160200161011e9493929190610485565b604051602081830303815290604052805190602001209050805f1c91505092915050565b6101fa806104d383390190565b5f604051905090565b5f80fd5b5f80fd5b5f819050919050565b61017281610160565b811461017c575f80fd5b50565b5f8135905061018d81610169565b92915050565b5f602082840312156101a8576101a7610158565b5b5f6101b58482850161017f565b91505092915050565b5f80fd5b5f80fd5b5f601f19601f8301169050919050565b7f4e487b71000000000000000000000000000000000000000000000000000000005f52604160045260245ffd5b61020c826101c6565b810181811067ffffffffffffffff8211171561022b5761022a6101d6565b5b80604052505050565b5f61023d61014f565b90506102498282610203565b919050565b5f67ffffffffffffffff821115610268576102676101d6565b5b610271826101c6565b9050602081019050919050565b828183375f83830152505050565b5f61029e6102998461024e565b610234565b9050828152602081018484840111156102ba576102b96101c2565b5b6102c584828561027e565b509392505050565b5f82601f8301126102e1576102e06101be565b5b81356102f184826020860161028c565b91505092915050565b5f80604083850312156103105761030f610158565b5b5f83013567ffffffffffffffff81111561032d5761032c61015c565b5b610339858286016102cd565b925050602061034a8582860161017f565b9150509250929050565b5f73ffffffffffffffffffffffffffffffffffffffff82169050919050565b5f61037d82610354565b9050919050565b61038d81610373565b82525050565b5f6020820190506103a65f830184610384565b92915050565b5f7fff0000000000000000000000000000000000000000000000000000000000000082169050919050565b5f819050919050565b6103f16103ec826103ac565b6103d7565b82525050565b5f8160601b9050919050565b5f61040d826103f7565b9050919050565b5f61041e82610403565b9050919050565b61043661043182610373565b610414565b82525050565b5f819050919050565b61045661045182610160565b61043c565b82525050565b5f819050919050565b5f819050919050565b61047f61047a8261045c565b610465565b82525050565b5f61049082876103e0565b6001820191506104a08286610425565b6014820191506104b08285610445565b6020820191506104c0828461046e565b6020820191508190509594505050505056fe608060405234801561000f575f80fd5b506040516101fa3803806101fa833981810160405281019061003191906100d4565b805f806101000a81548173ffffffffffffffffffffffffffffffffffffffff021916908373ffffffffffffffffffffffffffffffffffffffff160217905550506100ff565b5f80fd5b5f73ffffffffffffffffffffffffffffffffffffffff82169050919050565b5f6100a38261007a565b9050919050565b6100b381610099565b81146100bd575f80fd5b50565b5f815190506100ce816100aa565b92915050565b5f602082840312156100e9576100e8610076565b5b5f6100f6848285016100c0565b91505092915050565b60ef8061010b5f395ff3fe6080604052348015600e575f80fd5b50600436106026575f3560e01c80638da5cb5b14602a575b5f80fd5b60306044565b604051603b919060a2565b60405180910390f35b5f8054906101000a900473ffffffffffffffffffffffffffffffffffffffff1681565b5f73ffffffffffffffffffffffffffffffffffffffff82169050919050565b5f608e826067565b9050919050565b609c816086565b82525050565b5f60208201905060b35f8301846095565b9291505056fea2646970667358221220a05491870bb4f23113e14de44ea0de7919f114794834650028b01b4ed1123d5a64736f6c634300081a0033a264697066735822122028d87b3cd06864d5bbf5311cbf121cdd8971717216a79826819ca275c4a9e92964736f6c634300081a0033",
					"opcodes": "PUSH1 0x80 PUSH1 0x40 MSTORE CALLVALUE DUP1 ISZERO PUSH1 0xE JUMPI PUSH0 DUP1 REVERT JUMPDEST POP PUSH2 0x702 DUP1 PUSH2 0x1C PUSH0 CODECOPY PUSH0 RETURN INVALID PUSH1 0x80 PUSH1 0x40 MSTORE CALLVALUE DUP1 ISZERO PUSH2 0xF JUMPI PUSH0 DUP1 REVERT JUMPDEST POP PUSH1 0x4 CALLDATASIZE LT PUSH2 0x34 JUMPI PUSH0 CALLDATALOAD PUSH1 0xE0 SHR DUP1 PUSH4 0x1CF41A81 EQ PUSH2 0x38 JUMPI DUP1 PUSH4 0xC7636C17 EQ PUSH2 0x54 JUMPI JUMPDEST PUSH0 DUP1 REVERT JUMPDEST PUSH2 0x52 PUSH1 0x4 DUP1 CALLDATASIZE SUB DUP2 ADD SWAP1 PUSH2 0x4D SWAP2 SWAP1 PUSH2 0x193 JUMP JUMPDEST PUSH2 0x84 JUMP JUMPDEST STOP JUMPDEST PUSH2 0x6E PUSH1 0x4 DUP1 CALLDATASIZE SUB DUP2 ADD SWAP1 PUSH2 0x69 SWAP2 SWAP1 PUSH2 0x2FA JUMP JUMPDEST PUSH2 0xFA JUMP JUMPDEST PUSH1 0x40 MLOAD PUSH2 0x7B SWAP2 SWAP1 PUSH2 0x393 JUMP JUMPDEST PUSH1 0x40 MLOAD DUP1 SWAP2 SUB SWAP1 RETURN JUMPDEST PUSH0 DUP2 PUSH0 SHL CALLER PUSH1 0x40 MLOAD PUSH2 0x95 SWAP1 PUSH2 0x142 JUMP JUMPDEST PUSH2 0x9F SWAP2 SWAP1 PUSH2 0x393 JUMP JUMPDEST DUP2 SWAP1 PUSH1 0x40 MLOAD DUP1 SWAP2 SUB SWAP1 PUSH0 CREATE2 SWAP1 POP DUP1 ISZERO DUP1 ISZERO PUSH2 0xBC JUMPI RETURNDATASIZE PUSH0 DUP1 RETURNDATACOPY RETURNDATASIZE PUSH0 REVERT JUMPDEST POP SWAP1 POP PUSH32 0xA506AD4E7F05ECEBA62A023C3219E5BD98A615F4FA87E2AFB08A2DA5CF62BF0C DUP2 PUSH1 0x40 MLOAD PUSH2 0xEE SWAP2 SWAP1 PUSH2 0x393 JUMP JUMPDEST PUSH1 0x40 MLOAD DUP1 SWAP2 SUB SWAP1 LOG1 POP POP JUMP JUMPDEST PUSH0 DUP1 PUSH1 0xFF PUSH1 0xF8 SHL ADDRESS DUP5 DUP7 DUP1 MLOAD SWAP1 PUSH1 0x20 ADD KECCAK256 PUSH1 0x40 MLOAD PUSH1 0x20 ADD PUSH2 0x11E SWAP5 SWAP4 SWAP3 SWAP2 SWAP1 PUSH2 0x485 JUMP JUMPDEST PUSH1 0x40 MLOAD PUSH1 0x20 DUP2 DUP4 SUB SUB DUP2 MSTORE SWAP1 PUSH1 0x40 MSTORE DUP1 MLOAD SWAP1 PUSH1 0x20 ADD KECCAK256 SWAP1 POP DUP1 PUSH0 SHR SWAP2 POP POP SWAP3 SWAP2 POP POP JUMP JUMPDEST PUSH2 0x1FA DUP1 PUSH2 0x4D3 DUP4 CODECOPY ADD SWAP1 JUMP JUMPDEST PUSH0 PUSH1 0x40 MLOAD SWAP1 POP SWAP1 JUMP JUMPDEST PUSH0 DUP1 REVERT JUMPDEST PUSH0 DUP1 REVERT JUMPDEST PUSH0 DUP2 SWAP1 POP SWAP2 SWAP1 POP JUMP JUMPDEST PUSH2 0x172 DUP2 PUSH2 0x160 JUMP JUMPDEST DUP2 EQ PUSH2 0x17C JUMPI PUSH0 DUP1 REVERT JUMPDEST POP JUMP JUMPDEST PUSH0 DUP2 CALLDATALOAD SWAP1 POP PUSH2 0x18D DUP2 PUSH2 0x169 JUMP JUMPDEST SWAP3 SWAP2 POP POP JUMP JUMPDEST PUSH0 PUSH1 0x20 DUP3 DUP5 SUB SLT ISZERO PUSH2 0x1A8 JUMPI PUSH2 0x1A7 PUSH2 0x158 JUMP JUMPDEST JUMPDEST PUSH0 PUSH2 0x1B5 DUP5 DUP3 DUP6 ADD PUSH2 0x17F JUMP JUMPDEST SWAP2 POP POP SWAP3 SWAP2 POP POP JUMP JUMPDEST PUSH0 DUP1 REVERT JUMPDEST PUSH0 DUP1 REVERT JUMPDEST PUSH0 PUSH1 0x1F NOT PUSH1 0x1F DUP4 ADD AND SWAP1 POP SWAP2 SWAP1 POP JUMP JUMPDEST PUSH32 0x4E487B7100000000000000000000000000000000000000000000000000000000 PUSH0 MSTORE PUSH1 0x41 PUSH1 0x4 MSTORE PUSH1 0x24 PUSH0 REVERT JUMPDEST PUSH2 0x20C DUP3 PUSH2 0x1C6 JUMP JUMPDEST DUP2 ADD DUP2 DUP2 LT PUSH8 0xFFFFFFFFFFFFFFFF DUP3 GT OR ISZERO PUSH2 0x22B JUMPI PUSH2 0x22A PUSH2 0x1D6 JUMP JUMPDEST JUMPDEST DUP1 PUSH1 0x40 MSTORE POP POP POP JUMP JUMPDEST PUSH0 PUSH2 0x23D PUSH2 0x14F JUMP JUMPDEST SWAP1 POP PUSH2 0x249 DUP3 DUP3 PUSH2 0x203 JUMP JUMPDEST SWAP2 SWAP1 POP JUMP JUMPDEST PUSH0 PUSH8 0xFFFFFFFFFFFFFFFF DUP3 GT ISZERO PUSH2 0x268 JUMPI PUSH2 0x267 PUSH2 0x1D6 JUMP JUMPDEST JUMPDEST PUSH2 0x271 DUP3 PUSH2 0x1C6 JUMP JUMPDEST SWAP1 POP PUSH1 0x20 DUP2 ADD SWAP1 POP SWAP2 SWAP1 POP JUMP JUMPDEST DUP3 DUP2 DUP4 CALLDATACOPY PUSH0 DUP4 DUP4 ADD MSTORE POP POP POP JUMP JUMPDEST PUSH0 PUSH2 0x29E PUSH2 0x299 DUP5 PUSH2 0x24E JUMP JUMPDEST PUSH2 0x234 JUMP JUMPDEST SWAP1 POP DUP3 DUP2 MSTORE PUSH1 0x20 DUP2 ADD DUP5 DUP5 DUP5 ADD GT ISZERO PUSH2 0x2BA JUMPI PUSH2 0x2B9 PUSH2 0x1C2 JUMP JUMPDEST JUMPDEST PUSH2 0x2C5 DUP5 DUP3 DUP6 PUSH2 0x27E JUMP JUMPDEST POP SWAP4 SWAP3 POP POP POP JUMP JUMPDEST PUSH0 DUP3 PUSH1 0x1F DUP4 ADD SLT PUSH2 0x2E1 JUMPI PUSH2 0x2E0 PUSH2 0x1BE JUMP JUMPDEST JUMPDEST DUP2 CALLDATALOAD PUSH2 0x2F1 DUP5 DUP3 PUSH1 0x20 DUP7 ADD PUSH2 0x28C JUMP JUMPDEST SWAP2 POP POP SWAP3 SWAP2 POP POP JUMP JUMPDEST PUSH0 DUP1 PUSH1 0x40 DUP4 DUP6 SUB SLT ISZERO PUSH2 0x310 JUMPI PUSH2 0x30F PUSH2 0x158 JUMP JUMPDEST JUMPDEST PUSH0 DUP4 ADD CALLDATALOAD PUSH8 0xFFFFFFFFFFFFFFFF DUP2 GT ISZERO PUSH2 0x32D JUMPI PUSH2 0x32C PUSH2 0x15C JUMP JUMPDEST JUMPDEST PUSH2 0x339 DUP6 DUP3 DUP7 ADD PUSH2 0x2CD JUMP JUMPDEST SWAP3 POP POP PUSH1 0x20 PUSH2 0x34A DUP6 DUP3 DUP7 ADD PUSH2 0x17F JUMP JUMPDEST SWAP2 POP POP SWAP3 POP SWAP3 SWAP1 POP JUMP JUMPDEST PUSH0 PUSH20 0xFFFFFFFFFFFFFFFFFFFFFFFFFFFFFFFFFFFFFFFF DUP3 AND SWAP1 POP SWAP2 SWAP1 POP JUMP JUMPDEST PUSH0 PUSH2 0x37D DUP3 PUSH2 0x354 JUMP JUMPDEST SWAP1 POP SWAP2 SWAP1 POP JUMP JUMPDEST PUSH2 0x38D DUP2 PUSH2 0x373 JUMP JUMPDEST DUP3 MSTORE POP POP JUMP JUMPDEST PUSH0 PUSH1 0x20 DUP3 ADD SWAP1 POP PUSH2 0x3A6 PUSH0 DUP4 ADD DUP5 PUSH2 0x384 JUMP JUMPDEST SWAP3 SWAP2 POP POP JUMP JUMPDEST PUSH0 PUSH32 0xFF00000000000000000000000000000000000000000000000000000000000000 DUP3 AND SWAP1 POP SWAP2 SWAP1 POP JUMP JUMPDEST PUSH0 DUP2 SWAP1 POP SWAP2 SWAP1 POP JUMP JUMPDEST PUSH2 0x3F1 PUSH2 0x3EC DUP3 PUSH2 0x3AC JUMP JUMPDEST PUSH2 0x3D7 JUMP JUMPDEST DUP3 MSTORE POP POP JUMP JUMPDEST PUSH0 DUP2 PUSH1 0x60 SHL SWAP1 POP SWAP2 SWAP1 POP JUMP JUMPDEST PUSH0 PUSH2 0x40D DUP3 PUSH2 0x3F7 JUMP JUMPDEST SWAP1 POP SWAP2 SWAP1 POP JUMP JUMPDEST PUSH0 PUSH2 0x41E DUP3 PUSH2 0x403 JUMP JUMPDEST SWAP1 POP SWAP2 SWAP1 POP JUMP JUMPDEST PUSH2 0x436 PUSH2 0x431 DUP3 PUSH2 0x373 JUMP JUMPDEST PUSH2 0x414 JUMP JUMPDEST DUP3 MSTORE POP POP JUMP JUMPDEST PUSH0 DUP2 SWAP1 POP SWAP2 SWAP1 POP JUMP JUMPDEST PUSH2 0x456 PUSH2 0x451 DUP3 PUSH2 0x160 JUMP JUMPDEST PUSH2 0x43C JUMP JUMPDEST DUP3 MSTORE POP POP JUMP JUMPDEST PUSH0 DUP2 SWAP1 POP SWAP2 SWAP1 POP JUMP JUMPDEST PUSH0 DUP2 SWAP1 POP SWAP2 SWAP1 POP JUMP JUMPDEST PUSH2 0x47F PUSH2 0x47A DUP3 PUSH2 0x45C JUMP JUMPDEST PUSH2 0x465 JUMP JUMPDEST DUP3 MSTORE POP POP JUMP JUMPDEST PUSH0 PUSH2 0x490 DUP3 DUP8 PUSH2 0x3E0 JUMP JUMPDEST PUSH1 0x1 DUP3 ADD SWAP2 POP PUSH2 0x4A0 DUP3 DUP7 PUSH2 0x425 JUMP JUMPDEST PUSH1 0x14 DUP3 ADD SWAP2 POP PUSH2 0x4B0 DUP3 DUP6 PUSH2 0x445 JUMP JUMPDEST PUSH1 0x20 DUP3 ADD SWAP2 POP PUSH2 0x4C0 DUP3 DUP5 PUSH2 0x46E JUMP JUMPDEST PUSH1 0x20 DUP3 ADD SWAP2 POP DUP2 SWAP1 POP SWAP6 SWAP5 POP POP POP POP POP JUMP INVALID PUSH1 0x80 PUSH1 0x40 MSTORE CALLVALUE DUP1 ISZERO PUSH2 0xF JUMPI PUSH0 DUP1 REVERT JUMPDEST POP PUSH1 0x40 MLOAD PUSH2 0x1FA CODESIZE SUB DUP1 PUSH2 0x1FA DUP4 CODECOPY DUP2 DUP2 ADD PUSH1 0x40 MSTORE DUP2 ADD SWAP1 PUSH2 0x31 SWAP2 SWAP1 PUSH2 0xD4 JUMP JUMPDEST DUP1 PUSH0 DUP1 PUSH2 0x100 EXP DUP2 SLOAD DUP2 PUSH20 0xFFFFFFFFFFFFFFFFFFFFFFFFFFFFFFFFFFFFFFFF MUL NOT AND SWAP1 DUP4 PUSH20 0xFFFFFFFFFFFFFFFFFFFFFFFFFFFFFFFFFFFFFFFF AND MUL OR SWAP1 SSTORE POP POP PUSH2 0xFF JUMP JUMPDEST PUSH0 DUP1 REVERT JUMPDEST PUSH0 PUSH20 0xFFFFFFFFFFFFFFFFFFFFFFFFFFFFFFFFFFFFFFFF DUP3 AND SWAP1 POP SWAP2 SWAP1 POP JUMP JUMPDEST PUSH0 PUSH2 0xA3 DUP3 PUSH2 0x7A JUMP JUMPDEST SWAP1 POP SWAP2 SWAP1 POP JUMP JUMPDEST PUSH2 0xB3 DUP2 PUSH2 0x99 JUMP JUMPDEST DUP2 EQ PUSH2 0xBD JUMPI PUSH0 DUP1 REVERT JUMPDEST POP JUMP JUMPDEST PUSH0 DUP2 MLOAD SWAP1 POP PUSH2 0xCE DUP2 PUSH2 0xAA JUMP JUMPDEST SWAP3 SWAP2 POP POP JUMP JUMPDEST PUSH0 PUSH1 0x20 DUP3 DUP5 SUB SLT ISZERO PUSH2 0xE9 JUMPI PUSH2 0xE8 PUSH2 0x76 JUMP JUMPDEST JUMPDEST PUSH0 PUSH2 0xF6 DUP5 DUP3 DUP6 ADD PUSH2 0xC0 JUMP JUMPDEST SWAP2 POP POP SWAP3 SWAP2 POP POP JUMP JUMPDEST PUSH1 0xEF DUP1 PUSH2 0x10B PUSH0 CODECOPY PUSH0 RETURN INVALID PUSH1 0x80 PUSH1 0x40 MSTORE CALLVALUE DUP1 ISZERO PUSH1 0xE JUMPI PUSH0 DUP1 REVERT JUMPDEST POP PUSH1 0x4 CALLDATASIZE LT PUSH1 0x26 JUMPI PUSH0 CALLDATALOAD PUSH1 0xE0 SHR DUP1 PUSH4 0x8DA5CB5B EQ PUSH1 0x2A JUMPI JUMPDEST PUSH0 DUP1 REVERT JUMPDEST PUSH1 0x30 PUSH1 0x44 JUMP JUMPDEST PUSH1 0x40 MLOAD PUSH1 0x3B SWAP2 SWAP1 PUSH1 0xA2 JUMP JUMPDEST PUSH1 0x40 MLOAD DUP1 SWAP2 SUB SWAP1 RETURN JUMPDEST PUSH0 DUP1 SLOAD SWAP1 PUSH2 0x100 EXP SWAP1 DIV PUSH20 0xFFFFFFFFFFFFFFFFFFFFFFFFFFFFFFFFFFFFFFFF AND DUP2 JUMP JUMPDEST PUSH0 PUSH20 0xFFFFFFFFFFFFFFFFFFFFFFFFFFFFFFFFFFFFFFFF DUP3 AND SWAP1 POP SWAP2 SWAP1 POP JUMP JUMPDEST PUSH0 PUSH1 0x8E DUP3 PUSH1 0x67 JUMP JUMPDEST SWAP1 POP SWAP2 SWAP1 POP JUMP JUMPDEST PUSH1 0x9C DUP2 PUSH1 0x86 JUMP JUMPDEST DUP3 MSTORE POP POP JUMP JUMPDEST PUSH0 PUSH1 0x20 DUP3 ADD SWAP1 POP PUSH1 0xB3 PUSH0 DUP4 ADD DUP5 PUSH1 0x95 JUMP JUMPDEST SWAP3 SWAP2 POP POP JUMP INVALID LOG2 PUSH5 0x6970667358 0x22 SLT KECCAK256 LOG0 SLOAD SWAP2 DUP8 SIGNEXTEND 0xB4 CALLCODE BALANCE SGT 0xE1 0x4D 0xE4 0x4E LOG0 0xDE PUSH26 0x19F114794834650028B01B4ED1123D5A64736F6C634300081A00 CALLER LOG2 PUSH5 0x6970667358 0x22 SLT KECCAK256 0x28 0xD8 PUSH28 0x3CD06864D5BBF5311CBF121CDD8971717216A79826819CA275C4A9E9 0x29 PUSH5 0x736F6C6343 STOP ADDMOD BYTE STOP CALLER "
				},
				"gasEstimates": {
					"creation": {
						"codeDepositCost": "358800",
						"executionCost": "397",
						"totalCost": "359197"
					},
					"external": {
						"deployContract(uint256)": "infinite",
						"getaddress(bytes,uint256)": "infinite"
					}
				},
				"methodIdentifiers": {
					"deployContract(uint256)": "1cf41a81",
					"getaddress(bytes,uint256)": "c7636c17"
				}
			},
			"storageLayout": {
				"storage": [],
				"types": null
			},
			"userdoc": {
				"kind": "user",
				"methods": {},
				"version": 1
			}
		}
	}
}