{
	"Contracts/ERC20Permit.sol": {
		"MyToken": {
			"abi": [
				{
					"inputs": [],
					"stateMutability": "nonpayable",
					"type": "constructor"
				},
				{
					"anonymous": false,
					"inputs": [
						{
							"indexed": true,
							"internalType": "address",
							"name": "owner",
							"type": "address"
						},
						{
							"indexed": true,
							"internalType": "address",
							"name": "spender",
							"type": "address"
						},
						{
							"indexed": false,
							"internalType": "uint256",
							"name": "value",
							"type": "uint256"
						}
					],
					"name": "Approval",
					"type": "event"
				},
				{
					"anonymous": false,
					"inputs": [
						{
							"indexed": true,
							"internalType": "address",
							"name": "from",
							"type": "address"
						},
						{
							"indexed": true,
							"internalType": "address",
							"name": "to",
							"type": "address"
						},
						{
							"indexed": false,
							"internalType": "uint256",
							"name": "value",
							"type": "uint256"
						}
					],
					"name": "Transfer",
					"type": "event"
				},
				{
					"inputs": [],
					"name": "DOMAIN_SEPARATOR",
					"outputs": [
						{
							"internalType": "bytes32",
							"name": "",
							"type": "bytes32"
						}
					],
					"stateMutability": "view",
					"type": "function"
				},
				{
					"inputs": [
						{
							"internalType": "address",
							"name": "owner",
							"type": "address"
						},
						{
							"internalType": "address",
							"name": "spender",
							"type": "address"
						}
					],
					"name": "allowance",
					"outputs": [
						{
							"internalType": "uint256",
							"name": "",
							"type": "uint256"
						}
					],
					"stateMutability": "view",
					"type": "function"
				},
				{
					"inputs": [
						{
							"internalType": "address",
							"name": "spender",
							"type": "address"
						},
						{
							"internalType": "uint256",
							"name": "amount",
							"type": "uint256"
						}
					],
					"name": "approve",
					"outputs": [
						{
							"internalType": "bool",
							"name": "",
							"type": "bool"
						}
					],
					"stateMutability": "nonpayable",
					"type": "function"
				},
				{
					"inputs": [
						{
							"internalType": "address",
							"name": "account",
							"type": "address"
						}
					],
					"name": "balanceOf",
					"outputs": [
						{
							"internalType": "uint256",
							"name": "",
							"type": "uint256"
						}
					],
					"stateMutability": "view",
					"type": "function"
				},
				{
					"inputs": [],
					"name": "decimals",
					"outputs": [
						{
							"internalType": "uint8",
							"name": "",
							"type": "uint8"
						}
					],
					"stateMutability": "view",
					"type": "function"
				},
				{
					"inputs": [
						{
							"internalType": "address",
							"name": "spender",
							"type": "address"
						},
						{
							"internalType": "uint256",
							"name": "subtractedValue",
							"type": "uint256"
						}
					],
					"name": "decreaseAllowance",
					"outputs": [
						{
							"internalType": "bool",
							"name": "",
							"type": "bool"
						}
					],
					"stateMutability": "nonpayable",
					"type": "function"
				},
				{
					"inputs": [
						{
							"internalType": "address",
							"name": "spender",
							"type": "address"
						},
						{
							"internalType": "uint256",
							"name": "addedValue",
							"type": "uint256"
						}
					],
					"name": "increaseAllowance",
					"outputs": [
						{
							"internalType": "bool",
							"name": "",
							"type": "bool"
						}
					],
					"stateMutability": "nonpayable",
					"type": "function"
				},
				{
					"inputs": [
						{
							"internalType": "address",
							"name": "to",
							"type": "address"
						},
						{
							"internalType": "uint256",
							"name": "value",
							"type": "uint256"
						}
					],
					"name": "mint",
					"outputs": [],
					"stateMutability": "nonpayable",
					"type": "function"
				},
				{
					"inputs": [],
					"name": "name",
					"outputs": [
						{
							"internalType": "string",
							"name": "",
							"type": "string"
						}
					],
					"stateMutability": "view",
					"type": "function"
				},
				{
					"inputs": [
						{
							"internalType": "address",
							"name": "owner",
							"type": "address"
						}
					],
					"name": "nonces",
					"outputs": [
						{
							"internalType": "uint256",
							"name": "",
							"type": "uint256"
						}
					],
					"stateMutability": "view",
					"type": "function"
				},
				{
					"inputs": [
						{
							"internalType": "address",
							"name": "owner",
							"type": "address"
						},
						{
							"internalType": "address",
							"name": "spender",
							"type": "address"
						},
						{
							"internalType": "uint256",
							"name": "value",
							"type": "uint256"
						},
						{
							"internalType": "uint256",
							"name": "deadline",
							"type": "uint256"
						},
						{
							"internalType": "uint8",
							"name": "v",
							"type": "uint8"
						},
						{
							"internalType": "bytes32",
							"name": "r",
							"type": "bytes32"
						},
						{
							"internalType": "bytes32",
							"name": "s",
							"type": "bytes32"
						}
					],
					"name": "permit",
					"outputs": [],
					"stateMutability": "nonpayable",
					"type": "function"
				},
				{
					"inputs": [],
					"name": "symbol",
					"outputs": [
						{
							"internalType": "string",
							"name": "",
							"type": "string"
						}
					],
					"stateMutability": "view",
					"type": "function"
				},
				{
					"inputs": [],
					"name": "totalSupply",
					"outputs": [
						{
							"internalType": "uint256",
							"name": "",
							"type": "uint256"
						}
					],
					"stateMutability": "view",
					"type": "function"
				},
				{
					"inputs": [
						{
							"internalType": "address",
							"name": "to",
							"type": "address"
						},
						{
							"internalType": "uint256",
							"name": "amount",
							"type": "uint256"
						}
					],
					"name": "transfer",
					"outputs": [
						{
							"internalType": "bool",
							"name": "",
							"type": "bool"
						}
					],
					"stateMutability": "nonpayable",
					"type": "function"
				},
				{
					"inputs": [
						{
							"internalType": "address",
							"name": "from",
							"type": "address"
						},
						{
							"internalType": "address",
							"name": "to",
							"type": "address"
						},
						{
							"internalType": "uint256",
							"name": "amount",
							"type": "uint256"
						}
					],
					"name": "transferFrom",
					"outputs": [
						{
							"internalType": "bool",
							"name": "",
							"type": "bool"
						}
					],
					"stateMutability": "nonpayable",
					"type": "function"
				}
			],
			"devdoc": {
				"events": {
					"Approval(address,address,uint256)": {
						"details": "Emitted when the allowance of a `spender` for an `owner` is set by a call to {approve}. `value` is the new allowance."
					},
					"Transfer(address,address,uint256)": {
						"details": "Emitted when `value` tokens are moved from one account (`from`) to another (`to`). Note that `value` may be zero."
					}
				},
				"kind": "dev",
				"methods": {
					"DOMAIN_SEPARATOR()": {
						"details": "See {IERC20Permit-DOMAIN_SEPARATOR}."
					},
					"allowance(address,address)": {
						"details": "See {IERC20-allowance}."
					},
					"approve(address,uint256)": {
						"details": "See {IERC20-approve}. NOTE: If `amount` is the maximum `uint256`, the allowance is not updated on `transferFrom`. This is semantically equivalent to an infinite approval. Requirements: - `spender` cannot be the zero address."
					},
					"balanceOf(address)": {
						"details": "See {IERC20-balanceOf}."
					},
					"decimals()": {
						"details": "Returns the number of decimals used to get its user representation. For example, if `decimals` equals `2`, a balance of `505` tokens should be displayed to a user as `5.05` (`505 / 10 ** 2`). Tokens usually opt for a value of 18, imitating the relationship between Ether and Wei. This is the value {ERC20} uses, unless this function is overridden; NOTE: This information is only used for _display_ purposes: it in no way affects any of the arithmetic of the contract, including {IERC20-balanceOf} and {IERC20-transfer}."
					},
					"decreaseAllowance(address,uint256)": {
						"details": "Atomically decreases the allowance granted to `spender` by the caller. This is an alternative to {approve} that can be used as a mitigation for problems described in {IERC20-approve}. Emits an {Approval} event indicating the updated allowance. Requirements: - `spender` cannot be the zero address. - `spender` must have allowance for the caller of at least `subtractedValue`."
					},
					"increaseAllowance(address,uint256)": {
						"details": "Atomically increases the allowance granted to `spender` by the caller. This is an alternative to {approve} that can be used as a mitigation for problems described in {IERC20-approve}. Emits an {Approval} event indicating the updated allowance. Requirements: - `spender` cannot be the zero address."
					},
					"name()": {
						"details": "Returns the name of the token."
					},
					"nonces(address)": {
						"details": "See {IERC20Permit-nonces}."
					},
					"permit(address,address,uint256,uint256,uint8,bytes32,bytes32)": {
						"details": "See {IERC20Permit-permit}."
					},
					"symbol()": {
						"details": "Returns the symbol of the token, usually a shorter version of the name."
					},
					"totalSupply()": {
						"details": "See {IERC20-totalSupply}."
					},
					"transfer(address,uint256)": {
						"details": "See {IERC20-transfer}. Requirements: - `to` cannot be the zero address. - the caller must have a balance of at least `amount`."
					},
					"transferFrom(address,address,uint256)": {
						"details": "See {IERC20-transferFrom}. Emits an {Approval} event indicating the updated allowance. This is not required by the EIP. See the note at the beginning of {ERC20}. NOTE: Does not update the allowance if the current allowance is the maximum `uint256`. Requirements: - `from` and `to` cannot be the zero address. - `from` must have a balance of at least `amount`. - the caller must have allowance for ``from``'s tokens of at least `amount`."
					}
				},
				"version": 1
			},
			"evm": {
				"assembly": "    /* \"Contracts/ERC20Permit.sol\":205:501  contract MyToken is ERC20, ERC20Permit {... */\n  mstore(0x40, 0x0140)\n    /* \"Contracts/ERC20Permit.sol\":250:327  constructor() ERC20(\"HappyGillToken\", \"HGK\") ERC20Permit(\"HappyGillToken\") {} */\n  callvalue\n  dup1\n  iszero\n  tag_1\n  jumpi\n  0x00\n  dup1\n  revert\ntag_1:\n  pop\n    /* \"@openzeppelin/contracts@4.7.3/token/ERC20/extensions/draft-ERC20Permit.sol\":1835:1887  constructor(string memory name) EIP712(name, \"1\") {} */\n  mload(0x40)\n  dup1\n  0x40\n  add\n  0x40\n  mstore\n  dup1\n  0x0e\n  dup2\n  mstore\n  0x20\n  add\n  0x486170707947696c6c546f6b656e000000000000000000000000000000000000\n  dup2\n  mstore\n  pop\n    /* \"@openzeppelin/contracts@4.7.3/token/ERC20/extensions/draft-ERC20Permit.sol\":1874:1878  name */\n  dup1\n    /* \"@openzeppelin/contracts@4.7.3/utils/cryptography/draft-EIP712.sol\":2455:3057  constructor(string memory name, string memory version) {... */\n  mload(0x40)\n  dup1\n  0x40\n  add\n  0x40\n  mstore\n  dup1\n  0x01\n  dup2\n  mstore\n  0x20\n  add\n  0x3100000000000000000000000000000000000000000000000000000000000000\n  dup2\n  mstore\n  pop\n    /* \"@openzeppelin/contracts@4.7.3/token/ERC20/ERC20.sol\":1978:2091  constructor(string memory name_, string memory symbol_) {... */\n  mload(0x40)\n  dup1\n  0x40\n  add\n  0x40\n  mstore\n  dup1\n  0x0e\n  dup2\n  mstore\n  0x20\n  add\n  0x486170707947696c6c546f6b656e000000000000000000000000000000000000\n  dup2\n  mstore\n  pop\n  mload(0x40)\n  dup1\n  0x40\n  add\n  0x40\n  mstore\n  dup1\n  0x03\n  dup2\n  mstore\n  0x20\n  add\n  0x48474b0000000000000000000000000000000000000000000000000000000000\n  dup2\n  mstore\n  pop\n    /* \"@openzeppelin/contracts@4.7.3/token/ERC20/ERC20.sol\":2052:2057  name_ */\n  dup2\n    /* \"@openzeppelin/contracts@4.7.3/token/ERC20/ERC20.sol\":2044:2049  _name */\n  0x03\n    /* \"@openzeppelin/contracts@4.7.3/token/ERC20/ERC20.sol\":2044:2057  _name = name_ */\n  swap1\n  dup2\n  tag_7\n  swap2\n  swap1\n  tag_8\n  jump\t// in\ntag_7:\n  pop\n    /* \"@openzeppelin/contracts@4.7.3/token/ERC20/ERC20.sol\":2077:2084  symbol_ */\n  dup1\n    /* \"@openzeppelin/contracts@4.7.3/token/ERC20/ERC20.sol\":2067:2074  _symbol */\n  0x04\n    /* \"@openzeppelin/contracts@4.7.3/token/ERC20/ERC20.sol\":2067:2084  _symbol = symbol_ */\n  swap1\n  dup2\n  tag_9\n  swap2\n  swap1\n  tag_8\n  jump\t// in\ntag_9:\n  pop\n    /* \"@openzeppelin/contracts@4.7.3/token/ERC20/ERC20.sol\":1978:2091  constructor(string memory name_, string memory symbol_) {... */\n  pop\n  pop\n    /* \"@openzeppelin/contracts@4.7.3/utils/cryptography/draft-EIP712.sol\":2520:2538  bytes32 hashedName */\n  0x00\n    /* \"@openzeppelin/contracts@4.7.3/utils/cryptography/draft-EIP712.sol\":2557:2561  name */\n  dup3\n    /* \"@openzeppelin/contracts@4.7.3/utils/cryptography/draft-EIP712.sol\":2541:2563  keccak256(bytes(name)) */\n  dup1\n  mload\n  swap1\n  0x20\n  add\n  keccak256\n    /* \"@openzeppelin/contracts@4.7.3/utils/cryptography/draft-EIP712.sol\":2520:2563  bytes32 hashedName = keccak256(bytes(name)) */\n  swap1\n  pop\n    /* \"@openzeppelin/contracts@4.7.3/utils/cryptography/draft-EIP712.sol\":2573:2594  bytes32 hashedVersion */\n  0x00\n    /* \"@openzeppelin/contracts@4.7.3/utils/cryptography/draft-EIP712.sol\":2613:2620  version */\n  dup3\n    /* \"@openzeppelin/contracts@4.7.3/utils/cryptography/draft-EIP712.sol\":2597:2622  keccak256(bytes(version)) */\n  dup1\n  mload\n  swap1\n  0x20\n  add\n  keccak256\n    /* \"@openzeppelin/contracts@4.7.3/utils/cryptography/draft-EIP712.sol\":2573:2622  bytes32 hashedVersion = keccak256(bytes(version)) */\n  swap1\n  pop\n    /* \"@openzeppelin/contracts@4.7.3/utils/cryptography/draft-EIP712.sol\":2632:2648  bytes32 typeHash */\n  0x00\n    /* \"@openzeppelin/contracts@4.7.3/utils/cryptography/draft-EIP712.sol\":2651:2768  keccak256(... */\n  0x8b73c3c69bb8fe3d512ecc4cf759cc79239f7b179b0ffacaa9a75d522b39400f\n    /* \"@openzeppelin/contracts@4.7.3/utils/cryptography/draft-EIP712.sol\":2632:2768  bytes32 typeHash = keccak256(... */\n  swap1\n  pop\n    /* \"@openzeppelin/contracts@4.7.3/utils/cryptography/draft-EIP712.sol\":2793:2803  hashedName */\n  dup3\n    /* \"@openzeppelin/contracts@4.7.3/utils/cryptography/draft-EIP712.sol\":2778:2803  _HASHED_NAME = hashedName */\n  0xe0\n  dup2\n  dup2\n  mstore\n  pop\n  pop\n    /* \"@openzeppelin/contracts@4.7.3/utils/cryptography/draft-EIP712.sol\":2831:2844  hashedVersion */\n  dup2\n    /* \"@openzeppelin/contracts@4.7.3/utils/cryptography/draft-EIP712.sol\":2813:2844  _HASHED_VERSION = hashedVersion */\n  0x0100\n  dup2\n  dup2\n  mstore\n  pop\n  pop\n    /* \"@openzeppelin/contracts@4.7.3/utils/cryptography/draft-EIP712.sol\":2873:2886  block.chainid */\n  chainid\n    /* \"@openzeppelin/contracts@4.7.3/utils/cryptography/draft-EIP712.sol\":2854:2886  _CACHED_CHAIN_ID = block.chainid */\n  0xa0\n  dup2\n  dup2\n  mstore\n  pop\n  pop\n    /* \"@openzeppelin/contracts@4.7.3/utils/cryptography/draft-EIP712.sol\":2923:2981  _buildDomainSeparator(typeHash, hashedName, hashedVersion) */\n  tag_11\n    /* \"@openzeppelin/contracts@4.7.3/utils/cryptography/draft-EIP712.sol\":2945:2953  typeHash */\n  dup2\n    /* \"@openzeppelin/contracts@4.7.3/utils/cryptography/draft-EIP712.sol\":2955:2965  hashedName */\n  dup5\n    /* \"@openzeppelin/contracts@4.7.3/utils/cryptography/draft-EIP712.sol\":2967:2980  hashedVersion */\n  dup5\n    /* \"@openzeppelin/contracts@4.7.3/utils/cryptography/draft-EIP712.sol\":2923:2944  _buildDomainSeparator */\n  shl(0x20, tag_12)\n    /* \"@openzeppelin/contracts@4.7.3/utils/cryptography/draft-EIP712.sol\":2923:2981  _buildDomainSeparator(typeHash, hashedName, hashedVersion) */\n  0x20\n  shr\n  jump\t// in\ntag_11:\n    /* \"@openzeppelin/contracts@4.7.3/utils/cryptography/draft-EIP712.sol\":2896:2981  _CACHED_DOMAIN_SEPARATOR = _buildDomainSeparator(typeHash, hashedName, hashedVersion) */\n  0x80\n  dup2\n  dup2\n  mstore\n  pop\n  pop\n    /* \"@openzeppelin/contracts@4.7.3/utils/cryptography/draft-EIP712.sol\":3014:3018  this */\n  address\n    /* \"@openzeppelin/contracts@4.7.3/utils/cryptography/draft-EIP712.sol\":2991:3019  _CACHED_THIS = address(this) */\n  0xffffffffffffffffffffffffffffffffffffffff\n  and\n  0xc0\n  dup2\n  0xffffffffffffffffffffffffffffffffffffffff\n  and\n  dup2\n  mstore\n  pop\n  pop\n    /* \"@openzeppelin/contracts@4.7.3/utils/cryptography/draft-EIP712.sol\":3042:3050  typeHash */\n  dup1\n    /* \"@openzeppelin/contracts@4.7.3/utils/cryptography/draft-EIP712.sol\":3029:3050  _TYPE_HASH = typeHash */\n  0x0120\n  dup2\n  dup2\n  mstore\n  pop\n  pop\n    /* \"@openzeppelin/contracts@4.7.3/utils/cryptography/draft-EIP712.sol\":2510:3057  {... */\n  pop\n  pop\n  pop\n    /* \"@openzeppelin/contracts@4.7.3/utils/cryptography/draft-EIP712.sol\":2455:3057  constructor(string memory name, string memory version) {... */\n  pop\n  pop\n    /* \"@openzeppelin/contracts@4.7.3/token/ERC20/extensions/draft-ERC20Permit.sol\":1835:1887  constructor(string memory name) EIP712(name, \"1\") {} */\n  pop\n    /* \"Contracts/ERC20Permit.sol\":205:501  contract MyToken is ERC20, ERC20Permit {... */\n  jump(tag_15)\n    /* \"@openzeppelin/contracts@4.7.3/utils/cryptography/draft-EIP712.sol\":3457:3714  function _buildDomainSeparator(... */\ntag_12:\n    /* \"@openzeppelin/contracts@4.7.3/utils/cryptography/draft-EIP712.sol\":3597:3604  bytes32 */\n  0x00\n    /* \"@openzeppelin/contracts@4.7.3/utils/cryptography/draft-EIP712.sol\":3644:3652  typeHash */\n  dup4\n    /* \"@openzeppelin/contracts@4.7.3/utils/cryptography/draft-EIP712.sol\":3654:3662  nameHash */\n  dup4\n    /* \"@openzeppelin/contracts@4.7.3/utils/cryptography/draft-EIP712.sol\":3664:3675  versionHash */\n  dup4\n    /* \"@openzeppelin/contracts@4.7.3/utils/cryptography/draft-EIP712.sol\":3677:3690  block.chainid */\n  chainid\n    /* \"@openzeppelin/contracts@4.7.3/utils/cryptography/draft-EIP712.sol\":3700:3704  this */\n  address\n    /* \"@openzeppelin/contracts@4.7.3/utils/cryptography/draft-EIP712.sol\":3633:3706  abi.encode(typeHash, nameHash, versionHash, block.chainid, address(this)) */\n  add(0x20, mload(0x40))\n  tag_17\n  swap6\n  swap5\n  swap4\n  swap3\n  swap2\n  swap1\n  tag_18\n  jump\t// in\ntag_17:\n  mload(0x40)\n  0x20\n  dup2\n  dup4\n  sub\n  sub\n  dup2\n  mstore\n  swap1\n  0x40\n  mstore\n    /* \"@openzeppelin/contracts@4.7.3/utils/cryptography/draft-EIP712.sol\":3623:3707  keccak256(abi.encode(typeHash, nameHash, versionHash, block.chainid, address(this))) */\n  dup1\n  mload\n  swap1\n  0x20\n  add\n  keccak256\n    /* \"@openzeppelin/contracts@4.7.3/utils/cryptography/draft-EIP712.sol\":3616:3707  return keccak256(abi.encode(typeHash, nameHash, versionHash, block.chainid, address(this))) */\n  swap1\n  pop\n    /* \"@openzeppelin/contracts@4.7.3/utils/cryptography/draft-EIP712.sol\":3457:3714  function _buildDomainSeparator(... */\n  swap4\n  swap3\n  pop\n  pop\n  pop\n  jump\t// out\n    /* \"#utility.yul\":7:106   */\ntag_19:\n    /* \"#utility.yul\":59:65   */\n  0x00\n    /* \"#utility.yul\":93:98   */\n  dup2\n    /* \"#utility.yul\":87:99   */\n  mload\n    /* \"#utility.yul\":77:99   */\n  swap1\n  pop\n    /* \"#utility.yul\":7:106   */\n  swap2\n  swap1\n  pop\n  jump\t// out\n    /* \"#utility.yul\":112:292   */\ntag_20:\n    /* \"#utility.yul\":160:237   */\n  0x4e487b7100000000000000000000000000000000000000000000000000000000\n    /* \"#utility.yul\":157:158   */\n  0x00\n    /* \"#utility.yul\":150:238   */\n  mstore\n    /* \"#utility.yul\":257:261   */\n  0x41\n    /* \"#utility.yul\":254:255   */\n  0x04\n    /* \"#utility.yul\":247:262   */\n  mstore\n    /* \"#utility.yul\":281:285   */\n  0x24\n    /* \"#utility.yul\":278:279   */\n  0x00\n    /* \"#utility.yul\":271:286   */\n  revert\n    /* \"#utility.yul\":298:478   */\ntag_21:\n    /* \"#utility.yul\":346:423   */\n  0x4e487b7100000000000000000000000000000000000000000000000000000000\n    /* \"#utility.yul\":343:344   */\n  0x00\n    /* \"#utility.yul\":336:424   */\n  mstore\n    /* \"#utility.yul\":443:447   */\n  0x22\n    /* \"#utility.yul\":440:441   */\n  0x04\n    /* \"#utility.yul\":433:448   */\n  mstore\n    /* \"#utility.yul\":467:471   */\n  0x24\n    /* \"#utility.yul\":464:465   */\n  0x00\n    /* \"#utility.yul\":457:472   */\n  revert\n    /* \"#utility.yul\":484:804   */\ntag_22:\n    /* \"#utility.yul\":528:534   */\n  0x00\n    /* \"#utility.yul\":565:566   */\n  0x02\n    /* \"#utility.yul\":559:563   */\n  dup3\n    /* \"#utility.yul\":555:567   */\n  div\n    /* \"#utility.yul\":545:567   */\n  swap1\n  pop\n    /* \"#utility.yul\":612:613   */\n  0x01\n    /* \"#utility.yul\":606:610   */\n  dup3\n    /* \"#utility.yul\":602:614   */\n  and\n    /* \"#utility.yul\":633:651   */\n  dup1\n    /* \"#utility.yul\":623:704   */\n  tag_50\n  jumpi\n    /* \"#utility.yul\":689:693   */\n  0x7f\n    /* \"#utility.yul\":681:687   */\n  dup3\n    /* \"#utility.yul\":677:694   */\n  and\n    /* \"#utility.yul\":667:694   */\n  swap2\n  pop\n    /* \"#utility.yul\":623:704   */\ntag_50:\n    /* \"#utility.yul\":751:753   */\n  0x20\n    /* \"#utility.yul\":743:749   */\n  dup3\n    /* \"#utility.yul\":740:754   */\n  lt\n    /* \"#utility.yul\":720:738   */\n  dup2\n    /* \"#utility.yul\":717:755   */\n  sub\n    /* \"#utility.yul\":714:798   */\n  tag_51\n  jumpi\n    /* \"#utility.yul\":770:788   */\n  tag_52\n  tag_21\n  jump\t// in\ntag_52:\n    /* \"#utility.yul\":714:798   */\ntag_51:\n    /* \"#utility.yul\":535:804   */\n  pop\n    /* \"#utility.yul\":484:804   */\n  swap2\n  swap1\n  pop\n  jump\t// out\n    /* \"#utility.yul\":810:951   */\ntag_23:\n    /* \"#utility.yul\":859:863   */\n  0x00\n    /* \"#utility.yul\":882:885   */\n  dup2\n    /* \"#utility.yul\":874:885   */\n  swap1\n  pop\n    /* \"#utility.yul\":905:908   */\n  dup2\n    /* \"#utility.yul\":902:903   */\n  0x00\n    /* \"#utility.yul\":895:909   */\n  mstore\n    /* \"#utility.yul\":939:943   */\n  0x20\n    /* \"#utility.yul\":936:937   */\n  0x00\n    /* \"#utility.yul\":926:944   */\n  keccak256\n    /* \"#utility.yul\":918:944   */\n  swap1\n  pop\n    /* \"#utility.yul\":810:951   */\n  swap2\n  swap1\n  pop\n  jump\t// out\n    /* \"#utility.yul\":957:1050   */\ntag_24:\n    /* \"#utility.yul\":994:1000   */\n  0x00\n    /* \"#utility.yul\":1041:1043   */\n  0x20\n    /* \"#utility.yul\":1036:1038   */\n  0x1f\n    /* \"#utility.yul\":1029:1034   */\n  dup4\n    /* \"#utility.yul\":1025:1039   */\n  add\n    /* \"#utility.yul\":1021:1044   */\n  div\n    /* \"#utility.yul\":1011:1044   */\n  swap1\n  pop\n    /* \"#utility.yul\":957:1050   */\n  swap2\n  swap1\n  pop\n  jump\t// out\n    /* \"#utility.yul\":1056:1163   */\ntag_25:\n    /* \"#utility.yul\":1100:1108   */\n  0x00\n    /* \"#utility.yul\":1150:1155   */\n  dup3\n    /* \"#utility.yul\":1144:1148   */\n  dup3\n    /* \"#utility.yul\":1140:1156   */\n  shl\n    /* \"#utility.yul\":1119:1156   */\n  swap1\n  pop\n    /* \"#utility.yul\":1056:1163   */\n  swap3\n  swap2\n  pop\n  pop\n  jump\t// out\n    /* \"#utility.yul\":1169:1562   */\ntag_26:\n    /* \"#utility.yul\":1238:1244   */\n  0x00\n    /* \"#utility.yul\":1288:1289   */\n  0x08\n    /* \"#utility.yul\":1276:1286   */\n  dup4\n    /* \"#utility.yul\":1272:1290   */\n  mul\n    /* \"#utility.yul\":1311:1408   */\n  tag_57\n    /* \"#utility.yul\":1341:1407   */\n  0xffffffffffffffffffffffffffffffffffffffffffffffffffffffffffffffff\n    /* \"#utility.yul\":1330:1339   */\n  dup3\n    /* \"#utility.yul\":1311:1408   */\n  tag_25\n  jump\t// in\ntag_57:\n    /* \"#utility.yul\":1429:1468   */\n  tag_58\n    /* \"#utility.yul\":1459:1467   */\n  dup7\n    /* \"#utility.yul\":1448:1457   */\n  dup4\n    /* \"#utility.yul\":1429:1468   */\n  tag_25\n  jump\t// in\ntag_58:\n    /* \"#utility.yul\":1417:1468   */\n  swap6\n  pop\n    /* \"#utility.yul\":1501:1505   */\n  dup1\n    /* \"#utility.yul\":1497:1506   */\n  not\n    /* \"#utility.yul\":1490:1495   */\n  dup5\n    /* \"#utility.yul\":1486:1507   */\n  and\n    /* \"#utility.yul\":1477:1507   */\n  swap4\n  pop\n    /* \"#utility.yul\":1550:1554   */\n  dup1\n    /* \"#utility.yul\":1540:1548   */\n  dup7\n    /* \"#utility.yul\":1536:1555   */\n  and\n    /* \"#utility.yul\":1529:1534   */\n  dup5\n    /* \"#utility.yul\":1526:1556   */\n  or\n    /* \"#utility.yul\":1516:1556   */\n  swap3\n  pop\n    /* \"#utility.yul\":1245:1562   */\n  pop\n  pop\n    /* \"#utility.yul\":1169:1562   */\n  swap4\n  swap3\n  pop\n  pop\n  pop\n  jump\t// out\n    /* \"#utility.yul\":1568:1645   */\ntag_27:\n    /* \"#utility.yul\":1605:1612   */\n  0x00\n    /* \"#utility.yul\":1634:1639   */\n  dup2\n    /* \"#utility.yul\":1623:1639   */\n  swap1\n  pop\n    /* \"#utility.yul\":1568:1645   */\n  swap2\n  swap1\n  pop\n  jump\t// out\n    /* \"#utility.yul\":1651:1711   */\ntag_28:\n    /* \"#utility.yul\":1679:1682   */\n  0x00\n    /* \"#utility.yul\":1700:1705   */\n  dup2\n    /* \"#utility.yul\":1693:1705   */\n  swap1\n  pop\n    /* \"#utility.yul\":1651:1711   */\n  swap2\n  swap1\n  pop\n  jump\t// out\n    /* \"#utility.yul\":1717:1859   */\ntag_29:\n    /* \"#utility.yul\":1767:1776   */\n  0x00\n    /* \"#utility.yul\":1800:1853   */\n  tag_62\n    /* \"#utility.yul\":1818:1852   */\n  tag_63\n    /* \"#utility.yul\":1827:1851   */\n  tag_64\n    /* \"#utility.yul\":1845:1850   */\n  dup5\n    /* \"#utility.yul\":1827:1851   */\n  tag_27\n  jump\t// in\ntag_64:\n    /* \"#utility.yul\":1818:1852   */\n  tag_28\n  jump\t// in\ntag_63:\n    /* \"#utility.yul\":1800:1853   */\n  tag_27\n  jump\t// in\ntag_62:\n    /* \"#utility.yul\":1787:1853   */\n  swap1\n  pop\n    /* \"#utility.yul\":1717:1859   */\n  swap2\n  swap1\n  pop\n  jump\t// out\n    /* \"#utility.yul\":1865:1940   */\ntag_30:\n    /* \"#utility.yul\":1908:1911   */\n  0x00\n    /* \"#utility.yul\":1929:1934   */\n  dup2\n    /* \"#utility.yul\":1922:1934   */\n  swap1\n  pop\n    /* \"#utility.yul\":1865:1940   */\n  swap2\n  swap1\n  pop\n  jump\t// out\n    /* \"#utility.yul\":1946:2215   */\ntag_31:\n    /* \"#utility.yul\":2056:2095   */\n  tag_67\n    /* \"#utility.yul\":2087:2094   */\n  dup4\n    /* \"#utility.yul\":2056:2095   */\n  tag_29\n  jump\t// in\ntag_67:\n    /* \"#utility.yul\":2117:2208   */\n  tag_68\n    /* \"#utility.yul\":2166:2207   */\n  tag_69\n    /* \"#utility.yul\":2190:2206   */\n  dup3\n    /* \"#utility.yul\":2166:2207   */\n  tag_30\n  jump\t// in\ntag_69:\n    /* \"#utility.yul\":2158:2164   */\n  dup5\n    /* \"#utility.yul\":2151:2155   */\n  dup5\n    /* \"#utility.yul\":2145:2156   */\n  sload\n    /* \"#utility.yul\":2117:2208   */\n  tag_26\n  jump\t// in\ntag_68:\n    /* \"#utility.yul\":2111:2115   */\n  dup3\n    /* \"#utility.yul\":2104:2209   */\n  sstore\n    /* \"#utility.yul\":2022:2215   */\n  pop\n    /* \"#utility.yul\":1946:2215   */\n  pop\n  pop\n  pop\n  jump\t// out\n    /* \"#utility.yul\":2221:2294   */\ntag_32:\n    /* \"#utility.yul\":2266:2269   */\n  0x00\n    /* \"#utility.yul\":2221:2294   */\n  swap1\n  jump\t// out\n    /* \"#utility.yul\":2300:2489   */\ntag_33:\n    /* \"#utility.yul\":2377:2409   */\n  tag_72\n  tag_32\n  jump\t// in\ntag_72:\n    /* \"#utility.yul\":2418:2483   */\n  tag_73\n    /* \"#utility.yul\":2476:2482   */\n  dup2\n    /* \"#utility.yul\":2468:2474   */\n  dup5\n    /* \"#utility.yul\":2462:2466   */\n  dup5\n    /* \"#utility.yul\":2418:2483   */\n  tag_31\n  jump\t// in\ntag_73:\n    /* \"#utility.yul\":2353:2489   */\n  pop\n    /* \"#utility.yul\":2300:2489   */\n  pop\n  pop\n  jump\t// out\n    /* \"#utility.yul\":2495:2681   */\ntag_34:\n    /* \"#utility.yul\":2555:2675   */\ntag_75:\n    /* \"#utility.yul\":2572:2575   */\n  dup2\n    /* \"#utility.yul\":2565:2570   */\n  dup2\n    /* \"#utility.yul\":2562:2576   */\n  lt\n    /* \"#utility.yul\":2555:2675   */\n  iszero\n  tag_77\n  jumpi\n    /* \"#utility.yul\":2626:2665   */\n  tag_78\n    /* \"#utility.yul\":2663:2664   */\n  0x00\n    /* \"#utility.yul\":2656:2661   */\n  dup3\n    /* \"#utility.yul\":2626:2665   */\n  tag_33\n  jump\t// in\ntag_78:\n    /* \"#utility.yul\":2599:2600   */\n  0x01\n    /* \"#utility.yul\":2592:2597   */\n  dup2\n    /* \"#utility.yul\":2588:2601   */\n  add\n    /* \"#utility.yul\":2579:2601   */\n  swap1\n  pop\n    /* \"#utility.yul\":2555:2675   */\n  jump(tag_75)\ntag_77:\n    /* \"#utility.yul\":2495:2681   */\n  pop\n  pop\n  jump\t// out\n    /* \"#utility.yul\":2687:3230   */\ntag_35:\n    /* \"#utility.yul\":2788:2790   */\n  0x1f\n    /* \"#utility.yul\":2783:2786   */\n  dup3\n    /* \"#utility.yul\":2780:2791   */\n  gt\n    /* \"#utility.yul\":2777:3223   */\n  iszero\n  tag_80\n  jumpi\n    /* \"#utility.yul\":2822:2860   */\n  tag_81\n    /* \"#utility.yul\":2854:2859   */\n  dup2\n    /* \"#utility.yul\":2822:2860   */\n  tag_23\n  jump\t// in\ntag_81:\n    /* \"#utility.yul\":2906:2935   */\n  tag_82\n    /* \"#utility.yul\":2924:2934   */\n  dup5\n    /* \"#utility.yul\":2906:2935   */\n  tag_24\n  jump\t// in\ntag_82:\n    /* \"#utility.yul\":2896:2904   */\n  dup2\n    /* \"#utility.yul\":2892:2936   */\n  add\n    /* \"#utility.yul\":3089:3091   */\n  0x20\n    /* \"#utility.yul\":3077:3087   */\n  dup6\n    /* \"#utility.yul\":3074:3092   */\n  lt\n    /* \"#utility.yul\":3071:3120   */\n  iszero\n  tag_83\n  jumpi\n    /* \"#utility.yul\":3110:3118   */\n  dup2\n    /* \"#utility.yul\":3095:3118   */\n  swap1\n  pop\n    /* \"#utility.yul\":3071:3120   */\ntag_83:\n    /* \"#utility.yul\":3133:3213   */\n  tag_84\n    /* \"#utility.yul\":3189:3211   */\n  tag_85\n    /* \"#utility.yul\":3207:3210   */\n  dup6\n    /* \"#utility.yul\":3189:3211   */\n  tag_24\n  jump\t// in\ntag_85:\n    /* \"#utility.yul\":3179:3187   */\n  dup4\n    /* \"#utility.yul\":3175:3212   */\n  add\n    /* \"#utility.yul\":3162:3173   */\n  dup3\n    /* \"#utility.yul\":3133:3213   */\n  tag_34\n  jump\t// in\ntag_84:\n    /* \"#utility.yul\":2792:3223   */\n  pop\n  pop\n    /* \"#utility.yul\":2777:3223   */\ntag_80:\n    /* \"#utility.yul\":2687:3230   */\n  pop\n  pop\n  pop\n  jump\t// out\n    /* \"#utility.yul\":3236:3353   */\ntag_36:\n    /* \"#utility.yul\":3290:3298   */\n  0x00\n    /* \"#utility.yul\":3340:3345   */\n  dup3\n    /* \"#utility.yul\":3334:3338   */\n  dup3\n    /* \"#utility.yul\":3330:3346   */\n  shr\n    /* \"#utility.yul\":3309:3346   */\n  swap1\n  pop\n    /* \"#utility.yul\":3236:3353   */\n  swap3\n  swap2\n  pop\n  pop\n  jump\t// out\n    /* \"#utility.yul\":3359:3528   */\ntag_37:\n    /* \"#utility.yul\":3403:3409   */\n  0x00\n    /* \"#utility.yul\":3436:3487   */\n  tag_88\n    /* \"#utility.yul\":3484:3485   */\n  0x00\n    /* \"#utility.yul\":3480:3486   */\n  not\n    /* \"#utility.yul\":3472:3477   */\n  dup5\n    /* \"#utility.yul\":3469:3470   */\n  0x08\n    /* \"#utility.yul\":3465:3478   */\n  mul\n    /* \"#utility.yul\":3436:3487   */\n  tag_36\n  jump\t// in\ntag_88:\n    /* \"#utility.yul\":3432:3488   */\n  not\n    /* \"#utility.yul\":3517:3521   */\n  dup1\n    /* \"#utility.yul\":3511:3515   */\n  dup4\n    /* \"#utility.yul\":3507:3522   */\n  and\n    /* \"#utility.yul\":3497:3522   */\n  swap2\n  pop\n    /* \"#utility.yul\":3410:3528   */\n  pop\n    /* \"#utility.yul\":3359:3528   */\n  swap3\n  swap2\n  pop\n  pop\n  jump\t// out\n    /* \"#utility.yul\":3533:3828   */\ntag_38:\n    /* \"#utility.yul\":3609:3613   */\n  0x00\n    /* \"#utility.yul\":3755:3784   */\n  tag_90\n    /* \"#utility.yul\":3780:3783   */\n  dup4\n    /* \"#utility.yul\":3774:3778   */\n  dup4\n    /* \"#utility.yul\":3755:3784   */\n  tag_37\n  jump\t// in\ntag_90:\n    /* \"#utility.yul\":3747:3784   */\n  swap2\n  pop\n    /* \"#utility.yul\":3817:3820   */\n  dup3\n    /* \"#utility.yul\":3814:3815   */\n  0x02\n    /* \"#utility.yul\":3810:3821   */\n  mul\n    /* \"#utility.yul\":3804:3808   */\n  dup3\n    /* \"#utility.yul\":3801:3822   */\n  or\n    /* \"#utility.yul\":3793:3822   */\n  swap1\n  pop\n    /* \"#utility.yul\":3533:3828   */\n  swap3\n  swap2\n  pop\n  pop\n  jump\t// out\n    /* \"#utility.yul\":3833:5228   */\ntag_8:\n    /* \"#utility.yul\":3950:3987   */\n  tag_92\n    /* \"#utility.yul\":3983:3986   */\n  dup3\n    /* \"#utility.yul\":3950:3987   */\n  tag_19\n  jump\t// in\ntag_92:\n    /* \"#utility.yul\":4052:4070   */\n  0xffffffffffffffff\n    /* \"#utility.yul\":4044:4050   */\n  dup2\n    /* \"#utility.yul\":4041:4071   */\n  gt\n    /* \"#utility.yul\":4038:4094   */\n  iszero\n  tag_93\n  jumpi\n    /* \"#utility.yul\":4074:4092   */\n  tag_94\n  tag_20\n  jump\t// in\ntag_94:\n    /* \"#utility.yul\":4038:4094   */\ntag_93:\n    /* \"#utility.yul\":4118:4156   */\n  tag_95\n    /* \"#utility.yul\":4150:4154   */\n  dup3\n    /* \"#utility.yul\":4144:4155   */\n  sload\n    /* \"#utility.yul\":4118:4156   */\n  tag_22\n  jump\t// in\ntag_95:\n    /* \"#utility.yul\":4203:4270   */\n  tag_96\n    /* \"#utility.yul\":4263:4269   */\n  dup3\n    /* \"#utility.yul\":4255:4261   */\n  dup3\n    /* \"#utility.yul\":4249:4253   */\n  dup6\n    /* \"#utility.yul\":4203:4270   */\n  tag_35\n  jump\t// in\ntag_96:\n    /* \"#utility.yul\":4297:4298   */\n  0x00\n    /* \"#utility.yul\":4321:4325   */\n  0x20\n    /* \"#utility.yul\":4308:4325   */\n  swap1\n  pop\n    /* \"#utility.yul\":4353:4355   */\n  0x1f\n    /* \"#utility.yul\":4345:4351   */\n  dup4\n    /* \"#utility.yul\":4342:4356   */\n  gt\n    /* \"#utility.yul\":4370:4371   */\n  0x01\n    /* \"#utility.yul\":4365:4983   */\n  dup2\n  eq\n  tag_98\n  jumpi\n    /* \"#utility.yul\":5027:5028   */\n  0x00\n    /* \"#utility.yul\":5044:5050   */\n  dup5\n    /* \"#utility.yul\":5041:5118   */\n  iszero\n  tag_99\n  jumpi\n    /* \"#utility.yul\":5093:5102   */\n  dup3\n    /* \"#utility.yul\":5088:5091   */\n  dup8\n    /* \"#utility.yul\":5084:5103   */\n  add\n    /* \"#utility.yul\":5078:5104   */\n  mload\n    /* \"#utility.yul\":5069:5104   */\n  swap1\n  pop\n    /* \"#utility.yul\":5041:5118   */\ntag_99:\n    /* \"#utility.yul\":5144:5211   */\n  tag_100\n    /* \"#utility.yul\":5204:5210   */\n  dup6\n    /* \"#utility.yul\":5197:5202   */\n  dup3\n    /* \"#utility.yul\":5144:5211   */\n  tag_38\n  jump\t// in\ntag_100:\n    /* \"#utility.yul\":5138:5142   */\n  dup7\n    /* \"#utility.yul\":5131:5212   */\n  sstore\n    /* \"#utility.yul\":5000:5222   */\n  pop\n    /* \"#utility.yul\":4335:5222   */\n  jump(tag_97)\n    /* \"#utility.yul\":4365:4983   */\ntag_98:\n    /* \"#utility.yul\":4417:4421   */\n  0x1f\n    /* \"#utility.yul\":4413:4422   */\n  not\n    /* \"#utility.yul\":4405:4411   */\n  dup5\n    /* \"#utility.yul\":4401:4423   */\n  and\n    /* \"#utility.yul\":4451:4488   */\n  tag_101\n    /* \"#utility.yul\":4483:4487   */\n  dup7\n    /* \"#utility.yul\":4451:4488   */\n  tag_23\n  jump\t// in\ntag_101:\n    /* \"#utility.yul\":4510:4511   */\n  0x00\n    /* \"#utility.yul\":4524:4732   */\ntag_102:\n    /* \"#utility.yul\":4538:4545   */\n  dup3\n    /* \"#utility.yul\":4535:4536   */\n  dup2\n    /* \"#utility.yul\":4532:4546   */\n  lt\n    /* \"#utility.yul\":4524:4732   */\n  iszero\n  tag_104\n  jumpi\n    /* \"#utility.yul\":4617:4626   */\n  dup5\n    /* \"#utility.yul\":4612:4615   */\n  dup10\n    /* \"#utility.yul\":4608:4627   */\n  add\n    /* \"#utility.yul\":4602:4628   */\n  mload\n    /* \"#utility.yul\":4594:4600   */\n  dup3\n    /* \"#utility.yul\":4587:4629   */\n  sstore\n    /* \"#utility.yul\":4668:4669   */\n  0x01\n    /* \"#utility.yul\":4660:4666   */\n  dup3\n    /* \"#utility.yul\":4656:4670   */\n  add\n    /* \"#utility.yul\":4646:4670   */\n  swap2\n  pop\n    /* \"#utility.yul\":4715:4717   */\n  0x20\n    /* \"#utility.yul\":4704:4713   */\n  dup6\n    /* \"#utility.yul\":4700:4718   */\n  add\n    /* \"#utility.yul\":4687:4718   */\n  swap5\n  pop\n    /* \"#utility.yul\":4561:4565   */\n  0x20\n    /* \"#utility.yul\":4558:4559   */\n  dup2\n    /* \"#utility.yul\":4554:4566   */\n  add\n    /* \"#utility.yul\":4549:4566   */\n  swap1\n  pop\n    /* \"#utility.yul\":4524:4732   */\n  jump(tag_102)\ntag_104:\n    /* \"#utility.yul\":4760:4766   */\n  dup7\n    /* \"#utility.yul\":4751:4758   */\n  dup4\n    /* \"#utility.yul\":4748:4767   */\n  lt\n    /* \"#utility.yul\":4745:4924   */\n  iszero\n  tag_105\n  jumpi\n    /* \"#utility.yul\":4818:4827   */\n  dup5\n    /* \"#utility.yul\":4813:4816   */\n  dup10\n    /* \"#utility.yul\":4809:4828   */\n  add\n    /* \"#utility.yul\":4803:4829   */\n  mload\n    /* \"#utility.yul\":4861:4909   */\n  tag_106\n    /* \"#utility.yul\":4903:4907   */\n  0x1f\n    /* \"#utility.yul\":4895:4901   */\n  dup10\n    /* \"#utility.yul\":4891:4908   */\n  and\n    /* \"#utility.yul\":4880:4889   */\n  dup3\n    /* \"#utility.yul\":4861:4909   */\n  tag_37\n  jump\t// in\ntag_106:\n    /* \"#utility.yul\":4853:4859   */\n  dup4\n    /* \"#utility.yul\":4846:4910   */\n  sstore\n    /* \"#utility.yul\":4768:4924   */\n  pop\n    /* \"#utility.yul\":4745:4924   */\ntag_105:\n    /* \"#utility.yul\":4970:4971   */\n  0x01\n    /* \"#utility.yul\":4966:4967   */\n  0x02\n    /* \"#utility.yul\":4958:4964   */\n  dup9\n    /* \"#utility.yul\":4954:4968   */\n  mul\n    /* \"#utility.yul\":4950:4972   */\n  add\n    /* \"#utility.yul\":4944:4948   */\n  dup9\n    /* \"#utility.yul\":4937:4973   */\n  sstore\n    /* \"#utility.yul\":4372:4983   */\n  pop\n  pop\n  pop\n    /* \"#utility.yul\":4335:5222   */\ntag_97:\n  pop\n    /* \"#utility.yul\":3925:5228   */\n  pop\n  pop\n  pop\n    /* \"#utility.yul\":3833:5228   */\n  pop\n  pop\n  jump\t// out\n    /* \"#utility.yul\":5234:5311   */\ntag_39:\n    /* \"#utility.yul\":5271:5278   */\n  0x00\n    /* \"#utility.yul\":5300:5305   */\n  dup2\n    /* \"#utility.yul\":5289:5305   */\n  swap1\n  pop\n    /* \"#utility.yul\":5234:5311   */\n  swap2\n  swap1\n  pop\n  jump\t// out\n    /* \"#utility.yul\":5317:5435   */\ntag_40:\n    /* \"#utility.yul\":5404:5428   */\n  tag_109\n    /* \"#utility.yul\":5422:5427   */\n  dup2\n    /* \"#utility.yul\":5404:5428   */\n  tag_39\n  jump\t// in\ntag_109:\n    /* \"#utility.yul\":5399:5402   */\n  dup3\n    /* \"#utility.yul\":5392:5429   */\n  mstore\n    /* \"#utility.yul\":5317:5435   */\n  pop\n  pop\n  jump\t// out\n    /* \"#utility.yul\":5441:5559   */\ntag_41:\n    /* \"#utility.yul\":5528:5552   */\n  tag_111\n    /* \"#utility.yul\":5546:5551   */\n  dup2\n    /* \"#utility.yul\":5528:5552   */\n  tag_27\n  jump\t// in\ntag_111:\n    /* \"#utility.yul\":5523:5526   */\n  dup3\n    /* \"#utility.yul\":5516:5553   */\n  mstore\n    /* \"#utility.yul\":5441:5559   */\n  pop\n  pop\n  jump\t// out\n    /* \"#utility.yul\":5565:5691   */\ntag_42:\n    /* \"#utility.yul\":5602:5609   */\n  0x00\n    /* \"#utility.yul\":5642:5684   */\n  0xffffffffffffffffffffffffffffffffffffffff\n    /* \"#utility.yul\":5635:5640   */\n  dup3\n    /* \"#utility.yul\":5631:5685   */\n  and\n    /* \"#utility.yul\":5620:5685   */\n  swap1\n  pop\n    /* \"#utility.yul\":5565:5691   */\n  swap2\n  swap1\n  pop\n  jump\t// out\n    /* \"#utility.yul\":5697:5793   */\ntag_43:\n    /* \"#utility.yul\":5734:5741   */\n  0x00\n    /* \"#utility.yul\":5763:5787   */\n  tag_114\n    /* \"#utility.yul\":5781:5786   */\n  dup3\n    /* \"#utility.yul\":5763:5787   */\n  tag_42\n  jump\t// in\ntag_114:\n    /* \"#utility.yul\":5752:5787   */\n  swap1\n  pop\n    /* \"#utility.yul\":5697:5793   */\n  swap2\n  swap1\n  pop\n  jump\t// out\n    /* \"#utility.yul\":5799:5917   */\ntag_44:\n    /* \"#utility.yul\":5886:5910   */\n  tag_116\n    /* \"#utility.yul\":5904:5909   */\n  dup2\n    /* \"#utility.yul\":5886:5910   */\n  tag_43\n  jump\t// in\ntag_116:\n    /* \"#utility.yul\":5881:5884   */\n  dup3\n    /* \"#utility.yul\":5874:5911   */\n  mstore\n    /* \"#utility.yul\":5799:5917   */\n  pop\n  pop\n  jump\t// out\n    /* \"#utility.yul\":5923:6587   */\ntag_18:\n    /* \"#utility.yul\":6128:6132   */\n  0x00\n    /* \"#utility.yul\":6166:6169   */\n  0xa0\n    /* \"#utility.yul\":6155:6164   */\n  dup3\n    /* \"#utility.yul\":6151:6170   */\n  add\n    /* \"#utility.yul\":6143:6170   */\n  swap1\n  pop\n    /* \"#utility.yul\":6180:6251   */\n  tag_118\n    /* \"#utility.yul\":6248:6249   */\n  0x00\n    /* \"#utility.yul\":6237:6246   */\n  dup4\n    /* \"#utility.yul\":6233:6250   */\n  add\n    /* \"#utility.yul\":6224:6230   */\n  dup9\n    /* \"#utility.yul\":6180:6251   */\n  tag_40\n  jump\t// in\ntag_118:\n    /* \"#utility.yul\":6261:6333   */\n  tag_119\n    /* \"#utility.yul\":6329:6331   */\n  0x20\n    /* \"#utility.yul\":6318:6327   */\n  dup4\n    /* \"#utility.yul\":6314:6332   */\n  add\n    /* \"#utility.yul\":6305:6311   */\n  dup8\n    /* \"#utility.yul\":6261:6333   */\n  tag_40\n  jump\t// in\ntag_119:\n    /* \"#utility.yul\":6343:6415   */\n  tag_120\n    /* \"#utility.yul\":6411:6413   */\n  0x40\n    /* \"#utility.yul\":6400:6409   */\n  dup4\n    /* \"#utility.yul\":6396:6414   */\n  add\n    /* \"#utility.yul\":6387:6393   */\n  dup7\n    /* \"#utility.yul\":6343:6415   */\n  tag_40\n  jump\t// in\ntag_120:\n    /* \"#utility.yul\":6425:6497   */\n  tag_121\n    /* \"#utility.yul\":6493:6495   */\n  0x60\n    /* \"#utility.yul\":6482:6491   */\n  dup4\n    /* \"#utility.yul\":6478:6496   */\n  add\n    /* \"#utility.yul\":6469:6475   */\n  dup6\n    /* \"#utility.yul\":6425:6497   */\n  tag_41\n  jump\t// in\ntag_121:\n    /* \"#utility.yul\":6507:6580   */\n  tag_122\n    /* \"#utility.yul\":6575:6578   */\n  0x80\n    /* \"#utility.yul\":6564:6573   */\n  dup4\n    /* \"#utility.yul\":6560:6579   */\n  add\n    /* \"#utility.yul\":6551:6557   */\n  dup5\n    /* \"#utility.yul\":6507:6580   */\n  tag_44\n  jump\t// in\ntag_122:\n    /* \"#utility.yul\":5923:6587   */\n  swap7\n  swap6\n  pop\n  pop\n  pop\n  pop\n  pop\n  pop\n  jump\t// out\n    /* \"Contracts/ERC20Permit.sol\":205:501  contract MyToken is ERC20, ERC20Permit {... */\ntag_15:\n  mload(0x80)\n  mload(0xa0)\n  mload(0xc0)\n  mload(0xe0)\n  mload(0x0100)\n  mload(0x0120)\n  codecopy(0x00, dataOffset(sub_0), dataSize(sub_0))\n  0x00\n  assignImmutable(\"0xbb18ebaa1cddf829bcac2337ea2baf9a257d86fba8ce2baebe40d33d4470291e\")\n  0x00\n  assignImmutable(\"0x3ab4fb69c8e122442af87ae588015f836e7cde3029bbb6dab1983bc840231d63\")\n  0x00\n  assignImmutable(\"0x4f4ac30ff8bfcef8cd1068d1427faf7fb52fa3a1610b1f430e1f69a91ebb9673\")\n  0x00\n  assignImmutable(\"0x029f4bc6ebbac7821b38f11e82c50ce2b63772f63b6ad2c35af4c148b2c4bad3\")\n  0x00\n  assignImmutable(\"0x79ede0e1d4663a040c0927e7555c0aa914d60646b0bd94798f4654567b709b95\")\n  0x00\n  assignImmutable(\"0x287b91f0b101ece3728dd9f02ea2865cf4f06b72e55fc122f67e14412d5d078c\")\n  return(0x00, dataSize(sub_0))\nstop\n\nsub_0: assembly {\n        /* \"Contracts/ERC20Permit.sol\":205:501  contract MyToken is ERC20, ERC20Permit {... */\n      mstore(0x40, 0x80)\n      callvalue\n      dup1\n      iszero\n      tag_1\n      jumpi\n      0x00\n      dup1\n      revert\n    tag_1:\n      pop\n      jumpi(tag_2, lt(calldatasize, 0x04))\n      shr(0xe0, calldataload(0x00))\n      dup1\n      0x40c10f19\n      gt\n      tag_18\n      jumpi\n      dup1\n      0xa457c2d7\n      gt\n      tag_19\n      jumpi\n      dup1\n      0xa457c2d7\n      eq\n      tag_14\n      jumpi\n      dup1\n      0xa9059cbb\n      eq\n      tag_15\n      jumpi\n      dup1\n      0xd505accf\n      eq\n      tag_16\n      jumpi\n      dup1\n      0xdd62ed3e\n      eq\n      tag_17\n      jumpi\n      jump(tag_2)\n    tag_19:\n      dup1\n      0x40c10f19\n      eq\n      tag_10\n      jumpi\n      dup1\n      0x70a08231\n      eq\n      tag_11\n      jumpi\n      dup1\n      0x7ecebe00\n      eq\n      tag_12\n      jumpi\n      dup1\n      0x95d89b41\n      eq\n      tag_13\n      jumpi\n      jump(tag_2)\n    tag_18:\n      dup1\n      0x23b872dd\n      gt\n      tag_20\n      jumpi\n      dup1\n      0x23b872dd\n      eq\n      tag_6\n      jumpi\n      dup1\n      0x313ce567\n      eq\n      tag_7\n      jumpi\n      dup1\n      0x3644e515\n      eq\n      tag_8\n      jumpi\n      dup1\n      0x39509351\n      eq\n      tag_9\n      jumpi\n      jump(tag_2)\n    tag_20:\n      dup1\n      0x06fdde03\n      eq\n      tag_3\n      jumpi\n      dup1\n      0x095ea7b3\n      eq\n      tag_4\n      jumpi\n      dup1\n      0x18160ddd\n      eq\n      tag_5\n      jumpi\n    tag_2:\n      0x00\n      dup1\n      revert\n        /* \"@openzeppelin/contracts@4.7.3/token/ERC20/ERC20.sol\":2156:2254  function name() public view virtual override returns (string memory) {... */\n    tag_3:\n      tag_21\n      tag_22\n      jump\t// in\n    tag_21:\n      mload(0x40)\n      tag_23\n      swap2\n      swap1\n      tag_24\n      jump\t// in\n    tag_23:\n      mload(0x40)\n      dup1\n      swap2\n      sub\n      swap1\n      return\n        /* \"@openzeppelin/contracts@4.7.3/token/ERC20/ERC20.sol\":4433:4630  function approve(address spender, uint256 amount) public virtual override returns (bool) {... */\n    tag_4:\n      tag_25\n      0x04\n      dup1\n      calldatasize\n      sub\n      dup2\n      add\n      swap1\n      tag_26\n      swap2\n      swap1\n      tag_27\n      jump\t// in\n    tag_26:\n      tag_28\n      jump\t// in\n    tag_25:\n      mload(0x40)\n      tag_29\n      swap2\n      swap1\n      tag_30\n      jump\t// in\n    tag_29:\n      mload(0x40)\n      dup1\n      swap2\n      sub\n      swap1\n      return\n        /* \"@openzeppelin/contracts@4.7.3/token/ERC20/ERC20.sol\":3244:3350  function totalSupply() public view virtual override returns (uint256) {... */\n    tag_5:\n      tag_31\n      tag_32\n      jump\t// in\n    tag_31:\n      mload(0x40)\n      tag_33\n      swap2\n      swap1\n      tag_34\n      jump\t// in\n    tag_33:\n      mload(0x40)\n      dup1\n      swap2\n      sub\n      swap1\n      return\n        /* \"@openzeppelin/contracts@4.7.3/token/ERC20/ERC20.sol\":5192:5478  function transferFrom(... */\n    tag_6:\n      tag_35\n      0x04\n      dup1\n      calldatasize\n      sub\n      dup2\n      add\n      swap1\n      tag_36\n      swap2\n      swap1\n      tag_37\n      jump\t// in\n    tag_36:\n      tag_38\n      jump\t// in\n    tag_35:\n      mload(0x40)\n      tag_39\n      swap2\n      swap1\n      tag_30\n      jump\t// in\n    tag_39:\n      mload(0x40)\n      dup1\n      swap2\n      sub\n      swap1\n      return\n        /* \"@openzeppelin/contracts@4.7.3/token/ERC20/ERC20.sol\":3093:3184  function decimals() public view virtual override returns (uint8) {... */\n    tag_7:\n      tag_40\n      tag_41\n      jump\t// in\n    tag_40:\n      mload(0x40)\n      tag_42\n      swap2\n      swap1\n      tag_43\n      jump\t// in\n    tag_42:\n      mload(0x40)\n      dup1\n      swap2\n      sub\n      swap1\n      return\n        /* \"@openzeppelin/contracts@4.7.3/token/ERC20/extensions/draft-ERC20Permit.sol\":2885:2998  function DOMAIN_SEPARATOR() external view override returns (bytes32) {... */\n    tag_8:\n      tag_44\n      tag_45\n      jump\t// in\n    tag_44:\n      mload(0x40)\n      tag_46\n      swap2\n      swap1\n      tag_47\n      jump\t// in\n    tag_46:\n      mload(0x40)\n      dup1\n      swap2\n      sub\n      swap1\n      return\n        /* \"@openzeppelin/contracts@4.7.3/token/ERC20/ERC20.sol\":5873:6107  function increaseAllowance(address spender, uint256 addedValue) public virtual returns (bool) {... */\n    tag_9:\n      tag_48\n      0x04\n      dup1\n      calldatasize\n      sub\n      dup2\n      add\n      swap1\n      tag_49\n      swap2\n      swap1\n      tag_27\n      jump\t// in\n    tag_49:\n      tag_50\n      jump\t// in\n    tag_48:\n      mload(0x40)\n      tag_51\n      swap2\n      swap1\n      tag_30\n      jump\t// in\n    tag_51:\n      mload(0x40)\n      dup1\n      swap2\n      sub\n      swap1\n      return\n        /* \"Contracts/ERC20Permit.sol\":333:416  function mint(address to, uint256 value) external {... */\n    tag_10:\n      tag_52\n      0x04\n      dup1\n      calldatasize\n      sub\n      dup2\n      add\n      swap1\n      tag_53\n      swap2\n      swap1\n      tag_27\n      jump\t// in\n    tag_53:\n      tag_54\n      jump\t// in\n    tag_52:\n      stop\n        /* \"@openzeppelin/contracts@4.7.3/token/ERC20/ERC20.sol\":3408:3533  function balanceOf(address account) public view virtual override returns (uint256) {... */\n    tag_11:\n      tag_55\n      0x04\n      dup1\n      calldatasize\n      sub\n      dup2\n      add\n      swap1\n      tag_56\n      swap2\n      swap1\n      tag_57\n      jump\t// in\n    tag_56:\n      tag_58\n      jump\t// in\n    tag_55:\n      mload(0x40)\n      tag_59\n      swap2\n      swap1\n      tag_34\n      jump\t// in\n    tag_59:\n      mload(0x40)\n      dup1\n      swap2\n      sub\n      swap1\n      return\n        /* \"@openzeppelin/contracts@4.7.3/token/ERC20/extensions/draft-ERC20Permit.sol\":2635:2761  function nonces(address owner) public view virtual override returns (uint256) {... */\n    tag_12:\n      tag_60\n      0x04\n      dup1\n      calldatasize\n      sub\n      dup2\n      add\n      swap1\n      tag_61\n      swap2\n      swap1\n      tag_57\n      jump\t// in\n    tag_61:\n      tag_62\n      jump\t// in\n    tag_60:\n      mload(0x40)\n      tag_63\n      swap2\n      swap1\n      tag_34\n      jump\t// in\n    tag_63:\n      mload(0x40)\n      dup1\n      swap2\n      sub\n      swap1\n      return\n        /* \"@openzeppelin/contracts@4.7.3/token/ERC20/ERC20.sol\":2367:2469  function symbol() public view virtual override returns (string memory) {... */\n    tag_13:\n      tag_64\n      tag_65\n      jump\t// in\n    tag_64:\n      mload(0x40)\n      tag_66\n      swap2\n      swap1\n      tag_24\n      jump\t// in\n    tag_66:\n      mload(0x40)\n      dup1\n      swap2\n      sub\n      swap1\n      return\n        /* \"@openzeppelin/contracts@4.7.3/token/ERC20/ERC20.sol\":6594:7021  function decreaseAllowance(address spender, uint256 subtractedValue) public virtual returns (bool) {... */\n    tag_14:\n      tag_67\n      0x04\n      dup1\n      calldatasize\n      sub\n      dup2\n      add\n      swap1\n      tag_68\n      swap2\n      swap1\n      tag_27\n      jump\t// in\n    tag_68:\n      tag_69\n      jump\t// in\n    tag_67:\n      mload(0x40)\n      tag_70\n      swap2\n      swap1\n      tag_30\n      jump\t// in\n    tag_70:\n      mload(0x40)\n      dup1\n      swap2\n      sub\n      swap1\n      return\n        /* \"@openzeppelin/contracts@4.7.3/token/ERC20/ERC20.sol\":3729:3918  function transfer(address to, uint256 amount) public virtual override returns (bool) {... */\n    tag_15:\n      tag_71\n      0x04\n      dup1\n      calldatasize\n      sub\n      dup2\n      add\n      swap1\n      tag_72\n      swap2\n      swap1\n      tag_27\n      jump\t// in\n    tag_72:\n      tag_73\n      jump\t// in\n    tag_71:\n      mload(0x40)\n      tag_74\n      swap2\n      swap1\n      tag_30\n      jump\t// in\n    tag_74:\n      mload(0x40)\n      dup1\n      swap2\n      sub\n      swap1\n      return\n        /* \"@openzeppelin/contracts@4.7.3/token/ERC20/extensions/draft-ERC20Permit.sol\":1948:2574  function permit(... */\n    tag_16:\n      tag_75\n      0x04\n      dup1\n      calldatasize\n      sub\n      dup2\n      add\n      swap1\n      tag_76\n      swap2\n      swap1\n      tag_77\n      jump\t// in\n    tag_76:\n      tag_78\n      jump\t// in\n    tag_75:\n      stop\n        /* \"@openzeppelin/contracts@4.7.3/token/ERC20/ERC20.sol\":3976:4125  function allowance(address owner, address spender) public view virtual override returns (uint256) {... */\n    tag_17:\n      tag_79\n      0x04\n      dup1\n      calldatasize\n      sub\n      dup2\n      add\n      swap1\n      tag_80\n      swap2\n      swap1\n      tag_81\n      jump\t// in\n    tag_80:\n      tag_82\n      jump\t// in\n    tag_79:\n      mload(0x40)\n      tag_83\n      swap2\n      swap1\n      tag_34\n      jump\t// in\n    tag_83:\n      mload(0x40)\n      dup1\n      swap2\n      sub\n      swap1\n      return\n        /* \"@openzeppelin/contracts@4.7.3/token/ERC20/ERC20.sol\":2156:2254  function name() public view virtual override returns (string memory) {... */\n    tag_22:\n        /* \"@openzeppelin/contracts@4.7.3/token/ERC20/ERC20.sol\":2210:2223  string memory */\n      0x60\n        /* \"@openzeppelin/contracts@4.7.3/token/ERC20/ERC20.sol\":2242:2247  _name */\n      0x03\n        /* \"@openzeppelin/contracts@4.7.3/token/ERC20/ERC20.sol\":2235:2247  return _name */\n      dup1\n      sload\n      tag_85\n      swap1\n      tag_86\n      jump\t// in\n    tag_85:\n      dup1\n      0x1f\n      add\n      0x20\n      dup1\n      swap2\n      div\n      mul\n      0x20\n      add\n      mload(0x40)\n      swap1\n      dup2\n      add\n      0x40\n      mstore\n      dup1\n      swap3\n      swap2\n      swap1\n      dup2\n      dup2\n      mstore\n      0x20\n      add\n      dup3\n      dup1\n      sload\n      tag_87\n      swap1\n      tag_86\n      jump\t// in\n    tag_87:\n      dup1\n      iszero\n      tag_88\n      jumpi\n      dup1\n      0x1f\n      lt\n      tag_89\n      jumpi\n      0x0100\n      dup1\n      dup4\n      sload\n      div\n      mul\n      dup4\n      mstore\n      swap2\n      0x20\n      add\n      swap2\n      jump(tag_88)\n    tag_89:\n      dup3\n      add\n      swap2\n      swap1\n      0x00\n      mstore\n      keccak256(0x00, 0x20)\n      swap1\n    tag_90:\n      dup2\n      sload\n      dup2\n      mstore\n      swap1\n      0x01\n      add\n      swap1\n      0x20\n      add\n      dup1\n      dup4\n      gt\n      tag_90\n      jumpi\n      dup3\n      swap1\n      sub\n      0x1f\n      and\n      dup3\n      add\n      swap2\n    tag_88:\n      pop\n      pop\n      pop\n      pop\n      pop\n      swap1\n      pop\n        /* \"@openzeppelin/contracts@4.7.3/token/ERC20/ERC20.sol\":2156:2254  function name() public view virtual override returns (string memory) {... */\n      swap1\n      jump\t// out\n        /* \"@openzeppelin/contracts@4.7.3/token/ERC20/ERC20.sol\":4433:4630  function approve(address spender, uint256 amount) public virtual override returns (bool) {... */\n    tag_28:\n        /* \"@openzeppelin/contracts@4.7.3/token/ERC20/ERC20.sol\":4516:4520  bool */\n      0x00\n        /* \"@openzeppelin/contracts@4.7.3/token/ERC20/ERC20.sol\":4532:4545  address owner */\n      dup1\n        /* \"@openzeppelin/contracts@4.7.3/token/ERC20/ERC20.sol\":4548:4560  _msgSender() */\n      tag_92\n        /* \"@openzeppelin/contracts@4.7.3/token/ERC20/ERC20.sol\":4548:4558  _msgSender */\n      tag_93\n        /* \"@openzeppelin/contracts@4.7.3/token/ERC20/ERC20.sol\":4548:4560  _msgSender() */\n      jump\t// in\n    tag_92:\n        /* \"@openzeppelin/contracts@4.7.3/token/ERC20/ERC20.sol\":4532:4560  address owner = _msgSender() */\n      swap1\n      pop\n        /* \"@openzeppelin/contracts@4.7.3/token/ERC20/ERC20.sol\":4570:4602  _approve(owner, spender, amount) */\n      tag_94\n        /* \"@openzeppelin/contracts@4.7.3/token/ERC20/ERC20.sol\":4579:4584  owner */\n      dup2\n        /* \"@openzeppelin/contracts@4.7.3/token/ERC20/ERC20.sol\":4586:4593  spender */\n      dup6\n        /* \"@openzeppelin/contracts@4.7.3/token/ERC20/ERC20.sol\":4595:4601  amount */\n      dup6\n        /* \"@openzeppelin/contracts@4.7.3/token/ERC20/ERC20.sol\":4570:4578  _approve */\n      tag_95\n        /* \"@openzeppelin/contracts@4.7.3/token/ERC20/ERC20.sol\":4570:4602  _approve(owner, spender, amount) */\n      jump\t// in\n    tag_94:\n        /* \"@openzeppelin/contracts@4.7.3/token/ERC20/ERC20.sol\":4619:4623  true */\n      0x01\n        /* \"@openzeppelin/contracts@4.7.3/token/ERC20/ERC20.sol\":4612:4623  return true */\n      swap2\n      pop\n      pop\n        /* \"@openzeppelin/contracts@4.7.3/token/ERC20/ERC20.sol\":4433:4630  function approve(address spender, uint256 amount) public virtual override returns (bool) {... */\n      swap3\n      swap2\n      pop\n      pop\n      jump\t// out\n        /* \"@openzeppelin/contracts@4.7.3/token/ERC20/ERC20.sol\":3244:3350  function totalSupply() public view virtual override returns (uint256) {... */\n    tag_32:\n        /* \"@openzeppelin/contracts@4.7.3/token/ERC20/ERC20.sol\":3305:3312  uint256 */\n      0x00\n        /* \"@openzeppelin/contracts@4.7.3/token/ERC20/ERC20.sol\":3331:3343  _totalSupply */\n      sload(0x02)\n        /* \"@openzeppelin/contracts@4.7.3/token/ERC20/ERC20.sol\":3324:3343  return _totalSupply */\n      swap1\n      pop\n        /* \"@openzeppelin/contracts@4.7.3/token/ERC20/ERC20.sol\":3244:3350  function totalSupply() public view virtual override returns (uint256) {... */\n      swap1\n      jump\t// out\n        /* \"@openzeppelin/contracts@4.7.3/token/ERC20/ERC20.sol\":5192:5478  function transferFrom(... */\n    tag_38:\n        /* \"@openzeppelin/contracts@4.7.3/token/ERC20/ERC20.sol\":5319:5323  bool */\n      0x00\n        /* \"@openzeppelin/contracts@4.7.3/token/ERC20/ERC20.sol\":5335:5350  address spender */\n      dup1\n        /* \"@openzeppelin/contracts@4.7.3/token/ERC20/ERC20.sol\":5353:5365  _msgSender() */\n      tag_98\n        /* \"@openzeppelin/contracts@4.7.3/token/ERC20/ERC20.sol\":5353:5363  _msgSender */\n      tag_93\n        /* \"@openzeppelin/contracts@4.7.3/token/ERC20/ERC20.sol\":5353:5365  _msgSender() */\n      jump\t// in\n    tag_98:\n        /* \"@openzeppelin/contracts@4.7.3/token/ERC20/ERC20.sol\":5335:5365  address spender = _msgSender() */\n      swap1\n      pop\n        /* \"@openzeppelin/contracts@4.7.3/token/ERC20/ERC20.sol\":5375:5413  _spendAllowance(from, spender, amount) */\n      tag_99\n        /* \"@openzeppelin/contracts@4.7.3/token/ERC20/ERC20.sol\":5391:5395  from */\n      dup6\n        /* \"@openzeppelin/contracts@4.7.3/token/ERC20/ERC20.sol\":5397:5404  spender */\n      dup3\n        /* \"@openzeppelin/contracts@4.7.3/token/ERC20/ERC20.sol\":5406:5412  amount */\n      dup6\n        /* \"@openzeppelin/contracts@4.7.3/token/ERC20/ERC20.sol\":5375:5390  _spendAllowance */\n      tag_100\n        /* \"@openzeppelin/contracts@4.7.3/token/ERC20/ERC20.sol\":5375:5413  _spendAllowance(from, spender, amount) */\n      jump\t// in\n    tag_99:\n        /* \"@openzeppelin/contracts@4.7.3/token/ERC20/ERC20.sol\":5423:5450  _transfer(from, to, amount) */\n      tag_101\n        /* \"@openzeppelin/contracts@4.7.3/token/ERC20/ERC20.sol\":5433:5437  from */\n      dup6\n        /* \"@openzeppelin/contracts@4.7.3/token/ERC20/ERC20.sol\":5439:5441  to */\n      dup6\n        /* \"@openzeppelin/contracts@4.7.3/token/ERC20/ERC20.sol\":5443:5449  amount */\n      dup6\n        /* \"@openzeppelin/contracts@4.7.3/token/ERC20/ERC20.sol\":5423:5432  _transfer */\n      tag_102\n        /* \"@openzeppelin/contracts@4.7.3/token/ERC20/ERC20.sol\":5423:5450  _transfer(from, to, amount) */\n      jump\t// in\n    tag_101:\n        /* \"@openzeppelin/contracts@4.7.3/token/ERC20/ERC20.sol\":5467:5471  true */\n      0x01\n        /* \"@openzeppelin/contracts@4.7.3/token/ERC20/ERC20.sol\":5460:5471  return true */\n      swap2\n      pop\n      pop\n        /* \"@openzeppelin/contracts@4.7.3/token/ERC20/ERC20.sol\":5192:5478  function transferFrom(... */\n      swap4\n      swap3\n      pop\n      pop\n      pop\n      jump\t// out\n        /* \"@openzeppelin/contracts@4.7.3/token/ERC20/ERC20.sol\":3093:3184  function decimals() public view virtual override returns (uint8) {... */\n    tag_41:\n        /* \"@openzeppelin/contracts@4.7.3/token/ERC20/ERC20.sol\":3151:3156  uint8 */\n      0x00\n        /* \"@openzeppelin/contracts@4.7.3/token/ERC20/ERC20.sol\":3175:3177  18 */\n      0x12\n        /* \"@openzeppelin/contracts@4.7.3/token/ERC20/ERC20.sol\":3168:3177  return 18 */\n      swap1\n      pop\n        /* \"@openzeppelin/contracts@4.7.3/token/ERC20/ERC20.sol\":3093:3184  function decimals() public view virtual override returns (uint8) {... */\n      swap1\n      jump\t// out\n        /* \"@openzeppelin/contracts@4.7.3/token/ERC20/extensions/draft-ERC20Permit.sol\":2885:2998  function DOMAIN_SEPARATOR() external view override returns (bytes32) {... */\n    tag_45:\n        /* \"@openzeppelin/contracts@4.7.3/token/ERC20/extensions/draft-ERC20Permit.sol\":2945:2952  bytes32 */\n      0x00\n        /* \"@openzeppelin/contracts@4.7.3/token/ERC20/extensions/draft-ERC20Permit.sol\":2971:2991  _domainSeparatorV4() */\n      tag_105\n        /* \"@openzeppelin/contracts@4.7.3/token/ERC20/extensions/draft-ERC20Permit.sol\":2971:2989  _domainSeparatorV4 */\n      tag_106\n        /* \"@openzeppelin/contracts@4.7.3/token/ERC20/extensions/draft-ERC20Permit.sol\":2971:2991  _domainSeparatorV4() */\n      jump\t// in\n    tag_105:\n        /* \"@openzeppelin/contracts@4.7.3/token/ERC20/extensions/draft-ERC20Permit.sol\":2964:2991  return _domainSeparatorV4() */\n      swap1\n      pop\n        /* \"@openzeppelin/contracts@4.7.3/token/ERC20/extensions/draft-ERC20Permit.sol\":2885:2998  function DOMAIN_SEPARATOR() external view override returns (bytes32) {... */\n      swap1\n      jump\t// out\n        /* \"@openzeppelin/contracts@4.7.3/token/ERC20/ERC20.sol\":5873:6107  function increaseAllowance(address spender, uint256 addedValue) public virtual returns (bool) {... */\n    tag_50:\n        /* \"@openzeppelin/contracts@4.7.3/token/ERC20/ERC20.sol\":5961:5965  bool */\n      0x00\n        /* \"@openzeppelin/contracts@4.7.3/token/ERC20/ERC20.sol\":5977:5990  address owner */\n      dup1\n        /* \"@openzeppelin/contracts@4.7.3/token/ERC20/ERC20.sol\":5993:6005  _msgSender() */\n      tag_108\n        /* \"@openzeppelin/contracts@4.7.3/token/ERC20/ERC20.sol\":5993:6003  _msgSender */\n      tag_93\n        /* \"@openzeppelin/contracts@4.7.3/token/ERC20/ERC20.sol\":5993:6005  _msgSender() */\n      jump\t// in\n    tag_108:\n        /* \"@openzeppelin/contracts@4.7.3/token/ERC20/ERC20.sol\":5977:6005  address owner = _msgSender() */\n      swap1\n      pop\n        /* \"@openzeppelin/contracts@4.7.3/token/ERC20/ERC20.sol\":6015:6079  _approve(owner, spender, allowance(owner, spender) + addedValue) */\n      tag_109\n        /* \"@openzeppelin/contracts@4.7.3/token/ERC20/ERC20.sol\":6024:6029  owner */\n      dup2\n        /* \"@openzeppelin/contracts@4.7.3/token/ERC20/ERC20.sol\":6031:6038  spender */\n      dup6\n        /* \"@openzeppelin/contracts@4.7.3/token/ERC20/ERC20.sol\":6068:6078  addedValue */\n      dup6\n        /* \"@openzeppelin/contracts@4.7.3/token/ERC20/ERC20.sol\":6040:6065  allowance(owner, spender) */\n      tag_110\n        /* \"@openzeppelin/contracts@4.7.3/token/ERC20/ERC20.sol\":6050:6055  owner */\n      dup6\n        /* \"@openzeppelin/contracts@4.7.3/token/ERC20/ERC20.sol\":6057:6064  spender */\n      dup10\n        /* \"@openzeppelin/contracts@4.7.3/token/ERC20/ERC20.sol\":6040:6049  allowance */\n      tag_82\n        /* \"@openzeppelin/contracts@4.7.3/token/ERC20/ERC20.sol\":6040:6065  allowance(owner, spender) */\n      jump\t// in\n    tag_110:\n        /* \"@openzeppelin/contracts@4.7.3/token/ERC20/ERC20.sol\":6040:6078  allowance(owner, spender) + addedValue */\n      tag_111\n      swap2\n      swap1\n      tag_112\n      jump\t// in\n    tag_111:\n        /* \"@openzeppelin/contracts@4.7.3/token/ERC20/ERC20.sol\":6015:6023  _approve */\n      tag_95\n        /* \"@openzeppelin/contracts@4.7.3/token/ERC20/ERC20.sol\":6015:6079  _approve(owner, spender, allowance(owner, spender) + addedValue) */\n      jump\t// in\n    tag_109:\n        /* \"@openzeppelin/contracts@4.7.3/token/ERC20/ERC20.sol\":6096:6100  true */\n      0x01\n        /* \"@openzeppelin/contracts@4.7.3/token/ERC20/ERC20.sol\":6089:6100  return true */\n      swap2\n      pop\n      pop\n        /* \"@openzeppelin/contracts@4.7.3/token/ERC20/ERC20.sol\":5873:6107  function increaseAllowance(address spender, uint256 addedValue) public virtual returns (bool) {... */\n      swap3\n      swap2\n      pop\n      pop\n      jump\t// out\n        /* \"Contracts/ERC20Permit.sol\":333:416  function mint(address to, uint256 value) external {... */\n    tag_54:\n        /* \"Contracts/ERC20Permit.sol\":393:409  _mint(to, value) */\n      tag_114\n        /* \"Contracts/ERC20Permit.sol\":399:401  to */\n      dup3\n        /* \"Contracts/ERC20Permit.sol\":403:408  value */\n      dup3\n        /* \"Contracts/ERC20Permit.sol\":393:398  _mint */\n      tag_115\n        /* \"Contracts/ERC20Permit.sol\":393:409  _mint(to, value) */\n      jump\t// in\n    tag_114:\n        /* \"Contracts/ERC20Permit.sol\":333:416  function mint(address to, uint256 value) external {... */\n      pop\n      pop\n      jump\t// out\n        /* \"@openzeppelin/contracts@4.7.3/token/ERC20/ERC20.sol\":3408:3533  function balanceOf(address account) public view virtual override returns (uint256) {... */\n    tag_58:\n        /* \"@openzeppelin/contracts@4.7.3/token/ERC20/ERC20.sol\":3482:3489  uint256 */\n      0x00\n        /* \"@openzeppelin/contracts@4.7.3/token/ERC20/ERC20.sol\":3508:3517  _balances */\n      dup1\n        /* \"@openzeppelin/contracts@4.7.3/token/ERC20/ERC20.sol\":3508:3526  _balances[account] */\n      0x00\n        /* \"@openzeppelin/contracts@4.7.3/token/ERC20/ERC20.sol\":3518:3525  account */\n      dup4\n        /* \"@openzeppelin/contracts@4.7.3/token/ERC20/ERC20.sol\":3508:3526  _balances[account] */\n      0xffffffffffffffffffffffffffffffffffffffff\n      and\n      0xffffffffffffffffffffffffffffffffffffffff\n      and\n      dup2\n      mstore\n      0x20\n      add\n      swap1\n      dup2\n      mstore\n      0x20\n      add\n      0x00\n      keccak256\n      sload\n        /* \"@openzeppelin/contracts@4.7.3/token/ERC20/ERC20.sol\":3501:3526  return _balances[account] */\n      swap1\n      pop\n        /* \"@openzeppelin/contracts@4.7.3/token/ERC20/ERC20.sol\":3408:3533  function balanceOf(address account) public view virtual override returns (uint256) {... */\n      swap2\n      swap1\n      pop\n      jump\t// out\n        /* \"@openzeppelin/contracts@4.7.3/token/ERC20/extensions/draft-ERC20Permit.sol\":2635:2761  function nonces(address owner) public view virtual override returns (uint256) {... */\n    tag_62:\n        /* \"@openzeppelin/contracts@4.7.3/token/ERC20/extensions/draft-ERC20Permit.sol\":2704:2711  uint256 */\n      0x00\n        /* \"@openzeppelin/contracts@4.7.3/token/ERC20/extensions/draft-ERC20Permit.sol\":2730:2754  _nonces[owner].current() */\n      tag_118\n        /* \"@openzeppelin/contracts@4.7.3/token/ERC20/extensions/draft-ERC20Permit.sol\":2730:2737  _nonces */\n      0x05\n        /* \"@openzeppelin/contracts@4.7.3/token/ERC20/extensions/draft-ERC20Permit.sol\":2730:2744  _nonces[owner] */\n      0x00\n        /* \"@openzeppelin/contracts@4.7.3/token/ERC20/extensions/draft-ERC20Permit.sol\":2738:2743  owner */\n      dup5\n        /* \"@openzeppelin/contracts@4.7.3/token/ERC20/extensions/draft-ERC20Permit.sol\":2730:2744  _nonces[owner] */\n      0xffffffffffffffffffffffffffffffffffffffff\n      and\n      0xffffffffffffffffffffffffffffffffffffffff\n      and\n      dup2\n      mstore\n      0x20\n      add\n      swap1\n      dup2\n      mstore\n      0x20\n      add\n      0x00\n      keccak256\n        /* \"@openzeppelin/contracts@4.7.3/token/ERC20/extensions/draft-ERC20Permit.sol\":2730:2752  _nonces[owner].current */\n      tag_119\n        /* \"@openzeppelin/contracts@4.7.3/token/ERC20/extensions/draft-ERC20Permit.sol\":2730:2754  _nonces[owner].current() */\n      jump\t// in\n    tag_118:\n        /* \"@openzeppelin/contracts@4.7.3/token/ERC20/extensions/draft-ERC20Permit.sol\":2723:2754  return _nonces[owner].current() */\n      swap1\n      pop\n        /* \"@openzeppelin/contracts@4.7.3/token/ERC20/extensions/draft-ERC20Permit.sol\":2635:2761  function nonces(address owner) public view virtual override returns (uint256) {... */\n      swap2\n      swap1\n      pop\n      jump\t// out\n        /* \"@openzeppelin/contracts@4.7.3/token/ERC20/ERC20.sol\":2367:2469  function symbol() public view virtual override returns (string memory) {... */\n    tag_65:\n        /* \"@openzeppelin/contracts@4.7.3/token/ERC20/ERC20.sol\":2423:2436  string memory */\n      0x60\n        /* \"@openzeppelin/contracts@4.7.3/token/ERC20/ERC20.sol\":2455:2462  _symbol */\n      0x04\n        /* \"@openzeppelin/contracts@4.7.3/token/ERC20/ERC20.sol\":2448:2462  return _symbol */\n      dup1\n      sload\n      tag_121\n      swap1\n      tag_86\n      jump\t// in\n    tag_121:\n      dup1\n      0x1f\n      add\n      0x20\n      dup1\n      swap2\n      div\n      mul\n      0x20\n      add\n      mload(0x40)\n      swap1\n      dup2\n      add\n      0x40\n      mstore\n      dup1\n      swap3\n      swap2\n      swap1\n      dup2\n      dup2\n      mstore\n      0x20\n      add\n      dup3\n      dup1\n      sload\n      tag_122\n      swap1\n      tag_86\n      jump\t// in\n    tag_122:\n      dup1\n      iszero\n      tag_123\n      jumpi\n      dup1\n      0x1f\n      lt\n      tag_124\n      jumpi\n      0x0100\n      dup1\n      dup4\n      sload\n      div\n      mul\n      dup4\n      mstore\n      swap2\n      0x20\n      add\n      swap2\n      jump(tag_123)\n    tag_124:\n      dup3\n      add\n      swap2\n      swap1\n      0x00\n      mstore\n      keccak256(0x00, 0x20)\n      swap1\n    tag_125:\n      dup2\n      sload\n      dup2\n      mstore\n      swap1\n      0x01\n      add\n      swap1\n      0x20\n      add\n      dup1\n      dup4\n      gt\n      tag_125\n      jumpi\n      dup3\n      swap1\n      sub\n      0x1f\n      and\n      dup3\n      add\n      swap2\n    tag_123:\n      pop\n      pop\n      pop\n      pop\n      pop\n      swap1\n      pop\n        /* \"@openzeppelin/contracts@4.7.3/token/ERC20/ERC20.sol\":2367:2469  function symbol() public view virtual override returns (string memory) {... */\n      swap1\n      jump\t// out\n        /* \"@openzeppelin/contracts@4.7.3/token/ERC20/ERC20.sol\":6594:7021  function decreaseAllowance(address spender, uint256 subtractedValue) public virtual returns (bool) {... */\n    tag_69:\n        /* \"@openzeppelin/contracts@4.7.3/token/ERC20/ERC20.sol\":6687:6691  bool */\n      0x00\n        /* \"@openzeppelin/contracts@4.7.3/token/ERC20/ERC20.sol\":6703:6716  address owner */\n      dup1\n        /* \"@openzeppelin/contracts@4.7.3/token/ERC20/ERC20.sol\":6719:6731  _msgSender() */\n      tag_127\n        /* \"@openzeppelin/contracts@4.7.3/token/ERC20/ERC20.sol\":6719:6729  _msgSender */\n      tag_93\n        /* \"@openzeppelin/contracts@4.7.3/token/ERC20/ERC20.sol\":6719:6731  _msgSender() */\n      jump\t// in\n    tag_127:\n        /* \"@openzeppelin/contracts@4.7.3/token/ERC20/ERC20.sol\":6703:6731  address owner = _msgSender() */\n      swap1\n      pop\n        /* \"@openzeppelin/contracts@4.7.3/token/ERC20/ERC20.sol\":6741:6765  uint256 currentAllowance */\n      0x00\n        /* \"@openzeppelin/contracts@4.7.3/token/ERC20/ERC20.sol\":6768:6793  allowance(owner, spender) */\n      tag_128\n        /* \"@openzeppelin/contracts@4.7.3/token/ERC20/ERC20.sol\":6778:6783  owner */\n      dup3\n        /* \"@openzeppelin/contracts@4.7.3/token/ERC20/ERC20.sol\":6785:6792  spender */\n      dup7\n        /* \"@openzeppelin/contracts@4.7.3/token/ERC20/ERC20.sol\":6768:6777  allowance */\n      tag_82\n        /* \"@openzeppelin/contracts@4.7.3/token/ERC20/ERC20.sol\":6768:6793  allowance(owner, spender) */\n      jump\t// in\n    tag_128:\n        /* \"@openzeppelin/contracts@4.7.3/token/ERC20/ERC20.sol\":6741:6793  uint256 currentAllowance = allowance(owner, spender) */\n      swap1\n      pop\n        /* \"@openzeppelin/contracts@4.7.3/token/ERC20/ERC20.sol\":6831:6846  subtractedValue */\n      dup4\n        /* \"@openzeppelin/contracts@4.7.3/token/ERC20/ERC20.sol\":6811:6827  currentAllowance */\n      dup2\n        /* \"@openzeppelin/contracts@4.7.3/token/ERC20/ERC20.sol\":6811:6846  currentAllowance >= subtractedValue */\n      lt\n      iszero\n        /* \"@openzeppelin/contracts@4.7.3/token/ERC20/ERC20.sol\":6803:6888  require(currentAllowance >= subtractedValue, \"ERC20: decreased allowance below zero\") */\n      tag_129\n      jumpi\n      mload(0x40)\n      0x08c379a000000000000000000000000000000000000000000000000000000000\n      dup2\n      mstore\n      0x04\n      add\n      tag_130\n      swap1\n      tag_131\n      jump\t// in\n    tag_130:\n      mload(0x40)\n      dup1\n      swap2\n      sub\n      swap1\n      revert\n    tag_129:\n        /* \"@openzeppelin/contracts@4.7.3/token/ERC20/ERC20.sol\":6922:6982  _approve(owner, spender, currentAllowance - subtractedValue) */\n      tag_132\n        /* \"@openzeppelin/contracts@4.7.3/token/ERC20/ERC20.sol\":6931:6936  owner */\n      dup3\n        /* \"@openzeppelin/contracts@4.7.3/token/ERC20/ERC20.sol\":6938:6945  spender */\n      dup7\n        /* \"@openzeppelin/contracts@4.7.3/token/ERC20/ERC20.sol\":6966:6981  subtractedValue */\n      dup7\n        /* \"@openzeppelin/contracts@4.7.3/token/ERC20/ERC20.sol\":6947:6963  currentAllowance */\n      dup5\n        /* \"@openzeppelin/contracts@4.7.3/token/ERC20/ERC20.sol\":6947:6981  currentAllowance - subtractedValue */\n      sub\n        /* \"@openzeppelin/contracts@4.7.3/token/ERC20/ERC20.sol\":6922:6930  _approve */\n      tag_95\n        /* \"@openzeppelin/contracts@4.7.3/token/ERC20/ERC20.sol\":6922:6982  _approve(owner, spender, currentAllowance - subtractedValue) */\n      jump\t// in\n    tag_132:\n        /* \"@openzeppelin/contracts@4.7.3/token/ERC20/ERC20.sol\":7010:7014  true */\n      0x01\n        /* \"@openzeppelin/contracts@4.7.3/token/ERC20/ERC20.sol\":7003:7014  return true */\n      swap3\n      pop\n      pop\n      pop\n        /* \"@openzeppelin/contracts@4.7.3/token/ERC20/ERC20.sol\":6594:7021  function decreaseAllowance(address spender, uint256 subtractedValue) public virtual returns (bool) {... */\n      swap3\n      swap2\n      pop\n      pop\n      jump\t// out\n        /* \"@openzeppelin/contracts@4.7.3/token/ERC20/ERC20.sol\":3729:3918  function transfer(address to, uint256 amount) public virtual override returns (bool) {... */\n    tag_73:\n        /* \"@openzeppelin/contracts@4.7.3/token/ERC20/ERC20.sol\":3808:3812  bool */\n      0x00\n        /* \"@openzeppelin/contracts@4.7.3/token/ERC20/ERC20.sol\":3824:3837  address owner */\n      dup1\n        /* \"@openzeppelin/contracts@4.7.3/token/ERC20/ERC20.sol\":3840:3852  _msgSender() */\n      tag_134\n        /* \"@openzeppelin/contracts@4.7.3/token/ERC20/ERC20.sol\":3840:3850  _msgSender */\n      tag_93\n        /* \"@openzeppelin/contracts@4.7.3/token/ERC20/ERC20.sol\":3840:3852  _msgSender() */\n      jump\t// in\n    tag_134:\n        /* \"@openzeppelin/contracts@4.7.3/token/ERC20/ERC20.sol\":3824:3852  address owner = _msgSender() */\n      swap1\n      pop\n        /* \"@openzeppelin/contracts@4.7.3/token/ERC20/ERC20.sol\":3862:3890  _transfer(owner, to, amount) */\n      tag_135\n        /* \"@openzeppelin/contracts@4.7.3/token/ERC20/ERC20.sol\":3872:3877  owner */\n      dup2\n        /* \"@openzeppelin/contracts@4.7.3/token/ERC20/ERC20.sol\":3879:3881  to */\n      dup6\n        /* \"@openzeppelin/contracts@4.7.3/token/ERC20/ERC20.sol\":3883:3889  amount */\n      dup6\n        /* \"@openzeppelin/contracts@4.7.3/token/ERC20/ERC20.sol\":3862:3871  _transfer */\n      tag_102\n        /* \"@openzeppelin/contracts@4.7.3/token/ERC20/ERC20.sol\":3862:3890  _transfer(owner, to, amount) */\n      jump\t// in\n    tag_135:\n        /* \"@openzeppelin/contracts@4.7.3/token/ERC20/ERC20.sol\":3907:3911  true */\n      0x01\n        /* \"@openzeppelin/contracts@4.7.3/token/ERC20/ERC20.sol\":3900:3911  return true */\n      swap2\n      pop\n      pop\n        /* \"@openzeppelin/contracts@4.7.3/token/ERC20/ERC20.sol\":3729:3918  function transfer(address to, uint256 amount) public virtual override returns (bool) {... */\n      swap3\n      swap2\n      pop\n      pop\n      jump\t// out\n        /* \"@openzeppelin/contracts@4.7.3/token/ERC20/extensions/draft-ERC20Permit.sol\":1948:2574  function permit(... */\n    tag_78:\n        /* \"@openzeppelin/contracts@4.7.3/token/ERC20/extensions/draft-ERC20Permit.sol\":2183:2191  deadline */\n      dup4\n        /* \"@openzeppelin/contracts@4.7.3/token/ERC20/extensions/draft-ERC20Permit.sol\":2164:2179  block.timestamp */\n      timestamp\n        /* \"@openzeppelin/contracts@4.7.3/token/ERC20/extensions/draft-ERC20Permit.sol\":2164:2191  block.timestamp <= deadline */\n      gt\n      iszero\n        /* \"@openzeppelin/contracts@4.7.3/token/ERC20/extensions/draft-ERC20Permit.sol\":2156:2225  require(block.timestamp <= deadline, \"ERC20Permit: expired deadline\") */\n      tag_137\n      jumpi\n      mload(0x40)\n      0x08c379a000000000000000000000000000000000000000000000000000000000\n      dup2\n      mstore\n      0x04\n      add\n      tag_138\n      swap1\n      tag_139\n      jump\t// in\n    tag_138:\n      mload(0x40)\n      dup1\n      swap2\n      sub\n      swap1\n      revert\n    tag_137:\n        /* \"@openzeppelin/contracts@4.7.3/token/ERC20/extensions/draft-ERC20Permit.sol\":2236:2254  bytes32 structHash */\n      0x00\n        /* \"@openzeppelin/contracts@4.7.3/token/ERC20/extensions/draft-ERC20Permit.sol\":1143:1238  keccak256(\"Permit(address owner,address spender,uint256 value,uint256 nonce,uint256 deadline)\") */\n      0x6e71edae12b1b97f4d1f60370fef10105fa2faae0126114a169c64845d6126c9\n        /* \"@openzeppelin/contracts@4.7.3/token/ERC20/extensions/draft-ERC20Permit.sol\":2296:2301  owner */\n      dup9\n        /* \"@openzeppelin/contracts@4.7.3/token/ERC20/extensions/draft-ERC20Permit.sol\":2303:2310  spender */\n      dup9\n        /* \"@openzeppelin/contracts@4.7.3/token/ERC20/extensions/draft-ERC20Permit.sol\":2312:2317  value */\n      dup9\n        /* \"@openzeppelin/contracts@4.7.3/token/ERC20/extensions/draft-ERC20Permit.sol\":2319:2335  _useNonce(owner) */\n      tag_140\n        /* \"@openzeppelin/contracts@4.7.3/token/ERC20/extensions/draft-ERC20Permit.sol\":2329:2334  owner */\n      dup13\n        /* \"@openzeppelin/contracts@4.7.3/token/ERC20/extensions/draft-ERC20Permit.sol\":2319:2328  _useNonce */\n      tag_141\n        /* \"@openzeppelin/contracts@4.7.3/token/ERC20/extensions/draft-ERC20Permit.sol\":2319:2335  _useNonce(owner) */\n      jump\t// in\n    tag_140:\n        /* \"@openzeppelin/contracts@4.7.3/token/ERC20/extensions/draft-ERC20Permit.sol\":2337:2345  deadline */\n      dup10\n        /* \"@openzeppelin/contracts@4.7.3/token/ERC20/extensions/draft-ERC20Permit.sol\":2267:2346  abi.encode(_PERMIT_TYPEHASH, owner, spender, value, _useNonce(owner), deadline) */\n      add(0x20, mload(0x40))\n      tag_142\n      swap7\n      swap6\n      swap5\n      swap4\n      swap3\n      swap2\n      swap1\n      tag_143\n      jump\t// in\n    tag_142:\n      mload(0x40)\n      0x20\n      dup2\n      dup4\n      sub\n      sub\n      dup2\n      mstore\n      swap1\n      0x40\n      mstore\n        /* \"@openzeppelin/contracts@4.7.3/token/ERC20/extensions/draft-ERC20Permit.sol\":2257:2347  keccak256(abi.encode(_PERMIT_TYPEHASH, owner, spender, value, _useNonce(owner), deadline)) */\n      dup1\n      mload\n      swap1\n      0x20\n      add\n      keccak256\n        /* \"@openzeppelin/contracts@4.7.3/token/ERC20/extensions/draft-ERC20Permit.sol\":2236:2347  bytes32 structHash = keccak256(abi.encode(_PERMIT_TYPEHASH, owner, spender, value, _useNonce(owner), deadline)) */\n      swap1\n      pop\n        /* \"@openzeppelin/contracts@4.7.3/token/ERC20/extensions/draft-ERC20Permit.sol\":2358:2370  bytes32 hash */\n      0x00\n        /* \"@openzeppelin/contracts@4.7.3/token/ERC20/extensions/draft-ERC20Permit.sol\":2373:2401  _hashTypedDataV4(structHash) */\n      tag_144\n        /* \"@openzeppelin/contracts@4.7.3/token/ERC20/extensions/draft-ERC20Permit.sol\":2390:2400  structHash */\n      dup3\n        /* \"@openzeppelin/contracts@4.7.3/token/ERC20/extensions/draft-ERC20Permit.sol\":2373:2389  _hashTypedDataV4 */\n      tag_145\n        /* \"@openzeppelin/contracts@4.7.3/token/ERC20/extensions/draft-ERC20Permit.sol\":2373:2401  _hashTypedDataV4(structHash) */\n      jump\t// in\n    tag_144:\n        /* \"@openzeppelin/contracts@4.7.3/token/ERC20/extensions/draft-ERC20Permit.sol\":2358:2401  bytes32 hash = _hashTypedDataV4(structHash) */\n      swap1\n      pop\n        /* \"@openzeppelin/contracts@4.7.3/token/ERC20/extensions/draft-ERC20Permit.sol\":2412:2426  address signer */\n      0x00\n        /* \"@openzeppelin/contracts@4.7.3/token/ERC20/extensions/draft-ERC20Permit.sol\":2429:2457  ECDSA.recover(hash, v, r, s) */\n      tag_146\n        /* \"@openzeppelin/contracts@4.7.3/token/ERC20/extensions/draft-ERC20Permit.sol\":2443:2447  hash */\n      dup3\n        /* \"@openzeppelin/contracts@4.7.3/token/ERC20/extensions/draft-ERC20Permit.sol\":2449:2450  v */\n      dup8\n        /* \"@openzeppelin/contracts@4.7.3/token/ERC20/extensions/draft-ERC20Permit.sol\":2452:2453  r */\n      dup8\n        /* \"@openzeppelin/contracts@4.7.3/token/ERC20/extensions/draft-ERC20Permit.sol\":2455:2456  s */\n      dup8\n        /* \"@openzeppelin/contracts@4.7.3/token/ERC20/extensions/draft-ERC20Permit.sol\":2429:2442  ECDSA.recover */\n      tag_147\n        /* \"@openzeppelin/contracts@4.7.3/token/ERC20/extensions/draft-ERC20Permit.sol\":2429:2457  ECDSA.recover(hash, v, r, s) */\n      jump\t// in\n    tag_146:\n        /* \"@openzeppelin/contracts@4.7.3/token/ERC20/extensions/draft-ERC20Permit.sol\":2412:2457  address signer = ECDSA.recover(hash, v, r, s) */\n      swap1\n      pop\n        /* \"@openzeppelin/contracts@4.7.3/token/ERC20/extensions/draft-ERC20Permit.sol\":2485:2490  owner */\n      dup10\n        /* \"@openzeppelin/contracts@4.7.3/token/ERC20/extensions/draft-ERC20Permit.sol\":2475:2490  signer == owner */\n      0xffffffffffffffffffffffffffffffffffffffff\n      and\n        /* \"@openzeppelin/contracts@4.7.3/token/ERC20/extensions/draft-ERC20Permit.sol\":2475:2481  signer */\n      dup2\n        /* \"@openzeppelin/contracts@4.7.3/token/ERC20/extensions/draft-ERC20Permit.sol\":2475:2490  signer == owner */\n      0xffffffffffffffffffffffffffffffffffffffff\n      and\n      eq\n        /* \"@openzeppelin/contracts@4.7.3/token/ERC20/extensions/draft-ERC20Permit.sol\":2467:2525  require(signer == owner, \"ERC20Permit: invalid signature\") */\n      tag_148\n      jumpi\n      mload(0x40)\n      0x08c379a000000000000000000000000000000000000000000000000000000000\n      dup2\n      mstore\n      0x04\n      add\n      tag_149\n      swap1\n      tag_150\n      jump\t// in\n    tag_149:\n      mload(0x40)\n      dup1\n      swap2\n      sub\n      swap1\n      revert\n    tag_148:\n        /* \"@openzeppelin/contracts@4.7.3/token/ERC20/extensions/draft-ERC20Permit.sol\":2536:2567  _approve(owner, spender, value) */\n      tag_151\n        /* \"@openzeppelin/contracts@4.7.3/token/ERC20/extensions/draft-ERC20Permit.sol\":2545:2550  owner */\n      dup11\n        /* \"@openzeppelin/contracts@4.7.3/token/ERC20/extensions/draft-ERC20Permit.sol\":2552:2559  spender */\n      dup11\n        /* \"@openzeppelin/contracts@4.7.3/token/ERC20/extensions/draft-ERC20Permit.sol\":2561:2566  value */\n      dup11\n        /* \"@openzeppelin/contracts@4.7.3/token/ERC20/extensions/draft-ERC20Permit.sol\":2536:2544  _approve */\n      tag_95\n        /* \"@openzeppelin/contracts@4.7.3/token/ERC20/extensions/draft-ERC20Permit.sol\":2536:2567  _approve(owner, spender, value) */\n      jump\t// in\n    tag_151:\n        /* \"@openzeppelin/contracts@4.7.3/token/ERC20/extensions/draft-ERC20Permit.sol\":2146:2574  {... */\n      pop\n      pop\n      pop\n        /* \"@openzeppelin/contracts@4.7.3/token/ERC20/extensions/draft-ERC20Permit.sol\":1948:2574  function permit(... */\n      pop\n      pop\n      pop\n      pop\n      pop\n      pop\n      pop\n      jump\t// out\n        /* \"@openzeppelin/contracts@4.7.3/token/ERC20/ERC20.sol\":3976:4125  function allowance(address owner, address spender) public view virtual override returns (uint256) {... */\n    tag_82:\n        /* \"@openzeppelin/contracts@4.7.3/token/ERC20/ERC20.sol\":4065:4072  uint256 */\n      0x00\n        /* \"@openzeppelin/contracts@4.7.3/token/ERC20/ERC20.sol\":4091:4102  _allowances */\n      0x01\n        /* \"@openzeppelin/contracts@4.7.3/token/ERC20/ERC20.sol\":4091:4109  _allowances[owner] */\n      0x00\n        /* \"@openzeppelin/contracts@4.7.3/token/ERC20/ERC20.sol\":4103:4108  owner */\n      dup5\n        /* \"@openzeppelin/contracts@4.7.3/token/ERC20/ERC20.sol\":4091:4109  _allowances[owner] */\n      0xffffffffffffffffffffffffffffffffffffffff\n      and\n      0xffffffffffffffffffffffffffffffffffffffff\n      and\n      dup2\n      mstore\n      0x20\n      add\n      swap1\n      dup2\n      mstore\n      0x20\n      add\n      0x00\n      keccak256\n        /* \"@openzeppelin/contracts@4.7.3/token/ERC20/ERC20.sol\":4091:4118  _allowances[owner][spender] */\n      0x00\n        /* \"@openzeppelin/contracts@4.7.3/token/ERC20/ERC20.sol\":4110:4117  spender */\n      dup4\n        /* \"@openzeppelin/contracts@4.7.3/token/ERC20/ERC20.sol\":4091:4118  _allowances[owner][spender] */\n      0xffffffffffffffffffffffffffffffffffffffff\n      and\n      0xffffffffffffffffffffffffffffffffffffffff\n      and\n      dup2\n      mstore\n      0x20\n      add\n      swap1\n      dup2\n      mstore\n      0x20\n      add\n      0x00\n      keccak256\n      sload\n        /* \"@openzeppelin/contracts@4.7.3/token/ERC20/ERC20.sol\":4084:4118  return _allowances[owner][spender] */\n      swap1\n      pop\n        /* \"@openzeppelin/contracts@4.7.3/token/ERC20/ERC20.sol\":3976:4125  function allowance(address owner, address spender) public view virtual override returns (uint256) {... */\n      swap3\n      swap2\n      pop\n      pop\n      jump\t// out\n        /* \"@openzeppelin/contracts@4.7.3/utils/Context.sol\":640:736  function _msgSender() internal view virtual returns (address) {... */\n    tag_93:\n        /* \"@openzeppelin/contracts@4.7.3/utils/Context.sol\":693:700  address */\n      0x00\n        /* \"@openzeppelin/contracts@4.7.3/utils/Context.sol\":719:729  msg.sender */\n      caller\n        /* \"@openzeppelin/contracts@4.7.3/utils/Context.sol\":712:729  return msg.sender */\n      swap1\n      pop\n        /* \"@openzeppelin/contracts@4.7.3/utils/Context.sol\":640:736  function _msgSender() internal view virtual returns (address) {... */\n      swap1\n      jump\t// out\n        /* \"@openzeppelin/contracts@4.7.3/token/ERC20/ERC20.sol\":10110:10480  function _approve(... */\n    tag_95:\n        /* \"@openzeppelin/contracts@4.7.3/token/ERC20/ERC20.sol\":10258:10259  0 */\n      0x00\n        /* \"@openzeppelin/contracts@4.7.3/token/ERC20/ERC20.sol\":10241:10260  owner != address(0) */\n      0xffffffffffffffffffffffffffffffffffffffff\n      and\n        /* \"@openzeppelin/contracts@4.7.3/token/ERC20/ERC20.sol\":10241:10246  owner */\n      dup4\n        /* \"@openzeppelin/contracts@4.7.3/token/ERC20/ERC20.sol\":10241:10260  owner != address(0) */\n      0xffffffffffffffffffffffffffffffffffffffff\n      and\n      sub\n        /* \"@openzeppelin/contracts@4.7.3/token/ERC20/ERC20.sol\":10233:10301  require(owner != address(0), \"ERC20: approve from the zero address\") */\n      tag_155\n      jumpi\n      mload(0x40)\n      0x08c379a000000000000000000000000000000000000000000000000000000000\n      dup2\n      mstore\n      0x04\n      add\n      tag_156\n      swap1\n      tag_157\n      jump\t// in\n    tag_156:\n      mload(0x40)\n      dup1\n      swap2\n      sub\n      swap1\n      revert\n    tag_155:\n        /* \"@openzeppelin/contracts@4.7.3/token/ERC20/ERC20.sol\":10338:10339  0 */\n      0x00\n        /* \"@openzeppelin/contracts@4.7.3/token/ERC20/ERC20.sol\":10319:10340  spender != address(0) */\n      0xffffffffffffffffffffffffffffffffffffffff\n      and\n        /* \"@openzeppelin/contracts@4.7.3/token/ERC20/ERC20.sol\":10319:10326  spender */\n      dup3\n        /* \"@openzeppelin/contracts@4.7.3/token/ERC20/ERC20.sol\":10319:10340  spender != address(0) */\n      0xffffffffffffffffffffffffffffffffffffffff\n      and\n      sub\n        /* \"@openzeppelin/contracts@4.7.3/token/ERC20/ERC20.sol\":10311:10379  require(spender != address(0), \"ERC20: approve to the zero address\") */\n      tag_158\n      jumpi\n      mload(0x40)\n      0x08c379a000000000000000000000000000000000000000000000000000000000\n      dup2\n      mstore\n      0x04\n      add\n      tag_159\n      swap1\n      tag_160\n      jump\t// in\n    tag_159:\n      mload(0x40)\n      dup1\n      swap2\n      sub\n      swap1\n      revert\n    tag_158:\n        /* \"@openzeppelin/contracts@4.7.3/token/ERC20/ERC20.sol\":10420:10426  amount */\n      dup1\n        /* \"@openzeppelin/contracts@4.7.3/token/ERC20/ERC20.sol\":10390:10401  _allowances */\n      0x01\n        /* \"@openzeppelin/contracts@4.7.3/token/ERC20/ERC20.sol\":10390:10408  _allowances[owner] */\n      0x00\n        /* \"@openzeppelin/contracts@4.7.3/token/ERC20/ERC20.sol\":10402:10407  owner */\n      dup6\n        /* \"@openzeppelin/contracts@4.7.3/token/ERC20/ERC20.sol\":10390:10408  _allowances[owner] */\n      0xffffffffffffffffffffffffffffffffffffffff\n      and\n      0xffffffffffffffffffffffffffffffffffffffff\n      and\n      dup2\n      mstore\n      0x20\n      add\n      swap1\n      dup2\n      mstore\n      0x20\n      add\n      0x00\n      keccak256\n        /* \"@openzeppelin/contracts@4.7.3/token/ERC20/ERC20.sol\":10390:10417  _allowances[owner][spender] */\n      0x00\n        /* \"@openzeppelin/contracts@4.7.3/token/ERC20/ERC20.sol\":10409:10416  spender */\n      dup5\n        /* \"@openzeppelin/contracts@4.7.3/token/ERC20/ERC20.sol\":10390:10417  _allowances[owner][spender] */\n      0xffffffffffffffffffffffffffffffffffffffff\n      and\n      0xffffffffffffffffffffffffffffffffffffffff\n      and\n      dup2\n      mstore\n      0x20\n      add\n      swap1\n      dup2\n      mstore\n      0x20\n      add\n      0x00\n      keccak256\n        /* \"@openzeppelin/contracts@4.7.3/token/ERC20/ERC20.sol\":10390:10426  _allowances[owner][spender] = amount */\n      dup2\n      swap1\n      sstore\n      pop\n        /* \"@openzeppelin/contracts@4.7.3/token/ERC20/ERC20.sol\":10457:10464  spender */\n      dup2\n        /* \"@openzeppelin/contracts@4.7.3/token/ERC20/ERC20.sol\":10441:10473  Approval(owner, spender, amount) */\n      0xffffffffffffffffffffffffffffffffffffffff\n      and\n        /* \"@openzeppelin/contracts@4.7.3/token/ERC20/ERC20.sol\":10450:10455  owner */\n      dup4\n        /* \"@openzeppelin/contracts@4.7.3/token/ERC20/ERC20.sol\":10441:10473  Approval(owner, spender, amount) */\n      0xffffffffffffffffffffffffffffffffffffffff\n      and\n      0x8c5be1e5ebec7d5bd14f71427d1e84f3dd0314c0f7b2291e5b200ac8c7c3b925\n        /* \"@openzeppelin/contracts@4.7.3/token/ERC20/ERC20.sol\":10466:10472  amount */\n      dup4\n        /* \"@openzeppelin/contracts@4.7.3/token/ERC20/ERC20.sol\":10441:10473  Approval(owner, spender, amount) */\n      mload(0x40)\n      tag_161\n      swap2\n      swap1\n      tag_34\n      jump\t// in\n    tag_161:\n      mload(0x40)\n      dup1\n      swap2\n      sub\n      swap1\n      log3\n        /* \"@openzeppelin/contracts@4.7.3/token/ERC20/ERC20.sol\":10110:10480  function _approve(... */\n      pop\n      pop\n      pop\n      jump\t// out\n        /* \"@openzeppelin/contracts@4.7.3/token/ERC20/ERC20.sol\":10761:11202  function _spendAllowance(... */\n    tag_100:\n        /* \"@openzeppelin/contracts@4.7.3/token/ERC20/ERC20.sol\":10891:10915  uint256 currentAllowance */\n      0x00\n        /* \"@openzeppelin/contracts@4.7.3/token/ERC20/ERC20.sol\":10918:10943  allowance(owner, spender) */\n      tag_163\n        /* \"@openzeppelin/contracts@4.7.3/token/ERC20/ERC20.sol\":10928:10933  owner */\n      dup5\n        /* \"@openzeppelin/contracts@4.7.3/token/ERC20/ERC20.sol\":10935:10942  spender */\n      dup5\n        /* \"@openzeppelin/contracts@4.7.3/token/ERC20/ERC20.sol\":10918:10927  allowance */\n      tag_82\n        /* \"@openzeppelin/contracts@4.7.3/token/ERC20/ERC20.sol\":10918:10943  allowance(owner, spender) */\n      jump\t// in\n    tag_163:\n        /* \"@openzeppelin/contracts@4.7.3/token/ERC20/ERC20.sol\":10891:10943  uint256 currentAllowance = allowance(owner, spender) */\n      swap1\n      pop\n        /* \"@openzeppelin/contracts@4.7.3/token/ERC20/ERC20.sol\":10977:10994  type(uint256).max */\n      0xffffffffffffffffffffffffffffffffffffffffffffffffffffffffffffffff\n        /* \"@openzeppelin/contracts@4.7.3/token/ERC20/ERC20.sol\":10957:10973  currentAllowance */\n      dup2\n        /* \"@openzeppelin/contracts@4.7.3/token/ERC20/ERC20.sol\":10957:10994  currentAllowance != type(uint256).max */\n      eq\n        /* \"@openzeppelin/contracts@4.7.3/token/ERC20/ERC20.sol\":10953:11196  if (currentAllowance != type(uint256).max) {... */\n      tag_164\n      jumpi\n        /* \"@openzeppelin/contracts@4.7.3/token/ERC20/ERC20.sol\":11038:11044  amount */\n      dup2\n        /* \"@openzeppelin/contracts@4.7.3/token/ERC20/ERC20.sol\":11018:11034  currentAllowance */\n      dup2\n        /* \"@openzeppelin/contracts@4.7.3/token/ERC20/ERC20.sol\":11018:11044  currentAllowance >= amount */\n      lt\n      iszero\n        /* \"@openzeppelin/contracts@4.7.3/token/ERC20/ERC20.sol\":11010:11078  require(currentAllowance >= amount, \"ERC20: insufficient allowance\") */\n      tag_165\n      jumpi\n      mload(0x40)\n      0x08c379a000000000000000000000000000000000000000000000000000000000\n      dup2\n      mstore\n      0x04\n      add\n      tag_166\n      swap1\n      tag_167\n      jump\t// in\n    tag_166:\n      mload(0x40)\n      dup1\n      swap2\n      sub\n      swap1\n      revert\n    tag_165:\n        /* \"@openzeppelin/contracts@4.7.3/token/ERC20/ERC20.sol\":11120:11171  _approve(owner, spender, currentAllowance - amount) */\n      tag_168\n        /* \"@openzeppelin/contracts@4.7.3/token/ERC20/ERC20.sol\":11129:11134  owner */\n      dup5\n        /* \"@openzeppelin/contracts@4.7.3/token/ERC20/ERC20.sol\":11136:11143  spender */\n      dup5\n        /* \"@openzeppelin/contracts@4.7.3/token/ERC20/ERC20.sol\":11164:11170  amount */\n      dup5\n        /* \"@openzeppelin/contracts@4.7.3/token/ERC20/ERC20.sol\":11145:11161  currentAllowance */\n      dup5\n        /* \"@openzeppelin/contracts@4.7.3/token/ERC20/ERC20.sol\":11145:11170  currentAllowance - amount */\n      sub\n        /* \"@openzeppelin/contracts@4.7.3/token/ERC20/ERC20.sol\":11120:11128  _approve */\n      tag_95\n        /* \"@openzeppelin/contracts@4.7.3/token/ERC20/ERC20.sol\":11120:11171  _approve(owner, spender, currentAllowance - amount) */\n      jump\t// in\n    tag_168:\n        /* \"@openzeppelin/contracts@4.7.3/token/ERC20/ERC20.sol\":10953:11196  if (currentAllowance != type(uint256).max) {... */\n    tag_164:\n        /* \"@openzeppelin/contracts@4.7.3/token/ERC20/ERC20.sol\":10881:11202  {... */\n      pop\n        /* \"@openzeppelin/contracts@4.7.3/token/ERC20/ERC20.sol\":10761:11202  function _spendAllowance(... */\n      pop\n      pop\n      pop\n      jump\t// out\n        /* \"@openzeppelin/contracts@4.7.3/token/ERC20/ERC20.sol\":7475:8126  function _transfer(... */\n    tag_102:\n        /* \"@openzeppelin/contracts@4.7.3/token/ERC20/ERC20.sol\":7617:7618  0 */\n      0x00\n        /* \"@openzeppelin/contracts@4.7.3/token/ERC20/ERC20.sol\":7601:7619  from != address(0) */\n      0xffffffffffffffffffffffffffffffffffffffff\n      and\n        /* \"@openzeppelin/contracts@4.7.3/token/ERC20/ERC20.sol\":7601:7605  from */\n      dup4\n        /* \"@openzeppelin/contracts@4.7.3/token/ERC20/ERC20.sol\":7601:7619  from != address(0) */\n      0xffffffffffffffffffffffffffffffffffffffff\n      and\n      sub\n        /* \"@openzeppelin/contracts@4.7.3/token/ERC20/ERC20.sol\":7593:7661  require(from != address(0), \"ERC20: transfer from the zero address\") */\n      tag_170\n      jumpi\n      mload(0x40)\n      0x08c379a000000000000000000000000000000000000000000000000000000000\n      dup2\n      mstore\n      0x04\n      add\n      tag_171\n      swap1\n      tag_172\n      jump\t// in\n    tag_171:\n      mload(0x40)\n      dup1\n      swap2\n      sub\n      swap1\n      revert\n    tag_170:\n        /* \"@openzeppelin/contracts@4.7.3/token/ERC20/ERC20.sol\":7693:7694  0 */\n      0x00\n        /* \"@openzeppelin/contracts@4.7.3/token/ERC20/ERC20.sol\":7679:7695  to != address(0) */\n      0xffffffffffffffffffffffffffffffffffffffff\n      and\n        /* \"@openzeppelin/contracts@4.7.3/token/ERC20/ERC20.sol\":7679:7681  to */\n      dup3\n        /* \"@openzeppelin/contracts@4.7.3/token/ERC20/ERC20.sol\":7679:7695  to != address(0) */\n      0xffffffffffffffffffffffffffffffffffffffff\n      and\n      sub\n        /* \"@openzeppelin/contracts@4.7.3/token/ERC20/ERC20.sol\":7671:7735  require(to != address(0), \"ERC20: transfer to the zero address\") */\n      tag_173\n      jumpi\n      mload(0x40)\n      0x08c379a000000000000000000000000000000000000000000000000000000000\n      dup2\n      mstore\n      0x04\n      add\n      tag_174\n      swap1\n      tag_175\n      jump\t// in\n    tag_174:\n      mload(0x40)\n      dup1\n      swap2\n      sub\n      swap1\n      revert\n    tag_173:\n        /* \"@openzeppelin/contracts@4.7.3/token/ERC20/ERC20.sol\":7746:7784  _beforeTokenTransfer(from, to, amount) */\n      tag_176\n        /* \"@openzeppelin/contracts@4.7.3/token/ERC20/ERC20.sol\":7767:7771  from */\n      dup4\n        /* \"@openzeppelin/contracts@4.7.3/token/ERC20/ERC20.sol\":7773:7775  to */\n      dup4\n        /* \"@openzeppelin/contracts@4.7.3/token/ERC20/ERC20.sol\":7777:7783  amount */\n      dup4\n        /* \"@openzeppelin/contracts@4.7.3/token/ERC20/ERC20.sol\":7746:7766  _beforeTokenTransfer */\n      tag_177\n        /* \"@openzeppelin/contracts@4.7.3/token/ERC20/ERC20.sol\":7746:7784  _beforeTokenTransfer(from, to, amount) */\n      jump\t// in\n    tag_176:\n        /* \"@openzeppelin/contracts@4.7.3/token/ERC20/ERC20.sol\":7795:7814  uint256 fromBalance */\n      0x00\n        /* \"@openzeppelin/contracts@4.7.3/token/ERC20/ERC20.sol\":7817:7826  _balances */\n      dup1\n        /* \"@openzeppelin/contracts@4.7.3/token/ERC20/ERC20.sol\":7817:7832  _balances[from] */\n      0x00\n        /* \"@openzeppelin/contracts@4.7.3/token/ERC20/ERC20.sol\":7827:7831  from */\n      dup6\n        /* \"@openzeppelin/contracts@4.7.3/token/ERC20/ERC20.sol\":7817:7832  _balances[from] */\n      0xffffffffffffffffffffffffffffffffffffffff\n      and\n      0xffffffffffffffffffffffffffffffffffffffff\n      and\n      dup2\n      mstore\n      0x20\n      add\n      swap1\n      dup2\n      mstore\n      0x20\n      add\n      0x00\n      keccak256\n      sload\n        /* \"@openzeppelin/contracts@4.7.3/token/ERC20/ERC20.sol\":7795:7832  uint256 fromBalance = _balances[from] */\n      swap1\n      pop\n        /* \"@openzeppelin/contracts@4.7.3/token/ERC20/ERC20.sol\":7865:7871  amount */\n      dup2\n        /* \"@openzeppelin/contracts@4.7.3/token/ERC20/ERC20.sol\":7850:7861  fromBalance */\n      dup2\n        /* \"@openzeppelin/contracts@4.7.3/token/ERC20/ERC20.sol\":7850:7871  fromBalance >= amount */\n      lt\n      iszero\n        /* \"@openzeppelin/contracts@4.7.3/token/ERC20/ERC20.sol\":7842:7914  require(fromBalance >= amount, \"ERC20: transfer amount exceeds balance\") */\n      tag_178\n      jumpi\n      mload(0x40)\n      0x08c379a000000000000000000000000000000000000000000000000000000000\n      dup2\n      mstore\n      0x04\n      add\n      tag_179\n      swap1\n      tag_180\n      jump\t// in\n    tag_179:\n      mload(0x40)\n      dup1\n      swap2\n      sub\n      swap1\n      revert\n    tag_178:\n        /* \"@openzeppelin/contracts@4.7.3/token/ERC20/ERC20.sol\":7980:7986  amount */\n      dup2\n        /* \"@openzeppelin/contracts@4.7.3/token/ERC20/ERC20.sol\":7966:7977  fromBalance */\n      dup2\n        /* \"@openzeppelin/contracts@4.7.3/token/ERC20/ERC20.sol\":7966:7986  fromBalance - amount */\n      sub\n        /* \"@openzeppelin/contracts@4.7.3/token/ERC20/ERC20.sol\":7948:7957  _balances */\n      0x00\n        /* \"@openzeppelin/contracts@4.7.3/token/ERC20/ERC20.sol\":7948:7963  _balances[from] */\n      dup1\n        /* \"@openzeppelin/contracts@4.7.3/token/ERC20/ERC20.sol\":7958:7962  from */\n      dup7\n        /* \"@openzeppelin/contracts@4.7.3/token/ERC20/ERC20.sol\":7948:7963  _balances[from] */\n      0xffffffffffffffffffffffffffffffffffffffff\n      and\n      0xffffffffffffffffffffffffffffffffffffffff\n      and\n      dup2\n      mstore\n      0x20\n      add\n      swap1\n      dup2\n      mstore\n      0x20\n      add\n      0x00\n      keccak256\n        /* \"@openzeppelin/contracts@4.7.3/token/ERC20/ERC20.sol\":7948:7986  _balances[from] = fromBalance - amount */\n      dup2\n      swap1\n      sstore\n      pop\n        /* \"@openzeppelin/contracts@4.7.3/token/ERC20/ERC20.sol\":8023:8029  amount */\n      dup2\n        /* \"@openzeppelin/contracts@4.7.3/token/ERC20/ERC20.sol\":8006:8015  _balances */\n      0x00\n        /* \"@openzeppelin/contracts@4.7.3/token/ERC20/ERC20.sol\":8006:8019  _balances[to] */\n      dup1\n        /* \"@openzeppelin/contracts@4.7.3/token/ERC20/ERC20.sol\":8016:8018  to */\n      dup6\n        /* \"@openzeppelin/contracts@4.7.3/token/ERC20/ERC20.sol\":8006:8019  _balances[to] */\n      0xffffffffffffffffffffffffffffffffffffffff\n      and\n      0xffffffffffffffffffffffffffffffffffffffff\n      and\n      dup2\n      mstore\n      0x20\n      add\n      swap1\n      dup2\n      mstore\n      0x20\n      add\n      0x00\n      keccak256\n      0x00\n        /* \"@openzeppelin/contracts@4.7.3/token/ERC20/ERC20.sol\":8006:8029  _balances[to] += amount */\n      dup3\n      dup3\n      sload\n      tag_181\n      swap2\n      swap1\n      tag_112\n      jump\t// in\n    tag_181:\n      swap3\n      pop\n      pop\n      dup2\n      swap1\n      sstore\n      pop\n        /* \"@openzeppelin/contracts@4.7.3/token/ERC20/ERC20.sol\":8060:8062  to */\n      dup3\n        /* \"@openzeppelin/contracts@4.7.3/token/ERC20/ERC20.sol\":8045:8071  Transfer(from, to, amount) */\n      0xffffffffffffffffffffffffffffffffffffffff\n      and\n        /* \"@openzeppelin/contracts@4.7.3/token/ERC20/ERC20.sol\":8054:8058  from */\n      dup5\n        /* \"@openzeppelin/contracts@4.7.3/token/ERC20/ERC20.sol\":8045:8071  Transfer(from, to, amount) */\n      0xffffffffffffffffffffffffffffffffffffffff\n      and\n      0xddf252ad1be2c89b69c2b068fc378daa952ba7f163c4a11628f55a4df523b3ef\n        /* \"@openzeppelin/contracts@4.7.3/token/ERC20/ERC20.sol\":8064:8070  amount */\n      dup5\n        /* \"@openzeppelin/contracts@4.7.3/token/ERC20/ERC20.sol\":8045:8071  Transfer(from, to, amount) */\n      mload(0x40)\n      tag_182\n      swap2\n      swap1\n      tag_34\n      jump\t// in\n    tag_182:\n      mload(0x40)\n      dup1\n      swap2\n      sub\n      swap1\n      log3\n        /* \"@openzeppelin/contracts@4.7.3/token/ERC20/ERC20.sol\":8082:8119  _afterTokenTransfer(from, to, amount) */\n      tag_183\n        /* \"@openzeppelin/contracts@4.7.3/token/ERC20/ERC20.sol\":8102:8106  from */\n      dup5\n        /* \"@openzeppelin/contracts@4.7.3/token/ERC20/ERC20.sol\":8108:8110  to */\n      dup5\n        /* \"@openzeppelin/contracts@4.7.3/token/ERC20/ERC20.sol\":8112:8118  amount */\n      dup5\n        /* \"@openzeppelin/contracts@4.7.3/token/ERC20/ERC20.sol\":8082:8101  _afterTokenTransfer */\n      tag_184\n        /* \"@openzeppelin/contracts@4.7.3/token/ERC20/ERC20.sol\":8082:8119  _afterTokenTransfer(from, to, amount) */\n      jump\t// in\n    tag_183:\n        /* \"@openzeppelin/contracts@4.7.3/token/ERC20/ERC20.sol\":7583:8126  {... */\n      pop\n        /* \"@openzeppelin/contracts@4.7.3/token/ERC20/ERC20.sol\":7475:8126  function _transfer(... */\n      pop\n      pop\n      pop\n      jump\t// out\n        /* \"@openzeppelin/contracts@4.7.3/utils/cryptography/draft-EIP712.sol\":3143:3451  function _domainSeparatorV4() internal view returns (bytes32) {... */\n    tag_106:\n        /* \"@openzeppelin/contracts@4.7.3/utils/cryptography/draft-EIP712.sol\":3196:3203  bytes32 */\n      0x00\n        /* \"@openzeppelin/contracts@4.7.3/utils/cryptography/draft-EIP712.sol\":3236:3248  _CACHED_THIS */\n      immutable(\"0x029f4bc6ebbac7821b38f11e82c50ce2b63772f63b6ad2c35af4c148b2c4bad3\")\n        /* \"@openzeppelin/contracts@4.7.3/utils/cryptography/draft-EIP712.sol\":3219:3248  address(this) == _CACHED_THIS */\n      0xffffffffffffffffffffffffffffffffffffffff\n      and\n        /* \"@openzeppelin/contracts@4.7.3/utils/cryptography/draft-EIP712.sol\":3227:3231  this */\n      address\n        /* \"@openzeppelin/contracts@4.7.3/utils/cryptography/draft-EIP712.sol\":3219:3248  address(this) == _CACHED_THIS */\n      0xffffffffffffffffffffffffffffffffffffffff\n      and\n      eq\n        /* \"@openzeppelin/contracts@4.7.3/utils/cryptography/draft-EIP712.sol\":3219:3285  address(this) == _CACHED_THIS && block.chainid == _CACHED_CHAIN_ID */\n      dup1\n      iszero\n      tag_186\n      jumpi\n      pop\n        /* \"@openzeppelin/contracts@4.7.3/utils/cryptography/draft-EIP712.sol\":3269:3285  _CACHED_CHAIN_ID */\n      immutable(\"0x79ede0e1d4663a040c0927e7555c0aa914d60646b0bd94798f4654567b709b95\")\n        /* \"@openzeppelin/contracts@4.7.3/utils/cryptography/draft-EIP712.sol\":3252:3265  block.chainid */\n      chainid\n        /* \"@openzeppelin/contracts@4.7.3/utils/cryptography/draft-EIP712.sol\":3252:3285  block.chainid == _CACHED_CHAIN_ID */\n      eq\n        /* \"@openzeppelin/contracts@4.7.3/utils/cryptography/draft-EIP712.sol\":3219:3285  address(this) == _CACHED_THIS && block.chainid == _CACHED_CHAIN_ID */\n    tag_186:\n        /* \"@openzeppelin/contracts@4.7.3/utils/cryptography/draft-EIP712.sol\":3215:3445  if (address(this) == _CACHED_THIS && block.chainid == _CACHED_CHAIN_ID) {... */\n      iszero\n      tag_187\n      jumpi\n        /* \"@openzeppelin/contracts@4.7.3/utils/cryptography/draft-EIP712.sol\":3308:3332  _CACHED_DOMAIN_SEPARATOR */\n      immutable(\"0x287b91f0b101ece3728dd9f02ea2865cf4f06b72e55fc122f67e14412d5d078c\")\n        /* \"@openzeppelin/contracts@4.7.3/utils/cryptography/draft-EIP712.sol\":3301:3332  return _CACHED_DOMAIN_SEPARATOR */\n      swap1\n      pop\n      jump(tag_185)\n        /* \"@openzeppelin/contracts@4.7.3/utils/cryptography/draft-EIP712.sol\":3215:3445  if (address(this) == _CACHED_THIS && block.chainid == _CACHED_CHAIN_ID) {... */\n    tag_187:\n        /* \"@openzeppelin/contracts@4.7.3/utils/cryptography/draft-EIP712.sol\":3370:3434  _buildDomainSeparator(_TYPE_HASH, _HASHED_NAME, _HASHED_VERSION) */\n      tag_189\n        /* \"@openzeppelin/contracts@4.7.3/utils/cryptography/draft-EIP712.sol\":3392:3402  _TYPE_HASH */\n      immutable(\"0xbb18ebaa1cddf829bcac2337ea2baf9a257d86fba8ce2baebe40d33d4470291e\")\n        /* \"@openzeppelin/contracts@4.7.3/utils/cryptography/draft-EIP712.sol\":3404:3416  _HASHED_NAME */\n      immutable(\"0x4f4ac30ff8bfcef8cd1068d1427faf7fb52fa3a1610b1f430e1f69a91ebb9673\")\n        /* \"@openzeppelin/contracts@4.7.3/utils/cryptography/draft-EIP712.sol\":3418:3433  _HASHED_VERSION */\n      immutable(\"0x3ab4fb69c8e122442af87ae588015f836e7cde3029bbb6dab1983bc840231d63\")\n        /* \"@openzeppelin/contracts@4.7.3/utils/cryptography/draft-EIP712.sol\":3370:3391  _buildDomainSeparator */\n      tag_190\n        /* \"@openzeppelin/contracts@4.7.3/utils/cryptography/draft-EIP712.sol\":3370:3434  _buildDomainSeparator(_TYPE_HASH, _HASHED_NAME, _HASHED_VERSION) */\n      jump\t// in\n    tag_189:\n        /* \"@openzeppelin/contracts@4.7.3/utils/cryptography/draft-EIP712.sol\":3363:3434  return _buildDomainSeparator(_TYPE_HASH, _HASHED_NAME, _HASHED_VERSION) */\n      swap1\n      pop\n        /* \"@openzeppelin/contracts@4.7.3/utils/cryptography/draft-EIP712.sol\":3143:3451  function _domainSeparatorV4() internal view returns (bytes32) {... */\n    tag_185:\n      swap1\n      jump\t// out\n        /* \"@openzeppelin/contracts@4.7.3/token/ERC20/ERC20.sol\":8402:8791  function _mint(address account, uint256 amount) internal virtual {... */\n    tag_115:\n        /* \"@openzeppelin/contracts@4.7.3/token/ERC20/ERC20.sol\":8504:8505  0 */\n      0x00\n        /* \"@openzeppelin/contracts@4.7.3/token/ERC20/ERC20.sol\":8485:8506  account != address(0) */\n      0xffffffffffffffffffffffffffffffffffffffff\n      and\n        /* \"@openzeppelin/contracts@4.7.3/token/ERC20/ERC20.sol\":8485:8492  account */\n      dup3\n        /* \"@openzeppelin/contracts@4.7.3/token/ERC20/ERC20.sol\":8485:8506  account != address(0) */\n      0xffffffffffffffffffffffffffffffffffffffff\n      and\n      sub\n        /* \"@openzeppelin/contracts@4.7.3/token/ERC20/ERC20.sol\":8477:8542  require(account != address(0), \"ERC20: mint to the zero address\") */\n      tag_192\n      jumpi\n      mload(0x40)\n      0x08c379a000000000000000000000000000000000000000000000000000000000\n      dup2\n      mstore\n      0x04\n      add\n      tag_193\n      swap1\n      tag_194\n      jump\t// in\n    tag_193:\n      mload(0x40)\n      dup1\n      swap2\n      sub\n      swap1\n      revert\n    tag_192:\n        /* \"@openzeppelin/contracts@4.7.3/token/ERC20/ERC20.sol\":8553:8602  _beforeTokenTransfer(address(0), account, amount) */\n      tag_195\n        /* \"@openzeppelin/contracts@4.7.3/token/ERC20/ERC20.sol\":8582:8583  0 */\n      0x00\n        /* \"@openzeppelin/contracts@4.7.3/token/ERC20/ERC20.sol\":8586:8593  account */\n      dup4\n        /* \"@openzeppelin/contracts@4.7.3/token/ERC20/ERC20.sol\":8595:8601  amount */\n      dup4\n        /* \"@openzeppelin/contracts@4.7.3/token/ERC20/ERC20.sol\":8553:8573  _beforeTokenTransfer */\n      tag_177\n        /* \"@openzeppelin/contracts@4.7.3/token/ERC20/ERC20.sol\":8553:8602  _beforeTokenTransfer(address(0), account, amount) */\n      jump\t// in\n    tag_195:\n        /* \"@openzeppelin/contracts@4.7.3/token/ERC20/ERC20.sol\":8629:8635  amount */\n      dup1\n        /* \"@openzeppelin/contracts@4.7.3/token/ERC20/ERC20.sol\":8613:8625  _totalSupply */\n      0x02\n      0x00\n        /* \"@openzeppelin/contracts@4.7.3/token/ERC20/ERC20.sol\":8613:8635  _totalSupply += amount */\n      dup3\n      dup3\n      sload\n      tag_196\n      swap2\n      swap1\n      tag_112\n      jump\t// in\n    tag_196:\n      swap3\n      pop\n      pop\n      dup2\n      swap1\n      sstore\n      pop\n        /* \"@openzeppelin/contracts@4.7.3/token/ERC20/ERC20.sol\":8667:8673  amount */\n      dup1\n        /* \"@openzeppelin/contracts@4.7.3/token/ERC20/ERC20.sol\":8645:8654  _balances */\n      0x00\n        /* \"@openzeppelin/contracts@4.7.3/token/ERC20/ERC20.sol\":8645:8663  _balances[account] */\n      dup1\n        /* \"@openzeppelin/contracts@4.7.3/token/ERC20/ERC20.sol\":8655:8662  account */\n      dup5\n        /* \"@openzeppelin/contracts@4.7.3/token/ERC20/ERC20.sol\":8645:8663  _balances[account] */\n      0xffffffffffffffffffffffffffffffffffffffff\n      and\n      0xffffffffffffffffffffffffffffffffffffffff\n      and\n      dup2\n      mstore\n      0x20\n      add\n      swap1\n      dup2\n      mstore\n      0x20\n      add\n      0x00\n      keccak256\n      0x00\n        /* \"@openzeppelin/contracts@4.7.3/token/ERC20/ERC20.sol\":8645:8673  _balances[account] += amount */\n      dup3\n      dup3\n      sload\n      tag_197\n      swap2\n      swap1\n      tag_112\n      jump\t// in\n    tag_197:\n      swap3\n      pop\n      pop\n      dup2\n      swap1\n      sstore\n      pop\n        /* \"@openzeppelin/contracts@4.7.3/token/ERC20/ERC20.sol\":8709:8716  account */\n      dup2\n        /* \"@openzeppelin/contracts@4.7.3/token/ERC20/ERC20.sol\":8688:8725  Transfer(address(0), account, amount) */\n      0xffffffffffffffffffffffffffffffffffffffff\n      and\n        /* \"@openzeppelin/contracts@4.7.3/token/ERC20/ERC20.sol\":8705:8706  0 */\n      0x00\n        /* \"@openzeppelin/contracts@4.7.3/token/ERC20/ERC20.sol\":8688:8725  Transfer(address(0), account, amount) */\n      0xffffffffffffffffffffffffffffffffffffffff\n      and\n      0xddf252ad1be2c89b69c2b068fc378daa952ba7f163c4a11628f55a4df523b3ef\n        /* \"@openzeppelin/contracts@4.7.3/token/ERC20/ERC20.sol\":8718:8724  amount */\n      dup4\n        /* \"@openzeppelin/contracts@4.7.3/token/ERC20/ERC20.sol\":8688:8725  Transfer(address(0), account, amount) */\n      mload(0x40)\n      tag_198\n      swap2\n      swap1\n      tag_34\n      jump\t// in\n    tag_198:\n      mload(0x40)\n      dup1\n      swap2\n      sub\n      swap1\n      log3\n        /* \"@openzeppelin/contracts@4.7.3/token/ERC20/ERC20.sol\":8736:8784  _afterTokenTransfer(address(0), account, amount) */\n      tag_199\n        /* \"@openzeppelin/contracts@4.7.3/token/ERC20/ERC20.sol\":8764:8765  0 */\n      0x00\n        /* \"@openzeppelin/contracts@4.7.3/token/ERC20/ERC20.sol\":8768:8775  account */\n      dup4\n        /* \"@openzeppelin/contracts@4.7.3/token/ERC20/ERC20.sol\":8777:8783  amount */\n      dup4\n        /* \"@openzeppelin/contracts@4.7.3/token/ERC20/ERC20.sol\":8736:8755  _afterTokenTransfer */\n      tag_184\n        /* \"@openzeppelin/contracts@4.7.3/token/ERC20/ERC20.sol\":8736:8784  _afterTokenTransfer(address(0), account, amount) */\n      jump\t// in\n    tag_199:\n        /* \"@openzeppelin/contracts@4.7.3/token/ERC20/ERC20.sol\":8402:8791  function _mint(address account, uint256 amount) internal virtual {... */\n      pop\n      pop\n      jump\t// out\n        /* \"@openzeppelin/contracts@4.7.3/utils/Counters.sol\":827:939  function current(Counter storage counter) internal view returns (uint256) {... */\n    tag_119:\n        /* \"@openzeppelin/contracts@4.7.3/utils/Counters.sol\":892:899  uint256 */\n      0x00\n        /* \"@openzeppelin/contracts@4.7.3/utils/Counters.sol\":918:925  counter */\n      dup2\n        /* \"@openzeppelin/contracts@4.7.3/utils/Counters.sol\":918:932  counter._value */\n      0x00\n      add\n      sload\n        /* \"@openzeppelin/contracts@4.7.3/utils/Counters.sol\":911:932  return counter._value */\n      swap1\n      pop\n        /* \"@openzeppelin/contracts@4.7.3/utils/Counters.sol\":827:939  function current(Counter storage counter) internal view returns (uint256) {... */\n      swap2\n      swap1\n      pop\n      jump\t// out\n        /* \"@openzeppelin/contracts@4.7.3/token/ERC20/extensions/draft-ERC20Permit.sol\":3129:3332  function _useNonce(address owner) internal virtual returns (uint256 current) {... */\n    tag_141:\n        /* \"@openzeppelin/contracts@4.7.3/token/ERC20/extensions/draft-ERC20Permit.sol\":3189:3204  uint256 current */\n      0x00\n        /* \"@openzeppelin/contracts@4.7.3/token/ERC20/extensions/draft-ERC20Permit.sol\":3216:3246  Counters.Counter storage nonce */\n      dup1\n        /* \"@openzeppelin/contracts@4.7.3/token/ERC20/extensions/draft-ERC20Permit.sol\":3249:3256  _nonces */\n      0x05\n        /* \"@openzeppelin/contracts@4.7.3/token/ERC20/extensions/draft-ERC20Permit.sol\":3249:3263  _nonces[owner] */\n      0x00\n        /* \"@openzeppelin/contracts@4.7.3/token/ERC20/extensions/draft-ERC20Permit.sol\":3257:3262  owner */\n      dup5\n        /* \"@openzeppelin/contracts@4.7.3/token/ERC20/extensions/draft-ERC20Permit.sol\":3249:3263  _nonces[owner] */\n      0xffffffffffffffffffffffffffffffffffffffff\n      and\n      0xffffffffffffffffffffffffffffffffffffffff\n      and\n      dup2\n      mstore\n      0x20\n      add\n      swap1\n      dup2\n      mstore\n      0x20\n      add\n      0x00\n      keccak256\n        /* \"@openzeppelin/contracts@4.7.3/token/ERC20/extensions/draft-ERC20Permit.sol\":3216:3263  Counters.Counter storage nonce = _nonces[owner] */\n      swap1\n      pop\n        /* \"@openzeppelin/contracts@4.7.3/token/ERC20/extensions/draft-ERC20Permit.sol\":3283:3298  nonce.current() */\n      tag_202\n        /* \"@openzeppelin/contracts@4.7.3/token/ERC20/extensions/draft-ERC20Permit.sol\":3283:3288  nonce */\n      dup2\n        /* \"@openzeppelin/contracts@4.7.3/token/ERC20/extensions/draft-ERC20Permit.sol\":3283:3296  nonce.current */\n      tag_119\n        /* \"@openzeppelin/contracts@4.7.3/token/ERC20/extensions/draft-ERC20Permit.sol\":3283:3298  nonce.current() */\n      jump\t// in\n    tag_202:\n        /* \"@openzeppelin/contracts@4.7.3/token/ERC20/extensions/draft-ERC20Permit.sol\":3273:3298  current = nonce.current() */\n      swap2\n      pop\n        /* \"@openzeppelin/contracts@4.7.3/token/ERC20/extensions/draft-ERC20Permit.sol\":3308:3325  nonce.increment() */\n      tag_203\n        /* \"@openzeppelin/contracts@4.7.3/token/ERC20/extensions/draft-ERC20Permit.sol\":3308:3313  nonce */\n      dup2\n        /* \"@openzeppelin/contracts@4.7.3/token/ERC20/extensions/draft-ERC20Permit.sol\":3308:3323  nonce.increment */\n      tag_204\n        /* \"@openzeppelin/contracts@4.7.3/token/ERC20/extensions/draft-ERC20Permit.sol\":3308:3325  nonce.increment() */\n      jump\t// in\n    tag_203:\n        /* \"@openzeppelin/contracts@4.7.3/token/ERC20/extensions/draft-ERC20Permit.sol\":3206:3332  {... */\n      pop\n        /* \"@openzeppelin/contracts@4.7.3/token/ERC20/extensions/draft-ERC20Permit.sol\":3129:3332  function _useNonce(address owner) internal virtual returns (uint256 current) {... */\n      swap2\n      swap1\n      pop\n      jump\t// out\n        /* \"@openzeppelin/contracts@4.7.3/utils/cryptography/draft-EIP712.sol\":4339:4504  function _hashTypedDataV4(bytes32 structHash) internal view virtual returns (bytes32) {... */\n    tag_145:\n        /* \"@openzeppelin/contracts@4.7.3/utils/cryptography/draft-EIP712.sol\":4416:4423  bytes32 */\n      0x00\n        /* \"@openzeppelin/contracts@4.7.3/utils/cryptography/draft-EIP712.sol\":4442:4497  ECDSA.toTypedDataHash(_domainSeparatorV4(), structHash) */\n      tag_206\n        /* \"@openzeppelin/contracts@4.7.3/utils/cryptography/draft-EIP712.sol\":4464:4484  _domainSeparatorV4() */\n      tag_207\n        /* \"@openzeppelin/contracts@4.7.3/utils/cryptography/draft-EIP712.sol\":4464:4482  _domainSeparatorV4 */\n      tag_106\n        /* \"@openzeppelin/contracts@4.7.3/utils/cryptography/draft-EIP712.sol\":4464:4484  _domainSeparatorV4() */\n      jump\t// in\n    tag_207:\n        /* \"@openzeppelin/contracts@4.7.3/utils/cryptography/draft-EIP712.sol\":4486:4496  structHash */\n      dup4\n        /* \"@openzeppelin/contracts@4.7.3/utils/cryptography/draft-EIP712.sol\":4442:4463  ECDSA.toTypedDataHash */\n      tag_208\n        /* \"@openzeppelin/contracts@4.7.3/utils/cryptography/draft-EIP712.sol\":4442:4497  ECDSA.toTypedDataHash(_domainSeparatorV4(), structHash) */\n      jump\t// in\n    tag_206:\n        /* \"@openzeppelin/contracts@4.7.3/utils/cryptography/draft-EIP712.sol\":4435:4497  return ECDSA.toTypedDataHash(_domainSeparatorV4(), structHash) */\n      swap1\n      pop\n        /* \"@openzeppelin/contracts@4.7.3/utils/cryptography/draft-EIP712.sol\":4339:4504  function _hashTypedDataV4(bytes32 structHash) internal view virtual returns (bytes32) {... */\n      swap2\n      swap1\n      pop\n      jump\t// out\n        /* \"@openzeppelin/contracts@4.7.3/utils/cryptography/ECDSA.sol\":6903:7173  function recover(... */\n    tag_147:\n        /* \"@openzeppelin/contracts@4.7.3/utils/cryptography/ECDSA.sol\":7026:7033  address */\n      0x00\n        /* \"@openzeppelin/contracts@4.7.3/utils/cryptography/ECDSA.sol\":7046:7063  address recovered */\n      dup1\n        /* \"@openzeppelin/contracts@4.7.3/utils/cryptography/ECDSA.sol\":7065:7083  RecoverError error */\n      0x00\n        /* \"@openzeppelin/contracts@4.7.3/utils/cryptography/ECDSA.sol\":7087:7112  tryRecover(hash, v, r, s) */\n      tag_210\n        /* \"@openzeppelin/contracts@4.7.3/utils/cryptography/ECDSA.sol\":7098:7102  hash */\n      dup8\n        /* \"@openzeppelin/contracts@4.7.3/utils/cryptography/ECDSA.sol\":7104:7105  v */\n      dup8\n        /* \"@openzeppelin/contracts@4.7.3/utils/cryptography/ECDSA.sol\":7107:7108  r */\n      dup8\n        /* \"@openzeppelin/contracts@4.7.3/utils/cryptography/ECDSA.sol\":7110:7111  s */\n      dup8\n        /* \"@openzeppelin/contracts@4.7.3/utils/cryptography/ECDSA.sol\":7087:7097  tryRecover */\n      tag_211\n        /* \"@openzeppelin/contracts@4.7.3/utils/cryptography/ECDSA.sol\":7087:7112  tryRecover(hash, v, r, s) */\n      jump\t// in\n    tag_210:\n        /* \"@openzeppelin/contracts@4.7.3/utils/cryptography/ECDSA.sol\":7045:7112  (address recovered, RecoverError error) = tryRecover(hash, v, r, s) */\n      swap2\n      pop\n      swap2\n      pop\n        /* \"@openzeppelin/contracts@4.7.3/utils/cryptography/ECDSA.sol\":7122:7140  _throwError(error) */\n      tag_212\n        /* \"@openzeppelin/contracts@4.7.3/utils/cryptography/ECDSA.sol\":7134:7139  error */\n      dup2\n        /* \"@openzeppelin/contracts@4.7.3/utils/cryptography/ECDSA.sol\":7122:7133  _throwError */\n      tag_213\n        /* \"@openzeppelin/contracts@4.7.3/utils/cryptography/ECDSA.sol\":7122:7140  _throwError(error) */\n      jump\t// in\n    tag_212:\n        /* \"@openzeppelin/contracts@4.7.3/utils/cryptography/ECDSA.sol\":7157:7166  recovered */\n      dup2\n        /* \"@openzeppelin/contracts@4.7.3/utils/cryptography/ECDSA.sol\":7150:7166  return recovered */\n      swap3\n      pop\n      pop\n      pop\n        /* \"@openzeppelin/contracts@4.7.3/utils/cryptography/ECDSA.sol\":6903:7173  function recover(... */\n      swap5\n      swap4\n      pop\n      pop\n      pop\n      pop\n      jump\t// out\n        /* \"@openzeppelin/contracts@4.7.3/token/ERC20/ERC20.sol\":11786:11907  function _beforeTokenTransfer(... */\n    tag_177:\n      pop\n      pop\n      pop\n      jump\t// out\n        /* \"@openzeppelin/contracts@4.7.3/token/ERC20/ERC20.sol\":12495:12615  function _afterTokenTransfer(... */\n    tag_184:\n      pop\n      pop\n      pop\n      jump\t// out\n        /* \"@openzeppelin/contracts@4.7.3/utils/cryptography/draft-EIP712.sol\":3457:3714  function _buildDomainSeparator(... */\n    tag_190:\n        /* \"@openzeppelin/contracts@4.7.3/utils/cryptography/draft-EIP712.sol\":3597:3604  bytes32 */\n      0x00\n        /* \"@openzeppelin/contracts@4.7.3/utils/cryptography/draft-EIP712.sol\":3644:3652  typeHash */\n      dup4\n        /* \"@openzeppelin/contracts@4.7.3/utils/cryptography/draft-EIP712.sol\":3654:3662  nameHash */\n      dup4\n        /* \"@openzeppelin/contracts@4.7.3/utils/cryptography/draft-EIP712.sol\":3664:3675  versionHash */\n      dup4\n        /* \"@openzeppelin/contracts@4.7.3/utils/cryptography/draft-EIP712.sol\":3677:3690  block.chainid */\n      chainid\n        /* \"@openzeppelin/contracts@4.7.3/utils/cryptography/draft-EIP712.sol\":3700:3704  this */\n      address\n        /* \"@openzeppelin/contracts@4.7.3/utils/cryptography/draft-EIP712.sol\":3633:3706  abi.encode(typeHash, nameHash, versionHash, block.chainid, address(this)) */\n      add(0x20, mload(0x40))\n      tag_217\n      swap6\n      swap5\n      swap4\n      swap3\n      swap2\n      swap1\n      tag_218\n      jump\t// in\n    tag_217:\n      mload(0x40)\n      0x20\n      dup2\n      dup4\n      sub\n      sub\n      dup2\n      mstore\n      swap1\n      0x40\n      mstore\n        /* \"@openzeppelin/contracts@4.7.3/utils/cryptography/draft-EIP712.sol\":3623:3707  keccak256(abi.encode(typeHash, nameHash, versionHash, block.chainid, address(this))) */\n      dup1\n      mload\n      swap1\n      0x20\n      add\n      keccak256\n        /* \"@openzeppelin/contracts@4.7.3/utils/cryptography/draft-EIP712.sol\":3616:3707  return keccak256(abi.encode(typeHash, nameHash, versionHash, block.chainid, address(this))) */\n      swap1\n      pop\n        /* \"@openzeppelin/contracts@4.7.3/utils/cryptography/draft-EIP712.sol\":3457:3714  function _buildDomainSeparator(... */\n      swap4\n      swap3\n      pop\n      pop\n      pop\n      jump\t// out\n        /* \"@openzeppelin/contracts@4.7.3/utils/Counters.sol\":945:1068  function increment(Counter storage counter) internal {... */\n    tag_204:\n        /* \"@openzeppelin/contracts@4.7.3/utils/Counters.sol\":1050:1051  1 */\n      0x01\n        /* \"@openzeppelin/contracts@4.7.3/utils/Counters.sol\":1032:1039  counter */\n      dup2\n        /* \"@openzeppelin/contracts@4.7.3/utils/Counters.sol\":1032:1046  counter._value */\n      0x00\n      add\n      0x00\n        /* \"@openzeppelin/contracts@4.7.3/utils/Counters.sol\":1032:1051  counter._value += 1 */\n      dup3\n      dup3\n      sload\n      add\n      swap3\n      pop\n      pop\n      dup2\n      swap1\n      sstore\n      pop\n        /* \"@openzeppelin/contracts@4.7.3/utils/Counters.sol\":945:1068  function increment(Counter storage counter) internal {... */\n      pop\n      jump\t// out\n        /* \"@openzeppelin/contracts@4.7.3/utils/cryptography/ECDSA.sol\":8548:8742  function toTypedDataHash(bytes32 domainSeparator, bytes32 structHash) internal pure returns (bytes32) {... */\n    tag_208:\n        /* \"@openzeppelin/contracts@4.7.3/utils/cryptography/ECDSA.sol\":8641:8648  bytes32 */\n      0x00\n        /* \"@openzeppelin/contracts@4.7.3/utils/cryptography/ECDSA.sol\":8706:8721  domainSeparator */\n      dup3\n        /* \"@openzeppelin/contracts@4.7.3/utils/cryptography/ECDSA.sol\":8723:8733  structHash */\n      dup3\n        /* \"@openzeppelin/contracts@4.7.3/utils/cryptography/ECDSA.sol\":8677:8734  abi.encodePacked(\"\\x19\\x01\", domainSeparator, structHash) */\n      add(0x20, mload(0x40))\n      tag_221\n      swap3\n      swap2\n      swap1\n      tag_222\n      jump\t// in\n    tag_221:\n      mload(0x40)\n      0x20\n      dup2\n      dup4\n      sub\n      sub\n      dup2\n      mstore\n      swap1\n      0x40\n      mstore\n        /* \"@openzeppelin/contracts@4.7.3/utils/cryptography/ECDSA.sol\":8667:8735  keccak256(abi.encodePacked(\"\\x19\\x01\", domainSeparator, structHash)) */\n      dup1\n      mload\n      swap1\n      0x20\n      add\n      keccak256\n        /* \"@openzeppelin/contracts@4.7.3/utils/cryptography/ECDSA.sol\":8660:8735  return keccak256(abi.encodePacked(\"\\x19\\x01\", domainSeparator, structHash)) */\n      swap1\n      pop\n        /* \"@openzeppelin/contracts@4.7.3/utils/cryptography/ECDSA.sol\":8548:8742  function toTypedDataHash(bytes32 domainSeparator, bytes32 structHash) internal pure returns (bytes32) {... */\n      swap3\n      swap2\n      pop\n      pop\n      jump\t// out\n        /* \"@openzeppelin/contracts@4.7.3/utils/cryptography/ECDSA.sol\":5167:6770  function tryRecover(... */\n    tag_211:\n        /* \"@openzeppelin/contracts@4.7.3/utils/cryptography/ECDSA.sol\":5293:5300  address */\n      0x00\n        /* \"@openzeppelin/contracts@4.7.3/utils/cryptography/ECDSA.sol\":5302:5314  RecoverError */\n      dup1\n        /* \"@openzeppelin/contracts@4.7.3/utils/cryptography/ECDSA.sol\":6217:6283  0x7FFFFFFFFFFFFFFFFFFFFFFFFFFFFFFF5D576E7357A4501DDFE92F46681B20A0 */\n      0x7fffffffffffffffffffffffffffffff5d576e7357a4501ddfe92f46681b20a0\n        /* \"@openzeppelin/contracts@4.7.3/utils/cryptography/ECDSA.sol\":6212:6213  s */\n      dup4\n        /* \"@openzeppelin/contracts@4.7.3/utils/cryptography/ECDSA.sol\":6204:6214  uint256(s) */\n      0x00\n      shr\n        /* \"@openzeppelin/contracts@4.7.3/utils/cryptography/ECDSA.sol\":6204:6283  uint256(s) > 0x7FFFFFFFFFFFFFFFFFFFFFFFFFFFFFFF5D576E7357A4501DDFE92F46681B20A0 */\n      gt\n        /* \"@openzeppelin/contracts@4.7.3/utils/cryptography/ECDSA.sol\":6200:6361  if (uint256(s) > 0x7FFFFFFFFFFFFFFFFFFFFFFFFFFFFFFF5D576E7357A4501DDFE92F46681B20A0) {... */\n      iszero\n      tag_224\n      jumpi\n        /* \"@openzeppelin/contracts@4.7.3/utils/cryptography/ECDSA.sol\":6315:6316  0 */\n      0x00\n        /* \"@openzeppelin/contracts@4.7.3/utils/cryptography/ECDSA.sol\":6319:6349  RecoverError.InvalidSignatureS */\n      0x03\n        /* \"@openzeppelin/contracts@4.7.3/utils/cryptography/ECDSA.sol\":6299:6350  return (address(0), RecoverError.InvalidSignatureS) */\n      swap2\n      pop\n      swap2\n      pop\n      jump(tag_223)\n        /* \"@openzeppelin/contracts@4.7.3/utils/cryptography/ECDSA.sol\":6200:6361  if (uint256(s) > 0x7FFFFFFFFFFFFFFFFFFFFFFFFFFFFFFF5D576E7357A4501DDFE92F46681B20A0) {... */\n    tag_224:\n        /* \"@openzeppelin/contracts@4.7.3/utils/cryptography/ECDSA.sol\":6379:6381  27 */\n      0x1b\n        /* \"@openzeppelin/contracts@4.7.3/utils/cryptography/ECDSA.sol\":6374:6375  v */\n      dup6\n        /* \"@openzeppelin/contracts@4.7.3/utils/cryptography/ECDSA.sol\":6374:6381  v != 27 */\n      0xff\n      and\n      eq\n      iszero\n        /* \"@openzeppelin/contracts@4.7.3/utils/cryptography/ECDSA.sol\":6374:6392  v != 27 && v != 28 */\n      dup1\n      iszero\n      tag_225\n      jumpi\n      pop\n        /* \"@openzeppelin/contracts@4.7.3/utils/cryptography/ECDSA.sol\":6390:6392  28 */\n      0x1c\n        /* \"@openzeppelin/contracts@4.7.3/utils/cryptography/ECDSA.sol\":6385:6386  v */\n      dup6\n        /* \"@openzeppelin/contracts@4.7.3/utils/cryptography/ECDSA.sol\":6385:6392  v != 28 */\n      0xff\n      and\n      eq\n      iszero\n        /* \"@openzeppelin/contracts@4.7.3/utils/cryptography/ECDSA.sol\":6374:6392  v != 27 && v != 28 */\n    tag_225:\n        /* \"@openzeppelin/contracts@4.7.3/utils/cryptography/ECDSA.sol\":6370:6470  if (v != 27 && v != 28) {... */\n      iszero\n      tag_226\n      jumpi\n        /* \"@openzeppelin/contracts@4.7.3/utils/cryptography/ECDSA.sol\":6424:6425  0 */\n      0x00\n        /* \"@openzeppelin/contracts@4.7.3/utils/cryptography/ECDSA.sol\":6428:6458  RecoverError.InvalidSignatureV */\n      0x04\n        /* \"@openzeppelin/contracts@4.7.3/utils/cryptography/ECDSA.sol\":6408:6459  return (address(0), RecoverError.InvalidSignatureV) */\n      swap2\n      pop\n      swap2\n      pop\n      jump(tag_223)\n        /* \"@openzeppelin/contracts@4.7.3/utils/cryptography/ECDSA.sol\":6370:6470  if (v != 27 && v != 28) {... */\n    tag_226:\n        /* \"@openzeppelin/contracts@4.7.3/utils/cryptography/ECDSA.sol\":6564:6578  address signer */\n      0x00\n        /* \"@openzeppelin/contracts@4.7.3/utils/cryptography/ECDSA.sol\":6581:6605  ecrecover(hash, v, r, s) */\n      0x01\n        /* \"@openzeppelin/contracts@4.7.3/utils/cryptography/ECDSA.sol\":6591:6595  hash */\n      dup8\n        /* \"@openzeppelin/contracts@4.7.3/utils/cryptography/ECDSA.sol\":6597:6598  v */\n      dup8\n        /* \"@openzeppelin/contracts@4.7.3/utils/cryptography/ECDSA.sol\":6600:6601  r */\n      dup8\n        /* \"@openzeppelin/contracts@4.7.3/utils/cryptography/ECDSA.sol\":6603:6604  s */\n      dup8\n        /* \"@openzeppelin/contracts@4.7.3/utils/cryptography/ECDSA.sol\":6581:6605  ecrecover(hash, v, r, s) */\n      mload(0x40)\n      0x00\n      dup2\n      mstore\n      0x20\n      add\n      0x40\n      mstore\n      mload(0x40)\n      tag_227\n      swap5\n      swap4\n      swap3\n      swap2\n      swap1\n      tag_228\n      jump\t// in\n    tag_227:\n      0x20\n      mload(0x40)\n      0x20\n      dup2\n      sub\n      swap1\n      dup1\n      dup5\n      sub\n      swap1\n      dup6\n      gas\n      staticcall\n      iszero\n      dup1\n      iszero\n      tag_230\n      jumpi\n      returndatasize\n      0x00\n      dup1\n      returndatacopy\n      revert(0x00, returndatasize)\n    tag_230:\n      pop\n      pop\n      pop\n      mload(sub(mload(0x40), 0x20))\n        /* \"@openzeppelin/contracts@4.7.3/utils/cryptography/ECDSA.sol\":6564:6605  address signer = ecrecover(hash, v, r, s) */\n      swap1\n      pop\n        /* \"@openzeppelin/contracts@4.7.3/utils/cryptography/ECDSA.sol\":6637:6638  0 */\n      0x00\n        /* \"@openzeppelin/contracts@4.7.3/utils/cryptography/ECDSA.sol\":6619:6639  signer == address(0) */\n      0xffffffffffffffffffffffffffffffffffffffff\n      and\n        /* \"@openzeppelin/contracts@4.7.3/utils/cryptography/ECDSA.sol\":6619:6625  signer */\n      dup2\n        /* \"@openzeppelin/contracts@4.7.3/utils/cryptography/ECDSA.sol\":6619:6639  signer == address(0) */\n      0xffffffffffffffffffffffffffffffffffffffff\n      and\n      sub\n        /* \"@openzeppelin/contracts@4.7.3/utils/cryptography/ECDSA.sol\":6615:6716  if (signer == address(0)) {... */\n      tag_231\n      jumpi\n        /* \"@openzeppelin/contracts@4.7.3/utils/cryptography/ECDSA.sol\":6671:6672  0 */\n      0x00\n        /* \"@openzeppelin/contracts@4.7.3/utils/cryptography/ECDSA.sol\":6675:6704  RecoverError.InvalidSignature */\n      0x01\n        /* \"@openzeppelin/contracts@4.7.3/utils/cryptography/ECDSA.sol\":6655:6705  return (address(0), RecoverError.InvalidSignature) */\n      swap3\n      pop\n      swap3\n      pop\n      pop\n      jump(tag_223)\n        /* \"@openzeppelin/contracts@4.7.3/utils/cryptography/ECDSA.sol\":6615:6716  if (signer == address(0)) {... */\n    tag_231:\n        /* \"@openzeppelin/contracts@4.7.3/utils/cryptography/ECDSA.sol\":6734:6740  signer */\n      dup1\n        /* \"@openzeppelin/contracts@4.7.3/utils/cryptography/ECDSA.sol\":6742:6762  RecoverError.NoError */\n      0x00\n        /* \"@openzeppelin/contracts@4.7.3/utils/cryptography/ECDSA.sol\":6726:6763  return (signer, RecoverError.NoError) */\n      swap3\n      pop\n      swap3\n      pop\n      pop\n        /* \"@openzeppelin/contracts@4.7.3/utils/cryptography/ECDSA.sol\":5167:6770  function tryRecover(... */\n    tag_223:\n      swap5\n      pop\n      swap5\n      swap3\n      pop\n      pop\n      pop\n      jump\t// out\n        /* \"@openzeppelin/contracts@4.7.3/utils/cryptography/ECDSA.sol\":548:1179  function _throwError(RecoverError error) private pure {... */\n    tag_213:\n        /* \"@openzeppelin/contracts@4.7.3/utils/cryptography/ECDSA.sol\":625:645  RecoverError.NoError */\n      0x00\n        /* \"@openzeppelin/contracts@4.7.3/utils/cryptography/ECDSA.sol\":616:645  error == RecoverError.NoError */\n      0x04\n      dup2\n      gt\n      iszero\n      tag_233\n      jumpi\n      tag_234\n      tag_235\n      jump\t// in\n    tag_234:\n    tag_233:\n        /* \"@openzeppelin/contracts@4.7.3/utils/cryptography/ECDSA.sol\":616:621  error */\n      dup2\n        /* \"@openzeppelin/contracts@4.7.3/utils/cryptography/ECDSA.sol\":616:645  error == RecoverError.NoError */\n      0x04\n      dup2\n      gt\n      iszero\n      tag_236\n      jumpi\n      tag_237\n      tag_235\n      jump\t// in\n    tag_237:\n    tag_236:\n      sub\n        /* \"@openzeppelin/contracts@4.7.3/utils/cryptography/ECDSA.sol\":612:1173  if (error == RecoverError.NoError) {... */\n      iszero\n        /* \"@openzeppelin/contracts@4.7.3/utils/cryptography/ECDSA.sol\":661:668  return; */\n      tag_232\n        /* \"@openzeppelin/contracts@4.7.3/utils/cryptography/ECDSA.sol\":612:1173  if (error == RecoverError.NoError) {... */\n      jumpi\n        /* \"@openzeppelin/contracts@4.7.3/utils/cryptography/ECDSA.sol\":721:750  RecoverError.InvalidSignature */\n      0x01\n        /* \"@openzeppelin/contracts@4.7.3/utils/cryptography/ECDSA.sol\":712:750  error == RecoverError.InvalidSignature */\n      0x04\n      dup2\n      gt\n      iszero\n      tag_240\n      jumpi\n      tag_241\n      tag_235\n      jump\t// in\n    tag_241:\n    tag_240:\n        /* \"@openzeppelin/contracts@4.7.3/utils/cryptography/ECDSA.sol\":712:717  error */\n      dup2\n        /* \"@openzeppelin/contracts@4.7.3/utils/cryptography/ECDSA.sol\":712:750  error == RecoverError.InvalidSignature */\n      0x04\n      dup2\n      gt\n      iszero\n      tag_242\n      jumpi\n      tag_243\n      tag_235\n      jump\t// in\n    tag_243:\n    tag_242:\n      sub\n        /* \"@openzeppelin/contracts@4.7.3/utils/cryptography/ECDSA.sol\":708:1173  if (error == RecoverError.InvalidSignature) {... */\n      tag_244\n      jumpi\n        /* \"@openzeppelin/contracts@4.7.3/utils/cryptography/ECDSA.sol\":766:800  revert(\"ECDSA: invalid signature\") */\n      mload(0x40)\n      0x08c379a000000000000000000000000000000000000000000000000000000000\n      dup2\n      mstore\n      0x04\n      add\n      tag_245\n      swap1\n      tag_246\n      jump\t// in\n    tag_245:\n      mload(0x40)\n      dup1\n      swap2\n      sub\n      swap1\n      revert\n        /* \"@openzeppelin/contracts@4.7.3/utils/cryptography/ECDSA.sol\":708:1173  if (error == RecoverError.InvalidSignature) {... */\n    tag_244:\n        /* \"@openzeppelin/contracts@4.7.3/utils/cryptography/ECDSA.sol\":830:865  RecoverError.InvalidSignatureLength */\n      0x02\n        /* \"@openzeppelin/contracts@4.7.3/utils/cryptography/ECDSA.sol\":821:865  error == RecoverError.InvalidSignatureLength */\n      0x04\n      dup2\n      gt\n      iszero\n      tag_248\n      jumpi\n      tag_249\n      tag_235\n      jump\t// in\n    tag_249:\n    tag_248:\n        /* \"@openzeppelin/contracts@4.7.3/utils/cryptography/ECDSA.sol\":821:826  error */\n      dup2\n        /* \"@openzeppelin/contracts@4.7.3/utils/cryptography/ECDSA.sol\":821:865  error == RecoverError.InvalidSignatureLength */\n      0x04\n      dup2\n      gt\n      iszero\n      tag_250\n      jumpi\n      tag_251\n      tag_235\n      jump\t// in\n    tag_251:\n    tag_250:\n      sub\n        /* \"@openzeppelin/contracts@4.7.3/utils/cryptography/ECDSA.sol\":817:1173  if (error == RecoverError.InvalidSignatureLength) {... */\n      tag_252\n      jumpi\n        /* \"@openzeppelin/contracts@4.7.3/utils/cryptography/ECDSA.sol\":881:922  revert(\"ECDSA: invalid signature length\") */\n      mload(0x40)\n      0x08c379a000000000000000000000000000000000000000000000000000000000\n      dup2\n      mstore\n      0x04\n      add\n      tag_253\n      swap1\n      tag_254\n      jump\t// in\n    tag_253:\n      mload(0x40)\n      dup1\n      swap2\n      sub\n      swap1\n      revert\n        /* \"@openzeppelin/contracts@4.7.3/utils/cryptography/ECDSA.sol\":817:1173  if (error == RecoverError.InvalidSignatureLength) {... */\n    tag_252:\n        /* \"@openzeppelin/contracts@4.7.3/utils/cryptography/ECDSA.sol\":952:982  RecoverError.InvalidSignatureS */\n      0x03\n        /* \"@openzeppelin/contracts@4.7.3/utils/cryptography/ECDSA.sol\":943:982  error == RecoverError.InvalidSignatureS */\n      0x04\n      dup2\n      gt\n      iszero\n      tag_256\n      jumpi\n      tag_257\n      tag_235\n      jump\t// in\n    tag_257:\n    tag_256:\n        /* \"@openzeppelin/contracts@4.7.3/utils/cryptography/ECDSA.sol\":943:948  error */\n      dup2\n        /* \"@openzeppelin/contracts@4.7.3/utils/cryptography/ECDSA.sol\":943:982  error == RecoverError.InvalidSignatureS */\n      0x04\n      dup2\n      gt\n      iszero\n      tag_258\n      jumpi\n      tag_259\n      tag_235\n      jump\t// in\n    tag_259:\n    tag_258:\n      sub\n        /* \"@openzeppelin/contracts@4.7.3/utils/cryptography/ECDSA.sol\":939:1173  if (error == RecoverError.InvalidSignatureS) {... */\n      tag_260\n      jumpi\n        /* \"@openzeppelin/contracts@4.7.3/utils/cryptography/ECDSA.sol\":998:1042  revert(\"ECDSA: invalid signature 's' value\") */\n      mload(0x40)\n      0x08c379a000000000000000000000000000000000000000000000000000000000\n      dup2\n      mstore\n      0x04\n      add\n      tag_261\n      swap1\n      tag_262\n      jump\t// in\n    tag_261:\n      mload(0x40)\n      dup1\n      swap2\n      sub\n      swap1\n      revert\n        /* \"@openzeppelin/contracts@4.7.3/utils/cryptography/ECDSA.sol\":939:1173  if (error == RecoverError.InvalidSignatureS) {... */\n    tag_260:\n        /* \"@openzeppelin/contracts@4.7.3/utils/cryptography/ECDSA.sol\":1072:1102  RecoverError.InvalidSignatureV */\n      0x04\n        /* \"@openzeppelin/contracts@4.7.3/utils/cryptography/ECDSA.sol\":1063:1102  error == RecoverError.InvalidSignatureV */\n      dup1\n      dup2\n      gt\n      iszero\n      tag_264\n      jumpi\n      tag_265\n      tag_235\n      jump\t// in\n    tag_265:\n    tag_264:\n        /* \"@openzeppelin/contracts@4.7.3/utils/cryptography/ECDSA.sol\":1063:1068  error */\n      dup2\n        /* \"@openzeppelin/contracts@4.7.3/utils/cryptography/ECDSA.sol\":1063:1102  error == RecoverError.InvalidSignatureV */\n      0x04\n      dup2\n      gt\n      iszero\n      tag_266\n      jumpi\n      tag_267\n      tag_235\n      jump\t// in\n    tag_267:\n    tag_266:\n      sub\n        /* \"@openzeppelin/contracts@4.7.3/utils/cryptography/ECDSA.sol\":1059:1173  if (error == RecoverError.InvalidSignatureV) {... */\n      tag_268\n      jumpi\n        /* \"@openzeppelin/contracts@4.7.3/utils/cryptography/ECDSA.sol\":1118:1162  revert(\"ECDSA: invalid signature 'v' value\") */\n      mload(0x40)\n      0x08c379a000000000000000000000000000000000000000000000000000000000\n      dup2\n      mstore\n      0x04\n      add\n      tag_269\n      swap1\n      tag_270\n      jump\t// in\n    tag_269:\n      mload(0x40)\n      dup1\n      swap2\n      sub\n      swap1\n      revert\n        /* \"@openzeppelin/contracts@4.7.3/utils/cryptography/ECDSA.sol\":1059:1173  if (error == RecoverError.InvalidSignatureV) {... */\n    tag_268:\n        /* \"@openzeppelin/contracts@4.7.3/utils/cryptography/ECDSA.sol\":548:1179  function _throwError(RecoverError error) private pure {... */\n    tag_232:\n      pop\n      jump\t// out\n        /* \"#utility.yul\":7:106   */\n    tag_271:\n        /* \"#utility.yul\":59:65   */\n      0x00\n        /* \"#utility.yul\":93:98   */\n      dup2\n        /* \"#utility.yul\":87:99   */\n      mload\n        /* \"#utility.yul\":77:99   */\n      swap1\n      pop\n        /* \"#utility.yul\":7:106   */\n      swap2\n      swap1\n      pop\n      jump\t// out\n        /* \"#utility.yul\":112:281   */\n    tag_272:\n        /* \"#utility.yul\":196:207   */\n      0x00\n        /* \"#utility.yul\":230:236   */\n      dup3\n        /* \"#utility.yul\":225:228   */\n      dup3\n        /* \"#utility.yul\":218:237   */\n      mstore\n        /* \"#utility.yul\":270:274   */\n      0x20\n        /* \"#utility.yul\":265:268   */\n      dup3\n        /* \"#utility.yul\":261:275   */\n      add\n        /* \"#utility.yul\":246:275   */\n      swap1\n      pop\n        /* \"#utility.yul\":112:281   */\n      swap3\n      swap2\n      pop\n      pop\n      jump\t// out\n        /* \"#utility.yul\":287:426   */\n    tag_273:\n        /* \"#utility.yul\":376:382   */\n      dup3\n        /* \"#utility.yul\":371:374   */\n      dup2\n        /* \"#utility.yul\":366:369   */\n      dup4\n        /* \"#utility.yul\":360:383   */\n      mcopy\n        /* \"#utility.yul\":417:418   */\n      0x00\n        /* \"#utility.yul\":408:414   */\n      dup4\n        /* \"#utility.yul\":403:406   */\n      dup4\n        /* \"#utility.yul\":399:415   */\n      add\n        /* \"#utility.yul\":392:419   */\n      mstore\n        /* \"#utility.yul\":287:426   */\n      pop\n      pop\n      pop\n      jump\t// out\n        /* \"#utility.yul\":432:534   */\n    tag_274:\n        /* \"#utility.yul\":473:479   */\n      0x00\n        /* \"#utility.yul\":524:526   */\n      0x1f\n        /* \"#utility.yul\":520:527   */\n      not\n        /* \"#utility.yul\":515:517   */\n      0x1f\n        /* \"#utility.yul\":508:513   */\n      dup4\n        /* \"#utility.yul\":504:518   */\n      add\n        /* \"#utility.yul\":500:528   */\n      and\n        /* \"#utility.yul\":490:528   */\n      swap1\n      pop\n        /* \"#utility.yul\":432:534   */\n      swap2\n      swap1\n      pop\n      jump\t// out\n        /* \"#utility.yul\":540:917   */\n    tag_275:\n        /* \"#utility.yul\":628:631   */\n      0x00\n        /* \"#utility.yul\":656:695   */\n      tag_339\n        /* \"#utility.yul\":689:694   */\n      dup3\n        /* \"#utility.yul\":656:695   */\n      tag_271\n      jump\t// in\n    tag_339:\n        /* \"#utility.yul\":711:782   */\n      tag_340\n        /* \"#utility.yul\":775:781   */\n      dup2\n        /* \"#utility.yul\":770:773   */\n      dup6\n        /* \"#utility.yul\":711:782   */\n      tag_272\n      jump\t// in\n    tag_340:\n        /* \"#utility.yul\":704:782   */\n      swap4\n      pop\n        /* \"#utility.yul\":791:856   */\n      tag_341\n        /* \"#utility.yul\":849:855   */\n      dup2\n        /* \"#utility.yul\":844:847   */\n      dup6\n        /* \"#utility.yul\":837:841   */\n      0x20\n        /* \"#utility.yul\":830:835   */\n      dup7\n        /* \"#utility.yul\":826:842   */\n      add\n        /* \"#utility.yul\":791:856   */\n      tag_273\n      jump\t// in\n    tag_341:\n        /* \"#utility.yul\":881:910   */\n      tag_342\n        /* \"#utility.yul\":903:909   */\n      dup2\n        /* \"#utility.yul\":881:910   */\n      tag_274\n      jump\t// in\n    tag_342:\n        /* \"#utility.yul\":876:879   */\n      dup5\n        /* \"#utility.yul\":872:911   */\n      add\n        /* \"#utility.yul\":865:911   */\n      swap2\n      pop\n        /* \"#utility.yul\":632:917   */\n      pop\n        /* \"#utility.yul\":540:917   */\n      swap3\n      swap2\n      pop\n      pop\n      jump\t// out\n        /* \"#utility.yul\":923:1236   */\n    tag_24:\n        /* \"#utility.yul\":1036:1040   */\n      0x00\n        /* \"#utility.yul\":1074:1076   */\n      0x20\n        /* \"#utility.yul\":1063:1072   */\n      dup3\n        /* \"#utility.yul\":1059:1077   */\n      add\n        /* \"#utility.yul\":1051:1077   */\n      swap1\n      pop\n        /* \"#utility.yul\":1123:1132   */\n      dup2\n        /* \"#utility.yul\":1117:1121   */\n      dup2\n        /* \"#utility.yul\":1113:1133   */\n      sub\n        /* \"#utility.yul\":1109:1110   */\n      0x00\n        /* \"#utility.yul\":1098:1107   */\n      dup4\n        /* \"#utility.yul\":1094:1111   */\n      add\n        /* \"#utility.yul\":1087:1134   */\n      mstore\n        /* \"#utility.yul\":1151:1229   */\n      tag_344\n        /* \"#utility.yul\":1224:1228   */\n      dup2\n        /* \"#utility.yul\":1215:1221   */\n      dup5\n        /* \"#utility.yul\":1151:1229   */\n      tag_275\n      jump\t// in\n    tag_344:\n        /* \"#utility.yul\":1143:1229   */\n      swap1\n      pop\n        /* \"#utility.yul\":923:1236   */\n      swap3\n      swap2\n      pop\n      pop\n      jump\t// out\n        /* \"#utility.yul\":1323:1440   */\n    tag_277:\n        /* \"#utility.yul\":1432:1433   */\n      0x00\n        /* \"#utility.yul\":1429:1430   */\n      dup1\n        /* \"#utility.yul\":1422:1434   */\n      revert\n        /* \"#utility.yul\":1569:1695   */\n    tag_279:\n        /* \"#utility.yul\":1606:1613   */\n      0x00\n        /* \"#utility.yul\":1646:1688   */\n      0xffffffffffffffffffffffffffffffffffffffff\n        /* \"#utility.yul\":1639:1644   */\n      dup3\n        /* \"#utility.yul\":1635:1689   */\n      and\n        /* \"#utility.yul\":1624:1689   */\n      swap1\n      pop\n        /* \"#utility.yul\":1569:1695   */\n      swap2\n      swap1\n      pop\n      jump\t// out\n        /* \"#utility.yul\":1701:1797   */\n    tag_280:\n        /* \"#utility.yul\":1738:1745   */\n      0x00\n        /* \"#utility.yul\":1767:1791   */\n      tag_350\n        /* \"#utility.yul\":1785:1790   */\n      dup3\n        /* \"#utility.yul\":1767:1791   */\n      tag_279\n      jump\t// in\n    tag_350:\n        /* \"#utility.yul\":1756:1791   */\n      swap1\n      pop\n        /* \"#utility.yul\":1701:1797   */\n      swap2\n      swap1\n      pop\n      jump\t// out\n        /* \"#utility.yul\":1803:1925   */\n    tag_281:\n        /* \"#utility.yul\":1876:1900   */\n      tag_352\n        /* \"#utility.yul\":1894:1899   */\n      dup2\n        /* \"#utility.yul\":1876:1900   */\n      tag_280\n      jump\t// in\n    tag_352:\n        /* \"#utility.yul\":1869:1874   */\n      dup2\n        /* \"#utility.yul\":1866:1901   */\n      eq\n        /* \"#utility.yul\":1856:1919   */\n      tag_353\n      jumpi\n        /* \"#utility.yul\":1915:1916   */\n      0x00\n        /* \"#utility.yul\":1912:1913   */\n      dup1\n        /* \"#utility.yul\":1905:1917   */\n      revert\n        /* \"#utility.yul\":1856:1919   */\n    tag_353:\n        /* \"#utility.yul\":1803:1925   */\n      pop\n      jump\t// out\n        /* \"#utility.yul\":1931:2070   */\n    tag_282:\n        /* \"#utility.yul\":1977:1982   */\n      0x00\n        /* \"#utility.yul\":2015:2021   */\n      dup2\n        /* \"#utility.yul\":2002:2022   */\n      calldataload\n        /* \"#utility.yul\":1993:2022   */\n      swap1\n      pop\n        /* \"#utility.yul\":2031:2064   */\n      tag_355\n        /* \"#utility.yul\":2058:2063   */\n      dup2\n        /* \"#utility.yul\":2031:2064   */\n      tag_281\n      jump\t// in\n    tag_355:\n        /* \"#utility.yul\":1931:2070   */\n      swap3\n      swap2\n      pop\n      pop\n      jump\t// out\n        /* \"#utility.yul\":2076:2153   */\n    tag_283:\n        /* \"#utility.yul\":2113:2120   */\n      0x00\n        /* \"#utility.yul\":2142:2147   */\n      dup2\n        /* \"#utility.yul\":2131:2147   */\n      swap1\n      pop\n        /* \"#utility.yul\":2076:2153   */\n      swap2\n      swap1\n      pop\n      jump\t// out\n        /* \"#utility.yul\":2159:2281   */\n    tag_284:\n        /* \"#utility.yul\":2232:2256   */\n      tag_358\n        /* \"#utility.yul\":2250:2255   */\n      dup2\n        /* \"#utility.yul\":2232:2256   */\n      tag_283\n      jump\t// in\n    tag_358:\n        /* \"#utility.yul\":2225:2230   */\n      dup2\n        /* \"#utility.yul\":2222:2257   */\n      eq\n        /* \"#utility.yul\":2212:2275   */\n      tag_359\n      jumpi\n        /* \"#utility.yul\":2271:2272   */\n      0x00\n        /* \"#utility.yul\":2268:2269   */\n      dup1\n        /* \"#utility.yul\":2261:2273   */\n      revert\n        /* \"#utility.yul\":2212:2275   */\n    tag_359:\n        /* \"#utility.yul\":2159:2281   */\n      pop\n      jump\t// out\n        /* \"#utility.yul\":2287:2426   */\n    tag_285:\n        /* \"#utility.yul\":2333:2338   */\n      0x00\n        /* \"#utility.yul\":2371:2377   */\n      dup2\n        /* \"#utility.yul\":2358:2378   */\n      calldataload\n        /* \"#utility.yul\":2349:2378   */\n      swap1\n      pop\n        /* \"#utility.yul\":2387:2420   */\n      tag_361\n        /* \"#utility.yul\":2414:2419   */\n      dup2\n        /* \"#utility.yul\":2387:2420   */\n      tag_284\n      jump\t// in\n    tag_361:\n        /* \"#utility.yul\":2287:2426   */\n      swap3\n      swap2\n      pop\n      pop\n      jump\t// out\n        /* \"#utility.yul\":2432:2906   */\n    tag_27:\n        /* \"#utility.yul\":2500:2506   */\n      0x00\n        /* \"#utility.yul\":2508:2514   */\n      dup1\n        /* \"#utility.yul\":2557:2559   */\n      0x40\n        /* \"#utility.yul\":2545:2554   */\n      dup4\n        /* \"#utility.yul\":2536:2543   */\n      dup6\n        /* \"#utility.yul\":2532:2555   */\n      sub\n        /* \"#utility.yul\":2528:2560   */\n      slt\n        /* \"#utility.yul\":2525:2644   */\n      iszero\n      tag_363\n      jumpi\n        /* \"#utility.yul\":2563:2642   */\n      tag_364\n      tag_277\n      jump\t// in\n    tag_364:\n        /* \"#utility.yul\":2525:2644   */\n    tag_363:\n        /* \"#utility.yul\":2683:2684   */\n      0x00\n        /* \"#utility.yul\":2708:2761   */\n      tag_365\n        /* \"#utility.yul\":2753:2760   */\n      dup6\n        /* \"#utility.yul\":2744:2750   */\n      dup3\n        /* \"#utility.yul\":2733:2742   */\n      dup7\n        /* \"#utility.yul\":2729:2751   */\n      add\n        /* \"#utility.yul\":2708:2761   */\n      tag_282\n      jump\t// in\n    tag_365:\n        /* \"#utility.yul\":2698:2761   */\n      swap3\n      pop\n        /* \"#utility.yul\":2654:2771   */\n      pop\n        /* \"#utility.yul\":2810:2812   */\n      0x20\n        /* \"#utility.yul\":2836:2889   */\n      tag_366\n        /* \"#utility.yul\":2881:2888   */\n      dup6\n        /* \"#utility.yul\":2872:2878   */\n      dup3\n        /* \"#utility.yul\":2861:2870   */\n      dup7\n        /* \"#utility.yul\":2857:2879   */\n      add\n        /* \"#utility.yul\":2836:2889   */\n      tag_285\n      jump\t// in\n    tag_366:\n        /* \"#utility.yul\":2826:2889   */\n      swap2\n      pop\n        /* \"#utility.yul\":2781:2899   */\n      pop\n        /* \"#utility.yul\":2432:2906   */\n      swap3\n      pop\n      swap3\n      swap1\n      pop\n      jump\t// out\n        /* \"#utility.yul\":2912:3002   */\n    tag_286:\n        /* \"#utility.yul\":2946:2953   */\n      0x00\n        /* \"#utility.yul\":2989:2994   */\n      dup2\n        /* \"#utility.yul\":2982:2995   */\n      iszero\n        /* \"#utility.yul\":2975:2996   */\n      iszero\n        /* \"#utility.yul\":2964:2996   */\n      swap1\n      pop\n        /* \"#utility.yul\":2912:3002   */\n      swap2\n      swap1\n      pop\n      jump\t// out\n        /* \"#utility.yul\":3008:3117   */\n    tag_287:\n        /* \"#utility.yul\":3089:3110   */\n      tag_369\n        /* \"#utility.yul\":3104:3109   */\n      dup2\n        /* \"#utility.yul\":3089:3110   */\n      tag_286\n      jump\t// in\n    tag_369:\n        /* \"#utility.yul\":3084:3087   */\n      dup3\n        /* \"#utility.yul\":3077:3111   */\n      mstore\n        /* \"#utility.yul\":3008:3117   */\n      pop\n      pop\n      jump\t// out\n        /* \"#utility.yul\":3123:3333   */\n    tag_30:\n        /* \"#utility.yul\":3210:3214   */\n      0x00\n        /* \"#utility.yul\":3248:3250   */\n      0x20\n        /* \"#utility.yul\":3237:3246   */\n      dup3\n        /* \"#utility.yul\":3233:3251   */\n      add\n        /* \"#utility.yul\":3225:3251   */\n      swap1\n      pop\n        /* \"#utility.yul\":3261:3326   */\n      tag_371\n        /* \"#utility.yul\":3323:3324   */\n      0x00\n        /* \"#utility.yul\":3312:3321   */\n      dup4\n        /* \"#utility.yul\":3308:3325   */\n      add\n        /* \"#utility.yul\":3299:3305   */\n      dup5\n        /* \"#utility.yul\":3261:3326   */\n      tag_287\n      jump\t// in\n    tag_371:\n        /* \"#utility.yul\":3123:3333   */\n      swap3\n      swap2\n      pop\n      pop\n      jump\t// out\n        /* \"#utility.yul\":3339:3457   */\n    tag_288:\n        /* \"#utility.yul\":3426:3450   */\n      tag_373\n        /* \"#utility.yul\":3444:3449   */\n      dup2\n        /* \"#utility.yul\":3426:3450   */\n      tag_283\n      jump\t// in\n    tag_373:\n        /* \"#utility.yul\":3421:3424   */\n      dup3\n        /* \"#utility.yul\":3414:3451   */\n      mstore\n        /* \"#utility.yul\":3339:3457   */\n      pop\n      pop\n      jump\t// out\n        /* \"#utility.yul\":3463:3685   */\n    tag_34:\n        /* \"#utility.yul\":3556:3560   */\n      0x00\n        /* \"#utility.yul\":3594:3596   */\n      0x20\n        /* \"#utility.yul\":3583:3592   */\n      dup3\n        /* \"#utility.yul\":3579:3597   */\n      add\n        /* \"#utility.yul\":3571:3597   */\n      swap1\n      pop\n        /* \"#utility.yul\":3607:3678   */\n      tag_375\n        /* \"#utility.yul\":3675:3676   */\n      0x00\n        /* \"#utility.yul\":3664:3673   */\n      dup4\n        /* \"#utility.yul\":3660:3677   */\n      add\n        /* \"#utility.yul\":3651:3657   */\n      dup5\n        /* \"#utility.yul\":3607:3678   */\n      tag_288\n      jump\t// in\n    tag_375:\n        /* \"#utility.yul\":3463:3685   */\n      swap3\n      swap2\n      pop\n      pop\n      jump\t// out\n        /* \"#utility.yul\":3691:4310   */\n    tag_37:\n        /* \"#utility.yul\":3768:3774   */\n      0x00\n        /* \"#utility.yul\":3776:3782   */\n      dup1\n        /* \"#utility.yul\":3784:3790   */\n      0x00\n        /* \"#utility.yul\":3833:3835   */\n      0x60\n        /* \"#utility.yul\":3821:3830   */\n      dup5\n        /* \"#utility.yul\":3812:3819   */\n      dup7\n        /* \"#utility.yul\":3808:3831   */\n      sub\n        /* \"#utility.yul\":3804:3836   */\n      slt\n        /* \"#utility.yul\":3801:3920   */\n      iszero\n      tag_377\n      jumpi\n        /* \"#utility.yul\":3839:3918   */\n      tag_378\n      tag_277\n      jump\t// in\n    tag_378:\n        /* \"#utility.yul\":3801:3920   */\n    tag_377:\n        /* \"#utility.yul\":3959:3960   */\n      0x00\n        /* \"#utility.yul\":3984:4037   */\n      tag_379\n        /* \"#utility.yul\":4029:4036   */\n      dup7\n        /* \"#utility.yul\":4020:4026   */\n      dup3\n        /* \"#utility.yul\":4009:4018   */\n      dup8\n        /* \"#utility.yul\":4005:4027   */\n      add\n        /* \"#utility.yul\":3984:4037   */\n      tag_282\n      jump\t// in\n    tag_379:\n        /* \"#utility.yul\":3974:4037   */\n      swap4\n      pop\n        /* \"#utility.yul\":3930:4047   */\n      pop\n        /* \"#utility.yul\":4086:4088   */\n      0x20\n        /* \"#utility.yul\":4112:4165   */\n      tag_380\n        /* \"#utility.yul\":4157:4164   */\n      dup7\n        /* \"#utility.yul\":4148:4154   */\n      dup3\n        /* \"#utility.yul\":4137:4146   */\n      dup8\n        /* \"#utility.yul\":4133:4155   */\n      add\n        /* \"#utility.yul\":4112:4165   */\n      tag_282\n      jump\t// in\n    tag_380:\n        /* \"#utility.yul\":4102:4165   */\n      swap3\n      pop\n        /* \"#utility.yul\":4057:4175   */\n      pop\n        /* \"#utility.yul\":4214:4216   */\n      0x40\n        /* \"#utility.yul\":4240:4293   */\n      tag_381\n        /* \"#utility.yul\":4285:4292   */\n      dup7\n        /* \"#utility.yul\":4276:4282   */\n      dup3\n        /* \"#utility.yul\":4265:4274   */\n      dup8\n        /* \"#utility.yul\":4261:4283   */\n      add\n        /* \"#utility.yul\":4240:4293   */\n      tag_285\n      jump\t// in\n    tag_381:\n        /* \"#utility.yul\":4230:4293   */\n      swap2\n      pop\n        /* \"#utility.yul\":4185:4303   */\n      pop\n        /* \"#utility.yul\":3691:4310   */\n      swap3\n      pop\n      swap3\n      pop\n      swap3\n      jump\t// out\n        /* \"#utility.yul\":4316:4402   */\n    tag_289:\n        /* \"#utility.yul\":4351:4358   */\n      0x00\n        /* \"#utility.yul\":4391:4395   */\n      0xff\n        /* \"#utility.yul\":4384:4389   */\n      dup3\n        /* \"#utility.yul\":4380:4396   */\n      and\n        /* \"#utility.yul\":4369:4396   */\n      swap1\n      pop\n        /* \"#utility.yul\":4316:4402   */\n      swap2\n      swap1\n      pop\n      jump\t// out\n        /* \"#utility.yul\":4408:4520   */\n    tag_290:\n        /* \"#utility.yul\":4491:4513   */\n      tag_384\n        /* \"#utility.yul\":4507:4512   */\n      dup2\n        /* \"#utility.yul\":4491:4513   */\n      tag_289\n      jump\t// in\n    tag_384:\n        /* \"#utility.yul\":4486:4489   */\n      dup3\n        /* \"#utility.yul\":4479:4514   */\n      mstore\n        /* \"#utility.yul\":4408:4520   */\n      pop\n      pop\n      jump\t// out\n        /* \"#utility.yul\":4526:4740   */\n    tag_43:\n        /* \"#utility.yul\":4615:4619   */\n      0x00\n        /* \"#utility.yul\":4653:4655   */\n      0x20\n        /* \"#utility.yul\":4642:4651   */\n      dup3\n        /* \"#utility.yul\":4638:4656   */\n      add\n        /* \"#utility.yul\":4630:4656   */\n      swap1\n      pop\n        /* \"#utility.yul\":4666:4733   */\n      tag_386\n        /* \"#utility.yul\":4730:4731   */\n      0x00\n        /* \"#utility.yul\":4719:4728   */\n      dup4\n        /* \"#utility.yul\":4715:4732   */\n      add\n        /* \"#utility.yul\":4706:4712   */\n      dup5\n        /* \"#utility.yul\":4666:4733   */\n      tag_290\n      jump\t// in\n    tag_386:\n        /* \"#utility.yul\":4526:4740   */\n      swap3\n      swap2\n      pop\n      pop\n      jump\t// out\n        /* \"#utility.yul\":4746:4823   */\n    tag_291:\n        /* \"#utility.yul\":4783:4790   */\n      0x00\n        /* \"#utility.yul\":4812:4817   */\n      dup2\n        /* \"#utility.yul\":4801:4817   */\n      swap1\n      pop\n        /* \"#utility.yul\":4746:4823   */\n      swap2\n      swap1\n      pop\n      jump\t// out\n        /* \"#utility.yul\":4829:4947   */\n    tag_292:\n        /* \"#utility.yul\":4916:4940   */\n      tag_389\n        /* \"#utility.yul\":4934:4939   */\n      dup2\n        /* \"#utility.yul\":4916:4940   */\n      tag_291\n      jump\t// in\n    tag_389:\n        /* \"#utility.yul\":4911:4914   */\n      dup3\n        /* \"#utility.yul\":4904:4941   */\n      mstore\n        /* \"#utility.yul\":4829:4947   */\n      pop\n      pop\n      jump\t// out\n        /* \"#utility.yul\":4953:5175   */\n    tag_47:\n        /* \"#utility.yul\":5046:5050   */\n      0x00\n        /* \"#utility.yul\":5084:5086   */\n      0x20\n        /* \"#utility.yul\":5073:5082   */\n      dup3\n        /* \"#utility.yul\":5069:5087   */\n      add\n        /* \"#utility.yul\":5061:5087   */\n      swap1\n      pop\n        /* \"#utility.yul\":5097:5168   */\n      tag_391\n        /* \"#utility.yul\":5165:5166   */\n      0x00\n        /* \"#utility.yul\":5154:5163   */\n      dup4\n        /* \"#utility.yul\":5150:5167   */\n      add\n        /* \"#utility.yul\":5141:5147   */\n      dup5\n        /* \"#utility.yul\":5097:5168   */\n      tag_292\n      jump\t// in\n    tag_391:\n        /* \"#utility.yul\":4953:5175   */\n      swap3\n      swap2\n      pop\n      pop\n      jump\t// out\n        /* \"#utility.yul\":5181:5510   */\n    tag_57:\n        /* \"#utility.yul\":5240:5246   */\n      0x00\n        /* \"#utility.yul\":5289:5291   */\n      0x20\n        /* \"#utility.yul\":5277:5286   */\n      dup3\n        /* \"#utility.yul\":5268:5275   */\n      dup5\n        /* \"#utility.yul\":5264:5287   */\n      sub\n        /* \"#utility.yul\":5260:5292   */\n      slt\n        /* \"#utility.yul\":5257:5376   */\n      iszero\n      tag_393\n      jumpi\n        /* \"#utility.yul\":5295:5374   */\n      tag_394\n      tag_277\n      jump\t// in\n    tag_394:\n        /* \"#utility.yul\":5257:5376   */\n    tag_393:\n        /* \"#utility.yul\":5415:5416   */\n      0x00\n        /* \"#utility.yul\":5440:5493   */\n      tag_395\n        /* \"#utility.yul\":5485:5492   */\n      dup5\n        /* \"#utility.yul\":5476:5482   */\n      dup3\n        /* \"#utility.yul\":5465:5474   */\n      dup6\n        /* \"#utility.yul\":5461:5483   */\n      add\n        /* \"#utility.yul\":5440:5493   */\n      tag_282\n      jump\t// in\n    tag_395:\n        /* \"#utility.yul\":5430:5493   */\n      swap2\n      pop\n        /* \"#utility.yul\":5386:5503   */\n      pop\n        /* \"#utility.yul\":5181:5510   */\n      swap3\n      swap2\n      pop\n      pop\n      jump\t// out\n        /* \"#utility.yul\":5516:5634   */\n    tag_293:\n        /* \"#utility.yul\":5587:5609   */\n      tag_397\n        /* \"#utility.yul\":5603:5608   */\n      dup2\n        /* \"#utility.yul\":5587:5609   */\n      tag_289\n      jump\t// in\n    tag_397:\n        /* \"#utility.yul\":5580:5585   */\n      dup2\n        /* \"#utility.yul\":5577:5610   */\n      eq\n        /* \"#utility.yul\":5567:5628   */\n      tag_398\n      jumpi\n        /* \"#utility.yul\":5624:5625   */\n      0x00\n        /* \"#utility.yul\":5621:5622   */\n      dup1\n        /* \"#utility.yul\":5614:5626   */\n      revert\n        /* \"#utility.yul\":5567:5628   */\n    tag_398:\n        /* \"#utility.yul\":5516:5634   */\n      pop\n      jump\t// out\n        /* \"#utility.yul\":5640:5775   */\n    tag_294:\n        /* \"#utility.yul\":5684:5689   */\n      0x00\n        /* \"#utility.yul\":5722:5728   */\n      dup2\n        /* \"#utility.yul\":5709:5729   */\n      calldataload\n        /* \"#utility.yul\":5700:5729   */\n      swap1\n      pop\n        /* \"#utility.yul\":5738:5769   */\n      tag_400\n        /* \"#utility.yul\":5763:5768   */\n      dup2\n        /* \"#utility.yul\":5738:5769   */\n      tag_293\n      jump\t// in\n    tag_400:\n        /* \"#utility.yul\":5640:5775   */\n      swap3\n      swap2\n      pop\n      pop\n      jump\t// out\n        /* \"#utility.yul\":5781:5903   */\n    tag_295:\n        /* \"#utility.yul\":5854:5878   */\n      tag_402\n        /* \"#utility.yul\":5872:5877   */\n      dup2\n        /* \"#utility.yul\":5854:5878   */\n      tag_291\n      jump\t// in\n    tag_402:\n        /* \"#utility.yul\":5847:5852   */\n      dup2\n        /* \"#utility.yul\":5844:5879   */\n      eq\n        /* \"#utility.yul\":5834:5897   */\n      tag_403\n      jumpi\n        /* \"#utility.yul\":5893:5894   */\n      0x00\n        /* \"#utility.yul\":5890:5891   */\n      dup1\n        /* \"#utility.yul\":5883:5895   */\n      revert\n        /* \"#utility.yul\":5834:5897   */\n    tag_403:\n        /* \"#utility.yul\":5781:5903   */\n      pop\n      jump\t// out\n        /* \"#utility.yul\":5909:6048   */\n    tag_296:\n        /* \"#utility.yul\":5955:5960   */\n      0x00\n        /* \"#utility.yul\":5993:5999   */\n      dup2\n        /* \"#utility.yul\":5980:6000   */\n      calldataload\n        /* \"#utility.yul\":5971:6000   */\n      swap1\n      pop\n        /* \"#utility.yul\":6009:6042   */\n      tag_405\n        /* \"#utility.yul\":6036:6041   */\n      dup2\n        /* \"#utility.yul\":6009:6042   */\n      tag_295\n      jump\t// in\n    tag_405:\n        /* \"#utility.yul\":5909:6048   */\n      swap3\n      swap2\n      pop\n      pop\n      jump\t// out\n        /* \"#utility.yul\":6054:7253   */\n    tag_77:\n        /* \"#utility.yul\":6165:6171   */\n      0x00\n        /* \"#utility.yul\":6173:6179   */\n      dup1\n        /* \"#utility.yul\":6181:6187   */\n      0x00\n        /* \"#utility.yul\":6189:6195   */\n      dup1\n        /* \"#utility.yul\":6197:6203   */\n      0x00\n        /* \"#utility.yul\":6205:6211   */\n      dup1\n        /* \"#utility.yul\":6213:6219   */\n      0x00\n        /* \"#utility.yul\":6262:6265   */\n      0xe0\n        /* \"#utility.yul\":6250:6259   */\n      dup9\n        /* \"#utility.yul\":6241:6248   */\n      dup11\n        /* \"#utility.yul\":6237:6260   */\n      sub\n        /* \"#utility.yul\":6233:6266   */\n      slt\n        /* \"#utility.yul\":6230:6350   */\n      iszero\n      tag_407\n      jumpi\n        /* \"#utility.yul\":6269:6348   */\n      tag_408\n      tag_277\n      jump\t// in\n    tag_408:\n        /* \"#utility.yul\":6230:6350   */\n    tag_407:\n        /* \"#utility.yul\":6389:6390   */\n      0x00\n        /* \"#utility.yul\":6414:6467   */\n      tag_409\n        /* \"#utility.yul\":6459:6466   */\n      dup11\n        /* \"#utility.yul\":6450:6456   */\n      dup3\n        /* \"#utility.yul\":6439:6448   */\n      dup12\n        /* \"#utility.yul\":6435:6457   */\n      add\n        /* \"#utility.yul\":6414:6467   */\n      tag_282\n      jump\t// in\n    tag_409:\n        /* \"#utility.yul\":6404:6467   */\n      swap8\n      pop\n        /* \"#utility.yul\":6360:6477   */\n      pop\n        /* \"#utility.yul\":6516:6518   */\n      0x20\n        /* \"#utility.yul\":6542:6595   */\n      tag_410\n        /* \"#utility.yul\":6587:6594   */\n      dup11\n        /* \"#utility.yul\":6578:6584   */\n      dup3\n        /* \"#utility.yul\":6567:6576   */\n      dup12\n        /* \"#utility.yul\":6563:6585   */\n      add\n        /* \"#utility.yul\":6542:6595   */\n      tag_282\n      jump\t// in\n    tag_410:\n        /* \"#utility.yul\":6532:6595   */\n      swap7\n      pop\n        /* \"#utility.yul\":6487:6605   */\n      pop\n        /* \"#utility.yul\":6644:6646   */\n      0x40\n        /* \"#utility.yul\":6670:6723   */\n      tag_411\n        /* \"#utility.yul\":6715:6722   */\n      dup11\n        /* \"#utility.yul\":6706:6712   */\n      dup3\n        /* \"#utility.yul\":6695:6704   */\n      dup12\n        /* \"#utility.yul\":6691:6713   */\n      add\n        /* \"#utility.yul\":6670:6723   */\n      tag_285\n      jump\t// in\n    tag_411:\n        /* \"#utility.yul\":6660:6723   */\n      swap6\n      pop\n        /* \"#utility.yul\":6615:6733   */\n      pop\n        /* \"#utility.yul\":6772:6774   */\n      0x60\n        /* \"#utility.yul\":6798:6851   */\n      tag_412\n        /* \"#utility.yul\":6843:6850   */\n      dup11\n        /* \"#utility.yul\":6834:6840   */\n      dup3\n        /* \"#utility.yul\":6823:6832   */\n      dup12\n        /* \"#utility.yul\":6819:6841   */\n      add\n        /* \"#utility.yul\":6798:6851   */\n      tag_285\n      jump\t// in\n    tag_412:\n        /* \"#utility.yul\":6788:6851   */\n      swap5\n      pop\n        /* \"#utility.yul\":6743:6861   */\n      pop\n        /* \"#utility.yul\":6900:6903   */\n      0x80\n        /* \"#utility.yul\":6927:6978   */\n      tag_413\n        /* \"#utility.yul\":6970:6977   */\n      dup11\n        /* \"#utility.yul\":6961:6967   */\n      dup3\n        /* \"#utility.yul\":6950:6959   */\n      dup12\n        /* \"#utility.yul\":6946:6968   */\n      add\n        /* \"#utility.yul\":6927:6978   */\n      tag_294\n      jump\t// in\n    tag_413:\n        /* \"#utility.yul\":6917:6978   */\n      swap4\n      pop\n        /* \"#utility.yul\":6871:6988   */\n      pop\n        /* \"#utility.yul\":7027:7030   */\n      0xa0\n        /* \"#utility.yul\":7054:7107   */\n      tag_414\n        /* \"#utility.yul\":7099:7106   */\n      dup11\n        /* \"#utility.yul\":7090:7096   */\n      dup3\n        /* \"#utility.yul\":7079:7088   */\n      dup12\n        /* \"#utility.yul\":7075:7097   */\n      add\n        /* \"#utility.yul\":7054:7107   */\n      tag_296\n      jump\t// in\n    tag_414:\n        /* \"#utility.yul\":7044:7107   */\n      swap3\n      pop\n        /* \"#utility.yul\":6998:7117   */\n      pop\n        /* \"#utility.yul\":7156:7159   */\n      0xc0\n        /* \"#utility.yul\":7183:7236   */\n      tag_415\n        /* \"#utility.yul\":7228:7235   */\n      dup11\n        /* \"#utility.yul\":7219:7225   */\n      dup3\n        /* \"#utility.yul\":7208:7217   */\n      dup12\n        /* \"#utility.yul\":7204:7226   */\n      add\n        /* \"#utility.yul\":7183:7236   */\n      tag_296\n      jump\t// in\n    tag_415:\n        /* \"#utility.yul\":7173:7236   */\n      swap2\n      pop\n        /* \"#utility.yul\":7127:7246   */\n      pop\n        /* \"#utility.yul\":6054:7253   */\n      swap3\n      swap6\n      swap9\n      swap2\n      swap5\n      swap8\n      pop\n      swap3\n      swap6\n      pop\n      jump\t// out\n        /* \"#utility.yul\":7259:7733   */\n    tag_81:\n        /* \"#utility.yul\":7327:7333   */\n      0x00\n        /* \"#utility.yul\":7335:7341   */\n      dup1\n        /* \"#utility.yul\":7384:7386   */\n      0x40\n        /* \"#utility.yul\":7372:7381   */\n      dup4\n        /* \"#utility.yul\":7363:7370   */\n      dup6\n        /* \"#utility.yul\":7359:7382   */\n      sub\n        /* \"#utility.yul\":7355:7387   */\n      slt\n        /* \"#utility.yul\":7352:7471   */\n      iszero\n      tag_417\n      jumpi\n        /* \"#utility.yul\":7390:7469   */\n      tag_418\n      tag_277\n      jump\t// in\n    tag_418:\n        /* \"#utility.yul\":7352:7471   */\n    tag_417:\n        /* \"#utility.yul\":7510:7511   */\n      0x00\n        /* \"#utility.yul\":7535:7588   */\n      tag_419\n        /* \"#utility.yul\":7580:7587   */\n      dup6\n        /* \"#utility.yul\":7571:7577   */\n      dup3\n        /* \"#utility.yul\":7560:7569   */\n      dup7\n        /* \"#utility.yul\":7556:7578   */\n      add\n        /* \"#utility.yul\":7535:7588   */\n      tag_282\n      jump\t// in\n    tag_419:\n        /* \"#utility.yul\":7525:7588   */\n      swap3\n      pop\n        /* \"#utility.yul\":7481:7598   */\n      pop\n        /* \"#utility.yul\":7637:7639   */\n      0x20\n        /* \"#utility.yul\":7663:7716   */\n      tag_420\n        /* \"#utility.yul\":7708:7715   */\n      dup6\n        /* \"#utility.yul\":7699:7705   */\n      dup3\n        /* \"#utility.yul\":7688:7697   */\n      dup7\n        /* \"#utility.yul\":7684:7706   */\n      add\n        /* \"#utility.yul\":7663:7716   */\n      tag_282\n      jump\t// in\n    tag_420:\n        /* \"#utility.yul\":7653:7716   */\n      swap2\n      pop\n        /* \"#utility.yul\":7608:7726   */\n      pop\n        /* \"#utility.yul\":7259:7733   */\n      swap3\n      pop\n      swap3\n      swap1\n      pop\n      jump\t// out\n        /* \"#utility.yul\":7739:7919   */\n    tag_297:\n        /* \"#utility.yul\":7787:7864   */\n      0x4e487b7100000000000000000000000000000000000000000000000000000000\n        /* \"#utility.yul\":7784:7785   */\n      0x00\n        /* \"#utility.yul\":7777:7865   */\n      mstore\n        /* \"#utility.yul\":7884:7888   */\n      0x22\n        /* \"#utility.yul\":7881:7882   */\n      0x04\n        /* \"#utility.yul\":7874:7889   */\n      mstore\n        /* \"#utility.yul\":7908:7912   */\n      0x24\n        /* \"#utility.yul\":7905:7906   */\n      0x00\n        /* \"#utility.yul\":7898:7913   */\n      revert\n        /* \"#utility.yul\":7925:8245   */\n    tag_86:\n        /* \"#utility.yul\":7969:7975   */\n      0x00\n        /* \"#utility.yul\":8006:8007   */\n      0x02\n        /* \"#utility.yul\":8000:8004   */\n      dup3\n        /* \"#utility.yul\":7996:8008   */\n      div\n        /* \"#utility.yul\":7986:8008   */\n      swap1\n      pop\n        /* \"#utility.yul\":8053:8054   */\n      0x01\n        /* \"#utility.yul\":8047:8051   */\n      dup3\n        /* \"#utility.yul\":8043:8055   */\n      and\n        /* \"#utility.yul\":8074:8092   */\n      dup1\n        /* \"#utility.yul\":8064:8145   */\n      tag_423\n      jumpi\n        /* \"#utility.yul\":8130:8134   */\n      0x7f\n        /* \"#utility.yul\":8122:8128   */\n      dup3\n        /* \"#utility.yul\":8118:8135   */\n      and\n        /* \"#utility.yul\":8108:8135   */\n      swap2\n      pop\n        /* \"#utility.yul\":8064:8145   */\n    tag_423:\n        /* \"#utility.yul\":8192:8194   */\n      0x20\n        /* \"#utility.yul\":8184:8190   */\n      dup3\n        /* \"#utility.yul\":8181:8195   */\n      lt\n        /* \"#utility.yul\":8161:8179   */\n      dup2\n        /* \"#utility.yul\":8158:8196   */\n      sub\n        /* \"#utility.yul\":8155:8239   */\n      tag_424\n      jumpi\n        /* \"#utility.yul\":8211:8229   */\n      tag_425\n      tag_297\n      jump\t// in\n    tag_425:\n        /* \"#utility.yul\":8155:8239   */\n    tag_424:\n        /* \"#utility.yul\":7976:8245   */\n      pop\n        /* \"#utility.yul\":7925:8245   */\n      swap2\n      swap1\n      pop\n      jump\t// out\n        /* \"#utility.yul\":8251:8431   */\n    tag_298:\n        /* \"#utility.yul\":8299:8376   */\n      0x4e487b7100000000000000000000000000000000000000000000000000000000\n        /* \"#utility.yul\":8296:8297   */\n      0x00\n        /* \"#utility.yul\":8289:8377   */\n      mstore\n        /* \"#utility.yul\":8396:8400   */\n      0x11\n        /* \"#utility.yul\":8393:8394   */\n      0x04\n        /* \"#utility.yul\":8386:8401   */\n      mstore\n        /* \"#utility.yul\":8420:8424   */\n      0x24\n        /* \"#utility.yul\":8417:8418   */\n      0x00\n        /* \"#utility.yul\":8410:8425   */\n      revert\n        /* \"#utility.yul\":8437:8628   */\n    tag_112:\n        /* \"#utility.yul\":8477:8480   */\n      0x00\n        /* \"#utility.yul\":8496:8516   */\n      tag_428\n        /* \"#utility.yul\":8514:8515   */\n      dup3\n        /* \"#utility.yul\":8496:8516   */\n      tag_283\n      jump\t// in\n    tag_428:\n        /* \"#utility.yul\":8491:8516   */\n      swap2\n      pop\n        /* \"#utility.yul\":8530:8550   */\n      tag_429\n        /* \"#utility.yul\":8548:8549   */\n      dup4\n        /* \"#utility.yul\":8530:8550   */\n      tag_283\n      jump\t// in\n    tag_429:\n        /* \"#utility.yul\":8525:8550   */\n      swap3\n      pop\n        /* \"#utility.yul\":8573:8574   */\n      dup3\n        /* \"#utility.yul\":8570:8571   */\n      dup3\n        /* \"#utility.yul\":8566:8575   */\n      add\n        /* \"#utility.yul\":8559:8575   */\n      swap1\n      pop\n        /* \"#utility.yul\":8594:8597   */\n      dup1\n        /* \"#utility.yul\":8591:8592   */\n      dup3\n        /* \"#utility.yul\":8588:8598   */\n      gt\n        /* \"#utility.yul\":8585:8621   */\n      iszero\n      tag_430\n      jumpi\n        /* \"#utility.yul\":8601:8619   */\n      tag_431\n      tag_298\n      jump\t// in\n    tag_431:\n        /* \"#utility.yul\":8585:8621   */\n    tag_430:\n        /* \"#utility.yul\":8437:8628   */\n      swap3\n      swap2\n      pop\n      pop\n      jump\t// out\n        /* \"#utility.yul\":8634:8858   */\n    tag_299:\n        /* \"#utility.yul\":8774:8808   */\n      0x45524332303a2064656372656173656420616c6c6f77616e63652062656c6f77\n        /* \"#utility.yul\":8770:8771   */\n      0x00\n        /* \"#utility.yul\":8762:8768   */\n      dup3\n        /* \"#utility.yul\":8758:8772   */\n      add\n        /* \"#utility.yul\":8751:8809   */\n      mstore\n        /* \"#utility.yul\":8843:8850   */\n      0x207a65726f000000000000000000000000000000000000000000000000000000\n        /* \"#utility.yul\":8838:8840   */\n      0x20\n        /* \"#utility.yul\":8830:8836   */\n      dup3\n        /* \"#utility.yul\":8826:8841   */\n      add\n        /* \"#utility.yul\":8819:8851   */\n      mstore\n        /* \"#utility.yul\":8634:8858   */\n      pop\n      jump\t// out\n        /* \"#utility.yul\":8864:9230   */\n    tag_300:\n        /* \"#utility.yul\":9006:9009   */\n      0x00\n        /* \"#utility.yul\":9027:9094   */\n      tag_434\n        /* \"#utility.yul\":9091:9093   */\n      0x25\n        /* \"#utility.yul\":9086:9089   */\n      dup4\n        /* \"#utility.yul\":9027:9094   */\n      tag_272\n      jump\t// in\n    tag_434:\n        /* \"#utility.yul\":9020:9094   */\n      swap2\n      pop\n        /* \"#utility.yul\":9103:9196   */\n      tag_435\n        /* \"#utility.yul\":9192:9195   */\n      dup3\n        /* \"#utility.yul\":9103:9196   */\n      tag_299\n      jump\t// in\n    tag_435:\n        /* \"#utility.yul\":9221:9223   */\n      0x40\n        /* \"#utility.yul\":9216:9219   */\n      dup3\n        /* \"#utility.yul\":9212:9224   */\n      add\n        /* \"#utility.yul\":9205:9224   */\n      swap1\n      pop\n        /* \"#utility.yul\":8864:9230   */\n      swap2\n      swap1\n      pop\n      jump\t// out\n        /* \"#utility.yul\":9236:9655   */\n    tag_131:\n        /* \"#utility.yul\":9402:9406   */\n      0x00\n        /* \"#utility.yul\":9440:9442   */\n      0x20\n        /* \"#utility.yul\":9429:9438   */\n      dup3\n        /* \"#utility.yul\":9425:9443   */\n      add\n        /* \"#utility.yul\":9417:9443   */\n      swap1\n      pop\n        /* \"#utility.yul\":9489:9498   */\n      dup2\n        /* \"#utility.yul\":9483:9487   */\n      dup2\n        /* \"#utility.yul\":9479:9499   */\n      sub\n        /* \"#utility.yul\":9475:9476   */\n      0x00\n        /* \"#utility.yul\":9464:9473   */\n      dup4\n        /* \"#utility.yul\":9460:9477   */\n      add\n        /* \"#utility.yul\":9453:9500   */\n      mstore\n        /* \"#utility.yul\":9517:9648   */\n      tag_437\n        /* \"#utility.yul\":9643:9647   */\n      dup2\n        /* \"#utility.yul\":9517:9648   */\n      tag_300\n      jump\t// in\n    tag_437:\n        /* \"#utility.yul\":9509:9648   */\n      swap1\n      pop\n        /* \"#utility.yul\":9236:9655   */\n      swap2\n      swap1\n      pop\n      jump\t// out\n        /* \"#utility.yul\":9661:9840   */\n    tag_301:\n        /* \"#utility.yul\":9801:9832   */\n      0x45524332305065726d69743a206578706972656420646561646c696e65000000\n        /* \"#utility.yul\":9797:9798   */\n      0x00\n        /* \"#utility.yul\":9789:9795   */\n      dup3\n        /* \"#utility.yul\":9785:9799   */\n      add\n        /* \"#utility.yul\":9778:9833   */\n      mstore\n        /* \"#utility.yul\":9661:9840   */\n      pop\n      jump\t// out\n        /* \"#utility.yul\":9846:10212   */\n    tag_302:\n        /* \"#utility.yul\":9988:9991   */\n      0x00\n        /* \"#utility.yul\":10009:10076   */\n      tag_440\n        /* \"#utility.yul\":10073:10075   */\n      0x1d\n        /* \"#utility.yul\":10068:10071   */\n      dup4\n        /* \"#utility.yul\":10009:10076   */\n      tag_272\n      jump\t// in\n    tag_440:\n        /* \"#utility.yul\":10002:10076   */\n      swap2\n      pop\n        /* \"#utility.yul\":10085:10178   */\n      tag_441\n        /* \"#utility.yul\":10174:10177   */\n      dup3\n        /* \"#utility.yul\":10085:10178   */\n      tag_301\n      jump\t// in\n    tag_441:\n        /* \"#utility.yul\":10203:10205   */\n      0x20\n        /* \"#utility.yul\":10198:10201   */\n      dup3\n        /* \"#utility.yul\":10194:10206   */\n      add\n        /* \"#utility.yul\":10187:10206   */\n      swap1\n      pop\n        /* \"#utility.yul\":9846:10212   */\n      swap2\n      swap1\n      pop\n      jump\t// out\n        /* \"#utility.yul\":10218:10637   */\n    tag_139:\n        /* \"#utility.yul\":10384:10388   */\n      0x00\n        /* \"#utility.yul\":10422:10424   */\n      0x20\n        /* \"#utility.yul\":10411:10420   */\n      dup3\n        /* \"#utility.yul\":10407:10425   */\n      add\n        /* \"#utility.yul\":10399:10425   */\n      swap1\n      pop\n        /* \"#utility.yul\":10471:10480   */\n      dup2\n        /* \"#utility.yul\":10465:10469   */\n      dup2\n        /* \"#utility.yul\":10461:10481   */\n      sub\n        /* \"#utility.yul\":10457:10458   */\n      0x00\n        /* \"#utility.yul\":10446:10455   */\n      dup4\n        /* \"#utility.yul\":10442:10459   */\n      add\n        /* \"#utility.yul\":10435:10482   */\n      mstore\n        /* \"#utility.yul\":10499:10630   */\n      tag_443\n        /* \"#utility.yul\":10625:10629   */\n      dup2\n        /* \"#utility.yul\":10499:10630   */\n      tag_302\n      jump\t// in\n    tag_443:\n        /* \"#utility.yul\":10491:10630   */\n      swap1\n      pop\n        /* \"#utility.yul\":10218:10637   */\n      swap2\n      swap1\n      pop\n      jump\t// out\n        /* \"#utility.yul\":10643:10761   */\n    tag_303:\n        /* \"#utility.yul\":10730:10754   */\n      tag_445\n        /* \"#utility.yul\":10748:10753   */\n      dup2\n        /* \"#utility.yul\":10730:10754   */\n      tag_280\n      jump\t// in\n    tag_445:\n        /* \"#utility.yul\":10725:10728   */\n      dup3\n        /* \"#utility.yul\":10718:10755   */\n      mstore\n        /* \"#utility.yul\":10643:10761   */\n      pop\n      pop\n      jump\t// out\n        /* \"#utility.yul\":10767:11542   */\n    tag_143:\n        /* \"#utility.yul\":11000:11004   */\n      0x00\n        /* \"#utility.yul\":11038:11041   */\n      0xc0\n        /* \"#utility.yul\":11027:11036   */\n      dup3\n        /* \"#utility.yul\":11023:11042   */\n      add\n        /* \"#utility.yul\":11015:11042   */\n      swap1\n      pop\n        /* \"#utility.yul\":11052:11123   */\n      tag_447\n        /* \"#utility.yul\":11120:11121   */\n      0x00\n        /* \"#utility.yul\":11109:11118   */\n      dup4\n        /* \"#utility.yul\":11105:11122   */\n      add\n        /* \"#utility.yul\":11096:11102   */\n      dup10\n        /* \"#utility.yul\":11052:11123   */\n      tag_292\n      jump\t// in\n    tag_447:\n        /* \"#utility.yul\":11133:11205   */\n      tag_448\n        /* \"#utility.yul\":11201:11203   */\n      0x20\n        /* \"#utility.yul\":11190:11199   */\n      dup4\n        /* \"#utility.yul\":11186:11204   */\n      add\n        /* \"#utility.yul\":11177:11183   */\n      dup9\n        /* \"#utility.yul\":11133:11205   */\n      tag_303\n      jump\t// in\n    tag_448:\n        /* \"#utility.yul\":11215:11287   */\n      tag_449\n        /* \"#utility.yul\":11283:11285   */\n      0x40\n        /* \"#utility.yul\":11272:11281   */\n      dup4\n        /* \"#utility.yul\":11268:11286   */\n      add\n        /* \"#utility.yul\":11259:11265   */\n      dup8\n        /* \"#utility.yul\":11215:11287   */\n      tag_303\n      jump\t// in\n    tag_449:\n        /* \"#utility.yul\":11297:11369   */\n      tag_450\n        /* \"#utility.yul\":11365:11367   */\n      0x60\n        /* \"#utility.yul\":11354:11363   */\n      dup4\n        /* \"#utility.yul\":11350:11368   */\n      add\n        /* \"#utility.yul\":11341:11347   */\n      dup7\n        /* \"#utility.yul\":11297:11369   */\n      tag_288\n      jump\t// in\n    tag_450:\n        /* \"#utility.yul\":11379:11452   */\n      tag_451\n        /* \"#utility.yul\":11447:11450   */\n      0x80\n        /* \"#utility.yul\":11436:11445   */\n      dup4\n        /* \"#utility.yul\":11432:11451   */\n      add\n        /* \"#utility.yul\":11423:11429   */\n      dup6\n        /* \"#utility.yul\":11379:11452   */\n      tag_288\n      jump\t// in\n    tag_451:\n        /* \"#utility.yul\":11462:11535   */\n      tag_452\n        /* \"#utility.yul\":11530:11533   */\n      0xa0\n        /* \"#utility.yul\":11519:11528   */\n      dup4\n        /* \"#utility.yul\":11515:11534   */\n      add\n        /* \"#utility.yul\":11506:11512   */\n      dup5\n        /* \"#utility.yul\":11462:11535   */\n      tag_288\n      jump\t// in\n    tag_452:\n        /* \"#utility.yul\":10767:11542   */\n      swap8\n      swap7\n      pop\n      pop\n      pop\n      pop\n      pop\n      pop\n      pop\n      jump\t// out\n        /* \"#utility.yul\":11548:11728   */\n    tag_304:\n        /* \"#utility.yul\":11688:11720   */\n      0x45524332305065726d69743a20696e76616c6964207369676e61747572650000\n        /* \"#utility.yul\":11684:11685   */\n      0x00\n        /* \"#utility.yul\":11676:11682   */\n      dup3\n        /* \"#utility.yul\":11672:11686   */\n      add\n        /* \"#utility.yul\":11665:11721   */\n      mstore\n        /* \"#utility.yul\":11548:11728   */\n      pop\n      jump\t// out\n        /* \"#utility.yul\":11734:12100   */\n    tag_305:\n        /* \"#utility.yul\":11876:11879   */\n      0x00\n        /* \"#utility.yul\":11897:11964   */\n      tag_455\n        /* \"#utility.yul\":11961:11963   */\n      0x1e\n        /* \"#utility.yul\":11956:11959   */\n      dup4\n        /* \"#utility.yul\":11897:11964   */\n      tag_272\n      jump\t// in\n    tag_455:\n        /* \"#utility.yul\":11890:11964   */\n      swap2\n      pop\n        /* \"#utility.yul\":11973:12066   */\n      tag_456\n        /* \"#utility.yul\":12062:12065   */\n      dup3\n        /* \"#utility.yul\":11973:12066   */\n      tag_304\n      jump\t// in\n    tag_456:\n        /* \"#utility.yul\":12091:12093   */\n      0x20\n        /* \"#utility.yul\":12086:12089   */\n      dup3\n        /* \"#utility.yul\":12082:12094   */\n      add\n        /* \"#utility.yul\":12075:12094   */\n      swap1\n      pop\n        /* \"#utility.yul\":11734:12100   */\n      swap2\n      swap1\n      pop\n      jump\t// out\n        /* \"#utility.yul\":12106:12525   */\n    tag_150:\n        /* \"#utility.yul\":12272:12276   */\n      0x00\n        /* \"#utility.yul\":12310:12312   */\n      0x20\n        /* \"#utility.yul\":12299:12308   */\n      dup3\n        /* \"#utility.yul\":12295:12313   */\n      add\n        /* \"#utility.yul\":12287:12313   */\n      swap1\n      pop\n        /* \"#utility.yul\":12359:12368   */\n      dup2\n        /* \"#utility.yul\":12353:12357   */\n      dup2\n        /* \"#utility.yul\":12349:12369   */\n      sub\n        /* \"#utility.yul\":12345:12346   */\n      0x00\n        /* \"#utility.yul\":12334:12343   */\n      dup4\n        /* \"#utility.yul\":12330:12347   */\n      add\n        /* \"#utility.yul\":12323:12370   */\n      mstore\n        /* \"#utility.yul\":12387:12518   */\n      tag_458\n        /* \"#utility.yul\":12513:12517   */\n      dup2\n        /* \"#utility.yul\":12387:12518   */\n      tag_305\n      jump\t// in\n    tag_458:\n        /* \"#utility.yul\":12379:12518   */\n      swap1\n      pop\n        /* \"#utility.yul\":12106:12525   */\n      swap2\n      swap1\n      pop\n      jump\t// out\n        /* \"#utility.yul\":12531:12754   */\n    tag_306:\n        /* \"#utility.yul\":12671:12705   */\n      0x45524332303a20617070726f76652066726f6d20746865207a65726f20616464\n        /* \"#utility.yul\":12667:12668   */\n      0x00\n        /* \"#utility.yul\":12659:12665   */\n      dup3\n        /* \"#utility.yul\":12655:12669   */\n      add\n        /* \"#utility.yul\":12648:12706   */\n      mstore\n        /* \"#utility.yul\":12740:12746   */\n      0x7265737300000000000000000000000000000000000000000000000000000000\n        /* \"#utility.yul\":12735:12737   */\n      0x20\n        /* \"#utility.yul\":12727:12733   */\n      dup3\n        /* \"#utility.yul\":12723:12738   */\n      add\n        /* \"#utility.yul\":12716:12747   */\n      mstore\n        /* \"#utility.yul\":12531:12754   */\n      pop\n      jump\t// out\n        /* \"#utility.yul\":12760:13126   */\n    tag_307:\n        /* \"#utility.yul\":12902:12905   */\n      0x00\n        /* \"#utility.yul\":12923:12990   */\n      tag_461\n        /* \"#utility.yul\":12987:12989   */\n      0x24\n        /* \"#utility.yul\":12982:12985   */\n      dup4\n        /* \"#utility.yul\":12923:12990   */\n      tag_272\n      jump\t// in\n    tag_461:\n        /* \"#utility.yul\":12916:12990   */\n      swap2\n      pop\n        /* \"#utility.yul\":12999:13092   */\n      tag_462\n        /* \"#utility.yul\":13088:13091   */\n      dup3\n        /* \"#utility.yul\":12999:13092   */\n      tag_306\n      jump\t// in\n    tag_462:\n        /* \"#utility.yul\":13117:13119   */\n      0x40\n        /* \"#utility.yul\":13112:13115   */\n      dup3\n        /* \"#utility.yul\":13108:13120   */\n      add\n        /* \"#utility.yul\":13101:13120   */\n      swap1\n      pop\n        /* \"#utility.yul\":12760:13126   */\n      swap2\n      swap1\n      pop\n      jump\t// out\n        /* \"#utility.yul\":13132:13551   */\n    tag_157:\n        /* \"#utility.yul\":13298:13302   */\n      0x00\n        /* \"#utility.yul\":13336:13338   */\n      0x20\n        /* \"#utility.yul\":13325:13334   */\n      dup3\n        /* \"#utility.yul\":13321:13339   */\n      add\n        /* \"#utility.yul\":13313:13339   */\n      swap1\n      pop\n        /* \"#utility.yul\":13385:13394   */\n      dup2\n        /* \"#utility.yul\":13379:13383   */\n      dup2\n        /* \"#utility.yul\":13375:13395   */\n      sub\n        /* \"#utility.yul\":13371:13372   */\n      0x00\n        /* \"#utility.yul\":13360:13369   */\n      dup4\n        /* \"#utility.yul\":13356:13373   */\n      add\n        /* \"#utility.yul\":13349:13396   */\n      mstore\n        /* \"#utility.yul\":13413:13544   */\n      tag_464\n        /* \"#utility.yul\":13539:13543   */\n      dup2\n        /* \"#utility.yul\":13413:13544   */\n      tag_307\n      jump\t// in\n    tag_464:\n        /* \"#utility.yul\":13405:13544   */\n      swap1\n      pop\n        /* \"#utility.yul\":13132:13551   */\n      swap2\n      swap1\n      pop\n      jump\t// out\n        /* \"#utility.yul\":13557:13778   */\n    tag_308:\n        /* \"#utility.yul\":13697:13731   */\n      0x45524332303a20617070726f766520746f20746865207a65726f206164647265\n        /* \"#utility.yul\":13693:13694   */\n      0x00\n        /* \"#utility.yul\":13685:13691   */\n      dup3\n        /* \"#utility.yul\":13681:13695   */\n      add\n        /* \"#utility.yul\":13674:13732   */\n      mstore\n        /* \"#utility.yul\":13766:13770   */\n      0x7373000000000000000000000000000000000000000000000000000000000000\n        /* \"#utility.yul\":13761:13763   */\n      0x20\n        /* \"#utility.yul\":13753:13759   */\n      dup3\n        /* \"#utility.yul\":13749:13764   */\n      add\n        /* \"#utility.yul\":13742:13771   */\n      mstore\n        /* \"#utility.yul\":13557:13778   */\n      pop\n      jump\t// out\n        /* \"#utility.yul\":13784:14150   */\n    tag_309:\n        /* \"#utility.yul\":13926:13929   */\n      0x00\n        /* \"#utility.yul\":13947:14014   */\n      tag_467\n        /* \"#utility.yul\":14011:14013   */\n      0x22\n        /* \"#utility.yul\":14006:14009   */\n      dup4\n        /* \"#utility.yul\":13947:14014   */\n      tag_272\n      jump\t// in\n    tag_467:\n        /* \"#utility.yul\":13940:14014   */\n      swap2\n      pop\n        /* \"#utility.yul\":14023:14116   */\n      tag_468\n        /* \"#utility.yul\":14112:14115   */\n      dup3\n        /* \"#utility.yul\":14023:14116   */\n      tag_308\n      jump\t// in\n    tag_468:\n        /* \"#utility.yul\":14141:14143   */\n      0x40\n        /* \"#utility.yul\":14136:14139   */\n      dup3\n        /* \"#utility.yul\":14132:14144   */\n      add\n        /* \"#utility.yul\":14125:14144   */\n      swap1\n      pop\n        /* \"#utility.yul\":13784:14150   */\n      swap2\n      swap1\n      pop\n      jump\t// out\n        /* \"#utility.yul\":14156:14575   */\n    tag_160:\n        /* \"#utility.yul\":14322:14326   */\n      0x00\n        /* \"#utility.yul\":14360:14362   */\n      0x20\n        /* \"#utility.yul\":14349:14358   */\n      dup3\n        /* \"#utility.yul\":14345:14363   */\n      add\n        /* \"#utility.yul\":14337:14363   */\n      swap1\n      pop\n        /* \"#utility.yul\":14409:14418   */\n      dup2\n        /* \"#utility.yul\":14403:14407   */\n      dup2\n        /* \"#utility.yul\":14399:14419   */\n      sub\n        /* \"#utility.yul\":14395:14396   */\n      0x00\n        /* \"#utility.yul\":14384:14393   */\n      dup4\n        /* \"#utility.yul\":14380:14397   */\n      add\n        /* \"#utility.yul\":14373:14420   */\n      mstore\n        /* \"#utility.yul\":14437:14568   */\n      tag_470\n        /* \"#utility.yul\":14563:14567   */\n      dup2\n        /* \"#utility.yul\":14437:14568   */\n      tag_309\n      jump\t// in\n    tag_470:\n        /* \"#utility.yul\":14429:14568   */\n      swap1\n      pop\n        /* \"#utility.yul\":14156:14575   */\n      swap2\n      swap1\n      pop\n      jump\t// out\n        /* \"#utility.yul\":14581:14760   */\n    tag_310:\n        /* \"#utility.yul\":14721:14752   */\n      0x45524332303a20696e73756666696369656e7420616c6c6f77616e6365000000\n        /* \"#utility.yul\":14717:14718   */\n      0x00\n        /* \"#utility.yul\":14709:14715   */\n      dup3\n        /* \"#utility.yul\":14705:14719   */\n      add\n        /* \"#utility.yul\":14698:14753   */\n      mstore\n        /* \"#utility.yul\":14581:14760   */\n      pop\n      jump\t// out\n        /* \"#utility.yul\":14766:15132   */\n    tag_311:\n        /* \"#utility.yul\":14908:14911   */\n      0x00\n        /* \"#utility.yul\":14929:14996   */\n      tag_473\n        /* \"#utility.yul\":14993:14995   */\n      0x1d\n        /* \"#utility.yul\":14988:14991   */\n      dup4\n        /* \"#utility.yul\":14929:14996   */\n      tag_272\n      jump\t// in\n    tag_473:\n        /* \"#utility.yul\":14922:14996   */\n      swap2\n      pop\n        /* \"#utility.yul\":15005:15098   */\n      tag_474\n        /* \"#utility.yul\":15094:15097   */\n      dup3\n        /* \"#utility.yul\":15005:15098   */\n      tag_310\n      jump\t// in\n    tag_474:\n        /* \"#utility.yul\":15123:15125   */\n      0x20\n        /* \"#utility.yul\":15118:15121   */\n      dup3\n        /* \"#utility.yul\":15114:15126   */\n      add\n        /* \"#utility.yul\":15107:15126   */\n      swap1\n      pop\n        /* \"#utility.yul\":14766:15132   */\n      swap2\n      swap1\n      pop\n      jump\t// out\n        /* \"#utility.yul\":15138:15557   */\n    tag_167:\n        /* \"#utility.yul\":15304:15308   */\n      0x00\n        /* \"#utility.yul\":15342:15344   */\n      0x20\n        /* \"#utility.yul\":15331:15340   */\n      dup3\n        /* \"#utility.yul\":15327:15345   */\n      add\n        /* \"#utility.yul\":15319:15345   */\n      swap1\n      pop\n        /* \"#utility.yul\":15391:15400   */\n      dup2\n        /* \"#utility.yul\":15385:15389   */\n      dup2\n        /* \"#utility.yul\":15381:15401   */\n      sub\n        /* \"#utility.yul\":15377:15378   */\n      0x00\n        /* \"#utility.yul\":15366:15375   */\n      dup4\n        /* \"#utility.yul\":15362:15379   */\n      add\n        /* \"#utility.yul\":15355:15402   */\n      mstore\n        /* \"#utility.yul\":15419:15550   */\n      tag_476\n        /* \"#utility.yul\":15545:15549   */\n      dup2\n        /* \"#utility.yul\":15419:15550   */\n      tag_311\n      jump\t// in\n    tag_476:\n        /* \"#utility.yul\":15411:15550   */\n      swap1\n      pop\n        /* \"#utility.yul\":15138:15557   */\n      swap2\n      swap1\n      pop\n      jump\t// out\n        /* \"#utility.yul\":15563:15787   */\n    tag_312:\n        /* \"#utility.yul\":15703:15737   */\n      0x45524332303a207472616e736665722066726f6d20746865207a65726f206164\n        /* \"#utility.yul\":15699:15700   */\n      0x00\n        /* \"#utility.yul\":15691:15697   */\n      dup3\n        /* \"#utility.yul\":15687:15701   */\n      add\n        /* \"#utility.yul\":15680:15738   */\n      mstore\n        /* \"#utility.yul\":15772:15779   */\n      0x6472657373000000000000000000000000000000000000000000000000000000\n        /* \"#utility.yul\":15767:15769   */\n      0x20\n        /* \"#utility.yul\":15759:15765   */\n      dup3\n        /* \"#utility.yul\":15755:15770   */\n      add\n        /* \"#utility.yul\":15748:15780   */\n      mstore\n        /* \"#utility.yul\":15563:15787   */\n      pop\n      jump\t// out\n        /* \"#utility.yul\":15793:16159   */\n    tag_313:\n        /* \"#utility.yul\":15935:15938   */\n      0x00\n        /* \"#utility.yul\":15956:16023   */\n      tag_479\n        /* \"#utility.yul\":16020:16022   */\n      0x25\n        /* \"#utility.yul\":16015:16018   */\n      dup4\n        /* \"#utility.yul\":15956:16023   */\n      tag_272\n      jump\t// in\n    tag_479:\n        /* \"#utility.yul\":15949:16023   */\n      swap2\n      pop\n        /* \"#utility.yul\":16032:16125   */\n      tag_480\n        /* \"#utility.yul\":16121:16124   */\n      dup3\n        /* \"#utility.yul\":16032:16125   */\n      tag_312\n      jump\t// in\n    tag_480:\n        /* \"#utility.yul\":16150:16152   */\n      0x40\n        /* \"#utility.yul\":16145:16148   */\n      dup3\n        /* \"#utility.yul\":16141:16153   */\n      add\n        /* \"#utility.yul\":16134:16153   */\n      swap1\n      pop\n        /* \"#utility.yul\":15793:16159   */\n      swap2\n      swap1\n      pop\n      jump\t// out\n        /* \"#utility.yul\":16165:16584   */\n    tag_172:\n        /* \"#utility.yul\":16331:16335   */\n      0x00\n        /* \"#utility.yul\":16369:16371   */\n      0x20\n        /* \"#utility.yul\":16358:16367   */\n      dup3\n        /* \"#utility.yul\":16354:16372   */\n      add\n        /* \"#utility.yul\":16346:16372   */\n      swap1\n      pop\n        /* \"#utility.yul\":16418:16427   */\n      dup2\n        /* \"#utility.yul\":16412:16416   */\n      dup2\n        /* \"#utility.yul\":16408:16428   */\n      sub\n        /* \"#utility.yul\":16404:16405   */\n      0x00\n        /* \"#utility.yul\":16393:16402   */\n      dup4\n        /* \"#utility.yul\":16389:16406   */\n      add\n        /* \"#utility.yul\":16382:16429   */\n      mstore\n        /* \"#utility.yul\":16446:16577   */\n      tag_482\n        /* \"#utility.yul\":16572:16576   */\n      dup2\n        /* \"#utility.yul\":16446:16577   */\n      tag_313\n      jump\t// in\n    tag_482:\n        /* \"#utility.yul\":16438:16577   */\n      swap1\n      pop\n        /* \"#utility.yul\":16165:16584   */\n      swap2\n      swap1\n      pop\n      jump\t// out\n        /* \"#utility.yul\":16590:16812   */\n    tag_314:\n        /* \"#utility.yul\":16730:16764   */\n      0x45524332303a207472616e7366657220746f20746865207a65726f2061646472\n        /* \"#utility.yul\":16726:16727   */\n      0x00\n        /* \"#utility.yul\":16718:16724   */\n      dup3\n        /* \"#utility.yul\":16714:16728   */\n      add\n        /* \"#utility.yul\":16707:16765   */\n      mstore\n        /* \"#utility.yul\":16799:16804   */\n      0x6573730000000000000000000000000000000000000000000000000000000000\n        /* \"#utility.yul\":16794:16796   */\n      0x20\n        /* \"#utility.yul\":16786:16792   */\n      dup3\n        /* \"#utility.yul\":16782:16797   */\n      add\n        /* \"#utility.yul\":16775:16805   */\n      mstore\n        /* \"#utility.yul\":16590:16812   */\n      pop\n      jump\t// out\n        /* \"#utility.yul\":16818:17184   */\n    tag_315:\n        /* \"#utility.yul\":16960:16963   */\n      0x00\n        /* \"#utility.yul\":16981:17048   */\n      tag_485\n        /* \"#utility.yul\":17045:17047   */\n      0x23\n        /* \"#utility.yul\":17040:17043   */\n      dup4\n        /* \"#utility.yul\":16981:17048   */\n      tag_272\n      jump\t// in\n    tag_485:\n        /* \"#utility.yul\":16974:17048   */\n      swap2\n      pop\n        /* \"#utility.yul\":17057:17150   */\n      tag_486\n        /* \"#utility.yul\":17146:17149   */\n      dup3\n        /* \"#utility.yul\":17057:17150   */\n      tag_314\n      jump\t// in\n    tag_486:\n        /* \"#utility.yul\":17175:17177   */\n      0x40\n        /* \"#utility.yul\":17170:17173   */\n      dup3\n        /* \"#utility.yul\":17166:17178   */\n      add\n        /* \"#utility.yul\":17159:17178   */\n      swap1\n      pop\n        /* \"#utility.yul\":16818:17184   */\n      swap2\n      swap1\n      pop\n      jump\t// out\n        /* \"#utility.yul\":17190:17609   */\n    tag_175:\n        /* \"#utility.yul\":17356:17360   */\n      0x00\n        /* \"#utility.yul\":17394:17396   */\n      0x20\n        /* \"#utility.yul\":17383:17392   */\n      dup3\n        /* \"#utility.yul\":17379:17397   */\n      add\n        /* \"#utility.yul\":17371:17397   */\n      swap1\n      pop\n        /* \"#utility.yul\":17443:17452   */\n      dup2\n        /* \"#utility.yul\":17437:17441   */\n      dup2\n        /* \"#utility.yul\":17433:17453   */\n      sub\n        /* \"#utility.yul\":17429:17430   */\n      0x00\n        /* \"#utility.yul\":17418:17427   */\n      dup4\n        /* \"#utility.yul\":17414:17431   */\n      add\n        /* \"#utility.yul\":17407:17454   */\n      mstore\n        /* \"#utility.yul\":17471:17602   */\n      tag_488\n        /* \"#utility.yul\":17597:17601   */\n      dup2\n        /* \"#utility.yul\":17471:17602   */\n      tag_315\n      jump\t// in\n    tag_488:\n        /* \"#utility.yul\":17463:17602   */\n      swap1\n      pop\n        /* \"#utility.yul\":17190:17609   */\n      swap2\n      swap1\n      pop\n      jump\t// out\n        /* \"#utility.yul\":17615:17840   */\n    tag_316:\n        /* \"#utility.yul\":17755:17789   */\n      0x45524332303a207472616e7366657220616d6f756e7420657863656564732062\n        /* \"#utility.yul\":17751:17752   */\n      0x00\n        /* \"#utility.yul\":17743:17749   */\n      dup3\n        /* \"#utility.yul\":17739:17753   */\n      add\n        /* \"#utility.yul\":17732:17790   */\n      mstore\n        /* \"#utility.yul\":17824:17832   */\n      0x616c616e63650000000000000000000000000000000000000000000000000000\n        /* \"#utility.yul\":17819:17821   */\n      0x20\n        /* \"#utility.yul\":17811:17817   */\n      dup3\n        /* \"#utility.yul\":17807:17822   */\n      add\n        /* \"#utility.yul\":17800:17833   */\n      mstore\n        /* \"#utility.yul\":17615:17840   */\n      pop\n      jump\t// out\n        /* \"#utility.yul\":17846:18212   */\n    tag_317:\n        /* \"#utility.yul\":17988:17991   */\n      0x00\n        /* \"#utility.yul\":18009:18076   */\n      tag_491\n        /* \"#utility.yul\":18073:18075   */\n      0x26\n        /* \"#utility.yul\":18068:18071   */\n      dup4\n        /* \"#utility.yul\":18009:18076   */\n      tag_272\n      jump\t// in\n    tag_491:\n        /* \"#utility.yul\":18002:18076   */\n      swap2\n      pop\n        /* \"#utility.yul\":18085:18178   */\n      tag_492\n        /* \"#utility.yul\":18174:18177   */\n      dup3\n        /* \"#utility.yul\":18085:18178   */\n      tag_316\n      jump\t// in\n    tag_492:\n        /* \"#utility.yul\":18203:18205   */\n      0x40\n        /* \"#utility.yul\":18198:18201   */\n      dup3\n        /* \"#utility.yul\":18194:18206   */\n      add\n        /* \"#utility.yul\":18187:18206   */\n      swap1\n      pop\n        /* \"#utility.yul\":17846:18212   */\n      swap2\n      swap1\n      pop\n      jump\t// out\n        /* \"#utility.yul\":18218:18637   */\n    tag_180:\n        /* \"#utility.yul\":18384:18388   */\n      0x00\n        /* \"#utility.yul\":18422:18424   */\n      0x20\n        /* \"#utility.yul\":18411:18420   */\n      dup3\n        /* \"#utility.yul\":18407:18425   */\n      add\n        /* \"#utility.yul\":18399:18425   */\n      swap1\n      pop\n        /* \"#utility.yul\":18471:18480   */\n      dup2\n        /* \"#utility.yul\":18465:18469   */\n      dup2\n        /* \"#utility.yul\":18461:18481   */\n      sub\n        /* \"#utility.yul\":18457:18458   */\n      0x00\n        /* \"#utility.yul\":18446:18455   */\n      dup4\n        /* \"#utility.yul\":18442:18459   */\n      add\n        /* \"#utility.yul\":18435:18482   */\n      mstore\n        /* \"#utility.yul\":18499:18630   */\n      tag_494\n        /* \"#utility.yul\":18625:18629   */\n      dup2\n        /* \"#utility.yul\":18499:18630   */\n      tag_317\n      jump\t// in\n    tag_494:\n        /* \"#utility.yul\":18491:18630   */\n      swap1\n      pop\n        /* \"#utility.yul\":18218:18637   */\n      swap2\n      swap1\n      pop\n      jump\t// out\n        /* \"#utility.yul\":18643:18824   */\n    tag_318:\n        /* \"#utility.yul\":18783:18816   */\n      0x45524332303a206d696e7420746f20746865207a65726f206164647265737300\n        /* \"#utility.yul\":18779:18780   */\n      0x00\n        /* \"#utility.yul\":18771:18777   */\n      dup3\n        /* \"#utility.yul\":18767:18781   */\n      add\n        /* \"#utility.yul\":18760:18817   */\n      mstore\n        /* \"#utility.yul\":18643:18824   */\n      pop\n      jump\t// out\n        /* \"#utility.yul\":18830:19196   */\n    tag_319:\n        /* \"#utility.yul\":18972:18975   */\n      0x00\n        /* \"#utility.yul\":18993:19060   */\n      tag_497\n        /* \"#utility.yul\":19057:19059   */\n      0x1f\n        /* \"#utility.yul\":19052:19055   */\n      dup4\n        /* \"#utility.yul\":18993:19060   */\n      tag_272\n      jump\t// in\n    tag_497:\n        /* \"#utility.yul\":18986:19060   */\n      swap2\n      pop\n        /* \"#utility.yul\":19069:19162   */\n      tag_498\n        /* \"#utility.yul\":19158:19161   */\n      dup3\n        /* \"#utility.yul\":19069:19162   */\n      tag_318\n      jump\t// in\n    tag_498:\n        /* \"#utility.yul\":19187:19189   */\n      0x20\n        /* \"#utility.yul\":19182:19185   */\n      dup3\n        /* \"#utility.yul\":19178:19190   */\n      add\n        /* \"#utility.yul\":19171:19190   */\n      swap1\n      pop\n        /* \"#utility.yul\":18830:19196   */\n      swap2\n      swap1\n      pop\n      jump\t// out\n        /* \"#utility.yul\":19202:19621   */\n    tag_194:\n        /* \"#utility.yul\":19368:19372   */\n      0x00\n        /* \"#utility.yul\":19406:19408   */\n      0x20\n        /* \"#utility.yul\":19395:19404   */\n      dup3\n        /* \"#utility.yul\":19391:19409   */\n      add\n        /* \"#utility.yul\":19383:19409   */\n      swap1\n      pop\n        /* \"#utility.yul\":19455:19464   */\n      dup2\n        /* \"#utility.yul\":19449:19453   */\n      dup2\n        /* \"#utility.yul\":19445:19465   */\n      sub\n        /* \"#utility.yul\":19441:19442   */\n      0x00\n        /* \"#utility.yul\":19430:19439   */\n      dup4\n        /* \"#utility.yul\":19426:19443   */\n      add\n        /* \"#utility.yul\":19419:19466   */\n      mstore\n        /* \"#utility.yul\":19483:19614   */\n      tag_500\n        /* \"#utility.yul\":19609:19613   */\n      dup2\n        /* \"#utility.yul\":19483:19614   */\n      tag_319\n      jump\t// in\n    tag_500:\n        /* \"#utility.yul\":19475:19614   */\n      swap1\n      pop\n        /* \"#utility.yul\":19202:19621   */\n      swap2\n      swap1\n      pop\n      jump\t// out\n        /* \"#utility.yul\":19627:20291   */\n    tag_218:\n        /* \"#utility.yul\":19832:19836   */\n      0x00\n        /* \"#utility.yul\":19870:19873   */\n      0xa0\n        /* \"#utility.yul\":19859:19868   */\n      dup3\n        /* \"#utility.yul\":19855:19874   */\n      add\n        /* \"#utility.yul\":19847:19874   */\n      swap1\n      pop\n        /* \"#utility.yul\":19884:19955   */\n      tag_502\n        /* \"#utility.yul\":19952:19953   */\n      0x00\n        /* \"#utility.yul\":19941:19950   */\n      dup4\n        /* \"#utility.yul\":19937:19954   */\n      add\n        /* \"#utility.yul\":19928:19934   */\n      dup9\n        /* \"#utility.yul\":19884:19955   */\n      tag_292\n      jump\t// in\n    tag_502:\n        /* \"#utility.yul\":19965:20037   */\n      tag_503\n        /* \"#utility.yul\":20033:20035   */\n      0x20\n        /* \"#utility.yul\":20022:20031   */\n      dup4\n        /* \"#utility.yul\":20018:20036   */\n      add\n        /* \"#utility.yul\":20009:20015   */\n      dup8\n        /* \"#utility.yul\":19965:20037   */\n      tag_292\n      jump\t// in\n    tag_503:\n        /* \"#utility.yul\":20047:20119   */\n      tag_504\n        /* \"#utility.yul\":20115:20117   */\n      0x40\n        /* \"#utility.yul\":20104:20113   */\n      dup4\n        /* \"#utility.yul\":20100:20118   */\n      add\n        /* \"#utility.yul\":20091:20097   */\n      dup7\n        /* \"#utility.yul\":20047:20119   */\n      tag_292\n      jump\t// in\n    tag_504:\n        /* \"#utility.yul\":20129:20201   */\n      tag_505\n        /* \"#utility.yul\":20197:20199   */\n      0x60\n        /* \"#utility.yul\":20186:20195   */\n      dup4\n        /* \"#utility.yul\":20182:20200   */\n      add\n        /* \"#utility.yul\":20173:20179   */\n      dup6\n        /* \"#utility.yul\":20129:20201   */\n      tag_288\n      jump\t// in\n    tag_505:\n        /* \"#utility.yul\":20211:20284   */\n      tag_506\n        /* \"#utility.yul\":20279:20282   */\n      0x80\n        /* \"#utility.yul\":20268:20277   */\n      dup4\n        /* \"#utility.yul\":20264:20283   */\n      add\n        /* \"#utility.yul\":20255:20261   */\n      dup5\n        /* \"#utility.yul\":20211:20284   */\n      tag_303\n      jump\t// in\n    tag_506:\n        /* \"#utility.yul\":19627:20291   */\n      swap7\n      swap6\n      pop\n      pop\n      pop\n      pop\n      pop\n      pop\n      jump\t// out\n        /* \"#utility.yul\":20297:20445   */\n    tag_320:\n        /* \"#utility.yul\":20399:20410   */\n      0x00\n        /* \"#utility.yul\":20436:20439   */\n      dup2\n        /* \"#utility.yul\":20421:20439   */\n      swap1\n      pop\n        /* \"#utility.yul\":20297:20445   */\n      swap3\n      swap2\n      pop\n      pop\n      jump\t// out\n        /* \"#utility.yul\":20451:20665   */\n    tag_321:\n        /* \"#utility.yul\":20591:20657   */\n      0x1901000000000000000000000000000000000000000000000000000000000000\n        /* \"#utility.yul\":20587:20588   */\n      0x00\n        /* \"#utility.yul\":20579:20585   */\n      dup3\n        /* \"#utility.yul\":20575:20589   */\n      add\n        /* \"#utility.yul\":20568:20658   */\n      mstore\n        /* \"#utility.yul\":20451:20665   */\n      pop\n      jump\t// out\n        /* \"#utility.yul\":20671:21071   */\n    tag_322:\n        /* \"#utility.yul\":20831:20834   */\n      0x00\n        /* \"#utility.yul\":20852:20936   */\n      tag_510\n        /* \"#utility.yul\":20934:20935   */\n      0x02\n        /* \"#utility.yul\":20929:20932   */\n      dup4\n        /* \"#utility.yul\":20852:20936   */\n      tag_320\n      jump\t// in\n    tag_510:\n        /* \"#utility.yul\":20845:20936   */\n      swap2\n      pop\n        /* \"#utility.yul\":20945:21038   */\n      tag_511\n        /* \"#utility.yul\":21034:21037   */\n      dup3\n        /* \"#utility.yul\":20945:21038   */\n      tag_321\n      jump\t// in\n    tag_511:\n        /* \"#utility.yul\":21063:21064   */\n      0x02\n        /* \"#utility.yul\":21058:21061   */\n      dup3\n        /* \"#utility.yul\":21054:21065   */\n      add\n        /* \"#utility.yul\":21047:21065   */\n      swap1\n      pop\n        /* \"#utility.yul\":20671:21071   */\n      swap2\n      swap1\n      pop\n      jump\t// out\n        /* \"#utility.yul\":21077:21156   */\n    tag_323:\n        /* \"#utility.yul\":21116:21123   */\n      0x00\n        /* \"#utility.yul\":21145:21150   */\n      dup2\n        /* \"#utility.yul\":21134:21150   */\n      swap1\n      pop\n        /* \"#utility.yul\":21077:21156   */\n      swap2\n      swap1\n      pop\n      jump\t// out\n        /* \"#utility.yul\":21162:21319   */\n    tag_324:\n        /* \"#utility.yul\":21267:21312   */\n      tag_514\n        /* \"#utility.yul\":21287:21311   */\n      tag_515\n        /* \"#utility.yul\":21305:21310   */\n      dup3\n        /* \"#utility.yul\":21287:21311   */\n      tag_291\n      jump\t// in\n    tag_515:\n        /* \"#utility.yul\":21267:21312   */\n      tag_323\n      jump\t// in\n    tag_514:\n        /* \"#utility.yul\":21262:21265   */\n      dup3\n        /* \"#utility.yul\":21255:21313   */\n      mstore\n        /* \"#utility.yul\":21162:21319   */\n      pop\n      pop\n      jump\t// out\n        /* \"#utility.yul\":21325:21988   */\n    tag_222:\n        /* \"#utility.yul\":21566:21569   */\n      0x00\n        /* \"#utility.yul\":21588:21736   */\n      tag_517\n        /* \"#utility.yul\":21732:21735   */\n      dup3\n        /* \"#utility.yul\":21588:21736   */\n      tag_322\n      jump\t// in\n    tag_517:\n        /* \"#utility.yul\":21581:21736   */\n      swap2\n      pop\n        /* \"#utility.yul\":21746:21821   */\n      tag_518\n        /* \"#utility.yul\":21817:21820   */\n      dup3\n        /* \"#utility.yul\":21808:21814   */\n      dup6\n        /* \"#utility.yul\":21746:21821   */\n      tag_324\n      jump\t// in\n    tag_518:\n        /* \"#utility.yul\":21846:21848   */\n      0x20\n        /* \"#utility.yul\":21841:21844   */\n      dup3\n        /* \"#utility.yul\":21837:21849   */\n      add\n        /* \"#utility.yul\":21830:21849   */\n      swap2\n      pop\n        /* \"#utility.yul\":21859:21934   */\n      tag_519\n        /* \"#utility.yul\":21930:21933   */\n      dup3\n        /* \"#utility.yul\":21921:21927   */\n      dup5\n        /* \"#utility.yul\":21859:21934   */\n      tag_324\n      jump\t// in\n    tag_519:\n        /* \"#utility.yul\":21959:21961   */\n      0x20\n        /* \"#utility.yul\":21954:21957   */\n      dup3\n        /* \"#utility.yul\":21950:21962   */\n      add\n        /* \"#utility.yul\":21943:21962   */\n      swap2\n      pop\n        /* \"#utility.yul\":21979:21982   */\n      dup2\n        /* \"#utility.yul\":21972:21982   */\n      swap1\n      pop\n        /* \"#utility.yul\":21325:21988   */\n      swap4\n      swap3\n      pop\n      pop\n      pop\n      jump\t// out\n        /* \"#utility.yul\":21994:22539   */\n    tag_228:\n        /* \"#utility.yul\":22167:22171   */\n      0x00\n        /* \"#utility.yul\":22205:22208   */\n      0x80\n        /* \"#utility.yul\":22194:22203   */\n      dup3\n        /* \"#utility.yul\":22190:22209   */\n      add\n        /* \"#utility.yul\":22182:22209   */\n      swap1\n      pop\n        /* \"#utility.yul\":22219:22290   */\n      tag_521\n        /* \"#utility.yul\":22287:22288   */\n      0x00\n        /* \"#utility.yul\":22276:22285   */\n      dup4\n        /* \"#utility.yul\":22272:22289   */\n      add\n        /* \"#utility.yul\":22263:22269   */\n      dup8\n        /* \"#utility.yul\":22219:22290   */\n      tag_292\n      jump\t// in\n    tag_521:\n        /* \"#utility.yul\":22300:22368   */\n      tag_522\n        /* \"#utility.yul\":22364:22366   */\n      0x20\n        /* \"#utility.yul\":22353:22362   */\n      dup4\n        /* \"#utility.yul\":22349:22367   */\n      add\n        /* \"#utility.yul\":22340:22346   */\n      dup7\n        /* \"#utility.yul\":22300:22368   */\n      tag_290\n      jump\t// in\n    tag_522:\n        /* \"#utility.yul\":22378:22450   */\n      tag_523\n        /* \"#utility.yul\":22446:22448   */\n      0x40\n        /* \"#utility.yul\":22435:22444   */\n      dup4\n        /* \"#utility.yul\":22431:22449   */\n      add\n        /* \"#utility.yul\":22422:22428   */\n      dup6\n        /* \"#utility.yul\":22378:22450   */\n      tag_292\n      jump\t// in\n    tag_523:\n        /* \"#utility.yul\":22460:22532   */\n      tag_524\n        /* \"#utility.yul\":22528:22530   */\n      0x60\n        /* \"#utility.yul\":22517:22526   */\n      dup4\n        /* \"#utility.yul\":22513:22531   */\n      add\n        /* \"#utility.yul\":22504:22510   */\n      dup5\n        /* \"#utility.yul\":22460:22532   */\n      tag_292\n      jump\t// in\n    tag_524:\n        /* \"#utility.yul\":21994:22539   */\n      swap6\n      swap5\n      pop\n      pop\n      pop\n      pop\n      pop\n      jump\t// out\n        /* \"#utility.yul\":22545:22725   */\n    tag_235:\n        /* \"#utility.yul\":22593:22670   */\n      0x4e487b7100000000000000000000000000000000000000000000000000000000\n        /* \"#utility.yul\":22590:22591   */\n      0x00\n        /* \"#utility.yul\":22583:22671   */\n      mstore\n        /* \"#utility.yul\":22690:22694   */\n      0x21\n        /* \"#utility.yul\":22687:22688   */\n      0x04\n        /* \"#utility.yul\":22680:22695   */\n      mstore\n        /* \"#utility.yul\":22714:22718   */\n      0x24\n        /* \"#utility.yul\":22711:22712   */\n      0x00\n        /* \"#utility.yul\":22704:22719   */\n      revert\n        /* \"#utility.yul\":22731:22905   */\n    tag_325:\n        /* \"#utility.yul\":22871:22897   */\n      0x45434453413a20696e76616c6964207369676e61747572650000000000000000\n        /* \"#utility.yul\":22867:22868   */\n      0x00\n        /* \"#utility.yul\":22859:22865   */\n      dup3\n        /* \"#utility.yul\":22855:22869   */\n      add\n        /* \"#utility.yul\":22848:22898   */\n      mstore\n        /* \"#utility.yul\":22731:22905   */\n      pop\n      jump\t// out\n        /* \"#utility.yul\":22911:23277   */\n    tag_326:\n        /* \"#utility.yul\":23053:23056   */\n      0x00\n        /* \"#utility.yul\":23074:23141   */\n      tag_528\n        /* \"#utility.yul\":23138:23140   */\n      0x18\n        /* \"#utility.yul\":23133:23136   */\n      dup4\n        /* \"#utility.yul\":23074:23141   */\n      tag_272\n      jump\t// in\n    tag_528:\n        /* \"#utility.yul\":23067:23141   */\n      swap2\n      pop\n        /* \"#utility.yul\":23150:23243   */\n      tag_529\n        /* \"#utility.yul\":23239:23242   */\n      dup3\n        /* \"#utility.yul\":23150:23243   */\n      tag_325\n      jump\t// in\n    tag_529:\n        /* \"#utility.yul\":23268:23270   */\n      0x20\n        /* \"#utility.yul\":23263:23266   */\n      dup3\n        /* \"#utility.yul\":23259:23271   */\n      add\n        /* \"#utility.yul\":23252:23271   */\n      swap1\n      pop\n        /* \"#utility.yul\":22911:23277   */\n      swap2\n      swap1\n      pop\n      jump\t// out\n        /* \"#utility.yul\":23283:23702   */\n    tag_246:\n        /* \"#utility.yul\":23449:23453   */\n      0x00\n        /* \"#utility.yul\":23487:23489   */\n      0x20\n        /* \"#utility.yul\":23476:23485   */\n      dup3\n        /* \"#utility.yul\":23472:23490   */\n      add\n        /* \"#utility.yul\":23464:23490   */\n      swap1\n      pop\n        /* \"#utility.yul\":23536:23545   */\n      dup2\n        /* \"#utility.yul\":23530:23534   */\n      dup2\n        /* \"#utility.yul\":23526:23546   */\n      sub\n        /* \"#utility.yul\":23522:23523   */\n      0x00\n        /* \"#utility.yul\":23511:23520   */\n      dup4\n        /* \"#utility.yul\":23507:23524   */\n      add\n        /* \"#utility.yul\":23500:23547   */\n      mstore\n        /* \"#utility.yul\":23564:23695   */\n      tag_531\n        /* \"#utility.yul\":23690:23694   */\n      dup2\n        /* \"#utility.yul\":23564:23695   */\n      tag_326\n      jump\t// in\n    tag_531:\n        /* \"#utility.yul\":23556:23695   */\n      swap1\n      pop\n        /* \"#utility.yul\":23283:23702   */\n      swap2\n      swap1\n      pop\n      jump\t// out\n        /* \"#utility.yul\":23708:23889   */\n    tag_327:\n        /* \"#utility.yul\":23848:23881   */\n      0x45434453413a20696e76616c6964207369676e6174757265206c656e67746800\n        /* \"#utility.yul\":23844:23845   */\n      0x00\n        /* \"#utility.yul\":23836:23842   */\n      dup3\n        /* \"#utility.yul\":23832:23846   */\n      add\n        /* \"#utility.yul\":23825:23882   */\n      mstore\n        /* \"#utility.yul\":23708:23889   */\n      pop\n      jump\t// out\n        /* \"#utility.yul\":23895:24261   */\n    tag_328:\n        /* \"#utility.yul\":24037:24040   */\n      0x00\n        /* \"#utility.yul\":24058:24125   */\n      tag_534\n        /* \"#utility.yul\":24122:24124   */\n      0x1f\n        /* \"#utility.yul\":24117:24120   */\n      dup4\n        /* \"#utility.yul\":24058:24125   */\n      tag_272\n      jump\t// in\n    tag_534:\n        /* \"#utility.yul\":24051:24125   */\n      swap2\n      pop\n        /* \"#utility.yul\":24134:24227   */\n      tag_535\n        /* \"#utility.yul\":24223:24226   */\n      dup3\n        /* \"#utility.yul\":24134:24227   */\n      tag_327\n      jump\t// in\n    tag_535:\n        /* \"#utility.yul\":24252:24254   */\n      0x20\n        /* \"#utility.yul\":24247:24250   */\n      dup3\n        /* \"#utility.yul\":24243:24255   */\n      add\n        /* \"#utility.yul\":24236:24255   */\n      swap1\n      pop\n        /* \"#utility.yul\":23895:24261   */\n      swap2\n      swap1\n      pop\n      jump\t// out\n        /* \"#utility.yul\":24267:24686   */\n    tag_254:\n        /* \"#utility.yul\":24433:24437   */\n      0x00\n        /* \"#utility.yul\":24471:24473   */\n      0x20\n        /* \"#utility.yul\":24460:24469   */\n      dup3\n        /* \"#utility.yul\":24456:24474   */\n      add\n        /* \"#utility.yul\":24448:24474   */\n      swap1\n      pop\n        /* \"#utility.yul\":24520:24529   */\n      dup2\n        /* \"#utility.yul\":24514:24518   */\n      dup2\n        /* \"#utility.yul\":24510:24530   */\n      sub\n        /* \"#utility.yul\":24506:24507   */\n      0x00\n        /* \"#utility.yul\":24495:24504   */\n      dup4\n        /* \"#utility.yul\":24491:24508   */\n      add\n        /* \"#utility.yul\":24484:24531   */\n      mstore\n        /* \"#utility.yul\":24548:24679   */\n      tag_537\n        /* \"#utility.yul\":24674:24678   */\n      dup2\n        /* \"#utility.yul\":24548:24679   */\n      tag_328\n      jump\t// in\n    tag_537:\n        /* \"#utility.yul\":24540:24679   */\n      swap1\n      pop\n        /* \"#utility.yul\":24267:24686   */\n      swap2\n      swap1\n      pop\n      jump\t// out\n        /* \"#utility.yul\":24692:24913   */\n    tag_329:\n        /* \"#utility.yul\":24832:24866   */\n      0x45434453413a20696e76616c6964207369676e6174757265202773272076616c\n        /* \"#utility.yul\":24828:24829   */\n      0x00\n        /* \"#utility.yul\":24820:24826   */\n      dup3\n        /* \"#utility.yul\":24816:24830   */\n      add\n        /* \"#utility.yul\":24809:24867   */\n      mstore\n        /* \"#utility.yul\":24901:24905   */\n      0x7565000000000000000000000000000000000000000000000000000000000000\n        /* \"#utility.yul\":24896:24898   */\n      0x20\n        /* \"#utility.yul\":24888:24894   */\n      dup3\n        /* \"#utility.yul\":24884:24899   */\n      add\n        /* \"#utility.yul\":24877:24906   */\n      mstore\n        /* \"#utility.yul\":24692:24913   */\n      pop\n      jump\t// out\n        /* \"#utility.yul\":24919:25285   */\n    tag_330:\n        /* \"#utility.yul\":25061:25064   */\n      0x00\n        /* \"#utility.yul\":25082:25149   */\n      tag_540\n        /* \"#utility.yul\":25146:25148   */\n      0x22\n        /* \"#utility.yul\":25141:25144   */\n      dup4\n        /* \"#utility.yul\":25082:25149   */\n      tag_272\n      jump\t// in\n    tag_540:\n        /* \"#utility.yul\":25075:25149   */\n      swap2\n      pop\n        /* \"#utility.yul\":25158:25251   */\n      tag_541\n        /* \"#utility.yul\":25247:25250   */\n      dup3\n        /* \"#utility.yul\":25158:25251   */\n      tag_329\n      jump\t// in\n    tag_541:\n        /* \"#utility.yul\":25276:25278   */\n      0x40\n        /* \"#utility.yul\":25271:25274   */\n      dup3\n        /* \"#utility.yul\":25267:25279   */\n      add\n        /* \"#utility.yul\":25260:25279   */\n      swap1\n      pop\n        /* \"#utility.yul\":24919:25285   */\n      swap2\n      swap1\n      pop\n      jump\t// out\n        /* \"#utility.yul\":25291:25710   */\n    tag_262:\n        /* \"#utility.yul\":25457:25461   */\n      0x00\n        /* \"#utility.yul\":25495:25497   */\n      0x20\n        /* \"#utility.yul\":25484:25493   */\n      dup3\n        /* \"#utility.yul\":25480:25498   */\n      add\n        /* \"#utility.yul\":25472:25498   */\n      swap1\n      pop\n        /* \"#utility.yul\":25544:25553   */\n      dup2\n        /* \"#utility.yul\":25538:25542   */\n      dup2\n        /* \"#utility.yul\":25534:25554   */\n      sub\n        /* \"#utility.yul\":25530:25531   */\n      0x00\n        /* \"#utility.yul\":25519:25528   */\n      dup4\n        /* \"#utility.yul\":25515:25532   */\n      add\n        /* \"#utility.yul\":25508:25555   */\n      mstore\n        /* \"#utility.yul\":25572:25703   */\n      tag_543\n        /* \"#utility.yul\":25698:25702   */\n      dup2\n        /* \"#utility.yul\":25572:25703   */\n      tag_330\n      jump\t// in\n    tag_543:\n        /* \"#utility.yul\":25564:25703   */\n      swap1\n      pop\n        /* \"#utility.yul\":25291:25710   */\n      swap2\n      swap1\n      pop\n      jump\t// out\n        /* \"#utility.yul\":25716:25937   */\n    tag_331:\n        /* \"#utility.yul\":25856:25890   */\n      0x45434453413a20696e76616c6964207369676e6174757265202776272076616c\n        /* \"#utility.yul\":25852:25853   */\n      0x00\n        /* \"#utility.yul\":25844:25850   */\n      dup3\n        /* \"#utility.yul\":25840:25854   */\n      add\n        /* \"#utility.yul\":25833:25891   */\n      mstore\n        /* \"#utility.yul\":25925:25929   */\n      0x7565000000000000000000000000000000000000000000000000000000000000\n        /* \"#utility.yul\":25920:25922   */\n      0x20\n        /* \"#utility.yul\":25912:25918   */\n      dup3\n        /* \"#utility.yul\":25908:25923   */\n      add\n        /* \"#utility.yul\":25901:25930   */\n      mstore\n        /* \"#utility.yul\":25716:25937   */\n      pop\n      jump\t// out\n        /* \"#utility.yul\":25943:26309   */\n    tag_332:\n        /* \"#utility.yul\":26085:26088   */\n      0x00\n        /* \"#utility.yul\":26106:26173   */\n      tag_546\n        /* \"#utility.yul\":26170:26172   */\n      0x22\n        /* \"#utility.yul\":26165:26168   */\n      dup4\n        /* \"#utility.yul\":26106:26173   */\n      tag_272\n      jump\t// in\n    tag_546:\n        /* \"#utility.yul\":26099:26173   */\n      swap2\n      pop\n        /* \"#utility.yul\":26182:26275   */\n      tag_547\n        /* \"#utility.yul\":26271:26274   */\n      dup3\n        /* \"#utility.yul\":26182:26275   */\n      tag_331\n      jump\t// in\n    tag_547:\n        /* \"#utility.yul\":26300:26302   */\n      0x40\n        /* \"#utility.yul\":26295:26298   */\n      dup3\n        /* \"#utility.yul\":26291:26303   */\n      add\n        /* \"#utility.yul\":26284:26303   */\n      swap1\n      pop\n        /* \"#utility.yul\":25943:26309   */\n      swap2\n      swap1\n      pop\n      jump\t// out\n        /* \"#utility.yul\":26315:26734   */\n    tag_270:\n        /* \"#utility.yul\":26481:26485   */\n      0x00\n        /* \"#utility.yul\":26519:26521   */\n      0x20\n        /* \"#utility.yul\":26508:26517   */\n      dup3\n        /* \"#utility.yul\":26504:26522   */\n      add\n        /* \"#utility.yul\":26496:26522   */\n      swap1\n      pop\n        /* \"#utility.yul\":26568:26577   */\n      dup2\n        /* \"#utility.yul\":26562:26566   */\n      dup2\n        /* \"#utility.yul\":26558:26578   */\n      sub\n        /* \"#utility.yul\":26554:26555   */\n      0x00\n        /* \"#utility.yul\":26543:26552   */\n      dup4\n        /* \"#utility.yul\":26539:26556   */\n      add\n        /* \"#utility.yul\":26532:26579   */\n      mstore\n        /* \"#utility.yul\":26596:26727   */\n      tag_549\n        /* \"#utility.yul\":26722:26726   */\n      dup2\n        /* \"#utility.yul\":26596:26727   */\n      tag_332\n      jump\t// in\n    tag_549:\n        /* \"#utility.yul\":26588:26727   */\n      swap1\n      pop\n        /* \"#utility.yul\":26315:26734   */\n      swap2\n      swap1\n      pop\n      jump\t// out\n\n    auxdata: 0xa2646970667358221220e366aec472bad196fa55d8b789136a6fc3011d2db375c1b7fd60d83e5e7f2eb664736f6c634300081a0033\n}\n",
				"bytecode": {
					"linkReferences": {},
					"object": "610140604052348015610010575f80fd5b506040518060400160405280600e81526020017f486170707947696c6c546f6b656e000000000000000000000000000000000000815250806040518060400160405280600181526020017f31000000000000000000000000000000000000000000000000000000000000008152506040518060400160405280600e81526020017f486170707947696c6c546f6b656e0000000000000000000000000000000000008152506040518060400160405280600381526020017f48474b000000000000000000000000000000000000000000000000000000000081525081600390816100f99190610432565b5080600490816101099190610432565b5050505f828051906020012090505f828051906020012090505f7f8b73c3c69bb8fe3d512ecc4cf759cc79239f7b179b0ffacaa9a75d522b39400f90508260e081815250508161010081815250504660a081815250506101708184846101bf60201b60201c565b608081815250503073ffffffffffffffffffffffffffffffffffffffff1660c08173ffffffffffffffffffffffffffffffffffffffff16815250508061012081815250505050505050506105b8565b5f83838346306040516020016101d9959493929190610567565b6040516020818303038152906040528051906020012090509392505050565b5f81519050919050565b7f4e487b71000000000000000000000000000000000000000000000000000000005f52604160045260245ffd5b7f4e487b71000000000000000000000000000000000000000000000000000000005f52602260045260245ffd5b5f600282049050600182168061027357607f821691505b6020821081036102865761028561022f565b5b50919050565b5f819050815f5260205f209050919050565b5f6020601f8301049050919050565b5f82821b905092915050565b5f600883026102e87fffffffffffffffffffffffffffffffffffffffffffffffffffffffffffffffff826102ad565b6102f286836102ad565b95508019841693508086168417925050509392505050565b5f819050919050565b5f819050919050565b5f61033661033161032c8461030a565b610313565b61030a565b9050919050565b5f819050919050565b61034f8361031c565b61036361035b8261033d565b8484546102b9565b825550505050565b5f90565b61037761036b565b610382818484610346565b505050565b5b818110156103a55761039a5f8261036f565b600181019050610388565b5050565b601f8211156103ea576103bb8161028c565b6103c48461029e565b810160208510156103d3578190505b6103e76103df8561029e565b830182610387565b50505b505050565b5f82821c905092915050565b5f61040a5f19846008026103ef565b1980831691505092915050565b5f61042283836103fb565b9150826002028217905092915050565b61043b826101f8565b67ffffffffffffffff81111561045457610453610202565b5b61045e825461025c565b6104698282856103a9565b5f60209050601f83116001811461049a575f8415610488578287015190505b6104928582610417565b8655506104f9565b601f1984166104a88661028c565b5f5b828110156104cf578489015182556001820191506020850194506020810190506104aa565b868310156104ec57848901516104e8601f8916826103fb565b8355505b6001600288020188555050505b505050505050565b5f819050919050565b61051381610501565b82525050565b6105228161030a565b82525050565b5f73ffffffffffffffffffffffffffffffffffffffff82169050919050565b5f61055182610528565b9050919050565b61056181610547565b82525050565b5f60a08201905061057a5f83018861050a565b610587602083018761050a565b610594604083018661050a565b6105a16060830185610519565b6105ae6080830184610558565b9695505050505050565b60805160a05160c05160e05161010051610120516120af6105ff5f395f610d7901525f610dbb01525f610d9a01525f610ccf01525f610d2501525f610d4e01526120af5ff3fe608060405234801561000f575f80fd5b50600436106100f3575f3560e01c806340c10f1911610095578063a457c2d711610064578063a457c2d714610299578063a9059cbb146102c9578063d505accf146102f9578063dd62ed3e14610315576100f3565b806340c10f19146101ff57806370a082311461021b5780637ecebe001461024b57806395d89b411461027b576100f3565b806323b872dd116100d157806323b872dd14610163578063313ce567146101935780633644e515146101b157806339509351146101cf576100f3565b806306fdde03146100f7578063095ea7b31461011557806318160ddd14610145575b5f80fd5b6100ff610345565b60405161010c91906113aa565b60405180910390f35b61012f600480360381019061012a919061145b565b6103d5565b60405161013c91906114b3565b60405180910390f35b61014d6103f7565b60405161015a91906114db565b60405180910390f35b61017d600480360381019061017891906114f4565b610400565b60405161018a91906114b3565b60405180910390f35b61019b61042e565b6040516101a8919061155f565b60405180910390f35b6101b9610436565b6040516101c69190611590565b60405180910390f35b6101e960048036038101906101e4919061145b565b610444565b6040516101f691906114b3565b60405180910390f35b6102196004803603810190610214919061145b565b61047a565b005b610235600480360381019061023091906115a9565b610488565b60405161024291906114db565b60405180910390f35b610265600480360381019061026091906115a9565b6104cd565b60405161027291906114db565b60405180910390f35b61028361051a565b60405161029091906113aa565b60405180910390f35b6102b360048036038101906102ae919061145b565b6105aa565b6040516102c091906114b3565b60405180910390f35b6102e360048036038101906102de919061145b565b61061f565b6040516102f091906114b3565b60405180910390f35b610313600480360381019061030e9190611628565b610641565b005b61032f600480360381019061032a91906116c5565b610780565b60405161033c91906114db565b60405180910390f35b60606003805461035490611730565b80601f016020809104026020016040519081016040528092919081815260200182805461038090611730565b80156103cb5780601f106103a2576101008083540402835291602001916103cb565b820191905f5260205f20905b8154815290600101906020018083116103ae57829003601f168201915b5050505050905090565b5f806103df610802565b90506103ec818585610809565b600191505092915050565b5f600254905090565b5f8061040a610802565b90506104178582856109cc565b610422858585610a57565b60019150509392505050565b5f6012905090565b5f61043f610ccc565b905090565b5f8061044e610802565b905061046f8185856104608589610780565b61046a919061178d565b610809565b600191505092915050565b6104848282610de5565b5050565b5f805f8373ffffffffffffffffffffffffffffffffffffffff1673ffffffffffffffffffffffffffffffffffffffff1681526020019081526020015f20549050919050565b5f61051360055f8473ffffffffffffffffffffffffffffffffffffffff1673ffffffffffffffffffffffffffffffffffffffff1681526020019081526020015f20610f3c565b9050919050565b60606004805461052990611730565b80601f016020809104026020016040519081016040528092919081815260200182805461055590611730565b80156105a05780601f10610577576101008083540402835291602001916105a0565b820191905f5260205f20905b81548152906001019060200180831161058357829003601f168201915b5050505050905090565b5f806105b4610802565b90505f6105c18286610780565b905083811015610606576040517f08c379a00000000000000000000000000000000000000000000000000000000081526004016105fd90611830565b60405180910390fd5b6106138286868403610809565b60019250505092915050565b5f80610629610802565b9050610636818585610a57565b600191505092915050565b83421115610684576040517f08c379a000000000000000000000000000000000000000000000000000000000815260040161067b90611898565b60405180910390fd5b5f7f6e71edae12b1b97f4d1f60370fef10105fa2faae0126114a169c64845d6126c98888886106b28c610f48565b896040516020016106c8969594939291906118c5565b6040516020818303038152906040528051906020012090505f6106ea82610fa3565b90505f6106f982878787610fbc565b90508973ffffffffffffffffffffffffffffffffffffffff168173ffffffffffffffffffffffffffffffffffffffff1614610769576040517f08c379a00000000000000000000000000000000000000000000000000000000081526004016107609061196e565b60405180910390fd5b6107748a8a8a610809565b50505050505050505050565b5f60015f8473ffffffffffffffffffffffffffffffffffffffff1673ffffffffffffffffffffffffffffffffffffffff1681526020019081526020015f205f8373ffffffffffffffffffffffffffffffffffffffff1673ffffffffffffffffffffffffffffffffffffffff1681526020019081526020015f2054905092915050565b5f33905090565b5f73ffffffffffffffffffffffffffffffffffffffff168373ffffffffffffffffffffffffffffffffffffffff1603610877576040517f08c379a000000000000000000000000000000000000000000000000000000000815260040161086e906119fc565b60405180910390fd5b5f73ffffffffffffffffffffffffffffffffffffffff168273ffffffffffffffffffffffffffffffffffffffff16036108e5576040517f08c379a00000000000000000000000000000000000000000000000000000000081526004016108dc90611a8a565b60405180910390fd5b8060015f8573ffffffffffffffffffffffffffffffffffffffff1673ffffffffffffffffffffffffffffffffffffffff1681526020019081526020015f205f8473ffffffffffffffffffffffffffffffffffffffff1673ffffffffffffffffffffffffffffffffffffffff1681526020019081526020015f20819055508173ffffffffffffffffffffffffffffffffffffffff168373ffffffffffffffffffffffffffffffffffffffff167f8c5be1e5ebec7d5bd14f71427d1e84f3dd0314c0f7b2291e5b200ac8c7c3b925836040516109bf91906114db565b60405180910390a3505050565b5f6109d78484610780565b90507fffffffffffffffffffffffffffffffffffffffffffffffffffffffffffffffff8114610a515781811015610a43576040517f08c379a0000000000000000000000000000000000000000000000000000000008152600401610a3a90611af2565b60405180910390fd5b610a508484848403610809565b5b50505050565b5f73ffffffffffffffffffffffffffffffffffffffff168373ffffffffffffffffffffffffffffffffffffffff1603610ac5576040517f08c379a0000000000000000000000000000000000000000000000000000000008152600401610abc90611b80565b60405180910390fd5b5f73ffffffffffffffffffffffffffffffffffffffff168273ffffffffffffffffffffffffffffffffffffffff1603610b33576040517f08c379a0000000000000000000000000000000000000000000000000000000008152600401610b2a90611c0e565b60405180910390fd5b610b3e838383610fe5565b5f805f8573ffffffffffffffffffffffffffffffffffffffff1673ffffffffffffffffffffffffffffffffffffffff1681526020019081526020015f2054905081811015610bc1576040517f08c379a0000000000000000000000000000000000000000000000000000000008152600401610bb890611c9c565b60405180910390fd5b8181035f808673ffffffffffffffffffffffffffffffffffffffff1673ffffffffffffffffffffffffffffffffffffffff1681526020019081526020015f2081905550815f808573ffffffffffffffffffffffffffffffffffffffff1673ffffffffffffffffffffffffffffffffffffffff1681526020019081526020015f205f828254610c4f919061178d565b925050819055508273ffffffffffffffffffffffffffffffffffffffff168473ffffffffffffffffffffffffffffffffffffffff167fddf252ad1be2c89b69c2b068fc378daa952ba7f163c4a11628f55a4df523b3ef84604051610cb391906114db565b60405180910390a3610cc6848484610fea565b50505050565b5f7f000000000000000000000000000000000000000000000000000000000000000073ffffffffffffffffffffffffffffffffffffffff163073ffffffffffffffffffffffffffffffffffffffff16148015610d4757507f000000000000000000000000000000000000000000000000000000000000000046145b15610d74577f00000000000000000000000000000000000000000000000000000000000000009050610de2565b610ddf7f00000000000000000000000000000000000000000000000000000000000000007f00000000000000000000000000000000000000000000000000000000000000007f0000000000000000000000000000000000000000000000000000000000000000610fef565b90505b90565b5f73ffffffffffffffffffffffffffffffffffffffff168273ffffffffffffffffffffffffffffffffffffffff1603610e53576040517f08c379a0000000000000000000000000000000000000000000000000000000008152600401610e4a90611d04565b60405180910390fd5b610e5e5f8383610fe5565b8060025f828254610e6f919061178d565b92505081905550805f808473ffffffffffffffffffffffffffffffffffffffff1673ffffffffffffffffffffffffffffffffffffffff1681526020019081526020015f205f828254610ec1919061178d565b925050819055508173ffffffffffffffffffffffffffffffffffffffff165f73ffffffffffffffffffffffffffffffffffffffff167fddf252ad1be2c89b69c2b068fc378daa952ba7f163c4a11628f55a4df523b3ef83604051610f2591906114db565b60405180910390a3610f385f8383610fea565b5050565b5f815f01549050919050565b5f8060055f8473ffffffffffffffffffffffffffffffffffffffff1673ffffffffffffffffffffffffffffffffffffffff1681526020019081526020015f209050610f9281610f3c565b9150610f9d81611028565b50919050565b5f610fb5610faf610ccc565b8361103c565b9050919050565b5f805f610fcb8787878761106e565b91509150610fd88161116f565b8192505050949350505050565b505050565b505050565b5f8383834630604051602001611009959493929190611d22565b6040516020818303038152906040528051906020012090509392505050565b6001815f015f828254019250508190555050565b5f8282604051602001611050929190611de7565b60405160208183030381529060405280519060200120905092915050565b5f807f7fffffffffffffffffffffffffffffff5d576e7357a4501ddfe92f46681b20a0835f1c11156110a6575f600391509150611166565b601b8560ff16141580156110be5750601c8560ff1614155b156110cf575f600491509150611166565b5f6001878787876040515f81526020016040526040516110f29493929190611e1d565b6020604051602081039080840390855afa158015611112573d5f803e3d5ffd5b5050506020604051035190505f73ffffffffffffffffffffffffffffffffffffffff168173ffffffffffffffffffffffffffffffffffffffff160361115e575f60019250925050611166565b805f92509250505b94509492505050565b5f600481111561118257611181611e60565b5b81600481111561119557611194611e60565b5b031561133757600160048111156111af576111ae611e60565b5b8160048111156111c2576111c1611e60565b5b03611202576040517f08c379a00000000000000000000000000000000000000000000000000000000081526004016111f990611ed7565b60405180910390fd5b6002600481111561121657611215611e60565b5b81600481111561122957611228611e60565b5b03611269576040517f08c379a000000000000000000000000000000000000000000000000000000000815260040161126090611f3f565b60405180910390fd5b6003600481111561127d5761127c611e60565b5b8160048111156112905761128f611e60565b5b036112d0576040517f08c379a00000000000000000000000000000000000000000000000000000000081526004016112c790611fcd565b60405180910390fd5b6004808111156112e3576112e2611e60565b5b8160048111156112f6576112f5611e60565b5b03611336576040517f08c379a000000000000000000000000000000000000000000000000000000000815260040161132d9061205b565b60405180910390fd5b5b50565b5f81519050919050565b5f82825260208201905092915050565b8281835e5f83830152505050565b5f601f19601f8301169050919050565b5f61137c8261133a565b6113868185611344565b9350611396818560208601611354565b61139f81611362565b840191505092915050565b5f6020820190508181035f8301526113c28184611372565b905092915050565b5f80fd5b5f73ffffffffffffffffffffffffffffffffffffffff82169050919050565b5f6113f7826113ce565b9050919050565b611407816113ed565b8114611411575f80fd5b50565b5f81359050611422816113fe565b92915050565b5f819050919050565b61143a81611428565b8114611444575f80fd5b50565b5f8135905061145581611431565b92915050565b5f8060408385031215611471576114706113ca565b5b5f61147e85828601611414565b925050602061148f85828601611447565b9150509250929050565b5f8115159050919050565b6114ad81611499565b82525050565b5f6020820190506114c65f8301846114a4565b92915050565b6114d581611428565b82525050565b5f6020820190506114ee5f8301846114cc565b92915050565b5f805f6060848603121561150b5761150a6113ca565b5b5f61151886828701611414565b935050602061152986828701611414565b925050604061153a86828701611447565b9150509250925092565b5f60ff82169050919050565b61155981611544565b82525050565b5f6020820190506115725f830184611550565b92915050565b5f819050919050565b61158a81611578565b82525050565b5f6020820190506115a35f830184611581565b92915050565b5f602082840312156115be576115bd6113ca565b5b5f6115cb84828501611414565b91505092915050565b6115dd81611544565b81146115e7575f80fd5b50565b5f813590506115f8816115d4565b92915050565b61160781611578565b8114611611575f80fd5b50565b5f81359050611622816115fe565b92915050565b5f805f805f805f60e0888a031215611643576116426113ca565b5b5f6116508a828b01611414565b97505060206116618a828b01611414565b96505060406116728a828b01611447565b95505060606116838a828b01611447565b94505060806116948a828b016115ea565b93505060a06116a58a828b01611614565b92505060c06116b68a828b01611614565b91505092959891949750929550565b5f80604083850312156116db576116da6113ca565b5b5f6116e885828601611414565b92505060206116f985828601611414565b9150509250929050565b7f4e487b71000000000000000000000000000000000000000000000000000000005f52602260045260245ffd5b5f600282049050600182168061174757607f821691505b60208210810361175a57611759611703565b5b50919050565b7f4e487b71000000000000000000000000000000000000000000000000000000005f52601160045260245ffd5b5f61179782611428565b91506117a283611428565b92508282019050808211156117ba576117b9611760565b5b92915050565b7f45524332303a2064656372656173656420616c6c6f77616e63652062656c6f775f8201527f207a65726f000000000000000000000000000000000000000000000000000000602082015250565b5f61181a602583611344565b9150611825826117c0565b604082019050919050565b5f6020820190508181035f8301526118478161180e565b9050919050565b7f45524332305065726d69743a206578706972656420646561646c696e650000005f82015250565b5f611882601d83611344565b915061188d8261184e565b602082019050919050565b5f6020820190508181035f8301526118af81611876565b9050919050565b6118bf816113ed565b82525050565b5f60c0820190506118d85f830189611581565b6118e560208301886118b6565b6118f260408301876118b6565b6118ff60608301866114cc565b61190c60808301856114cc565b61191960a08301846114cc565b979650505050505050565b7f45524332305065726d69743a20696e76616c6964207369676e617475726500005f82015250565b5f611958601e83611344565b915061196382611924565b602082019050919050565b5f6020820190508181035f8301526119858161194c565b9050919050565b7f45524332303a20617070726f76652066726f6d20746865207a65726f206164645f8201527f7265737300000000000000000000000000000000000000000000000000000000602082015250565b5f6119e6602483611344565b91506119f18261198c565b604082019050919050565b5f6020820190508181035f830152611a13816119da565b9050919050565b7f45524332303a20617070726f766520746f20746865207a65726f2061646472655f8201527f7373000000000000000000000000000000000000000000000000000000000000602082015250565b5f611a74602283611344565b9150611a7f82611a1a565b604082019050919050565b5f6020820190508181035f830152611aa181611a68565b9050919050565b7f45524332303a20696e73756666696369656e7420616c6c6f77616e63650000005f82015250565b5f611adc601d83611344565b9150611ae782611aa8565b602082019050919050565b5f6020820190508181035f830152611b0981611ad0565b9050919050565b7f45524332303a207472616e736665722066726f6d20746865207a65726f2061645f8201527f6472657373000000000000000000000000000000000000000000000000000000602082015250565b5f611b6a602583611344565b9150611b7582611b10565b604082019050919050565b5f6020820190508181035f830152611b9781611b5e565b9050919050565b7f45524332303a207472616e7366657220746f20746865207a65726f20616464725f8201527f6573730000000000000000000000000000000000000000000000000000000000602082015250565b5f611bf8602383611344565b9150611c0382611b9e565b604082019050919050565b5f6020820190508181035f830152611c2581611bec565b9050919050565b7f45524332303a207472616e7366657220616d6f756e74206578636565647320625f8201527f616c616e63650000000000000000000000000000000000000000000000000000602082015250565b5f611c86602683611344565b9150611c9182611c2c565b604082019050919050565b5f6020820190508181035f830152611cb381611c7a565b9050919050565b7f45524332303a206d696e7420746f20746865207a65726f2061646472657373005f82015250565b5f611cee601f83611344565b9150611cf982611cba565b602082019050919050565b5f6020820190508181035f830152611d1b81611ce2565b9050919050565b5f60a082019050611d355f830188611581565b611d426020830187611581565b611d4f6040830186611581565b611d5c60608301856114cc565b611d6960808301846118b6565b9695505050505050565b5f81905092915050565b7f19010000000000000000000000000000000000000000000000000000000000005f82015250565b5f611db1600283611d73565b9150611dbc82611d7d565b600282019050919050565b5f819050919050565b611de1611ddc82611578565b611dc7565b82525050565b5f611df182611da5565b9150611dfd8285611dd0565b602082019150611e0d8284611dd0565b6020820191508190509392505050565b5f608082019050611e305f830187611581565b611e3d6020830186611550565b611e4a6040830185611581565b611e576060830184611581565b95945050505050565b7f4e487b71000000000000000000000000000000000000000000000000000000005f52602160045260245ffd5b7f45434453413a20696e76616c6964207369676e617475726500000000000000005f82015250565b5f611ec1601883611344565b9150611ecc82611e8d565b602082019050919050565b5f6020820190508181035f830152611eee81611eb5565b9050919050565b7f45434453413a20696e76616c6964207369676e6174757265206c656e677468005f82015250565b5f611f29601f83611344565b9150611f3482611ef5565b602082019050919050565b5f6020820190508181035f830152611f5681611f1d565b9050919050565b7f45434453413a20696e76616c6964207369676e6174757265202773272076616c5f8201527f7565000000000000000000000000000000000000000000000000000000000000602082015250565b5f611fb7602283611344565b9150611fc282611f5d565b604082019050919050565b5f6020820190508181035f830152611fe481611fab565b9050919050565b7f45434453413a20696e76616c6964207369676e6174757265202776272076616c5f8201527f7565000000000000000000000000000000000000000000000000000000000000602082015250565b5f612045602283611344565b915061205082611feb565b604082019050919050565b5f6020820190508181035f83015261207281612039565b905091905056fea2646970667358221220e366aec472bad196fa55d8b789136a6fc3011d2db375c1b7fd60d83e5e7f2eb664736f6c634300081a0033",
					"opcodes": "PUSH2 0x140 PUSH1 0x40 MSTORE CALLVALUE DUP1 ISZERO PUSH2 0x10 JUMPI PUSH0 DUP1 REVERT JUMPDEST POP PUSH1 0x40 MLOAD DUP1 PUSH1 0x40 ADD PUSH1 0x40 MSTORE DUP1 PUSH1 0xE DUP2 MSTORE PUSH1 0x20 ADD PUSH32 0x486170707947696C6C546F6B656E000000000000000000000000000000000000 DUP2 MSTORE POP DUP1 PUSH1 0x40 MLOAD DUP1 PUSH1 0x40 ADD PUSH1 0x40 MSTORE DUP1 PUSH1 0x1 DUP2 MSTORE PUSH1 0x20 ADD PUSH32 0x3100000000000000000000000000000000000000000000000000000000000000 DUP2 MSTORE POP PUSH1 0x40 MLOAD DUP1 PUSH1 0x40 ADD PUSH1 0x40 MSTORE DUP1 PUSH1 0xE DUP2 MSTORE PUSH1 0x20 ADD PUSH32 0x486170707947696C6C546F6B656E000000000000000000000000000000000000 DUP2 MSTORE POP PUSH1 0x40 MLOAD DUP1 PUSH1 0x40 ADD PUSH1 0x40 MSTORE DUP1 PUSH1 0x3 DUP2 MSTORE PUSH1 0x20 ADD PUSH32 0x48474B0000000000000000000000000000000000000000000000000000000000 DUP2 MSTORE POP DUP2 PUSH1 0x3 SWAP1 DUP2 PUSH2 0xF9 SWAP2 SWAP1 PUSH2 0x432 JUMP JUMPDEST POP DUP1 PUSH1 0x4 SWAP1 DUP2 PUSH2 0x109 SWAP2 SWAP1 PUSH2 0x432 JUMP JUMPDEST POP POP POP PUSH0 DUP3 DUP1 MLOAD SWAP1 PUSH1 0x20 ADD KECCAK256 SWAP1 POP PUSH0 DUP3 DUP1 MLOAD SWAP1 PUSH1 0x20 ADD KECCAK256 SWAP1 POP PUSH0 PUSH32 0x8B73C3C69BB8FE3D512ECC4CF759CC79239F7B179B0FFACAA9A75D522B39400F SWAP1 POP DUP3 PUSH1 0xE0 DUP2 DUP2 MSTORE POP POP DUP2 PUSH2 0x100 DUP2 DUP2 MSTORE POP POP CHAINID PUSH1 0xA0 DUP2 DUP2 MSTORE POP POP PUSH2 0x170 DUP2 DUP5 DUP5 PUSH2 0x1BF PUSH1 0x20 SHL PUSH1 0x20 SHR JUMP JUMPDEST PUSH1 0x80 DUP2 DUP2 MSTORE POP POP ADDRESS PUSH20 0xFFFFFFFFFFFFFFFFFFFFFFFFFFFFFFFFFFFFFFFF AND PUSH1 0xC0 DUP2 PUSH20 0xFFFFFFFFFFFFFFFFFFFFFFFFFFFFFFFFFFFFFFFF AND DUP2 MSTORE POP POP DUP1 PUSH2 0x120 DUP2 DUP2 MSTORE POP POP POP POP POP POP POP POP PUSH2 0x5B8 JUMP JUMPDEST PUSH0 DUP4 DUP4 DUP4 CHAINID ADDRESS PUSH1 0x40 MLOAD PUSH1 0x20 ADD PUSH2 0x1D9 SWAP6 SWAP5 SWAP4 SWAP3 SWAP2 SWAP1 PUSH2 0x567 JUMP JUMPDEST PUSH1 0x40 MLOAD PUSH1 0x20 DUP2 DUP4 SUB SUB DUP2 MSTORE SWAP1 PUSH1 0x40 MSTORE DUP1 MLOAD SWAP1 PUSH1 0x20 ADD KECCAK256 SWAP1 POP SWAP4 SWAP3 POP POP POP JUMP JUMPDEST PUSH0 DUP2 MLOAD SWAP1 POP SWAP2 SWAP1 POP JUMP JUMPDEST PUSH32 0x4E487B7100000000000000000000000000000000000000000000000000000000 PUSH0 MSTORE PUSH1 0x41 PUSH1 0x4 MSTORE PUSH1 0x24 PUSH0 REVERT JUMPDEST PUSH32 0x4E487B7100000000000000000000000000000000000000000000000000000000 PUSH0 MSTORE PUSH1 0x22 PUSH1 0x4 MSTORE PUSH1 0x24 PUSH0 REVERT JUMPDEST PUSH0 PUSH1 0x2 DUP3 DIV SWAP1 POP PUSH1 0x1 DUP3 AND DUP1 PUSH2 0x273 JUMPI PUSH1 0x7F DUP3 AND SWAP2 POP JUMPDEST PUSH1 0x20 DUP3 LT DUP2 SUB PUSH2 0x286 JUMPI PUSH2 0x285 PUSH2 0x22F JUMP JUMPDEST JUMPDEST POP SWAP2 SWAP1 POP JUMP JUMPDEST PUSH0 DUP2 SWAP1 POP DUP2 PUSH0 MSTORE PUSH1 0x20 PUSH0 KECCAK256 SWAP1 POP SWAP2 SWAP1 POP JUMP JUMPDEST PUSH0 PUSH1 0x20 PUSH1 0x1F DUP4 ADD DIV SWAP1 POP SWAP2 SWAP1 POP JUMP JUMPDEST PUSH0 DUP3 DUP3 SHL SWAP1 POP SWAP3 SWAP2 POP POP JUMP JUMPDEST PUSH0 PUSH1 0x8 DUP4 MUL PUSH2 0x2E8 PUSH32 0xFFFFFFFFFFFFFFFFFFFFFFFFFFFFFFFFFFFFFFFFFFFFFFFFFFFFFFFFFFFFFFFF DUP3 PUSH2 0x2AD JUMP JUMPDEST PUSH2 0x2F2 DUP7 DUP4 PUSH2 0x2AD JUMP JUMPDEST SWAP6 POP DUP1 NOT DUP5 AND SWAP4 POP DUP1 DUP7 AND DUP5 OR SWAP3 POP POP POP SWAP4 SWAP3 POP POP POP JUMP JUMPDEST PUSH0 DUP2 SWAP1 POP SWAP2 SWAP1 POP JUMP JUMPDEST PUSH0 DUP2 SWAP1 POP SWAP2 SWAP1 POP JUMP JUMPDEST PUSH0 PUSH2 0x336 PUSH2 0x331 PUSH2 0x32C DUP5 PUSH2 0x30A JUMP JUMPDEST PUSH2 0x313 JUMP JUMPDEST PUSH2 0x30A JUMP JUMPDEST SWAP1 POP SWAP2 SWAP1 POP JUMP JUMPDEST PUSH0 DUP2 SWAP1 POP SWAP2 SWAP1 POP JUMP JUMPDEST PUSH2 0x34F DUP4 PUSH2 0x31C JUMP JUMPDEST PUSH2 0x363 PUSH2 0x35B DUP3 PUSH2 0x33D JUMP JUMPDEST DUP5 DUP5 SLOAD PUSH2 0x2B9 JUMP JUMPDEST DUP3 SSTORE POP POP POP POP JUMP JUMPDEST PUSH0 SWAP1 JUMP JUMPDEST PUSH2 0x377 PUSH2 0x36B JUMP JUMPDEST PUSH2 0x382 DUP2 DUP5 DUP5 PUSH2 0x346 JUMP JUMPDEST POP POP POP JUMP JUMPDEST JUMPDEST DUP2 DUP2 LT ISZERO PUSH2 0x3A5 JUMPI PUSH2 0x39A PUSH0 DUP3 PUSH2 0x36F JUMP JUMPDEST PUSH1 0x1 DUP2 ADD SWAP1 POP PUSH2 0x388 JUMP JUMPDEST POP POP JUMP JUMPDEST PUSH1 0x1F DUP3 GT ISZERO PUSH2 0x3EA JUMPI PUSH2 0x3BB DUP2 PUSH2 0x28C JUMP JUMPDEST PUSH2 0x3C4 DUP5 PUSH2 0x29E JUMP JUMPDEST DUP2 ADD PUSH1 0x20 DUP6 LT ISZERO PUSH2 0x3D3 JUMPI DUP2 SWAP1 POP JUMPDEST PUSH2 0x3E7 PUSH2 0x3DF DUP6 PUSH2 0x29E JUMP JUMPDEST DUP4 ADD DUP3 PUSH2 0x387 JUMP JUMPDEST POP POP JUMPDEST POP POP POP JUMP JUMPDEST PUSH0 DUP3 DUP3 SHR SWAP1 POP SWAP3 SWAP2 POP POP JUMP JUMPDEST PUSH0 PUSH2 0x40A PUSH0 NOT DUP5 PUSH1 0x8 MUL PUSH2 0x3EF JUMP JUMPDEST NOT DUP1 DUP4 AND SWAP2 POP POP SWAP3 SWAP2 POP POP JUMP JUMPDEST PUSH0 PUSH2 0x422 DUP4 DUP4 PUSH2 0x3FB JUMP JUMPDEST SWAP2 POP DUP3 PUSH1 0x2 MUL DUP3 OR SWAP1 POP SWAP3 SWAP2 POP POP JUMP JUMPDEST PUSH2 0x43B DUP3 PUSH2 0x1F8 JUMP JUMPDEST PUSH8 0xFFFFFFFFFFFFFFFF DUP2 GT ISZERO PUSH2 0x454 JUMPI PUSH2 0x453 PUSH2 0x202 JUMP JUMPDEST JUMPDEST PUSH2 0x45E DUP3 SLOAD PUSH2 0x25C JUMP JUMPDEST PUSH2 0x469 DUP3 DUP3 DUP6 PUSH2 0x3A9 JUMP JUMPDEST PUSH0 PUSH1 0x20 SWAP1 POP PUSH1 0x1F DUP4 GT PUSH1 0x1 DUP2 EQ PUSH2 0x49A JUMPI PUSH0 DUP5 ISZERO PUSH2 0x488 JUMPI DUP3 DUP8 ADD MLOAD SWAP1 POP JUMPDEST PUSH2 0x492 DUP6 DUP3 PUSH2 0x417 JUMP JUMPDEST DUP7 SSTORE POP PUSH2 0x4F9 JUMP JUMPDEST PUSH1 0x1F NOT DUP5 AND PUSH2 0x4A8 DUP7 PUSH2 0x28C JUMP JUMPDEST PUSH0 JUMPDEST DUP3 DUP2 LT ISZERO PUSH2 0x4CF JUMPI DUP5 DUP10 ADD MLOAD DUP3 SSTORE PUSH1 0x1 DUP3 ADD SWAP2 POP PUSH1 0x20 DUP6 ADD SWAP5 POP PUSH1 0x20 DUP2 ADD SWAP1 POP PUSH2 0x4AA JUMP JUMPDEST DUP7 DUP4 LT ISZERO PUSH2 0x4EC JUMPI DUP5 DUP10 ADD MLOAD PUSH2 0x4E8 PUSH1 0x1F DUP10 AND DUP3 PUSH2 0x3FB JUMP JUMPDEST DUP4 SSTORE POP JUMPDEST PUSH1 0x1 PUSH1 0x2 DUP9 MUL ADD DUP9 SSTORE POP POP POP JUMPDEST POP POP POP POP POP POP JUMP JUMPDEST PUSH0 DUP2 SWAP1 POP SWAP2 SWAP1 POP JUMP JUMPDEST PUSH2 0x513 DUP2 PUSH2 0x501 JUMP JUMPDEST DUP3 MSTORE POP POP JUMP JUMPDEST PUSH2 0x522 DUP2 PUSH2 0x30A JUMP JUMPDEST DUP3 MSTORE POP POP JUMP JUMPDEST PUSH0 PUSH20 0xFFFFFFFFFFFFFFFFFFFFFFFFFFFFFFFFFFFFFFFF DUP3 AND SWAP1 POP SWAP2 SWAP1 POP JUMP JUMPDEST PUSH0 PUSH2 0x551 DUP3 PUSH2 0x528 JUMP JUMPDEST SWAP1 POP SWAP2 SWAP1 POP JUMP JUMPDEST PUSH2 0x561 DUP2 PUSH2 0x547 JUMP JUMPDEST DUP3 MSTORE POP POP JUMP JUMPDEST PUSH0 PUSH1 0xA0 DUP3 ADD SWAP1 POP PUSH2 0x57A PUSH0 DUP4 ADD DUP9 PUSH2 0x50A JUMP JUMPDEST PUSH2 0x587 PUSH1 0x20 DUP4 ADD DUP8 PUSH2 0x50A JUMP JUMPDEST PUSH2 0x594 PUSH1 0x40 DUP4 ADD DUP7 PUSH2 0x50A JUMP JUMPDEST PUSH2 0x5A1 PUSH1 0x60 DUP4 ADD DUP6 PUSH2 0x519 JUMP JUMPDEST PUSH2 0x5AE PUSH1 0x80 DUP4 ADD DUP5 PUSH2 0x558 JUMP JUMPDEST SWAP7 SWAP6 POP POP POP POP POP POP JUMP JUMPDEST PUSH1 0x80 MLOAD PUSH1 0xA0 MLOAD PUSH1 0xC0 MLOAD PUSH1 0xE0 MLOAD PUSH2 0x100 MLOAD PUSH2 0x120 MLOAD PUSH2 0x20AF PUSH2 0x5FF PUSH0 CODECOPY PUSH0 PUSH2 0xD79 ADD MSTORE PUSH0 PUSH2 0xDBB ADD MSTORE PUSH0 PUSH2 0xD9A ADD MSTORE PUSH0 PUSH2 0xCCF ADD MSTORE PUSH0 PUSH2 0xD25 ADD MSTORE PUSH0 PUSH2 0xD4E ADD MSTORE PUSH2 0x20AF PUSH0 RETURN INVALID PUSH1 0x80 PUSH1 0x40 MSTORE CALLVALUE DUP1 ISZERO PUSH2 0xF JUMPI PUSH0 DUP1 REVERT JUMPDEST POP PUSH1 0x4 CALLDATASIZE LT PUSH2 0xF3 JUMPI PUSH0 CALLDATALOAD PUSH1 0xE0 SHR DUP1 PUSH4 0x40C10F19 GT PUSH2 0x95 JUMPI DUP1 PUSH4 0xA457C2D7 GT PUSH2 0x64 JUMPI DUP1 PUSH4 0xA457C2D7 EQ PUSH2 0x299 JUMPI DUP1 PUSH4 0xA9059CBB EQ PUSH2 0x2C9 JUMPI DUP1 PUSH4 0xD505ACCF EQ PUSH2 0x2F9 JUMPI DUP1 PUSH4 0xDD62ED3E EQ PUSH2 0x315 JUMPI PUSH2 0xF3 JUMP JUMPDEST DUP1 PUSH4 0x40C10F19 EQ PUSH2 0x1FF JUMPI DUP1 PUSH4 0x70A08231 EQ PUSH2 0x21B JUMPI DUP1 PUSH4 0x7ECEBE00 EQ PUSH2 0x24B JUMPI DUP1 PUSH4 0x95D89B41 EQ PUSH2 0x27B JUMPI PUSH2 0xF3 JUMP JUMPDEST DUP1 PUSH4 0x23B872DD GT PUSH2 0xD1 JUMPI DUP1 PUSH4 0x23B872DD EQ PUSH2 0x163 JUMPI DUP1 PUSH4 0x313CE567 EQ PUSH2 0x193 JUMPI DUP1 PUSH4 0x3644E515 EQ PUSH2 0x1B1 JUMPI DUP1 PUSH4 0x39509351 EQ PUSH2 0x1CF JUMPI PUSH2 0xF3 JUMP JUMPDEST DUP1 PUSH4 0x6FDDE03 EQ PUSH2 0xF7 JUMPI DUP1 PUSH4 0x95EA7B3 EQ PUSH2 0x115 JUMPI DUP1 PUSH4 0x18160DDD EQ PUSH2 0x145 JUMPI JUMPDEST PUSH0 DUP1 REVERT JUMPDEST PUSH2 0xFF PUSH2 0x345 JUMP JUMPDEST PUSH1 0x40 MLOAD PUSH2 0x10C SWAP2 SWAP1 PUSH2 0x13AA JUMP JUMPDEST PUSH1 0x40 MLOAD DUP1 SWAP2 SUB SWAP1 RETURN JUMPDEST PUSH2 0x12F PUSH1 0x4 DUP1 CALLDATASIZE SUB DUP2 ADD SWAP1 PUSH2 0x12A SWAP2 SWAP1 PUSH2 0x145B JUMP JUMPDEST PUSH2 0x3D5 JUMP JUMPDEST PUSH1 0x40 MLOAD PUSH2 0x13C SWAP2 SWAP1 PUSH2 0x14B3 JUMP JUMPDEST PUSH1 0x40 MLOAD DUP1 SWAP2 SUB SWAP1 RETURN JUMPDEST PUSH2 0x14D PUSH2 0x3F7 JUMP JUMPDEST PUSH1 0x40 MLOAD PUSH2 0x15A SWAP2 SWAP1 PUSH2 0x14DB JUMP JUMPDEST PUSH1 0x40 MLOAD DUP1 SWAP2 SUB SWAP1 RETURN JUMPDEST PUSH2 0x17D PUSH1 0x4 DUP1 CALLDATASIZE SUB DUP2 ADD SWAP1 PUSH2 0x178 SWAP2 SWAP1 PUSH2 0x14F4 JUMP JUMPDEST PUSH2 0x400 JUMP JUMPDEST PUSH1 0x40 MLOAD PUSH2 0x18A SWAP2 SWAP1 PUSH2 0x14B3 JUMP JUMPDEST PUSH1 0x40 MLOAD DUP1 SWAP2 SUB SWAP1 RETURN JUMPDEST PUSH2 0x19B PUSH2 0x42E JUMP JUMPDEST PUSH1 0x40 MLOAD PUSH2 0x1A8 SWAP2 SWAP1 PUSH2 0x155F JUMP JUMPDEST PUSH1 0x40 MLOAD DUP1 SWAP2 SUB SWAP1 RETURN JUMPDEST PUSH2 0x1B9 PUSH2 0x436 JUMP JUMPDEST PUSH1 0x40 MLOAD PUSH2 0x1C6 SWAP2 SWAP1 PUSH2 0x1590 JUMP JUMPDEST PUSH1 0x40 MLOAD DUP1 SWAP2 SUB SWAP1 RETURN JUMPDEST PUSH2 0x1E9 PUSH1 0x4 DUP1 CALLDATASIZE SUB DUP2 ADD SWAP1 PUSH2 0x1E4 SWAP2 SWAP1 PUSH2 0x145B JUMP JUMPDEST PUSH2 0x444 JUMP JUMPDEST PUSH1 0x40 MLOAD PUSH2 0x1F6 SWAP2 SWAP1 PUSH2 0x14B3 JUMP JUMPDEST PUSH1 0x40 MLOAD DUP1 SWAP2 SUB SWAP1 RETURN JUMPDEST PUSH2 0x219 PUSH1 0x4 DUP1 CALLDATASIZE SUB DUP2 ADD SWAP1 PUSH2 0x214 SWAP2 SWAP1 PUSH2 0x145B JUMP JUMPDEST PUSH2 0x47A JUMP JUMPDEST STOP JUMPDEST PUSH2 0x235 PUSH1 0x4 DUP1 CALLDATASIZE SUB DUP2 ADD SWAP1 PUSH2 0x230 SWAP2 SWAP1 PUSH2 0x15A9 JUMP JUMPDEST PUSH2 0x488 JUMP JUMPDEST PUSH1 0x40 MLOAD PUSH2 0x242 SWAP2 SWAP1 PUSH2 0x14DB JUMP JUMPDEST PUSH1 0x40 MLOAD DUP1 SWAP2 SUB SWAP1 RETURN JUMPDEST PUSH2 0x265 PUSH1 0x4 DUP1 CALLDATASIZE SUB DUP2 ADD SWAP1 PUSH2 0x260 SWAP2 SWAP1 PUSH2 0x15A9 JUMP JUMPDEST PUSH2 0x4CD JUMP JUMPDEST PUSH1 0x40 MLOAD PUSH2 0x272 SWAP2 SWAP1 PUSH2 0x14DB JUMP JUMPDEST PUSH1 0x40 MLOAD DUP1 SWAP2 SUB SWAP1 RETURN JUMPDEST PUSH2 0x283 PUSH2 0x51A JUMP JUMPDEST PUSH1 0x40 MLOAD PUSH2 0x290 SWAP2 SWAP1 PUSH2 0x13AA JUMP JUMPDEST PUSH1 0x40 MLOAD DUP1 SWAP2 SUB SWAP1 RETURN JUMPDEST PUSH2 0x2B3 PUSH1 0x4 DUP1 CALLDATASIZE SUB DUP2 ADD SWAP1 PUSH2 0x2AE SWAP2 SWAP1 PUSH2 0x145B JUMP JUMPDEST PUSH2 0x5AA JUMP JUMPDEST PUSH1 0x40 MLOAD PUSH2 0x2C0 SWAP2 SWAP1 PUSH2 0x14B3 JUMP JUMPDEST PUSH1 0x40 MLOAD DUP1 SWAP2 SUB SWAP1 RETURN JUMPDEST PUSH2 0x2E3 PUSH1 0x4 DUP1 CALLDATASIZE SUB DUP2 ADD SWAP1 PUSH2 0x2DE SWAP2 SWAP1 PUSH2 0x145B JUMP JUMPDEST PUSH2 0x61F JUMP JUMPDEST PUSH1 0x40 MLOAD PUSH2 0x2F0 SWAP2 SWAP1 PUSH2 0x14B3 JUMP JUMPDEST PUSH1 0x40 MLOAD DUP1 SWAP2 SUB SWAP1 RETURN JUMPDEST PUSH2 0x313 PUSH1 0x4 DUP1 CALLDATASIZE SUB DUP2 ADD SWAP1 PUSH2 0x30E SWAP2 SWAP1 PUSH2 0x1628 JUMP JUMPDEST PUSH2 0x641 JUMP JUMPDEST STOP JUMPDEST PUSH2 0x32F PUSH1 0x4 DUP1 CALLDATASIZE SUB DUP2 ADD SWAP1 PUSH2 0x32A SWAP2 SWAP1 PUSH2 0x16C5 JUMP JUMPDEST PUSH2 0x780 JUMP JUMPDEST PUSH1 0x40 MLOAD PUSH2 0x33C SWAP2 SWAP1 PUSH2 0x14DB JUMP JUMPDEST PUSH1 0x40 MLOAD DUP1 SWAP2 SUB SWAP1 RETURN JUMPDEST PUSH1 0x60 PUSH1 0x3 DUP1 SLOAD PUSH2 0x354 SWAP1 PUSH2 0x1730 JUMP JUMPDEST DUP1 PUSH1 0x1F ADD PUSH1 0x20 DUP1 SWAP2 DIV MUL PUSH1 0x20 ADD PUSH1 0x40 MLOAD SWAP1 DUP2 ADD PUSH1 0x40 MSTORE DUP1 SWAP3 SWAP2 SWAP1 DUP2 DUP2 MSTORE PUSH1 0x20 ADD DUP3 DUP1 SLOAD PUSH2 0x380 SWAP1 PUSH2 0x1730 JUMP JUMPDEST DUP1 ISZERO PUSH2 0x3CB JUMPI DUP1 PUSH1 0x1F LT PUSH2 0x3A2 JUMPI PUSH2 0x100 DUP1 DUP4 SLOAD DIV MUL DUP4 MSTORE SWAP2 PUSH1 0x20 ADD SWAP2 PUSH2 0x3CB JUMP JUMPDEST DUP3 ADD SWAP2 SWAP1 PUSH0 MSTORE PUSH1 0x20 PUSH0 KECCAK256 SWAP1 JUMPDEST DUP2 SLOAD DUP2 MSTORE SWAP1 PUSH1 0x1 ADD SWAP1 PUSH1 0x20 ADD DUP1 DUP4 GT PUSH2 0x3AE JUMPI DUP3 SWAP1 SUB PUSH1 0x1F AND DUP3 ADD SWAP2 JUMPDEST POP POP POP POP POP SWAP1 POP SWAP1 JUMP JUMPDEST PUSH0 DUP1 PUSH2 0x3DF PUSH2 0x802 JUMP JUMPDEST SWAP1 POP PUSH2 0x3EC DUP2 DUP6 DUP6 PUSH2 0x809 JUMP JUMPDEST PUSH1 0x1 SWAP2 POP POP SWAP3 SWAP2 POP POP JUMP JUMPDEST PUSH0 PUSH1 0x2 SLOAD SWAP1 POP SWAP1 JUMP JUMPDEST PUSH0 DUP1 PUSH2 0x40A PUSH2 0x802 JUMP JUMPDEST SWAP1 POP PUSH2 0x417 DUP6 DUP3 DUP6 PUSH2 0x9CC JUMP JUMPDEST PUSH2 0x422 DUP6 DUP6 DUP6 PUSH2 0xA57 JUMP JUMPDEST PUSH1 0x1 SWAP2 POP POP SWAP4 SWAP3 POP POP POP JUMP JUMPDEST PUSH0 PUSH1 0x12 SWAP1 POP SWAP1 JUMP JUMPDEST PUSH0 PUSH2 0x43F PUSH2 0xCCC JUMP JUMPDEST SWAP1 POP SWAP1 JUMP JUMPDEST PUSH0 DUP1 PUSH2 0x44E PUSH2 0x802 JUMP JUMPDEST SWAP1 POP PUSH2 0x46F DUP2 DUP6 DUP6 PUSH2 0x460 DUP6 DUP10 PUSH2 0x780 JUMP JUMPDEST PUSH2 0x46A SWAP2 SWAP1 PUSH2 0x178D JUMP JUMPDEST PUSH2 0x809 JUMP JUMPDEST PUSH1 0x1 SWAP2 POP POP SWAP3 SWAP2 POP POP JUMP JUMPDEST PUSH2 0x484 DUP3 DUP3 PUSH2 0xDE5 JUMP JUMPDEST POP POP JUMP JUMPDEST PUSH0 DUP1 PUSH0 DUP4 PUSH20 0xFFFFFFFFFFFFFFFFFFFFFFFFFFFFFFFFFFFFFFFF AND PUSH20 0xFFFFFFFFFFFFFFFFFFFFFFFFFFFFFFFFFFFFFFFF AND DUP2 MSTORE PUSH1 0x20 ADD SWAP1 DUP2 MSTORE PUSH1 0x20 ADD PUSH0 KECCAK256 SLOAD SWAP1 POP SWAP2 SWAP1 POP JUMP JUMPDEST PUSH0 PUSH2 0x513 PUSH1 0x5 PUSH0 DUP5 PUSH20 0xFFFFFFFFFFFFFFFFFFFFFFFFFFFFFFFFFFFFFFFF AND PUSH20 0xFFFFFFFFFFFFFFFFFFFFFFFFFFFFFFFFFFFFFFFF AND DUP2 MSTORE PUSH1 0x20 ADD SWAP1 DUP2 MSTORE PUSH1 0x20 ADD PUSH0 KECCAK256 PUSH2 0xF3C JUMP JUMPDEST SWAP1 POP SWAP2 SWAP1 POP JUMP JUMPDEST PUSH1 0x60 PUSH1 0x4 DUP1 SLOAD PUSH2 0x529 SWAP1 PUSH2 0x1730 JUMP JUMPDEST DUP1 PUSH1 0x1F ADD PUSH1 0x20 DUP1 SWAP2 DIV MUL PUSH1 0x20 ADD PUSH1 0x40 MLOAD SWAP1 DUP2 ADD PUSH1 0x40 MSTORE DUP1 SWAP3 SWAP2 SWAP1 DUP2 DUP2 MSTORE PUSH1 0x20 ADD DUP3 DUP1 SLOAD PUSH2 0x555 SWAP1 PUSH2 0x1730 JUMP JUMPDEST DUP1 ISZERO PUSH2 0x5A0 JUMPI DUP1 PUSH1 0x1F LT PUSH2 0x577 JUMPI PUSH2 0x100 DUP1 DUP4 SLOAD DIV MUL DUP4 MSTORE SWAP2 PUSH1 0x20 ADD SWAP2 PUSH2 0x5A0 JUMP JUMPDEST DUP3 ADD SWAP2 SWAP1 PUSH0 MSTORE PUSH1 0x20 PUSH0 KECCAK256 SWAP1 JUMPDEST DUP2 SLOAD DUP2 MSTORE SWAP1 PUSH1 0x1 ADD SWAP1 PUSH1 0x20 ADD DUP1 DUP4 GT PUSH2 0x583 JUMPI DUP3 SWAP1 SUB PUSH1 0x1F AND DUP3 ADD SWAP2 JUMPDEST POP POP POP POP POP SWAP1 POP SWAP1 JUMP JUMPDEST PUSH0 DUP1 PUSH2 0x5B4 PUSH2 0x802 JUMP JUMPDEST SWAP1 POP PUSH0 PUSH2 0x5C1 DUP3 DUP7 PUSH2 0x780 JUMP JUMPDEST SWAP1 POP DUP4 DUP2 LT ISZERO PUSH2 0x606 JUMPI PUSH1 0x40 MLOAD PUSH32 0x8C379A000000000000000000000000000000000000000000000000000000000 DUP2 MSTORE PUSH1 0x4 ADD PUSH2 0x5FD SWAP1 PUSH2 0x1830 JUMP JUMPDEST PUSH1 0x40 MLOAD DUP1 SWAP2 SUB SWAP1 REVERT JUMPDEST PUSH2 0x613 DUP3 DUP7 DUP7 DUP5 SUB PUSH2 0x809 JUMP JUMPDEST PUSH1 0x1 SWAP3 POP POP POP SWAP3 SWAP2 POP POP JUMP JUMPDEST PUSH0 DUP1 PUSH2 0x629 PUSH2 0x802 JUMP JUMPDEST SWAP1 POP PUSH2 0x636 DUP2 DUP6 DUP6 PUSH2 0xA57 JUMP JUMPDEST PUSH1 0x1 SWAP2 POP POP SWAP3 SWAP2 POP POP JUMP JUMPDEST DUP4 TIMESTAMP GT ISZERO PUSH2 0x684 JUMPI PUSH1 0x40 MLOAD PUSH32 0x8C379A000000000000000000000000000000000000000000000000000000000 DUP2 MSTORE PUSH1 0x4 ADD PUSH2 0x67B SWAP1 PUSH2 0x1898 JUMP JUMPDEST PUSH1 0x40 MLOAD DUP1 SWAP2 SUB SWAP1 REVERT JUMPDEST PUSH0 PUSH32 0x6E71EDAE12B1B97F4D1F60370FEF10105FA2FAAE0126114A169C64845D6126C9 DUP9 DUP9 DUP9 PUSH2 0x6B2 DUP13 PUSH2 0xF48 JUMP JUMPDEST DUP10 PUSH1 0x40 MLOAD PUSH1 0x20 ADD PUSH2 0x6C8 SWAP7 SWAP6 SWAP5 SWAP4 SWAP3 SWAP2 SWAP1 PUSH2 0x18C5 JUMP JUMPDEST PUSH1 0x40 MLOAD PUSH1 0x20 DUP2 DUP4 SUB SUB DUP2 MSTORE SWAP1 PUSH1 0x40 MSTORE DUP1 MLOAD SWAP1 PUSH1 0x20 ADD KECCAK256 SWAP1 POP PUSH0 PUSH2 0x6EA DUP3 PUSH2 0xFA3 JUMP JUMPDEST SWAP1 POP PUSH0 PUSH2 0x6F9 DUP3 DUP8 DUP8 DUP8 PUSH2 0xFBC JUMP JUMPDEST SWAP1 POP DUP10 PUSH20 0xFFFFFFFFFFFFFFFFFFFFFFFFFFFFFFFFFFFFFFFF AND DUP2 PUSH20 0xFFFFFFFFFFFFFFFFFFFFFFFFFFFFFFFFFFFFFFFF AND EQ PUSH2 0x769 JUMPI PUSH1 0x40 MLOAD PUSH32 0x8C379A000000000000000000000000000000000000000000000000000000000 DUP2 MSTORE PUSH1 0x4 ADD PUSH2 0x760 SWAP1 PUSH2 0x196E JUMP JUMPDEST PUSH1 0x40 MLOAD DUP1 SWAP2 SUB SWAP1 REVERT JUMPDEST PUSH2 0x774 DUP11 DUP11 DUP11 PUSH2 0x809 JUMP JUMPDEST POP POP POP POP POP POP POP POP POP POP JUMP JUMPDEST PUSH0 PUSH1 0x1 PUSH0 DUP5 PUSH20 0xFFFFFFFFFFFFFFFFFFFFFFFFFFFFFFFFFFFFFFFF AND PUSH20 0xFFFFFFFFFFFFFFFFFFFFFFFFFFFFFFFFFFFFFFFF AND DUP2 MSTORE PUSH1 0x20 ADD SWAP1 DUP2 MSTORE PUSH1 0x20 ADD PUSH0 KECCAK256 PUSH0 DUP4 PUSH20 0xFFFFFFFFFFFFFFFFFFFFFFFFFFFFFFFFFFFFFFFF AND PUSH20 0xFFFFFFFFFFFFFFFFFFFFFFFFFFFFFFFFFFFFFFFF AND DUP2 MSTORE PUSH1 0x20 ADD SWAP1 DUP2 MSTORE PUSH1 0x20 ADD PUSH0 KECCAK256 SLOAD SWAP1 POP SWAP3 SWAP2 POP POP JUMP JUMPDEST PUSH0 CALLER SWAP1 POP SWAP1 JUMP JUMPDEST PUSH0 PUSH20 0xFFFFFFFFFFFFFFFFFFFFFFFFFFFFFFFFFFFFFFFF AND DUP4 PUSH20 0xFFFFFFFFFFFFFFFFFFFFFFFFFFFFFFFFFFFFFFFF AND SUB PUSH2 0x877 JUMPI PUSH1 0x40 MLOAD PUSH32 0x8C379A000000000000000000000000000000000000000000000000000000000 DUP2 MSTORE PUSH1 0x4 ADD PUSH2 0x86E SWAP1 PUSH2 0x19FC JUMP JUMPDEST PUSH1 0x40 MLOAD DUP1 SWAP2 SUB SWAP1 REVERT JUMPDEST PUSH0 PUSH20 0xFFFFFFFFFFFFFFFFFFFFFFFFFFFFFFFFFFFFFFFF AND DUP3 PUSH20 0xFFFFFFFFFFFFFFFFFFFFFFFFFFFFFFFFFFFFFFFF AND SUB PUSH2 0x8E5 JUMPI PUSH1 0x40 MLOAD PUSH32 0x8C379A000000000000000000000000000000000000000000000000000000000 DUP2 MSTORE PUSH1 0x4 ADD PUSH2 0x8DC SWAP1 PUSH2 0x1A8A JUMP JUMPDEST PUSH1 0x40 MLOAD DUP1 SWAP2 SUB SWAP1 REVERT JUMPDEST DUP1 PUSH1 0x1 PUSH0 DUP6 PUSH20 0xFFFFFFFFFFFFFFFFFFFFFFFFFFFFFFFFFFFFFFFF AND PUSH20 0xFFFFFFFFFFFFFFFFFFFFFFFFFFFFFFFFFFFFFFFF AND DUP2 MSTORE PUSH1 0x20 ADD SWAP1 DUP2 MSTORE PUSH1 0x20 ADD PUSH0 KECCAK256 PUSH0 DUP5 PUSH20 0xFFFFFFFFFFFFFFFFFFFFFFFFFFFFFFFFFFFFFFFF AND PUSH20 0xFFFFFFFFFFFFFFFFFFFFFFFFFFFFFFFFFFFFFFFF AND DUP2 MSTORE PUSH1 0x20 ADD SWAP1 DUP2 MSTORE PUSH1 0x20 ADD PUSH0 KECCAK256 DUP2 SWAP1 SSTORE POP DUP2 PUSH20 0xFFFFFFFFFFFFFFFFFFFFFFFFFFFFFFFFFFFFFFFF AND DUP4 PUSH20 0xFFFFFFFFFFFFFFFFFFFFFFFFFFFFFFFFFFFFFFFF AND PUSH32 0x8C5BE1E5EBEC7D5BD14F71427D1E84F3DD0314C0F7B2291E5B200AC8C7C3B925 DUP4 PUSH1 0x40 MLOAD PUSH2 0x9BF SWAP2 SWAP1 PUSH2 0x14DB JUMP JUMPDEST PUSH1 0x40 MLOAD DUP1 SWAP2 SUB SWAP1 LOG3 POP POP POP JUMP JUMPDEST PUSH0 PUSH2 0x9D7 DUP5 DUP5 PUSH2 0x780 JUMP JUMPDEST SWAP1 POP PUSH32 0xFFFFFFFFFFFFFFFFFFFFFFFFFFFFFFFFFFFFFFFFFFFFFFFFFFFFFFFFFFFFFFFF DUP2 EQ PUSH2 0xA51 JUMPI DUP2 DUP2 LT ISZERO PUSH2 0xA43 JUMPI PUSH1 0x40 MLOAD PUSH32 0x8C379A000000000000000000000000000000000000000000000000000000000 DUP2 MSTORE PUSH1 0x4 ADD PUSH2 0xA3A SWAP1 PUSH2 0x1AF2 JUMP JUMPDEST PUSH1 0x40 MLOAD DUP1 SWAP2 SUB SWAP1 REVERT JUMPDEST PUSH2 0xA50 DUP5 DUP5 DUP5 DUP5 SUB PUSH2 0x809 JUMP JUMPDEST JUMPDEST POP POP POP POP JUMP JUMPDEST PUSH0 PUSH20 0xFFFFFFFFFFFFFFFFFFFFFFFFFFFFFFFFFFFFFFFF AND DUP4 PUSH20 0xFFFFFFFFFFFFFFFFFFFFFFFFFFFFFFFFFFFFFFFF AND SUB PUSH2 0xAC5 JUMPI PUSH1 0x40 MLOAD PUSH32 0x8C379A000000000000000000000000000000000000000000000000000000000 DUP2 MSTORE PUSH1 0x4 ADD PUSH2 0xABC SWAP1 PUSH2 0x1B80 JUMP JUMPDEST PUSH1 0x40 MLOAD DUP1 SWAP2 SUB SWAP1 REVERT JUMPDEST PUSH0 PUSH20 0xFFFFFFFFFFFFFFFFFFFFFFFFFFFFFFFFFFFFFFFF AND DUP3 PUSH20 0xFFFFFFFFFFFFFFFFFFFFFFFFFFFFFFFFFFFFFFFF AND SUB PUSH2 0xB33 JUMPI PUSH1 0x40 MLOAD PUSH32 0x8C379A000000000000000000000000000000000000000000000000000000000 DUP2 MSTORE PUSH1 0x4 ADD PUSH2 0xB2A SWAP1 PUSH2 0x1C0E JUMP JUMPDEST PUSH1 0x40 MLOAD DUP1 SWAP2 SUB SWAP1 REVERT JUMPDEST PUSH2 0xB3E DUP4 DUP4 DUP4 PUSH2 0xFE5 JUMP JUMPDEST PUSH0 DUP1 PUSH0 DUP6 PUSH20 0xFFFFFFFFFFFFFFFFFFFFFFFFFFFFFFFFFFFFFFFF AND PUSH20 0xFFFFFFFFFFFFFFFFFFFFFFFFFFFFFFFFFFFFFFFF AND DUP2 MSTORE PUSH1 0x20 ADD SWAP1 DUP2 MSTORE PUSH1 0x20 ADD PUSH0 KECCAK256 SLOAD SWAP1 POP DUP2 DUP2 LT ISZERO PUSH2 0xBC1 JUMPI PUSH1 0x40 MLOAD PUSH32 0x8C379A000000000000000000000000000000000000000000000000000000000 DUP2 MSTORE PUSH1 0x4 ADD PUSH2 0xBB8 SWAP1 PUSH2 0x1C9C JUMP JUMPDEST PUSH1 0x40 MLOAD DUP1 SWAP2 SUB SWAP1 REVERT JUMPDEST DUP2 DUP2 SUB PUSH0 DUP1 DUP7 PUSH20 0xFFFFFFFFFFFFFFFFFFFFFFFFFFFFFFFFFFFFFFFF AND PUSH20 0xFFFFFFFFFFFFFFFFFFFFFFFFFFFFFFFFFFFFFFFF AND DUP2 MSTORE PUSH1 0x20 ADD SWAP1 DUP2 MSTORE PUSH1 0x20 ADD PUSH0 KECCAK256 DUP2 SWAP1 SSTORE POP DUP2 PUSH0 DUP1 DUP6 PUSH20 0xFFFFFFFFFFFFFFFFFFFFFFFFFFFFFFFFFFFFFFFF AND PUSH20 0xFFFFFFFFFFFFFFFFFFFFFFFFFFFFFFFFFFFFFFFF AND DUP2 MSTORE PUSH1 0x20 ADD SWAP1 DUP2 MSTORE PUSH1 0x20 ADD PUSH0 KECCAK256 PUSH0 DUP3 DUP3 SLOAD PUSH2 0xC4F SWAP2 SWAP1 PUSH2 0x178D JUMP JUMPDEST SWAP3 POP POP DUP2 SWAP1 SSTORE POP DUP3 PUSH20 0xFFFFFFFFFFFFFFFFFFFFFFFFFFFFFFFFFFFFFFFF AND DUP5 PUSH20 0xFFFFFFFFFFFFFFFFFFFFFFFFFFFFFFFFFFFFFFFF AND PUSH32 0xDDF252AD1BE2C89B69C2B068FC378DAA952BA7F163C4A11628F55A4DF523B3EF DUP5 PUSH1 0x40 MLOAD PUSH2 0xCB3 SWAP2 SWAP1 PUSH2 0x14DB JUMP JUMPDEST PUSH1 0x40 MLOAD DUP1 SWAP2 SUB SWAP1 LOG3 PUSH2 0xCC6 DUP5 DUP5 DUP5 PUSH2 0xFEA JUMP JUMPDEST POP POP POP POP JUMP JUMPDEST PUSH0 PUSH32 0x0 PUSH20 0xFFFFFFFFFFFFFFFFFFFFFFFFFFFFFFFFFFFFFFFF AND ADDRESS PUSH20 0xFFFFFFFFFFFFFFFFFFFFFFFFFFFFFFFFFFFFFFFF AND EQ DUP1 ISZERO PUSH2 0xD47 JUMPI POP PUSH32 0x0 CHAINID EQ JUMPDEST ISZERO PUSH2 0xD74 JUMPI PUSH32 0x0 SWAP1 POP PUSH2 0xDE2 JUMP JUMPDEST PUSH2 0xDDF PUSH32 0x0 PUSH32 0x0 PUSH32 0x0 PUSH2 0xFEF JUMP JUMPDEST SWAP1 POP JUMPDEST SWAP1 JUMP JUMPDEST PUSH0 PUSH20 0xFFFFFFFFFFFFFFFFFFFFFFFFFFFFFFFFFFFFFFFF AND DUP3 PUSH20 0xFFFFFFFFFFFFFFFFFFFFFFFFFFFFFFFFFFFFFFFF AND SUB PUSH2 0xE53 JUMPI PUSH1 0x40 MLOAD PUSH32 0x8C379A000000000000000000000000000000000000000000000000000000000 DUP2 MSTORE PUSH1 0x4 ADD PUSH2 0xE4A SWAP1 PUSH2 0x1D04 JUMP JUMPDEST PUSH1 0x40 MLOAD DUP1 SWAP2 SUB SWAP1 REVERT JUMPDEST PUSH2 0xE5E PUSH0 DUP4 DUP4 PUSH2 0xFE5 JUMP JUMPDEST DUP1 PUSH1 0x2 PUSH0 DUP3 DUP3 SLOAD PUSH2 0xE6F SWAP2 SWAP1 PUSH2 0x178D JUMP JUMPDEST SWAP3 POP POP DUP2 SWAP1 SSTORE POP DUP1 PUSH0 DUP1 DUP5 PUSH20 0xFFFFFFFFFFFFFFFFFFFFFFFFFFFFFFFFFFFFFFFF AND PUSH20 0xFFFFFFFFFFFFFFFFFFFFFFFFFFFFFFFFFFFFFFFF AND DUP2 MSTORE PUSH1 0x20 ADD SWAP1 DUP2 MSTORE PUSH1 0x20 ADD PUSH0 KECCAK256 PUSH0 DUP3 DUP3 SLOAD PUSH2 0xEC1 SWAP2 SWAP1 PUSH2 0x178D JUMP JUMPDEST SWAP3 POP POP DUP2 SWAP1 SSTORE POP DUP2 PUSH20 0xFFFFFFFFFFFFFFFFFFFFFFFFFFFFFFFFFFFFFFFF AND PUSH0 PUSH20 0xFFFFFFFFFFFFFFFFFFFFFFFFFFFFFFFFFFFFFFFF AND PUSH32 0xDDF252AD1BE2C89B69C2B068FC378DAA952BA7F163C4A11628F55A4DF523B3EF DUP4 PUSH1 0x40 MLOAD PUSH2 0xF25 SWAP2 SWAP1 PUSH2 0x14DB JUMP JUMPDEST PUSH1 0x40 MLOAD DUP1 SWAP2 SUB SWAP1 LOG3 PUSH2 0xF38 PUSH0 DUP4 DUP4 PUSH2 0xFEA JUMP JUMPDEST POP POP JUMP JUMPDEST PUSH0 DUP2 PUSH0 ADD SLOAD SWAP1 POP SWAP2 SWAP1 POP JUMP JUMPDEST PUSH0 DUP1 PUSH1 0x5 PUSH0 DUP5 PUSH20 0xFFFFFFFFFFFFFFFFFFFFFFFFFFFFFFFFFFFFFFFF AND PUSH20 0xFFFFFFFFFFFFFFFFFFFFFFFFFFFFFFFFFFFFFFFF AND DUP2 MSTORE PUSH1 0x20 ADD SWAP1 DUP2 MSTORE PUSH1 0x20 ADD PUSH0 KECCAK256 SWAP1 POP PUSH2 0xF92 DUP2 PUSH2 0xF3C JUMP JUMPDEST SWAP2 POP PUSH2 0xF9D DUP2 PUSH2 0x1028 JUMP JUMPDEST POP SWAP2 SWAP1 POP JUMP JUMPDEST PUSH0 PUSH2 0xFB5 PUSH2 0xFAF PUSH2 0xCCC JUMP JUMPDEST DUP4 PUSH2 0x103C JUMP JUMPDEST SWAP1 POP SWAP2 SWAP1 POP JUMP JUMPDEST PUSH0 DUP1 PUSH0 PUSH2 0xFCB DUP8 DUP8 DUP8 DUP8 PUSH2 0x106E JUMP JUMPDEST SWAP2 POP SWAP2 POP PUSH2 0xFD8 DUP2 PUSH2 0x116F JUMP JUMPDEST DUP2 SWAP3 POP POP POP SWAP5 SWAP4 POP POP POP POP JUMP JUMPDEST POP POP POP JUMP JUMPDEST POP POP POP JUMP JUMPDEST PUSH0 DUP4 DUP4 DUP4 CHAINID ADDRESS PUSH1 0x40 MLOAD PUSH1 0x20 ADD PUSH2 0x1009 SWAP6 SWAP5 SWAP4 SWAP3 SWAP2 SWAP1 PUSH2 0x1D22 JUMP JUMPDEST PUSH1 0x40 MLOAD PUSH1 0x20 DUP2 DUP4 SUB SUB DUP2 MSTORE SWAP1 PUSH1 0x40 MSTORE DUP1 MLOAD SWAP1 PUSH1 0x20 ADD KECCAK256 SWAP1 POP SWAP4 SWAP3 POP POP POP JUMP JUMPDEST PUSH1 0x1 DUP2 PUSH0 ADD PUSH0 DUP3 DUP3 SLOAD ADD SWAP3 POP POP DUP2 SWAP1 SSTORE POP POP JUMP JUMPDEST PUSH0 DUP3 DUP3 PUSH1 0x40 MLOAD PUSH1 0x20 ADD PUSH2 0x1050 SWAP3 SWAP2 SWAP1 PUSH2 0x1DE7 JUMP JUMPDEST PUSH1 0x40 MLOAD PUSH1 0x20 DUP2 DUP4 SUB SUB DUP2 MSTORE SWAP1 PUSH1 0x40 MSTORE DUP1 MLOAD SWAP1 PUSH1 0x20 ADD KECCAK256 SWAP1 POP SWAP3 SWAP2 POP POP JUMP JUMPDEST PUSH0 DUP1 PUSH32 0x7FFFFFFFFFFFFFFFFFFFFFFFFFFFFFFF5D576E7357A4501DDFE92F46681B20A0 DUP4 PUSH0 SHR GT ISZERO PUSH2 0x10A6 JUMPI PUSH0 PUSH1 0x3 SWAP2 POP SWAP2 POP PUSH2 0x1166 JUMP JUMPDEST PUSH1 0x1B DUP6 PUSH1 0xFF AND EQ ISZERO DUP1 ISZERO PUSH2 0x10BE JUMPI POP PUSH1 0x1C DUP6 PUSH1 0xFF AND EQ ISZERO JUMPDEST ISZERO PUSH2 0x10CF JUMPI PUSH0 PUSH1 0x4 SWAP2 POP SWAP2 POP PUSH2 0x1166 JUMP JUMPDEST PUSH0 PUSH1 0x1 DUP8 DUP8 DUP8 DUP8 PUSH1 0x40 MLOAD PUSH0 DUP2 MSTORE PUSH1 0x20 ADD PUSH1 0x40 MSTORE PUSH1 0x40 MLOAD PUSH2 0x10F2 SWAP5 SWAP4 SWAP3 SWAP2 SWAP1 PUSH2 0x1E1D JUMP JUMPDEST PUSH1 0x20 PUSH1 0x40 MLOAD PUSH1 0x20 DUP2 SUB SWAP1 DUP1 DUP5 SUB SWAP1 DUP6 GAS STATICCALL ISZERO DUP1 ISZERO PUSH2 0x1112 JUMPI RETURNDATASIZE PUSH0 DUP1 RETURNDATACOPY RETURNDATASIZE PUSH0 REVERT JUMPDEST POP POP POP PUSH1 0x20 PUSH1 0x40 MLOAD SUB MLOAD SWAP1 POP PUSH0 PUSH20 0xFFFFFFFFFFFFFFFFFFFFFFFFFFFFFFFFFFFFFFFF AND DUP2 PUSH20 0xFFFFFFFFFFFFFFFFFFFFFFFFFFFFFFFFFFFFFFFF AND SUB PUSH2 0x115E JUMPI PUSH0 PUSH1 0x1 SWAP3 POP SWAP3 POP POP PUSH2 0x1166 JUMP JUMPDEST DUP1 PUSH0 SWAP3 POP SWAP3 POP POP JUMPDEST SWAP5 POP SWAP5 SWAP3 POP POP POP JUMP JUMPDEST PUSH0 PUSH1 0x4 DUP2 GT ISZERO PUSH2 0x1182 JUMPI PUSH2 0x1181 PUSH2 0x1E60 JUMP JUMPDEST JUMPDEST DUP2 PUSH1 0x4 DUP2 GT ISZERO PUSH2 0x1195 JUMPI PUSH2 0x1194 PUSH2 0x1E60 JUMP JUMPDEST JUMPDEST SUB ISZERO PUSH2 0x1337 JUMPI PUSH1 0x1 PUSH1 0x4 DUP2 GT ISZERO PUSH2 0x11AF JUMPI PUSH2 0x11AE PUSH2 0x1E60 JUMP JUMPDEST JUMPDEST DUP2 PUSH1 0x4 DUP2 GT ISZERO PUSH2 0x11C2 JUMPI PUSH2 0x11C1 PUSH2 0x1E60 JUMP JUMPDEST JUMPDEST SUB PUSH2 0x1202 JUMPI PUSH1 0x40 MLOAD PUSH32 0x8C379A000000000000000000000000000000000000000000000000000000000 DUP2 MSTORE PUSH1 0x4 ADD PUSH2 0x11F9 SWAP1 PUSH2 0x1ED7 JUMP JUMPDEST PUSH1 0x40 MLOAD DUP1 SWAP2 SUB SWAP1 REVERT JUMPDEST PUSH1 0x2 PUSH1 0x4 DUP2 GT ISZERO PUSH2 0x1216 JUMPI PUSH2 0x1215 PUSH2 0x1E60 JUMP JUMPDEST JUMPDEST DUP2 PUSH1 0x4 DUP2 GT ISZERO PUSH2 0x1229 JUMPI PUSH2 0x1228 PUSH2 0x1E60 JUMP JUMPDEST JUMPDEST SUB PUSH2 0x1269 JUMPI PUSH1 0x40 MLOAD PUSH32 0x8C379A000000000000000000000000000000000000000000000000000000000 DUP2 MSTORE PUSH1 0x4 ADD PUSH2 0x1260 SWAP1 PUSH2 0x1F3F JUMP JUMPDEST PUSH1 0x40 MLOAD DUP1 SWAP2 SUB SWAP1 REVERT JUMPDEST PUSH1 0x3 PUSH1 0x4 DUP2 GT ISZERO PUSH2 0x127D JUMPI PUSH2 0x127C PUSH2 0x1E60 JUMP JUMPDEST JUMPDEST DUP2 PUSH1 0x4 DUP2 GT ISZERO PUSH2 0x1290 JUMPI PUSH2 0x128F PUSH2 0x1E60 JUMP JUMPDEST JUMPDEST SUB PUSH2 0x12D0 JUMPI PUSH1 0x40 MLOAD PUSH32 0x8C379A000000000000000000000000000000000000000000000000000000000 DUP2 MSTORE PUSH1 0x4 ADD PUSH2 0x12C7 SWAP1 PUSH2 0x1FCD JUMP JUMPDEST PUSH1 0x40 MLOAD DUP1 SWAP2 SUB SWAP1 REVERT JUMPDEST PUSH1 0x4 DUP1 DUP2 GT ISZERO PUSH2 0x12E3 JUMPI PUSH2 0x12E2 PUSH2 0x1E60 JUMP JUMPDEST JUMPDEST DUP2 PUSH1 0x4 DUP2 GT ISZERO PUSH2 0x12F6 JUMPI PUSH2 0x12F5 PUSH2 0x1E60 JUMP JUMPDEST JUMPDEST SUB PUSH2 0x1336 JUMPI PUSH1 0x40 MLOAD PUSH32 0x8C379A000000000000000000000000000000000000000000000000000000000 DUP2 MSTORE PUSH1 0x4 ADD PUSH2 0x132D SWAP1 PUSH2 0x205B JUMP JUMPDEST PUSH1 0x40 MLOAD DUP1 SWAP2 SUB SWAP1 REVERT JUMPDEST JUMPDEST POP JUMP JUMPDEST PUSH0 DUP2 MLOAD SWAP1 POP SWAP2 SWAP1 POP JUMP JUMPDEST PUSH0 DUP3 DUP3 MSTORE PUSH1 0x20 DUP3 ADD SWAP1 POP SWAP3 SWAP2 POP POP JUMP JUMPDEST DUP3 DUP2 DUP4 MCOPY PUSH0 DUP4 DUP4 ADD MSTORE POP POP POP JUMP JUMPDEST PUSH0 PUSH1 0x1F NOT PUSH1 0x1F DUP4 ADD AND SWAP1 POP SWAP2 SWAP1 POP JUMP JUMPDEST PUSH0 PUSH2 0x137C DUP3 PUSH2 0x133A JUMP JUMPDEST PUSH2 0x1386 DUP2 DUP6 PUSH2 0x1344 JUMP JUMPDEST SWAP4 POP PUSH2 0x1396 DUP2 DUP6 PUSH1 0x20 DUP7 ADD PUSH2 0x1354 JUMP JUMPDEST PUSH2 0x139F DUP2 PUSH2 0x1362 JUMP JUMPDEST DUP5 ADD SWAP2 POP POP SWAP3 SWAP2 POP POP JUMP JUMPDEST PUSH0 PUSH1 0x20 DUP3 ADD SWAP1 POP DUP2 DUP2 SUB PUSH0 DUP4 ADD MSTORE PUSH2 0x13C2 DUP2 DUP5 PUSH2 0x1372 JUMP JUMPDEST SWAP1 POP SWAP3 SWAP2 POP POP JUMP JUMPDEST PUSH0 DUP1 REVERT JUMPDEST PUSH0 PUSH20 0xFFFFFFFFFFFFFFFFFFFFFFFFFFFFFFFFFFFFFFFF DUP3 AND SWAP1 POP SWAP2 SWAP1 POP JUMP JUMPDEST PUSH0 PUSH2 0x13F7 DUP3 PUSH2 0x13CE JUMP JUMPDEST SWAP1 POP SWAP2 SWAP1 POP JUMP JUMPDEST PUSH2 0x1407 DUP2 PUSH2 0x13ED JUMP JUMPDEST DUP2 EQ PUSH2 0x1411 JUMPI PUSH0 DUP1 REVERT JUMPDEST POP JUMP JUMPDEST PUSH0 DUP2 CALLDATALOAD SWAP1 POP PUSH2 0x1422 DUP2 PUSH2 0x13FE JUMP JUMPDEST SWAP3 SWAP2 POP POP JUMP JUMPDEST PUSH0 DUP2 SWAP1 POP SWAP2 SWAP1 POP JUMP JUMPDEST PUSH2 0x143A DUP2 PUSH2 0x1428 JUMP JUMPDEST DUP2 EQ PUSH2 0x1444 JUMPI PUSH0 DUP1 REVERT JUMPDEST POP JUMP JUMPDEST PUSH0 DUP2 CALLDATALOAD SWAP1 POP PUSH2 0x1455 DUP2 PUSH2 0x1431 JUMP JUMPDEST SWAP3 SWAP2 POP POP JUMP JUMPDEST PUSH0 DUP1 PUSH1 0x40 DUP4 DUP6 SUB SLT ISZERO PUSH2 0x1471 JUMPI PUSH2 0x1470 PUSH2 0x13CA JUMP JUMPDEST JUMPDEST PUSH0 PUSH2 0x147E DUP6 DUP3 DUP7 ADD PUSH2 0x1414 JUMP JUMPDEST SWAP3 POP POP PUSH1 0x20 PUSH2 0x148F DUP6 DUP3 DUP7 ADD PUSH2 0x1447 JUMP JUMPDEST SWAP2 POP POP SWAP3 POP SWAP3 SWAP1 POP JUMP JUMPDEST PUSH0 DUP2 ISZERO ISZERO SWAP1 POP SWAP2 SWAP1 POP JUMP JUMPDEST PUSH2 0x14AD DUP2 PUSH2 0x1499 JUMP JUMPDEST DUP3 MSTORE POP POP JUMP JUMPDEST PUSH0 PUSH1 0x20 DUP3 ADD SWAP1 POP PUSH2 0x14C6 PUSH0 DUP4 ADD DUP5 PUSH2 0x14A4 JUMP JUMPDEST SWAP3 SWAP2 POP POP JUMP JUMPDEST PUSH2 0x14D5 DUP2 PUSH2 0x1428 JUMP JUMPDEST DUP3 MSTORE POP POP JUMP JUMPDEST PUSH0 PUSH1 0x20 DUP3 ADD SWAP1 POP PUSH2 0x14EE PUSH0 DUP4 ADD DUP5 PUSH2 0x14CC JUMP JUMPDEST SWAP3 SWAP2 POP POP JUMP JUMPDEST PUSH0 DUP1 PUSH0 PUSH1 0x60 DUP5 DUP7 SUB SLT ISZERO PUSH2 0x150B JUMPI PUSH2 0x150A PUSH2 0x13CA JUMP JUMPDEST JUMPDEST PUSH0 PUSH2 0x1518 DUP7 DUP3 DUP8 ADD PUSH2 0x1414 JUMP JUMPDEST SWAP4 POP POP PUSH1 0x20 PUSH2 0x1529 DUP7 DUP3 DUP8 ADD PUSH2 0x1414 JUMP JUMPDEST SWAP3 POP POP PUSH1 0x40 PUSH2 0x153A DUP7 DUP3 DUP8 ADD PUSH2 0x1447 JUMP JUMPDEST SWAP2 POP POP SWAP3 POP SWAP3 POP SWAP3 JUMP JUMPDEST PUSH0 PUSH1 0xFF DUP3 AND SWAP1 POP SWAP2 SWAP1 POP JUMP JUMPDEST PUSH2 0x1559 DUP2 PUSH2 0x1544 JUMP JUMPDEST DUP3 MSTORE POP POP JUMP JUMPDEST PUSH0 PUSH1 0x20 DUP3 ADD SWAP1 POP PUSH2 0x1572 PUSH0 DUP4 ADD DUP5 PUSH2 0x1550 JUMP JUMPDEST SWAP3 SWAP2 POP POP JUMP JUMPDEST PUSH0 DUP2 SWAP1 POP SWAP2 SWAP1 POP JUMP JUMPDEST PUSH2 0x158A DUP2 PUSH2 0x1578 JUMP JUMPDEST DUP3 MSTORE POP POP JUMP JUMPDEST PUSH0 PUSH1 0x20 DUP3 ADD SWAP1 POP PUSH2 0x15A3 PUSH0 DUP4 ADD DUP5 PUSH2 0x1581 JUMP JUMPDEST SWAP3 SWAP2 POP POP JUMP JUMPDEST PUSH0 PUSH1 0x20 DUP3 DUP5 SUB SLT ISZERO PUSH2 0x15BE JUMPI PUSH2 0x15BD PUSH2 0x13CA JUMP JUMPDEST JUMPDEST PUSH0 PUSH2 0x15CB DUP5 DUP3 DUP6 ADD PUSH2 0x1414 JUMP JUMPDEST SWAP2 POP POP SWAP3 SWAP2 POP POP JUMP JUMPDEST PUSH2 0x15DD DUP2 PUSH2 0x1544 JUMP JUMPDEST DUP2 EQ PUSH2 0x15E7 JUMPI PUSH0 DUP1 REVERT JUMPDEST POP JUMP JUMPDEST PUSH0 DUP2 CALLDATALOAD SWAP1 POP PUSH2 0x15F8 DUP2 PUSH2 0x15D4 JUMP JUMPDEST SWAP3 SWAP2 POP POP JUMP JUMPDEST PUSH2 0x1607 DUP2 PUSH2 0x1578 JUMP JUMPDEST DUP2 EQ PUSH2 0x1611 JUMPI PUSH0 DUP1 REVERT JUMPDEST POP JUMP JUMPDEST PUSH0 DUP2 CALLDATALOAD SWAP1 POP PUSH2 0x1622 DUP2 PUSH2 0x15FE JUMP JUMPDEST SWAP3 SWAP2 POP POP JUMP JUMPDEST PUSH0 DUP1 PUSH0 DUP1 PUSH0 DUP1 PUSH0 PUSH1 0xE0 DUP9 DUP11 SUB SLT ISZERO PUSH2 0x1643 JUMPI PUSH2 0x1642 PUSH2 0x13CA JUMP JUMPDEST JUMPDEST PUSH0 PUSH2 0x1650 DUP11 DUP3 DUP12 ADD PUSH2 0x1414 JUMP JUMPDEST SWAP8 POP POP PUSH1 0x20 PUSH2 0x1661 DUP11 DUP3 DUP12 ADD PUSH2 0x1414 JUMP JUMPDEST SWAP7 POP POP PUSH1 0x40 PUSH2 0x1672 DUP11 DUP3 DUP12 ADD PUSH2 0x1447 JUMP JUMPDEST SWAP6 POP POP PUSH1 0x60 PUSH2 0x1683 DUP11 DUP3 DUP12 ADD PUSH2 0x1447 JUMP JUMPDEST SWAP5 POP POP PUSH1 0x80 PUSH2 0x1694 DUP11 DUP3 DUP12 ADD PUSH2 0x15EA JUMP JUMPDEST SWAP4 POP POP PUSH1 0xA0 PUSH2 0x16A5 DUP11 DUP3 DUP12 ADD PUSH2 0x1614 JUMP JUMPDEST SWAP3 POP POP PUSH1 0xC0 PUSH2 0x16B6 DUP11 DUP3 DUP12 ADD PUSH2 0x1614 JUMP JUMPDEST SWAP2 POP POP SWAP3 SWAP6 SWAP9 SWAP2 SWAP5 SWAP8 POP SWAP3 SWAP6 POP JUMP JUMPDEST PUSH0 DUP1 PUSH1 0x40 DUP4 DUP6 SUB SLT ISZERO PUSH2 0x16DB JUMPI PUSH2 0x16DA PUSH2 0x13CA JUMP JUMPDEST JUMPDEST PUSH0 PUSH2 0x16E8 DUP6 DUP3 DUP7 ADD PUSH2 0x1414 JUMP JUMPDEST SWAP3 POP POP PUSH1 0x20 PUSH2 0x16F9 DUP6 DUP3 DUP7 ADD PUSH2 0x1414 JUMP JUMPDEST SWAP2 POP POP SWAP3 POP SWAP3 SWAP1 POP JUMP JUMPDEST PUSH32 0x4E487B7100000000000000000000000000000000000000000000000000000000 PUSH0 MSTORE PUSH1 0x22 PUSH1 0x4 MSTORE PUSH1 0x24 PUSH0 REVERT JUMPDEST PUSH0 PUSH1 0x2 DUP3 DIV SWAP1 POP PUSH1 0x1 DUP3 AND DUP1 PUSH2 0x1747 JUMPI PUSH1 0x7F DUP3 AND SWAP2 POP JUMPDEST PUSH1 0x20 DUP3 LT DUP2 SUB PUSH2 0x175A JUMPI PUSH2 0x1759 PUSH2 0x1703 JUMP JUMPDEST JUMPDEST POP SWAP2 SWAP1 POP JUMP JUMPDEST PUSH32 0x4E487B7100000000000000000000000000000000000000000000000000000000 PUSH0 MSTORE PUSH1 0x11 PUSH1 0x4 MSTORE PUSH1 0x24 PUSH0 REVERT JUMPDEST PUSH0 PUSH2 0x1797 DUP3 PUSH2 0x1428 JUMP JUMPDEST SWAP2 POP PUSH2 0x17A2 DUP4 PUSH2 0x1428 JUMP JUMPDEST SWAP3 POP DUP3 DUP3 ADD SWAP1 POP DUP1 DUP3 GT ISZERO PUSH2 0x17BA JUMPI PUSH2 0x17B9 PUSH2 0x1760 JUMP JUMPDEST JUMPDEST SWAP3 SWAP2 POP POP JUMP JUMPDEST PUSH32 0x45524332303A2064656372656173656420616C6C6F77616E63652062656C6F77 PUSH0 DUP3 ADD MSTORE PUSH32 0x207A65726F000000000000000000000000000000000000000000000000000000 PUSH1 0x20 DUP3 ADD MSTORE POP JUMP JUMPDEST PUSH0 PUSH2 0x181A PUSH1 0x25 DUP4 PUSH2 0x1344 JUMP JUMPDEST SWAP2 POP PUSH2 0x1825 DUP3 PUSH2 0x17C0 JUMP JUMPDEST PUSH1 0x40 DUP3 ADD SWAP1 POP SWAP2 SWAP1 POP JUMP JUMPDEST PUSH0 PUSH1 0x20 DUP3 ADD SWAP1 POP DUP2 DUP2 SUB PUSH0 DUP4 ADD MSTORE PUSH2 0x1847 DUP2 PUSH2 0x180E JUMP JUMPDEST SWAP1 POP SWAP2 SWAP1 POP JUMP JUMPDEST PUSH32 0x45524332305065726D69743A206578706972656420646561646C696E65000000 PUSH0 DUP3 ADD MSTORE POP JUMP JUMPDEST PUSH0 PUSH2 0x1882 PUSH1 0x1D DUP4 PUSH2 0x1344 JUMP JUMPDEST SWAP2 POP PUSH2 0x188D DUP3 PUSH2 0x184E JUMP JUMPDEST PUSH1 0x20 DUP3 ADD SWAP1 POP SWAP2 SWAP1 POP JUMP JUMPDEST PUSH0 PUSH1 0x20 DUP3 ADD SWAP1 POP DUP2 DUP2 SUB PUSH0 DUP4 ADD MSTORE PUSH2 0x18AF DUP2 PUSH2 0x1876 JUMP JUMPDEST SWAP1 POP SWAP2 SWAP1 POP JUMP JUMPDEST PUSH2 0x18BF DUP2 PUSH2 0x13ED JUMP JUMPDEST DUP3 MSTORE POP POP JUMP JUMPDEST PUSH0 PUSH1 0xC0 DUP3 ADD SWAP1 POP PUSH2 0x18D8 PUSH0 DUP4 ADD DUP10 PUSH2 0x1581 JUMP JUMPDEST PUSH2 0x18E5 PUSH1 0x20 DUP4 ADD DUP9 PUSH2 0x18B6 JUMP JUMPDEST PUSH2 0x18F2 PUSH1 0x40 DUP4 ADD DUP8 PUSH2 0x18B6 JUMP JUMPDEST PUSH2 0x18FF PUSH1 0x60 DUP4 ADD DUP7 PUSH2 0x14CC JUMP JUMPDEST PUSH2 0x190C PUSH1 0x80 DUP4 ADD DUP6 PUSH2 0x14CC JUMP JUMPDEST PUSH2 0x1919 PUSH1 0xA0 DUP4 ADD DUP5 PUSH2 0x14CC JUMP JUMPDEST SWAP8 SWAP7 POP POP POP POP POP POP POP JUMP JUMPDEST PUSH32 0x45524332305065726D69743A20696E76616C6964207369676E61747572650000 PUSH0 DUP3 ADD MSTORE POP JUMP JUMPDEST PUSH0 PUSH2 0x1958 PUSH1 0x1E DUP4 PUSH2 0x1344 JUMP JUMPDEST SWAP2 POP PUSH2 0x1963 DUP3 PUSH2 0x1924 JUMP JUMPDEST PUSH1 0x20 DUP3 ADD SWAP1 POP SWAP2 SWAP1 POP JUMP JUMPDEST PUSH0 PUSH1 0x20 DUP3 ADD SWAP1 POP DUP2 DUP2 SUB PUSH0 DUP4 ADD MSTORE PUSH2 0x1985 DUP2 PUSH2 0x194C JUMP JUMPDEST SWAP1 POP SWAP2 SWAP1 POP JUMP JUMPDEST PUSH32 0x45524332303A20617070726F76652066726F6D20746865207A65726F20616464 PUSH0 DUP3 ADD MSTORE PUSH32 0x7265737300000000000000000000000000000000000000000000000000000000 PUSH1 0x20 DUP3 ADD MSTORE POP JUMP JUMPDEST PUSH0 PUSH2 0x19E6 PUSH1 0x24 DUP4 PUSH2 0x1344 JUMP JUMPDEST SWAP2 POP PUSH2 0x19F1 DUP3 PUSH2 0x198C JUMP JUMPDEST PUSH1 0x40 DUP3 ADD SWAP1 POP SWAP2 SWAP1 POP JUMP JUMPDEST PUSH0 PUSH1 0x20 DUP3 ADD SWAP1 POP DUP2 DUP2 SUB PUSH0 DUP4 ADD MSTORE PUSH2 0x1A13 DUP2 PUSH2 0x19DA JUMP JUMPDEST SWAP1 POP SWAP2 SWAP1 POP JUMP JUMPDEST PUSH32 0x45524332303A20617070726F766520746F20746865207A65726F206164647265 PUSH0 DUP3 ADD MSTORE PUSH32 0x7373000000000000000000000000000000000000000000000000000000000000 PUSH1 0x20 DUP3 ADD MSTORE POP JUMP JUMPDEST PUSH0 PUSH2 0x1A74 PUSH1 0x22 DUP4 PUSH2 0x1344 JUMP JUMPDEST SWAP2 POP PUSH2 0x1A7F DUP3 PUSH2 0x1A1A JUMP JUMPDEST PUSH1 0x40 DUP3 ADD SWAP1 POP SWAP2 SWAP1 POP JUMP JUMPDEST PUSH0 PUSH1 0x20 DUP3 ADD SWAP1 POP DUP2 DUP2 SUB PUSH0 DUP4 ADD MSTORE PUSH2 0x1AA1 DUP2 PUSH2 0x1A68 JUMP JUMPDEST SWAP1 POP SWAP2 SWAP1 POP JUMP JUMPDEST PUSH32 0x45524332303A20696E73756666696369656E7420616C6C6F77616E6365000000 PUSH0 DUP3 ADD MSTORE POP JUMP JUMPDEST PUSH0 PUSH2 0x1ADC PUSH1 0x1D DUP4 PUSH2 0x1344 JUMP JUMPDEST SWAP2 POP PUSH2 0x1AE7 DUP3 PUSH2 0x1AA8 JUMP JUMPDEST PUSH1 0x20 DUP3 ADD SWAP1 POP SWAP2 SWAP1 POP JUMP JUMPDEST PUSH0 PUSH1 0x20 DUP3 ADD SWAP1 POP DUP2 DUP2 SUB PUSH0 DUP4 ADD MSTORE PUSH2 0x1B09 DUP2 PUSH2 0x1AD0 JUMP JUMPDEST SWAP1 POP SWAP2 SWAP1 POP JUMP JUMPDEST PUSH32 0x45524332303A207472616E736665722066726F6D20746865207A65726F206164 PUSH0 DUP3 ADD MSTORE PUSH32 0x6472657373000000000000000000000000000000000000000000000000000000 PUSH1 0x20 DUP3 ADD MSTORE POP JUMP JUMPDEST PUSH0 PUSH2 0x1B6A PUSH1 0x25 DUP4 PUSH2 0x1344 JUMP JUMPDEST SWAP2 POP PUSH2 0x1B75 DUP3 PUSH2 0x1B10 JUMP JUMPDEST PUSH1 0x40 DUP3 ADD SWAP1 POP SWAP2 SWAP1 POP JUMP JUMPDEST PUSH0 PUSH1 0x20 DUP3 ADD SWAP1 POP DUP2 DUP2 SUB PUSH0 DUP4 ADD MSTORE PUSH2 0x1B97 DUP2 PUSH2 0x1B5E JUMP JUMPDEST SWAP1 POP SWAP2 SWAP1 POP JUMP JUMPDEST PUSH32 0x45524332303A207472616E7366657220746F20746865207A65726F2061646472 PUSH0 DUP3 ADD MSTORE PUSH32 0x6573730000000000000000000000000000000000000000000000000000000000 PUSH1 0x20 DUP3 ADD MSTORE POP JUMP JUMPDEST PUSH0 PUSH2 0x1BF8 PUSH1 0x23 DUP4 PUSH2 0x1344 JUMP JUMPDEST SWAP2 POP PUSH2 0x1C03 DUP3 PUSH2 0x1B9E JUMP JUMPDEST PUSH1 0x40 DUP3 ADD SWAP1 POP SWAP2 SWAP1 POP JUMP JUMPDEST PUSH0 PUSH1 0x20 DUP3 ADD SWAP1 POP DUP2 DUP2 SUB PUSH0 DUP4 ADD MSTORE PUSH2 0x1C25 DUP2 PUSH2 0x1BEC JUMP JUMPDEST SWAP1 POP SWAP2 SWAP1 POP JUMP JUMPDEST PUSH32 0x45524332303A207472616E7366657220616D6F756E7420657863656564732062 PUSH0 DUP3 ADD MSTORE PUSH32 0x616C616E63650000000000000000000000000000000000000000000000000000 PUSH1 0x20 DUP3 ADD MSTORE POP JUMP JUMPDEST PUSH0 PUSH2 0x1C86 PUSH1 0x26 DUP4 PUSH2 0x1344 JUMP JUMPDEST SWAP2 POP PUSH2 0x1C91 DUP3 PUSH2 0x1C2C JUMP JUMPDEST PUSH1 0x40 DUP3 ADD SWAP1 POP SWAP2 SWAP1 POP JUMP JUMPDEST PUSH0 PUSH1 0x20 DUP3 ADD SWAP1 POP DUP2 DUP2 SUB PUSH0 DUP4 ADD MSTORE PUSH2 0x1CB3 DUP2 PUSH2 0x1C7A JUMP JUMPDEST SWAP1 POP SWAP2 SWAP1 POP JUMP JUMPDEST PUSH32 0x45524332303A206D696E7420746F20746865207A65726F206164647265737300 PUSH0 DUP3 ADD MSTORE POP JUMP JUMPDEST PUSH0 PUSH2 0x1CEE PUSH1 0x1F DUP4 PUSH2 0x1344 JUMP JUMPDEST SWAP2 POP PUSH2 0x1CF9 DUP3 PUSH2 0x1CBA JUMP JUMPDEST PUSH1 0x20 DUP3 ADD SWAP1 POP SWAP2 SWAP1 POP JUMP JUMPDEST PUSH0 PUSH1 0x20 DUP3 ADD SWAP1 POP DUP2 DUP2 SUB PUSH0 DUP4 ADD MSTORE PUSH2 0x1D1B DUP2 PUSH2 0x1CE2 JUMP JUMPDEST SWAP1 POP SWAP2 SWAP1 POP JUMP JUMPDEST PUSH0 PUSH1 0xA0 DUP3 ADD SWAP1 POP PUSH2 0x1D35 PUSH0 DUP4 ADD DUP9 PUSH2 0x1581 JUMP JUMPDEST PUSH2 0x1D42 PUSH1 0x20 DUP4 ADD DUP8 PUSH2 0x1581 JUMP JUMPDEST PUSH2 0x1D4F PUSH1 0x40 DUP4 ADD DUP7 PUSH2 0x1581 JUMP JUMPDEST PUSH2 0x1D5C PUSH1 0x60 DUP4 ADD DUP6 PUSH2 0x14CC JUMP JUMPDEST PUSH2 0x1D69 PUSH1 0x80 DUP4 ADD DUP5 PUSH2 0x18B6 JUMP JUMPDEST SWAP7 SWAP6 POP POP POP POP POP POP JUMP JUMPDEST PUSH0 DUP2 SWAP1 POP SWAP3 SWAP2 POP POP JUMP JUMPDEST PUSH32 0x1901000000000000000000000000000000000000000000000000000000000000 PUSH0 DUP3 ADD MSTORE POP JUMP JUMPDEST PUSH0 PUSH2 0x1DB1 PUSH1 0x2 DUP4 PUSH2 0x1D73 JUMP JUMPDEST SWAP2 POP PUSH2 0x1DBC DUP3 PUSH2 0x1D7D JUMP JUMPDEST PUSH1 0x2 DUP3 ADD SWAP1 POP SWAP2 SWAP1 POP JUMP JUMPDEST PUSH0 DUP2 SWAP1 POP SWAP2 SWAP1 POP JUMP JUMPDEST PUSH2 0x1DE1 PUSH2 0x1DDC DUP3 PUSH2 0x1578 JUMP JUMPDEST PUSH2 0x1DC7 JUMP JUMPDEST DUP3 MSTORE POP POP JUMP JUMPDEST PUSH0 PUSH2 0x1DF1 DUP3 PUSH2 0x1DA5 JUMP JUMPDEST SWAP2 POP PUSH2 0x1DFD DUP3 DUP6 PUSH2 0x1DD0 JUMP JUMPDEST PUSH1 0x20 DUP3 ADD SWAP2 POP PUSH2 0x1E0D DUP3 DUP5 PUSH2 0x1DD0 JUMP JUMPDEST PUSH1 0x20 DUP3 ADD SWAP2 POP DUP2 SWAP1 POP SWAP4 SWAP3 POP POP POP JUMP JUMPDEST PUSH0 PUSH1 0x80 DUP3 ADD SWAP1 POP PUSH2 0x1E30 PUSH0 DUP4 ADD DUP8 PUSH2 0x1581 JUMP JUMPDEST PUSH2 0x1E3D PUSH1 0x20 DUP4 ADD DUP7 PUSH2 0x1550 JUMP JUMPDEST PUSH2 0x1E4A PUSH1 0x40 DUP4 ADD DUP6 PUSH2 0x1581 JUMP JUMPDEST PUSH2 0x1E57 PUSH1 0x60 DUP4 ADD DUP5 PUSH2 0x1581 JUMP JUMPDEST SWAP6 SWAP5 POP POP POP POP POP JUMP JUMPDEST PUSH32 0x4E487B7100000000000000000000000000000000000000000000000000000000 PUSH0 MSTORE PUSH1 0x21 PUSH1 0x4 MSTORE PUSH1 0x24 PUSH0 REVERT JUMPDEST PUSH32 0x45434453413A20696E76616C6964207369676E61747572650000000000000000 PUSH0 DUP3 ADD MSTORE POP JUMP JUMPDEST PUSH0 PUSH2 0x1EC1 PUSH1 0x18 DUP4 PUSH2 0x1344 JUMP JUMPDEST SWAP2 POP PUSH2 0x1ECC DUP3 PUSH2 0x1E8D JUMP JUMPDEST PUSH1 0x20 DUP3 ADD SWAP1 POP SWAP2 SWAP1 POP JUMP JUMPDEST PUSH0 PUSH1 0x20 DUP3 ADD SWAP1 POP DUP2 DUP2 SUB PUSH0 DUP4 ADD MSTORE PUSH2 0x1EEE DUP2 PUSH2 0x1EB5 JUMP JUMPDEST SWAP1 POP SWAP2 SWAP1 POP JUMP JUMPDEST PUSH32 0x45434453413A20696E76616C6964207369676E6174757265206C656E67746800 PUSH0 DUP3 ADD MSTORE POP JUMP JUMPDEST PUSH0 PUSH2 0x1F29 PUSH1 0x1F DUP4 PUSH2 0x1344 JUMP JUMPDEST SWAP2 POP PUSH2 0x1F34 DUP3 PUSH2 0x1EF5 JUMP JUMPDEST PUSH1 0x20 DUP3 ADD SWAP1 POP SWAP2 SWAP1 POP JUMP JUMPDEST PUSH0 PUSH1 0x20 DUP3 ADD SWAP1 POP DUP2 DUP2 SUB PUSH0 DUP4 ADD MSTORE PUSH2 0x1F56 DUP2 PUSH2 0x1F1D JUMP JUMPDEST SWAP1 POP SWAP2 SWAP1 POP JUMP JUMPDEST PUSH32 0x45434453413A20696E76616C6964207369676E6174757265202773272076616C PUSH0 DUP3 ADD MSTORE PUSH32 0x7565000000000000000000000000000000000000000000000000000000000000 PUSH1 0x20 DUP3 ADD MSTORE POP JUMP JUMPDEST PUSH0 PUSH2 0x1FB7 PUSH1 0x22 DUP4 PUSH2 0x1344 JUMP JUMPDEST SWAP2 POP PUSH2 0x1FC2 DUP3 PUSH2 0x1F5D JUMP JUMPDEST PUSH1 0x40 DUP3 ADD SWAP1 POP SWAP2 SWAP1 POP JUMP JUMPDEST PUSH0 PUSH1 0x20 DUP3 ADD SWAP1 POP DUP2 DUP2 SUB PUSH0 DUP4 ADD MSTORE PUSH2 0x1FE4 DUP2 PUSH2 0x1FAB JUMP JUMPDEST SWAP1 POP SWAP2 SWAP1 POP JUMP JUMPDEST PUSH32 0x45434453413A20696E76616C6964207369676E6174757265202776272076616C PUSH0 DUP3 ADD MSTORE PUSH32 0x7565000000000000000000000000000000000000000000000000000000000000 PUSH1 0x20 DUP3 ADD MSTORE POP JUMP JUMPDEST PUSH0 PUSH2 0x2045 PUSH1 0x22 DUP4 PUSH2 0x1344 JUMP JUMPDEST SWAP2 POP PUSH2 0x2050 DUP3 PUSH2 0x1FEB JUMP JUMPDEST PUSH1 0x40 DUP3 ADD SWAP1 POP SWAP2 SWAP1 POP JUMP JUMPDEST PUSH0 PUSH1 0x20 DUP3 ADD SWAP1 POP DUP2 DUP2 SUB PUSH0 DUP4 ADD MSTORE PUSH2 0x2072 DUP2 PUSH2 0x2039 JUMP JUMPDEST SWAP1 POP SWAP2 SWAP1 POP JUMP INVALID LOG2 PUSH5 0x6970667358 0x22 SLT KECCAK256 0xE3 PUSH7 0xAEC472BAD196FA SSTORE 0xD8 0xB7 DUP10 SGT PUSH11 0x6FC3011D2DB375C1B7FD60 0xD8 RETURNDATACOPY MCOPY PUSH32 0x2EB664736F6C634300081A003300000000000000000000000000000000000000 "
				},
				"gasEstimates": {
					"creation": {
						"codeDepositCost": "1673400",
						"executionCost": "infinite",
						"totalCost": "infinite"
					},
					"external": {
						"DOMAIN_SEPARATOR()": "infinite",
						"allowance(address,address)": "infinite",
						"approve(address,uint256)": "infinite",
						"balanceOf(address)": "2874",
						"decimals()": "383",
						"decreaseAllowance(address,uint256)": "infinite",
						"increaseAllowance(address,uint256)": "infinite",
						"mint(address,uint256)": "infinite",
						"name()": "infinite",
						"nonces(address)": "2943",
						"permit(address,address,uint256,uint256,uint8,bytes32,bytes32)": "infinite",
						"symbol()": "infinite",
						"totalSupply()": "2500",
						"transfer(address,uint256)": "infinite",
						"transferFrom(address,address,uint256)": "infinite"
					}
				},
				"methodIdentifiers": {
					"DOMAIN_SEPARATOR()": "3644e515",
					"allowance(address,address)": "dd62ed3e",
					"approve(address,uint256)": "095ea7b3",
					"balanceOf(address)": "70a08231",
					"decimals()": "313ce567",
					"decreaseAllowance(address,uint256)": "a457c2d7",
					"increaseAllowance(address,uint256)": "39509351",
					"mint(address,uint256)": "40c10f19",
					"name()": "06fdde03",
					"nonces(address)": "7ecebe00",
					"permit(address,address,uint256,uint256,uint8,bytes32,bytes32)": "d505accf",
					"symbol()": "95d89b41",
					"totalSupply()": "18160ddd",
					"transfer(address,uint256)": "a9059cbb",
					"transferFrom(address,address,uint256)": "23b872dd"
				}
			},
			"storageLayout": {
				"storage": [
					{
						"astId": 15,
						"contract": "Contracts/ERC20Permit.sol:MyToken",
						"label": "_balances",
						"offset": 0,
						"slot": "0",
						"type": "t_mapping(t_address,t_uint256)"
					},
					{
						"astId": 21,
						"contract": "Contracts/ERC20Permit.sol:MyToken",
						"label": "_allowances",
						"offset": 0,
						"slot": "1",
						"type": "t_mapping(t_address,t_mapping(t_address,t_uint256))"
					},
					{
						"astId": 23,
						"contract": "Contracts/ERC20Permit.sol:MyToken",
						"label": "_totalSupply",
						"offset": 0,
						"slot": "2",
						"type": "t_uint256"
					},
					{
						"astId": 25,
						"contract": "Contracts/ERC20Permit.sol:MyToken",
						"label": "_name",
						"offset": 0,
						"slot": "3",
						"type": "t_string_storage"
					},
					{
						"astId": 27,
						"contract": "Contracts/ERC20Permit.sol:MyToken",
						"label": "_symbol",
						"offset": 0,
						"slot": "4",
						"type": "t_string_storage"
					},
					{
						"astId": 711,
						"contract": "Contracts/ERC20Permit.sol:MyToken",
						"label": "_nonces",
						"offset": 0,
						"slot": "5",
						"type": "t_mapping(t_address,t_struct(Counter)924_storage)"
					},
					{
						"astId": 719,
						"contract": "Contracts/ERC20Permit.sol:MyToken",
						"label": "_PERMIT_TYPEHASH_DEPRECATED_SLOT",
						"offset": 0,
						"slot": "6",
						"type": "t_bytes32"
					}
				],
				"types": {
					"t_address": {
						"encoding": "inplace",
						"label": "address",
						"numberOfBytes": "20"
					},
					"t_bytes32": {
						"encoding": "inplace",
						"label": "bytes32",
						"numberOfBytes": "32"
					},
					"t_mapping(t_address,t_mapping(t_address,t_uint256))": {
						"encoding": "mapping",
						"key": "t_address",
						"label": "mapping(address => mapping(address => uint256))",
						"numberOfBytes": "32",
						"value": "t_mapping(t_address,t_uint256)"
					},
					"t_mapping(t_address,t_struct(Counter)924_storage)": {
						"encoding": "mapping",
						"key": "t_address",
						"label": "mapping(address => struct Counters.Counter)",
						"numberOfBytes": "32",
						"value": "t_struct(Counter)924_storage"
					},
					"t_mapping(t_address,t_uint256)": {
						"encoding": "mapping",
						"key": "t_address",
						"label": "mapping(address => uint256)",
						"numberOfBytes": "32",
						"value": "t_uint256"
					},
					"t_string_storage": {
						"encoding": "bytes",
						"label": "string",
						"numberOfBytes": "32"
					},
					"t_struct(Counter)924_storage": {
						"encoding": "inplace",
						"label": "struct Counters.Counter",
						"members": [
							{
								"astId": 923,
								"contract": "Contracts/ERC20Permit.sol:MyToken",
								"label": "_value",
								"offset": 0,
								"slot": "0",
								"type": "t_uint256"
							}
						],
						"numberOfBytes": "32"
					},
					"t_uint256": {
						"encoding": "inplace",
						"label": "uint256",
						"numberOfBytes": "32"
					}
				}
			},
			"userdoc": {
				"kind": "user",
				"methods": {},
				"version": 1
			}
		}
	}
}