{
	"Contracts/Logic.sol": {
		"Logic": {
			"abi": [
				{
					"inputs": [
						{
							"internalType": "address",
							"name": "_owner",
							"type": "address"
						},
						{
							"internalType": "uint256",
							"name": "_value",
							"type": "uint256"
						}
					],
					"name": "initialize",
					"outputs": [],
					"stateMutability": "nonpayable",
					"type": "function"
				},
				{
					"inputs": [],
					"name": "owner",
					"outputs": [
						{
							"internalType": "address",
							"name": "",
							"type": "address"
						}
					],
					"stateMutability": "view",
					"type": "function"
				},
				{
					"inputs": [
						{
							"internalType": "uint256",
							"name": "_newValue",
							"type": "uint256"
						}
					],
					"name": "updateValue",
					"outputs": [],
					"stateMutability": "nonpayable",
					"type": "function"
				},
				{
					"inputs": [],
					"name": "value",
					"outputs": [
						{
							"internalType": "uint256",
							"name": "",
							"type": "uint256"
						}
					],
					"stateMutability": "view",
					"type": "function"
				}
			],
			"devdoc": {
				"kind": "dev",
				"methods": {},
				"version": 1
			},
			"evm": {
				"assembly": "    /* \"Contracts/Logic.sol\":57:454  contract Logic {... */\n  mstore(0x40, 0x80)\n  callvalue\n  dup1\n  iszero\n  tag_1\n  jumpi\n  0x00\n  dup1\n  revert\ntag_1:\n  pop\n  dataSize(sub_0)\n  dup1\n  dataOffset(sub_0)\n  0x00\n  codecopy\n  0x00\n  return\nstop\n\nsub_0: assembly {\n        /* \"Contracts/Logic.sol\":57:454  contract Logic {... */\n      mstore(0x40, 0x80)\n      callvalue\n      dup1\n      iszero\n      tag_1\n      jumpi\n      0x00\n      dup1\n      revert\n    tag_1:\n      pop\n      jumpi(tag_2, lt(calldatasize, 0x04))\n      shr(0xe0, calldataload(0x00))\n      dup1\n      0x3fa4f245\n      eq\n      tag_3\n      jumpi\n      dup1\n      0x573c0bd3\n      eq\n      tag_4\n      jumpi\n      dup1\n      0x8da5cb5b\n      eq\n      tag_5\n      jumpi\n      dup1\n      0xcd6dc687\n      eq\n      tag_6\n      jumpi\n    tag_2:\n      0x00\n      dup1\n      revert\n        /* \"Contracts/Logic.sol\":104:124  uint256 public value */\n    tag_3:\n      tag_7\n      tag_8\n      jump\t// in\n    tag_7:\n      mload(0x40)\n      tag_9\n      swap2\n      swap1\n      tag_10\n      jump\t// in\n    tag_9:\n      mload(0x40)\n      dup1\n      swap2\n      sub\n      swap1\n      return\n        /* \"Contracts/Logic.sol\":314:452  function updateValue(uint256 _newValue) external {... */\n    tag_4:\n      tag_11\n      0x04\n      dup1\n      calldatasize\n      sub\n      dup2\n      add\n      swap1\n      tag_12\n      swap2\n      swap1\n      tag_13\n      jump\t// in\n    tag_12:\n      tag_14\n      jump\t// in\n    tag_11:\n      stop\n        /* \"Contracts/Logic.sol\":78:98  address public owner */\n    tag_5:\n      tag_15\n      tag_16\n      jump\t// in\n    tag_15:\n      mload(0x40)\n      tag_17\n      swap2\n      swap1\n      tag_18\n      jump\t// in\n    tag_17:\n      mload(0x40)\n      dup1\n      swap2\n      sub\n      swap1\n      return\n        /* \"Contracts/Logic.sol\":131:308  function initialize(address _owner, uint256 _value) external {... */\n    tag_6:\n      tag_19\n      0x04\n      dup1\n      calldatasize\n      sub\n      dup2\n      add\n      swap1\n      tag_20\n      swap2\n      swap1\n      tag_21\n      jump\t// in\n    tag_20:\n      tag_22\n      jump\t// in\n    tag_19:\n      stop\n        /* \"Contracts/Logic.sol\":104:124  uint256 public value */\n    tag_8:\n      sload(0x01)\n      dup2\n      jump\t// out\n        /* \"Contracts/Logic.sol\":314:452  function updateValue(uint256 _newValue) external {... */\n    tag_14:\n        /* \"Contracts/Logic.sol\":395:400  owner */\n      0x00\n      dup1\n      sload\n      swap1\n      0x0100\n      exp\n      swap1\n      div\n      0xffffffffffffffffffffffffffffffffffffffff\n      and\n        /* \"Contracts/Logic.sol\":381:400  msg.sender == owner */\n      0xffffffffffffffffffffffffffffffffffffffff\n      and\n        /* \"Contracts/Logic.sol\":381:391  msg.sender */\n      caller\n        /* \"Contracts/Logic.sol\":381:400  msg.sender == owner */\n      0xffffffffffffffffffffffffffffffffffffffff\n      and\n      eq\n        /* \"Contracts/Logic.sol\":373:418  require(msg.sender == owner, \"Not the owner\") */\n      tag_24\n      jumpi\n      mload(0x40)\n      0x08c379a000000000000000000000000000000000000000000000000000000000\n      dup2\n      mstore\n      0x04\n      add\n      tag_25\n      swap1\n      tag_26\n      jump\t// in\n    tag_25:\n      mload(0x40)\n      dup1\n      swap2\n      sub\n      swap1\n      revert\n    tag_24:\n        /* \"Contracts/Logic.sol\":436:445  _newValue */\n      dup1\n        /* \"Contracts/Logic.sol\":428:433  value */\n      0x01\n        /* \"Contracts/Logic.sol\":428:445  value = _newValue */\n      dup2\n      swap1\n      sstore\n      pop\n        /* \"Contracts/Logic.sol\":314:452  function updateValue(uint256 _newValue) external {... */\n      pop\n      jump\t// out\n        /* \"Contracts/Logic.sol\":78:98  address public owner */\n    tag_16:\n      0x00\n      dup1\n      sload\n      swap1\n      0x0100\n      exp\n      swap1\n      div\n      0xffffffffffffffffffffffffffffffffffffffff\n      and\n      dup2\n      jump\t// out\n        /* \"Contracts/Logic.sol\":131:308  function initialize(address _owner, uint256 _value) external {... */\n    tag_22:\n        /* \"Contracts/Logic.sol\":227:228  0 */\n      0x00\n        /* \"Contracts/Logic.sol\":210:229  owner == address(0) */\n      0xffffffffffffffffffffffffffffffffffffffff\n      and\n        /* \"Contracts/Logic.sol\":210:215  owner */\n      0x00\n      dup1\n      sload\n      swap1\n      0x0100\n      exp\n      swap1\n      div\n      0xffffffffffffffffffffffffffffffffffffffff\n      and\n        /* \"Contracts/Logic.sol\":210:229  owner == address(0) */\n      0xffffffffffffffffffffffffffffffffffffffff\n      and\n      eq\n        /* \"Contracts/Logic.sol\":202:253  require(owner == address(0), \"Already initialized\") */\n      tag_28\n      jumpi\n      mload(0x40)\n      0x08c379a000000000000000000000000000000000000000000000000000000000\n      dup2\n      mstore\n      0x04\n      add\n      tag_29\n      swap1\n      tag_30\n      jump\t// in\n    tag_29:\n      mload(0x40)\n      dup1\n      swap2\n      sub\n      swap1\n      revert\n    tag_28:\n        /* \"Contracts/Logic.sol\":271:277  _owner */\n      dup2\n        /* \"Contracts/Logic.sol\":263:268  owner */\n      0x00\n      dup1\n        /* \"Contracts/Logic.sol\":263:277  owner = _owner */\n      0x0100\n      exp\n      dup2\n      sload\n      dup2\n      0xffffffffffffffffffffffffffffffffffffffff\n      mul\n      not\n      and\n      swap1\n      dup4\n      0xffffffffffffffffffffffffffffffffffffffff\n      and\n      mul\n      or\n      swap1\n      sstore\n      pop\n        /* \"Contracts/Logic.sol\":295:301  _value */\n      dup1\n        /* \"Contracts/Logic.sol\":287:292  value */\n      0x01\n        /* \"Contracts/Logic.sol\":287:301  value = _value */\n      dup2\n      swap1\n      sstore\n      pop\n        /* \"Contracts/Logic.sol\":131:308  function initialize(address _owner, uint256 _value) external {... */\n      pop\n      pop\n      jump\t// out\n        /* \"#utility.yul\":7:84   */\n    tag_31:\n        /* \"#utility.yul\":44:51   */\n      0x00\n        /* \"#utility.yul\":73:78   */\n      dup2\n        /* \"#utility.yul\":62:78   */\n      swap1\n      pop\n        /* \"#utility.yul\":7:84   */\n      swap2\n      swap1\n      pop\n      jump\t// out\n        /* \"#utility.yul\":90:208   */\n    tag_32:\n        /* \"#utility.yul\":177:201   */\n      tag_51\n        /* \"#utility.yul\":195:200   */\n      dup2\n        /* \"#utility.yul\":177:201   */\n      tag_31\n      jump\t// in\n    tag_51:\n        /* \"#utility.yul\":172:175   */\n      dup3\n        /* \"#utility.yul\":165:202   */\n      mstore\n        /* \"#utility.yul\":90:208   */\n      pop\n      pop\n      jump\t// out\n        /* \"#utility.yul\":214:436   */\n    tag_10:\n        /* \"#utility.yul\":307:311   */\n      0x00\n        /* \"#utility.yul\":345:347   */\n      0x20\n        /* \"#utility.yul\":334:343   */\n      dup3\n        /* \"#utility.yul\":330:348   */\n      add\n        /* \"#utility.yul\":322:348   */\n      swap1\n      pop\n        /* \"#utility.yul\":358:429   */\n      tag_53\n        /* \"#utility.yul\":426:427   */\n      0x00\n        /* \"#utility.yul\":415:424   */\n      dup4\n        /* \"#utility.yul\":411:428   */\n      add\n        /* \"#utility.yul\":402:408   */\n      dup5\n        /* \"#utility.yul\":358:429   */\n      tag_32\n      jump\t// in\n    tag_53:\n        /* \"#utility.yul\":214:436   */\n      swap3\n      swap2\n      pop\n      pop\n      jump\t// out\n        /* \"#utility.yul\":523:640   */\n    tag_34:\n        /* \"#utility.yul\":632:633   */\n      0x00\n        /* \"#utility.yul\":629:630   */\n      dup1\n        /* \"#utility.yul\":622:634   */\n      revert\n        /* \"#utility.yul\":769:891   */\n    tag_36:\n        /* \"#utility.yul\":842:866   */\n      tag_58\n        /* \"#utility.yul\":860:865   */\n      dup2\n        /* \"#utility.yul\":842:866   */\n      tag_31\n      jump\t// in\n    tag_58:\n        /* \"#utility.yul\":835:840   */\n      dup2\n        /* \"#utility.yul\":832:867   */\n      eq\n        /* \"#utility.yul\":822:885   */\n      tag_59\n      jumpi\n        /* \"#utility.yul\":881:882   */\n      0x00\n        /* \"#utility.yul\":878:879   */\n      dup1\n        /* \"#utility.yul\":871:883   */\n      revert\n        /* \"#utility.yul\":822:885   */\n    tag_59:\n        /* \"#utility.yul\":769:891   */\n      pop\n      jump\t// out\n        /* \"#utility.yul\":897:1036   */\n    tag_37:\n        /* \"#utility.yul\":943:948   */\n      0x00\n        /* \"#utility.yul\":981:987   */\n      dup2\n        /* \"#utility.yul\":968:988   */\n      calldataload\n        /* \"#utility.yul\":959:988   */\n      swap1\n      pop\n        /* \"#utility.yul\":997:1030   */\n      tag_61\n        /* \"#utility.yul\":1024:1029   */\n      dup2\n        /* \"#utility.yul\":997:1030   */\n      tag_36\n      jump\t// in\n    tag_61:\n        /* \"#utility.yul\":897:1036   */\n      swap3\n      swap2\n      pop\n      pop\n      jump\t// out\n        /* \"#utility.yul\":1042:1371   */\n    tag_13:\n        /* \"#utility.yul\":1101:1107   */\n      0x00\n        /* \"#utility.yul\":1150:1152   */\n      0x20\n        /* \"#utility.yul\":1138:1147   */\n      dup3\n        /* \"#utility.yul\":1129:1136   */\n      dup5\n        /* \"#utility.yul\":1125:1148   */\n      sub\n        /* \"#utility.yul\":1121:1153   */\n      slt\n        /* \"#utility.yul\":1118:1237   */\n      iszero\n      tag_63\n      jumpi\n        /* \"#utility.yul\":1156:1235   */\n      tag_64\n      tag_34\n      jump\t// in\n    tag_64:\n        /* \"#utility.yul\":1118:1237   */\n    tag_63:\n        /* \"#utility.yul\":1276:1277   */\n      0x00\n        /* \"#utility.yul\":1301:1354   */\n      tag_65\n        /* \"#utility.yul\":1346:1353   */\n      dup5\n        /* \"#utility.yul\":1337:1343   */\n      dup3\n        /* \"#utility.yul\":1326:1335   */\n      dup6\n        /* \"#utility.yul\":1322:1344   */\n      add\n        /* \"#utility.yul\":1301:1354   */\n      tag_37\n      jump\t// in\n    tag_65:\n        /* \"#utility.yul\":1291:1354   */\n      swap2\n      pop\n        /* \"#utility.yul\":1247:1364   */\n      pop\n        /* \"#utility.yul\":1042:1371   */\n      swap3\n      swap2\n      pop\n      pop\n      jump\t// out\n        /* \"#utility.yul\":1377:1503   */\n    tag_38:\n        /* \"#utility.yul\":1414:1421   */\n      0x00\n        /* \"#utility.yul\":1454:1496   */\n      0xffffffffffffffffffffffffffffffffffffffff\n        /* \"#utility.yul\":1447:1452   */\n      dup3\n        /* \"#utility.yul\":1443:1497   */\n      and\n        /* \"#utility.yul\":1432:1497   */\n      swap1\n      pop\n        /* \"#utility.yul\":1377:1503   */\n      swap2\n      swap1\n      pop\n      jump\t// out\n        /* \"#utility.yul\":1509:1605   */\n    tag_39:\n        /* \"#utility.yul\":1546:1553   */\n      0x00\n        /* \"#utility.yul\":1575:1599   */\n      tag_68\n        /* \"#utility.yul\":1593:1598   */\n      dup3\n        /* \"#utility.yul\":1575:1599   */\n      tag_38\n      jump\t// in\n    tag_68:\n        /* \"#utility.yul\":1564:1599   */\n      swap1\n      pop\n        /* \"#utility.yul\":1509:1605   */\n      swap2\n      swap1\n      pop\n      jump\t// out\n        /* \"#utility.yul\":1611:1729   */\n    tag_40:\n        /* \"#utility.yul\":1698:1722   */\n      tag_70\n        /* \"#utility.yul\":1716:1721   */\n      dup2\n        /* \"#utility.yul\":1698:1722   */\n      tag_39\n      jump\t// in\n    tag_70:\n        /* \"#utility.yul\":1693:1696   */\n      dup3\n        /* \"#utility.yul\":1686:1723   */\n      mstore\n        /* \"#utility.yul\":1611:1729   */\n      pop\n      pop\n      jump\t// out\n        /* \"#utility.yul\":1735:1957   */\n    tag_18:\n        /* \"#utility.yul\":1828:1832   */\n      0x00\n        /* \"#utility.yul\":1866:1868   */\n      0x20\n        /* \"#utility.yul\":1855:1864   */\n      dup3\n        /* \"#utility.yul\":1851:1869   */\n      add\n        /* \"#utility.yul\":1843:1869   */\n      swap1\n      pop\n        /* \"#utility.yul\":1879:1950   */\n      tag_72\n        /* \"#utility.yul\":1947:1948   */\n      0x00\n        /* \"#utility.yul\":1936:1945   */\n      dup4\n        /* \"#utility.yul\":1932:1949   */\n      add\n        /* \"#utility.yul\":1923:1929   */\n      dup5\n        /* \"#utility.yul\":1879:1950   */\n      tag_40\n      jump\t// in\n    tag_72:\n        /* \"#utility.yul\":1735:1957   */\n      swap3\n      swap2\n      pop\n      pop\n      jump\t// out\n        /* \"#utility.yul\":1963:2085   */\n    tag_41:\n        /* \"#utility.yul\":2036:2060   */\n      tag_74\n        /* \"#utility.yul\":2054:2059   */\n      dup2\n        /* \"#utility.yul\":2036:2060   */\n      tag_39\n      jump\t// in\n    tag_74:\n        /* \"#utility.yul\":2029:2034   */\n      dup2\n        /* \"#utility.yul\":2026:2061   */\n      eq\n        /* \"#utility.yul\":2016:2079   */\n      tag_75\n      jumpi\n        /* \"#utility.yul\":2075:2076   */\n      0x00\n        /* \"#utility.yul\":2072:2073   */\n      dup1\n        /* \"#utility.yul\":2065:2077   */\n      revert\n        /* \"#utility.yul\":2016:2079   */\n    tag_75:\n        /* \"#utility.yul\":1963:2085   */\n      pop\n      jump\t// out\n        /* \"#utility.yul\":2091:2230   */\n    tag_42:\n        /* \"#utility.yul\":2137:2142   */\n      0x00\n        /* \"#utility.yul\":2175:2181   */\n      dup2\n        /* \"#utility.yul\":2162:2182   */\n      calldataload\n        /* \"#utility.yul\":2153:2182   */\n      swap1\n      pop\n        /* \"#utility.yul\":2191:2224   */\n      tag_77\n        /* \"#utility.yul\":2218:2223   */\n      dup2\n        /* \"#utility.yul\":2191:2224   */\n      tag_41\n      jump\t// in\n    tag_77:\n        /* \"#utility.yul\":2091:2230   */\n      swap3\n      swap2\n      pop\n      pop\n      jump\t// out\n        /* \"#utility.yul\":2236:2710   */\n    tag_21:\n        /* \"#utility.yul\":2304:2310   */\n      0x00\n        /* \"#utility.yul\":2312:2318   */\n      dup1\n        /* \"#utility.yul\":2361:2363   */\n      0x40\n        /* \"#utility.yul\":2349:2358   */\n      dup4\n        /* \"#utility.yul\":2340:2347   */\n      dup6\n        /* \"#utility.yul\":2336:2359   */\n      sub\n        /* \"#utility.yul\":2332:2364   */\n      slt\n        /* \"#utility.yul\":2329:2448   */\n      iszero\n      tag_79\n      jumpi\n        /* \"#utility.yul\":2367:2446   */\n      tag_80\n      tag_34\n      jump\t// in\n    tag_80:\n        /* \"#utility.yul\":2329:2448   */\n    tag_79:\n        /* \"#utility.yul\":2487:2488   */\n      0x00\n        /* \"#utility.yul\":2512:2565   */\n      tag_81\n        /* \"#utility.yul\":2557:2564   */\n      dup6\n        /* \"#utility.yul\":2548:2554   */\n      dup3\n        /* \"#utility.yul\":2537:2546   */\n      dup7\n        /* \"#utility.yul\":2533:2555   */\n      add\n        /* \"#utility.yul\":2512:2565   */\n      tag_42\n      jump\t// in\n    tag_81:\n        /* \"#utility.yul\":2502:2565   */\n      swap3\n      pop\n        /* \"#utility.yul\":2458:2575   */\n      pop\n        /* \"#utility.yul\":2614:2616   */\n      0x20\n        /* \"#utility.yul\":2640:2693   */\n      tag_82\n        /* \"#utility.yul\":2685:2692   */\n      dup6\n        /* \"#utility.yul\":2676:2682   */\n      dup3\n        /* \"#utility.yul\":2665:2674   */\n      dup7\n        /* \"#utility.yul\":2661:2683   */\n      add\n        /* \"#utility.yul\":2640:2693   */\n      tag_37\n      jump\t// in\n    tag_82:\n        /* \"#utility.yul\":2630:2693   */\n      swap2\n      pop\n        /* \"#utility.yul\":2585:2703   */\n      pop\n        /* \"#utility.yul\":2236:2710   */\n      swap3\n      pop\n      swap3\n      swap1\n      pop\n      jump\t// out\n        /* \"#utility.yul\":2716:2885   */\n    tag_43:\n        /* \"#utility.yul\":2800:2811   */\n      0x00\n        /* \"#utility.yul\":2834:2840   */\n      dup3\n        /* \"#utility.yul\":2829:2832   */\n      dup3\n        /* \"#utility.yul\":2822:2841   */\n      mstore\n        /* \"#utility.yul\":2874:2878   */\n      0x20\n        /* \"#utility.yul\":2869:2872   */\n      dup3\n        /* \"#utility.yul\":2865:2879   */\n      add\n        /* \"#utility.yul\":2850:2879   */\n      swap1\n      pop\n        /* \"#utility.yul\":2716:2885   */\n      swap3\n      swap2\n      pop\n      pop\n      jump\t// out\n        /* \"#utility.yul\":2891:3054   */\n    tag_44:\n        /* \"#utility.yul\":3031:3046   */\n      0x4e6f7420746865206f776e657200000000000000000000000000000000000000\n        /* \"#utility.yul\":3027:3028   */\n      0x00\n        /* \"#utility.yul\":3019:3025   */\n      dup3\n        /* \"#utility.yul\":3015:3029   */\n      add\n        /* \"#utility.yul\":3008:3047   */\n      mstore\n        /* \"#utility.yul\":2891:3054   */\n      pop\n      jump\t// out\n        /* \"#utility.yul\":3060:3426   */\n    tag_45:\n        /* \"#utility.yul\":3202:3205   */\n      0x00\n        /* \"#utility.yul\":3223:3290   */\n      tag_86\n        /* \"#utility.yul\":3287:3289   */\n      0x0d\n        /* \"#utility.yul\":3282:3285   */\n      dup4\n        /* \"#utility.yul\":3223:3290   */\n      tag_43\n      jump\t// in\n    tag_86:\n        /* \"#utility.yul\":3216:3290   */\n      swap2\n      pop\n        /* \"#utility.yul\":3299:3392   */\n      tag_87\n        /* \"#utility.yul\":3388:3391   */\n      dup3\n        /* \"#utility.yul\":3299:3392   */\n      tag_44\n      jump\t// in\n    tag_87:\n        /* \"#utility.yul\":3417:3419   */\n      0x20\n        /* \"#utility.yul\":3412:3415   */\n      dup3\n        /* \"#utility.yul\":3408:3420   */\n      add\n        /* \"#utility.yul\":3401:3420   */\n      swap1\n      pop\n        /* \"#utility.yul\":3060:3426   */\n      swap2\n      swap1\n      pop\n      jump\t// out\n        /* \"#utility.yul\":3432:3851   */\n    tag_26:\n        /* \"#utility.yul\":3598:3602   */\n      0x00\n        /* \"#utility.yul\":3636:3638   */\n      0x20\n        /* \"#utility.yul\":3625:3634   */\n      dup3\n        /* \"#utility.yul\":3621:3639   */\n      add\n        /* \"#utility.yul\":3613:3639   */\n      swap1\n      pop\n        /* \"#utility.yul\":3685:3694   */\n      dup2\n        /* \"#utility.yul\":3679:3683   */\n      dup2\n        /* \"#utility.yul\":3675:3695   */\n      sub\n        /* \"#utility.yul\":3671:3672   */\n      0x00\n        /* \"#utility.yul\":3660:3669   */\n      dup4\n        /* \"#utility.yul\":3656:3673   */\n      add\n        /* \"#utility.yul\":3649:3696   */\n      mstore\n        /* \"#utility.yul\":3713:3844   */\n      tag_89\n        /* \"#utility.yul\":3839:3843   */\n      dup2\n        /* \"#utility.yul\":3713:3844   */\n      tag_45\n      jump\t// in\n    tag_89:\n        /* \"#utility.yul\":3705:3844   */\n      swap1\n      pop\n        /* \"#utility.yul\":3432:3851   */\n      swap2\n      swap1\n      pop\n      jump\t// out\n        /* \"#utility.yul\":3857:4026   */\n    tag_46:\n        /* \"#utility.yul\":3997:4018   */\n      0x416c726561647920696e697469616c697a656400000000000000000000000000\n        /* \"#utility.yul\":3993:3994   */\n      0x00\n        /* \"#utility.yul\":3985:3991   */\n      dup3\n        /* \"#utility.yul\":3981:3995   */\n      add\n        /* \"#utility.yul\":3974:4019   */\n      mstore\n        /* \"#utility.yul\":3857:4026   */\n      pop\n      jump\t// out\n        /* \"#utility.yul\":4032:4398   */\n    tag_47:\n        /* \"#utility.yul\":4174:4177   */\n      0x00\n        /* \"#utility.yul\":4195:4262   */\n      tag_92\n        /* \"#utility.yul\":4259:4261   */\n      0x13\n        /* \"#utility.yul\":4254:4257   */\n      dup4\n        /* \"#utility.yul\":4195:4262   */\n      tag_43\n      jump\t// in\n    tag_92:\n        /* \"#utility.yul\":4188:4262   */\n      swap2\n      pop\n        /* \"#utility.yul\":4271:4364   */\n      tag_93\n        /* \"#utility.yul\":4360:4363   */\n      dup3\n        /* \"#utility.yul\":4271:4364   */\n      tag_46\n      jump\t// in\n    tag_93:\n        /* \"#utility.yul\":4389:4391   */\n      0x20\n        /* \"#utility.yul\":4384:4387   */\n      dup3\n        /* \"#utility.yul\":4380:4392   */\n      add\n        /* \"#utility.yul\":4373:4392   */\n      swap1\n      pop\n        /* \"#utility.yul\":4032:4398   */\n      swap2\n      swap1\n      pop\n      jump\t// out\n        /* \"#utility.yul\":4404:4823   */\n    tag_30:\n        /* \"#utility.yul\":4570:4574   */\n      0x00\n        /* \"#utility.yul\":4608:4610   */\n      0x20\n        /* \"#utility.yul\":4597:4606   */\n      dup3\n        /* \"#utility.yul\":4593:4611   */\n      add\n        /* \"#utility.yul\":4585:4611   */\n      swap1\n      pop\n        /* \"#utility.yul\":4657:4666   */\n      dup2\n        /* \"#utility.yul\":4651:4655   */\n      dup2\n        /* \"#utility.yul\":4647:4667   */\n      sub\n        /* \"#utility.yul\":4643:4644   */\n      0x00\n        /* \"#utility.yul\":4632:4641   */\n      dup4\n        /* \"#utility.yul\":4628:4645   */\n      add\n        /* \"#utility.yul\":4621:4668   */\n      mstore\n        /* \"#utility.yul\":4685:4816   */\n      tag_95\n        /* \"#utility.yul\":4811:4815   */\n      dup2\n        /* \"#utility.yul\":4685:4816   */\n      tag_47\n      jump\t// in\n    tag_95:\n        /* \"#utility.yul\":4677:4816   */\n      swap1\n      pop\n        /* \"#utility.yul\":4404:4823   */\n      swap2\n      swap1\n      pop\n      jump\t// out\n\n    auxdata: 0xa26469706673582212205fd390db2cb90cad5632338f9e0fbf310606c3370e30bd738951ea5f800e9ef664736f6c634300081a0033\n}\n",
				"bytecode": {
					"linkReferences": {},
					"object": "6080604052348015600e575f80fd5b506104b98061001c5f395ff3fe608060405234801561000f575f80fd5b506004361061004a575f3560e01c80633fa4f2451461004e578063573c0bd31461006c5780638da5cb5b14610088578063cd6dc687146100a6575b5f80fd5b6100566100c2565b6040516100639190610271565b60405180910390f35b610086600480360381019061008191906102b8565b6100c8565b005b61009061015f565b60405161009d9190610322565b60405180910390f35b6100c060048036038101906100bb9190610365565b610182565b005b60015481565b5f8054906101000a900473ffffffffffffffffffffffffffffffffffffffff1673ffffffffffffffffffffffffffffffffffffffff163373ffffffffffffffffffffffffffffffffffffffff1614610155576040517f08c379a000000000000000000000000000000000000000000000000000000000815260040161014c906103fd565b60405180910390fd5b8060018190555050565b5f8054906101000a900473ffffffffffffffffffffffffffffffffffffffff1681565b5f73ffffffffffffffffffffffffffffffffffffffff165f8054906101000a900473ffffffffffffffffffffffffffffffffffffffff1673ffffffffffffffffffffffffffffffffffffffff161461020f576040517f08c379a000000000000000000000000000000000000000000000000000000000815260040161020690610465565b60405180910390fd5b815f806101000a81548173ffffffffffffffffffffffffffffffffffffffff021916908373ffffffffffffffffffffffffffffffffffffffff160217905550806001819055505050565b5f819050919050565b61026b81610259565b82525050565b5f6020820190506102845f830184610262565b92915050565b5f80fd5b61029781610259565b81146102a1575f80fd5b50565b5f813590506102b28161028e565b92915050565b5f602082840312156102cd576102cc61028a565b5b5f6102da848285016102a4565b91505092915050565b5f73ffffffffffffffffffffffffffffffffffffffff82169050919050565b5f61030c826102e3565b9050919050565b61031c81610302565b82525050565b5f6020820190506103355f830184610313565b92915050565b61034481610302565b811461034e575f80fd5b50565b5f8135905061035f8161033b565b92915050565b5f806040838503121561037b5761037a61028a565b5b5f61038885828601610351565b9250506020610399858286016102a4565b9150509250929050565b5f82825260208201905092915050565b7f4e6f7420746865206f776e6572000000000000000000000000000000000000005f82015250565b5f6103e7600d836103a3565b91506103f2826103b3565b602082019050919050565b5f6020820190508181035f830152610414816103db565b9050919050565b7f416c726561647920696e697469616c697a6564000000000000000000000000005f82015250565b5f61044f6013836103a3565b915061045a8261041b565b602082019050919050565b5f6020820190508181035f83015261047c81610443565b905091905056fea26469706673582212205fd390db2cb90cad5632338f9e0fbf310606c3370e30bd738951ea5f800e9ef664736f6c634300081a0033",
					"opcodes": "PUSH1 0x80 PUSH1 0x40 MSTORE CALLVALUE DUP1 ISZERO PUSH1 0xE JUMPI PUSH0 DUP1 REVERT JUMPDEST POP PUSH2 0x4B9 DUP1 PUSH2 0x1C PUSH0 CODECOPY PUSH0 RETURN INVALID PUSH1 0x80 PUSH1 0x40 MSTORE CALLVALUE DUP1 ISZERO PUSH2 0xF JUMPI PUSH0 DUP1 REVERT JUMPDEST POP PUSH1 0x4 CALLDATASIZE LT PUSH2 0x4A JUMPI PUSH0 CALLDATALOAD PUSH1 0xE0 SHR DUP1 PUSH4 0x3FA4F245 EQ PUSH2 0x4E JUMPI DUP1 PUSH4 0x573C0BD3 EQ PUSH2 0x6C JUMPI DUP1 PUSH4 0x8DA5CB5B EQ PUSH2 0x88 JUMPI DUP1 PUSH4 0xCD6DC687 EQ PUSH2 0xA6 JUMPI JUMPDEST PUSH0 DUP1 REVERT JUMPDEST PUSH2 0x56 PUSH2 0xC2 JUMP JUMPDEST PUSH1 0x40 MLOAD PUSH2 0x63 SWAP2 SWAP1 PUSH2 0x271 JUMP JUMPDEST PUSH1 0x40 MLOAD DUP1 SWAP2 SUB SWAP1 RETURN JUMPDEST PUSH2 0x86 PUSH1 0x4 DUP1 CALLDATASIZE SUB DUP2 ADD SWAP1 PUSH2 0x81 SWAP2 SWAP1 PUSH2 0x2B8 JUMP JUMPDEST PUSH2 0xC8 JUMP JUMPDEST STOP JUMPDEST PUSH2 0x90 PUSH2 0x15F JUMP JUMPDEST PUSH1 0x40 MLOAD PUSH2 0x9D SWAP2 SWAP1 PUSH2 0x322 JUMP JUMPDEST PUSH1 0x40 MLOAD DUP1 SWAP2 SUB SWAP1 RETURN JUMPDEST PUSH2 0xC0 PUSH1 0x4 DUP1 CALLDATASIZE SUB DUP2 ADD SWAP1 PUSH2 0xBB SWAP2 SWAP1 PUSH2 0x365 JUMP JUMPDEST PUSH2 0x182 JUMP JUMPDEST STOP JUMPDEST PUSH1 0x1 SLOAD DUP2 JUMP JUMPDEST PUSH0 DUP1 SLOAD SWAP1 PUSH2 0x100 EXP SWAP1 DIV PUSH20 0xFFFFFFFFFFFFFFFFFFFFFFFFFFFFFFFFFFFFFFFF AND PUSH20 0xFFFFFFFFFFFFFFFFFFFFFFFFFFFFFFFFFFFFFFFF AND CALLER PUSH20 0xFFFFFFFFFFFFFFFFFFFFFFFFFFFFFFFFFFFFFFFF AND EQ PUSH2 0x155 JUMPI PUSH1 0x40 MLOAD PUSH32 0x8C379A000000000000000000000000000000000000000000000000000000000 DUP2 MSTORE PUSH1 0x4 ADD PUSH2 0x14C SWAP1 PUSH2 0x3FD JUMP JUMPDEST PUSH1 0x40 MLOAD DUP1 SWAP2 SUB SWAP1 REVERT JUMPDEST DUP1 PUSH1 0x1 DUP2 SWAP1 SSTORE POP POP JUMP JUMPDEST PUSH0 DUP1 SLOAD SWAP1 PUSH2 0x100 EXP SWAP1 DIV PUSH20 0xFFFFFFFFFFFFFFFFFFFFFFFFFFFFFFFFFFFFFFFF AND DUP2 JUMP JUMPDEST PUSH0 PUSH20 0xFFFFFFFFFFFFFFFFFFFFFFFFFFFFFFFFFFFFFFFF AND PUSH0 DUP1 SLOAD SWAP1 PUSH2 0x100 EXP SWAP1 DIV PUSH20 0xFFFFFFFFFFFFFFFFFFFFFFFFFFFFFFFFFFFFFFFF AND PUSH20 0xFFFFFFFFFFFFFFFFFFFFFFFFFFFFFFFFFFFFFFFF AND EQ PUSH2 0x20F JUMPI PUSH1 0x40 MLOAD PUSH32 0x8C379A000000000000000000000000000000000000000000000000000000000 DUP2 MSTORE PUSH1 0x4 ADD PUSH2 0x206 SWAP1 PUSH2 0x465 JUMP JUMPDEST PUSH1 0x40 MLOAD DUP1 SWAP2 SUB SWAP1 REVERT JUMPDEST DUP2 PUSH0 DUP1 PUSH2 0x100 EXP DUP2 SLOAD DUP2 PUSH20 0xFFFFFFFFFFFFFFFFFFFFFFFFFFFFFFFFFFFFFFFF MUL NOT AND SWAP1 DUP4 PUSH20 0xFFFFFFFFFFFFFFFFFFFFFFFFFFFFFFFFFFFFFFFF AND MUL OR SWAP1 SSTORE POP DUP1 PUSH1 0x1 DUP2 SWAP1 SSTORE POP POP POP JUMP JUMPDEST PUSH0 DUP2 SWAP1 POP SWAP2 SWAP1 POP JUMP JUMPDEST PUSH2 0x26B DUP2 PUSH2 0x259 JUMP JUMPDEST DUP3 MSTORE POP POP JUMP JUMPDEST PUSH0 PUSH1 0x20 DUP3 ADD SWAP1 POP PUSH2 0x284 PUSH0 DUP4 ADD DUP5 PUSH2 0x262 JUMP JUMPDEST SWAP3 SWAP2 POP POP JUMP JUMPDEST PUSH0 DUP1 REVERT JUMPDEST PUSH2 0x297 DUP2 PUSH2 0x259 JUMP JUMPDEST DUP2 EQ PUSH2 0x2A1 JUMPI PUSH0 DUP1 REVERT JUMPDEST POP JUMP JUMPDEST PUSH0 DUP2 CALLDATALOAD SWAP1 POP PUSH2 0x2B2 DUP2 PUSH2 0x28E JUMP JUMPDEST SWAP3 SWAP2 POP POP JUMP JUMPDEST PUSH0 PUSH1 0x20 DUP3 DUP5 SUB SLT ISZERO PUSH2 0x2CD JUMPI PUSH2 0x2CC PUSH2 0x28A JUMP JUMPDEST JUMPDEST PUSH0 PUSH2 0x2DA DUP5 DUP3 DUP6 ADD PUSH2 0x2A4 JUMP JUMPDEST SWAP2 POP POP SWAP3 SWAP2 POP POP JUMP JUMPDEST PUSH0 PUSH20 0xFFFFFFFFFFFFFFFFFFFFFFFFFFFFFFFFFFFFFFFF DUP3 AND SWAP1 POP SWAP2 SWAP1 POP JUMP JUMPDEST PUSH0 PUSH2 0x30C DUP3 PUSH2 0x2E3 JUMP JUMPDEST SWAP1 POP SWAP2 SWAP1 POP JUMP JUMPDEST PUSH2 0x31C DUP2 PUSH2 0x302 JUMP JUMPDEST DUP3 MSTORE POP POP JUMP JUMPDEST PUSH0 PUSH1 0x20 DUP3 ADD SWAP1 POP PUSH2 0x335 PUSH0 DUP4 ADD DUP5 PUSH2 0x313 JUMP JUMPDEST SWAP3 SWAP2 POP POP JUMP JUMPDEST PUSH2 0x344 DUP2 PUSH2 0x302 JUMP JUMPDEST DUP2 EQ PUSH2 0x34E JUMPI PUSH0 DUP1 REVERT JUMPDEST POP JUMP JUMPDEST PUSH0 DUP2 CALLDATALOAD SWAP1 POP PUSH2 0x35F DUP2 PUSH2 0x33B JUMP JUMPDEST SWAP3 SWAP2 POP POP JUMP JUMPDEST PUSH0 DUP1 PUSH1 0x40 DUP4 DUP6 SUB SLT ISZERO PUSH2 0x37B JUMPI PUSH2 0x37A PUSH2 0x28A JUMP JUMPDEST JUMPDEST PUSH0 PUSH2 0x388 DUP6 DUP3 DUP7 ADD PUSH2 0x351 JUMP JUMPDEST SWAP3 POP POP PUSH1 0x20 PUSH2 0x399 DUP6 DUP3 DUP7 ADD PUSH2 0x2A4 JUMP JUMPDEST SWAP2 POP POP SWAP3 POP SWAP3 SWAP1 POP JUMP JUMPDEST PUSH0 DUP3 DUP3 MSTORE PUSH1 0x20 DUP3 ADD SWAP1 POP SWAP3 SWAP2 POP POP JUMP JUMPDEST PUSH32 0x4E6F7420746865206F776E657200000000000000000000000000000000000000 PUSH0 DUP3 ADD MSTORE POP JUMP JUMPDEST PUSH0 PUSH2 0x3E7 PUSH1 0xD DUP4 PUSH2 0x3A3 JUMP JUMPDEST SWAP2 POP PUSH2 0x3F2 DUP3 PUSH2 0x3B3 JUMP JUMPDEST PUSH1 0x20 DUP3 ADD SWAP1 POP SWAP2 SWAP1 POP JUMP JUMPDEST PUSH0 PUSH1 0x20 DUP3 ADD SWAP1 POP DUP2 DUP2 SUB PUSH0 DUP4 ADD MSTORE PUSH2 0x414 DUP2 PUSH2 0x3DB JUMP JUMPDEST SWAP1 POP SWAP2 SWAP1 POP JUMP JUMPDEST PUSH32 0x416C726561647920696E697469616C697A656400000000000000000000000000 PUSH0 DUP3 ADD MSTORE POP JUMP JUMPDEST PUSH0 PUSH2 0x44F PUSH1 0x13 DUP4 PUSH2 0x3A3 JUMP JUMPDEST SWAP2 POP PUSH2 0x45A DUP3 PUSH2 0x41B JUMP JUMPDEST PUSH1 0x20 DUP3 ADD SWAP1 POP SWAP2 SWAP1 POP JUMP JUMPDEST PUSH0 PUSH1 0x20 DUP3 ADD SWAP1 POP DUP2 DUP2 SUB PUSH0 DUP4 ADD MSTORE PUSH2 0x47C DUP2 PUSH2 0x443 JUMP JUMPDEST SWAP1 POP SWAP2 SWAP1 POP JUMP INVALID LOG2 PUSH5 0x6970667358 0x22 SLT KECCAK256 PUSH0 0xD3 SWAP1 0xDB 0x2C 0xB9 0xC 0xAD JUMP ORIGIN CALLER DUP16 SWAP15 0xF 0xBF BALANCE MOD MOD 0xC3 CALLDATACOPY 0xE ADDRESS 0xBD PUSH20 0x8951EA5F800E9EF664736F6C634300081A003300 "
				},
				"gasEstimates": {
					"creation": {
						"codeDepositCost": "241800",
						"executionCost": "279",
						"totalCost": "242079"
					},
					"external": {
						"initialize(address,uint256)": "49210",
						"owner()": "2527",
						"updateValue(uint256)": "24681",
						"value()": "2403"
					}
				},
				"methodIdentifiers": {
					"initialize(address,uint256)": "cd6dc687",
					"owner()": "8da5cb5b",
					"updateValue(uint256)": "573c0bd3",
					"value()": "3fa4f245"
				}
			},
			"storageLayout": {
				"storage": [
					{
						"astId": 3,
						"contract": "Contracts/Logic.sol:Logic",
						"label": "owner",
						"offset": 0,
						"slot": "0",
						"type": "t_address"
					},
					{
						"astId": 5,
						"contract": "Contracts/Logic.sol:Logic",
						"label": "value",
						"offset": 0,
						"slot": "1",
						"type": "t_uint256"
					}
				],
				"types": {
					"t_address": {
						"encoding": "inplace",
						"label": "address",
						"numberOfBytes": "20"
					},
					"t_uint256": {
						"encoding": "inplace",
						"label": "uint256",
						"numberOfBytes": "32"
					}
				}
			},
			"userdoc": {
				"kind": "user",
				"methods": {},
				"version": 1
			}
		}
	}
}