{
	"data": {
		"bytecode": {
			"linkReferences": {},
			"object": "6080604052348015600e575f80fd5b506104f18061001c5f395ff3fe60806040526004361061001d575f3560e01c8063cfda547814610021575b5f80fd5b61003b60048036038101906100369190610133565b610051565b6040516100489190610192565b60405180910390f35b5f815f1b848460405161006390610095565b61006e9291906101ba565b8190604051809103905ff590508015801561008b573d5f803e3d5ffd5b5090509392505050565b6102da806101e283390190565b5f80fd5b5f73ffffffffffffffffffffffffffffffffffffffff82169050919050565b5f6100cf826100a6565b9050919050565b6100df816100c5565b81146100e9575f80fd5b50565b5f813590506100fa816100d6565b92915050565b5f819050919050565b61011281610100565b811461011c575f80fd5b50565b5f8135905061012d81610109565b92915050565b5f805f6060848603121561014a576101496100a2565b5b5f610157868287016100ec565b93505060206101688682870161011f565b92505060406101798682870161011f565b9150509250925092565b61018c816100c5565b82525050565b5f6020820190506101a55f830184610183565b92915050565b6101b481610100565b82525050565b5f6040820190506101cd5f830185610183565b6101da60208301846101ab565b939250505056fe60806040526040516102da3803806102da83398181016040528101906100259190610103565b815f806101000a81548173ffffffffffffffffffffffffffffffffffffffff021916908373ffffffffffffffffffffffffffffffffffffffff160217905550806001819055505050610141565b5f80fd5b5f73ffffffffffffffffffffffffffffffffffffffff82169050919050565b5f61009f82610076565b9050919050565b6100af81610095565b81146100b9575f80fd5b50565b5f815190506100ca816100a6565b92915050565b5f819050919050565b6100e2816100d0565b81146100ec575f80fd5b50565b5f815190506100fd816100d9565b92915050565b5f806040838503121561011957610118610072565b5b5f610126858286016100bc565b9250506020610137858286016100ef565b9150509250929050565b61018c8061014e5f395ff3fe608060405234801561000f575f80fd5b506004361061003f575f3560e01c806312065fe0146100435780638da5cb5b14610061578063c29855781461007f575b5f80fd5b61004b61009d565b60405161005891906100e5565b60405180910390f35b6100696100a4565b604051610076919061013d565b60405180910390f35b6100876100c7565b60405161009491906100e5565b60405180910390f35b5f47905090565b5f8054906101000a900473ffffffffffffffffffffffffffffffffffffffff1681565b60015481565b5f819050919050565b6100df816100cd565b82525050565b5f6020820190506100f85f8301846100d6565b92915050565b5f73ffffffffffffffffffffffffffffffffffffffff82169050919050565b5f610127826100fe565b9050919050565b6101378161011d565b82525050565b5f6020820190506101505f83018461012e565b9291505056fea26469706673582212200554e617a89191a55935e00a4d59be0dcece112ea39154b46e804fb7703a429764736f6c634300081a0033a264697066735822122052d6dc4238512c696fd02fcce1a30e1ef0be723de212219a91529b18ace5024a64736f6c634300081a0033",
			"opcodes": "PUSH1 0x80 PUSH1 0x40 MSTORE CALLVALUE DUP1 ISZERO PUSH1 0xE JUMPI PUSH0 DUP1 REVERT JUMPDEST POP PUSH2 0x4F1 DUP1 PUSH2 0x1C PUSH0 CODECOPY PUSH0 RETURN INVALID PUSH1 0x80 PUSH1 0x40 MSTORE PUSH1 0x4 CALLDATASIZE LT PUSH2 0x1D JUMPI PUSH0 CALLDATALOAD PUSH1 0xE0 SHR DUP1 PUSH4 0xCFDA5478 EQ PUSH2 0x21 JUMPI JUMPDEST PUSH0 DUP1 REVERT JUMPDEST PUSH2 0x3B PUSH1 0x4 DUP1 CALLDATASIZE SUB DUP2 ADD SWAP1 PUSH2 0x36 SWAP2 SWAP1 PUSH2 0x133 JUMP JUMPDEST PUSH2 0x51 JUMP JUMPDEST PUSH1 0x40 MLOAD PUSH2 0x48 SWAP2 SWAP1 PUSH2 0x192 JUMP JUMPDEST PUSH1 0x40 MLOAD DUP1 SWAP2 SUB SWAP1 RETURN JUMPDEST PUSH0 DUP2 PUSH0 SHL DUP5 DUP5 PUSH1 0x40 MLOAD PUSH2 0x63 SWAP1 PUSH2 0x95 JUMP JUMPDEST PUSH2 0x6E SWAP3 SWAP2 SWAP1 PUSH2 0x1BA JUMP JUMPDEST DUP2 SWAP1 PUSH1 0x40 MLOAD DUP1 SWAP2 SUB SWAP1 PUSH0 CREATE2 SWAP1 POP DUP1 ISZERO DUP1 ISZERO PUSH2 0x8B JUMPI RETURNDATASIZE PUSH0 DUP1 RETURNDATACOPY RETURNDATASIZE PUSH0 REVERT JUMPDEST POP SWAP1 POP SWAP4 SWAP3 POP POP POP JUMP JUMPDEST PUSH2 0x2DA DUP1 PUSH2 0x1E2 DUP4 CODECOPY ADD SWAP1 JUMP JUMPDEST PUSH0 DUP1 REVERT JUMPDEST PUSH0 PUSH20 0xFFFFFFFFFFFFFFFFFFFFFFFFFFFFFFFFFFFFFFFF DUP3 AND SWAP1 POP SWAP2 SWAP1 POP JUMP JUMPDEST PUSH0 PUSH2 0xCF DUP3 PUSH2 0xA6 JUMP JUMPDEST SWAP1 POP SWAP2 SWAP1 POP JUMP JUMPDEST PUSH2 0xDF DUP2 PUSH2 0xC5 JUMP JUMPDEST DUP2 EQ PUSH2 0xE9 JUMPI PUSH0 DUP1 REVERT JUMPDEST POP JUMP JUMPDEST PUSH0 DUP2 CALLDATALOAD SWAP1 POP PUSH2 0xFA DUP2 PUSH2 0xD6 JUMP JUMPDEST SWAP3 SWAP2 POP POP JUMP JUMPDEST PUSH0 DUP2 SWAP1 POP SWAP2 SWAP1 POP JUMP JUMPDEST PUSH2 0x112 DUP2 PUSH2 0x100 JUMP JUMPDEST DUP2 EQ PUSH2 0x11C JUMPI PUSH0 DUP1 REVERT JUMPDEST POP JUMP JUMPDEST PUSH0 DUP2 CALLDATALOAD SWAP1 POP PUSH2 0x12D DUP2 PUSH2 0x109 JUMP JUMPDEST SWAP3 SWAP2 POP POP JUMP JUMPDEST PUSH0 DUP1 PUSH0 PUSH1 0x60 DUP5 DUP7 SUB SLT ISZERO PUSH2 0x14A JUMPI PUSH2 0x149 PUSH2 0xA2 JUMP JUMPDEST JUMPDEST PUSH0 PUSH2 0x157 DUP7 DUP3 DUP8 ADD PUSH2 0xEC JUMP JUMPDEST SWAP4 POP POP PUSH1 0x20 PUSH2 0x168 DUP7 DUP3 DUP8 ADD PUSH2 0x11F JUMP JUMPDEST SWAP3 POP POP PUSH1 0x40 PUSH2 0x179 DUP7 DUP3 DUP8 ADD PUSH2 0x11F JUMP JUMPDEST SWAP2 POP POP SWAP3 POP SWAP3 POP SWAP3 JUMP JUMPDEST PUSH2 0x18C DUP2 PUSH2 0xC5 JUMP JUMPDEST DUP3 MSTORE POP POP JUMP JUMPDEST PUSH0 PUSH1 0x20 DUP3 ADD SWAP1 POP PUSH2 0x1A5 PUSH0 DUP4 ADD DUP5 PUSH2 0x183 JUMP JUMPDEST SWAP3 SWAP2 POP POP JUMP JUMPDEST PUSH2 0x1B4 DUP2 PUSH2 0x100 JUMP JUMPDEST DUP3 MSTORE POP POP JUMP JUMPDEST PUSH0 PUSH1 0x40 DUP3 ADD SWAP1 POP PUSH2 0x1CD PUSH0 DUP4 ADD DUP6 PUSH2 0x183 JUMP JUMPDEST PUSH2 0x1DA PUSH1 0x20 DUP4 ADD DUP5 PUSH2 0x1AB JUMP JUMPDEST SWAP4 SWAP3 POP POP POP JUMP INVALID PUSH1 0x80 PUSH1 0x40 MSTORE PUSH1 0x40 MLOAD PUSH2 0x2DA CODESIZE SUB DUP1 PUSH2 0x2DA DUP4 CODECOPY DUP2 DUP2 ADD PUSH1 0x40 MSTORE DUP2 ADD SWAP1 PUSH2 0x25 SWAP2 SWAP1 PUSH2 0x103 JUMP JUMPDEST DUP2 PUSH0 DUP1 PUSH2 0x100 EXP DUP2 SLOAD DUP2 PUSH20 0xFFFFFFFFFFFFFFFFFFFFFFFFFFFFFFFFFFFFFFFF MUL NOT AND SWAP1 DUP4 PUSH20 0xFFFFFFFFFFFFFFFFFFFFFFFFFFFFFFFFFFFFFFFF AND MUL OR SWAP1 SSTORE POP DUP1 PUSH1 0x1 DUP2 SWAP1 SSTORE POP POP POP PUSH2 0x141 JUMP JUMPDEST PUSH0 DUP1 REVERT JUMPDEST PUSH0 PUSH20 0xFFFFFFFFFFFFFFFFFFFFFFFFFFFFFFFFFFFFFFFF DUP3 AND SWAP1 POP SWAP2 SWAP1 POP JUMP JUMPDEST PUSH0 PUSH2 0x9F DUP3 PUSH2 0x76 JUMP JUMPDEST SWAP1 POP SWAP2 SWAP1 POP JUMP JUMPDEST PUSH2 0xAF DUP2 PUSH2 0x95 JUMP JUMPDEST DUP2 EQ PUSH2 0xB9 JUMPI PUSH0 DUP1 REVERT JUMPDEST POP JUMP JUMPDEST PUSH0 DUP2 MLOAD SWAP1 POP PUSH2 0xCA DUP2 PUSH2 0xA6 JUMP JUMPDEST SWAP3 SWAP2 POP POP JUMP JUMPDEST PUSH0 DUP2 SWAP1 POP SWAP2 SWAP1 POP JUMP JUMPDEST PUSH2 0xE2 DUP2 PUSH2 0xD0 JUMP JUMPDEST DUP2 EQ PUSH2 0xEC JUMPI PUSH0 DUP1 REVERT JUMPDEST POP JUMP JUMPDEST PUSH0 DUP2 MLOAD SWAP1 POP PUSH2 0xFD DUP2 PUSH2 0xD9 JUMP JUMPDEST SWAP3 SWAP2 POP POP JUMP JUMPDEST PUSH0 DUP1 PUSH1 0x40 DUP4 DUP6 SUB SLT ISZERO PUSH2 0x119 JUMPI PUSH2 0x118 PUSH2 0x72 JUMP JUMPDEST JUMPDEST PUSH0 PUSH2 0x126 DUP6 DUP3 DUP7 ADD PUSH2 0xBC JUMP JUMPDEST SWAP3 POP POP PUSH1 0x20 PUSH2 0x137 DUP6 DUP3 DUP7 ADD PUSH2 0xEF JUMP JUMPDEST SWAP2 POP POP SWAP3 POP SWAP3 SWAP1 POP JUMP JUMPDEST PUSH2 0x18C DUP1 PUSH2 0x14E PUSH0 CODECOPY PUSH0 RETURN INVALID PUSH1 0x80 PUSH1 0x40 MSTORE CALLVALUE DUP1 ISZERO PUSH2 0xF JUMPI PUSH0 DUP1 REVERT JUMPDEST POP PUSH1 0x4 CALLDATASIZE LT PUSH2 0x3F JUMPI PUSH0 CALLDATALOAD PUSH1 0xE0 SHR DUP1 PUSH4 0x12065FE0 EQ PUSH2 0x43 JUMPI DUP1 PUSH4 0x8DA5CB5B EQ PUSH2 0x61 JUMPI DUP1 PUSH4 0xC2985578 EQ PUSH2 0x7F JUMPI JUMPDEST PUSH0 DUP1 REVERT JUMPDEST PUSH2 0x4B PUSH2 0x9D JUMP JUMPDEST PUSH1 0x40 MLOAD PUSH2 0x58 SWAP2 SWAP1 PUSH2 0xE5 JUMP JUMPDEST PUSH1 0x40 MLOAD DUP1 SWAP2 SUB SWAP1 RETURN JUMPDEST PUSH2 0x69 PUSH2 0xA4 JUMP JUMPDEST PUSH1 0x40 MLOAD PUSH2 0x76 SWAP2 SWAP1 PUSH2 0x13D JUMP JUMPDEST PUSH1 0x40 MLOAD DUP1 SWAP2 SUB SWAP1 RETURN JUMPDEST PUSH2 0x87 PUSH2 0xC7 JUMP JUMPDEST PUSH1 0x40 MLOAD PUSH2 0x94 SWAP2 SWAP1 PUSH2 0xE5 JUMP JUMPDEST PUSH1 0x40 MLOAD DUP1 SWAP2 SUB SWAP1 RETURN JUMPDEST PUSH0 SELFBALANCE SWAP1 POP SWAP1 JUMP JUMPDEST PUSH0 DUP1 SLOAD SWAP1 PUSH2 0x100 EXP SWAP1 DIV PUSH20 0xFFFFFFFFFFFFFFFFFFFFFFFFFFFFFFFFFFFFFFFF AND DUP2 JUMP JUMPDEST PUSH1 0x1 SLOAD DUP2 JUMP JUMPDEST PUSH0 DUP2 SWAP1 POP SWAP2 SWAP1 POP JUMP JUMPDEST PUSH2 0xDF DUP2 PUSH2 0xCD JUMP JUMPDEST DUP3 MSTORE POP POP JUMP JUMPDEST PUSH0 PUSH1 0x20 DUP3 ADD SWAP1 POP PUSH2 0xF8 PUSH0 DUP4 ADD DUP5 PUSH2 0xD6 JUMP JUMPDEST SWAP3 SWAP2 POP POP JUMP JUMPDEST PUSH0 PUSH20 0xFFFFFFFFFFFFFFFFFFFFFFFFFFFFFFFFFFFFFFFF DUP3 AND SWAP1 POP SWAP2 SWAP1 POP JUMP JUMPDEST PUSH0 PUSH2 0x127 DUP3 PUSH2 0xFE JUMP JUMPDEST SWAP1 POP SWAP2 SWAP1 POP JUMP JUMPDEST PUSH2 0x137 DUP2 PUSH2 0x11D JUMP JUMPDEST DUP3 MSTORE POP POP JUMP JUMPDEST PUSH0 PUSH1 0x20 DUP3 ADD SWAP1 POP PUSH2 0x150 PUSH0 DUP4 ADD DUP5 PUSH2 0x12E JUMP JUMPDEST SWAP3 SWAP2 POP POP JUMP INVALID LOG2 PUSH5 0x6970667358 0x22 SLT KECCAK256 SDIV SLOAD 0xE6 OR 0xA8 SWAP2 SWAP2 0xA5 MSIZE CALLDATALOAD 0xE0 EXP 0x4D MSIZE 0xBE 0xD 0xCE 0xCE GT 0x2E LOG3 SWAP2 SLOAD 0xB4 PUSH15 0x804FB7703A429764736F6C63430008 BYTE STOP CALLER LOG2 PUSH5 0x6970667358 0x22 SLT KECCAK256 MSTORE 0xD6 0xDC TIMESTAMP CODESIZE MLOAD 0x2C PUSH10 0x6FD02FCCE1A30E1EF0BE PUSH19 0x3DE212219A91529B18ACE5024A64736F6C6343 STOP ADDMOD BYTE STOP CALLER "
		},
		"gasEstimates": {
			"creation": {
				"codeDepositCost": "253000",
				"executionCost": "292",
				"totalCost": "253292"
			},
			"external": {
				"deploy(address,uint256,uint256)": "infinite"
			}
		},
		"methodIdentifiers": {
			"deploy(address,uint256,uint256)": "cfda5478"
		}
	},
	"abi": [
		{
			"inputs": [
				{
					"internalType": "address",
					"name": "_owner",
					"type": "address"
				},
				{
					"internalType": "uint256",
					"name": "_foo",
					"type": "uint256"
				},
				{
					"internalType": "uint256",
					"name": "_salt",
					"type": "uint256"
				}
			],
			"name": "deploy",
			"outputs": [
				{
					"internalType": "address",
					"name": "",
					"type": "address"
				}
			],
			"stateMutability": "payable",
			"type": "function"
		}
	]
}