{
	"data": {
		"bytecode": {
			"linkReferences": {},
			"object": "610140604052348015610010575f80fd5b506040518060400160405280600e81526020017f486170707947696c6c546f6b656e000000000000000000000000000000000000815250806040518060400160405280600181526020017f31000000000000000000000000000000000000000000000000000000000000008152506040518060400160405280600e81526020017f486170707947696c6c546f6b656e0000000000000000000000000000000000008152506040518060400160405280600381526020017f48474b000000000000000000000000000000000000000000000000000000000081525081600390816100f99190610432565b5080600490816101099190610432565b5050505f828051906020012090505f828051906020012090505f7f8b73c3c69bb8fe3d512ecc4cf759cc79239f7b179b0ffacaa9a75d522b39400f90508260e081815250508161010081815250504660a081815250506101708184846101bf60201b60201c565b608081815250503073ffffffffffffffffffffffffffffffffffffffff1660c08173ffffffffffffffffffffffffffffffffffffffff16815250508061012081815250505050505050506105b8565b5f83838346306040516020016101d9959493929190610567565b6040516020818303038152906040528051906020012090509392505050565b5f81519050919050565b7f4e487b71000000000000000000000000000000000000000000000000000000005f52604160045260245ffd5b7f4e487b71000000000000000000000000000000000000000000000000000000005f52602260045260245ffd5b5f600282049050600182168061027357607f821691505b6020821081036102865761028561022f565b5b50919050565b5f819050815f5260205f209050919050565b5f6020601f8301049050919050565b5f82821b905092915050565b5f600883026102e87fffffffffffffffffffffffffffffffffffffffffffffffffffffffffffffffff826102ad565b6102f286836102ad565b95508019841693508086168417925050509392505050565b5f819050919050565b5f819050919050565b5f61033661033161032c8461030a565b610313565b61030a565b9050919050565b5f819050919050565b61034f8361031c565b61036361035b8261033d565b8484546102b9565b825550505050565b5f90565b61037761036b565b610382818484610346565b505050565b5b818110156103a55761039a5f8261036f565b600181019050610388565b5050565b601f8211156103ea576103bb8161028c565b6103c48461029e565b810160208510156103d3578190505b6103e76103df8561029e565b830182610387565b50505b505050565b5f82821c905092915050565b5f61040a5f19846008026103ef565b1980831691505092915050565b5f61042283836103fb565b9150826002028217905092915050565b61043b826101f8565b67ffffffffffffffff81111561045457610453610202565b5b61045e825461025c565b6104698282856103a9565b5f60209050601f83116001811461049a575f8415610488578287015190505b6104928582610417565b8655506104f9565b601f1984166104a88661028c565b5f5b828110156104cf578489015182556001820191506020850194506020810190506104aa565b868310156104ec57848901516104e8601f8916826103fb565b8355505b6001600288020188555050505b505050505050565b5f819050919050565b61051381610501565b82525050565b6105228161030a565b82525050565b5f73ffffffffffffffffffffffffffffffffffffffff82169050919050565b5f61055182610528565b9050919050565b61056181610547565b82525050565b5f60a08201905061057a5f83018861050a565b610587602083018761050a565b610594604083018661050a565b6105a16060830185610519565b6105ae6080830184610558565b9695505050505050565b60805160a05160c05160e05161010051610120516120af6105ff5f395f610d7901525f610dbb01525f610d9a01525f610ccf01525f610d2501525f610d4e01526120af5ff3fe608060405234801561000f575f80fd5b50600436106100f3575f3560e01c806340c10f1911610095578063a457c2d711610064578063a457c2d714610299578063a9059cbb146102c9578063d505accf146102f9578063dd62ed3e14610315576100f3565b806340c10f19146101ff57806370a082311461021b5780637ecebe001461024b57806395d89b411461027b576100f3565b806323b872dd116100d157806323b872dd14610163578063313ce567146101935780633644e515146101b157806339509351146101cf576100f3565b806306fdde03146100f7578063095ea7b31461011557806318160ddd14610145575b5f80fd5b6100ff610345565b60405161010c91906113aa565b60405180910390f35b61012f600480360381019061012a919061145b565b6103d5565b60405161013c91906114b3565b60405180910390f35b61014d6103f7565b60405161015a91906114db565b60405180910390f35b61017d600480360381019061017891906114f4565b610400565b60405161018a91906114b3565b60405180910390f35b61019b61042e565b6040516101a8919061155f565b60405180910390f35b6101b9610436565b6040516101c69190611590565b60405180910390f35b6101e960048036038101906101e4919061145b565b610444565b6040516101f691906114b3565b60405180910390f35b6102196004803603810190610214919061145b565b61047a565b005b610235600480360381019061023091906115a9565b610488565b60405161024291906114db565b60405180910390f35b610265600480360381019061026091906115a9565b6104cd565b60405161027291906114db565b60405180910390f35b61028361051a565b60405161029091906113aa565b60405180910390f35b6102b360048036038101906102ae919061145b565b6105aa565b6040516102c091906114b3565b60405180910390f35b6102e360048036038101906102de919061145b565b61061f565b6040516102f091906114b3565b60405180910390f35b610313600480360381019061030e9190611628565b610641565b005b61032f600480360381019061032a91906116c5565b610780565b60405161033c91906114db565b60405180910390f35b60606003805461035490611730565b80601f016020809104026020016040519081016040528092919081815260200182805461038090611730565b80156103cb5780601f106103a2576101008083540402835291602001916103cb565b820191905f5260205f20905b8154815290600101906020018083116103ae57829003601f168201915b5050505050905090565b5f806103df610802565b90506103ec818585610809565b600191505092915050565b5f600254905090565b5f8061040a610802565b90506104178582856109cc565b610422858585610a57565b60019150509392505050565b5f6012905090565b5f61043f610ccc565b905090565b5f8061044e610802565b905061046f8185856104608589610780565b61046a919061178d565b610809565b600191505092915050565b6104848282610de5565b5050565b5f805f8373ffffffffffffffffffffffffffffffffffffffff1673ffffffffffffffffffffffffffffffffffffffff1681526020019081526020015f20549050919050565b5f61051360055f8473ffffffffffffffffffffffffffffffffffffffff1673ffffffffffffffffffffffffffffffffffffffff1681526020019081526020015f20610f3c565b9050919050565b60606004805461052990611730565b80601f016020809104026020016040519081016040528092919081815260200182805461055590611730565b80156105a05780601f10610577576101008083540402835291602001916105a0565b820191905f5260205f20905b81548152906001019060200180831161058357829003601f168201915b5050505050905090565b5f806105b4610802565b90505f6105c18286610780565b905083811015610606576040517f08c379a00000000000000000000000000000000000000000000000000000000081526004016105fd90611830565b60405180910390fd5b6106138286868403610809565b60019250505092915050565b5f80610629610802565b9050610636818585610a57565b600191505092915050565b83421115610684576040517f08c379a000000000000000000000000000000000000000000000000000000000815260040161067b90611898565b60405180910390fd5b5f7f6e71edae12b1b97f4d1f60370fef10105fa2faae0126114a169c64845d6126c98888886106b28c610f48565b896040516020016106c8969594939291906118c5565b6040516020818303038152906040528051906020012090505f6106ea82610fa3565b90505f6106f982878787610fbc565b90508973ffffffffffffffffffffffffffffffffffffffff168173ffffffffffffffffffffffffffffffffffffffff1614610769576040517f08c379a00000000000000000000000000000000000000000000000000000000081526004016107609061196e565b60405180910390fd5b6107748a8a8a610809565b50505050505050505050565b5f60015f8473ffffffffffffffffffffffffffffffffffffffff1673ffffffffffffffffffffffffffffffffffffffff1681526020019081526020015f205f8373ffffffffffffffffffffffffffffffffffffffff1673ffffffffffffffffffffffffffffffffffffffff1681526020019081526020015f2054905092915050565b5f33905090565b5f73ffffffffffffffffffffffffffffffffffffffff168373ffffffffffffffffffffffffffffffffffffffff1603610877576040517f08c379a000000000000000000000000000000000000000000000000000000000815260040161086e906119fc565b60405180910390fd5b5f73ffffffffffffffffffffffffffffffffffffffff168273ffffffffffffffffffffffffffffffffffffffff16036108e5576040517f08c379a00000000000000000000000000000000000000000000000000000000081526004016108dc90611a8a565b60405180910390fd5b8060015f8573ffffffffffffffffffffffffffffffffffffffff1673ffffffffffffffffffffffffffffffffffffffff1681526020019081526020015f205f8473ffffffffffffffffffffffffffffffffffffffff1673ffffffffffffffffffffffffffffffffffffffff1681526020019081526020015f20819055508173ffffffffffffffffffffffffffffffffffffffff168373ffffffffffffffffffffffffffffffffffffffff167f8c5be1e5ebec7d5bd14f71427d1e84f3dd0314c0f7b2291e5b200ac8c7c3b925836040516109bf91906114db565b60405180910390a3505050565b5f6109d78484610780565b90507fffffffffffffffffffffffffffffffffffffffffffffffffffffffffffffffff8114610a515781811015610a43576040517f08c379a0000000000000000000000000000000000000000000000000000000008152600401610a3a90611af2565b60405180910390fd5b610a508484848403610809565b5b50505050565b5f73ffffffffffffffffffffffffffffffffffffffff168373ffffffffffffffffffffffffffffffffffffffff1603610ac5576040517f08c379a0000000000000000000000000000000000000000000000000000000008152600401610abc90611b80565b60405180910390fd5b5f73ffffffffffffffffffffffffffffffffffffffff168273ffffffffffffffffffffffffffffffffffffffff1603610b33576040517f08c379a0000000000000000000000000000000000000000000000000000000008152600401610b2a90611c0e565b60405180910390fd5b610b3e838383610fe5565b5f805f8573ffffffffffffffffffffffffffffffffffffffff1673ffffffffffffffffffffffffffffffffffffffff1681526020019081526020015f2054905081811015610bc1576040517f08c379a0000000000000000000000000000000000000000000000000000000008152600401610bb890611c9c565b60405180910390fd5b8181035f808673ffffffffffffffffffffffffffffffffffffffff1673ffffffffffffffffffffffffffffffffffffffff1681526020019081526020015f2081905550815f808573ffffffffffffffffffffffffffffffffffffffff1673ffffffffffffffffffffffffffffffffffffffff1681526020019081526020015f205f828254610c4f919061178d565b925050819055508273ffffffffffffffffffffffffffffffffffffffff168473ffffffffffffffffffffffffffffffffffffffff167fddf252ad1be2c89b69c2b068fc378daa952ba7f163c4a11628f55a4df523b3ef84604051610cb391906114db565b60405180910390a3610cc6848484610fea565b50505050565b5f7f000000000000000000000000000000000000000000000000000000000000000073ffffffffffffffffffffffffffffffffffffffff163073ffffffffffffffffffffffffffffffffffffffff16148015610d4757507f000000000000000000000000000000000000000000000000000000000000000046145b15610d74577f00000000000000000000000000000000000000000000000000000000000000009050610de2565b610ddf7f00000000000000000000000000000000000000000000000000000000000000007f00000000000000000000000000000000000000000000000000000000000000007f0000000000000000000000000000000000000000000000000000000000000000610fef565b90505b90565b5f73ffffffffffffffffffffffffffffffffffffffff168273ffffffffffffffffffffffffffffffffffffffff1603610e53576040517f08c379a0000000000000000000000000000000000000000000000000000000008152600401610e4a90611d04565b60405180910390fd5b610e5e5f8383610fe5565b8060025f828254610e6f919061178d565b92505081905550805f808473ffffffffffffffffffffffffffffffffffffffff1673ffffffffffffffffffffffffffffffffffffffff1681526020019081526020015f205f828254610ec1919061178d565b925050819055508173ffffffffffffffffffffffffffffffffffffffff165f73ffffffffffffffffffffffffffffffffffffffff167fddf252ad1be2c89b69c2b068fc378daa952ba7f163c4a11628f55a4df523b3ef83604051610f2591906114db565b60405180910390a3610f385f8383610fea565b5050565b5f815f01549050919050565b5f8060055f8473ffffffffffffffffffffffffffffffffffffffff1673ffffffffffffffffffffffffffffffffffffffff1681526020019081526020015f209050610f9281610f3c565b9150610f9d81611028565b50919050565b5f610fb5610faf610ccc565b8361103c565b9050919050565b5f805f610fcb8787878761106e565b91509150610fd88161116f565b8192505050949350505050565b505050565b505050565b5f8383834630604051602001611009959493929190611d22565b6040516020818303038152906040528051906020012090509392505050565b6001815f015f828254019250508190555050565b5f8282604051602001611050929190611de7565b60405160208183030381529060405280519060200120905092915050565b5f807f7fffffffffffffffffffffffffffffff5d576e7357a4501ddfe92f46681b20a0835f1c11156110a6575f600391509150611166565b601b8560ff16141580156110be5750601c8560ff1614155b156110cf575f600491509150611166565b5f6001878787876040515f81526020016040526040516110f29493929190611e1d565b6020604051602081039080840390855afa158015611112573d5f803e3d5ffd5b5050506020604051035190505f73ffffffffffffffffffffffffffffffffffffffff168173ffffffffffffffffffffffffffffffffffffffff160361115e575f60019250925050611166565b805f92509250505b94509492505050565b5f600481111561118257611181611e60565b5b81600481111561119557611194611e60565b5b031561133757600160048111156111af576111ae611e60565b5b8160048111156111c2576111c1611e60565b5b03611202576040517f08c379a00000000000000000000000000000000000000000000000000000000081526004016111f990611ed7565b60405180910390fd5b6002600481111561121657611215611e60565b5b81600481111561122957611228611e60565b5b03611269576040517f08c379a000000000000000000000000000000000000000000000000000000000815260040161126090611f3f565b60405180910390fd5b6003600481111561127d5761127c611e60565b5b8160048111156112905761128f611e60565b5b036112d0576040517f08c379a00000000000000000000000000000000000000000000000000000000081526004016112c790611fcd565b60405180910390fd5b6004808111156112e3576112e2611e60565b5b8160048111156112f6576112f5611e60565b5b03611336576040517f08c379a000000000000000000000000000000000000000000000000000000000815260040161132d9061205b565b60405180910390fd5b5b50565b5f81519050919050565b5f82825260208201905092915050565b8281835e5f83830152505050565b5f601f19601f8301169050919050565b5f61137c8261133a565b6113868185611344565b9350611396818560208601611354565b61139f81611362565b840191505092915050565b5f6020820190508181035f8301526113c28184611372565b905092915050565b5f80fd5b5f73ffffffffffffffffffffffffffffffffffffffff82169050919050565b5f6113f7826113ce565b9050919050565b611407816113ed565b8114611411575f80fd5b50565b5f81359050611422816113fe565b92915050565b5f819050919050565b61143a81611428565b8114611444575f80fd5b50565b5f8135905061145581611431565b92915050565b5f8060408385031215611471576114706113ca565b5b5f61147e85828601611414565b925050602061148f85828601611447565b9150509250929050565b5f8115159050919050565b6114ad81611499565b82525050565b5f6020820190506114c65f8301846114a4565b92915050565b6114d581611428565b82525050565b5f6020820190506114ee5f8301846114cc565b92915050565b5f805f6060848603121561150b5761150a6113ca565b5b5f61151886828701611414565b935050602061152986828701611414565b925050604061153a86828701611447565b9150509250925092565b5f60ff82169050919050565b61155981611544565b82525050565b5f6020820190506115725f830184611550565b92915050565b5f819050919050565b61158a81611578565b82525050565b5f6020820190506115a35f830184611581565b92915050565b5f602082840312156115be576115bd6113ca565b5b5f6115cb84828501611414565b91505092915050565b6115dd81611544565b81146115e7575f80fd5b50565b5f813590506115f8816115d4565b92915050565b61160781611578565b8114611611575f80fd5b50565b5f81359050611622816115fe565b92915050565b5f805f805f805f60e0888a031215611643576116426113ca565b5b5f6116508a828b01611414565b97505060206116618a828b01611414565b96505060406116728a828b01611447565b95505060606116838a828b01611447565b94505060806116948a828b016115ea565b93505060a06116a58a828b01611614565b92505060c06116b68a828b01611614565b91505092959891949750929550565b5f80604083850312156116db576116da6113ca565b5b5f6116e885828601611414565b92505060206116f985828601611414565b9150509250929050565b7f4e487b71000000000000000000000000000000000000000000000000000000005f52602260045260245ffd5b5f600282049050600182168061174757607f821691505b60208210810361175a57611759611703565b5b50919050565b7f4e487b71000000000000000000000000000000000000000000000000000000005f52601160045260245ffd5b5f61179782611428565b91506117a283611428565b92508282019050808211156117ba576117b9611760565b5b92915050565b7f45524332303a2064656372656173656420616c6c6f77616e63652062656c6f775f8201527f207a65726f000000000000000000000000000000000000000000000000000000602082015250565b5f61181a602583611344565b9150611825826117c0565b604082019050919050565b5f6020820190508181035f8301526118478161180e565b9050919050565b7f45524332305065726d69743a206578706972656420646561646c696e650000005f82015250565b5f611882601d83611344565b915061188d8261184e565b602082019050919050565b5f6020820190508181035f8301526118af81611876565b9050919050565b6118bf816113ed565b82525050565b5f60c0820190506118d85f830189611581565b6118e560208301886118b6565b6118f260408301876118b6565b6118ff60608301866114cc565b61190c60808301856114cc565b61191960a08301846114cc565b979650505050505050565b7f45524332305065726d69743a20696e76616c6964207369676e617475726500005f82015250565b5f611958601e83611344565b915061196382611924565b602082019050919050565b5f6020820190508181035f8301526119858161194c565b9050919050565b7f45524332303a20617070726f76652066726f6d20746865207a65726f206164645f8201527f7265737300000000000000000000000000000000000000000000000000000000602082015250565b5f6119e6602483611344565b91506119f18261198c565b604082019050919050565b5f6020820190508181035f830152611a13816119da565b9050919050565b7f45524332303a20617070726f766520746f20746865207a65726f2061646472655f8201527f7373000000000000000000000000000000000000000000000000000000000000602082015250565b5f611a74602283611344565b9150611a7f82611a1a565b604082019050919050565b5f6020820190508181035f830152611aa181611a68565b9050919050565b7f45524332303a20696e73756666696369656e7420616c6c6f77616e63650000005f82015250565b5f611adc601d83611344565b9150611ae782611aa8565b602082019050919050565b5f6020820190508181035f830152611b0981611ad0565b9050919050565b7f45524332303a207472616e736665722066726f6d20746865207a65726f2061645f8201527f6472657373000000000000000000000000000000000000000000000000000000602082015250565b5f611b6a602583611344565b9150611b7582611b10565b604082019050919050565b5f6020820190508181035f830152611b9781611b5e565b9050919050565b7f45524332303a207472616e7366657220746f20746865207a65726f20616464725f8201527f6573730000000000000000000000000000000000000000000000000000000000602082015250565b5f611bf8602383611344565b9150611c0382611b9e565b604082019050919050565b5f6020820190508181035f830152611c2581611bec565b9050919050565b7f45524332303a207472616e7366657220616d6f756e74206578636565647320625f8201527f616c616e63650000000000000000000000000000000000000000000000000000602082015250565b5f611c86602683611344565b9150611c9182611c2c565b604082019050919050565b5f6020820190508181035f830152611cb381611c7a565b9050919050565b7f45524332303a206d696e7420746f20746865207a65726f2061646472657373005f82015250565b5f611cee601f83611344565b9150611cf982611cba565b602082019050919050565b5f6020820190508181035f830152611d1b81611ce2565b9050919050565b5f60a082019050611d355f830188611581565b611d426020830187611581565b611d4f6040830186611581565b611d5c60608301856114cc565b611d6960808301846118b6565b9695505050505050565b5f81905092915050565b7f19010000000000000000000000000000000000000000000000000000000000005f82015250565b5f611db1600283611d73565b9150611dbc82611d7d565b600282019050919050565b5f819050919050565b611de1611ddc82611578565b611dc7565b82525050565b5f611df182611da5565b9150611dfd8285611dd0565b602082019150611e0d8284611dd0565b6020820191508190509392505050565b5f608082019050611e305f830187611581565b611e3d6020830186611550565b611e4a6040830185611581565b611e576060830184611581565b95945050505050565b7f4e487b71000000000000000000000000000000000000000000000000000000005f52602160045260245ffd5b7f45434453413a20696e76616c6964207369676e617475726500000000000000005f82015250565b5f611ec1601883611344565b9150611ecc82611e8d565b602082019050919050565b5f6020820190508181035f830152611eee81611eb5565b9050919050565b7f45434453413a20696e76616c6964207369676e6174757265206c656e677468005f82015250565b5f611f29601f83611344565b9150611f3482611ef5565b602082019050919050565b5f6020820190508181035f830152611f5681611f1d565b9050919050565b7f45434453413a20696e76616c6964207369676e6174757265202773272076616c5f8201527f7565000000000000000000000000000000000000000000000000000000000000602082015250565b5f611fb7602283611344565b9150611fc282611f5d565b604082019050919050565b5f6020820190508181035f830152611fe481611fab565b9050919050565b7f45434453413a20696e76616c6964207369676e6174757265202776272076616c5f8201527f7565000000000000000000000000000000000000000000000000000000000000602082015250565b5f612045602283611344565b915061205082611feb565b604082019050919050565b5f6020820190508181035f83015261207281612039565b905091905056fea2646970667358221220e366aec472bad196fa55d8b789136a6fc3011d2db375c1b7fd60d83e5e7f2eb664736f6c634300081a0033",
			"opcodes": "PUSH2 0x140 PUSH1 0x40 MSTORE CALLVALUE DUP1 ISZERO PUSH2 0x10 JUMPI PUSH0 DUP1 REVERT JUMPDEST POP PUSH1 0x40 MLOAD DUP1 PUSH1 0x40 ADD PUSH1 0x40 MSTORE DUP1 PUSH1 0xE DUP2 MSTORE PUSH1 0x20 ADD PUSH32 0x486170707947696C6C546F6B656E000000000000000000000000000000000000 DUP2 MSTORE POP DUP1 PUSH1 0x40 MLOAD DUP1 PUSH1 0x40 ADD PUSH1 0x40 MSTORE DUP1 PUSH1 0x1 DUP2 MSTORE PUSH1 0x20 ADD PUSH32 0x3100000000000000000000000000000000000000000000000000000000000000 DUP2 MSTORE POP PUSH1 0x40 MLOAD DUP1 PUSH1 0x40 ADD PUSH1 0x40 MSTORE DUP1 PUSH1 0xE DUP2 MSTORE PUSH1 0x20 ADD PUSH32 0x486170707947696C6C546F6B656E000000000000000000000000000000000000 DUP2 MSTORE POP PUSH1 0x40 MLOAD DUP1 PUSH1 0x40 ADD PUSH1 0x40 MSTORE DUP1 PUSH1 0x3 DUP2 MSTORE PUSH1 0x20 ADD PUSH32 0x48474B0000000000000000000000000000000000000000000000000000000000 DUP2 MSTORE POP DUP2 PUSH1 0x3 SWAP1 DUP2 PUSH2 0xF9 SWAP2 SWAP1 PUSH2 0x432 JUMP JUMPDEST POP DUP1 PUSH1 0x4 SWAP1 DUP2 PUSH2 0x109 SWAP2 SWAP1 PUSH2 0x432 JUMP JUMPDEST POP POP POP PUSH0 DUP3 DUP1 MLOAD SWAP1 PUSH1 0x20 ADD KECCAK256 SWAP1 POP PUSH0 DUP3 DUP1 MLOAD SWAP1 PUSH1 0x20 ADD KECCAK256 SWAP1 POP PUSH0 PUSH32 0x8B73C3C69BB8FE3D512ECC4CF759CC79239F7B179B0FFACAA9A75D522B39400F SWAP1 POP DUP3 PUSH1 0xE0 DUP2 DUP2 MSTORE POP POP DUP2 PUSH2 0x100 DUP2 DUP2 MSTORE POP POP CHAINID PUSH1 0xA0 DUP2 DUP2 MSTORE POP POP PUSH2 0x170 DUP2 DUP5 DUP5 PUSH2 0x1BF PUSH1 0x20 SHL PUSH1 0x20 SHR JUMP JUMPDEST PUSH1 0x80 DUP2 DUP2 MSTORE POP POP ADDRESS PUSH20 0xFFFFFFFFFFFFFFFFFFFFFFFFFFFFFFFFFFFFFFFF AND PUSH1 0xC0 DUP2 PUSH20 0xFFFFFFFFFFFFFFFFFFFFFFFFFFFFFFFFFFFFFFFF AND DUP2 MSTORE POP POP DUP1 PUSH2 0x120 DUP2 DUP2 MSTORE POP POP POP POP POP POP POP POP PUSH2 0x5B8 JUMP JUMPDEST PUSH0 DUP4 DUP4 DUP4 CHAINID ADDRESS PUSH1 0x40 MLOAD PUSH1 0x20 ADD PUSH2 0x1D9 SWAP6 SWAP5 SWAP4 SWAP3 SWAP2 SWAP1 PUSH2 0x567 JUMP JUMPDEST PUSH1 0x40 MLOAD PUSH1 0x20 DUP2 DUP4 SUB SUB DUP2 MSTORE SWAP1 PUSH1 0x40 MSTORE DUP1 MLOAD SWAP1 PUSH1 0x20 ADD KECCAK256 SWAP1 POP SWAP4 SWAP3 POP POP POP JUMP JUMPDEST PUSH0 DUP2 MLOAD SWAP1 POP SWAP2 SWAP1 POP JUMP JUMPDEST PUSH32 0x4E487B7100000000000000000000000000000000000000000000000000000000 PUSH0 MSTORE PUSH1 0x41 PUSH1 0x4 MSTORE PUSH1 0x24 PUSH0 REVERT JUMPDEST PUSH32 0x4E487B7100000000000000000000000000000000000000000000000000000000 PUSH0 MSTORE PUSH1 0x22 PUSH1 0x4 MSTORE PUSH1 0x24 PUSH0 REVERT JUMPDEST PUSH0 PUSH1 0x2 DUP3 DIV SWAP1 POP PUSH1 0x1 DUP3 AND DUP1 PUSH2 0x273 JUMPI PUSH1 0x7F DUP3 AND SWAP2 POP JUMPDEST PUSH1 0x20 DUP3 LT DUP2 SUB PUSH2 0x286 JUMPI PUSH2 0x285 PUSH2 0x22F JUMP JUMPDEST JUMPDEST POP SWAP2 SWAP1 POP JUMP JUMPDEST PUSH0 DUP2 SWAP1 POP DUP2 PUSH0 MSTORE PUSH1 0x20 PUSH0 KECCAK256 SWAP1 POP SWAP2 SWAP1 POP JUMP JUMPDEST PUSH0 PUSH1 0x20 PUSH1 0x1F DUP4 ADD DIV SWAP1 POP SWAP2 SWAP1 POP JUMP JUMPDEST PUSH0 DUP3 DUP3 SHL SWAP1 POP SWAP3 SWAP2 POP POP JUMP JUMPDEST PUSH0 PUSH1 0x8 DUP4 MUL PUSH2 0x2E8 PUSH32 0xFFFFFFFFFFFFFFFFFFFFFFFFFFFFFFFFFFFFFFFFFFFFFFFFFFFFFFFFFFFFFFFF DUP3 PUSH2 0x2AD JUMP JUMPDEST PUSH2 0x2F2 DUP7 DUP4 PUSH2 0x2AD JUMP JUMPDEST SWAP6 POP DUP1 NOT DUP5 AND SWAP4 POP DUP1 DUP7 AND DUP5 OR SWAP3 POP POP POP SWAP4 SWAP3 POP POP POP JUMP JUMPDEST PUSH0 DUP2 SWAP1 POP SWAP2 SWAP1 POP JUMP JUMPDEST PUSH0 DUP2 SWAP1 POP SWAP2 SWAP1 POP JUMP JUMPDEST PUSH0 PUSH2 0x336 PUSH2 0x331 PUSH2 0x32C DUP5 PUSH2 0x30A JUMP JUMPDEST PUSH2 0x313 JUMP JUMPDEST PUSH2 0x30A JUMP JUMPDEST SWAP1 POP SWAP2 SWAP1 POP JUMP JUMPDEST PUSH0 DUP2 SWAP1 POP SWAP2 SWAP1 POP JUMP JUMPDEST PUSH2 0x34F DUP4 PUSH2 0x31C JUMP JUMPDEST PUSH2 0x363 PUSH2 0x35B DUP3 PUSH2 0x33D JUMP JUMPDEST DUP5 DUP5 SLOAD PUSH2 0x2B9 JUMP JUMPDEST DUP3 SSTORE POP POP POP POP JUMP JUMPDEST PUSH0 SWAP1 JUMP JUMPDEST PUSH2 0x377 PUSH2 0x36B JUMP JUMPDEST PUSH2 0x382 DUP2 DUP5 DUP5 PUSH2 0x346 JUMP JUMPDEST POP POP POP JUMP JUMPDEST JUMPDEST DUP2 DUP2 LT ISZERO PUSH2 0x3A5 JUMPI PUSH2 0x39A PUSH0 DUP3 PUSH2 0x36F JUMP JUMPDEST PUSH1 0x1 DUP2 ADD SWAP1 POP PUSH2 0x388 JUMP JUMPDEST POP POP JUMP JUMPDEST PUSH1 0x1F DUP3 GT ISZERO PUSH2 0x3EA JUMPI PUSH2 0x3BB DUP2 PUSH2 0x28C JUMP JUMPDEST PUSH2 0x3C4 DUP5 PUSH2 0x29E JUMP JUMPDEST DUP2 ADD PUSH1 0x20 DUP6 LT ISZERO PUSH2 0x3D3 JUMPI DUP2 SWAP1 POP JUMPDEST PUSH2 0x3E7 PUSH2 0x3DF DUP6 PUSH2 0x29E JUMP JUMPDEST DUP4 ADD DUP3 PUSH2 0x387 JUMP JUMPDEST POP POP JUMPDEST POP POP POP JUMP JUMPDEST PUSH0 DUP3 DUP3 SHR SWAP1 POP SWAP3 SWAP2 POP POP JUMP JUMPDEST PUSH0 PUSH2 0x40A PUSH0 NOT DUP5 PUSH1 0x8 MUL PUSH2 0x3EF JUMP JUMPDEST NOT DUP1 DUP4 AND SWAP2 POP POP SWAP3 SWAP2 POP POP JUMP JUMPDEST PUSH0 PUSH2 0x422 DUP4 DUP4 PUSH2 0x3FB JUMP JUMPDEST SWAP2 POP DUP3 PUSH1 0x2 MUL DUP3 OR SWAP1 POP SWAP3 SWAP2 POP POP JUMP JUMPDEST PUSH2 0x43B DUP3 PUSH2 0x1F8 JUMP JUMPDEST PUSH8 0xFFFFFFFFFFFFFFFF DUP2 GT ISZERO PUSH2 0x454 JUMPI PUSH2 0x453 PUSH2 0x202 JUMP JUMPDEST JUMPDEST PUSH2 0x45E DUP3 SLOAD PUSH2 0x25C JUMP JUMPDEST PUSH2 0x469 DUP3 DUP3 DUP6 PUSH2 0x3A9 JUMP JUMPDEST PUSH0 PUSH1 0x20 SWAP1 POP PUSH1 0x1F DUP4 GT PUSH1 0x1 DUP2 EQ PUSH2 0x49A JUMPI PUSH0 DUP5 ISZERO PUSH2 0x488 JUMPI DUP3 DUP8 ADD MLOAD SWAP1 POP JUMPDEST PUSH2 0x492 DUP6 DUP3 PUSH2 0x417 JUMP JUMPDEST DUP7 SSTORE POP PUSH2 0x4F9 JUMP JUMPDEST PUSH1 0x1F NOT DUP5 AND PUSH2 0x4A8 DUP7 PUSH2 0x28C JUMP JUMPDEST PUSH0 JUMPDEST DUP3 DUP2 LT ISZERO PUSH2 0x4CF JUMPI DUP5 DUP10 ADD MLOAD DUP3 SSTORE PUSH1 0x1 DUP3 ADD SWAP2 POP PUSH1 0x20 DUP6 ADD SWAP5 POP PUSH1 0x20 DUP2 ADD SWAP1 POP PUSH2 0x4AA JUMP JUMPDEST DUP7 DUP4 LT ISZERO PUSH2 0x4EC JUMPI DUP5 DUP10 ADD MLOAD PUSH2 0x4E8 PUSH1 0x1F DUP10 AND DUP3 PUSH2 0x3FB JUMP JUMPDEST DUP4 SSTORE POP JUMPDEST PUSH1 0x1 PUSH1 0x2 DUP9 MUL ADD DUP9 SSTORE POP POP POP JUMPDEST POP POP POP POP POP POP JUMP JUMPDEST PUSH0 DUP2 SWAP1 POP SWAP2 SWAP1 POP JUMP JUMPDEST PUSH2 0x513 DUP2 PUSH2 0x501 JUMP JUMPDEST DUP3 MSTORE POP POP JUMP JUMPDEST PUSH2 0x522 DUP2 PUSH2 0x30A JUMP JUMPDEST DUP3 MSTORE POP POP JUMP JUMPDEST PUSH0 PUSH20 0xFFFFFFFFFFFFFFFFFFFFFFFFFFFFFFFFFFFFFFFF DUP3 AND SWAP1 POP SWAP2 SWAP1 POP JUMP JUMPDEST PUSH0 PUSH2 0x551 DUP3 PUSH2 0x528 JUMP JUMPDEST SWAP1 POP SWAP2 SWAP1 POP JUMP JUMPDEST PUSH2 0x561 DUP2 PUSH2 0x547 JUMP JUMPDEST DUP3 MSTORE POP POP JUMP JUMPDEST PUSH0 PUSH1 0xA0 DUP3 ADD SWAP1 POP PUSH2 0x57A PUSH0 DUP4 ADD DUP9 PUSH2 0x50A JUMP JUMPDEST PUSH2 0x587 PUSH1 0x20 DUP4 ADD DUP8 PUSH2 0x50A JUMP JUMPDEST PUSH2 0x594 PUSH1 0x40 DUP4 ADD DUP7 PUSH2 0x50A JUMP JUMPDEST PUSH2 0x5A1 PUSH1 0x60 DUP4 ADD DUP6 PUSH2 0x519 JUMP JUMPDEST PUSH2 0x5AE PUSH1 0x80 DUP4 ADD DUP5 PUSH2 0x558 JUMP JUMPDEST SWAP7 SWAP6 POP POP POP POP POP POP JUMP JUMPDEST PUSH1 0x80 MLOAD PUSH1 0xA0 MLOAD PUSH1 0xC0 MLOAD PUSH1 0xE0 MLOAD PUSH2 0x100 MLOAD PUSH2 0x120 MLOAD PUSH2 0x20AF PUSH2 0x5FF PUSH0 CODECOPY PUSH0 PUSH2 0xD79 ADD MSTORE PUSH0 PUSH2 0xDBB ADD MSTORE PUSH0 PUSH2 0xD9A ADD MSTORE PUSH0 PUSH2 0xCCF ADD MSTORE PUSH0 PUSH2 0xD25 ADD MSTORE PUSH0 PUSH2 0xD4E ADD MSTORE PUSH2 0x20AF PUSH0 RETURN INVALID PUSH1 0x80 PUSH1 0x40 MSTORE CALLVALUE DUP1 ISZERO PUSH2 0xF JUMPI PUSH0 DUP1 REVERT JUMPDEST POP PUSH1 0x4 CALLDATASIZE LT PUSH2 0xF3 JUMPI PUSH0 CALLDATALOAD PUSH1 0xE0 SHR DUP1 PUSH4 0x40C10F19 GT PUSH2 0x95 JUMPI DUP1 PUSH4 0xA457C2D7 GT PUSH2 0x64 JUMPI DUP1 PUSH4 0xA457C2D7 EQ PUSH2 0x299 JUMPI DUP1 PUSH4 0xA9059CBB EQ PUSH2 0x2C9 JUMPI DUP1 PUSH4 0xD505ACCF EQ PUSH2 0x2F9 JUMPI DUP1 PUSH4 0xDD62ED3E EQ PUSH2 0x315 JUMPI PUSH2 0xF3 JUMP JUMPDEST DUP1 PUSH4 0x40C10F19 EQ PUSH2 0x1FF JUMPI DUP1 PUSH4 0x70A08231 EQ PUSH2 0x21B JUMPI DUP1 PUSH4 0x7ECEBE00 EQ PUSH2 0x24B JUMPI DUP1 PUSH4 0x95D89B41 EQ PUSH2 0x27B JUMPI PUSH2 0xF3 JUMP JUMPDEST DUP1 PUSH4 0x23B872DD GT PUSH2 0xD1 JUMPI DUP1 PUSH4 0x23B872DD EQ PUSH2 0x163 JUMPI DUP1 PUSH4 0x313CE567 EQ PUSH2 0x193 JUMPI DUP1 PUSH4 0x3644E515 EQ PUSH2 0x1B1 JUMPI DUP1 PUSH4 0x39509351 EQ PUSH2 0x1CF JUMPI PUSH2 0xF3 JUMP JUMPDEST DUP1 PUSH4 0x6FDDE03 EQ PUSH2 0xF7 JUMPI DUP1 PUSH4 0x95EA7B3 EQ PUSH2 0x115 JUMPI DUP1 PUSH4 0x18160DDD EQ PUSH2 0x145 JUMPI JUMPDEST PUSH0 DUP1 REVERT JUMPDEST PUSH2 0xFF PUSH2 0x345 JUMP JUMPDEST PUSH1 0x40 MLOAD PUSH2 0x10C SWAP2 SWAP1 PUSH2 0x13AA JUMP JUMPDEST PUSH1 0x40 MLOAD DUP1 SWAP2 SUB SWAP1 RETURN JUMPDEST PUSH2 0x12F PUSH1 0x4 DUP1 CALLDATASIZE SUB DUP2 ADD SWAP1 PUSH2 0x12A SWAP2 SWAP1 PUSH2 0x145B JUMP JUMPDEST PUSH2 0x3D5 JUMP JUMPDEST PUSH1 0x40 MLOAD PUSH2 0x13C SWAP2 SWAP1 PUSH2 0x14B3 JUMP JUMPDEST PUSH1 0x40 MLOAD DUP1 SWAP2 SUB SWAP1 RETURN JUMPDEST PUSH2 0x14D PUSH2 0x3F7 JUMP JUMPDEST PUSH1 0x40 MLOAD PUSH2 0x15A SWAP2 SWAP1 PUSH2 0x14DB JUMP JUMPDEST PUSH1 0x40 MLOAD DUP1 SWAP2 SUB SWAP1 RETURN JUMPDEST PUSH2 0x17D PUSH1 0x4 DUP1 CALLDATASIZE SUB DUP2 ADD SWAP1 PUSH2 0x178 SWAP2 SWAP1 PUSH2 0x14F4 JUMP JUMPDEST PUSH2 0x400 JUMP JUMPDEST PUSH1 0x40 MLOAD PUSH2 0x18A SWAP2 SWAP1 PUSH2 0x14B3 JUMP JUMPDEST PUSH1 0x40 MLOAD DUP1 SWAP2 SUB SWAP1 RETURN JUMPDEST PUSH2 0x19B PUSH2 0x42E JUMP JUMPDEST PUSH1 0x40 MLOAD PUSH2 0x1A8 SWAP2 SWAP1 PUSH2 0x155F JUMP JUMPDEST PUSH1 0x40 MLOAD DUP1 SWAP2 SUB SWAP1 RETURN JUMPDEST PUSH2 0x1B9 PUSH2 0x436 JUMP JUMPDEST PUSH1 0x40 MLOAD PUSH2 0x1C6 SWAP2 SWAP1 PUSH2 0x1590 JUMP JUMPDEST PUSH1 0x40 MLOAD DUP1 SWAP2 SUB SWAP1 RETURN JUMPDEST PUSH2 0x1E9 PUSH1 0x4 DUP1 CALLDATASIZE SUB DUP2 ADD SWAP1 PUSH2 0x1E4 SWAP2 SWAP1 PUSH2 0x145B JUMP JUMPDEST PUSH2 0x444 JUMP JUMPDEST PUSH1 0x40 MLOAD PUSH2 0x1F6 SWAP2 SWAP1 PUSH2 0x14B3 JUMP JUMPDEST PUSH1 0x40 MLOAD DUP1 SWAP2 SUB SWAP1 RETURN JUMPDEST PUSH2 0x219 PUSH1 0x4 DUP1 CALLDATASIZE SUB DUP2 ADD SWAP1 PUSH2 0x214 SWAP2 SWAP1 PUSH2 0x145B JUMP JUMPDEST PUSH2 0x47A JUMP JUMPDEST STOP JUMPDEST PUSH2 0x235 PUSH1 0x4 DUP1 CALLDATASIZE SUB DUP2 ADD SWAP1 PUSH2 0x230 SWAP2 SWAP1 PUSH2 0x15A9 JUMP JUMPDEST PUSH2 0x488 JUMP JUMPDEST PUSH1 0x40 MLOAD PUSH2 0x242 SWAP2 SWAP1 PUSH2 0x14DB JUMP JUMPDEST PUSH1 0x40 MLOAD DUP1 SWAP2 SUB SWAP1 RETURN JUMPDEST PUSH2 0x265 PUSH1 0x4 DUP1 CALLDATASIZE SUB DUP2 ADD SWAP1 PUSH2 0x260 SWAP2 SWAP1 PUSH2 0x15A9 JUMP JUMPDEST PUSH2 0x4CD JUMP JUMPDEST PUSH1 0x40 MLOAD PUSH2 0x272 SWAP2 SWAP1 PUSH2 0x14DB JUMP JUMPDEST PUSH1 0x40 MLOAD DUP1 SWAP2 SUB SWAP1 RETURN JUMPDEST PUSH2 0x283 PUSH2 0x51A JUMP JUMPDEST PUSH1 0x40 MLOAD PUSH2 0x290 SWAP2 SWAP1 PUSH2 0x13AA JUMP JUMPDEST PUSH1 0x40 MLOAD DUP1 SWAP2 SUB SWAP1 RETURN JUMPDEST PUSH2 0x2B3 PUSH1 0x4 DUP1 CALLDATASIZE SUB DUP2 ADD SWAP1 PUSH2 0x2AE SWAP2 SWAP1 PUSH2 0x145B JUMP JUMPDEST PUSH2 0x5AA JUMP JUMPDEST PUSH1 0x40 MLOAD PUSH2 0x2C0 SWAP2 SWAP1 PUSH2 0x14B3 JUMP JUMPDEST PUSH1 0x40 MLOAD DUP1 SWAP2 SUB SWAP1 RETURN JUMPDEST PUSH2 0x2E3 PUSH1 0x4 DUP1 CALLDATASIZE SUB DUP2 ADD SWAP1 PUSH2 0x2DE SWAP2 SWAP1 PUSH2 0x145B JUMP JUMPDEST PUSH2 0x61F JUMP JUMPDEST PUSH1 0x40 MLOAD PUSH2 0x2F0 SWAP2 SWAP1 PUSH2 0x14B3 JUMP JUMPDEST PUSH1 0x40 MLOAD DUP1 SWAP2 SUB SWAP1 RETURN JUMPDEST PUSH2 0x313 PUSH1 0x4 DUP1 CALLDATASIZE SUB DUP2 ADD SWAP1 PUSH2 0x30E SWAP2 SWAP1 PUSH2 0x1628 JUMP JUMPDEST PUSH2 0x641 JUMP JUMPDEST STOP JUMPDEST PUSH2 0x32F PUSH1 0x4 DUP1 CALLDATASIZE SUB DUP2 ADD SWAP1 PUSH2 0x32A SWAP2 SWAP1 PUSH2 0x16C5 JUMP JUMPDEST PUSH2 0x780 JUMP JUMPDEST PUSH1 0x40 MLOAD PUSH2 0x33C SWAP2 SWAP1 PUSH2 0x14DB JUMP JUMPDEST PUSH1 0x40 MLOAD DUP1 SWAP2 SUB SWAP1 RETURN JUMPDEST PUSH1 0x60 PUSH1 0x3 DUP1 SLOAD PUSH2 0x354 SWAP1 PUSH2 0x1730 JUMP JUMPDEST DUP1 PUSH1 0x1F ADD PUSH1 0x20 DUP1 SWAP2 DIV MUL PUSH1 0x20 ADD PUSH1 0x40 MLOAD SWAP1 DUP2 ADD PUSH1 0x40 MSTORE DUP1 SWAP3 SWAP2 SWAP1 DUP2 DUP2 MSTORE PUSH1 0x20 ADD DUP3 DUP1 SLOAD PUSH2 0x380 SWAP1 PUSH2 0x1730 JUMP JUMPDEST DUP1 ISZERO PUSH2 0x3CB JUMPI DUP1 PUSH1 0x1F LT PUSH2 0x3A2 JUMPI PUSH2 0x100 DUP1 DUP4 SLOAD DIV MUL DUP4 MSTORE SWAP2 PUSH1 0x20 ADD SWAP2 PUSH2 0x3CB JUMP JUMPDEST DUP3 ADD SWAP2 SWAP1 PUSH0 MSTORE PUSH1 0x20 PUSH0 KECCAK256 SWAP1 JUMPDEST DUP2 SLOAD DUP2 MSTORE SWAP1 PUSH1 0x1 ADD SWAP1 PUSH1 0x20 ADD DUP1 DUP4 GT PUSH2 0x3AE JUMPI DUP3 SWAP1 SUB PUSH1 0x1F AND DUP3 ADD SWAP2 JUMPDEST POP POP POP POP POP SWAP1 POP SWAP1 JUMP JUMPDEST PUSH0 DUP1 PUSH2 0x3DF PUSH2 0x802 JUMP JUMPDEST SWAP1 POP PUSH2 0x3EC DUP2 DUP6 DUP6 PUSH2 0x809 JUMP JUMPDEST PUSH1 0x1 SWAP2 POP POP SWAP3 SWAP2 POP POP JUMP JUMPDEST PUSH0 PUSH1 0x2 SLOAD SWAP1 POP SWAP1 JUMP JUMPDEST PUSH0 DUP1 PUSH2 0x40A PUSH2 0x802 JUMP JUMPDEST SWAP1 POP PUSH2 0x417 DUP6 DUP3 DUP6 PUSH2 0x9CC JUMP JUMPDEST PUSH2 0x422 DUP6 DUP6 DUP6 PUSH2 0xA57 JUMP JUMPDEST PUSH1 0x1 SWAP2 POP POP SWAP4 SWAP3 POP POP POP JUMP JUMPDEST PUSH0 PUSH1 0x12 SWAP1 POP SWAP1 JUMP JUMPDEST PUSH0 PUSH2 0x43F PUSH2 0xCCC JUMP JUMPDEST SWAP1 POP SWAP1 JUMP JUMPDEST PUSH0 DUP1 PUSH2 0x44E PUSH2 0x802 JUMP JUMPDEST SWAP1 POP PUSH2 0x46F DUP2 DUP6 DUP6 PUSH2 0x460 DUP6 DUP10 PUSH2 0x780 JUMP JUMPDEST PUSH2 0x46A SWAP2 SWAP1 PUSH2 0x178D JUMP JUMPDEST PUSH2 0x809 JUMP JUMPDEST PUSH1 0x1 SWAP2 POP POP SWAP3 SWAP2 POP POP JUMP JUMPDEST PUSH2 0x484 DUP3 DUP3 PUSH2 0xDE5 JUMP JUMPDEST POP POP JUMP JUMPDEST PUSH0 DUP1 PUSH0 DUP4 PUSH20 0xFFFFFFFFFFFFFFFFFFFFFFFFFFFFFFFFFFFFFFFF AND PUSH20 0xFFFFFFFFFFFFFFFFFFFFFFFFFFFFFFFFFFFFFFFF AND DUP2 MSTORE PUSH1 0x20 ADD SWAP1 DUP2 MSTORE PUSH1 0x20 ADD PUSH0 KECCAK256 SLOAD SWAP1 POP SWAP2 SWAP1 POP JUMP JUMPDEST PUSH0 PUSH2 0x513 PUSH1 0x5 PUSH0 DUP5 PUSH20 0xFFFFFFFFFFFFFFFFFFFFFFFFFFFFFFFFFFFFFFFF AND PUSH20 0xFFFFFFFFFFFFFFFFFFFFFFFFFFFFFFFFFFFFFFFF AND DUP2 MSTORE PUSH1 0x20 ADD SWAP1 DUP2 MSTORE PUSH1 0x20 ADD PUSH0 KECCAK256 PUSH2 0xF3C JUMP JUMPDEST SWAP1 POP SWAP2 SWAP1 POP JUMP JUMPDEST PUSH1 0x60 PUSH1 0x4 DUP1 SLOAD PUSH2 0x529 SWAP1 PUSH2 0x1730 JUMP JUMPDEST DUP1 PUSH1 0x1F ADD PUSH1 0x20 DUP1 SWAP2 DIV MUL PUSH1 0x20 ADD PUSH1 0x40 MLOAD SWAP1 DUP2 ADD PUSH1 0x40 MSTORE DUP1 SWAP3 SWAP2 SWAP1 DUP2 DUP2 MSTORE PUSH1 0x20 ADD DUP3 DUP1 SLOAD PUSH2 0x555 SWAP1 PUSH2 0x1730 JUMP JUMPDEST DUP1 ISZERO PUSH2 0x5A0 JUMPI DUP1 PUSH1 0x1F LT PUSH2 0x577 JUMPI PUSH2 0x100 DUP1 DUP4 SLOAD DIV MUL DUP4 MSTORE SWAP2 PUSH1 0x20 ADD SWAP2 PUSH2 0x5A0 JUMP JUMPDEST DUP3 ADD SWAP2 SWAP1 PUSH0 MSTORE PUSH1 0x20 PUSH0 KECCAK256 SWAP1 JUMPDEST DUP2 SLOAD DUP2 MSTORE SWAP1 PUSH1 0x1 ADD SWAP1 PUSH1 0x20 ADD DUP1 DUP4 GT PUSH2 0x583 JUMPI DUP3 SWAP1 SUB PUSH1 0x1F AND DUP3 ADD SWAP2 JUMPDEST POP POP POP POP POP SWAP1 POP SWAP1 JUMP JUMPDEST PUSH0 DUP1 PUSH2 0x5B4 PUSH2 0x802 JUMP JUMPDEST SWAP1 POP PUSH0 PUSH2 0x5C1 DUP3 DUP7 PUSH2 0x780 JUMP JUMPDEST SWAP1 POP DUP4 DUP2 LT ISZERO PUSH2 0x606 JUMPI PUSH1 0x40 MLOAD PUSH32 0x8C379A000000000000000000000000000000000000000000000000000000000 DUP2 MSTORE PUSH1 0x4 ADD PUSH2 0x5FD SWAP1 PUSH2 0x1830 JUMP JUMPDEST PUSH1 0x40 MLOAD DUP1 SWAP2 SUB SWAP1 REVERT JUMPDEST PUSH2 0x613 DUP3 DUP7 DUP7 DUP5 SUB PUSH2 0x809 JUMP JUMPDEST PUSH1 0x1 SWAP3 POP POP POP SWAP3 SWAP2 POP POP JUMP JUMPDEST PUSH0 DUP1 PUSH2 0x629 PUSH2 0x802 JUMP JUMPDEST SWAP1 POP PUSH2 0x636 DUP2 DUP6 DUP6 PUSH2 0xA57 JUMP JUMPDEST PUSH1 0x1 SWAP2 POP POP SWAP3 SWAP2 POP POP JUMP JUMPDEST DUP4 TIMESTAMP GT ISZERO PUSH2 0x684 JUMPI PUSH1 0x40 MLOAD PUSH32 0x8C379A000000000000000000000000000000000000000000000000000000000 DUP2 MSTORE PUSH1 0x4 ADD PUSH2 0x67B SWAP1 PUSH2 0x1898 JUMP JUMPDEST PUSH1 0x40 MLOAD DUP1 SWAP2 SUB SWAP1 REVERT JUMPDEST PUSH0 PUSH32 0x6E71EDAE12B1B97F4D1F60370FEF10105FA2FAAE0126114A169C64845D6126C9 DUP9 DUP9 DUP9 PUSH2 0x6B2 DUP13 PUSH2 0xF48 JUMP JUMPDEST DUP10 PUSH1 0x40 MLOAD PUSH1 0x20 ADD PUSH2 0x6C8 SWAP7 SWAP6 SWAP5 SWAP4 SWAP3 SWAP2 SWAP1 PUSH2 0x18C5 JUMP JUMPDEST PUSH1 0x40 MLOAD PUSH1 0x20 DUP2 DUP4 SUB SUB DUP2 MSTORE SWAP1 PUSH1 0x40 MSTORE DUP1 MLOAD SWAP1 PUSH1 0x20 ADD KECCAK256 SWAP1 POP PUSH0 PUSH2 0x6EA DUP3 PUSH2 0xFA3 JUMP JUMPDEST SWAP1 POP PUSH0 PUSH2 0x6F9 DUP3 DUP8 DUP8 DUP8 PUSH2 0xFBC JUMP JUMPDEST SWAP1 POP DUP10 PUSH20 0xFFFFFFFFFFFFFFFFFFFFFFFFFFFFFFFFFFFFFFFF AND DUP2 PUSH20 0xFFFFFFFFFFFFFFFFFFFFFFFFFFFFFFFFFFFFFFFF AND EQ PUSH2 0x769 JUMPI PUSH1 0x40 MLOAD PUSH32 0x8C379A000000000000000000000000000000000000000000000000000000000 DUP2 MSTORE PUSH1 0x4 ADD PUSH2 0x760 SWAP1 PUSH2 0x196E JUMP JUMPDEST PUSH1 0x40 MLOAD DUP1 SWAP2 SUB SWAP1 REVERT JUMPDEST PUSH2 0x774 DUP11 DUP11 DUP11 PUSH2 0x809 JUMP JUMPDEST POP POP POP POP POP POP POP POP POP POP JUMP JUMPDEST PUSH0 PUSH1 0x1 PUSH0 DUP5 PUSH20 0xFFFFFFFFFFFFFFFFFFFFFFFFFFFFFFFFFFFFFFFF AND PUSH20 0xFFFFFFFFFFFFFFFFFFFFFFFFFFFFFFFFFFFFFFFF AND DUP2 MSTORE PUSH1 0x20 ADD SWAP1 DUP2 MSTORE PUSH1 0x20 ADD PUSH0 KECCAK256 PUSH0 DUP4 PUSH20 0xFFFFFFFFFFFFFFFFFFFFFFFFFFFFFFFFFFFFFFFF AND PUSH20 0xFFFFFFFFFFFFFFFFFFFFFFFFFFFFFFFFFFFFFFFF AND DUP2 MSTORE PUSH1 0x20 ADD SWAP1 DUP2 MSTORE PUSH1 0x20 ADD PUSH0 KECCAK256 SLOAD SWAP1 POP SWAP3 SWAP2 POP POP JUMP JUMPDEST PUSH0 CALLER SWAP1 POP SWAP1 JUMP JUMPDEST PUSH0 PUSH20 0xFFFFFFFFFFFFFFFFFFFFFFFFFFFFFFFFFFFFFFFF AND DUP4 PUSH20 0xFFFFFFFFFFFFFFFFFFFFFFFFFFFFFFFFFFFFFFFF AND SUB PUSH2 0x877 JUMPI PUSH1 0x40 MLOAD PUSH32 0x8C379A000000000000000000000000000000000000000000000000000000000 DUP2 MSTORE PUSH1 0x4 ADD PUSH2 0x86E SWAP1 PUSH2 0x19FC JUMP JUMPDEST PUSH1 0x40 MLOAD DUP1 SWAP2 SUB SWAP1 REVERT JUMPDEST PUSH0 PUSH20 0xFFFFFFFFFFFFFFFFFFFFFFFFFFFFFFFFFFFFFFFF AND DUP3 PUSH20 0xFFFFFFFFFFFFFFFFFFFFFFFFFFFFFFFFFFFFFFFF AND SUB PUSH2 0x8E5 JUMPI PUSH1 0x40 MLOAD PUSH32 0x8C379A000000000000000000000000000000000000000000000000000000000 DUP2 MSTORE PUSH1 0x4 ADD PUSH2 0x8DC SWAP1 PUSH2 0x1A8A JUMP JUMPDEST PUSH1 0x40 MLOAD DUP1 SWAP2 SUB SWAP1 REVERT JUMPDEST DUP1 PUSH1 0x1 PUSH0 DUP6 PUSH20 0xFFFFFFFFFFFFFFFFFFFFFFFFFFFFFFFFFFFFFFFF AND PUSH20 0xFFFFFFFFFFFFFFFFFFFFFFFFFFFFFFFFFFFFFFFF AND DUP2 MSTORE PUSH1 0x20 ADD SWAP1 DUP2 MSTORE PUSH1 0x20 ADD PUSH0 KECCAK256 PUSH0 DUP5 PUSH20 0xFFFFFFFFFFFFFFFFFFFFFFFFFFFFFFFFFFFFFFFF AND PUSH20 0xFFFFFFFFFFFFFFFFFFFFFFFFFFFFFFFFFFFFFFFF AND DUP2 MSTORE PUSH1 0x20 ADD SWAP1 DUP2 MSTORE PUSH1 0x20 ADD PUSH0 KECCAK256 DUP2 SWAP1 SSTORE POP DUP2 PUSH20 0xFFFFFFFFFFFFFFFFFFFFFFFFFFFFFFFFFFFFFFFF AND DUP4 PUSH20 0xFFFFFFFFFFFFFFFFFFFFFFFFFFFFFFFFFFFFFFFF AND PUSH32 0x8C5BE1E5EBEC7D5BD14F71427D1E84F3DD0314C0F7B2291E5B200AC8C7C3B925 DUP4 PUSH1 0x40 MLOAD PUSH2 0x9BF SWAP2 SWAP1 PUSH2 0x14DB JUMP JUMPDEST PUSH1 0x40 MLOAD DUP1 SWAP2 SUB SWAP1 LOG3 POP POP POP JUMP JUMPDEST PUSH0 PUSH2 0x9D7 DUP5 DUP5 PUSH2 0x780 JUMP JUMPDEST SWAP1 POP PUSH32 0xFFFFFFFFFFFFFFFFFFFFFFFFFFFFFFFFFFFFFFFFFFFFFFFFFFFFFFFFFFFFFFFF DUP2 EQ PUSH2 0xA51 JUMPI DUP2 DUP2 LT ISZERO PUSH2 0xA43 JUMPI PUSH1 0x40 MLOAD PUSH32 0x8C379A000000000000000000000000000000000000000000000000000000000 DUP2 MSTORE PUSH1 0x4 ADD PUSH2 0xA3A SWAP1 PUSH2 0x1AF2 JUMP JUMPDEST PUSH1 0x40 MLOAD DUP1 SWAP2 SUB SWAP1 REVERT JUMPDEST PUSH2 0xA50 DUP5 DUP5 DUP5 DUP5 SUB PUSH2 0x809 JUMP JUMPDEST JUMPDEST POP POP POP POP JUMP JUMPDEST PUSH0 PUSH20 0xFFFFFFFFFFFFFFFFFFFFFFFFFFFFFFFFFFFFFFFF AND DUP4 PUSH20 0xFFFFFFFFFFFFFFFFFFFFFFFFFFFFFFFFFFFFFFFF AND SUB PUSH2 0xAC5 JUMPI PUSH1 0x40 MLOAD PUSH32 0x8C379A000000000000000000000000000000000000000000000000000000000 DUP2 MSTORE PUSH1 0x4 ADD PUSH2 0xABC SWAP1 PUSH2 0x1B80 JUMP JUMPDEST PUSH1 0x40 MLOAD DUP1 SWAP2 SUB SWAP1 REVERT JUMPDEST PUSH0 PUSH20 0xFFFFFFFFFFFFFFFFFFFFFFFFFFFFFFFFFFFFFFFF AND DUP3 PUSH20 0xFFFFFFFFFFFFFFFFFFFFFFFFFFFFFFFFFFFFFFFF AND SUB PUSH2 0xB33 JUMPI PUSH1 0x40 MLOAD PUSH32 0x8C379A000000000000000000000000000000000000000000000000000000000 DUP2 MSTORE PUSH1 0x4 ADD PUSH2 0xB2A SWAP1 PUSH2 0x1C0E JUMP JUMPDEST PUSH1 0x40 MLOAD DUP1 SWAP2 SUB SWAP1 REVERT JUMPDEST PUSH2 0xB3E DUP4 DUP4 DUP4 PUSH2 0xFE5 JUMP JUMPDEST PUSH0 DUP1 PUSH0 DUP6 PUSH20 0xFFFFFFFFFFFFFFFFFFFFFFFFFFFFFFFFFFFFFFFF AND PUSH20 0xFFFFFFFFFFFFFFFFFFFFFFFFFFFFFFFFFFFFFFFF AND DUP2 MSTORE PUSH1 0x20 ADD SWAP1 DUP2 MSTORE PUSH1 0x20 ADD PUSH0 KECCAK256 SLOAD SWAP1 POP DUP2 DUP2 LT ISZERO PUSH2 0xBC1 JUMPI PUSH1 0x40 MLOAD PUSH32 0x8C379A000000000000000000000000000000000000000000000000000000000 DUP2 MSTORE PUSH1 0x4 ADD PUSH2 0xBB8 SWAP1 PUSH2 0x1C9C JUMP JUMPDEST PUSH1 0x40 MLOAD DUP1 SWAP2 SUB SWAP1 REVERT JUMPDEST DUP2 DUP2 SUB PUSH0 DUP1 DUP7 PUSH20 0xFFFFFFFFFFFFFFFFFFFFFFFFFFFFFFFFFFFFFFFF AND PUSH20 0xFFFFFFFFFFFFFFFFFFFFFFFFFFFFFFFFFFFFFFFF AND DUP2 MSTORE PUSH1 0x20 ADD SWAP1 DUP2 MSTORE PUSH1 0x20 ADD PUSH0 KECCAK256 DUP2 SWAP1 SSTORE POP DUP2 PUSH0 DUP1 DUP6 PUSH20 0xFFFFFFFFFFFFFFFFFFFFFFFFFFFFFFFFFFFFFFFF AND PUSH20 0xFFFFFFFFFFFFFFFFFFFFFFFFFFFFFFFFFFFFFFFF AND DUP2 MSTORE PUSH1 0x20 ADD SWAP1 DUP2 MSTORE PUSH1 0x20 ADD PUSH0 KECCAK256 PUSH0 DUP3 DUP3 SLOAD PUSH2 0xC4F SWAP2 SWAP1 PUSH2 0x178D JUMP JUMPDEST SWAP3 POP POP DUP2 SWAP1 SSTORE POP DUP3 PUSH20 0xFFFFFFFFFFFFFFFFFFFFFFFFFFFFFFFFFFFFFFFF AND DUP5 PUSH20 0xFFFFFFFFFFFFFFFFFFFFFFFFFFFFFFFFFFFFFFFF AND PUSH32 0xDDF252AD1BE2C89B69C2B068FC378DAA952BA7F163C4A11628F55A4DF523B3EF DUP5 PUSH1 0x40 MLOAD PUSH2 0xCB3 SWAP2 SWAP1 PUSH2 0x14DB JUMP JUMPDEST PUSH1 0x40 MLOAD DUP1 SWAP2 SUB SWAP1 LOG3 PUSH2 0xCC6 DUP5 DUP5 DUP5 PUSH2 0xFEA JUMP JUMPDEST POP POP POP POP JUMP JUMPDEST PUSH0 PUSH32 0x0 PUSH20 0xFFFFFFFFFFFFFFFFFFFFFFFFFFFFFFFFFFFFFFFF AND ADDRESS PUSH20 0xFFFFFFFFFFFFFFFFFFFFFFFFFFFFFFFFFFFFFFFF AND EQ DUP1 ISZERO PUSH2 0xD47 JUMPI POP PUSH32 0x0 CHAINID EQ JUMPDEST ISZERO PUSH2 0xD74 JUMPI PUSH32 0x0 SWAP1 POP PUSH2 0xDE2 JUMP JUMPDEST PUSH2 0xDDF PUSH32 0x0 PUSH32 0x0 PUSH32 0x0 PUSH2 0xFEF JUMP JUMPDEST SWAP1 POP JUMPDEST SWAP1 JUMP JUMPDEST PUSH0 PUSH20 0xFFFFFFFFFFFFFFFFFFFFFFFFFFFFFFFFFFFFFFFF AND DUP3 PUSH20 0xFFFFFFFFFFFFFFFFFFFFFFFFFFFFFFFFFFFFFFFF AND SUB PUSH2 0xE53 JUMPI PUSH1 0x40 MLOAD PUSH32 0x8C379A000000000000000000000000000000000000000000000000000000000 DUP2 MSTORE PUSH1 0x4 ADD PUSH2 0xE4A SWAP1 PUSH2 0x1D04 JUMP JUMPDEST PUSH1 0x40 MLOAD DUP1 SWAP2 SUB SWAP1 REVERT JUMPDEST PUSH2 0xE5E PUSH0 DUP4 DUP4 PUSH2 0xFE5 JUMP JUMPDEST DUP1 PUSH1 0x2 PUSH0 DUP3 DUP3 SLOAD PUSH2 0xE6F SWAP2 SWAP1 PUSH2 0x178D JUMP JUMPDEST SWAP3 POP POP DUP2 SWAP1 SSTORE POP DUP1 PUSH0 DUP1 DUP5 PUSH20 0xFFFFFFFFFFFFFFFFFFFFFFFFFFFFFFFFFFFFFFFF AND PUSH20 0xFFFFFFFFFFFFFFFFFFFFFFFFFFFFFFFFFFFFFFFF AND DUP2 MSTORE PUSH1 0x20 ADD SWAP1 DUP2 MSTORE PUSH1 0x20 ADD PUSH0 KECCAK256 PUSH0 DUP3 DUP3 SLOAD PUSH2 0xEC1 SWAP2 SWAP1 PUSH2 0x178D JUMP JUMPDEST SWAP3 POP POP DUP2 SWAP1 SSTORE POP DUP2 PUSH20 0xFFFFFFFFFFFFFFFFFFFFFFFFFFFFFFFFFFFFFFFF AND PUSH0 PUSH20 0xFFFFFFFFFFFFFFFFFFFFFFFFFFFFFFFFFFFFFFFF AND PUSH32 0xDDF252AD1BE2C89B69C2B068FC378DAA952BA7F163C4A11628F55A4DF523B3EF DUP4 PUSH1 0x40 MLOAD PUSH2 0xF25 SWAP2 SWAP1 PUSH2 0x14DB JUMP JUMPDEST PUSH1 0x40 MLOAD DUP1 SWAP2 SUB SWAP1 LOG3 PUSH2 0xF38 PUSH0 DUP4 DUP4 PUSH2 0xFEA JUMP JUMPDEST POP POP JUMP JUMPDEST PUSH0 DUP2 PUSH0 ADD SLOAD SWAP1 POP SWAP2 SWAP1 POP JUMP JUMPDEST PUSH0 DUP1 PUSH1 0x5 PUSH0 DUP5 PUSH20 0xFFFFFFFFFFFFFFFFFFFFFFFFFFFFFFFFFFFFFFFF AND PUSH20 0xFFFFFFFFFFFFFFFFFFFFFFFFFFFFFFFFFFFFFFFF AND DUP2 MSTORE PUSH1 0x20 ADD SWAP1 DUP2 MSTORE PUSH1 0x20 ADD PUSH0 KECCAK256 SWAP1 POP PUSH2 0xF92 DUP2 PUSH2 0xF3C JUMP JUMPDEST SWAP2 POP PUSH2 0xF9D DUP2 PUSH2 0x1028 JUMP JUMPDEST POP SWAP2 SWAP1 POP JUMP JUMPDEST PUSH0 PUSH2 0xFB5 PUSH2 0xFAF PUSH2 0xCCC JUMP JUMPDEST DUP4 PUSH2 0x103C JUMP JUMPDEST SWAP1 POP SWAP2 SWAP1 POP JUMP JUMPDEST PUSH0 DUP1 PUSH0 PUSH2 0xFCB DUP8 DUP8 DUP8 DUP8 PUSH2 0x106E JUMP JUMPDEST SWAP2 POP SWAP2 POP PUSH2 0xFD8 DUP2 PUSH2 0x116F JUMP JUMPDEST DUP2 SWAP3 POP POP POP SWAP5 SWAP4 POP POP POP POP JUMP JUMPDEST POP POP POP JUMP JUMPDEST POP POP POP JUMP JUMPDEST PUSH0 DUP4 DUP4 DUP4 CHAINID ADDRESS PUSH1 0x40 MLOAD PUSH1 0x20 ADD PUSH2 0x1009 SWAP6 SWAP5 SWAP4 SWAP3 SWAP2 SWAP1 PUSH2 0x1D22 JUMP JUMPDEST PUSH1 0x40 MLOAD PUSH1 0x20 DUP2 DUP4 SUB SUB DUP2 MSTORE SWAP1 PUSH1 0x40 MSTORE DUP1 MLOAD SWAP1 PUSH1 0x20 ADD KECCAK256 SWAP1 POP SWAP4 SWAP3 POP POP POP JUMP JUMPDEST PUSH1 0x1 DUP2 PUSH0 ADD PUSH0 DUP3 DUP3 SLOAD ADD SWAP3 POP POP DUP2 SWAP1 SSTORE POP POP JUMP JUMPDEST PUSH0 DUP3 DUP3 PUSH1 0x40 MLOAD PUSH1 0x20 ADD PUSH2 0x1050 SWAP3 SWAP2 SWAP1 PUSH2 0x1DE7 JUMP JUMPDEST PUSH1 0x40 MLOAD PUSH1 0x20 DUP2 DUP4 SUB SUB DUP2 MSTORE SWAP1 PUSH1 0x40 MSTORE DUP1 MLOAD SWAP1 PUSH1 0x20 ADD KECCAK256 SWAP1 POP SWAP3 SWAP2 POP POP JUMP JUMPDEST PUSH0 DUP1 PUSH32 0x7FFFFFFFFFFFFFFFFFFFFFFFFFFFFFFF5D576E7357A4501DDFE92F46681B20A0 DUP4 PUSH0 SHR GT ISZERO PUSH2 0x10A6 JUMPI PUSH0 PUSH1 0x3 SWAP2 POP SWAP2 POP PUSH2 0x1166 JUMP JUMPDEST PUSH1 0x1B DUP6 PUSH1 0xFF AND EQ ISZERO DUP1 ISZERO PUSH2 0x10BE JUMPI POP PUSH1 0x1C DUP6 PUSH1 0xFF AND EQ ISZERO JUMPDEST ISZERO PUSH2 0x10CF JUMPI PUSH0 PUSH1 0x4 SWAP2 POP SWAP2 POP PUSH2 0x1166 JUMP JUMPDEST PUSH0 PUSH1 0x1 DUP8 DUP8 DUP8 DUP8 PUSH1 0x40 MLOAD PUSH0 DUP2 MSTORE PUSH1 0x20 ADD PUSH1 0x40 MSTORE PUSH1 0x40 MLOAD PUSH2 0x10F2 SWAP5 SWAP4 SWAP3 SWAP2 SWAP1 PUSH2 0x1E1D JUMP JUMPDEST PUSH1 0x20 PUSH1 0x40 MLOAD PUSH1 0x20 DUP2 SUB SWAP1 DUP1 DUP5 SUB SWAP1 DUP6 GAS STATICCALL ISZERO DUP1 ISZERO PUSH2 0x1112 JUMPI RETURNDATASIZE PUSH0 DUP1 RETURNDATACOPY RETURNDATASIZE PUSH0 REVERT JUMPDEST POP POP POP PUSH1 0x20 PUSH1 0x40 MLOAD SUB MLOAD SWAP1 POP PUSH0 PUSH20 0xFFFFFFFFFFFFFFFFFFFFFFFFFFFFFFFFFFFFFFFF AND DUP2 PUSH20 0xFFFFFFFFFFFFFFFFFFFFFFFFFFFFFFFFFFFFFFFF AND SUB PUSH2 0x115E JUMPI PUSH0 PUSH1 0x1 SWAP3 POP SWAP3 POP POP PUSH2 0x1166 JUMP JUMPDEST DUP1 PUSH0 SWAP3 POP SWAP3 POP POP JUMPDEST SWAP5 POP SWAP5 SWAP3 POP POP POP JUMP JUMPDEST PUSH0 PUSH1 0x4 DUP2 GT ISZERO PUSH2 0x1182 JUMPI PUSH2 0x1181 PUSH2 0x1E60 JUMP JUMPDEST JUMPDEST DUP2 PUSH1 0x4 DUP2 GT ISZERO PUSH2 0x1195 JUMPI PUSH2 0x1194 PUSH2 0x1E60 JUMP JUMPDEST JUMPDEST SUB ISZERO PUSH2 0x1337 JUMPI PUSH1 0x1 PUSH1 0x4 DUP2 GT ISZERO PUSH2 0x11AF JUMPI PUSH2 0x11AE PUSH2 0x1E60 JUMP JUMPDEST JUMPDEST DUP2 PUSH1 0x4 DUP2 GT ISZERO PUSH2 0x11C2 JUMPI PUSH2 0x11C1 PUSH2 0x1E60 JUMP JUMPDEST JUMPDEST SUB PUSH2 0x1202 JUMPI PUSH1 0x40 MLOAD PUSH32 0x8C379A000000000000000000000000000000000000000000000000000000000 DUP2 MSTORE PUSH1 0x4 ADD PUSH2 0x11F9 SWAP1 PUSH2 0x1ED7 JUMP JUMPDEST PUSH1 0x40 MLOAD DUP1 SWAP2 SUB SWAP1 REVERT JUMPDEST PUSH1 0x2 PUSH1 0x4 DUP2 GT ISZERO PUSH2 0x1216 JUMPI PUSH2 0x1215 PUSH2 0x1E60 JUMP JUMPDEST JUMPDEST DUP2 PUSH1 0x4 DUP2 GT ISZERO PUSH2 0x1229 JUMPI PUSH2 0x1228 PUSH2 0x1E60 JUMP JUMPDEST JUMPDEST SUB PUSH2 0x1269 JUMPI PUSH1 0x40 MLOAD PUSH32 0x8C379A000000000000000000000000000000000000000000000000000000000 DUP2 MSTORE PUSH1 0x4 ADD PUSH2 0x1260 SWAP1 PUSH2 0x1F3F JUMP JUMPDEST PUSH1 0x40 MLOAD DUP1 SWAP2 SUB SWAP1 REVERT JUMPDEST PUSH1 0x3 PUSH1 0x4 DUP2 GT ISZERO PUSH2 0x127D JUMPI PUSH2 0x127C PUSH2 0x1E60 JUMP JUMPDEST JUMPDEST DUP2 PUSH1 0x4 DUP2 GT ISZERO PUSH2 0x1290 JUMPI PUSH2 0x128F PUSH2 0x1E60 JUMP JUMPDEST JUMPDEST SUB PUSH2 0x12D0 JUMPI PUSH1 0x40 MLOAD PUSH32 0x8C379A000000000000000000000000000000000000000000000000000000000 DUP2 MSTORE PUSH1 0x4 ADD PUSH2 0x12C7 SWAP1 PUSH2 0x1FCD JUMP JUMPDEST PUSH1 0x40 MLOAD DUP1 SWAP2 SUB SWAP1 REVERT JUMPDEST PUSH1 0x4 DUP1 DUP2 GT ISZERO PUSH2 0x12E3 JUMPI PUSH2 0x12E2 PUSH2 0x1E60 JUMP JUMPDEST JUMPDEST DUP2 PUSH1 0x4 DUP2 GT ISZERO PUSH2 0x12F6 JUMPI PUSH2 0x12F5 PUSH2 0x1E60 JUMP JUMPDEST JUMPDEST SUB PUSH2 0x1336 JUMPI PUSH1 0x40 MLOAD PUSH32 0x8C379A000000000000000000000000000000000000000000000000000000000 DUP2 MSTORE PUSH1 0x4 ADD PUSH2 0x132D SWAP1 PUSH2 0x205B JUMP JUMPDEST PUSH1 0x40 MLOAD DUP1 SWAP2 SUB SWAP1 REVERT JUMPDEST JUMPDEST POP JUMP JUMPDEST PUSH0 DUP2 MLOAD SWAP1 POP SWAP2 SWAP1 POP JUMP JUMPDEST PUSH0 DUP3 DUP3 MSTORE PUSH1 0x20 DUP3 ADD SWAP1 POP SWAP3 SWAP2 POP POP JUMP JUMPDEST DUP3 DUP2 DUP4 MCOPY PUSH0 DUP4 DUP4 ADD MSTORE POP POP POP JUMP JUMPDEST PUSH0 PUSH1 0x1F NOT PUSH1 0x1F DUP4 ADD AND SWAP1 POP SWAP2 SWAP1 POP JUMP JUMPDEST PUSH0 PUSH2 0x137C DUP3 PUSH2 0x133A JUMP JUMPDEST PUSH2 0x1386 DUP2 DUP6 PUSH2 0x1344 JUMP JUMPDEST SWAP4 POP PUSH2 0x1396 DUP2 DUP6 PUSH1 0x20 DUP7 ADD PUSH2 0x1354 JUMP JUMPDEST PUSH2 0x139F DUP2 PUSH2 0x1362 JUMP JUMPDEST DUP5 ADD SWAP2 POP POP SWAP3 SWAP2 POP POP JUMP JUMPDEST PUSH0 PUSH1 0x20 DUP3 ADD SWAP1 POP DUP2 DUP2 SUB PUSH0 DUP4 ADD MSTORE PUSH2 0x13C2 DUP2 DUP5 PUSH2 0x1372 JUMP JUMPDEST SWAP1 POP SWAP3 SWAP2 POP POP JUMP JUMPDEST PUSH0 DUP1 REVERT JUMPDEST PUSH0 PUSH20 0xFFFFFFFFFFFFFFFFFFFFFFFFFFFFFFFFFFFFFFFF DUP3 AND SWAP1 POP SWAP2 SWAP1 POP JUMP JUMPDEST PUSH0 PUSH2 0x13F7 DUP3 PUSH2 0x13CE JUMP JUMPDEST SWAP1 POP SWAP2 SWAP1 POP JUMP JUMPDEST PUSH2 0x1407 DUP2 PUSH2 0x13ED JUMP JUMPDEST DUP2 EQ PUSH2 0x1411 JUMPI PUSH0 DUP1 REVERT JUMPDEST POP JUMP JUMPDEST PUSH0 DUP2 CALLDATALOAD SWAP1 POP PUSH2 0x1422 DUP2 PUSH2 0x13FE JUMP JUMPDEST SWAP3 SWAP2 POP POP JUMP JUMPDEST PUSH0 DUP2 SWAP1 POP SWAP2 SWAP1 POP JUMP JUMPDEST PUSH2 0x143A DUP2 PUSH2 0x1428 JUMP JUMPDEST DUP2 EQ PUSH2 0x1444 JUMPI PUSH0 DUP1 REVERT JUMPDEST POP JUMP JUMPDEST PUSH0 DUP2 CALLDATALOAD SWAP1 POP PUSH2 0x1455 DUP2 PUSH2 0x1431 JUMP JUMPDEST SWAP3 SWAP2 POP POP JUMP JUMPDEST PUSH0 DUP1 PUSH1 0x40 DUP4 DUP6 SUB SLT ISZERO PUSH2 0x1471 JUMPI PUSH2 0x1470 PUSH2 0x13CA JUMP JUMPDEST JUMPDEST PUSH0 PUSH2 0x147E DUP6 DUP3 DUP7 ADD PUSH2 0x1414 JUMP JUMPDEST SWAP3 POP POP PUSH1 0x20 PUSH2 0x148F DUP6 DUP3 DUP7 ADD PUSH2 0x1447 JUMP JUMPDEST SWAP2 POP POP SWAP3 POP SWAP3 SWAP1 POP JUMP JUMPDEST PUSH0 DUP2 ISZERO ISZERO SWAP1 POP SWAP2 SWAP1 POP JUMP JUMPDEST PUSH2 0x14AD DUP2 PUSH2 0x1499 JUMP JUMPDEST DUP3 MSTORE POP POP JUMP JUMPDEST PUSH0 PUSH1 0x20 DUP3 ADD SWAP1 POP PUSH2 0x14C6 PUSH0 DUP4 ADD DUP5 PUSH2 0x14A4 JUMP JUMPDEST SWAP3 SWAP2 POP POP JUMP JUMPDEST PUSH2 0x14D5 DUP2 PUSH2 0x1428 JUMP JUMPDEST DUP3 MSTORE POP POP JUMP JUMPDEST PUSH0 PUSH1 0x20 DUP3 ADD SWAP1 POP PUSH2 0x14EE PUSH0 DUP4 ADD DUP5 PUSH2 0x14CC JUMP JUMPDEST SWAP3 SWAP2 POP POP JUMP JUMPDEST PUSH0 DUP1 PUSH0 PUSH1 0x60 DUP5 DUP7 SUB SLT ISZERO PUSH2 0x150B JUMPI PUSH2 0x150A PUSH2 0x13CA JUMP JUMPDEST JUMPDEST PUSH0 PUSH2 0x1518 DUP7 DUP3 DUP8 ADD PUSH2 0x1414 JUMP JUMPDEST SWAP4 POP POP PUSH1 0x20 PUSH2 0x1529 DUP7 DUP3 DUP8 ADD PUSH2 0x1414 JUMP JUMPDEST SWAP3 POP POP PUSH1 0x40 PUSH2 0x153A DUP7 DUP3 DUP8 ADD PUSH2 0x1447 JUMP JUMPDEST SWAP2 POP POP SWAP3 POP SWAP3 POP SWAP3 JUMP JUMPDEST PUSH0 PUSH1 0xFF DUP3 AND SWAP1 POP SWAP2 SWAP1 POP JUMP JUMPDEST PUSH2 0x1559 DUP2 PUSH2 0x1544 JUMP JUMPDEST DUP3 MSTORE POP POP JUMP JUMPDEST PUSH0 PUSH1 0x20 DUP3 ADD SWAP1 POP PUSH2 0x1572 PUSH0 DUP4 ADD DUP5 PUSH2 0x1550 JUMP JUMPDEST SWAP3 SWAP2 POP POP JUMP JUMPDEST PUSH0 DUP2 SWAP1 POP SWAP2 SWAP1 POP JUMP JUMPDEST PUSH2 0x158A DUP2 PUSH2 0x1578 JUMP JUMPDEST DUP3 MSTORE POP POP JUMP JUMPDEST PUSH0 PUSH1 0x20 DUP3 ADD SWAP1 POP PUSH2 0x15A3 PUSH0 DUP4 ADD DUP5 PUSH2 0x1581 JUMP JUMPDEST SWAP3 SWAP2 POP POP JUMP JUMPDEST PUSH0 PUSH1 0x20 DUP3 DUP5 SUB SLT ISZERO PUSH2 0x15BE JUMPI PUSH2 0x15BD PUSH2 0x13CA JUMP JUMPDEST JUMPDEST PUSH0 PUSH2 0x15CB DUP5 DUP3 DUP6 ADD PUSH2 0x1414 JUMP JUMPDEST SWAP2 POP POP SWAP3 SWAP2 POP POP JUMP JUMPDEST PUSH2 0x15DD DUP2 PUSH2 0x1544 JUMP JUMPDEST DUP2 EQ PUSH2 0x15E7 JUMPI PUSH0 DUP1 REVERT JUMPDEST POP JUMP JUMPDEST PUSH0 DUP2 CALLDATALOAD SWAP1 POP PUSH2 0x15F8 DUP2 PUSH2 0x15D4 JUMP JUMPDEST SWAP3 SWAP2 POP POP JUMP JUMPDEST PUSH2 0x1607 DUP2 PUSH2 0x1578 JUMP JUMPDEST DUP2 EQ PUSH2 0x1611 JUMPI PUSH0 DUP1 REVERT JUMPDEST POP JUMP JUMPDEST PUSH0 DUP2 CALLDATALOAD SWAP1 POP PUSH2 0x1622 DUP2 PUSH2 0x15FE JUMP JUMPDEST SWAP3 SWAP2 POP POP JUMP JUMPDEST PUSH0 DUP1 PUSH0 DUP1 PUSH0 DUP1 PUSH0 PUSH1 0xE0 DUP9 DUP11 SUB SLT ISZERO PUSH2 0x1643 JUMPI PUSH2 0x1642 PUSH2 0x13CA JUMP JUMPDEST JUMPDEST PUSH0 PUSH2 0x1650 DUP11 DUP3 DUP12 ADD PUSH2 0x1414 JUMP JUMPDEST SWAP8 POP POP PUSH1 0x20 PUSH2 0x1661 DUP11 DUP3 DUP12 ADD PUSH2 0x1414 JUMP JUMPDEST SWAP7 POP POP PUSH1 0x40 PUSH2 0x1672 DUP11 DUP3 DUP12 ADD PUSH2 0x1447 JUMP JUMPDEST SWAP6 POP POP PUSH1 0x60 PUSH2 0x1683 DUP11 DUP3 DUP12 ADD PUSH2 0x1447 JUMP JUMPDEST SWAP5 POP POP PUSH1 0x80 PUSH2 0x1694 DUP11 DUP3 DUP12 ADD PUSH2 0x15EA JUMP JUMPDEST SWAP4 POP POP PUSH1 0xA0 PUSH2 0x16A5 DUP11 DUP3 DUP12 ADD PUSH2 0x1614 JUMP JUMPDEST SWAP3 POP POP PUSH1 0xC0 PUSH2 0x16B6 DUP11 DUP3 DUP12 ADD PUSH2 0x1614 JUMP JUMPDEST SWAP2 POP POP SWAP3 SWAP6 SWAP9 SWAP2 SWAP5 SWAP8 POP SWAP3 SWAP6 POP JUMP JUMPDEST PUSH0 DUP1 PUSH1 0x40 DUP4 DUP6 SUB SLT ISZERO PUSH2 0x16DB JUMPI PUSH2 0x16DA PUSH2 0x13CA JUMP JUMPDEST JUMPDEST PUSH0 PUSH2 0x16E8 DUP6 DUP3 DUP7 ADD PUSH2 0x1414 JUMP JUMPDEST SWAP3 POP POP PUSH1 0x20 PUSH2 0x16F9 DUP6 DUP3 DUP7 ADD PUSH2 0x1414 JUMP JUMPDEST SWAP2 POP POP SWAP3 POP SWAP3 SWAP1 POP JUMP JUMPDEST PUSH32 0x4E487B7100000000000000000000000000000000000000000000000000000000 PUSH0 MSTORE PUSH1 0x22 PUSH1 0x4 MSTORE PUSH1 0x24 PUSH0 REVERT JUMPDEST PUSH0 PUSH1 0x2 DUP3 DIV SWAP1 POP PUSH1 0x1 DUP3 AND DUP1 PUSH2 0x1747 JUMPI PUSH1 0x7F DUP3 AND SWAP2 POP JUMPDEST PUSH1 0x20 DUP3 LT DUP2 SUB PUSH2 0x175A JUMPI PUSH2 0x1759 PUSH2 0x1703 JUMP JUMPDEST JUMPDEST POP SWAP2 SWAP1 POP JUMP JUMPDEST PUSH32 0x4E487B7100000000000000000000000000000000000000000000000000000000 PUSH0 MSTORE PUSH1 0x11 PUSH1 0x4 MSTORE PUSH1 0x24 PUSH0 REVERT JUMPDEST PUSH0 PUSH2 0x1797 DUP3 PUSH2 0x1428 JUMP JUMPDEST SWAP2 POP PUSH2 0x17A2 DUP4 PUSH2 0x1428 JUMP JUMPDEST SWAP3 POP DUP3 DUP3 ADD SWAP1 POP DUP1 DUP3 GT ISZERO PUSH2 0x17BA JUMPI PUSH2 0x17B9 PUSH2 0x1760 JUMP JUMPDEST JUMPDEST SWAP3 SWAP2 POP POP JUMP JUMPDEST PUSH32 0x45524332303A2064656372656173656420616C6C6F77616E63652062656C6F77 PUSH0 DUP3 ADD MSTORE PUSH32 0x207A65726F000000000000000000000000000000000000000000000000000000 PUSH1 0x20 DUP3 ADD MSTORE POP JUMP JUMPDEST PUSH0 PUSH2 0x181A PUSH1 0x25 DUP4 PUSH2 0x1344 JUMP JUMPDEST SWAP2 POP PUSH2 0x1825 DUP3 PUSH2 0x17C0 JUMP JUMPDEST PUSH1 0x40 DUP3 ADD SWAP1 POP SWAP2 SWAP1 POP JUMP JUMPDEST PUSH0 PUSH1 0x20 DUP3 ADD SWAP1 POP DUP2 DUP2 SUB PUSH0 DUP4 ADD MSTORE PUSH2 0x1847 DUP2 PUSH2 0x180E JUMP JUMPDEST SWAP1 POP SWAP2 SWAP1 POP JUMP JUMPDEST PUSH32 0x45524332305065726D69743A206578706972656420646561646C696E65000000 PUSH0 DUP3 ADD MSTORE POP JUMP JUMPDEST PUSH0 PUSH2 0x1882 PUSH1 0x1D DUP4 PUSH2 0x1344 JUMP JUMPDEST SWAP2 POP PUSH2 0x188D DUP3 PUSH2 0x184E JUMP JUMPDEST PUSH1 0x20 DUP3 ADD SWAP1 POP SWAP2 SWAP1 POP JUMP JUMPDEST PUSH0 PUSH1 0x20 DUP3 ADD SWAP1 POP DUP2 DUP2 SUB PUSH0 DUP4 ADD MSTORE PUSH2 0x18AF DUP2 PUSH2 0x1876 JUMP JUMPDEST SWAP1 POP SWAP2 SWAP1 POP JUMP JUMPDEST PUSH2 0x18BF DUP2 PUSH2 0x13ED JUMP JUMPDEST DUP3 MSTORE POP POP JUMP JUMPDEST PUSH0 PUSH1 0xC0 DUP3 ADD SWAP1 POP PUSH2 0x18D8 PUSH0 DUP4 ADD DUP10 PUSH2 0x1581 JUMP JUMPDEST PUSH2 0x18E5 PUSH1 0x20 DUP4 ADD DUP9 PUSH2 0x18B6 JUMP JUMPDEST PUSH2 0x18F2 PUSH1 0x40 DUP4 ADD DUP8 PUSH2 0x18B6 JUMP JUMPDEST PUSH2 0x18FF PUSH1 0x60 DUP4 ADD DUP7 PUSH2 0x14CC JUMP JUMPDEST PUSH2 0x190C PUSH1 0x80 DUP4 ADD DUP6 PUSH2 0x14CC JUMP JUMPDEST PUSH2 0x1919 PUSH1 0xA0 DUP4 ADD DUP5 PUSH2 0x14CC JUMP JUMPDEST SWAP8 SWAP7 POP POP POP POP POP POP POP JUMP JUMPDEST PUSH32 0x45524332305065726D69743A20696E76616C6964207369676E61747572650000 PUSH0 DUP3 ADD MSTORE POP JUMP JUMPDEST PUSH0 PUSH2 0x1958 PUSH1 0x1E DUP4 PUSH2 0x1344 JUMP JUMPDEST SWAP2 POP PUSH2 0x1963 DUP3 PUSH2 0x1924 JUMP JUMPDEST PUSH1 0x20 DUP3 ADD SWAP1 POP SWAP2 SWAP1 POP JUMP JUMPDEST PUSH0 PUSH1 0x20 DUP3 ADD SWAP1 POP DUP2 DUP2 SUB PUSH0 DUP4 ADD MSTORE PUSH2 0x1985 DUP2 PUSH2 0x194C JUMP JUMPDEST SWAP1 POP SWAP2 SWAP1 POP JUMP JUMPDEST PUSH32 0x45524332303A20617070726F76652066726F6D20746865207A65726F20616464 PUSH0 DUP3 ADD MSTORE PUSH32 0x7265737300000000000000000000000000000000000000000000000000000000 PUSH1 0x20 DUP3 ADD MSTORE POP JUMP JUMPDEST PUSH0 PUSH2 0x19E6 PUSH1 0x24 DUP4 PUSH2 0x1344 JUMP JUMPDEST SWAP2 POP PUSH2 0x19F1 DUP3 PUSH2 0x198C JUMP JUMPDEST PUSH1 0x40 DUP3 ADD SWAP1 POP SWAP2 SWAP1 POP JUMP JUMPDEST PUSH0 PUSH1 0x20 DUP3 ADD SWAP1 POP DUP2 DUP2 SUB PUSH0 DUP4 ADD MSTORE PUSH2 0x1A13 DUP2 PUSH2 0x19DA JUMP JUMPDEST SWAP1 POP SWAP2 SWAP1 POP JUMP JUMPDEST PUSH32 0x45524332303A20617070726F766520746F20746865207A65726F206164647265 PUSH0 DUP3 ADD MSTORE PUSH32 0x7373000000000000000000000000000000000000000000000000000000000000 PUSH1 0x20 DUP3 ADD MSTORE POP JUMP JUMPDEST PUSH0 PUSH2 0x1A74 PUSH1 0x22 DUP4 PUSH2 0x1344 JUMP JUMPDEST SWAP2 POP PUSH2 0x1A7F DUP3 PUSH2 0x1A1A JUMP JUMPDEST PUSH1 0x40 DUP3 ADD SWAP1 POP SWAP2 SWAP1 POP JUMP JUMPDEST PUSH0 PUSH1 0x20 DUP3 ADD SWAP1 POP DUP2 DUP2 SUB PUSH0 DUP4 ADD MSTORE PUSH2 0x1AA1 DUP2 PUSH2 0x1A68 JUMP JUMPDEST SWAP1 POP SWAP2 SWAP1 POP JUMP JUMPDEST PUSH32 0x45524332303A20696E73756666696369656E7420616C6C6F77616E6365000000 PUSH0 DUP3 ADD MSTORE POP JUMP JUMPDEST PUSH0 PUSH2 0x1ADC PUSH1 0x1D DUP4 PUSH2 0x1344 JUMP JUMPDEST SWAP2 POP PUSH2 0x1AE7 DUP3 PUSH2 0x1AA8 JUMP JUMPDEST PUSH1 0x20 DUP3 ADD SWAP1 POP SWAP2 SWAP1 POP JUMP JUMPDEST PUSH0 PUSH1 0x20 DUP3 ADD SWAP1 POP DUP2 DUP2 SUB PUSH0 DUP4 ADD MSTORE PUSH2 0x1B09 DUP2 PUSH2 0x1AD0 JUMP JUMPDEST SWAP1 POP SWAP2 SWAP1 POP JUMP JUMPDEST PUSH32 0x45524332303A207472616E736665722066726F6D20746865207A65726F206164 PUSH0 DUP3 ADD MSTORE PUSH32 0x6472657373000000000000000000000000000000000000000000000000000000 PUSH1 0x20 DUP3 ADD MSTORE POP JUMP JUMPDEST PUSH0 PUSH2 0x1B6A PUSH1 0x25 DUP4 PUSH2 0x1344 JUMP JUMPDEST SWAP2 POP PUSH2 0x1B75 DUP3 PUSH2 0x1B10 JUMP JUMPDEST PUSH1 0x40 DUP3 ADD SWAP1 POP SWAP2 SWAP1 POP JUMP JUMPDEST PUSH0 PUSH1 0x20 DUP3 ADD SWAP1 POP DUP2 DUP2 SUB PUSH0 DUP4 ADD MSTORE PUSH2 0x1B97 DUP2 PUSH2 0x1B5E JUMP JUMPDEST SWAP1 POP SWAP2 SWAP1 POP JUMP JUMPDEST PUSH32 0x45524332303A207472616E7366657220746F20746865207A65726F2061646472 PUSH0 DUP3 ADD MSTORE PUSH32 0x6573730000000000000000000000000000000000000000000000000000000000 PUSH1 0x20 DUP3 ADD MSTORE POP JUMP JUMPDEST PUSH0 PUSH2 0x1BF8 PUSH1 0x23 DUP4 PUSH2 0x1344 JUMP JUMPDEST SWAP2 POP PUSH2 0x1C03 DUP3 PUSH2 0x1B9E JUMP JUMPDEST PUSH1 0x40 DUP3 ADD SWAP1 POP SWAP2 SWAP1 POP JUMP JUMPDEST PUSH0 PUSH1 0x20 DUP3 ADD SWAP1 POP DUP2 DUP2 SUB PUSH0 DUP4 ADD MSTORE PUSH2 0x1C25 DUP2 PUSH2 0x1BEC JUMP JUMPDEST SWAP1 POP SWAP2 SWAP1 POP JUMP JUMPDEST PUSH32 0x45524332303A207472616E7366657220616D6F756E7420657863656564732062 PUSH0 DUP3 ADD MSTORE PUSH32 0x616C616E63650000000000000000000000000000000000000000000000000000 PUSH1 0x20 DUP3 ADD MSTORE POP JUMP JUMPDEST PUSH0 PUSH2 0x1C86 PUSH1 0x26 DUP4 PUSH2 0x1344 JUMP JUMPDEST SWAP2 POP PUSH2 0x1C91 DUP3 PUSH2 0x1C2C JUMP JUMPDEST PUSH1 0x40 DUP3 ADD SWAP1 POP SWAP2 SWAP1 POP JUMP JUMPDEST PUSH0 PUSH1 0x20 DUP3 ADD SWAP1 POP DUP2 DUP2 SUB PUSH0 DUP4 ADD MSTORE PUSH2 0x1CB3 DUP2 PUSH2 0x1C7A JUMP JUMPDEST SWAP1 POP SWAP2 SWAP1 POP JUMP JUMPDEST PUSH32 0x45524332303A206D696E7420746F20746865207A65726F206164647265737300 PUSH0 DUP3 ADD MSTORE POP JUMP JUMPDEST PUSH0 PUSH2 0x1CEE PUSH1 0x1F DUP4 PUSH2 0x1344 JUMP JUMPDEST SWAP2 POP PUSH2 0x1CF9 DUP3 PUSH2 0x1CBA JUMP JUMPDEST PUSH1 0x20 DUP3 ADD SWAP1 POP SWAP2 SWAP1 POP JUMP JUMPDEST PUSH0 PUSH1 0x20 DUP3 ADD SWAP1 POP DUP2 DUP2 SUB PUSH0 DUP4 ADD MSTORE PUSH2 0x1D1B DUP2 PUSH2 0x1CE2 JUMP JUMPDEST SWAP1 POP SWAP2 SWAP1 POP JUMP JUMPDEST PUSH0 PUSH1 0xA0 DUP3 ADD SWAP1 POP PUSH2 0x1D35 PUSH0 DUP4 ADD DUP9 PUSH2 0x1581 JUMP JUMPDEST PUSH2 0x1D42 PUSH1 0x20 DUP4 ADD DUP8 PUSH2 0x1581 JUMP JUMPDEST PUSH2 0x1D4F PUSH1 0x40 DUP4 ADD DUP7 PUSH2 0x1581 JUMP JUMPDEST PUSH2 0x1D5C PUSH1 0x60 DUP4 ADD DUP6 PUSH2 0x14CC JUMP JUMPDEST PUSH2 0x1D69 PUSH1 0x80 DUP4 ADD DUP5 PUSH2 0x18B6 JUMP JUMPDEST SWAP7 SWAP6 POP POP POP POP POP POP JUMP JUMPDEST PUSH0 DUP2 SWAP1 POP SWAP3 SWAP2 POP POP JUMP JUMPDEST PUSH32 0x1901000000000000000000000000000000000000000000000000000000000000 PUSH0 DUP3 ADD MSTORE POP JUMP JUMPDEST PUSH0 PUSH2 0x1DB1 PUSH1 0x2 DUP4 PUSH2 0x1D73 JUMP JUMPDEST SWAP2 POP PUSH2 0x1DBC DUP3 PUSH2 0x1D7D JUMP JUMPDEST PUSH1 0x2 DUP3 ADD SWAP1 POP SWAP2 SWAP1 POP JUMP JUMPDEST PUSH0 DUP2 SWAP1 POP SWAP2 SWAP1 POP JUMP JUMPDEST PUSH2 0x1DE1 PUSH2 0x1DDC DUP3 PUSH2 0x1578 JUMP JUMPDEST PUSH2 0x1DC7 JUMP JUMPDEST DUP3 MSTORE POP POP JUMP JUMPDEST PUSH0 PUSH2 0x1DF1 DUP3 PUSH2 0x1DA5 JUMP JUMPDEST SWAP2 POP PUSH2 0x1DFD DUP3 DUP6 PUSH2 0x1DD0 JUMP JUMPDEST PUSH1 0x20 DUP3 ADD SWAP2 POP PUSH2 0x1E0D DUP3 DUP5 PUSH2 0x1DD0 JUMP JUMPDEST PUSH1 0x20 DUP3 ADD SWAP2 POP DUP2 SWAP1 POP SWAP4 SWAP3 POP POP POP JUMP JUMPDEST PUSH0 PUSH1 0x80 DUP3 ADD SWAP1 POP PUSH2 0x1E30 PUSH0 DUP4 ADD DUP8 PUSH2 0x1581 JUMP JUMPDEST PUSH2 0x1E3D PUSH1 0x20 DUP4 ADD DUP7 PUSH2 0x1550 JUMP JUMPDEST PUSH2 0x1E4A PUSH1 0x40 DUP4 ADD DUP6 PUSH2 0x1581 JUMP JUMPDEST PUSH2 0x1E57 PUSH1 0x60 DUP4 ADD DUP5 PUSH2 0x1581 JUMP JUMPDEST SWAP6 SWAP5 POP POP POP POP POP JUMP JUMPDEST PUSH32 0x4E487B7100000000000000000000000000000000000000000000000000000000 PUSH0 MSTORE PUSH1 0x21 PUSH1 0x4 MSTORE PUSH1 0x24 PUSH0 REVERT JUMPDEST PUSH32 0x45434453413A20696E76616C6964207369676E61747572650000000000000000 PUSH0 DUP3 ADD MSTORE POP JUMP JUMPDEST PUSH0 PUSH2 0x1EC1 PUSH1 0x18 DUP4 PUSH2 0x1344 JUMP JUMPDEST SWAP2 POP PUSH2 0x1ECC DUP3 PUSH2 0x1E8D JUMP JUMPDEST PUSH1 0x20 DUP3 ADD SWAP1 POP SWAP2 SWAP1 POP JUMP JUMPDEST PUSH0 PUSH1 0x20 DUP3 ADD SWAP1 POP DUP2 DUP2 SUB PUSH0 DUP4 ADD MSTORE PUSH2 0x1EEE DUP2 PUSH2 0x1EB5 JUMP JUMPDEST SWAP1 POP SWAP2 SWAP1 POP JUMP JUMPDEST PUSH32 0x45434453413A20696E76616C6964207369676E6174757265206C656E67746800 PUSH0 DUP3 ADD MSTORE POP JUMP JUMPDEST PUSH0 PUSH2 0x1F29 PUSH1 0x1F DUP4 PUSH2 0x1344 JUMP JUMPDEST SWAP2 POP PUSH2 0x1F34 DUP3 PUSH2 0x1EF5 JUMP JUMPDEST PUSH1 0x20 DUP3 ADD SWAP1 POP SWAP2 SWAP1 POP JUMP JUMPDEST PUSH0 PUSH1 0x20 DUP3 ADD SWAP1 POP DUP2 DUP2 SUB PUSH0 DUP4 ADD MSTORE PUSH2 0x1F56 DUP2 PUSH2 0x1F1D JUMP JUMPDEST SWAP1 POP SWAP2 SWAP1 POP JUMP JUMPDEST PUSH32 0x45434453413A20696E76616C6964207369676E6174757265202773272076616C PUSH0 DUP3 ADD MSTORE PUSH32 0x7565000000000000000000000000000000000000000000000000000000000000 PUSH1 0x20 DUP3 ADD MSTORE POP JUMP JUMPDEST PUSH0 PUSH2 0x1FB7 PUSH1 0x22 DUP4 PUSH2 0x1344 JUMP JUMPDEST SWAP2 POP PUSH2 0x1FC2 DUP3 PUSH2 0x1F5D JUMP JUMPDEST PUSH1 0x40 DUP3 ADD SWAP1 POP SWAP2 SWAP1 POP JUMP JUMPDEST PUSH0 PUSH1 0x20 DUP3 ADD SWAP1 POP DUP2 DUP2 SUB PUSH0 DUP4 ADD MSTORE PUSH2 0x1FE4 DUP2 PUSH2 0x1FAB JUMP JUMPDEST SWAP1 POP SWAP2 SWAP1 POP JUMP JUMPDEST PUSH32 0x45434453413A20696E76616C6964207369676E6174757265202776272076616C PUSH0 DUP3 ADD MSTORE PUSH32 0x7565000000000000000000000000000000000000000000000000000000000000 PUSH1 0x20 DUP3 ADD MSTORE POP JUMP JUMPDEST PUSH0 PUSH2 0x2045 PUSH1 0x22 DUP4 PUSH2 0x1344 JUMP JUMPDEST SWAP2 POP PUSH2 0x2050 DUP3 PUSH2 0x1FEB JUMP JUMPDEST PUSH1 0x40 DUP3 ADD SWAP1 POP SWAP2 SWAP1 POP JUMP JUMPDEST PUSH0 PUSH1 0x20 DUP3 ADD SWAP1 POP DUP2 DUP2 SUB PUSH0 DUP4 ADD MSTORE PUSH2 0x2072 DUP2 PUSH2 0x2039 JUMP JUMPDEST SWAP1 POP SWAP2 SWAP1 POP JUMP INVALID LOG2 PUSH5 0x6970667358 0x22 SLT KECCAK256 0xE3 PUSH7 0xAEC472BAD196FA SSTORE 0xD8 0xB7 DUP10 SGT PUSH11 0x6FC3011D2DB375C1B7FD60 0xD8 RETURNDATACOPY MCOPY PUSH32 0x2EB664736F6C634300081A003300000000000000000000000000000000000000 "
		},
		"gasEstimates": {
			"creation": {
				"codeDepositCost": "1673400",
				"executionCost": "infinite",
				"totalCost": "infinite"
			},
			"external": {
				"DOMAIN_SEPARATOR()": "infinite",
				"allowance(address,address)": "infinite",
				"approve(address,uint256)": "infinite",
				"balanceOf(address)": "2874",
				"decimals()": "383",
				"decreaseAllowance(address,uint256)": "infinite",
				"increaseAllowance(address,uint256)": "infinite",
				"mint(address,uint256)": "infinite",
				"name()": "infinite",
				"nonces(address)": "2943",
				"permit(address,address,uint256,uint256,uint8,bytes32,bytes32)": "infinite",
				"symbol()": "infinite",
				"totalSupply()": "2500",
				"transfer(address,uint256)": "infinite",
				"transferFrom(address,address,uint256)": "infinite"
			}
		},
		"methodIdentifiers": {
			"DOMAIN_SEPARATOR()": "3644e515",
			"allowance(address,address)": "dd62ed3e",
			"approve(address,uint256)": "095ea7b3",
			"balanceOf(address)": "70a08231",
			"decimals()": "313ce567",
			"decreaseAllowance(address,uint256)": "a457c2d7",
			"increaseAllowance(address,uint256)": "39509351",
			"mint(address,uint256)": "40c10f19",
			"name()": "06fdde03",
			"nonces(address)": "7ecebe00",
			"permit(address,address,uint256,uint256,uint8,bytes32,bytes32)": "d505accf",
			"symbol()": "95d89b41",
			"totalSupply()": "18160ddd",
			"transfer(address,uint256)": "a9059cbb",
			"transferFrom(address,address,uint256)": "23b872dd"
		}
	},
	"abi": [
		{
			"inputs": [],
			"stateMutability": "nonpayable",
			"type": "constructor"
		},
		{
			"anonymous": false,
			"inputs": [
				{
					"indexed": true,
					"internalType": "address",
					"name": "owner",
					"type": "address"
				},
				{
					"indexed": true,
					"internalType": "address",
					"name": "spender",
					"type": "address"
				},
				{
					"indexed": false,
					"internalType": "uint256",
					"name": "value",
					"type": "uint256"
				}
			],
			"name": "Approval",
			"type": "event"
		},
		{
			"anonymous": false,
			"inputs": [
				{
					"indexed": true,
					"internalType": "address",
					"name": "from",
					"type": "address"
				},
				{
					"indexed": true,
					"internalType": "address",
					"name": "to",
					"type": "address"
				},
				{
					"indexed": false,
					"internalType": "uint256",
					"name": "value",
					"type": "uint256"
				}
			],
			"name": "Transfer",
			"type": "event"
		},
		{
			"inputs": [],
			"name": "DOMAIN_SEPARATOR",
			"outputs": [
				{
					"internalType": "bytes32",
					"name": "",
					"type": "bytes32"
				}
			],
			"stateMutability": "view",
			"type": "function"
		},
		{
			"inputs": [
				{
					"internalType": "address",
					"name": "owner",
					"type": "address"
				},
				{
					"internalType": "address",
					"name": "spender",
					"type": "address"
				}
			],
			"name": "allowance",
			"outputs": [
				{
					"internalType": "uint256",
					"name": "",
					"type": "uint256"
				}
			],
			"stateMutability": "view",
			"type": "function"
		},
		{
			"inputs": [
				{
					"internalType": "address",
					"name": "spender",
					"type": "address"
				},
				{
					"internalType": "uint256",
					"name": "amount",
					"type": "uint256"
				}
			],
			"name": "approve",
			"outputs": [
				{
					"internalType": "bool",
					"name": "",
					"type": "bool"
				}
			],
			"stateMutability": "nonpayable",
			"type": "function"
		},
		{
			"inputs": [
				{
					"internalType": "address",
					"name": "account",
					"type": "address"
				}
			],
			"name": "balanceOf",
			"outputs": [
				{
					"internalType": "uint256",
					"name": "",
					"type": "uint256"
				}
			],
			"stateMutability": "view",
			"type": "function"
		},
		{
			"inputs": [],
			"name": "decimals",
			"outputs": [
				{
					"internalType": "uint8",
					"name": "",
					"type": "uint8"
				}
			],
			"stateMutability": "view",
			"type": "function"
		},
		{
			"inputs": [
				{
					"internalType": "address",
					"name": "spender",
					"type": "address"
				},
				{
					"internalType": "uint256",
					"name": "subtractedValue",
					"type": "uint256"
				}
			],
			"name": "decreaseAllowance",
			"outputs": [
				{
					"internalType": "bool",
					"name": "",
					"type": "bool"
				}
			],
			"stateMutability": "nonpayable",
			"type": "function"
		},
		{
			"inputs": [
				{
					"internalType": "address",
					"name": "spender",
					"type": "address"
				},
				{
					"internalType": "uint256",
					"name": "addedValue",
					"type": "uint256"
				}
			],
			"name": "increaseAllowance",
			"outputs": [
				{
					"internalType": "bool",
					"name": "",
					"type": "bool"
				}
			],
			"stateMutability": "nonpayable",
			"type": "function"
		},
		{
			"inputs": [
				{
					"internalType": "address",
					"name": "to",
					"type": "address"
				},
				{
					"internalType": "uint256",
					"name": "value",
					"type": "uint256"
				}
			],
			"name": "mint",
			"outputs": [],
			"stateMutability": "nonpayable",
			"type": "function"
		},
		{
			"inputs": [],
			"name": "name",
			"outputs": [
				{
					"internalType": "string",
					"name": "",
					"type": "string"
				}
			],
			"stateMutability": "view",
			"type": "function"
		},
		{
			"inputs": [
				{
					"internalType": "address",
					"name": "owner",
					"type": "address"
				}
			],
			"name": "nonces",
			"outputs": [
				{
					"internalType": "uint256",
					"name": "",
					"type": "uint256"
				}
			],
			"stateMutability": "view",
			"type": "function"
		},
		{
			"inputs": [
				{
					"internalType": "address",
					"name": "owner",
					"type": "address"
				},
				{
					"internalType": "address",
					"name": "spender",
					"type": "address"
				},
				{
					"internalType": "uint256",
					"name": "value",
					"type": "uint256"
				},
				{
					"internalType": "uint256",
					"name": "deadline",
					"type": "uint256"
				},
				{
					"internalType": "uint8",
					"name": "v",
					"type": "uint8"
				},
				{
					"internalType": "bytes32",
					"name": "r",
					"type": "bytes32"
				},
				{
					"internalType": "bytes32",
					"name": "s",
					"type": "bytes32"
				}
			],
			"name": "permit",
			"outputs": [],
			"stateMutability": "nonpayable",
			"type": "function"
		},
		{
			"inputs": [],
			"name": "symbol",
			"outputs": [
				{
					"internalType": "string",
					"name": "",
					"type": "string"
				}
			],
			"stateMutability": "view",
			"type": "function"
		},
		{
			"inputs": [],
			"name": "totalSupply",
			"outputs": [
				{
					"internalType": "uint256",
					"name": "",
					"type": "uint256"
				}
			],
			"stateMutability": "view",
			"type": "function"
		},
		{
			"inputs": [
				{
					"internalType": "address",
					"name": "to",
					"type": "address"
				},
				{
					"internalType": "uint256",
					"name": "amount",
					"type": "uint256"
				}
			],
			"name": "transfer",
			"outputs": [
				{
					"internalType": "bool",
					"name": "",
					"type": "bool"
				}
			],
			"stateMutability": "nonpayable",
			"type": "function"
		},
		{
			"inputs": [
				{
					"internalType": "address",
					"name": "from",
					"type": "address"
				},
				{
					"internalType": "address",
					"name": "to",
					"type": "address"
				},
				{
					"internalType": "uint256",
					"name": "amount",
					"type": "uint256"
				}
			],
			"name": "transferFrom",
			"outputs": [
				{
					"internalType": "bool",
					"name": "",
					"type": "bool"
				}
			],
			"stateMutability": "nonpayable",
			"type": "function"
		}
	]
}