{
	"data": {
		"bytecode": {
			"linkReferences": {},
			"object": "6080604052348015600e575f80fd5b5061055d8061001c5f395ff3fe608060405260043610610049575f3560e01c806312065fe01461004d5780638da5cb5b14610077578063b69ef8a8146100a1578063c4d66de8146100cb578063d0e30db0146100f3575b5f80fd5b348015610058575f80fd5b506100616100fd565b60405161006e91906102f6565b60405180910390f35b348015610082575f80fd5b5061008b610106565b604051610098919061034e565b60405180910390f35b3480156100ac575f80fd5b506100b5610129565b6040516100c291906102f6565b60405180910390f35b3480156100d6575f80fd5b506100f160048036038101906100ec9190610395565b61012f565b005b6100fb6101fe565b005b5f600154905090565b5f8054906101000a900473ffffffffffffffffffffffffffffffffffffffff1681565b60015481565b5f73ffffffffffffffffffffffffffffffffffffffff165f8054906101000a900473ffffffffffffffffffffffffffffffffffffffff1673ffffffffffffffffffffffffffffffffffffffff16146101bc576040517f08c379a00000000000000000000000000000000000000000000000000000000081526004016101b39061041a565b60405180910390fd5b805f806101000a81548173ffffffffffffffffffffffffffffffffffffffff021916908373ffffffffffffffffffffffffffffffffffffffff16021790555050565b5f8054906101000a900473ffffffffffffffffffffffffffffffffffffffff1673ffffffffffffffffffffffffffffffffffffffff163373ffffffffffffffffffffffffffffffffffffffff161461028b576040517f08c379a000000000000000000000000000000000000000000000000000000000815260040161028290610482565b60405180910390fd5b3460015f82825461029c91906104cd565b925050819055507f2da466a7b24304f47e87fa2e1e5a81b9831ce54fec19055ce277ca2f39ba42c433346040516102d4929190610500565b60405180910390a1565b5f819050919050565b6102f0816102de565b82525050565b5f6020820190506103095f8301846102e7565b92915050565b5f73ffffffffffffffffffffffffffffffffffffffff82169050919050565b5f6103388261030f565b9050919050565b6103488161032e565b82525050565b5f6020820190506103615f83018461033f565b92915050565b5f80fd5b6103748161032e565b811461037e575f80fd5b50565b5f8135905061038f8161036b565b92915050565b5f602082840312156103aa576103a9610367565b5b5f6103b784828501610381565b91505092915050565b5f82825260208201905092915050565b7f416c726561647920696e697469616c697a6564000000000000000000000000005f82015250565b5f6104046013836103c0565b915061040f826103d0565b602082019050919050565b5f6020820190508181035f830152610431816103f8565b9050919050565b7f4f6e6c79206f776e65722063616e206465706f736974000000000000000000005f82015250565b5f61046c6016836103c0565b915061047782610438565b602082019050919050565b5f6020820190508181035f83015261049981610460565b9050919050565b7f4e487b71000000000000000000000000000000000000000000000000000000005f52601160045260245ffd5b5f6104d7826102de565b91506104e2836102de565b92508282019050808211156104fa576104f96104a0565b5b92915050565b5f6040820190506105135f83018561033f565b61052060208301846102e7565b939250505056fea2646970667358221220cd684d7c73adb53c6e4bcf47c1202a304093b7072894771eea58aaa8813ff21064736f6c634300081a0033",
			"opcodes": "PUSH1 0x80 PUSH1 0x40 MSTORE CALLVALUE DUP1 ISZERO PUSH1 0xE JUMPI PUSH0 DUP1 REVERT JUMPDEST POP PUSH2 0x55D DUP1 PUSH2 0x1C PUSH0 CODECOPY PUSH0 RETURN INVALID PUSH1 0x80 PUSH1 0x40 MSTORE PUSH1 0x4 CALLDATASIZE LT PUSH2 0x49 JUMPI PUSH0 CALLDATALOAD PUSH1 0xE0 SHR DUP1 PUSH4 0x12065FE0 EQ PUSH2 0x4D JUMPI DUP1 PUSH4 0x8DA5CB5B EQ PUSH2 0x77 JUMPI DUP1 PUSH4 0xB69EF8A8 EQ PUSH2 0xA1 JUMPI DUP1 PUSH4 0xC4D66DE8 EQ PUSH2 0xCB JUMPI DUP1 PUSH4 0xD0E30DB0 EQ PUSH2 0xF3 JUMPI JUMPDEST PUSH0 DUP1 REVERT JUMPDEST CALLVALUE DUP1 ISZERO PUSH2 0x58 JUMPI PUSH0 DUP1 REVERT JUMPDEST POP PUSH2 0x61 PUSH2 0xFD JUMP JUMPDEST PUSH1 0x40 MLOAD PUSH2 0x6E SWAP2 SWAP1 PUSH2 0x2F6 JUMP JUMPDEST PUSH1 0x40 MLOAD DUP1 SWAP2 SUB SWAP1 RETURN JUMPDEST CALLVALUE DUP1 ISZERO PUSH2 0x82 JUMPI PUSH0 DUP1 REVERT JUMPDEST POP PUSH2 0x8B PUSH2 0x106 JUMP JUMPDEST PUSH1 0x40 MLOAD PUSH2 0x98 SWAP2 SWAP1 PUSH2 0x34E JUMP JUMPDEST PUSH1 0x40 MLOAD DUP1 SWAP2 SUB SWAP1 RETURN JUMPDEST CALLVALUE DUP1 ISZERO PUSH2 0xAC JUMPI PUSH0 DUP1 REVERT JUMPDEST POP PUSH2 0xB5 PUSH2 0x129 JUMP JUMPDEST PUSH1 0x40 MLOAD PUSH2 0xC2 SWAP2 SWAP1 PUSH2 0x2F6 JUMP JUMPDEST PUSH1 0x40 MLOAD DUP1 SWAP2 SUB SWAP1 RETURN JUMPDEST CALLVALUE DUP1 ISZERO PUSH2 0xD6 JUMPI PUSH0 DUP1 REVERT JUMPDEST POP PUSH2 0xF1 PUSH1 0x4 DUP1 CALLDATASIZE SUB DUP2 ADD SWAP1 PUSH2 0xEC SWAP2 SWAP1 PUSH2 0x395 JUMP JUMPDEST PUSH2 0x12F JUMP JUMPDEST STOP JUMPDEST PUSH2 0xFB PUSH2 0x1FE JUMP JUMPDEST STOP JUMPDEST PUSH0 PUSH1 0x1 SLOAD SWAP1 POP SWAP1 JUMP JUMPDEST PUSH0 DUP1 SLOAD SWAP1 PUSH2 0x100 EXP SWAP1 DIV PUSH20 0xFFFFFFFFFFFFFFFFFFFFFFFFFFFFFFFFFFFFFFFF AND DUP2 JUMP JUMPDEST PUSH1 0x1 SLOAD DUP2 JUMP JUMPDEST PUSH0 PUSH20 0xFFFFFFFFFFFFFFFFFFFFFFFFFFFFFFFFFFFFFFFF AND PUSH0 DUP1 SLOAD SWAP1 PUSH2 0x100 EXP SWAP1 DIV PUSH20 0xFFFFFFFFFFFFFFFFFFFFFFFFFFFFFFFFFFFFFFFF AND PUSH20 0xFFFFFFFFFFFFFFFFFFFFFFFFFFFFFFFFFFFFFFFF AND EQ PUSH2 0x1BC JUMPI PUSH1 0x40 MLOAD PUSH32 0x8C379A000000000000000000000000000000000000000000000000000000000 DUP2 MSTORE PUSH1 0x4 ADD PUSH2 0x1B3 SWAP1 PUSH2 0x41A JUMP JUMPDEST PUSH1 0x40 MLOAD DUP1 SWAP2 SUB SWAP1 REVERT JUMPDEST DUP1 PUSH0 DUP1 PUSH2 0x100 EXP DUP2 SLOAD DUP2 PUSH20 0xFFFFFFFFFFFFFFFFFFFFFFFFFFFFFFFFFFFFFFFF MUL NOT AND SWAP1 DUP4 PUSH20 0xFFFFFFFFFFFFFFFFFFFFFFFFFFFFFFFFFFFFFFFF AND MUL OR SWAP1 SSTORE POP POP JUMP JUMPDEST PUSH0 DUP1 SLOAD SWAP1 PUSH2 0x100 EXP SWAP1 DIV PUSH20 0xFFFFFFFFFFFFFFFFFFFFFFFFFFFFFFFFFFFFFFFF AND PUSH20 0xFFFFFFFFFFFFFFFFFFFFFFFFFFFFFFFFFFFFFFFF AND CALLER PUSH20 0xFFFFFFFFFFFFFFFFFFFFFFFFFFFFFFFFFFFFFFFF AND EQ PUSH2 0x28B JUMPI PUSH1 0x40 MLOAD PUSH32 0x8C379A000000000000000000000000000000000000000000000000000000000 DUP2 MSTORE PUSH1 0x4 ADD PUSH2 0x282 SWAP1 PUSH2 0x482 JUMP JUMPDEST PUSH1 0x40 MLOAD DUP1 SWAP2 SUB SWAP1 REVERT JUMPDEST CALLVALUE PUSH1 0x1 PUSH0 DUP3 DUP3 SLOAD PUSH2 0x29C SWAP2 SWAP1 PUSH2 0x4CD JUMP JUMPDEST SWAP3 POP POP DUP2 SWAP1 SSTORE POP PUSH32 0x2DA466A7B24304F47E87FA2E1E5A81B9831CE54FEC19055CE277CA2F39BA42C4 CALLER CALLVALUE PUSH1 0x40 MLOAD PUSH2 0x2D4 SWAP3 SWAP2 SWAP1 PUSH2 0x500 JUMP JUMPDEST PUSH1 0x40 MLOAD DUP1 SWAP2 SUB SWAP1 LOG1 JUMP JUMPDEST PUSH0 DUP2 SWAP1 POP SWAP2 SWAP1 POP JUMP JUMPDEST PUSH2 0x2F0 DUP2 PUSH2 0x2DE JUMP JUMPDEST DUP3 MSTORE POP POP JUMP JUMPDEST PUSH0 PUSH1 0x20 DUP3 ADD SWAP1 POP PUSH2 0x309 PUSH0 DUP4 ADD DUP5 PUSH2 0x2E7 JUMP JUMPDEST SWAP3 SWAP2 POP POP JUMP JUMPDEST PUSH0 PUSH20 0xFFFFFFFFFFFFFFFFFFFFFFFFFFFFFFFFFFFFFFFF DUP3 AND SWAP1 POP SWAP2 SWAP1 POP JUMP JUMPDEST PUSH0 PUSH2 0x338 DUP3 PUSH2 0x30F JUMP JUMPDEST SWAP1 POP SWAP2 SWAP1 POP JUMP JUMPDEST PUSH2 0x348 DUP2 PUSH2 0x32E JUMP JUMPDEST DUP3 MSTORE POP POP JUMP JUMPDEST PUSH0 PUSH1 0x20 DUP3 ADD SWAP1 POP PUSH2 0x361 PUSH0 DUP4 ADD DUP5 PUSH2 0x33F JUMP JUMPDEST SWAP3 SWAP2 POP POP JUMP JUMPDEST PUSH0 DUP1 REVERT JUMPDEST PUSH2 0x374 DUP2 PUSH2 0x32E JUMP JUMPDEST DUP2 EQ PUSH2 0x37E JUMPI PUSH0 DUP1 REVERT JUMPDEST POP JUMP JUMPDEST PUSH0 DUP2 CALLDATALOAD SWAP1 POP PUSH2 0x38F DUP2 PUSH2 0x36B JUMP JUMPDEST SWAP3 SWAP2 POP POP JUMP JUMPDEST PUSH0 PUSH1 0x20 DUP3 DUP5 SUB SLT ISZERO PUSH2 0x3AA JUMPI PUSH2 0x3A9 PUSH2 0x367 JUMP JUMPDEST JUMPDEST PUSH0 PUSH2 0x3B7 DUP5 DUP3 DUP6 ADD PUSH2 0x381 JUMP JUMPDEST SWAP2 POP POP SWAP3 SWAP2 POP POP JUMP JUMPDEST PUSH0 DUP3 DUP3 MSTORE PUSH1 0x20 DUP3 ADD SWAP1 POP SWAP3 SWAP2 POP POP JUMP JUMPDEST PUSH32 0x416C726561647920696E697469616C697A656400000000000000000000000000 PUSH0 DUP3 ADD MSTORE POP JUMP JUMPDEST PUSH0 PUSH2 0x404 PUSH1 0x13 DUP4 PUSH2 0x3C0 JUMP JUMPDEST SWAP2 POP PUSH2 0x40F DUP3 PUSH2 0x3D0 JUMP JUMPDEST PUSH1 0x20 DUP3 ADD SWAP1 POP SWAP2 SWAP1 POP JUMP JUMPDEST PUSH0 PUSH1 0x20 DUP3 ADD SWAP1 POP DUP2 DUP2 SUB PUSH0 DUP4 ADD MSTORE PUSH2 0x431 DUP2 PUSH2 0x3F8 JUMP JUMPDEST SWAP1 POP SWAP2 SWAP1 POP JUMP JUMPDEST PUSH32 0x4F6E6C79206F776E65722063616E206465706F73697400000000000000000000 PUSH0 DUP3 ADD MSTORE POP JUMP JUMPDEST PUSH0 PUSH2 0x46C PUSH1 0x16 DUP4 PUSH2 0x3C0 JUMP JUMPDEST SWAP2 POP PUSH2 0x477 DUP3 PUSH2 0x438 JUMP JUMPDEST PUSH1 0x20 DUP3 ADD SWAP1 POP SWAP2 SWAP1 POP JUMP JUMPDEST PUSH0 PUSH1 0x20 DUP3 ADD SWAP1 POP DUP2 DUP2 SUB PUSH0 DUP4 ADD MSTORE PUSH2 0x499 DUP2 PUSH2 0x460 JUMP JUMPDEST SWAP1 POP SWAP2 SWAP1 POP JUMP JUMPDEST PUSH32 0x4E487B7100000000000000000000000000000000000000000000000000000000 PUSH0 MSTORE PUSH1 0x11 PUSH1 0x4 MSTORE PUSH1 0x24 PUSH0 REVERT JUMPDEST PUSH0 PUSH2 0x4D7 DUP3 PUSH2 0x2DE JUMP JUMPDEST SWAP2 POP PUSH2 0x4E2 DUP4 PUSH2 0x2DE JUMP JUMPDEST SWAP3 POP DUP3 DUP3 ADD SWAP1 POP DUP1 DUP3 GT ISZERO PUSH2 0x4FA JUMPI PUSH2 0x4F9 PUSH2 0x4A0 JUMP JUMPDEST JUMPDEST SWAP3 SWAP2 POP POP JUMP JUMPDEST PUSH0 PUSH1 0x40 DUP3 ADD SWAP1 POP PUSH2 0x513 PUSH0 DUP4 ADD DUP6 PUSH2 0x33F JUMP JUMPDEST PUSH2 0x520 PUSH1 0x20 DUP4 ADD DUP5 PUSH2 0x2E7 JUMP JUMPDEST SWAP4 SWAP3 POP POP POP JUMP INVALID LOG2 PUSH5 0x6970667358 0x22 SLT KECCAK256 0xCD PUSH9 0x4D7C73ADB53C6E4BCF SELFBALANCE 0xC1 KECCAK256 0x2A ADDRESS BLOCKHASH SWAP4 0xB7 SMOD 0x28 SWAP5 PUSH24 0x1EEA58AAA8813FF21064736F6C634300081A003300000000 "
		},
		"gasEstimates": {
			"creation": {
				"codeDepositCost": "274600",
				"executionCost": "310",
				"totalCost": "274910"
			},
			"external": {
				"balance()": "2447",
				"deposit()": "infinite",
				"getBalance()": "2410",
				"initialize(address)": "26925",
				"owner()": "2505"
			}
		},
		"methodIdentifiers": {
			"balance()": "b69ef8a8",
			"deposit()": "d0e30db0",
			"getBalance()": "12065fe0",
			"initialize(address)": "c4d66de8",
			"owner()": "8da5cb5b"
		}
	},
	"abi": [
		{
			"anonymous": false,
			"inputs": [
				{
					"indexed": false,
					"internalType": "address",
					"name": "user",
					"type": "address"
				},
				{
					"indexed": false,
					"internalType": "uint256",
					"name": "amount",
					"type": "uint256"
				}
			],
			"name": "Deposited",
			"type": "event"
		},
		{
			"inputs": [],
			"name": "balance",
			"outputs": [
				{
					"internalType": "uint256",
					"name": "",
					"type": "uint256"
				}
			],
			"stateMutability": "view",
			"type": "function"
		},
		{
			"inputs": [],
			"name": "deposit",
			"outputs": [],
			"stateMutability": "payable",
			"type": "function"
		},
		{
			"inputs": [],
			"name": "getBalance",
			"outputs": [
				{
					"internalType": "uint256",
					"name": "",
					"type": "uint256"
				}
			],
			"stateMutability": "view",
			"type": "function"
		},
		{
			"inputs": [
				{
					"internalType": "address",
					"name": "_owner",
					"type": "address"
				}
			],
			"name": "initialize",
			"outputs": [],
			"stateMutability": "nonpayable",
			"type": "function"
		},
		{
			"inputs": [],
			"name": "owner",
			"outputs": [
				{
					"internalType": "address",
					"name": "",
					"type": "address"
				}
			],
			"stateMutability": "view",
			"type": "function"
		}
	]
}